{
	"data": {
		"bytecode": {
			"linkReferences": {},
			"object": "6101406040523480156200001257600080fd5b5060405162005b4638038062005b468339810160408190526200003591620001c3565b80604051806020016200004890620001b5565b601f1982820381018352601f909101166040528051819060006002820460a081905280830360e0819052818552909150836200009081620000f9602090811b620002c117901c565b60601b6001600160601b0319166080528285018051838252620000bf82620000f9602090811b620002c117901c565b6001600160601b0319606091821b811660c0529690935290529590951b90911661010052505050426276a700016101205250620001f39050565b80517f602038038060206000396000f3fefefefefefefefefefefefefefefefefefefe808352600091602081018484f09084529150620001476001600160a01b03831615156101ac6200014d565b50919050565b816200015e576200015e8162000162565b5050565b62461bcd60e51b6000908152602060045260076024526642414c23000030600a808404818106603090810160081b95839006959095019082900491820690940160101b939093010160c81b604452606490fd5b6151118062000a3583390190565b600060208284031215620001d5578081fd5b81516001600160a01b0381168114620001ec578182fd5b9392505050565b60805160601c60a05160c05160601c60e0516101005160601c610120516107e0620002556000398061021b528061024452508061029f52508061031b52508061013a528061039752508061033c525080610119528061037352506107e06000f3fe608060405234801561001057600080fd5b50600436106100615760003560e01c8062c194db14610066578063174481fa146100845780632ccb254a1461009a5780632da47c40146100ba5780636634b753146100d05780638d928af8146100f0575b600080fd5b61006e6100f8565b60405161007b91906106e2565b60405180910390f35b61008c610117565b60405161007b9291906106bd565b6100ad6100a83660046105c4565b61015d565b60405161007b91906106f5565b6100c2610215565b60405161007b929190610784565b6100e36100de3660046105a8565b61027f565b60405161007b91906106d7565b6100ad61029d565b606061011260405180602001604052806000815250610313565b905090565b7f00000000000000000000000000000000000000000000000000000000000000007f00000000000000000000000000000000000000000000000000000000000000009091565b600080600061016a610215565b9150915060006101b161017b61029d565b8c8c8c8c8c8c8a8a8e60405160200161019d9a99989796959493929190610709565b6040516020818303038152906040526103ec565b9050806001600160a01b0316638129fc1c6040518163ffffffff1660e01b8152600401600060405180830381600087803b1580156101ee57600080fd5b505af1158015610202573d6000803e3d6000fd5b50929d9c50505050505050505050505050565b600080427f000000000000000000000000000000000000000000000000000000000000000081101561027157807f000000000000000000000000000000000000000000000000000000000000000003925062278d00915061027a565b60009250600091505b509091565b6001600160a01b031660009081526020819052604090205460ff1690565b7f000000000000000000000000000000000000000000000000000000000000000090565b80517f602038038060206000396000f3fefefefefefefefefefefefefefefefefefefe808352600091602081018484f0908452915061030d6001600160a01b03831615156101ac61044c565b50919050565b8051604080517f00000000000000000000000000000000000000000000000000000000000000007f0000000000000000000000000000000000000000000000000000000000000000818101858101848101602090810190965280855293957f00000000000000000000000000000000000000000000000000000000000000009592947f000000000000000000000000000000000000000000000000000000000000000094938801866000828a3c846000888301883c50602089810190898501016103de81838661045e565b505050505050505050919050565b6000806103f88361049c565b6001600160a01b038116600081815260208190526040808220805460ff191660011790555192935090917f83a48fbcfc991335314e74d0496aab6a1987e992ddc85dddbcc4d6dd6ef2e9fc9190a292915050565b8161045a5761045a816104d7565b5050565b5b6020811061047e578151835260209283019290910190601f190161045f565b905182516020929092036101000a6000190180199091169116179052565b600060606104a983610313565b905060008151602083016000f090506001600160a01b0381166104d0573d6000803e3d6000fd5b9392505050565b62461bcd60e51b6000908152602060045260076024526642414c23000030600a808404818106603090810160081b95839006959095019082900491820690940160101b939093010160c81b604452606490fd5b600082601f83011261053a578081fd5b813567ffffffffffffffff80821115610551578283fd5b604051601f8301601f191681016020018281118282101715610571578485fd5b60405282815292508284830160200186101561058c57600080fd5b8260208601602083013760006020848301015250505092915050565b6000602082840312156105b9578081fd5b81356104d081610792565b600080600080600080600060e0888a0312156105de578283fd5b873567ffffffffffffffff808211156105f5578485fd5b6106018b838c0161052a565b985060208a0135915080821115610616578485fd5b506106238a828b0161052a565b965050604088013561063481610792565b9450606088013561064481610792565b93506080880135925060a0880135915060c088013561066281610792565b8091505092959891949750929550565b60008151808452815b818110156106975760208185018101518683018201520161067b565b818111156106a85782602083870101525b50601f01601f19169290920160200192915050565b6001600160a01b0392831681529116602082015260400190565b901515815260200190565b6000602082526104d06020830184610672565b6001600160a01b0391909116815260200190565b6001600160a01b038b811682526101406020830181905260009161072f8483018e610672565b91508382036040850152610743828d610672565b9a811660608501529889166080840152505060a081019590955260c085019390935260e0840191909152610100830152909116610120909101529392505050565b918252602082015260400190565b6001600160a01b03811681146107a757600080fd5b5056fea2646970667358221220c89bca83b2d8a894020325d9d97a41f03f30f5ba8a353a3c4f1a4a2376f00bbc64736f6c634300070100336102c06040527f6e71edae12b1b97f4d1f60370fef10105fa2faae0126114a169c64845d6126c9610120523480156200003757600080fd5b5060405162005111380380620051118339810160408190526200005a9162000bbf565b898989898989898989898960008a8a620000768b8b30620004e1565b6040805160038082526080820190925290602082016060803683370190505089898989828289898d8280604051806040016040528060018152602001603160f81b81525085858a336001600160a01b031660001b806080818152505050806001600160a01b031660a0816001600160a01b031660601b815250505081600390805190602001906200010992919062000a30565b5080516200011f90600490602084019062000a30565b505060058054601260ff1990911617905550815160209283012060c052805191012060e052507f8b73c3c69bb8fe3d512ecc4cf759cc79239f7b179b0ffacaa9a75d522b39400f6101005260601b6001600160601b03191661014052506200019290506276a700831115610194620005b0565b620001a662278d00821115610195620005b0565b4290910161016081905201610180528551620001c8906002111560c8620005b0565b620001e2620001d6620005c5565b8751111560c9620005b0565b620001f886620005ca60201b620013891760201c565b6200020384620005d6565b6040516309b2760f60e01b81526000906001600160a01b038c16906309b2760f9062000234908d9060040162000d5d565b602060405180830381600087803b1580156200024f57600080fd5b505af115801562000264573d6000803e3d6000fd5b505050506040513d601f19601f820116820180604052508101906200028a919062000ba6565b604051633354e3e960e11b81529091506001600160a01b038c16906366a9c7d290620002bf9084908b908b9060040162000cc1565b600060405180830381600087803b158015620002da57600080fd5b505af1158015620002ef573d6000803e3d6000fd5b50505050806101a081815250505050505050505050505050866001600160a01b03166101c0816001600160a01b031660601b81525050856001600160a01b03166101e0816001600160a01b031660601b8152505060008060006200035b8a8a306200066260201b60201c565b610200819052610220839052610240829052919450925090506200037f8a62000758565b610260526200038e8962000758565b610280526000620003a18b828b6200082c565b5050505050505050505050505050856001600160a01b031663b4dcfc776040518163ffffffff1660e01b815260040160206040518083038186803b158015620003e957600080fd5b505afa158015620003fe573d6000803e3d6000fd5b505050506040513d601f19601f8201168201806040525081019062000424919062000b80565b6001600160a01b03166102a0816001600160a01b031660601b81525050620004d1866001600160a01b0316634800d97f6040518163ffffffff1660e01b815260040160206040518083038186803b1580156200047f57600080fd5b505afa15801562000494573d6000803e3d6000fd5b505050506040513d601f19601f82011682018060405250810190620004ba919062000b80565b6001600160a01b03898116911614610208620005b0565b5050505050505050505062000dab565b606060008080620004f487878762000662565b60408051600380825260808201909252939650919450925060208201606080368337019050509350868484815181106200052a57fe5b60200260200101906001600160a01b031690816001600160a01b031681525050858483815181106200055857fe5b60200260200101906001600160a01b031690816001600160a01b031681525050848482815181106200058657fe5b60200260200101906001600160a01b031690816001600160a01b0316815250505050509392505050565b81620005c157620005c181620008da565b5050565b600390565b80620005c1816200092d565b620005eb64e8d4a5100082101560cb620005b0565b6200060367016345785d8a000082111560ca620005b0565b620006228160c0600854620009ba60201b62001393179092919060201c565b6008556040517fa9ba3ffe0b6c366b81232caab38605a0699ad5398d6cce76f91ee809e322dafc906200065790839062000d72565b60405180910390a150565b6000806000846001600160a01b0316866001600160a01b03161015620006eb57836001600160a01b0316856001600160a01b03161015620006ae5750600091506001905060026200074f565b836001600160a01b0316866001600160a01b03161015620006da5750600091506002905060016200074f565b50600191506002905060006200074f565b846001600160a01b0316846001600160a01b03161015620007175750600291506001905060006200074f565b856001600160a01b0316846001600160a01b03161015620007435750600291506000905060016200074f565b50600191506000905060025b93509350939050565b60006001600160a01b0382163014156200077c5750670de0b6b3a764000062000827565b6000826001600160a01b031663313ce5676040518163ffffffff1660e01b815260040160206040518083038186803b158015620007b857600080fd5b505afa158015620007cd573d6000803e3d6000fd5b505050506040513d601f19601f82011682018060405250810190620007f3919062000c9e565b60ff169050600062000812601283620009cf60201b620013a91760201c565b905080600a0a670de0b6b3a764000002925050505b919050565b6200083d8183111561014c620005b0565b620008556001600160601b0382111561014d620005b0565b6200089062000871826060620009ec60201b620013bf1760201c565b62000889846000620009ec60201b620013bf1760201c565b17620009f0565b826001600160a01b03167fd0e27a0d0c2cb09280fa5e4487315455b32afcdcf012dc35b6ef2a0e3c4d12808383604051620008cd92919062000d7b565b60405180910390a2505050565b62461bcd60e51b6000908152602060045260076024526642414c23000030600a808404818106603090810160081b95839006959095019082900491820690940160101b939093010160c81b604452606490fd5b6002815110156200093e57620009b7565b6000816000815181106200094e57fe5b602002602001015190506000600190505b8251811015620009b45760008382815181106200097857fe5b60200260200101519050620009a9816001600160a01b0316846001600160a01b0316106065620005b060201b60201c565b91506001016200095f565b50505b50565b6001600160401b03811b1992909216911b1790565b6000620009e1838311156001620005b0565b508082035b92915050565b1b90565b62000a0f81600060085462000a1560201b620013c3179092919060201c565b60085550565b6001600160c01b03828116821b90821b198416179392505050565b828054600181600116156101000203166002900490600052602060002090601f016020900481019282601f1062000a7357805160ff191683800117855562000aa3565b8280016001018555821562000aa3579182015b8281111562000aa357825182559160200191906001019062000a86565b5062000ab192915062000ab5565b5090565b5b8082111562000ab1576000815560010162000ab6565b8051620009e68162000d95565b600082601f83011262000aea578081fd5b81516001600160401b038082111562000b01578283fd5b6040516020601f8401601f191682018101838111838210171562000b23578586fd5b8060405250819450838252868185880101111562000b4057600080fd5b600092505b8383101562000b64578583018101518284018201529182019162000b45565b8383111562000b765760008185840101525b5050505092915050565b60006020828403121562000b92578081fd5b815162000b9f8162000d95565b9392505050565b60006020828403121562000bb8578081fd5b5051919050565b6000806000806000806000806000806101408b8d03121562000bdf578586fd5b62000beb8c8c62000acc565b60208c0151909a506001600160401b038082111562000c08578788fd5b62000c168e838f0162000ad9565b9a5060408d015191508082111562000c2c578788fd5b5062000c3b8d828e0162000ad9565b98505062000c4d8c60608d0162000acc565b965062000c5e8c60808d0162000acc565b955060a08b0151945060c08b0151935060e08b015192506101008b0151915062000c8d8c6101208d0162000acc565b90509295989b9194979a5092959850565b60006020828403121562000cb0578081fd5b815160ff8116811462000b9f578182fd5b60006060820185835260206060818501528186518084526080860191508288019350845b8181101562000d0d5762000cfa855162000d89565b8352938301939183019160010162000ce5565b505084810360408601528551808252908201925081860190845b8181101562000d4f5762000d3c835162000d89565b8552938301939183019160010162000d27565b509298975050505050505050565b602081016003831062000d6c57fe5b91905290565b90815260200190565b918252602082015260400190565b6001600160a01b031690565b6001600160a01b0381168114620009b757600080fd5b60805160a05160601c60c05160e05161010051610120516101405160601c61016051610180516101a0516101c05160601c6101e05160601c61020051610220516102405161026051610280516102a05160601c61418c62000f85600039806122f252508061148c525080611428528061223e5250806107285280610abd52806114b452806125675280612717528061286e52806129e05280612b7c5280612cd35250806108b85280610a83528061144a5280611ac75280612533528061269c52806126e352806127f8528061283a52806129ac5280612b065280612b485280612c5d5280612c9f525080610afe5280610cc65280610db3528061130a52806114f55280612183528061259e528061274e52806128a55280612a175280612bb35280612d0a5280612eef5280612f2752508061135d528061161052806116dc528061226452806124e8528061262852806129625280612a925250806108dc5280610f3452806115c752806116935280611afd528061220352806124a952806125ca528061278452806129235280612a435280612be9525080610859525080611886525080611862525080610e73525080610fea52508061198c5250806119ce5250806119ad525080610e4f525080610dd9525061418c6000f3fe608060405234801561001057600080fd5b50600436106102535760003560e01c8063679aefce1161014657806395d89b41116100c3578063d505accf11610087578063d505accf146104b2578063d5c096c4146104c5578063dd62ed3e146104d8578063de82cd34146104eb578063f174e241146104f3578063f5431aa8146104fb57610253565b806395d89b41146104695780639f11080e14610471578063a457c2d714610484578063a9059cbb14610497578063aaabadc5146104aa57610253565b806382687a561161010a57806382687a561461042b578063851c1bb31461043357806387ec681714610446578063893d20e8146104595780638d928af81461046157610253565b8063679aefce146103d457806370a08231146103dc57806374f3b009146103ef5780637ecebe00146104105780638129fc1c1461042357610253565b80633644e515116101d45780634de046d5116101985780634de046d51461036d57806350dd6ed91461038257806355c67628146103955780636028bfd41461039d57806363fe3b56146103be57610253565b80633644e5151461032f57806338e9922e1461033757806338fff2d01461034a57806339509351146103525780634d64cd741461036557610253565b806318160ddd1161021b57806318160ddd146102d35780631c0de051146102db5780631dd746ea146102f257806323b872dd14610307578063313ce5671461031a57610253565b806301ec954a1461025857806306fdde0314610281578063095ea7b31461029657806316b8d6ff146102b657806316c38b3c146102be575b600080fd5b61026b610266366004613c0f565b610503565b6040516102789190613efc565b60405180910390f35b610289610679565b6040516102789190614098565b6102a96102a4366004613964565b61070f565b6040516102789190613ed9565b61026b610726565b6102d16102cc366004613a5b565b61074a565b005b61026b61075e565b6102e3610764565b60405161027893929190613ee4565b6102fa61078d565b6040516102789190613ea1565b6102a96103153660046138af565b61079c565b610322610812565b60405161027891906140d2565b61026b61081b565b6102d1610345366004613d2e565b610825565b61026b610857565b6102a9610360366004613964565b61087b565b61026b6108b6565b6103756108da565b6040516102789190613e8d565b6102d1610390366004613b7a565b6108fe565b61026b61091c565b6103b06103ab366004613a93565b61092d565b6040516102789291906140ab565b6103c6610964565b6040516102789291906140c4565b61026b610992565b61026b6103ea36600461385b565b610b46565b6104026103fd366004613a93565b610b65565b604051610278929190613eb4565b61026b61041e36600461385b565b610be3565b6102d1610bfe565b61026b610db1565b61026b610441366004613b36565b610dd5565b6103b0610454366004613a93565b610e27565b610375610e4d565b610375610e71565b610289610e95565b6102d161047f366004613d5e565b610ef6565b6102a9610492366004613964565b610f60565b6102a96104a5366004613964565b610f9e565b610375610fab565b6102d16104c03660046138ef565b610fb5565b6104026104d3366004613a93565b6110fe565b61026b6104e6366004613877565b61122f565b61026b61126c565b61037561135b565b61026b61137f565b60008460800151610530610515610e71565b6001600160a01b0316336001600160a01b03161460cd6113de565b61054561053b610857565b82146101f46113de565b61054d6113ec565b6105676003851080156105605750600384105b60646113de565b6060610571611401565b905061057d868261152e565b600080610588610964565b915091506105946136b2565b60405180606001604052806105a761091c565b815260208101859052604001839052905060008a5160018111156105c757fe5b141561062b576105ee8a60600151858a815181106105e157fe5b602002602001015161158f565b60608b015260006106008b8b8461159b565b905061061f81868a8151811061061257fe5b6020026020010151611662565b96505050505050610670565b61063f8a606001518589815181106105e157fe5b60608b015260006106518b8b8461166e565b905061061f81868b8151811061066357fe5b6020026020010151611723565b50949350505050565b60038054604080516020601f60026000196101006001881615020190951694909404938401819004810282018101909252828152606093909290918301828280156107055780601f106106da57610100808354040283529160200191610705565b820191906000526020600020905b8154815290600101906020018083116106e857829003601f168201915b5050505050905090565b600061071c33848461172f565b5060015b92915050565b7f000000000000000000000000000000000000000000000000000000000000000090565b610752611797565b61075b816117c5565b50565b60025490565b6000806000610771611843565b15925061077c611860565b9150610786611884565b9050909192565b6060610797611401565b905090565b6000806107a9853361122f565b90506107cd336001600160a01b03871614806107c55750838210155b61019e6113de565b6107d88585856118a8565b336001600160a01b038616148015906107f357506000198114155b1561080557610805853385840361172f565b60019150505b9392505050565b60055460ff1690565b6000610797611988565b600080610830610964565b915091506108496108418383611a25565b61014f6113de565b61085283611b3d565b505050565b7f000000000000000000000000000000000000000000000000000000000000000090565b3360008181526001602090815260408083206001600160a01b0387168452909152812054909161071c9185906108b19086611b56565b61172f565b7f000000000000000000000000000000000000000000000000000000000000000090565b7f000000000000000000000000000000000000000000000000000000000000000090565b610906611797565b61090e6113ec565b6109188282611b68565b5050565b6008546000906107979060c0611c2f565b60006060610943865161093e611c3d565b611c42565b61095889898989898989611c4f611cf3611d54565b97509795505050505050565b6000806000610971611e77565b905061097e816000611e7d565b925061098b816060611e7d565b9150509091565b60008061099d610857565b905060606109a9610e71565b6001600160a01b031663f94d4668836040518263ffffffff1660e01b81526004016109d49190613efc565b60006040518083038186803b1580156109ec57600080fd5b505afa158015610a00573d6000803e3d6000fd5b505050506040513d6000823e601f3d908101601f19168201604052610a28919081019061398f565b50915050610a3d81610a38611401565b61152e565b600080610a48610964565b91509150610a546136b2565b6040518060600160405280610a6761091c565b81526020018481526020018381525090506000610af3610aba867f000000000000000000000000000000000000000000000000000000000000000081518110610aac57fe5b602002602001015184611e8f565b867f000000000000000000000000000000000000000000000000000000000000000081518110610ae657fe5b6020026020010151611ef0565b9050610b3b610b34867f000000000000000000000000000000000000000000000000000000000000000081518110610b2757fe5b6020026020010151611efc565b8290611f08565b965050505050505090565b6001600160a01b0381166000908152602081905260409020545b919050565b60608088610b74610515610e71565b610b7f61053b610857565b6060610b89611401565b9050610b95888261152e565b6000606080610baa8e8e8e8e8e8e8a8f611c4f565b925092509250610bba8d84611f5f565b610bc48285611cf3565b610bce8185611cf3565b909550935050505b5097509795505050505050565b6001600160a01b031660009081526006602052604090205490565b6000610c08610857565b90506060610c14610e71565b6001600160a01b031663f94d4668836040518263ffffffff1660e01b8152600401610c3f9190613efc565b60006040518083038186803b158015610c5757600080fd5b505afa158015610c6b573d6000803e3d6000fd5b505050506040513d6000823e601f3d908101601f19168201604052610c93919081019061398f565b505060408051600380825260808201909252919250606091906020820183803683370190505090506001600160701b03817f000000000000000000000000000000000000000000000000000000000000000081518110610cef57fe5b602002602001018181525050610d036136d3565b6040518060800160405280610d1785611f69565b8152602001838152602001604051806020016040528060008152508152602001600015158152509050610d48610e71565b6001600160a01b031663b95cac28853030856040518563ffffffff1660e01b8152600401610d799493929190613f24565b600060405180830381600087803b158015610d9357600080fd5b505af1158015610da7573d6000803e3d6000fd5b5050505050505050565b7f000000000000000000000000000000000000000000000000000000000000000090565b60007f000000000000000000000000000000000000000000000000000000000000000082604051602001610e0a929190613e4a565b604051602081830303815290604052805190602001209050919050565b60006060610e38865161093e611c3d565b61095889898989898989611f6c611f8a611d54565b7f000000000000000000000000000000000000000000000000000000000000000090565b7f000000000000000000000000000000000000000000000000000000000000000090565b60048054604080516020601f60026000196101006001881615020190951694909404938401819004810282018101909252828152606093909290918301828280156107055780601f106106da57610100808354040283529160200191610705565b610efe611797565b600080610f09610964565b91509150610f1a6108418383611a25565b610f2f610f278585611a25565b6101576113de565b610f5a7f00000000000000000000000000000000000000000000000000000000000000008585611feb565b50505050565b600080610f6d338561122f565b9050808310610f8757610f823385600061172f565b610f94565b610f94338585840361172f565b5060019392505050565b600061071c3384846118a8565b600061079761207c565b610fc38442111560d16113de565b6001600160a01b038716600090815260066020908152604080832054905190929161101a917f0000000000000000000000000000000000000000000000000000000000000000918c918c918c9188918d9101613fea565b604051602081830303815290604052805190602001209050600061103d826120f6565b9050600060018288888860405160008152602001604052604051611064949392919061407a565b6020604051602081039080840390855afa158015611086573d6000803e3d6000fd5b5050604051601f19015191506110c890506001600160a01b038216158015906110c057508b6001600160a01b0316826001600160a01b0316145b6101f86113de565b6001600160a01b038b1660009081526006602052604090206001850190556110f18b8b8b61172f565b5050505050505050505050565b6060808861110d610515610e71565b61111861053b610857565b6060611122611401565b905061112c61075e565b6111df57600060606111418d8d8d868b612112565b9150915061115a6111506121c5565b83101560cc6113de565b61116c60006111676121c5565b6121ca565b61117f8b6111786121c5565b84036121ca565b6111898184611f8a565b80611192611c3d565b67ffffffffffffffff811180156111a857600080fd5b506040519080825280602002602001820160405280156111d2578160200160208202803683370190505b5095509550505050610bd6565b6111e9888261152e565b60006060806111fe8e8e8e8e8e8e8a8f611f6c565b92509250925061120e8c846121ca565b6112188285611f8a565b6112228185611cf3565b9095509350610bd6915050565b6000611239610e71565b6001600160a01b0316826001600160a01b0316141561125b5750600019610720565b61126583836121d4565b9050610720565b60006060611278610e71565b6001600160a01b031663f94d466861128e610857565b6040518263ffffffff1660e01b81526004016112aa9190613efc565b60006040518083038186803b1580156112c257600080fd5b505afa1580156112d6573d6000803e3d6000fd5b505050506040513d6000823e601f3d908101601f191682016040526112fe919081019061398f565b509150506000611349827f00000000000000000000000000000000000000000000000000000000000000008151811061133357fe5b6020026020010151611344306121ff565b61158f565b9050611354816122d9565b9250505090565b7f000000000000000000000000000000000000000000000000000000000000000090565b60006107976122ed565b80610918816123a0565b67ffffffffffffffff811b1992909216911b1790565b60006113b98383111560016113de565b50900390565b1b90565b6001600160c01b03828116821b90821b198416179392505050565b816109185761091881612419565b6113ff6113f7611843565b6101926113de565b565b604080516003808252608082019092526060918291906020820183803683370190505090507f0000000000000000000000000000000000000000000000000000000000000000817f00000000000000000000000000000000000000000000000000000000000000008151811061147357fe5b6020026020010181815250506114b161148a6122ed565b7f00000000000000000000000000000000000000000000000000000000000000009061246c565b817f0000000000000000000000000000000000000000000000000000000000000000815181106114dd57fe5b602002602001018181525050670de0b6b3a7640000817f00000000000000000000000000000000000000000000000000000000000000008151811061151e57fe5b6020908102919091010152905090565b60005b611539611c3d565b8110156108525761157083828151811061154f57fe5b602002602001015183838151811061156357fe5b602002602001015161246c565b83828151811061157c57fe5b6020908102919091010152600101611531565b600061080b838361246c565b60208301516000906001600160a01b03163014156115c5576115be8484846124a2565b905061080b565b7f00000000000000000000000000000000000000000000000000000000000000006001600160a01b031684602001516001600160a01b0316141561160e576115be848484612621565b7f00000000000000000000000000000000000000000000000000000000000000006001600160a01b031684602001516001600160a01b03161415611657576115be84848461277d565b61080b610135612419565b600061080b83836128d4565b60408301516000906001600160a01b0316301415611691576115be84848461291c565b7f00000000000000000000000000000000000000000000000000000000000000006001600160a01b031684604001516001600160a01b031614156116da576115be848484612a8b565b7f00000000000000000000000000000000000000000000000000000000000000006001600160a01b031684604001516001600160a01b03161415611657576115be848484612be2565b600061080b8383611f08565b6001600160a01b0380841660008181526001602090815260408083209487168084529490915290819020849055517f8c5be1e5ebec7d5bd14f71427d1e84f3dd0314c0f7b2291e5b200ac8c7c3b9259061178a908590613efc565b60405180910390a3505050565b60006117ae6000356001600160e01b031916610dd5565b905061075b6117bd8233612d39565b6101916113de565b80156117e5576117e06117d6611860565b42106101936113de565b6117fa565b6117fa6117f0611884565b42106101a96113de565b6007805460ff19168215151790556040517f9e3a5e37224532dea67b89face185703738a228a6e8a23dee546960180d3be6490611838908390613ed9565b60405180910390a150565b600061184d611884565b42118061079757505060075460ff161590565b7f000000000000000000000000000000000000000000000000000000000000000090565b7f000000000000000000000000000000000000000000000000000000000000000090565b6118bf6001600160a01b03841615156101986113de565b6118d66001600160a01b03831615156101996113de565b6118e1838383610852565b6001600160a01b03831660009081526020819052604090205461190790826101a0612e22565b6001600160a01b0380851660009081526020819052604080822093909355908416815220546119369082611b56565b6001600160a01b0380841660008181526020819052604090819020939093559151908516907fddf252ad1be2c89b69c2b068fc378daa952ba7f163c4a11628f55a4df523b3ef9061178a908590613efc565b60007f00000000000000000000000000000000000000000000000000000000000000007f00000000000000000000000000000000000000000000000000000000000000007f00000000000000000000000000000000000000000000000000000000000000006119f5612e38565b30604051602001611a0a95949392919061401e565b60405160208183030381529060405280519060200120905090565b600080611a30610857565b90506060611a3c610e71565b6001600160a01b031663f94d4668836040518263ffffffff1660e01b8152600401611a679190613efc565b60006040518083038186803b158015611a7f57600080fd5b505afa158015611a93573d6000803e3d6000fd5b505050506040513d6000823e601f3d908101601f19168201604052611abb919081019061398f565b509150506000611b21827f000000000000000000000000000000000000000000000000000000000000000081518110611af057fe5b60200260200101516113447f00000000000000000000000000000000000000000000000000000000000000006121ff565b9050858110158015611b335750848111155b9695505050505050565b611b45611797565b611b4d6113ec565b61075b81612e3c565b600082820161080b84821015836113de565b6000611b72610857565b90506000611b7e610e71565b6001600160a01b031663b05f8e4883866040518363ffffffff1660e01b8152600401611bab929190614063565b60806040518083038186803b158015611bc357600080fd5b505afa158015611bd7573d6000803e3d6000fd5b505050506040513d601f19601f82011682018060405250810190611bfb9190613d7f565b604051630639cdb560e21b81529094506001600160a01b03851693506318e736d49250610d7991508590879060040161404a565b1c67ffffffffffffffff1690565b600390565b61091881831460676113de565b60006060806000611c5f85612ea7565b90506000818015611c6c57fe5b14611c8157611c7c61014e612419565b611ce4565b611c89612ebd565b611c938986612ed1565b9094509250611ca0611c3d565b67ffffffffffffffff81118015611cb657600080fd5b50604051908082528060200260200182016040528015611ce0578160200160208202803683370190505b5091505b50985098509895505050505050565b60005b611cfe611c3d565b81101561085257611d35838281518110611d1457fe5b6020026020010151838381518110611d2857fe5b60200260200101516128d4565b838281518110611d4157fe5b6020908102919091010152600101611cf6565b333014611e12576000306001600160a01b0316600036604051611d78929190613e62565b6000604051808303816000865af19150503d8060008114611db5576040519150601f19603f3d011682016040523d82523d6000602084013e611dba565b606091505b505090508060008114611dc957fe5b60046000803e6000516001600160e01b0319166343adbafb60e01b8114611df4573d6000803e3d6000fd5b506020600460003e604060205260243d03602460403e601c3d016000f35b6060611e1c611401565b9050611e28878261152e565b60006060611e408c8c8c8c8c8c898d8d63ffffffff16565b5091509150611e5381848663ffffffff16565b8051601f1982018390526343adbafb603f1983015260200260231982016044820181fd5b60085490565b1c6bffffffffffffffffffffffff1690565b60008160200151831015611ec85781516020830151600091611eb4918690039061246c565b9050611ec084826113a9565b915050610720565b81604001518311611eda575081610720565b81516040830151600091611eb49186039061246c565b600061080b8383611b56565b6001600160701b030390565b6000611f1782151560046113de565b82611f2457506000610720565b670de0b6b3a764000083810290611f4790858381611f3e57fe5b041460056113de565b826001820381611f5357fe5b04600101915050610720565b6109188282612f58565b90565b6000606080611f7c61014e612419565b985098509895505050505050565b60005b611f95611c3d565b81101561085257611fcc838281518110611fab57fe5b6020026020010151838381518110611fbf57fe5b6020026020010151611f08565b838281518110611fd857fe5b6020908102919091010152600101611f8d565b611ffa8183111561014c6113de565b6120156bffffffffffffffffffffffff82111561014d6113de565b6120346120238260606113bf565b61202e8460006113bf565b17613014565b826001600160a01b03167fd0e27a0d0c2cb09280fa5e4487315455b32afcdcf012dc35b6ef2a0e3c4d1280838360405161206f9291906140c4565b60405180910390a2505050565b6000612086610e71565b6001600160a01b031663aaabadc56040518163ffffffff1660e01b815260040160206040518083038186803b1580156120be57600080fd5b505afa1580156120d2573d6000803e3d6000fd5b505050506040513d601f19601f820116820180604052508101906107979190613b5e565b6000612100611988565b82604051602001610e0a929190613e72565b6000606061211e6113ec565b6121356001600160a01b03871630146101566113de565b61214c6001600160a01b03861630146101566113de565b604080516003808252608082019092526001600160701b0391606091906020820183803683370190505090506001600160701b03817f0000000000000000000000000000000000000000000000000000000000000000815181106121ac57fe5b6020908102919091010152909890975095505050505050565b600090565b6109188282613029565b6001600160a01b03918216600090815260016020908152604080832093909416825291909152205490565b60007f00000000000000000000000000000000000000000000000000000000000000006001600160a01b0316826001600160a01b0316141561226257507f0000000000000000000000000000000000000000000000000000000000000000610b60565b7f00000000000000000000000000000000000000000000000000000000000000006001600160a01b0316826001600160a01b031614156122ae576122a761148a6122ed565b9050610b60565b6001600160a01b0382163014156122ce5750670de0b6b3a7640000610b60565b610b60610135612419565b6000610720826122e761075e565b906113a9565b6000807f00000000000000000000000000000000000000000000000000000000000000006001600160a01b031663d15e00536123276108da565b6040518263ffffffff1660e01b81526004016123439190613e8d565b60206040518083038186803b15801561235b57600080fd5b505afa15801561236f573d6000803e3d6000fd5b505050506040513d601f19601f820116820180604052508101906123939190613d46565b633b9aca00900492915050565b6002815110156123af5761075b565b6000816000815181106123be57fe5b602002602001015190506000600190505b82518110156108525760008382815181106123e657fe5b6020026020010151905061240f816001600160a01b0316846001600160a01b03161060656113de565b91506001016123cf565b62461bcd60e51b6000908152602060045260076024526642414c23000030600a808404818106603090810160081b95839006959095019082900491820690940160101b939093010160c81b604452606490fd5b600082820261249084158061248957508385838161248657fe5b04145b60036113de565b670de0b6b3a764000090049392505050565b60006125287f00000000000000000000000000000000000000000000000000000000000000006001600160a01b031685604001516001600160a01b0316148061252057507f00000000000000000000000000000000000000000000000000000000000000006001600160a01b031685604001516001600160a01b0316145b6101356113de565b6126198460600151847f00000000000000000000000000000000000000000000000000000000000000008151811061255c57fe5b6020026020010151857f00000000000000000000000000000000000000000000000000000000000000008151811061259057fe5b60200260200101516125c7877f000000000000000000000000000000000000000000000000000000000000000081518110610b2757fe5b867f00000000000000000000000000000000000000000000000000000000000000006001600160a01b03168a604001516001600160a01b03161461260d576130b7612611565b6131175b63ffffffff16565b949350505050565b600061267d7f00000000000000000000000000000000000000000000000000000000000000006001600160a01b031685604001516001600160a01b03161480612520575060408501516001600160a01b031630146101356113de565b60408401516001600160a01b031630146126d8576126d38460600151847f0000000000000000000000000000000000000000000000000000000000000000815181106126c557fe5b602002602001015184613180565b612619565b6126198460600151847f00000000000000000000000000000000000000000000000000000000000000008151811061270c57fe5b6020026020010151857f00000000000000000000000000000000000000000000000000000000000000008151811061274057fe5b6020026020010151612777877f000000000000000000000000000000000000000000000000000000000000000081518110610b2757fe5b866131b0565b60006127d97f00000000000000000000000000000000000000000000000000000000000000006001600160a01b031685604001516001600160a01b03161480612520575060408501516001600160a01b031630146101356113de565b60408401516001600160a01b0316301461282f576126d38460600151847f00000000000000000000000000000000000000000000000000000000000000008151811061282157fe5b602002602001015184613216565b6126198460600151847f00000000000000000000000000000000000000000000000000000000000000008151811061286357fe5b6020026020010151857f00000000000000000000000000000000000000000000000000000000000000008151811061289757fe5b60200260200101516128ce877f000000000000000000000000000000000000000000000000000000000000000081518110610b2757fe5b86613256565b60006128e382151560046113de565b826128f057506000610720565b670de0b6b3a76400008381029061290a90858381611f3e57fe5b82818161291357fe5b04915050610720565b60006129a17f00000000000000000000000000000000000000000000000000000000000000006001600160a01b031685602001516001600160a01b0316148061252057507f00000000000000000000000000000000000000000000000000000000000000006001600160a01b031685602001516001600160a01b0316146101356113de565b6126198460600151847f0000000000000000000000000000000000000000000000000000000000000000815181106129d557fe5b6020026020010151857f000000000000000000000000000000000000000000000000000000000000000081518110612a0957fe5b6020026020010151612a40877f000000000000000000000000000000000000000000000000000000000000000081518110610b2757fe5b867f00000000000000000000000000000000000000000000000000000000000000006001600160a01b03168a602001516001600160a01b031614612a86576132bd612611565b613314565b6000612ae77f00000000000000000000000000000000000000000000000000000000000000006001600160a01b031685602001516001600160a01b03161480612520575060208501516001600160a01b031630146101356113de565b60208401516001600160a01b03163014612b3d576126d38460600151847f000000000000000000000000000000000000000000000000000000000000000081518110612b2f57fe5b60200260200101518461337e565b6126198460600151847f000000000000000000000000000000000000000000000000000000000000000081518110612b7157fe5b6020026020010151857f000000000000000000000000000000000000000000000000000000000000000081518110612ba557fe5b6020026020010151612bdc877f000000000000000000000000000000000000000000000000000000000000000081518110610b2757fe5b866133a8565b6000612c3e7f00000000000000000000000000000000000000000000000000000000000000006001600160a01b031685602001516001600160a01b03161480612520575060208501516001600160a01b031630146101356113de565b60208401516001600160a01b03163014612c94576126d38460600151847f000000000000000000000000000000000000000000000000000000000000000081518110612c8657fe5b6020026020010151846133f7565b6126198460600151847f000000000000000000000000000000000000000000000000000000000000000081518110612cc857fe5b6020026020010151857f000000000000000000000000000000000000000000000000000000000000000081518110612cfc57fe5b6020026020010151612d33877f000000000000000000000000000000000000000000000000000000000000000081518110610b2757fe5b8661342c565b600073ba1ba1ba1ba1ba1ba1ba1ba1ba1ba1ba1ba1ba1b612d58610e4d565b6001600160a01b031614158015612d735750612d7383613480565b15612d9b57612d80610e4d565b6001600160a01b0316336001600160a01b0316149050610720565b612da361207c565b6001600160a01b0316639be2a8848484306040518463ffffffff1660e01b8152600401612dd293929190613f05565b60206040518083038186803b158015612dea57600080fd5b505afa158015612dfe573d6000803e3d6000fd5b505050506040513d601f19601f820116820180604052508101906112659190613a77565b6000612e3184841115836113de565b5050900390565b4690565b612e4f64e8d4a5100082101560cb6113de565b612e6567016345785d8a000082111560ca6113de565b600854612e74908260c0611393565b6008556040517fa9ba3ffe0b6c366b81232caab38605a0699ad5398d6cce76f91ee809e322dafc90611838908390613efc565b6000818060200190518101906107209190613bc8565b6113ff612ec8611843565b156101af6113de565b600060606000612ee0846134a3565b90506060612f4b8683612f25897f000000000000000000000000000000000000000000000000000000000000000081518110612f1857fe5b60200260200101516122d9565b7f00000000000000000000000000000000000000000000000000000000000000006134b9565b9196919550909350505050565b612f6f6001600160a01b038316151561019b6113de565b612f7b82600083610852565b6001600160a01b038216600090815260208190526040902054612fa190826101a1612e22565b6001600160a01b038316600090815260208190526040902055600254612fc79082613575565b6002556040516000906001600160a01b038416907fddf252ad1be2c89b69c2b068fc378daa952ba7f163c4a11628f55a4df523b3ef90613008908590613efc565b60405180910390a35050565b600854613023908260006113c3565b60085550565b61303560008383610852565b6002546130429082611b56565b6002556001600160a01b0382166000908152602081905260409020546130689082611b56565b6001600160a01b0383166000818152602081905260408082209390935591519091907fddf252ad1be2c89b69c2b068fc378daa952ba7f163c4a11628f55a4df523b3ef90613008908590613efc565b6000806130c48684611e8f565b905060006130d28287611ef0565b905060006130e0868a6113a9565b905060006130fb846122e76130f58587613583565b8a61359d565b905061310788826113a9565b9450505050505b95945050505050565b6000806131248684611e8f565b905060006131328287611ef0565b90506000613149613143838b613583565b876135d0565b9050600061315784836113a9565b9050600061316582886135f0565b90506131718a826113a9565b9b9a5050505050505050505050565b60008061318d8484611e8f565b905060006131a461319e8688611b56565b85611e8f565b9050611b3381836113a9565b6000826131c8576131c18683611e8f565b905061310e565b60006131d48684611e8f565b905060006131e561319e888a611b56565b905060006131f382846113a9565b905060006132018489611ef0565b90506131076132108884613583565b826135d0565b6000806132238484611e8f565b9050600061323182876113a9565b9050600061323f82866135f0565b905061324b86826113a9565b979650505050505050565b60008261326457508461310e565b60006132708684611e8f565b9050600061327e8287611ef0565b9050600061328c878a611b56565b9050600061329a8483611ef0565b905060006132b16132ab8984613583565b856135d0565b905061317181896113a9565b6000826132cb57508461310e565b60006132d78684611e8f565b905060006132e58287611ef0565b905060006132f3868a611b56565b90506000613308846122e76130f58587613583565b905061310781896113a9565b600082613325576131c186836135f0565b60006133318684611e8f565b9050600061333f8287611ef0565b90506000613356613350838b613583565b8761359d565b905060006133648483611b56565b9050600061337282886135f0565b9050613171818b6113a9565b60008061338b8484611e8f565b9050600061339c61319e86886113a9565b9050611b3382826113a9565b6000806133b58684611e8f565b905060006133c661319e888a6113a9565b905060006133d483836113a9565b905060006133e28489611ef0565b90506131076133f18884613583565b8261359d565b6000806134048484611e8f565b905060006134128287611b56565b9050600061342082866135f0565b905061324b81876113a9565b6000806134398684611e8f565b905060006134478287611ef0565b90506000613455878a6113a9565b905060006134638483611ef0565b905060006134746132ab8984613583565b905061317188826113a9565b6000613492634f88840760e11b610dd5565b821480610720575061072082613680565b60008180602001905181019061080b9190613be3565b606060006134c785856128d4565b90506060865167ffffffffffffffff811180156134e357600080fd5b5060405190808252806020026020018201604052801561350d578160200160208202803683370190505b50905060005b875181101561356a57848114613562576135498389838151811061353357fe5b602002602001015161246c90919063ffffffff16565b82828151811061355557fe5b6020026020010181815250505b600101613513565b509695505050505050565b600061080b83836001612e22565b600082820261080b84158061248957508385838161248657fe5b60006135ac82151560046113de565b826135b957506000610720565b8160018403816135c557fe5b046001019050610720565b60006135df82151560046113de565b8183816135e857fe5b049392505050565b600081602001518310156136395781516112659061361790670de0b6b3a764000090611b56565b602084015184516136339161362c919061246c565b8690611b56565b906128d4565b8160400151831161364b575081610720565b81516112659061366490670de0b6b3a7640000906113a9565b6040840151845161363391613679919061246c565b86906113a9565b6000613692631c74c91760e11b610dd5565b82148061072057506136aa6350dd6ed960e01b610dd5565b909114919050565b60405180606001604052806000815260200160008152602001600081525090565b60405180608001604052806060815260200160608152602001606081526020016000151581525090565b803561072081614133565b600082601f830112613718578081fd5b813561372b61372682614107565b6140e0565b81815291506020808301908481018184028601820187101561374c57600080fd5b60005b8481101561376b5781358452928201929082019060010161374f565b505050505092915050565b600082601f830112613786578081fd5b815161379461372682614107565b8181529150602080830190848101818402860182018710156137b557600080fd5b60005b8481101561376b578151845292820192908201906001016137b8565b600082601f8301126137e4578081fd5b813567ffffffffffffffff8111156137fa578182fd5b61380d601f8201601f19166020016140e0565b915080825283602082850101111561382457600080fd5b8060208401602084013760009082016020015292915050565b80516001811061072057600080fd5b80356002811061072057600080fd5b60006020828403121561386c578081fd5b813561080b81614133565b60008060408385031215613889578081fd5b823561389481614133565b915060208301356138a481614133565b809150509250929050565b6000806000606084860312156138c3578081fd5b83356138ce81614133565b925060208401356138de81614133565b929592945050506040919091013590565b600080600080600080600060e0888a031215613909578283fd5b873561391481614133565b9650602088013561392481614133565b95506040880135945060608801359350608088013560ff81168114613947578384fd5b9699959850939692959460a0840135945060c09093013592915050565b60008060408385031215613976578182fd5b823561398181614133565b946020939093013593505050565b6000806000606084860312156139a3578081fd5b835167ffffffffffffffff808211156139ba578283fd5b818601915086601f8301126139cd578283fd5b81516139db61372682614107565b80828252602080830192508086018b8283870289010111156139fb578788fd5b8796505b84871015613a26578051613a1281614133565b8452600196909601959281019281016139ff565b508901519097509350505080821115613a3d578283fd5b50613a4a86828701613776565b925050604084015190509250925092565b600060208284031215613a6c578081fd5b813561080b81614148565b600060208284031215613a88578081fd5b815161080b81614148565b600080600080600080600060e0888a031215613aad578081fd5b873596506020880135613abf81614133565b95506040880135613acf81614133565b9450606088013567ffffffffffffffff80821115613aeb578283fd5b613af78b838c01613708565b955060808a0135945060a08a0135935060c08a0135915080821115613b1a578283fd5b50613b278a828b016137d4565b91505092959891949750929550565b600060208284031215613b47578081fd5b81356001600160e01b03198116811461080b578182fd5b600060208284031215613b6f578081fd5b815161080b81614133565b60008060408385031215613b8c578182fd5b8235613b9781614133565b9150602083013567ffffffffffffffff811115613bb2578182fd5b613bbe858286016137d4565b9150509250929050565b600060208284031215613bd9578081fd5b61080b838361383d565b60008060408385031215613bf5578182fd5b613bff848461383d565b9150602083015190509250929050565b60008060008060808587031215613c24578182fd5b843567ffffffffffffffff80821115613c3b578384fd5b818701915061012080838a031215613c51578485fd5b613c5a816140e0565b9050613c66898461384c565b8152613c7589602085016136fd565b6020820152613c8789604085016136fd565b6040820152606083013560608201526080830135608082015260a083013560a0820152613cb78960c085016136fd565b60c0820152613cc98960e085016136fd565b60e08201526101008084013583811115613ce1578687fd5b613ced8b8287016137d4565b828401525050809650506020870135915080821115613d0a578384fd5b50613d1787828801613708565b949794965050505060408301359260600135919050565b600060208284031215613d3f578081fd5b5035919050565b600060208284031215613d57578081fd5b5051919050565b60008060408385031215613d70578182fd5b50508035926020909101359150565b60008060008060808587031215613d94578182fd5b8451935060208501519250604085015191506060850151613db481614133565b939692955090935050565b6000815180845260208085019450808401835b83811015613dee57815187529582019590820190600101613dd2565b509495945050505050565b15159052565b60008151808452815b81811015613e2457602081850181015186830182015201613e08565b81811115613e355782602083870101525b50601f01601f19169290920160200192915050565b9182526001600160e01b031916602082015260240190565b6000828483379101908152919050565b61190160f01b81526002810192909252602282015260420190565b6001600160a01b0391909116815260200190565b60006020825261080b6020830184613dbf565b600060408252613ec76040830185613dbf565b828103602084015261310e8185613dbf565b901515815260200190565b92151583526020830191909152604082015260600190565b90815260200190565b9283526001600160a01b03918216602084015216604082015260600190565b8481526001600160a01b038481166020808401919091529084166040830152608060608301819052835181840191909152805161010084018190526000929182019083906101208601905b80831015613f9757613f818451614127565b8252928401926001929092019190840190613f6f565b50838701519350607f199250828682030160a0870152613fb78185613dbf565b935050506040850151818584030160c0860152613fd48382613dff565b92505050606084015161356a60e0850182613df9565b9586526001600160a01b0394851660208701529290931660408501526060840152608083019190915260a082015260c00190565b9485526020850193909352604084019190915260608301526001600160a01b0316608082015260a00190565b6000838252604060208301526126196040830184613dff565b9182526001600160a01b0316602082015260400190565b93845260ff9290921660208401526040830152606082015260800190565b60006020825261080b6020830184613dff565b6000838252604060208301526126196040830184613dbf565b918252602082015260400190565b60ff91909116815260200190565b60405181810167ffffffffffffffff811182821017156140ff57600080fd5b604052919050565b600067ffffffffffffffff82111561411d578081fd5b5060209081020190565b6001600160a01b031690565b6001600160a01b038116811461075b57600080fd5b801515811461075b57600080fdfea2646970667358221220ea28c1024c5d57f440b74bf7a7f66e4a479d89bccf345498b6df279341f1b2ce64736f6c63430007010033",
			"opcodes": "PUSH2 0x140 PUSH1 0x40 MSTORE CALLVALUE DUP1 ISZERO PUSH3 0x12 JUMPI PUSH1 0x0 DUP1 REVERT JUMPDEST POP PUSH1 0x40 MLOAD PUSH3 0x5B46 CODESIZE SUB DUP1 PUSH3 0x5B46 DUP4 CODECOPY DUP2 ADD PUSH1 0x40 DUP2 SWAP1 MSTORE PUSH3 0x35 SWAP2 PUSH3 0x1C3 JUMP JUMPDEST DUP1 PUSH1 0x40 MLOAD DUP1 PUSH1 0x20 ADD PUSH3 0x48 SWAP1 PUSH3 0x1B5 JUMP JUMPDEST PUSH1 0x1F NOT DUP3 DUP3 SUB DUP2 ADD DUP4 MSTORE PUSH1 0x1F SWAP1 SWAP2 ADD AND PUSH1 0x40 MSTORE DUP1 MLOAD DUP2 SWAP1 PUSH1 0x0 PUSH1 0x2 DUP3 DIV PUSH1 0xA0 DUP2 SWAP1 MSTORE DUP1 DUP4 SUB PUSH1 0xE0 DUP2 SWAP1 MSTORE DUP2 DUP6 MSTORE SWAP1 SWAP2 POP DUP4 PUSH3 0x90 DUP2 PUSH3 0xF9 PUSH1 0x20 SWAP1 DUP2 SHL PUSH3 0x2C1 OR SWAP1 SHR JUMP JUMPDEST PUSH1 0x60 SHL PUSH1 0x1 PUSH1 0x1 PUSH1 0x60 SHL SUB NOT AND PUSH1 0x80 MSTORE DUP3 DUP6 ADD DUP1 MLOAD DUP4 DUP3 MSTORE PUSH3 0xBF DUP3 PUSH3 0xF9 PUSH1 0x20 SWAP1 DUP2 SHL PUSH3 0x2C1 OR SWAP1 SHR JUMP JUMPDEST PUSH1 0x1 PUSH1 0x1 PUSH1 0x60 SHL SUB NOT PUSH1 0x60 SWAP2 DUP3 SHL DUP2 AND PUSH1 0xC0 MSTORE SWAP7 SWAP1 SWAP4 MSTORE SWAP1 MSTORE SWAP6 SWAP1 SWAP6 SHL SWAP1 SWAP2 AND PUSH2 0x100 MSTORE POP POP POP TIMESTAMP PUSH3 0x76A700 ADD PUSH2 0x120 MSTORE POP PUSH3 0x1F3 SWAP1 POP JUMP JUMPDEST DUP1 MLOAD PUSH32 0x602038038060206000396000F3FEFEFEFEFEFEFEFEFEFEFEFEFEFEFEFEFEFEFE DUP1 DUP4 MSTORE PUSH1 0x0 SWAP2 PUSH1 0x20 DUP2 ADD DUP5 DUP5 CREATE SWAP1 DUP5 MSTORE SWAP2 POP PUSH3 0x147 PUSH1 0x1 PUSH1 0x1 PUSH1 0xA0 SHL SUB DUP4 AND ISZERO ISZERO PUSH2 0x1AC PUSH3 0x14D JUMP JUMPDEST POP SWAP2 SWAP1 POP JUMP JUMPDEST DUP2 PUSH3 0x15E JUMPI PUSH3 0x15E DUP2 PUSH3 0x162 JUMP JUMPDEST POP POP JUMP JUMPDEST PUSH3 0x461BCD PUSH1 0xE5 SHL PUSH1 0x0 SWAP1 DUP2 MSTORE PUSH1 0x20 PUSH1 0x4 MSTORE PUSH1 0x7 PUSH1 0x24 MSTORE PUSH7 0x42414C23000030 PUSH1 0xA DUP1 DUP5 DIV DUP2 DUP2 MOD PUSH1 0x30 SWAP1 DUP2 ADD PUSH1 0x8 SHL SWAP6 DUP4 SWAP1 MOD SWAP6 SWAP1 SWAP6 ADD SWAP1 DUP3 SWAP1 DIV SWAP2 DUP3 MOD SWAP1 SWAP5 ADD PUSH1 0x10 SHL SWAP4 SWAP1 SWAP4 ADD ADD PUSH1 0xC8 SHL PUSH1 0x44 MSTORE PUSH1 0x64 SWAP1 REVERT JUMPDEST PUSH2 0x5111 DUP1 PUSH3 0xA35 DUP4 CODECOPY ADD SWAP1 JUMP JUMPDEST PUSH1 0x0 PUSH1 0x20 DUP3 DUP5 SUB SLT ISZERO PUSH3 0x1D5 JUMPI DUP1 DUP2 REVERT JUMPDEST DUP2 MLOAD PUSH1 0x1 PUSH1 0x1 PUSH1 0xA0 SHL SUB DUP2 AND DUP2 EQ PUSH3 0x1EC JUMPI DUP2 DUP3 REVERT JUMPDEST SWAP4 SWAP3 POP POP POP JUMP JUMPDEST PUSH1 0x80 MLOAD PUSH1 0x60 SHR PUSH1 0xA0 MLOAD PUSH1 0xC0 MLOAD PUSH1 0x60 SHR PUSH1 0xE0 MLOAD PUSH2 0x100 MLOAD PUSH1 0x60 SHR PUSH2 0x120 MLOAD PUSH2 0x7E0 PUSH3 0x255 PUSH1 0x0 CODECOPY DUP1 PUSH2 0x21B MSTORE DUP1 PUSH2 0x244 MSTORE POP DUP1 PUSH2 0x29F MSTORE POP DUP1 PUSH2 0x31B MSTORE POP DUP1 PUSH2 0x13A MSTORE DUP1 PUSH2 0x397 MSTORE POP DUP1 PUSH2 0x33C MSTORE POP DUP1 PUSH2 0x119 MSTORE DUP1 PUSH2 0x373 MSTORE POP PUSH2 0x7E0 PUSH1 0x0 RETURN INVALID PUSH1 0x80 PUSH1 0x40 MSTORE CALLVALUE DUP1 ISZERO PUSH2 0x10 JUMPI PUSH1 0x0 DUP1 REVERT JUMPDEST POP PUSH1 0x4 CALLDATASIZE LT PUSH2 0x61 JUMPI PUSH1 0x0 CALLDATALOAD PUSH1 0xE0 SHR DUP1 PUSH3 0xC194DB EQ PUSH2 0x66 JUMPI DUP1 PUSH4 0x174481FA EQ PUSH2 0x84 JUMPI DUP1 PUSH4 0x2CCB254A EQ PUSH2 0x9A JUMPI DUP1 PUSH4 0x2DA47C40 EQ PUSH2 0xBA JUMPI DUP1 PUSH4 0x6634B753 EQ PUSH2 0xD0 JUMPI DUP1 PUSH4 0x8D928AF8 EQ PUSH2 0xF0 JUMPI JUMPDEST PUSH1 0x0 DUP1 REVERT JUMPDEST PUSH2 0x6E PUSH2 0xF8 JUMP JUMPDEST PUSH1 0x40 MLOAD PUSH2 0x7B SWAP2 SWAP1 PUSH2 0x6E2 JUMP JUMPDEST PUSH1 0x40 MLOAD DUP1 SWAP2 SUB SWAP1 RETURN JUMPDEST PUSH2 0x8C PUSH2 0x117 JUMP JUMPDEST PUSH1 0x40 MLOAD PUSH2 0x7B SWAP3 SWAP2 SWAP1 PUSH2 0x6BD JUMP JUMPDEST PUSH2 0xAD PUSH2 0xA8 CALLDATASIZE PUSH1 0x4 PUSH2 0x5C4 JUMP JUMPDEST PUSH2 0x15D JUMP JUMPDEST PUSH1 0x40 MLOAD PUSH2 0x7B SWAP2 SWAP1 PUSH2 0x6F5 JUMP JUMPDEST PUSH2 0xC2 PUSH2 0x215 JUMP JUMPDEST PUSH1 0x40 MLOAD PUSH2 0x7B SWAP3 SWAP2 SWAP1 PUSH2 0x784 JUMP JUMPDEST PUSH2 0xE3 PUSH2 0xDE CALLDATASIZE PUSH1 0x4 PUSH2 0x5A8 JUMP JUMPDEST PUSH2 0x27F JUMP JUMPDEST PUSH1 0x40 MLOAD PUSH2 0x7B SWAP2 SWAP1 PUSH2 0x6D7 JUMP JUMPDEST PUSH2 0xAD PUSH2 0x29D JUMP JUMPDEST PUSH1 0x60 PUSH2 0x112 PUSH1 0x40 MLOAD DUP1 PUSH1 0x20 ADD PUSH1 0x40 MSTORE DUP1 PUSH1 0x0 DUP2 MSTORE POP PUSH2 0x313 JUMP JUMPDEST SWAP1 POP SWAP1 JUMP JUMPDEST PUSH32 0x0 PUSH32 0x0 SWAP1 SWAP2 JUMP JUMPDEST PUSH1 0x0 DUP1 PUSH1 0x0 PUSH2 0x16A PUSH2 0x215 JUMP JUMPDEST SWAP2 POP SWAP2 POP PUSH1 0x0 PUSH2 0x1B1 PUSH2 0x17B PUSH2 0x29D JUMP JUMPDEST DUP13 DUP13 DUP13 DUP13 DUP13 DUP13 DUP11 DUP11 DUP15 PUSH1 0x40 MLOAD PUSH1 0x20 ADD PUSH2 0x19D SWAP11 SWAP10 SWAP9 SWAP8 SWAP7 SWAP6 SWAP5 SWAP4 SWAP3 SWAP2 SWAP1 PUSH2 0x709 JUMP JUMPDEST PUSH1 0x40 MLOAD PUSH1 0x20 DUP2 DUP4 SUB SUB DUP2 MSTORE SWAP1 PUSH1 0x40 MSTORE PUSH2 0x3EC JUMP JUMPDEST SWAP1 POP DUP1 PUSH1 0x1 PUSH1 0x1 PUSH1 0xA0 SHL SUB AND PUSH4 0x8129FC1C PUSH1 0x40 MLOAD DUP2 PUSH4 0xFFFFFFFF AND PUSH1 0xE0 SHL DUP2 MSTORE PUSH1 0x4 ADD PUSH1 0x0 PUSH1 0x40 MLOAD DUP1 DUP4 SUB DUP2 PUSH1 0x0 DUP8 DUP1 EXTCODESIZE ISZERO DUP1 ISZERO PUSH2 0x1EE JUMPI PUSH1 0x0 DUP1 REVERT JUMPDEST POP GAS CALL ISZERO DUP1 ISZERO PUSH2 0x202 JUMPI RETURNDATASIZE PUSH1 0x0 DUP1 RETURNDATACOPY RETURNDATASIZE PUSH1 0x0 REVERT JUMPDEST POP SWAP3 SWAP14 SWAP13 POP POP POP POP POP POP POP POP POP POP POP POP POP JUMP JUMPDEST PUSH1 0x0 DUP1 TIMESTAMP PUSH32 0x0 DUP2 LT ISZERO PUSH2 0x271 JUMPI DUP1 PUSH32 0x0 SUB SWAP3 POP PUSH3 0x278D00 SWAP2 POP PUSH2 0x27A JUMP JUMPDEST PUSH1 0x0 SWAP3 POP PUSH1 0x0 SWAP2 POP JUMPDEST POP SWAP1 SWAP2 JUMP JUMPDEST PUSH1 0x1 PUSH1 0x1 PUSH1 0xA0 SHL SUB AND PUSH1 0x0 SWAP1 DUP2 MSTORE PUSH1 0x20 DUP2 SWAP1 MSTORE PUSH1 0x40 SWAP1 KECCAK256 SLOAD PUSH1 0xFF AND SWAP1 JUMP JUMPDEST PUSH32 0x0 SWAP1 JUMP JUMPDEST DUP1 MLOAD PUSH32 0x602038038060206000396000F3FEFEFEFEFEFEFEFEFEFEFEFEFEFEFEFEFEFEFE DUP1 DUP4 MSTORE PUSH1 0x0 SWAP2 PUSH1 0x20 DUP2 ADD DUP5 DUP5 CREATE SWAP1 DUP5 MSTORE SWAP2 POP PUSH2 0x30D PUSH1 0x1 PUSH1 0x1 PUSH1 0xA0 SHL SUB DUP4 AND ISZERO ISZERO PUSH2 0x1AC PUSH2 0x44C JUMP JUMPDEST POP SWAP2 SWAP1 POP JUMP JUMPDEST DUP1 MLOAD PUSH1 0x40 DUP1 MLOAD PUSH32 0x0 PUSH32 0x0 DUP2 DUP2 ADD DUP6 DUP2 ADD DUP5 DUP2 ADD PUSH1 0x20 SWAP1 DUP2 ADD SWAP1 SWAP7 MSTORE DUP1 DUP6 MSTORE SWAP4 SWAP6 PUSH32 0x0 SWAP6 SWAP3 SWAP5 PUSH32 0x0 SWAP5 SWAP4 DUP9 ADD DUP7 PUSH1 0x0 DUP3 DUP11 EXTCODECOPY DUP5 PUSH1 0x0 DUP9 DUP4 ADD DUP9 EXTCODECOPY POP PUSH1 0x20 DUP10 DUP2 ADD SWAP1 DUP10 DUP6 ADD ADD PUSH2 0x3DE DUP2 DUP4 DUP7 PUSH2 0x45E JUMP JUMPDEST POP POP POP POP POP POP POP POP POP SWAP2 SWAP1 POP JUMP JUMPDEST PUSH1 0x0 DUP1 PUSH2 0x3F8 DUP4 PUSH2 0x49C JUMP JUMPDEST PUSH1 0x1 PUSH1 0x1 PUSH1 0xA0 SHL SUB DUP2 AND PUSH1 0x0 DUP2 DUP2 MSTORE PUSH1 0x20 DUP2 SWAP1 MSTORE PUSH1 0x40 DUP1 DUP3 KECCAK256 DUP1 SLOAD PUSH1 0xFF NOT AND PUSH1 0x1 OR SWAP1 SSTORE MLOAD SWAP3 SWAP4 POP SWAP1 SWAP2 PUSH32 0x83A48FBCFC991335314E74D0496AAB6A1987E992DDC85DDDBCC4D6DD6EF2E9FC SWAP2 SWAP1 LOG2 SWAP3 SWAP2 POP POP JUMP JUMPDEST DUP2 PUSH2 0x45A JUMPI PUSH2 0x45A DUP2 PUSH2 0x4D7 JUMP JUMPDEST POP POP JUMP JUMPDEST JUMPDEST PUSH1 0x20 DUP2 LT PUSH2 0x47E JUMPI DUP2 MLOAD DUP4 MSTORE PUSH1 0x20 SWAP3 DUP4 ADD SWAP3 SWAP1 SWAP2 ADD SWAP1 PUSH1 0x1F NOT ADD PUSH2 0x45F JUMP JUMPDEST SWAP1 MLOAD DUP3 MLOAD PUSH1 0x20 SWAP3 SWAP1 SWAP3 SUB PUSH2 0x100 EXP PUSH1 0x0 NOT ADD DUP1 NOT SWAP1 SWAP2 AND SWAP2 AND OR SWAP1 MSTORE JUMP JUMPDEST PUSH1 0x0 PUSH1 0x60 PUSH2 0x4A9 DUP4 PUSH2 0x313 JUMP JUMPDEST SWAP1 POP PUSH1 0x0 DUP2 MLOAD PUSH1 0x20 DUP4 ADD PUSH1 0x0 CREATE SWAP1 POP PUSH1 0x1 PUSH1 0x1 PUSH1 0xA0 SHL SUB DUP2 AND PUSH2 0x4D0 JUMPI RETURNDATASIZE PUSH1 0x0 DUP1 RETURNDATACOPY RETURNDATASIZE PUSH1 0x0 REVERT JUMPDEST SWAP4 SWAP3 POP POP POP JUMP JUMPDEST PUSH3 0x461BCD PUSH1 0xE5 SHL PUSH1 0x0 SWAP1 DUP2 MSTORE PUSH1 0x20 PUSH1 0x4 MSTORE PUSH1 0x7 PUSH1 0x24 MSTORE PUSH7 0x42414C23000030 PUSH1 0xA DUP1 DUP5 DIV DUP2 DUP2 MOD PUSH1 0x30 SWAP1 DUP2 ADD PUSH1 0x8 SHL SWAP6 DUP4 SWAP1 MOD SWAP6 SWAP1 SWAP6 ADD SWAP1 DUP3 SWAP1 DIV SWAP2 DUP3 MOD SWAP1 SWAP5 ADD PUSH1 0x10 SHL SWAP4 SWAP1 SWAP4 ADD ADD PUSH1 0xC8 SHL PUSH1 0x44 MSTORE PUSH1 0x64 SWAP1 REVERT JUMPDEST PUSH1 0x0 DUP3 PUSH1 0x1F DUP4 ADD SLT PUSH2 0x53A JUMPI DUP1 DUP2 REVERT JUMPDEST DUP2 CALLDATALOAD PUSH8 0xFFFFFFFFFFFFFFFF DUP1 DUP3 GT ISZERO PUSH2 0x551 JUMPI DUP3 DUP4 REVERT JUMPDEST PUSH1 0x40 MLOAD PUSH1 0x1F DUP4 ADD PUSH1 0x1F NOT AND DUP2 ADD PUSH1 0x20 ADD DUP3 DUP2 GT DUP3 DUP3 LT OR ISZERO PUSH2 0x571 JUMPI DUP5 DUP6 REVERT JUMPDEST PUSH1 0x40 MSTORE DUP3 DUP2 MSTORE SWAP3 POP DUP3 DUP5 DUP4 ADD PUSH1 0x20 ADD DUP7 LT ISZERO PUSH2 0x58C JUMPI PUSH1 0x0 DUP1 REVERT JUMPDEST DUP3 PUSH1 0x20 DUP7 ADD PUSH1 0x20 DUP4 ADD CALLDATACOPY PUSH1 0x0 PUSH1 0x20 DUP5 DUP4 ADD ADD MSTORE POP POP POP SWAP3 SWAP2 POP POP JUMP JUMPDEST PUSH1 0x0 PUSH1 0x20 DUP3 DUP5 SUB SLT ISZERO PUSH2 0x5B9 JUMPI DUP1 DUP2 REVERT JUMPDEST DUP2 CALLDATALOAD PUSH2 0x4D0 DUP2 PUSH2 0x792 JUMP JUMPDEST PUSH1 0x0 DUP1 PUSH1 0x0 DUP1 PUSH1 0x0 DUP1 PUSH1 0x0 PUSH1 0xE0 DUP9 DUP11 SUB SLT ISZERO PUSH2 0x5DE JUMPI DUP3 DUP4 REVERT JUMPDEST DUP8 CALLDATALOAD PUSH8 0xFFFFFFFFFFFFFFFF DUP1 DUP3 GT ISZERO PUSH2 0x5F5 JUMPI DUP5 DUP6 REVERT JUMPDEST PUSH2 0x601 DUP12 DUP4 DUP13 ADD PUSH2 0x52A JUMP JUMPDEST SWAP9 POP PUSH1 0x20 DUP11 ADD CALLDATALOAD SWAP2 POP DUP1 DUP3 GT ISZERO PUSH2 0x616 JUMPI DUP5 DUP6 REVERT JUMPDEST POP PUSH2 0x623 DUP11 DUP3 DUP12 ADD PUSH2 0x52A JUMP JUMPDEST SWAP7 POP POP PUSH1 0x40 DUP9 ADD CALLDATALOAD PUSH2 0x634 DUP2 PUSH2 0x792 JUMP JUMPDEST SWAP5 POP PUSH1 0x60 DUP9 ADD CALLDATALOAD PUSH2 0x644 DUP2 PUSH2 0x792 JUMP JUMPDEST SWAP4 POP PUSH1 0x80 DUP9 ADD CALLDATALOAD SWAP3 POP PUSH1 0xA0 DUP9 ADD CALLDATALOAD SWAP2 POP PUSH1 0xC0 DUP9 ADD CALLDATALOAD PUSH2 0x662 DUP2 PUSH2 0x792 JUMP JUMPDEST DUP1 SWAP2 POP POP SWAP3 SWAP6 SWAP9 SWAP2 SWAP5 SWAP8 POP SWAP3 SWAP6 POP JUMP JUMPDEST PUSH1 0x0 DUP2 MLOAD DUP1 DUP5 MSTORE DUP2 JUMPDEST DUP2 DUP2 LT ISZERO PUSH2 0x697 JUMPI PUSH1 0x20 DUP2 DUP6 ADD DUP2 ADD MLOAD DUP7 DUP4 ADD DUP3 ADD MSTORE ADD PUSH2 0x67B JUMP JUMPDEST DUP2 DUP2 GT ISZERO PUSH2 0x6A8 JUMPI DUP3 PUSH1 0x20 DUP4 DUP8 ADD ADD MSTORE JUMPDEST POP PUSH1 0x1F ADD PUSH1 0x1F NOT AND SWAP3 SWAP1 SWAP3 ADD PUSH1 0x20 ADD SWAP3 SWAP2 POP POP JUMP JUMPDEST PUSH1 0x1 PUSH1 0x1 PUSH1 0xA0 SHL SUB SWAP3 DUP4 AND DUP2 MSTORE SWAP2 AND PUSH1 0x20 DUP3 ADD MSTORE PUSH1 0x40 ADD SWAP1 JUMP JUMPDEST SWAP1 ISZERO ISZERO DUP2 MSTORE PUSH1 0x20 ADD SWAP1 JUMP JUMPDEST PUSH1 0x0 PUSH1 0x20 DUP3 MSTORE PUSH2 0x4D0 PUSH1 0x20 DUP4 ADD DUP5 PUSH2 0x672 JUMP JUMPDEST PUSH1 0x1 PUSH1 0x1 PUSH1 0xA0 SHL SUB SWAP2 SWAP1 SWAP2 AND DUP2 MSTORE PUSH1 0x20 ADD SWAP1 JUMP JUMPDEST PUSH1 0x1 PUSH1 0x1 PUSH1 0xA0 SHL SUB DUP12 DUP2 AND DUP3 MSTORE PUSH2 0x140 PUSH1 0x20 DUP4 ADD DUP2 SWAP1 MSTORE PUSH1 0x0 SWAP2 PUSH2 0x72F DUP5 DUP4 ADD DUP15 PUSH2 0x672 JUMP JUMPDEST SWAP2 POP DUP4 DUP3 SUB PUSH1 0x40 DUP6 ADD MSTORE PUSH2 0x743 DUP3 DUP14 PUSH2 0x672 JUMP JUMPDEST SWAP11 DUP2 AND PUSH1 0x60 DUP6 ADD MSTORE SWAP9 DUP10 AND PUSH1 0x80 DUP5 ADD MSTORE POP POP PUSH1 0xA0 DUP2 ADD SWAP6 SWAP1 SWAP6 MSTORE PUSH1 0xC0 DUP6 ADD SWAP4 SWAP1 SWAP4 MSTORE PUSH1 0xE0 DUP5 ADD SWAP2 SWAP1 SWAP2 MSTORE PUSH2 0x100 DUP4 ADD MSTORE SWAP1 SWAP2 AND PUSH2 0x120 SWAP1 SWAP2 ADD MSTORE SWAP4 SWAP3 POP POP POP JUMP JUMPDEST SWAP2 DUP3 MSTORE PUSH1 0x20 DUP3 ADD MSTORE PUSH1 0x40 ADD SWAP1 JUMP JUMPDEST PUSH1 0x1 PUSH1 0x1 PUSH1 0xA0 SHL SUB DUP2 AND DUP2 EQ PUSH2 0x7A7 JUMPI PUSH1 0x0 DUP1 REVERT JUMPDEST POP JUMP INVALID LOG2 PUSH5 0x6970667358 0x22 SLT KECCAK256 0xC8 SWAP12 0xCA DUP4 0xB2 0xD8 0xA8 SWAP5 MUL SUB 0x25 0xD9 0xD9 PUSH27 0x41F03F30F5BA8A353A3C4F1A4A2376F00BBC64736F6C6343000701 STOP CALLER PUSH2 0x2C0 PUSH1 0x40 MSTORE PUSH32 0x6E71EDAE12B1B97F4D1F60370FEF10105FA2FAAE0126114A169C64845D6126C9 PUSH2 0x120 MSTORE CALLVALUE DUP1 ISZERO PUSH3 0x37 JUMPI PUSH1 0x0 DUP1 REVERT JUMPDEST POP PUSH1 0x40 MLOAD PUSH3 0x5111 CODESIZE SUB DUP1 PUSH3 0x5111 DUP4 CODECOPY DUP2 ADD PUSH1 0x40 DUP2 SWAP1 MSTORE PUSH3 0x5A SWAP2 PUSH3 0xBBF JUMP JUMPDEST DUP10 DUP10 DUP10 DUP10 DUP10 DUP10 DUP10 DUP10 DUP10 DUP10 DUP10 PUSH1 0x0 DUP11 DUP11 PUSH3 0x76 DUP12 DUP12 ADDRESS PUSH3 0x4E1 JUMP JUMPDEST PUSH1 0x40 DUP1 MLOAD PUSH1 0x3 DUP1 DUP3 MSTORE PUSH1 0x80 DUP3 ADD SWAP1 SWAP3 MSTORE SWAP1 PUSH1 0x20 DUP3 ADD PUSH1 0x60 DUP1 CALLDATASIZE DUP4 CALLDATACOPY ADD SWAP1 POP POP DUP10 DUP10 DUP10 DUP10 DUP3 DUP3 DUP10 DUP10 DUP14 DUP3 DUP1 PUSH1 0x40 MLOAD DUP1 PUSH1 0x40 ADD PUSH1 0x40 MSTORE DUP1 PUSH1 0x1 DUP2 MSTORE PUSH1 0x20 ADD PUSH1 0x31 PUSH1 0xF8 SHL DUP2 MSTORE POP DUP6 DUP6 DUP11 CALLER PUSH1 0x1 PUSH1 0x1 PUSH1 0xA0 SHL SUB AND PUSH1 0x0 SHL DUP1 PUSH1 0x80 DUP2 DUP2 MSTORE POP POP POP DUP1 PUSH1 0x1 PUSH1 0x1 PUSH1 0xA0 SHL SUB AND PUSH1 0xA0 DUP2 PUSH1 0x1 PUSH1 0x1 PUSH1 0xA0 SHL SUB AND PUSH1 0x60 SHL DUP2 MSTORE POP POP POP DUP2 PUSH1 0x3 SWAP1 DUP1 MLOAD SWAP1 PUSH1 0x20 ADD SWAP1 PUSH3 0x109 SWAP3 SWAP2 SWAP1 PUSH3 0xA30 JUMP JUMPDEST POP DUP1 MLOAD PUSH3 0x11F SWAP1 PUSH1 0x4 SWAP1 PUSH1 0x20 DUP5 ADD SWAP1 PUSH3 0xA30 JUMP JUMPDEST POP POP PUSH1 0x5 DUP1 SLOAD PUSH1 0x12 PUSH1 0xFF NOT SWAP1 SWAP2 AND OR SWAP1 SSTORE POP DUP2 MLOAD PUSH1 0x20 SWAP3 DUP4 ADD KECCAK256 PUSH1 0xC0 MSTORE DUP1 MLOAD SWAP2 ADD KECCAK256 PUSH1 0xE0 MSTORE POP PUSH32 0x8B73C3C69BB8FE3D512ECC4CF759CC79239F7B179B0FFACAA9A75D522B39400F PUSH2 0x100 MSTORE PUSH1 0x60 SHL PUSH1 0x1 PUSH1 0x1 PUSH1 0x60 SHL SUB NOT AND PUSH2 0x140 MSTORE POP PUSH3 0x192 SWAP1 POP PUSH3 0x76A700 DUP4 GT ISZERO PUSH2 0x194 PUSH3 0x5B0 JUMP JUMPDEST PUSH3 0x1A6 PUSH3 0x278D00 DUP3 GT ISZERO PUSH2 0x195 PUSH3 0x5B0 JUMP JUMPDEST TIMESTAMP SWAP1 SWAP2 ADD PUSH2 0x160 DUP2 SWAP1 MSTORE ADD PUSH2 0x180 MSTORE DUP6 MLOAD PUSH3 0x1C8 SWAP1 PUSH1 0x2 GT ISZERO PUSH1 0xC8 PUSH3 0x5B0 JUMP JUMPDEST PUSH3 0x1E2 PUSH3 0x1D6 PUSH3 0x5C5 JUMP JUMPDEST DUP8 MLOAD GT ISZERO PUSH1 0xC9 PUSH3 0x5B0 JUMP JUMPDEST PUSH3 0x1F8 DUP7 PUSH3 0x5CA PUSH1 0x20 SHL PUSH3 0x1389 OR PUSH1 0x20 SHR JUMP JUMPDEST PUSH3 0x203 DUP5 PUSH3 0x5D6 JUMP JUMPDEST PUSH1 0x40 MLOAD PUSH4 0x9B2760F PUSH1 0xE0 SHL DUP2 MSTORE PUSH1 0x0 SWAP1 PUSH1 0x1 PUSH1 0x1 PUSH1 0xA0 SHL SUB DUP13 AND SWAP1 PUSH4 0x9B2760F SWAP1 PUSH3 0x234 SWAP1 DUP14 SWAP1 PUSH1 0x4 ADD PUSH3 0xD5D JUMP JUMPDEST PUSH1 0x20 PUSH1 0x40 MLOAD DUP1 DUP4 SUB DUP2 PUSH1 0x0 DUP8 DUP1 EXTCODESIZE ISZERO DUP1 ISZERO PUSH3 0x24F JUMPI PUSH1 0x0 DUP1 REVERT JUMPDEST POP GAS CALL ISZERO DUP1 ISZERO PUSH3 0x264 JUMPI RETURNDATASIZE PUSH1 0x0 DUP1 RETURNDATACOPY RETURNDATASIZE PUSH1 0x0 REVERT JUMPDEST POP POP POP POP PUSH1 0x40 MLOAD RETURNDATASIZE PUSH1 0x1F NOT PUSH1 0x1F DUP3 ADD AND DUP3 ADD DUP1 PUSH1 0x40 MSTORE POP DUP2 ADD SWAP1 PUSH3 0x28A SWAP2 SWAP1 PUSH3 0xBA6 JUMP JUMPDEST PUSH1 0x40 MLOAD PUSH4 0x3354E3E9 PUSH1 0xE1 SHL DUP2 MSTORE SWAP1 SWAP2 POP PUSH1 0x1 PUSH1 0x1 PUSH1 0xA0 SHL SUB DUP13 AND SWAP1 PUSH4 0x66A9C7D2 SWAP1 PUSH3 0x2BF SWAP1 DUP5 SWAP1 DUP12 SWAP1 DUP12 SWAP1 PUSH1 0x4 ADD PUSH3 0xCC1 JUMP JUMPDEST PUSH1 0x0 PUSH1 0x40 MLOAD DUP1 DUP4 SUB DUP2 PUSH1 0x0 DUP8 DUP1 EXTCODESIZE ISZERO DUP1 ISZERO PUSH3 0x2DA JUMPI PUSH1 0x0 DUP1 REVERT JUMPDEST POP GAS CALL ISZERO DUP1 ISZERO PUSH3 0x2EF JUMPI RETURNDATASIZE PUSH1 0x0 DUP1 RETURNDATACOPY RETURNDATASIZE PUSH1 0x0 REVERT JUMPDEST POP POP POP POP DUP1 PUSH2 0x1A0 DUP2 DUP2 MSTORE POP POP POP POP POP POP POP POP POP POP POP POP POP DUP7 PUSH1 0x1 PUSH1 0x1 PUSH1 0xA0 SHL SUB AND PUSH2 0x1C0 DUP2 PUSH1 0x1 PUSH1 0x1 PUSH1 0xA0 SHL SUB AND PUSH1 0x60 SHL DUP2 MSTORE POP POP DUP6 PUSH1 0x1 PUSH1 0x1 PUSH1 0xA0 SHL SUB AND PUSH2 0x1E0 DUP2 PUSH1 0x1 PUSH1 0x1 PUSH1 0xA0 SHL SUB AND PUSH1 0x60 SHL DUP2 MSTORE POP POP PUSH1 0x0 DUP1 PUSH1 0x0 PUSH3 0x35B DUP11 DUP11 ADDRESS PUSH3 0x662 PUSH1 0x20 SHL PUSH1 0x20 SHR JUMP JUMPDEST PUSH2 0x200 DUP2 SWAP1 MSTORE PUSH2 0x220 DUP4 SWAP1 MSTORE PUSH2 0x240 DUP3 SWAP1 MSTORE SWAP2 SWAP5 POP SWAP3 POP SWAP1 POP PUSH3 0x37F DUP11 PUSH3 0x758 JUMP JUMPDEST PUSH2 0x260 MSTORE PUSH3 0x38E DUP10 PUSH3 0x758 JUMP JUMPDEST PUSH2 0x280 MSTORE PUSH1 0x0 PUSH3 0x3A1 DUP12 DUP3 DUP12 PUSH3 0x82C JUMP JUMPDEST POP POP POP POP POP POP POP POP POP POP POP POP POP POP DUP6 PUSH1 0x1 PUSH1 0x1 PUSH1 0xA0 SHL SUB AND PUSH4 0xB4DCFC77 PUSH1 0x40 MLOAD DUP2 PUSH4 0xFFFFFFFF AND PUSH1 0xE0 SHL DUP2 MSTORE PUSH1 0x4 ADD PUSH1 0x20 PUSH1 0x40 MLOAD DUP1 DUP4 SUB DUP2 DUP7 DUP1 EXTCODESIZE ISZERO DUP1 ISZERO PUSH3 0x3E9 JUMPI PUSH1 0x0 DUP1 REVERT JUMPDEST POP GAS STATICCALL ISZERO DUP1 ISZERO PUSH3 0x3FE JUMPI RETURNDATASIZE PUSH1 0x0 DUP1 RETURNDATACOPY RETURNDATASIZE PUSH1 0x0 REVERT JUMPDEST POP POP POP POP PUSH1 0x40 MLOAD RETURNDATASIZE PUSH1 0x1F NOT PUSH1 0x1F DUP3 ADD AND DUP3 ADD DUP1 PUSH1 0x40 MSTORE POP DUP2 ADD SWAP1 PUSH3 0x424 SWAP2 SWAP1 PUSH3 0xB80 JUMP JUMPDEST PUSH1 0x1 PUSH1 0x1 PUSH1 0xA0 SHL SUB AND PUSH2 0x2A0 DUP2 PUSH1 0x1 PUSH1 0x1 PUSH1 0xA0 SHL SUB AND PUSH1 0x60 SHL DUP2 MSTORE POP POP PUSH3 0x4D1 DUP7 PUSH1 0x1 PUSH1 0x1 PUSH1 0xA0 SHL SUB AND PUSH4 0x4800D97F PUSH1 0x40 MLOAD DUP2 PUSH4 0xFFFFFFFF AND PUSH1 0xE0 SHL DUP2 MSTORE PUSH1 0x4 ADD PUSH1 0x20 PUSH1 0x40 MLOAD DUP1 DUP4 SUB DUP2 DUP7 DUP1 EXTCODESIZE ISZERO DUP1 ISZERO PUSH3 0x47F JUMPI PUSH1 0x0 DUP1 REVERT JUMPDEST POP GAS STATICCALL ISZERO DUP1 ISZERO PUSH3 0x494 JUMPI RETURNDATASIZE PUSH1 0x0 DUP1 RETURNDATACOPY RETURNDATASIZE PUSH1 0x0 REVERT JUMPDEST POP POP POP POP PUSH1 0x40 MLOAD RETURNDATASIZE PUSH1 0x1F NOT PUSH1 0x1F DUP3 ADD AND DUP3 ADD DUP1 PUSH1 0x40 MSTORE POP DUP2 ADD SWAP1 PUSH3 0x4BA SWAP2 SWAP1 PUSH3 0xB80 JUMP JUMPDEST PUSH1 0x1 PUSH1 0x1 PUSH1 0xA0 SHL SUB DUP10 DUP2 AND SWAP2 AND EQ PUSH2 0x208 PUSH3 0x5B0 JUMP JUMPDEST POP POP POP POP POP POP POP POP POP POP PUSH3 0xDAB JUMP JUMPDEST PUSH1 0x60 PUSH1 0x0 DUP1 DUP1 PUSH3 0x4F4 DUP8 DUP8 DUP8 PUSH3 0x662 JUMP JUMPDEST PUSH1 0x40 DUP1 MLOAD PUSH1 0x3 DUP1 DUP3 MSTORE PUSH1 0x80 DUP3 ADD SWAP1 SWAP3 MSTORE SWAP4 SWAP7 POP SWAP2 SWAP5 POP SWAP3 POP PUSH1 0x20 DUP3 ADD PUSH1 0x60 DUP1 CALLDATASIZE DUP4 CALLDATACOPY ADD SWAP1 POP POP SWAP4 POP DUP7 DUP5 DUP5 DUP2 MLOAD DUP2 LT PUSH3 0x52A JUMPI INVALID JUMPDEST PUSH1 0x20 MUL PUSH1 0x20 ADD ADD SWAP1 PUSH1 0x1 PUSH1 0x1 PUSH1 0xA0 SHL SUB AND SWAP1 DUP2 PUSH1 0x1 PUSH1 0x1 PUSH1 0xA0 SHL SUB AND DUP2 MSTORE POP POP DUP6 DUP5 DUP4 DUP2 MLOAD DUP2 LT PUSH3 0x558 JUMPI INVALID JUMPDEST PUSH1 0x20 MUL PUSH1 0x20 ADD ADD SWAP1 PUSH1 0x1 PUSH1 0x1 PUSH1 0xA0 SHL SUB AND SWAP1 DUP2 PUSH1 0x1 PUSH1 0x1 PUSH1 0xA0 SHL SUB AND DUP2 MSTORE POP POP DUP5 DUP5 DUP3 DUP2 MLOAD DUP2 LT PUSH3 0x586 JUMPI INVALID JUMPDEST PUSH1 0x20 MUL PUSH1 0x20 ADD ADD SWAP1 PUSH1 0x1 PUSH1 0x1 PUSH1 0xA0 SHL SUB AND SWAP1 DUP2 PUSH1 0x1 PUSH1 0x1 PUSH1 0xA0 SHL SUB AND DUP2 MSTORE POP POP POP POP POP SWAP4 SWAP3 POP POP POP JUMP JUMPDEST DUP2 PUSH3 0x5C1 JUMPI PUSH3 0x5C1 DUP2 PUSH3 0x8DA JUMP JUMPDEST POP POP JUMP JUMPDEST PUSH1 0x3 SWAP1 JUMP JUMPDEST DUP1 PUSH3 0x5C1 DUP2 PUSH3 0x92D JUMP JUMPDEST PUSH3 0x5EB PUSH5 0xE8D4A51000 DUP3 LT ISZERO PUSH1 0xCB PUSH3 0x5B0 JUMP JUMPDEST PUSH3 0x603 PUSH8 0x16345785D8A0000 DUP3 GT ISZERO PUSH1 0xCA PUSH3 0x5B0 JUMP JUMPDEST PUSH3 0x622 DUP2 PUSH1 0xC0 PUSH1 0x8 SLOAD PUSH3 0x9BA PUSH1 0x20 SHL PUSH3 0x1393 OR SWAP1 SWAP3 SWAP2 SWAP1 PUSH1 0x20 SHR JUMP JUMPDEST PUSH1 0x8 SSTORE PUSH1 0x40 MLOAD PUSH32 0xA9BA3FFE0B6C366B81232CAAB38605A0699AD5398D6CCE76F91EE809E322DAFC SWAP1 PUSH3 0x657 SWAP1 DUP4 SWAP1 PUSH3 0xD72 JUMP JUMPDEST PUSH1 0x40 MLOAD DUP1 SWAP2 SUB SWAP1 LOG1 POP JUMP JUMPDEST PUSH1 0x0 DUP1 PUSH1 0x0 DUP5 PUSH1 0x1 PUSH1 0x1 PUSH1 0xA0 SHL SUB AND DUP7 PUSH1 0x1 PUSH1 0x1 PUSH1 0xA0 SHL SUB AND LT ISZERO PUSH3 0x6EB JUMPI DUP4 PUSH1 0x1 PUSH1 0x1 PUSH1 0xA0 SHL SUB AND DUP6 PUSH1 0x1 PUSH1 0x1 PUSH1 0xA0 SHL SUB AND LT ISZERO PUSH3 0x6AE JUMPI POP PUSH1 0x0 SWAP2 POP PUSH1 0x1 SWAP1 POP PUSH1 0x2 PUSH3 0x74F JUMP JUMPDEST DUP4 PUSH1 0x1 PUSH1 0x1 PUSH1 0xA0 SHL SUB AND DUP7 PUSH1 0x1 PUSH1 0x1 PUSH1 0xA0 SHL SUB AND LT ISZERO PUSH3 0x6DA JUMPI POP PUSH1 0x0 SWAP2 POP PUSH1 0x2 SWAP1 POP PUSH1 0x1 PUSH3 0x74F JUMP JUMPDEST POP PUSH1 0x1 SWAP2 POP PUSH1 0x2 SWAP1 POP PUSH1 0x0 PUSH3 0x74F JUMP JUMPDEST DUP5 PUSH1 0x1 PUSH1 0x1 PUSH1 0xA0 SHL SUB AND DUP5 PUSH1 0x1 PUSH1 0x1 PUSH1 0xA0 SHL SUB AND LT ISZERO PUSH3 0x717 JUMPI POP PUSH1 0x2 SWAP2 POP PUSH1 0x1 SWAP1 POP PUSH1 0x0 PUSH3 0x74F JUMP JUMPDEST DUP6 PUSH1 0x1 PUSH1 0x1 PUSH1 0xA0 SHL SUB AND DUP5 PUSH1 0x1 PUSH1 0x1 PUSH1 0xA0 SHL SUB AND LT ISZERO PUSH3 0x743 JUMPI POP PUSH1 0x2 SWAP2 POP PUSH1 0x0 SWAP1 POP PUSH1 0x1 PUSH3 0x74F JUMP JUMPDEST POP PUSH1 0x1 SWAP2 POP PUSH1 0x0 SWAP1 POP PUSH1 0x2 JUMPDEST SWAP4 POP SWAP4 POP SWAP4 SWAP1 POP JUMP JUMPDEST PUSH1 0x0 PUSH1 0x1 PUSH1 0x1 PUSH1 0xA0 SHL SUB DUP3 AND ADDRESS EQ ISZERO PUSH3 0x77C JUMPI POP PUSH8 0xDE0B6B3A7640000 PUSH3 0x827 JUMP JUMPDEST PUSH1 0x0 DUP3 PUSH1 0x1 PUSH1 0x1 PUSH1 0xA0 SHL SUB AND PUSH4 0x313CE567 PUSH1 0x40 MLOAD DUP2 PUSH4 0xFFFFFFFF AND PUSH1 0xE0 SHL DUP2 MSTORE PUSH1 0x4 ADD PUSH1 0x20 PUSH1 0x40 MLOAD DUP1 DUP4 SUB DUP2 DUP7 DUP1 EXTCODESIZE ISZERO DUP1 ISZERO PUSH3 0x7B8 JUMPI PUSH1 0x0 DUP1 REVERT JUMPDEST POP GAS STATICCALL ISZERO DUP1 ISZERO PUSH3 0x7CD JUMPI RETURNDATASIZE PUSH1 0x0 DUP1 RETURNDATACOPY RETURNDATASIZE PUSH1 0x0 REVERT JUMPDEST POP POP POP POP PUSH1 0x40 MLOAD RETURNDATASIZE PUSH1 0x1F NOT PUSH1 0x1F DUP3 ADD AND DUP3 ADD DUP1 PUSH1 0x40 MSTORE POP DUP2 ADD SWAP1 PUSH3 0x7F3 SWAP2 SWAP1 PUSH3 0xC9E JUMP JUMPDEST PUSH1 0xFF AND SWAP1 POP PUSH1 0x0 PUSH3 0x812 PUSH1 0x12 DUP4 PUSH3 0x9CF PUSH1 0x20 SHL PUSH3 0x13A9 OR PUSH1 0x20 SHR JUMP JUMPDEST SWAP1 POP DUP1 PUSH1 0xA EXP PUSH8 0xDE0B6B3A7640000 MUL SWAP3 POP POP POP JUMPDEST SWAP2 SWAP1 POP JUMP JUMPDEST PUSH3 0x83D DUP2 DUP4 GT ISZERO PUSH2 0x14C PUSH3 0x5B0 JUMP JUMPDEST PUSH3 0x855 PUSH1 0x1 PUSH1 0x1 PUSH1 0x60 SHL SUB DUP3 GT ISZERO PUSH2 0x14D PUSH3 0x5B0 JUMP JUMPDEST PUSH3 0x890 PUSH3 0x871 DUP3 PUSH1 0x60 PUSH3 0x9EC PUSH1 0x20 SHL PUSH3 0x13BF OR PUSH1 0x20 SHR JUMP JUMPDEST PUSH3 0x889 DUP5 PUSH1 0x0 PUSH3 0x9EC PUSH1 0x20 SHL PUSH3 0x13BF OR PUSH1 0x20 SHR JUMP JUMPDEST OR PUSH3 0x9F0 JUMP JUMPDEST DUP3 PUSH1 0x1 PUSH1 0x1 PUSH1 0xA0 SHL SUB AND PUSH32 0xD0E27A0D0C2CB09280FA5E4487315455B32AFCDCF012DC35B6EF2A0E3C4D1280 DUP4 DUP4 PUSH1 0x40 MLOAD PUSH3 0x8CD SWAP3 SWAP2 SWAP1 PUSH3 0xD7B JUMP JUMPDEST PUSH1 0x40 MLOAD DUP1 SWAP2 SUB SWAP1 LOG2 POP POP POP JUMP JUMPDEST PUSH3 0x461BCD PUSH1 0xE5 SHL PUSH1 0x0 SWAP1 DUP2 MSTORE PUSH1 0x20 PUSH1 0x4 MSTORE PUSH1 0x7 PUSH1 0x24 MSTORE PUSH7 0x42414C23000030 PUSH1 0xA DUP1 DUP5 DIV DUP2 DUP2 MOD PUSH1 0x30 SWAP1 DUP2 ADD PUSH1 0x8 SHL SWAP6 DUP4 SWAP1 MOD SWAP6 SWAP1 SWAP6 ADD SWAP1 DUP3 SWAP1 DIV SWAP2 DUP3 MOD SWAP1 SWAP5 ADD PUSH1 0x10 SHL SWAP4 SWAP1 SWAP4 ADD ADD PUSH1 0xC8 SHL PUSH1 0x44 MSTORE PUSH1 0x64 SWAP1 REVERT JUMPDEST PUSH1 0x2 DUP2 MLOAD LT ISZERO PUSH3 0x93E JUMPI PUSH3 0x9B7 JUMP JUMPDEST PUSH1 0x0 DUP2 PUSH1 0x0 DUP2 MLOAD DUP2 LT PUSH3 0x94E JUMPI INVALID JUMPDEST PUSH1 0x20 MUL PUSH1 0x20 ADD ADD MLOAD SWAP1 POP PUSH1 0x0 PUSH1 0x1 SWAP1 POP JUMPDEST DUP3 MLOAD DUP2 LT ISZERO PUSH3 0x9B4 JUMPI PUSH1 0x0 DUP4 DUP3 DUP2 MLOAD DUP2 LT PUSH3 0x978 JUMPI INVALID JUMPDEST PUSH1 0x20 MUL PUSH1 0x20 ADD ADD MLOAD SWAP1 POP PUSH3 0x9A9 DUP2 PUSH1 0x1 PUSH1 0x1 PUSH1 0xA0 SHL SUB AND DUP5 PUSH1 0x1 PUSH1 0x1 PUSH1 0xA0 SHL SUB AND LT PUSH1 0x65 PUSH3 0x5B0 PUSH1 0x20 SHL PUSH1 0x20 SHR JUMP JUMPDEST SWAP2 POP PUSH1 0x1 ADD PUSH3 0x95F JUMP JUMPDEST POP POP JUMPDEST POP JUMP JUMPDEST PUSH1 0x1 PUSH1 0x1 PUSH1 0x40 SHL SUB DUP2 SHL NOT SWAP3 SWAP1 SWAP3 AND SWAP2 SHL OR SWAP1 JUMP JUMPDEST PUSH1 0x0 PUSH3 0x9E1 DUP4 DUP4 GT ISZERO PUSH1 0x1 PUSH3 0x5B0 JUMP JUMPDEST POP DUP1 DUP3 SUB JUMPDEST SWAP3 SWAP2 POP POP JUMP JUMPDEST SHL SWAP1 JUMP JUMPDEST PUSH3 0xA0F DUP2 PUSH1 0x0 PUSH1 0x8 SLOAD PUSH3 0xA15 PUSH1 0x20 SHL PUSH3 0x13C3 OR SWAP1 SWAP3 SWAP2 SWAP1 PUSH1 0x20 SHR JUMP JUMPDEST PUSH1 0x8 SSTORE POP JUMP JUMPDEST PUSH1 0x1 PUSH1 0x1 PUSH1 0xC0 SHL SUB DUP3 DUP2 AND DUP3 SHL SWAP1 DUP3 SHL NOT DUP5 AND OR SWAP4 SWAP3 POP POP POP JUMP JUMPDEST DUP3 DUP1 SLOAD PUSH1 0x1 DUP2 PUSH1 0x1 AND ISZERO PUSH2 0x100 MUL SUB AND PUSH1 0x2 SWAP1 DIV SWAP1 PUSH1 0x0 MSTORE PUSH1 0x20 PUSH1 0x0 KECCAK256 SWAP1 PUSH1 0x1F ADD PUSH1 0x20 SWAP1 DIV DUP2 ADD SWAP3 DUP3 PUSH1 0x1F LT PUSH3 0xA73 JUMPI DUP1 MLOAD PUSH1 0xFF NOT AND DUP4 DUP1 ADD OR DUP6 SSTORE PUSH3 0xAA3 JUMP JUMPDEST DUP3 DUP1 ADD PUSH1 0x1 ADD DUP6 SSTORE DUP3 ISZERO PUSH3 0xAA3 JUMPI SWAP2 DUP3 ADD JUMPDEST DUP3 DUP2 GT ISZERO PUSH3 0xAA3 JUMPI DUP3 MLOAD DUP3 SSTORE SWAP2 PUSH1 0x20 ADD SWAP2 SWAP1 PUSH1 0x1 ADD SWAP1 PUSH3 0xA86 JUMP JUMPDEST POP PUSH3 0xAB1 SWAP3 SWAP2 POP PUSH3 0xAB5 JUMP JUMPDEST POP SWAP1 JUMP JUMPDEST JUMPDEST DUP1 DUP3 GT ISZERO PUSH3 0xAB1 JUMPI PUSH1 0x0 DUP2 SSTORE PUSH1 0x1 ADD PUSH3 0xAB6 JUMP JUMPDEST DUP1 MLOAD PUSH3 0x9E6 DUP2 PUSH3 0xD95 JUMP JUMPDEST PUSH1 0x0 DUP3 PUSH1 0x1F DUP4 ADD SLT PUSH3 0xAEA JUMPI DUP1 DUP2 REVERT JUMPDEST DUP2 MLOAD PUSH1 0x1 PUSH1 0x1 PUSH1 0x40 SHL SUB DUP1 DUP3 GT ISZERO PUSH3 0xB01 JUMPI DUP3 DUP4 REVERT JUMPDEST PUSH1 0x40 MLOAD PUSH1 0x20 PUSH1 0x1F DUP5 ADD PUSH1 0x1F NOT AND DUP3 ADD DUP2 ADD DUP4 DUP2 GT DUP4 DUP3 LT OR ISZERO PUSH3 0xB23 JUMPI DUP6 DUP7 REVERT JUMPDEST DUP1 PUSH1 0x40 MSTORE POP DUP2 SWAP5 POP DUP4 DUP3 MSTORE DUP7 DUP2 DUP6 DUP9 ADD ADD GT ISZERO PUSH3 0xB40 JUMPI PUSH1 0x0 DUP1 REVERT JUMPDEST PUSH1 0x0 SWAP3 POP JUMPDEST DUP4 DUP4 LT ISZERO PUSH3 0xB64 JUMPI DUP6 DUP4 ADD DUP2 ADD MLOAD DUP3 DUP5 ADD DUP3 ADD MSTORE SWAP2 DUP3 ADD SWAP2 PUSH3 0xB45 JUMP JUMPDEST DUP4 DUP4 GT ISZERO PUSH3 0xB76 JUMPI PUSH1 0x0 DUP2 DUP6 DUP5 ADD ADD MSTORE JUMPDEST POP POP POP POP SWAP3 SWAP2 POP POP JUMP JUMPDEST PUSH1 0x0 PUSH1 0x20 DUP3 DUP5 SUB SLT ISZERO PUSH3 0xB92 JUMPI DUP1 DUP2 REVERT JUMPDEST DUP2 MLOAD PUSH3 0xB9F DUP2 PUSH3 0xD95 JUMP JUMPDEST SWAP4 SWAP3 POP POP POP JUMP JUMPDEST PUSH1 0x0 PUSH1 0x20 DUP3 DUP5 SUB SLT ISZERO PUSH3 0xBB8 JUMPI DUP1 DUP2 REVERT JUMPDEST POP MLOAD SWAP2 SWAP1 POP JUMP JUMPDEST PUSH1 0x0 DUP1 PUSH1 0x0 DUP1 PUSH1 0x0 DUP1 PUSH1 0x0 DUP1 PUSH1 0x0 DUP1 PUSH2 0x140 DUP12 DUP14 SUB SLT ISZERO PUSH3 0xBDF JUMPI DUP6 DUP7 REVERT JUMPDEST PUSH3 0xBEB DUP13 DUP13 PUSH3 0xACC JUMP JUMPDEST PUSH1 0x20 DUP13 ADD MLOAD SWAP1 SWAP11 POP PUSH1 0x1 PUSH1 0x1 PUSH1 0x40 SHL SUB DUP1 DUP3 GT ISZERO PUSH3 0xC08 JUMPI DUP8 DUP9 REVERT JUMPDEST PUSH3 0xC16 DUP15 DUP4 DUP16 ADD PUSH3 0xAD9 JUMP JUMPDEST SWAP11 POP PUSH1 0x40 DUP14 ADD MLOAD SWAP2 POP DUP1 DUP3 GT ISZERO PUSH3 0xC2C JUMPI DUP8 DUP9 REVERT JUMPDEST POP PUSH3 0xC3B DUP14 DUP3 DUP15 ADD PUSH3 0xAD9 JUMP JUMPDEST SWAP9 POP POP PUSH3 0xC4D DUP13 PUSH1 0x60 DUP14 ADD PUSH3 0xACC JUMP JUMPDEST SWAP7 POP PUSH3 0xC5E DUP13 PUSH1 0x80 DUP14 ADD PUSH3 0xACC JUMP JUMPDEST SWAP6 POP PUSH1 0xA0 DUP12 ADD MLOAD SWAP5 POP PUSH1 0xC0 DUP12 ADD MLOAD SWAP4 POP PUSH1 0xE0 DUP12 ADD MLOAD SWAP3 POP PUSH2 0x100 DUP12 ADD MLOAD SWAP2 POP PUSH3 0xC8D DUP13 PUSH2 0x120 DUP14 ADD PUSH3 0xACC JUMP JUMPDEST SWAP1 POP SWAP3 SWAP6 SWAP9 SWAP12 SWAP2 SWAP5 SWAP8 SWAP11 POP SWAP3 SWAP6 SWAP9 POP JUMP JUMPDEST PUSH1 0x0 PUSH1 0x20 DUP3 DUP5 SUB SLT ISZERO PUSH3 0xCB0 JUMPI DUP1 DUP2 REVERT JUMPDEST DUP2 MLOAD PUSH1 0xFF DUP2 AND DUP2 EQ PUSH3 0xB9F JUMPI DUP2 DUP3 REVERT JUMPDEST PUSH1 0x0 PUSH1 0x60 DUP3 ADD DUP6 DUP4 MSTORE PUSH1 0x20 PUSH1 0x60 DUP2 DUP6 ADD MSTORE DUP2 DUP7 MLOAD DUP1 DUP5 MSTORE PUSH1 0x80 DUP7 ADD SWAP2 POP DUP3 DUP9 ADD SWAP4 POP DUP5 JUMPDEST DUP2 DUP2 LT ISZERO PUSH3 0xD0D JUMPI PUSH3 0xCFA DUP6 MLOAD PUSH3 0xD89 JUMP JUMPDEST DUP4 MSTORE SWAP4 DUP4 ADD SWAP4 SWAP2 DUP4 ADD SWAP2 PUSH1 0x1 ADD PUSH3 0xCE5 JUMP JUMPDEST POP POP DUP5 DUP2 SUB PUSH1 0x40 DUP7 ADD MSTORE DUP6 MLOAD DUP1 DUP3 MSTORE SWAP1 DUP3 ADD SWAP3 POP DUP2 DUP7 ADD SWAP1 DUP5 JUMPDEST DUP2 DUP2 LT ISZERO PUSH3 0xD4F JUMPI PUSH3 0xD3C DUP4 MLOAD PUSH3 0xD89 JUMP JUMPDEST DUP6 MSTORE SWAP4 DUP4 ADD SWAP4 SWAP2 DUP4 ADD SWAP2 PUSH1 0x1 ADD PUSH3 0xD27 JUMP JUMPDEST POP SWAP3 SWAP9 SWAP8 POP POP POP POP POP POP POP POP JUMP JUMPDEST PUSH1 0x20 DUP2 ADD PUSH1 0x3 DUP4 LT PUSH3 0xD6C JUMPI INVALID JUMPDEST SWAP2 SWAP1 MSTORE SWAP1 JUMP JUMPDEST SWAP1 DUP2 MSTORE PUSH1 0x20 ADD SWAP1 JUMP JUMPDEST SWAP2 DUP3 MSTORE PUSH1 0x20 DUP3 ADD MSTORE PUSH1 0x40 ADD SWAP1 JUMP JUMPDEST PUSH1 0x1 PUSH1 0x1 PUSH1 0xA0 SHL SUB AND SWAP1 JUMP JUMPDEST PUSH1 0x1 PUSH1 0x1 PUSH1 0xA0 SHL SUB DUP2 AND DUP2 EQ PUSH3 0x9B7 JUMPI PUSH1 0x0 DUP1 REVERT JUMPDEST PUSH1 0x80 MLOAD PUSH1 0xA0 MLOAD PUSH1 0x60 SHR PUSH1 0xC0 MLOAD PUSH1 0xE0 MLOAD PUSH2 0x100 MLOAD PUSH2 0x120 MLOAD PUSH2 0x140 MLOAD PUSH1 0x60 SHR PUSH2 0x160 MLOAD PUSH2 0x180 MLOAD PUSH2 0x1A0 MLOAD PUSH2 0x1C0 MLOAD PUSH1 0x60 SHR PUSH2 0x1E0 MLOAD PUSH1 0x60 SHR PUSH2 0x200 MLOAD PUSH2 0x220 MLOAD PUSH2 0x240 MLOAD PUSH2 0x260 MLOAD PUSH2 0x280 MLOAD PUSH2 0x2A0 MLOAD PUSH1 0x60 SHR PUSH2 0x418C PUSH3 0xF85 PUSH1 0x0 CODECOPY DUP1 PUSH2 0x22F2 MSTORE POP DUP1 PUSH2 0x148C MSTORE POP DUP1 PUSH2 0x1428 MSTORE DUP1 PUSH2 0x223E MSTORE POP DUP1 PUSH2 0x728 MSTORE DUP1 PUSH2 0xABD MSTORE DUP1 PUSH2 0x14B4 MSTORE DUP1 PUSH2 0x2567 MSTORE DUP1 PUSH2 0x2717 MSTORE DUP1 PUSH2 0x286E MSTORE DUP1 PUSH2 0x29E0 MSTORE DUP1 PUSH2 0x2B7C MSTORE DUP1 PUSH2 0x2CD3 MSTORE POP DUP1 PUSH2 0x8B8 MSTORE DUP1 PUSH2 0xA83 MSTORE DUP1 PUSH2 0x144A MSTORE DUP1 PUSH2 0x1AC7 MSTORE DUP1 PUSH2 0x2533 MSTORE DUP1 PUSH2 0x269C MSTORE DUP1 PUSH2 0x26E3 MSTORE DUP1 PUSH2 0x27F8 MSTORE DUP1 PUSH2 0x283A MSTORE DUP1 PUSH2 0x29AC MSTORE DUP1 PUSH2 0x2B06 MSTORE DUP1 PUSH2 0x2B48 MSTORE DUP1 PUSH2 0x2C5D MSTORE DUP1 PUSH2 0x2C9F MSTORE POP DUP1 PUSH2 0xAFE MSTORE DUP1 PUSH2 0xCC6 MSTORE DUP1 PUSH2 0xDB3 MSTORE DUP1 PUSH2 0x130A MSTORE DUP1 PUSH2 0x14F5 MSTORE DUP1 PUSH2 0x2183 MSTORE DUP1 PUSH2 0x259E MSTORE DUP1 PUSH2 0x274E MSTORE DUP1 PUSH2 0x28A5 MSTORE DUP1 PUSH2 0x2A17 MSTORE DUP1 PUSH2 0x2BB3 MSTORE DUP1 PUSH2 0x2D0A MSTORE DUP1 PUSH2 0x2EEF MSTORE DUP1 PUSH2 0x2F27 MSTORE POP DUP1 PUSH2 0x135D MSTORE DUP1 PUSH2 0x1610 MSTORE DUP1 PUSH2 0x16DC MSTORE DUP1 PUSH2 0x2264 MSTORE DUP1 PUSH2 0x24E8 MSTORE DUP1 PUSH2 0x2628 MSTORE DUP1 PUSH2 0x2962 MSTORE DUP1 PUSH2 0x2A92 MSTORE POP DUP1 PUSH2 0x8DC MSTORE DUP1 PUSH2 0xF34 MSTORE DUP1 PUSH2 0x15C7 MSTORE DUP1 PUSH2 0x1693 MSTORE DUP1 PUSH2 0x1AFD MSTORE DUP1 PUSH2 0x2203 MSTORE DUP1 PUSH2 0x24A9 MSTORE DUP1 PUSH2 0x25CA MSTORE DUP1 PUSH2 0x2784 MSTORE DUP1 PUSH2 0x2923 MSTORE DUP1 PUSH2 0x2A43 MSTORE DUP1 PUSH2 0x2BE9 MSTORE POP DUP1 PUSH2 0x859 MSTORE POP DUP1 PUSH2 0x1886 MSTORE POP DUP1 PUSH2 0x1862 MSTORE POP DUP1 PUSH2 0xE73 MSTORE POP DUP1 PUSH2 0xFEA MSTORE POP DUP1 PUSH2 0x198C MSTORE POP DUP1 PUSH2 0x19CE MSTORE POP DUP1 PUSH2 0x19AD MSTORE POP DUP1 PUSH2 0xE4F MSTORE POP DUP1 PUSH2 0xDD9 MSTORE POP PUSH2 0x418C PUSH1 0x0 RETURN INVALID PUSH1 0x80 PUSH1 0x40 MSTORE CALLVALUE DUP1 ISZERO PUSH2 0x10 JUMPI PUSH1 0x0 DUP1 REVERT JUMPDEST POP PUSH1 0x4 CALLDATASIZE LT PUSH2 0x253 JUMPI PUSH1 0x0 CALLDATALOAD PUSH1 0xE0 SHR DUP1 PUSH4 0x679AEFCE GT PUSH2 0x146 JUMPI DUP1 PUSH4 0x95D89B41 GT PUSH2 0xC3 JUMPI DUP1 PUSH4 0xD505ACCF GT PUSH2 0x87 JUMPI DUP1 PUSH4 0xD505ACCF EQ PUSH2 0x4B2 JUMPI DUP1 PUSH4 0xD5C096C4 EQ PUSH2 0x4C5 JUMPI DUP1 PUSH4 0xDD62ED3E EQ PUSH2 0x4D8 JUMPI DUP1 PUSH4 0xDE82CD34 EQ PUSH2 0x4EB JUMPI DUP1 PUSH4 0xF174E241 EQ PUSH2 0x4F3 JUMPI DUP1 PUSH4 0xF5431AA8 EQ PUSH2 0x4FB JUMPI PUSH2 0x253 JUMP JUMPDEST DUP1 PUSH4 0x95D89B41 EQ PUSH2 0x469 JUMPI DUP1 PUSH4 0x9F11080E EQ PUSH2 0x471 JUMPI DUP1 PUSH4 0xA457C2D7 EQ PUSH2 0x484 JUMPI DUP1 PUSH4 0xA9059CBB EQ PUSH2 0x497 JUMPI DUP1 PUSH4 0xAAABADC5 EQ PUSH2 0x4AA JUMPI PUSH2 0x253 JUMP JUMPDEST DUP1 PUSH4 0x82687A56 GT PUSH2 0x10A JUMPI DUP1 PUSH4 0x82687A56 EQ PUSH2 0x42B JUMPI DUP1 PUSH4 0x851C1BB3 EQ PUSH2 0x433 JUMPI DUP1 PUSH4 0x87EC6817 EQ PUSH2 0x446 JUMPI DUP1 PUSH4 0x893D20E8 EQ PUSH2 0x459 JUMPI DUP1 PUSH4 0x8D928AF8 EQ PUSH2 0x461 JUMPI PUSH2 0x253 JUMP JUMPDEST DUP1 PUSH4 0x679AEFCE EQ PUSH2 0x3D4 JUMPI DUP1 PUSH4 0x70A08231 EQ PUSH2 0x3DC JUMPI DUP1 PUSH4 0x74F3B009 EQ PUSH2 0x3EF JUMPI DUP1 PUSH4 0x7ECEBE00 EQ PUSH2 0x410 JUMPI DUP1 PUSH4 0x8129FC1C EQ PUSH2 0x423 JUMPI PUSH2 0x253 JUMP JUMPDEST DUP1 PUSH4 0x3644E515 GT PUSH2 0x1D4 JUMPI DUP1 PUSH4 0x4DE046D5 GT PUSH2 0x198 JUMPI DUP1 PUSH4 0x4DE046D5 EQ PUSH2 0x36D JUMPI DUP1 PUSH4 0x50DD6ED9 EQ PUSH2 0x382 JUMPI DUP1 PUSH4 0x55C67628 EQ PUSH2 0x395 JUMPI DUP1 PUSH4 0x6028BFD4 EQ PUSH2 0x39D JUMPI DUP1 PUSH4 0x63FE3B56 EQ PUSH2 0x3BE JUMPI PUSH2 0x253 JUMP JUMPDEST DUP1 PUSH4 0x3644E515 EQ PUSH2 0x32F JUMPI DUP1 PUSH4 0x38E9922E EQ PUSH2 0x337 JUMPI DUP1 PUSH4 0x38FFF2D0 EQ PUSH2 0x34A JUMPI DUP1 PUSH4 0x39509351 EQ PUSH2 0x352 JUMPI DUP1 PUSH4 0x4D64CD74 EQ PUSH2 0x365 JUMPI PUSH2 0x253 JUMP JUMPDEST DUP1 PUSH4 0x18160DDD GT PUSH2 0x21B JUMPI DUP1 PUSH4 0x18160DDD EQ PUSH2 0x2D3 JUMPI DUP1 PUSH4 0x1C0DE051 EQ PUSH2 0x2DB JUMPI DUP1 PUSH4 0x1DD746EA EQ PUSH2 0x2F2 JUMPI DUP1 PUSH4 0x23B872DD EQ PUSH2 0x307 JUMPI DUP1 PUSH4 0x313CE567 EQ PUSH2 0x31A JUMPI PUSH2 0x253 JUMP JUMPDEST DUP1 PUSH4 0x1EC954A EQ PUSH2 0x258 JUMPI DUP1 PUSH4 0x6FDDE03 EQ PUSH2 0x281 JUMPI DUP1 PUSH4 0x95EA7B3 EQ PUSH2 0x296 JUMPI DUP1 PUSH4 0x16B8D6FF EQ PUSH2 0x2B6 JUMPI DUP1 PUSH4 0x16C38B3C EQ PUSH2 0x2BE JUMPI JUMPDEST PUSH1 0x0 DUP1 REVERT JUMPDEST PUSH2 0x26B PUSH2 0x266 CALLDATASIZE PUSH1 0x4 PUSH2 0x3C0F JUMP JUMPDEST PUSH2 0x503 JUMP JUMPDEST PUSH1 0x40 MLOAD PUSH2 0x278 SWAP2 SWAP1 PUSH2 0x3EFC JUMP JUMPDEST PUSH1 0x40 MLOAD DUP1 SWAP2 SUB SWAP1 RETURN JUMPDEST PUSH2 0x289 PUSH2 0x679 JUMP JUMPDEST PUSH1 0x40 MLOAD PUSH2 0x278 SWAP2 SWAP1 PUSH2 0x4098 JUMP JUMPDEST PUSH2 0x2A9 PUSH2 0x2A4 CALLDATASIZE PUSH1 0x4 PUSH2 0x3964 JUMP JUMPDEST PUSH2 0x70F JUMP JUMPDEST PUSH1 0x40 MLOAD PUSH2 0x278 SWAP2 SWAP1 PUSH2 0x3ED9 JUMP JUMPDEST PUSH2 0x26B PUSH2 0x726 JUMP JUMPDEST PUSH2 0x2D1 PUSH2 0x2CC CALLDATASIZE PUSH1 0x4 PUSH2 0x3A5B JUMP JUMPDEST PUSH2 0x74A JUMP JUMPDEST STOP JUMPDEST PUSH2 0x26B PUSH2 0x75E JUMP JUMPDEST PUSH2 0x2E3 PUSH2 0x764 JUMP JUMPDEST PUSH1 0x40 MLOAD PUSH2 0x278 SWAP4 SWAP3 SWAP2 SWAP1 PUSH2 0x3EE4 JUMP JUMPDEST PUSH2 0x2FA PUSH2 0x78D JUMP JUMPDEST PUSH1 0x40 MLOAD PUSH2 0x278 SWAP2 SWAP1 PUSH2 0x3EA1 JUMP JUMPDEST PUSH2 0x2A9 PUSH2 0x315 CALLDATASIZE PUSH1 0x4 PUSH2 0x38AF JUMP JUMPDEST PUSH2 0x79C JUMP JUMPDEST PUSH2 0x322 PUSH2 0x812 JUMP JUMPDEST PUSH1 0x40 MLOAD PUSH2 0x278 SWAP2 SWAP1 PUSH2 0x40D2 JUMP JUMPDEST PUSH2 0x26B PUSH2 0x81B JUMP JUMPDEST PUSH2 0x2D1 PUSH2 0x345 CALLDATASIZE PUSH1 0x4 PUSH2 0x3D2E JUMP JUMPDEST PUSH2 0x825 JUMP JUMPDEST PUSH2 0x26B PUSH2 0x857 JUMP JUMPDEST PUSH2 0x2A9 PUSH2 0x360 CALLDATASIZE PUSH1 0x4 PUSH2 0x3964 JUMP JUMPDEST PUSH2 0x87B JUMP JUMPDEST PUSH2 0x26B PUSH2 0x8B6 JUMP JUMPDEST PUSH2 0x375 PUSH2 0x8DA JUMP JUMPDEST PUSH1 0x40 MLOAD PUSH2 0x278 SWAP2 SWAP1 PUSH2 0x3E8D JUMP JUMPDEST PUSH2 0x2D1 PUSH2 0x390 CALLDATASIZE PUSH1 0x4 PUSH2 0x3B7A JUMP JUMPDEST PUSH2 0x8FE JUMP JUMPDEST PUSH2 0x26B PUSH2 0x91C JUMP JUMPDEST PUSH2 0x3B0 PUSH2 0x3AB CALLDATASIZE PUSH1 0x4 PUSH2 0x3A93 JUMP JUMPDEST PUSH2 0x92D JUMP JUMPDEST PUSH1 0x40 MLOAD PUSH2 0x278 SWAP3 SWAP2 SWAP1 PUSH2 0x40AB JUMP JUMPDEST PUSH2 0x3C6 PUSH2 0x964 JUMP JUMPDEST PUSH1 0x40 MLOAD PUSH2 0x278 SWAP3 SWAP2 SWAP1 PUSH2 0x40C4 JUMP JUMPDEST PUSH2 0x26B PUSH2 0x992 JUMP JUMPDEST PUSH2 0x26B PUSH2 0x3EA CALLDATASIZE PUSH1 0x4 PUSH2 0x385B JUMP JUMPDEST PUSH2 0xB46 JUMP JUMPDEST PUSH2 0x402 PUSH2 0x3FD CALLDATASIZE PUSH1 0x4 PUSH2 0x3A93 JUMP JUMPDEST PUSH2 0xB65 JUMP JUMPDEST PUSH1 0x40 MLOAD PUSH2 0x278 SWAP3 SWAP2 SWAP1 PUSH2 0x3EB4 JUMP JUMPDEST PUSH2 0x26B PUSH2 0x41E CALLDATASIZE PUSH1 0x4 PUSH2 0x385B JUMP JUMPDEST PUSH2 0xBE3 JUMP JUMPDEST PUSH2 0x2D1 PUSH2 0xBFE JUMP JUMPDEST PUSH2 0x26B PUSH2 0xDB1 JUMP JUMPDEST PUSH2 0x26B PUSH2 0x441 CALLDATASIZE PUSH1 0x4 PUSH2 0x3B36 JUMP JUMPDEST PUSH2 0xDD5 JUMP JUMPDEST PUSH2 0x3B0 PUSH2 0x454 CALLDATASIZE PUSH1 0x4 PUSH2 0x3A93 JUMP JUMPDEST PUSH2 0xE27 JUMP JUMPDEST PUSH2 0x375 PUSH2 0xE4D JUMP JUMPDEST PUSH2 0x375 PUSH2 0xE71 JUMP JUMPDEST PUSH2 0x289 PUSH2 0xE95 JUMP JUMPDEST PUSH2 0x2D1 PUSH2 0x47F CALLDATASIZE PUSH1 0x4 PUSH2 0x3D5E JUMP JUMPDEST PUSH2 0xEF6 JUMP JUMPDEST PUSH2 0x2A9 PUSH2 0x492 CALLDATASIZE PUSH1 0x4 PUSH2 0x3964 JUMP JUMPDEST PUSH2 0xF60 JUMP JUMPDEST PUSH2 0x2A9 PUSH2 0x4A5 CALLDATASIZE PUSH1 0x4 PUSH2 0x3964 JUMP JUMPDEST PUSH2 0xF9E JUMP JUMPDEST PUSH2 0x375 PUSH2 0xFAB JUMP JUMPDEST PUSH2 0x2D1 PUSH2 0x4C0 CALLDATASIZE PUSH1 0x4 PUSH2 0x38EF JUMP JUMPDEST PUSH2 0xFB5 JUMP JUMPDEST PUSH2 0x402 PUSH2 0x4D3 CALLDATASIZE PUSH1 0x4 PUSH2 0x3A93 JUMP JUMPDEST PUSH2 0x10FE JUMP JUMPDEST PUSH2 0x26B PUSH2 0x4E6 CALLDATASIZE PUSH1 0x4 PUSH2 0x3877 JUMP JUMPDEST PUSH2 0x122F JUMP JUMPDEST PUSH2 0x26B PUSH2 0x126C JUMP JUMPDEST PUSH2 0x375 PUSH2 0x135B JUMP JUMPDEST PUSH2 0x26B PUSH2 0x137F JUMP JUMPDEST PUSH1 0x0 DUP5 PUSH1 0x80 ADD MLOAD PUSH2 0x530 PUSH2 0x515 PUSH2 0xE71 JUMP JUMPDEST PUSH1 0x1 PUSH1 0x1 PUSH1 0xA0 SHL SUB AND CALLER PUSH1 0x1 PUSH1 0x1 PUSH1 0xA0 SHL SUB AND EQ PUSH1 0xCD PUSH2 0x13DE JUMP JUMPDEST PUSH2 0x545 PUSH2 0x53B PUSH2 0x857 JUMP JUMPDEST DUP3 EQ PUSH2 0x1F4 PUSH2 0x13DE JUMP JUMPDEST PUSH2 0x54D PUSH2 0x13EC JUMP JUMPDEST PUSH2 0x567 PUSH1 0x3 DUP6 LT DUP1 ISZERO PUSH2 0x560 JUMPI POP PUSH1 0x3 DUP5 LT JUMPDEST PUSH1 0x64 PUSH2 0x13DE JUMP JUMPDEST PUSH1 0x60 PUSH2 0x571 PUSH2 0x1401 JUMP JUMPDEST SWAP1 POP PUSH2 0x57D DUP7 DUP3 PUSH2 0x152E JUMP JUMPDEST PUSH1 0x0 DUP1 PUSH2 0x588 PUSH2 0x964 JUMP JUMPDEST SWAP2 POP SWAP2 POP PUSH2 0x594 PUSH2 0x36B2 JUMP JUMPDEST PUSH1 0x40 MLOAD DUP1 PUSH1 0x60 ADD PUSH1 0x40 MSTORE DUP1 PUSH2 0x5A7 PUSH2 0x91C JUMP JUMPDEST DUP2 MSTORE PUSH1 0x20 DUP2 ADD DUP6 SWAP1 MSTORE PUSH1 0x40 ADD DUP4 SWAP1 MSTORE SWAP1 POP PUSH1 0x0 DUP11 MLOAD PUSH1 0x1 DUP2 GT ISZERO PUSH2 0x5C7 JUMPI INVALID JUMPDEST EQ ISZERO PUSH2 0x62B JUMPI PUSH2 0x5EE DUP11 PUSH1 0x60 ADD MLOAD DUP6 DUP11 DUP2 MLOAD DUP2 LT PUSH2 0x5E1 JUMPI INVALID JUMPDEST PUSH1 0x20 MUL PUSH1 0x20 ADD ADD MLOAD PUSH2 0x158F JUMP JUMPDEST PUSH1 0x60 DUP12 ADD MSTORE PUSH1 0x0 PUSH2 0x600 DUP12 DUP12 DUP5 PUSH2 0x159B JUMP JUMPDEST SWAP1 POP PUSH2 0x61F DUP2 DUP7 DUP11 DUP2 MLOAD DUP2 LT PUSH2 0x612 JUMPI INVALID JUMPDEST PUSH1 0x20 MUL PUSH1 0x20 ADD ADD MLOAD PUSH2 0x1662 JUMP JUMPDEST SWAP7 POP POP POP POP POP POP PUSH2 0x670 JUMP JUMPDEST PUSH2 0x63F DUP11 PUSH1 0x60 ADD MLOAD DUP6 DUP10 DUP2 MLOAD DUP2 LT PUSH2 0x5E1 JUMPI INVALID JUMPDEST PUSH1 0x60 DUP12 ADD MSTORE PUSH1 0x0 PUSH2 0x651 DUP12 DUP12 DUP5 PUSH2 0x166E JUMP JUMPDEST SWAP1 POP PUSH2 0x61F DUP2 DUP7 DUP12 DUP2 MLOAD DUP2 LT PUSH2 0x663 JUMPI INVALID JUMPDEST PUSH1 0x20 MUL PUSH1 0x20 ADD ADD MLOAD PUSH2 0x1723 JUMP JUMPDEST POP SWAP5 SWAP4 POP POP POP POP JUMP JUMPDEST PUSH1 0x3 DUP1 SLOAD PUSH1 0x40 DUP1 MLOAD PUSH1 0x20 PUSH1 0x1F PUSH1 0x2 PUSH1 0x0 NOT PUSH2 0x100 PUSH1 0x1 DUP9 AND ISZERO MUL ADD SWAP1 SWAP6 AND SWAP5 SWAP1 SWAP5 DIV SWAP4 DUP5 ADD DUP2 SWAP1 DIV DUP2 MUL DUP3 ADD DUP2 ADD SWAP1 SWAP3 MSTORE DUP3 DUP2 MSTORE PUSH1 0x60 SWAP4 SWAP1 SWAP3 SWAP1 SWAP2 DUP4 ADD DUP3 DUP3 DUP1 ISZERO PUSH2 0x705 JUMPI DUP1 PUSH1 0x1F LT PUSH2 0x6DA JUMPI PUSH2 0x100 DUP1 DUP4 SLOAD DIV MUL DUP4 MSTORE SWAP2 PUSH1 0x20 ADD SWAP2 PUSH2 0x705 JUMP JUMPDEST DUP3 ADD SWAP2 SWAP1 PUSH1 0x0 MSTORE PUSH1 0x20 PUSH1 0x0 KECCAK256 SWAP1 JUMPDEST DUP2 SLOAD DUP2 MSTORE SWAP1 PUSH1 0x1 ADD SWAP1 PUSH1 0x20 ADD DUP1 DUP4 GT PUSH2 0x6E8 JUMPI DUP3 SWAP1 SUB PUSH1 0x1F AND DUP3 ADD SWAP2 JUMPDEST POP POP POP POP POP SWAP1 POP SWAP1 JUMP JUMPDEST PUSH1 0x0 PUSH2 0x71C CALLER DUP5 DUP5 PUSH2 0x172F JUMP JUMPDEST POP PUSH1 0x1 JUMPDEST SWAP3 SWAP2 POP POP JUMP JUMPDEST PUSH32 0x0 SWAP1 JUMP JUMPDEST PUSH2 0x752 PUSH2 0x1797 JUMP JUMPDEST PUSH2 0x75B DUP2 PUSH2 0x17C5 JUMP JUMPDEST POP JUMP JUMPDEST PUSH1 0x2 SLOAD SWAP1 JUMP JUMPDEST PUSH1 0x0 DUP1 PUSH1 0x0 PUSH2 0x771 PUSH2 0x1843 JUMP JUMPDEST ISZERO SWAP3 POP PUSH2 0x77C PUSH2 0x1860 JUMP JUMPDEST SWAP2 POP PUSH2 0x786 PUSH2 0x1884 JUMP JUMPDEST SWAP1 POP SWAP1 SWAP2 SWAP3 JUMP JUMPDEST PUSH1 0x60 PUSH2 0x797 PUSH2 0x1401 JUMP JUMPDEST SWAP1 POP SWAP1 JUMP JUMPDEST PUSH1 0x0 DUP1 PUSH2 0x7A9 DUP6 CALLER PUSH2 0x122F JUMP JUMPDEST SWAP1 POP PUSH2 0x7CD CALLER PUSH1 0x1 PUSH1 0x1 PUSH1 0xA0 SHL SUB DUP8 AND EQ DUP1 PUSH2 0x7C5 JUMPI POP DUP4 DUP3 LT ISZERO JUMPDEST PUSH2 0x19E PUSH2 0x13DE JUMP JUMPDEST PUSH2 0x7D8 DUP6 DUP6 DUP6 PUSH2 0x18A8 JUMP JUMPDEST CALLER PUSH1 0x1 PUSH1 0x1 PUSH1 0xA0 SHL SUB DUP7 AND EQ DUP1 ISZERO SWAP1 PUSH2 0x7F3 JUMPI POP PUSH1 0x0 NOT DUP2 EQ ISZERO JUMPDEST ISZERO PUSH2 0x805 JUMPI PUSH2 0x805 DUP6 CALLER DUP6 DUP5 SUB PUSH2 0x172F JUMP JUMPDEST PUSH1 0x1 SWAP2 POP POP JUMPDEST SWAP4 SWAP3 POP POP POP JUMP JUMPDEST PUSH1 0x5 SLOAD PUSH1 0xFF AND SWAP1 JUMP JUMPDEST PUSH1 0x0 PUSH2 0x797 PUSH2 0x1988 JUMP JUMPDEST PUSH1 0x0 DUP1 PUSH2 0x830 PUSH2 0x964 JUMP JUMPDEST SWAP2 POP SWAP2 POP PUSH2 0x849 PUSH2 0x841 DUP4 DUP4 PUSH2 0x1A25 JUMP JUMPDEST PUSH2 0x14F PUSH2 0x13DE JUMP JUMPDEST PUSH2 0x852 DUP4 PUSH2 0x1B3D JUMP JUMPDEST POP POP POP JUMP JUMPDEST PUSH32 0x0 SWAP1 JUMP JUMPDEST CALLER PUSH1 0x0 DUP2 DUP2 MSTORE PUSH1 0x1 PUSH1 0x20 SWAP1 DUP2 MSTORE PUSH1 0x40 DUP1 DUP4 KECCAK256 PUSH1 0x1 PUSH1 0x1 PUSH1 0xA0 SHL SUB DUP8 AND DUP5 MSTORE SWAP1 SWAP2 MSTORE DUP2 KECCAK256 SLOAD SWAP1 SWAP2 PUSH2 0x71C SWAP2 DUP6 SWAP1 PUSH2 0x8B1 SWAP1 DUP7 PUSH2 0x1B56 JUMP JUMPDEST PUSH2 0x172F JUMP JUMPDEST PUSH32 0x0 SWAP1 JUMP JUMPDEST PUSH32 0x0 SWAP1 JUMP JUMPDEST PUSH2 0x906 PUSH2 0x1797 JUMP JUMPDEST PUSH2 0x90E PUSH2 0x13EC JUMP JUMPDEST PUSH2 0x918 DUP3 DUP3 PUSH2 0x1B68 JUMP JUMPDEST POP POP JUMP JUMPDEST PUSH1 0x8 SLOAD PUSH1 0x0 SWAP1 PUSH2 0x797 SWAP1 PUSH1 0xC0 PUSH2 0x1C2F JUMP JUMPDEST PUSH1 0x0 PUSH1 0x60 PUSH2 0x943 DUP7 MLOAD PUSH2 0x93E PUSH2 0x1C3D JUMP JUMPDEST PUSH2 0x1C42 JUMP JUMPDEST PUSH2 0x958 DUP10 DUP10 DUP10 DUP10 DUP10 DUP10 DUP10 PUSH2 0x1C4F PUSH2 0x1CF3 PUSH2 0x1D54 JUMP JUMPDEST SWAP8 POP SWAP8 SWAP6 POP POP POP POP POP POP JUMP JUMPDEST PUSH1 0x0 DUP1 PUSH1 0x0 PUSH2 0x971 PUSH2 0x1E77 JUMP JUMPDEST SWAP1 POP PUSH2 0x97E DUP2 PUSH1 0x0 PUSH2 0x1E7D JUMP JUMPDEST SWAP3 POP PUSH2 0x98B DUP2 PUSH1 0x60 PUSH2 0x1E7D JUMP JUMPDEST SWAP2 POP POP SWAP1 SWAP2 JUMP JUMPDEST PUSH1 0x0 DUP1 PUSH2 0x99D PUSH2 0x857 JUMP JUMPDEST SWAP1 POP PUSH1 0x60 PUSH2 0x9A9 PUSH2 0xE71 JUMP JUMPDEST PUSH1 0x1 PUSH1 0x1 PUSH1 0xA0 SHL SUB AND PUSH4 0xF94D4668 DUP4 PUSH1 0x40 MLOAD DUP3 PUSH4 0xFFFFFFFF AND PUSH1 0xE0 SHL DUP2 MSTORE PUSH1 0x4 ADD PUSH2 0x9D4 SWAP2 SWAP1 PUSH2 0x3EFC JUMP JUMPDEST PUSH1 0x0 PUSH1 0x40 MLOAD DUP1 DUP4 SUB DUP2 DUP7 DUP1 EXTCODESIZE ISZERO DUP1 ISZERO PUSH2 0x9EC JUMPI PUSH1 0x0 DUP1 REVERT JUMPDEST POP GAS STATICCALL ISZERO DUP1 ISZERO PUSH2 0xA00 JUMPI RETURNDATASIZE PUSH1 0x0 DUP1 RETURNDATACOPY RETURNDATASIZE PUSH1 0x0 REVERT JUMPDEST POP POP POP POP PUSH1 0x40 MLOAD RETURNDATASIZE PUSH1 0x0 DUP3 RETURNDATACOPY PUSH1 0x1F RETURNDATASIZE SWAP1 DUP2 ADD PUSH1 0x1F NOT AND DUP3 ADD PUSH1 0x40 MSTORE PUSH2 0xA28 SWAP2 SWAP1 DUP2 ADD SWAP1 PUSH2 0x398F JUMP JUMPDEST POP SWAP2 POP POP PUSH2 0xA3D DUP2 PUSH2 0xA38 PUSH2 0x1401 JUMP JUMPDEST PUSH2 0x152E JUMP JUMPDEST PUSH1 0x0 DUP1 PUSH2 0xA48 PUSH2 0x964 JUMP JUMPDEST SWAP2 POP SWAP2 POP PUSH2 0xA54 PUSH2 0x36B2 JUMP JUMPDEST PUSH1 0x40 MLOAD DUP1 PUSH1 0x60 ADD PUSH1 0x40 MSTORE DUP1 PUSH2 0xA67 PUSH2 0x91C JUMP JUMPDEST DUP2 MSTORE PUSH1 0x20 ADD DUP5 DUP2 MSTORE PUSH1 0x20 ADD DUP4 DUP2 MSTORE POP SWAP1 POP PUSH1 0x0 PUSH2 0xAF3 PUSH2 0xABA DUP7 PUSH32 0x0 DUP2 MLOAD DUP2 LT PUSH2 0xAAC JUMPI INVALID JUMPDEST PUSH1 0x20 MUL PUSH1 0x20 ADD ADD MLOAD DUP5 PUSH2 0x1E8F JUMP JUMPDEST DUP7 PUSH32 0x0 DUP2 MLOAD DUP2 LT PUSH2 0xAE6 JUMPI INVALID JUMPDEST PUSH1 0x20 MUL PUSH1 0x20 ADD ADD MLOAD PUSH2 0x1EF0 JUMP JUMPDEST SWAP1 POP PUSH2 0xB3B PUSH2 0xB34 DUP7 PUSH32 0x0 DUP2 MLOAD DUP2 LT PUSH2 0xB27 JUMPI INVALID JUMPDEST PUSH1 0x20 MUL PUSH1 0x20 ADD ADD MLOAD PUSH2 0x1EFC JUMP JUMPDEST DUP3 SWAP1 PUSH2 0x1F08 JUMP JUMPDEST SWAP7 POP POP POP POP POP POP POP SWAP1 JUMP JUMPDEST PUSH1 0x1 PUSH1 0x1 PUSH1 0xA0 SHL SUB DUP2 AND PUSH1 0x0 SWAP1 DUP2 MSTORE PUSH1 0x20 DUP2 SWAP1 MSTORE PUSH1 0x40 SWAP1 KECCAK256 SLOAD JUMPDEST SWAP2 SWAP1 POP JUMP JUMPDEST PUSH1 0x60 DUP1 DUP9 PUSH2 0xB74 PUSH2 0x515 PUSH2 0xE71 JUMP JUMPDEST PUSH2 0xB7F PUSH2 0x53B PUSH2 0x857 JUMP JUMPDEST PUSH1 0x60 PUSH2 0xB89 PUSH2 0x1401 JUMP JUMPDEST SWAP1 POP PUSH2 0xB95 DUP9 DUP3 PUSH2 0x152E JUMP JUMPDEST PUSH1 0x0 PUSH1 0x60 DUP1 PUSH2 0xBAA DUP15 DUP15 DUP15 DUP15 DUP15 DUP15 DUP11 DUP16 PUSH2 0x1C4F JUMP JUMPDEST SWAP3 POP SWAP3 POP SWAP3 POP PUSH2 0xBBA DUP14 DUP5 PUSH2 0x1F5F JUMP JUMPDEST PUSH2 0xBC4 DUP3 DUP6 PUSH2 0x1CF3 JUMP JUMPDEST PUSH2 0xBCE DUP2 DUP6 PUSH2 0x1CF3 JUMP JUMPDEST SWAP1 SWAP6 POP SWAP4 POP POP POP JUMPDEST POP SWAP8 POP SWAP8 SWAP6 POP POP POP POP POP POP JUMP JUMPDEST PUSH1 0x1 PUSH1 0x1 PUSH1 0xA0 SHL SUB AND PUSH1 0x0 SWAP1 DUP2 MSTORE PUSH1 0x6 PUSH1 0x20 MSTORE PUSH1 0x40 SWAP1 KECCAK256 SLOAD SWAP1 JUMP JUMPDEST PUSH1 0x0 PUSH2 0xC08 PUSH2 0x857 JUMP JUMPDEST SWAP1 POP PUSH1 0x60 PUSH2 0xC14 PUSH2 0xE71 JUMP JUMPDEST PUSH1 0x1 PUSH1 0x1 PUSH1 0xA0 SHL SUB AND PUSH4 0xF94D4668 DUP4 PUSH1 0x40 MLOAD DUP3 PUSH4 0xFFFFFFFF AND PUSH1 0xE0 SHL DUP2 MSTORE PUSH1 0x4 ADD PUSH2 0xC3F SWAP2 SWAP1 PUSH2 0x3EFC JUMP JUMPDEST PUSH1 0x0 PUSH1 0x40 MLOAD DUP1 DUP4 SUB DUP2 DUP7 DUP1 EXTCODESIZE ISZERO DUP1 ISZERO PUSH2 0xC57 JUMPI PUSH1 0x0 DUP1 REVERT JUMPDEST POP GAS STATICCALL ISZERO DUP1 ISZERO PUSH2 0xC6B JUMPI RETURNDATASIZE PUSH1 0x0 DUP1 RETURNDATACOPY RETURNDATASIZE PUSH1 0x0 REVERT JUMPDEST POP POP POP POP PUSH1 0x40 MLOAD RETURNDATASIZE PUSH1 0x0 DUP3 RETURNDATACOPY PUSH1 0x1F RETURNDATASIZE SWAP1 DUP2 ADD PUSH1 0x1F NOT AND DUP3 ADD PUSH1 0x40 MSTORE PUSH2 0xC93 SWAP2 SWAP1 DUP2 ADD SWAP1 PUSH2 0x398F JUMP JUMPDEST POP POP PUSH1 0x40 DUP1 MLOAD PUSH1 0x3 DUP1 DUP3 MSTORE PUSH1 0x80 DUP3 ADD SWAP1 SWAP3 MSTORE SWAP2 SWAP3 POP PUSH1 0x60 SWAP2 SWAP1 PUSH1 0x20 DUP3 ADD DUP4 DUP1 CALLDATASIZE DUP4 CALLDATACOPY ADD SWAP1 POP POP SWAP1 POP PUSH1 0x1 PUSH1 0x1 PUSH1 0x70 SHL SUB DUP2 PUSH32 0x0 DUP2 MLOAD DUP2 LT PUSH2 0xCEF JUMPI INVALID JUMPDEST PUSH1 0x20 MUL PUSH1 0x20 ADD ADD DUP2 DUP2 MSTORE POP POP PUSH2 0xD03 PUSH2 0x36D3 JUMP JUMPDEST PUSH1 0x40 MLOAD DUP1 PUSH1 0x80 ADD PUSH1 0x40 MSTORE DUP1 PUSH2 0xD17 DUP6 PUSH2 0x1F69 JUMP JUMPDEST DUP2 MSTORE PUSH1 0x20 ADD DUP4 DUP2 MSTORE PUSH1 0x20 ADD PUSH1 0x40 MLOAD DUP1 PUSH1 0x20 ADD PUSH1 0x40 MSTORE DUP1 PUSH1 0x0 DUP2 MSTORE POP DUP2 MSTORE PUSH1 0x20 ADD PUSH1 0x0 ISZERO ISZERO DUP2 MSTORE POP SWAP1 POP PUSH2 0xD48 PUSH2 0xE71 JUMP JUMPDEST PUSH1 0x1 PUSH1 0x1 PUSH1 0xA0 SHL SUB AND PUSH4 0xB95CAC28 DUP6 ADDRESS ADDRESS DUP6 PUSH1 0x40 MLOAD DUP6 PUSH4 0xFFFFFFFF AND PUSH1 0xE0 SHL DUP2 MSTORE PUSH1 0x4 ADD PUSH2 0xD79 SWAP5 SWAP4 SWAP3 SWAP2 SWAP1 PUSH2 0x3F24 JUMP JUMPDEST PUSH1 0x0 PUSH1 0x40 MLOAD DUP1 DUP4 SUB DUP2 PUSH1 0x0 DUP8 DUP1 EXTCODESIZE ISZERO DUP1 ISZERO PUSH2 0xD93 JUMPI PUSH1 0x0 DUP1 REVERT JUMPDEST POP GAS CALL ISZERO DUP1 ISZERO PUSH2 0xDA7 JUMPI RETURNDATASIZE PUSH1 0x0 DUP1 RETURNDATACOPY RETURNDATASIZE PUSH1 0x0 REVERT JUMPDEST POP POP POP POP POP POP POP POP JUMP JUMPDEST PUSH32 0x0 SWAP1 JUMP JUMPDEST PUSH1 0x0 PUSH32 0x0 DUP3 PUSH1 0x40 MLOAD PUSH1 0x20 ADD PUSH2 0xE0A SWAP3 SWAP2 SWAP1 PUSH2 0x3E4A JUMP JUMPDEST PUSH1 0x40 MLOAD PUSH1 0x20 DUP2 DUP4 SUB SUB DUP2 MSTORE SWAP1 PUSH1 0x40 MSTORE DUP1 MLOAD SWAP1 PUSH1 0x20 ADD KECCAK256 SWAP1 POP SWAP2 SWAP1 POP JUMP JUMPDEST PUSH1 0x0 PUSH1 0x60 PUSH2 0xE38 DUP7 MLOAD PUSH2 0x93E PUSH2 0x1C3D JUMP JUMPDEST PUSH2 0x958 DUP10 DUP10 DUP10 DUP10 DUP10 DUP10 DUP10 PUSH2 0x1F6C PUSH2 0x1F8A PUSH2 0x1D54 JUMP JUMPDEST PUSH32 0x0 SWAP1 JUMP JUMPDEST PUSH32 0x0 SWAP1 JUMP JUMPDEST PUSH1 0x4 DUP1 SLOAD PUSH1 0x40 DUP1 MLOAD PUSH1 0x20 PUSH1 0x1F PUSH1 0x2 PUSH1 0x0 NOT PUSH2 0x100 PUSH1 0x1 DUP9 AND ISZERO MUL ADD SWAP1 SWAP6 AND SWAP5 SWAP1 SWAP5 DIV SWAP4 DUP5 ADD DUP2 SWAP1 DIV DUP2 MUL DUP3 ADD DUP2 ADD SWAP1 SWAP3 MSTORE DUP3 DUP2 MSTORE PUSH1 0x60 SWAP4 SWAP1 SWAP3 SWAP1 SWAP2 DUP4 ADD DUP3 DUP3 DUP1 ISZERO PUSH2 0x705 JUMPI DUP1 PUSH1 0x1F LT PUSH2 0x6DA JUMPI PUSH2 0x100 DUP1 DUP4 SLOAD DIV MUL DUP4 MSTORE SWAP2 PUSH1 0x20 ADD SWAP2 PUSH2 0x705 JUMP JUMPDEST PUSH2 0xEFE PUSH2 0x1797 JUMP JUMPDEST PUSH1 0x0 DUP1 PUSH2 0xF09 PUSH2 0x964 JUMP JUMPDEST SWAP2 POP SWAP2 POP PUSH2 0xF1A PUSH2 0x841 DUP4 DUP4 PUSH2 0x1A25 JUMP JUMPDEST PUSH2 0xF2F PUSH2 0xF27 DUP6 DUP6 PUSH2 0x1A25 JUMP JUMPDEST PUSH2 0x157 PUSH2 0x13DE JUMP JUMPDEST PUSH2 0xF5A PUSH32 0x0 DUP6 DUP6 PUSH2 0x1FEB JUMP JUMPDEST POP POP POP POP JUMP JUMPDEST PUSH1 0x0 DUP1 PUSH2 0xF6D CALLER DUP6 PUSH2 0x122F JUMP JUMPDEST SWAP1 POP DUP1 DUP4 LT PUSH2 0xF87 JUMPI PUSH2 0xF82 CALLER DUP6 PUSH1 0x0 PUSH2 0x172F JUMP JUMPDEST PUSH2 0xF94 JUMP JUMPDEST PUSH2 0xF94 CALLER DUP6 DUP6 DUP5 SUB PUSH2 0x172F JUMP JUMPDEST POP PUSH1 0x1 SWAP4 SWAP3 POP POP POP JUMP JUMPDEST PUSH1 0x0 PUSH2 0x71C CALLER DUP5 DUP5 PUSH2 0x18A8 JUMP JUMPDEST PUSH1 0x0 PUSH2 0x797 PUSH2 0x207C JUMP JUMPDEST PUSH2 0xFC3 DUP5 TIMESTAMP GT ISZERO PUSH1 0xD1 PUSH2 0x13DE JUMP JUMPDEST PUSH1 0x1 PUSH1 0x1 PUSH1 0xA0 SHL SUB DUP8 AND PUSH1 0x0 SWAP1 DUP2 MSTORE PUSH1 0x6 PUSH1 0x20 SWAP1 DUP2 MSTORE PUSH1 0x40 DUP1 DUP4 KECCAK256 SLOAD SWAP1 MLOAD SWAP1 SWAP3 SWAP2 PUSH2 0x101A SWAP2 PUSH32 0x0 SWAP2 DUP13 SWAP2 DUP13 SWAP2 DUP13 SWAP2 DUP9 SWAP2 DUP14 SWAP2 ADD PUSH2 0x3FEA JUMP JUMPDEST PUSH1 0x40 MLOAD PUSH1 0x20 DUP2 DUP4 SUB SUB DUP2 MSTORE SWAP1 PUSH1 0x40 MSTORE DUP1 MLOAD SWAP1 PUSH1 0x20 ADD KECCAK256 SWAP1 POP PUSH1 0x0 PUSH2 0x103D DUP3 PUSH2 0x20F6 JUMP JUMPDEST SWAP1 POP PUSH1 0x0 PUSH1 0x1 DUP3 DUP9 DUP9 DUP9 PUSH1 0x40 MLOAD PUSH1 0x0 DUP2 MSTORE PUSH1 0x20 ADD PUSH1 0x40 MSTORE PUSH1 0x40 MLOAD PUSH2 0x1064 SWAP5 SWAP4 SWAP3 SWAP2 SWAP1 PUSH2 0x407A JUMP JUMPDEST PUSH1 0x20 PUSH1 0x40 MLOAD PUSH1 0x20 DUP2 SUB SWAP1 DUP1 DUP5 SUB SWAP1 DUP6 GAS STATICCALL ISZERO DUP1 ISZERO PUSH2 0x1086 JUMPI RETURNDATASIZE PUSH1 0x0 DUP1 RETURNDATACOPY RETURNDATASIZE PUSH1 0x0 REVERT JUMPDEST POP POP PUSH1 0x40 MLOAD PUSH1 0x1F NOT ADD MLOAD SWAP2 POP PUSH2 0x10C8 SWAP1 POP PUSH1 0x1 PUSH1 0x1 PUSH1 0xA0 SHL SUB DUP3 AND ISZERO DUP1 ISZERO SWAP1 PUSH2 0x10C0 JUMPI POP DUP12 PUSH1 0x1 PUSH1 0x1 PUSH1 0xA0 SHL SUB AND DUP3 PUSH1 0x1 PUSH1 0x1 PUSH1 0xA0 SHL SUB AND EQ JUMPDEST PUSH2 0x1F8 PUSH2 0x13DE JUMP JUMPDEST PUSH1 0x1 PUSH1 0x1 PUSH1 0xA0 SHL SUB DUP12 AND PUSH1 0x0 SWAP1 DUP2 MSTORE PUSH1 0x6 PUSH1 0x20 MSTORE PUSH1 0x40 SWAP1 KECCAK256 PUSH1 0x1 DUP6 ADD SWAP1 SSTORE PUSH2 0x10F1 DUP12 DUP12 DUP12 PUSH2 0x172F JUMP JUMPDEST POP POP POP POP POP POP POP POP POP POP POP JUMP JUMPDEST PUSH1 0x60 DUP1 DUP9 PUSH2 0x110D PUSH2 0x515 PUSH2 0xE71 JUMP JUMPDEST PUSH2 0x1118 PUSH2 0x53B PUSH2 0x857 JUMP JUMPDEST PUSH1 0x60 PUSH2 0x1122 PUSH2 0x1401 JUMP JUMPDEST SWAP1 POP PUSH2 0x112C PUSH2 0x75E JUMP JUMPDEST PUSH2 0x11DF JUMPI PUSH1 0x0 PUSH1 0x60 PUSH2 0x1141 DUP14 DUP14 DUP14 DUP7 DUP12 PUSH2 0x2112 JUMP JUMPDEST SWAP2 POP SWAP2 POP PUSH2 0x115A PUSH2 0x1150 PUSH2 0x21C5 JUMP JUMPDEST DUP4 LT ISZERO PUSH1 0xCC PUSH2 0x13DE JUMP JUMPDEST PUSH2 0x116C PUSH1 0x0 PUSH2 0x1167 PUSH2 0x21C5 JUMP JUMPDEST PUSH2 0x21CA JUMP JUMPDEST PUSH2 0x117F DUP12 PUSH2 0x1178 PUSH2 0x21C5 JUMP JUMPDEST DUP5 SUB PUSH2 0x21CA JUMP JUMPDEST PUSH2 0x1189 DUP2 DUP5 PUSH2 0x1F8A JUMP JUMPDEST DUP1 PUSH2 0x1192 PUSH2 0x1C3D JUMP JUMPDEST PUSH8 0xFFFFFFFFFFFFFFFF DUP2 GT DUP1 ISZERO PUSH2 0x11A8 JUMPI PUSH1 0x0 DUP1 REVERT JUMPDEST POP PUSH1 0x40 MLOAD SWAP1 DUP1 DUP3 MSTORE DUP1 PUSH1 0x20 MUL PUSH1 0x20 ADD DUP3 ADD PUSH1 0x40 MSTORE DUP1 ISZERO PUSH2 0x11D2 JUMPI DUP2 PUSH1 0x20 ADD PUSH1 0x20 DUP3 MUL DUP1 CALLDATASIZE DUP4 CALLDATACOPY ADD SWAP1 POP JUMPDEST POP SWAP6 POP SWAP6 POP POP POP POP PUSH2 0xBD6 JUMP JUMPDEST PUSH2 0x11E9 DUP9 DUP3 PUSH2 0x152E JUMP JUMPDEST PUSH1 0x0 PUSH1 0x60 DUP1 PUSH2 0x11FE DUP15 DUP15 DUP15 DUP15 DUP15 DUP15 DUP11 DUP16 PUSH2 0x1F6C JUMP JUMPDEST SWAP3 POP SWAP3 POP SWAP3 POP PUSH2 0x120E DUP13 DUP5 PUSH2 0x21CA JUMP JUMPDEST PUSH2 0x1218 DUP3 DUP6 PUSH2 0x1F8A JUMP JUMPDEST PUSH2 0x1222 DUP2 DUP6 PUSH2 0x1CF3 JUMP JUMPDEST SWAP1 SWAP6 POP SWAP4 POP PUSH2 0xBD6 SWAP2 POP POP JUMP JUMPDEST PUSH1 0x0 PUSH2 0x1239 PUSH2 0xE71 JUMP JUMPDEST PUSH1 0x1 PUSH1 0x1 PUSH1 0xA0 SHL SUB AND DUP3 PUSH1 0x1 PUSH1 0x1 PUSH1 0xA0 SHL SUB AND EQ ISZERO PUSH2 0x125B JUMPI POP PUSH1 0x0 NOT PUSH2 0x720 JUMP JUMPDEST PUSH2 0x1265 DUP4 DUP4 PUSH2 0x21D4 JUMP JUMPDEST SWAP1 POP PUSH2 0x720 JUMP JUMPDEST PUSH1 0x0 PUSH1 0x60 PUSH2 0x1278 PUSH2 0xE71 JUMP JUMPDEST PUSH1 0x1 PUSH1 0x1 PUSH1 0xA0 SHL SUB AND PUSH4 0xF94D4668 PUSH2 0x128E PUSH2 0x857 JUMP JUMPDEST PUSH1 0x40 MLOAD DUP3 PUSH4 0xFFFFFFFF AND PUSH1 0xE0 SHL DUP2 MSTORE PUSH1 0x4 ADD PUSH2 0x12AA SWAP2 SWAP1 PUSH2 0x3EFC JUMP JUMPDEST PUSH1 0x0 PUSH1 0x40 MLOAD DUP1 DUP4 SUB DUP2 DUP7 DUP1 EXTCODESIZE ISZERO DUP1 ISZERO PUSH2 0x12C2 JUMPI PUSH1 0x0 DUP1 REVERT JUMPDEST POP GAS STATICCALL ISZERO DUP1 ISZERO PUSH2 0x12D6 JUMPI RETURNDATASIZE PUSH1 0x0 DUP1 RETURNDATACOPY RETURNDATASIZE PUSH1 0x0 REVERT JUMPDEST POP POP POP POP PUSH1 0x40 MLOAD RETURNDATASIZE PUSH1 0x0 DUP3 RETURNDATACOPY PUSH1 0x1F RETURNDATASIZE SWAP1 DUP2 ADD PUSH1 0x1F NOT AND DUP3 ADD PUSH1 0x40 MSTORE PUSH2 0x12FE SWAP2 SWAP1 DUP2 ADD SWAP1 PUSH2 0x398F JUMP JUMPDEST POP SWAP2 POP POP PUSH1 0x0 PUSH2 0x1349 DUP3 PUSH32 0x0 DUP2 MLOAD DUP2 LT PUSH2 0x1333 JUMPI INVALID JUMPDEST PUSH1 0x20 MUL PUSH1 0x20 ADD ADD MLOAD PUSH2 0x1344 ADDRESS PUSH2 0x21FF JUMP JUMPDEST PUSH2 0x158F JUMP JUMPDEST SWAP1 POP PUSH2 0x1354 DUP2 PUSH2 0x22D9 JUMP JUMPDEST SWAP3 POP POP POP SWAP1 JUMP JUMPDEST PUSH32 0x0 SWAP1 JUMP JUMPDEST PUSH1 0x0 PUSH2 0x797 PUSH2 0x22ED JUMP JUMPDEST DUP1 PUSH2 0x918 DUP2 PUSH2 0x23A0 JUMP JUMPDEST PUSH8 0xFFFFFFFFFFFFFFFF DUP2 SHL NOT SWAP3 SWAP1 SWAP3 AND SWAP2 SHL OR SWAP1 JUMP JUMPDEST PUSH1 0x0 PUSH2 0x13B9 DUP4 DUP4 GT ISZERO PUSH1 0x1 PUSH2 0x13DE JUMP JUMPDEST POP SWAP1 SUB SWAP1 JUMP JUMPDEST SHL SWAP1 JUMP JUMPDEST PUSH1 0x1 PUSH1 0x1 PUSH1 0xC0 SHL SUB DUP3 DUP2 AND DUP3 SHL SWAP1 DUP3 SHL NOT DUP5 AND OR SWAP4 SWAP3 POP POP POP JUMP JUMPDEST DUP2 PUSH2 0x918 JUMPI PUSH2 0x918 DUP2 PUSH2 0x2419 JUMP JUMPDEST PUSH2 0x13FF PUSH2 0x13F7 PUSH2 0x1843 JUMP JUMPDEST PUSH2 0x192 PUSH2 0x13DE JUMP JUMPDEST JUMP JUMPDEST PUSH1 0x40 DUP1 MLOAD PUSH1 0x3 DUP1 DUP3 MSTORE PUSH1 0x80 DUP3 ADD SWAP1 SWAP3 MSTORE PUSH1 0x60 SWAP2 DUP3 SWAP2 SWAP1 PUSH1 0x20 DUP3 ADD DUP4 DUP1 CALLDATASIZE DUP4 CALLDATACOPY ADD SWAP1 POP POP SWAP1 POP PUSH32 0x0 DUP2 PUSH32 0x0 DUP2 MLOAD DUP2 LT PUSH2 0x1473 JUMPI INVALID JUMPDEST PUSH1 0x20 MUL PUSH1 0x20 ADD ADD DUP2 DUP2 MSTORE POP POP PUSH2 0x14B1 PUSH2 0x148A PUSH2 0x22ED JUMP JUMPDEST PUSH32 0x0 SWAP1 PUSH2 0x246C JUMP JUMPDEST DUP2 PUSH32 0x0 DUP2 MLOAD DUP2 LT PUSH2 0x14DD JUMPI INVALID JUMPDEST PUSH1 0x20 MUL PUSH1 0x20 ADD ADD DUP2 DUP2 MSTORE POP POP PUSH8 0xDE0B6B3A7640000 DUP2 PUSH32 0x0 DUP2 MLOAD DUP2 LT PUSH2 0x151E JUMPI INVALID JUMPDEST PUSH1 0x20 SWAP1 DUP2 MUL SWAP2 SWAP1 SWAP2 ADD ADD MSTORE SWAP1 POP SWAP1 JUMP JUMPDEST PUSH1 0x0 JUMPDEST PUSH2 0x1539 PUSH2 0x1C3D JUMP JUMPDEST DUP2 LT ISZERO PUSH2 0x852 JUMPI PUSH2 0x1570 DUP4 DUP3 DUP2 MLOAD DUP2 LT PUSH2 0x154F JUMPI INVALID JUMPDEST PUSH1 0x20 MUL PUSH1 0x20 ADD ADD MLOAD DUP4 DUP4 DUP2 MLOAD DUP2 LT PUSH2 0x1563 JUMPI INVALID JUMPDEST PUSH1 0x20 MUL PUSH1 0x20 ADD ADD MLOAD PUSH2 0x246C JUMP JUMPDEST DUP4 DUP3 DUP2 MLOAD DUP2 LT PUSH2 0x157C JUMPI INVALID JUMPDEST PUSH1 0x20 SWAP1 DUP2 MUL SWAP2 SWAP1 SWAP2 ADD ADD MSTORE PUSH1 0x1 ADD PUSH2 0x1531 JUMP JUMPDEST PUSH1 0x0 PUSH2 0x80B DUP4 DUP4 PUSH2 0x246C JUMP JUMPDEST PUSH1 0x20 DUP4 ADD MLOAD PUSH1 0x0 SWAP1 PUSH1 0x1 PUSH1 0x1 PUSH1 0xA0 SHL SUB AND ADDRESS EQ ISZERO PUSH2 0x15C5 JUMPI PUSH2 0x15BE DUP5 DUP5 DUP5 PUSH2 0x24A2 JUMP JUMPDEST SWAP1 POP PUSH2 0x80B JUMP JUMPDEST PUSH32 0x0 PUSH1 0x1 PUSH1 0x1 PUSH1 0xA0 SHL SUB AND DUP5 PUSH1 0x20 ADD MLOAD PUSH1 0x1 PUSH1 0x1 PUSH1 0xA0 SHL SUB AND EQ ISZERO PUSH2 0x160E JUMPI PUSH2 0x15BE DUP5 DUP5 DUP5 PUSH2 0x2621 JUMP JUMPDEST PUSH32 0x0 PUSH1 0x1 PUSH1 0x1 PUSH1 0xA0 SHL SUB AND DUP5 PUSH1 0x20 ADD MLOAD PUSH1 0x1 PUSH1 0x1 PUSH1 0xA0 SHL SUB AND EQ ISZERO PUSH2 0x1657 JUMPI PUSH2 0x15BE DUP5 DUP5 DUP5 PUSH2 0x277D JUMP JUMPDEST PUSH2 0x80B PUSH2 0x135 PUSH2 0x2419 JUMP JUMPDEST PUSH1 0x0 PUSH2 0x80B DUP4 DUP4 PUSH2 0x28D4 JUMP JUMPDEST PUSH1 0x40 DUP4 ADD MLOAD PUSH1 0x0 SWAP1 PUSH1 0x1 PUSH1 0x1 PUSH1 0xA0 SHL SUB AND ADDRESS EQ ISZERO PUSH2 0x1691 JUMPI PUSH2 0x15BE DUP5 DUP5 DUP5 PUSH2 0x291C JUMP JUMPDEST PUSH32 0x0 PUSH1 0x1 PUSH1 0x1 PUSH1 0xA0 SHL SUB AND DUP5 PUSH1 0x40 ADD MLOAD PUSH1 0x1 PUSH1 0x1 PUSH1 0xA0 SHL SUB AND EQ ISZERO PUSH2 0x16DA JUMPI PUSH2 0x15BE DUP5 DUP5 DUP5 PUSH2 0x2A8B JUMP JUMPDEST PUSH32 0x0 PUSH1 0x1 PUSH1 0x1 PUSH1 0xA0 SHL SUB AND DUP5 PUSH1 0x40 ADD MLOAD PUSH1 0x1 PUSH1 0x1 PUSH1 0xA0 SHL SUB AND EQ ISZERO PUSH2 0x1657 JUMPI PUSH2 0x15BE DUP5 DUP5 DUP5 PUSH2 0x2BE2 JUMP JUMPDEST PUSH1 0x0 PUSH2 0x80B DUP4 DUP4 PUSH2 0x1F08 JUMP JUMPDEST PUSH1 0x1 PUSH1 0x1 PUSH1 0xA0 SHL SUB DUP1 DUP5 AND PUSH1 0x0 DUP2 DUP2 MSTORE PUSH1 0x1 PUSH1 0x20 SWAP1 DUP2 MSTORE PUSH1 0x40 DUP1 DUP4 KECCAK256 SWAP5 DUP8 AND DUP1 DUP5 MSTORE SWAP5 SWAP1 SWAP2 MSTORE SWAP1 DUP2 SWAP1 KECCAK256 DUP5 SWAP1 SSTORE MLOAD PUSH32 0x8C5BE1E5EBEC7D5BD14F71427D1E84F3DD0314C0F7B2291E5B200AC8C7C3B925 SWAP1 PUSH2 0x178A SWAP1 DUP6 SWAP1 PUSH2 0x3EFC JUMP JUMPDEST PUSH1 0x40 MLOAD DUP1 SWAP2 SUB SWAP1 LOG3 POP POP POP JUMP JUMPDEST PUSH1 0x0 PUSH2 0x17AE PUSH1 0x0 CALLDATALOAD PUSH1 0x1 PUSH1 0x1 PUSH1 0xE0 SHL SUB NOT AND PUSH2 0xDD5 JUMP JUMPDEST SWAP1 POP PUSH2 0x75B PUSH2 0x17BD DUP3 CALLER PUSH2 0x2D39 JUMP JUMPDEST PUSH2 0x191 PUSH2 0x13DE JUMP JUMPDEST DUP1 ISZERO PUSH2 0x17E5 JUMPI PUSH2 0x17E0 PUSH2 0x17D6 PUSH2 0x1860 JUMP JUMPDEST TIMESTAMP LT PUSH2 0x193 PUSH2 0x13DE JUMP JUMPDEST PUSH2 0x17FA JUMP JUMPDEST PUSH2 0x17FA PUSH2 0x17F0 PUSH2 0x1884 JUMP JUMPDEST TIMESTAMP LT PUSH2 0x1A9 PUSH2 0x13DE JUMP JUMPDEST PUSH1 0x7 DUP1 SLOAD PUSH1 0xFF NOT AND DUP3 ISZERO ISZERO OR SWAP1 SSTORE PUSH1 0x40 MLOAD PUSH32 0x9E3A5E37224532DEA67B89FACE185703738A228A6E8A23DEE546960180D3BE64 SWAP1 PUSH2 0x1838 SWAP1 DUP4 SWAP1 PUSH2 0x3ED9 JUMP JUMPDEST PUSH1 0x40 MLOAD DUP1 SWAP2 SUB SWAP1 LOG1 POP JUMP JUMPDEST PUSH1 0x0 PUSH2 0x184D PUSH2 0x1884 JUMP JUMPDEST TIMESTAMP GT DUP1 PUSH2 0x797 JUMPI POP POP PUSH1 0x7 SLOAD PUSH1 0xFF AND ISZERO SWAP1 JUMP JUMPDEST PUSH32 0x0 SWAP1 JUMP JUMPDEST PUSH32 0x0 SWAP1 JUMP JUMPDEST PUSH2 0x18BF PUSH1 0x1 PUSH1 0x1 PUSH1 0xA0 SHL SUB DUP5 AND ISZERO ISZERO PUSH2 0x198 PUSH2 0x13DE JUMP JUMPDEST PUSH2 0x18D6 PUSH1 0x1 PUSH1 0x1 PUSH1 0xA0 SHL SUB DUP4 AND ISZERO ISZERO PUSH2 0x199 PUSH2 0x13DE JUMP JUMPDEST PUSH2 0x18E1 DUP4 DUP4 DUP4 PUSH2 0x852 JUMP JUMPDEST PUSH1 0x1 PUSH1 0x1 PUSH1 0xA0 SHL SUB DUP4 AND PUSH1 0x0 SWAP1 DUP2 MSTORE PUSH1 0x20 DUP2 SWAP1 MSTORE PUSH1 0x40 SWAP1 KECCAK256 SLOAD PUSH2 0x1907 SWAP1 DUP3 PUSH2 0x1A0 PUSH2 0x2E22 JUMP JUMPDEST PUSH1 0x1 PUSH1 0x1 PUSH1 0xA0 SHL SUB DUP1 DUP6 AND PUSH1 0x0 SWAP1 DUP2 MSTORE PUSH1 0x20 DUP2 SWAP1 MSTORE PUSH1 0x40 DUP1 DUP3 KECCAK256 SWAP4 SWAP1 SWAP4 SSTORE SWAP1 DUP5 AND DUP2 MSTORE KECCAK256 SLOAD PUSH2 0x1936 SWAP1 DUP3 PUSH2 0x1B56 JUMP JUMPDEST PUSH1 0x1 PUSH1 0x1 PUSH1 0xA0 SHL SUB DUP1 DUP5 AND PUSH1 0x0 DUP2 DUP2 MSTORE PUSH1 0x20 DUP2 SWAP1 MSTORE PUSH1 0x40 SWAP1 DUP2 SWAP1 KECCAK256 SWAP4 SWAP1 SWAP4 SSTORE SWAP2 MLOAD SWAP1 DUP6 AND SWAP1 PUSH32 0xDDF252AD1BE2C89B69C2B068FC378DAA952BA7F163C4A11628F55A4DF523B3EF SWAP1 PUSH2 0x178A SWAP1 DUP6 SWAP1 PUSH2 0x3EFC JUMP JUMPDEST PUSH1 0x0 PUSH32 0x0 PUSH32 0x0 PUSH32 0x0 PUSH2 0x19F5 PUSH2 0x2E38 JUMP JUMPDEST ADDRESS PUSH1 0x40 MLOAD PUSH1 0x20 ADD PUSH2 0x1A0A SWAP6 SWAP5 SWAP4 SWAP3 SWAP2 SWAP1 PUSH2 0x401E JUMP JUMPDEST PUSH1 0x40 MLOAD PUSH1 0x20 DUP2 DUP4 SUB SUB DUP2 MSTORE SWAP1 PUSH1 0x40 MSTORE DUP1 MLOAD SWAP1 PUSH1 0x20 ADD KECCAK256 SWAP1 POP SWAP1 JUMP JUMPDEST PUSH1 0x0 DUP1 PUSH2 0x1A30 PUSH2 0x857 JUMP JUMPDEST SWAP1 POP PUSH1 0x60 PUSH2 0x1A3C PUSH2 0xE71 JUMP JUMPDEST PUSH1 0x1 PUSH1 0x1 PUSH1 0xA0 SHL SUB AND PUSH4 0xF94D4668 DUP4 PUSH1 0x40 MLOAD DUP3 PUSH4 0xFFFFFFFF AND PUSH1 0xE0 SHL DUP2 MSTORE PUSH1 0x4 ADD PUSH2 0x1A67 SWAP2 SWAP1 PUSH2 0x3EFC JUMP JUMPDEST PUSH1 0x0 PUSH1 0x40 MLOAD DUP1 DUP4 SUB DUP2 DUP7 DUP1 EXTCODESIZE ISZERO DUP1 ISZERO PUSH2 0x1A7F JUMPI PUSH1 0x0 DUP1 REVERT JUMPDEST POP GAS STATICCALL ISZERO DUP1 ISZERO PUSH2 0x1A93 JUMPI RETURNDATASIZE PUSH1 0x0 DUP1 RETURNDATACOPY RETURNDATASIZE PUSH1 0x0 REVERT JUMPDEST POP POP POP POP PUSH1 0x40 MLOAD RETURNDATASIZE PUSH1 0x0 DUP3 RETURNDATACOPY PUSH1 0x1F RETURNDATASIZE SWAP1 DUP2 ADD PUSH1 0x1F NOT AND DUP3 ADD PUSH1 0x40 MSTORE PUSH2 0x1ABB SWAP2 SWAP1 DUP2 ADD SWAP1 PUSH2 0x398F JUMP JUMPDEST POP SWAP2 POP POP PUSH1 0x0 PUSH2 0x1B21 DUP3 PUSH32 0x0 DUP2 MLOAD DUP2 LT PUSH2 0x1AF0 JUMPI INVALID JUMPDEST PUSH1 0x20 MUL PUSH1 0x20 ADD ADD MLOAD PUSH2 0x1344 PUSH32 0x0 PUSH2 0x21FF JUMP JUMPDEST SWAP1 POP DUP6 DUP2 LT ISZERO DUP1 ISZERO PUSH2 0x1B33 JUMPI POP DUP5 DUP2 GT ISZERO JUMPDEST SWAP7 SWAP6 POP POP POP POP POP POP JUMP JUMPDEST PUSH2 0x1B45 PUSH2 0x1797 JUMP JUMPDEST PUSH2 0x1B4D PUSH2 0x13EC JUMP JUMPDEST PUSH2 0x75B DUP2 PUSH2 0x2E3C JUMP JUMPDEST PUSH1 0x0 DUP3 DUP3 ADD PUSH2 0x80B DUP5 DUP3 LT ISZERO DUP4 PUSH2 0x13DE JUMP JUMPDEST PUSH1 0x0 PUSH2 0x1B72 PUSH2 0x857 JUMP JUMPDEST SWAP1 POP PUSH1 0x0 PUSH2 0x1B7E PUSH2 0xE71 JUMP JUMPDEST PUSH1 0x1 PUSH1 0x1 PUSH1 0xA0 SHL SUB AND PUSH4 0xB05F8E48 DUP4 DUP7 PUSH1 0x40 MLOAD DUP4 PUSH4 0xFFFFFFFF AND PUSH1 0xE0 SHL DUP2 MSTORE PUSH1 0x4 ADD PUSH2 0x1BAB SWAP3 SWAP2 SWAP1 PUSH2 0x4063 JUMP JUMPDEST PUSH1 0x80 PUSH1 0x40 MLOAD DUP1 DUP4 SUB DUP2 DUP7 DUP1 EXTCODESIZE ISZERO DUP1 ISZERO PUSH2 0x1BC3 JUMPI PUSH1 0x0 DUP1 REVERT JUMPDEST POP GAS STATICCALL ISZERO DUP1 ISZERO PUSH2 0x1BD7 JUMPI RETURNDATASIZE PUSH1 0x0 DUP1 RETURNDATACOPY RETURNDATASIZE PUSH1 0x0 REVERT JUMPDEST POP POP POP POP PUSH1 0x40 MLOAD RETURNDATASIZE PUSH1 0x1F NOT PUSH1 0x1F DUP3 ADD AND DUP3 ADD DUP1 PUSH1 0x40 MSTORE POP DUP2 ADD SWAP1 PUSH2 0x1BFB SWAP2 SWAP1 PUSH2 0x3D7F JUMP JUMPDEST PUSH1 0x40 MLOAD PUSH4 0x639CDB5 PUSH1 0xE2 SHL DUP2 MSTORE SWAP1 SWAP5 POP PUSH1 0x1 PUSH1 0x1 PUSH1 0xA0 SHL SUB DUP6 AND SWAP4 POP PUSH4 0x18E736D4 SWAP3 POP PUSH2 0xD79 SWAP2 POP DUP6 SWAP1 DUP8 SWAP1 PUSH1 0x4 ADD PUSH2 0x404A JUMP JUMPDEST SHR PUSH8 0xFFFFFFFFFFFFFFFF AND SWAP1 JUMP JUMPDEST PUSH1 0x3 SWAP1 JUMP JUMPDEST PUSH2 0x918 DUP2 DUP4 EQ PUSH1 0x67 PUSH2 0x13DE JUMP JUMPDEST PUSH1 0x0 PUSH1 0x60 DUP1 PUSH1 0x0 PUSH2 0x1C5F DUP6 PUSH2 0x2EA7 JUMP JUMPDEST SWAP1 POP PUSH1 0x0 DUP2 DUP1 ISZERO PUSH2 0x1C6C JUMPI INVALID JUMPDEST EQ PUSH2 0x1C81 JUMPI PUSH2 0x1C7C PUSH2 0x14E PUSH2 0x2419 JUMP JUMPDEST PUSH2 0x1CE4 JUMP JUMPDEST PUSH2 0x1C89 PUSH2 0x2EBD JUMP JUMPDEST PUSH2 0x1C93 DUP10 DUP7 PUSH2 0x2ED1 JUMP JUMPDEST SWAP1 SWAP5 POP SWAP3 POP PUSH2 0x1CA0 PUSH2 0x1C3D JUMP JUMPDEST PUSH8 0xFFFFFFFFFFFFFFFF DUP2 GT DUP1 ISZERO PUSH2 0x1CB6 JUMPI PUSH1 0x0 DUP1 REVERT JUMPDEST POP PUSH1 0x40 MLOAD SWAP1 DUP1 DUP3 MSTORE DUP1 PUSH1 0x20 MUL PUSH1 0x20 ADD DUP3 ADD PUSH1 0x40 MSTORE DUP1 ISZERO PUSH2 0x1CE0 JUMPI DUP2 PUSH1 0x20 ADD PUSH1 0x20 DUP3 MUL DUP1 CALLDATASIZE DUP4 CALLDATACOPY ADD SWAP1 POP JUMPDEST POP SWAP2 POP JUMPDEST POP SWAP9 POP SWAP9 POP SWAP9 SWAP6 POP POP POP POP POP POP JUMP JUMPDEST PUSH1 0x0 JUMPDEST PUSH2 0x1CFE PUSH2 0x1C3D JUMP JUMPDEST DUP2 LT ISZERO PUSH2 0x852 JUMPI PUSH2 0x1D35 DUP4 DUP3 DUP2 MLOAD DUP2 LT PUSH2 0x1D14 JUMPI INVALID JUMPDEST PUSH1 0x20 MUL PUSH1 0x20 ADD ADD MLOAD DUP4 DUP4 DUP2 MLOAD DUP2 LT PUSH2 0x1D28 JUMPI INVALID JUMPDEST PUSH1 0x20 MUL PUSH1 0x20 ADD ADD MLOAD PUSH2 0x28D4 JUMP JUMPDEST DUP4 DUP3 DUP2 MLOAD DUP2 LT PUSH2 0x1D41 JUMPI INVALID JUMPDEST PUSH1 0x20 SWAP1 DUP2 MUL SWAP2 SWAP1 SWAP2 ADD ADD MSTORE PUSH1 0x1 ADD PUSH2 0x1CF6 JUMP JUMPDEST CALLER ADDRESS EQ PUSH2 0x1E12 JUMPI PUSH1 0x0 ADDRESS PUSH1 0x1 PUSH1 0x1 PUSH1 0xA0 SHL SUB AND PUSH1 0x0 CALLDATASIZE PUSH1 0x40 MLOAD PUSH2 0x1D78 SWAP3 SWAP2 SWAP1 PUSH2 0x3E62 JUMP JUMPDEST PUSH1 0x0 PUSH1 0x40 MLOAD DUP1 DUP4 SUB DUP2 PUSH1 0x0 DUP7 GAS CALL SWAP2 POP POP RETURNDATASIZE DUP1 PUSH1 0x0 DUP2 EQ PUSH2 0x1DB5 JUMPI PUSH1 0x40 MLOAD SWAP2 POP PUSH1 0x1F NOT PUSH1 0x3F RETURNDATASIZE ADD AND DUP3 ADD PUSH1 0x40 MSTORE RETURNDATASIZE DUP3 MSTORE RETURNDATASIZE PUSH1 0x0 PUSH1 0x20 DUP5 ADD RETURNDATACOPY PUSH2 0x1DBA JUMP JUMPDEST PUSH1 0x60 SWAP2 POP JUMPDEST POP POP SWAP1 POP DUP1 PUSH1 0x0 DUP2 EQ PUSH2 0x1DC9 JUMPI INVALID JUMPDEST PUSH1 0x4 PUSH1 0x0 DUP1 RETURNDATACOPY PUSH1 0x0 MLOAD PUSH1 0x1 PUSH1 0x1 PUSH1 0xE0 SHL SUB NOT AND PUSH4 0x43ADBAFB PUSH1 0xE0 SHL DUP2 EQ PUSH2 0x1DF4 JUMPI RETURNDATASIZE PUSH1 0x0 DUP1 RETURNDATACOPY RETURNDATASIZE PUSH1 0x0 REVERT JUMPDEST POP PUSH1 0x20 PUSH1 0x4 PUSH1 0x0 RETURNDATACOPY PUSH1 0x40 PUSH1 0x20 MSTORE PUSH1 0x24 RETURNDATASIZE SUB PUSH1 0x24 PUSH1 0x40 RETURNDATACOPY PUSH1 0x1C RETURNDATASIZE ADD PUSH1 0x0 RETURN JUMPDEST PUSH1 0x60 PUSH2 0x1E1C PUSH2 0x1401 JUMP JUMPDEST SWAP1 POP PUSH2 0x1E28 DUP8 DUP3 PUSH2 0x152E JUMP JUMPDEST PUSH1 0x0 PUSH1 0x60 PUSH2 0x1E40 DUP13 DUP13 DUP13 DUP13 DUP13 DUP13 DUP10 DUP14 DUP14 PUSH4 0xFFFFFFFF AND JUMP JUMPDEST POP SWAP2 POP SWAP2 POP PUSH2 0x1E53 DUP2 DUP5 DUP7 PUSH4 0xFFFFFFFF AND JUMP JUMPDEST DUP1 MLOAD PUSH1 0x1F NOT DUP3 ADD DUP4 SWAP1 MSTORE PUSH4 0x43ADBAFB PUSH1 0x3F NOT DUP4 ADD MSTORE PUSH1 0x20 MUL PUSH1 0x23 NOT DUP3 ADD PUSH1 0x44 DUP3 ADD DUP2 REVERT JUMPDEST PUSH1 0x8 SLOAD SWAP1 JUMP JUMPDEST SHR PUSH12 0xFFFFFFFFFFFFFFFFFFFFFFFF AND SWAP1 JUMP JUMPDEST PUSH1 0x0 DUP2 PUSH1 0x20 ADD MLOAD DUP4 LT ISZERO PUSH2 0x1EC8 JUMPI DUP2 MLOAD PUSH1 0x20 DUP4 ADD MLOAD PUSH1 0x0 SWAP2 PUSH2 0x1EB4 SWAP2 DUP7 SWAP1 SUB SWAP1 PUSH2 0x246C JUMP JUMPDEST SWAP1 POP PUSH2 0x1EC0 DUP5 DUP3 PUSH2 0x13A9 JUMP JUMPDEST SWAP2 POP POP PUSH2 0x720 JUMP JUMPDEST DUP2 PUSH1 0x40 ADD MLOAD DUP4 GT PUSH2 0x1EDA JUMPI POP DUP2 PUSH2 0x720 JUMP JUMPDEST DUP2 MLOAD PUSH1 0x40 DUP4 ADD MLOAD PUSH1 0x0 SWAP2 PUSH2 0x1EB4 SWAP2 DUP7 SUB SWAP1 PUSH2 0x246C JUMP JUMPDEST PUSH1 0x0 PUSH2 0x80B DUP4 DUP4 PUSH2 0x1B56 JUMP JUMPDEST PUSH1 0x1 PUSH1 0x1 PUSH1 0x70 SHL SUB SUB SWAP1 JUMP JUMPDEST PUSH1 0x0 PUSH2 0x1F17 DUP3 ISZERO ISZERO PUSH1 0x4 PUSH2 0x13DE JUMP JUMPDEST DUP3 PUSH2 0x1F24 JUMPI POP PUSH1 0x0 PUSH2 0x720 JUMP JUMPDEST PUSH8 0xDE0B6B3A7640000 DUP4 DUP2 MUL SWAP1 PUSH2 0x1F47 SWAP1 DUP6 DUP4 DUP2 PUSH2 0x1F3E JUMPI INVALID JUMPDEST DIV EQ PUSH1 0x5 PUSH2 0x13DE JUMP JUMPDEST DUP3 PUSH1 0x1 DUP3 SUB DUP2 PUSH2 0x1F53 JUMPI INVALID JUMPDEST DIV PUSH1 0x1 ADD SWAP2 POP POP PUSH2 0x720 JUMP JUMPDEST PUSH2 0x918 DUP3 DUP3 PUSH2 0x2F58 JUMP JUMPDEST SWAP1 JUMP JUMPDEST PUSH1 0x0 PUSH1 0x60 DUP1 PUSH2 0x1F7C PUSH2 0x14E PUSH2 0x2419 JUMP JUMPDEST SWAP9 POP SWAP9 POP SWAP9 SWAP6 POP POP POP POP POP POP JUMP JUMPDEST PUSH1 0x0 JUMPDEST PUSH2 0x1F95 PUSH2 0x1C3D JUMP JUMPDEST DUP2 LT ISZERO PUSH2 0x852 JUMPI PUSH2 0x1FCC DUP4 DUP3 DUP2 MLOAD DUP2 LT PUSH2 0x1FAB JUMPI INVALID JUMPDEST PUSH1 0x20 MUL PUSH1 0x20 ADD ADD MLOAD DUP4 DUP4 DUP2 MLOAD DUP2 LT PUSH2 0x1FBF JUMPI INVALID JUMPDEST PUSH1 0x20 MUL PUSH1 0x20 ADD ADD MLOAD PUSH2 0x1F08 JUMP JUMPDEST DUP4 DUP3 DUP2 MLOAD DUP2 LT PUSH2 0x1FD8 JUMPI INVALID JUMPDEST PUSH1 0x20 SWAP1 DUP2 MUL SWAP2 SWAP1 SWAP2 ADD ADD MSTORE PUSH1 0x1 ADD PUSH2 0x1F8D JUMP JUMPDEST PUSH2 0x1FFA DUP2 DUP4 GT ISZERO PUSH2 0x14C PUSH2 0x13DE JUMP JUMPDEST PUSH2 0x2015 PUSH12 0xFFFFFFFFFFFFFFFFFFFFFFFF DUP3 GT ISZERO PUSH2 0x14D PUSH2 0x13DE JUMP JUMPDEST PUSH2 0x2034 PUSH2 0x2023 DUP3 PUSH1 0x60 PUSH2 0x13BF JUMP JUMPDEST PUSH2 0x202E DUP5 PUSH1 0x0 PUSH2 0x13BF JUMP JUMPDEST OR PUSH2 0x3014 JUMP JUMPDEST DUP3 PUSH1 0x1 PUSH1 0x1 PUSH1 0xA0 SHL SUB AND PUSH32 0xD0E27A0D0C2CB09280FA5E4487315455B32AFCDCF012DC35B6EF2A0E3C4D1280 DUP4 DUP4 PUSH1 0x40 MLOAD PUSH2 0x206F SWAP3 SWAP2 SWAP1 PUSH2 0x40C4 JUMP JUMPDEST PUSH1 0x40 MLOAD DUP1 SWAP2 SUB SWAP1 LOG2 POP POP POP JUMP JUMPDEST PUSH1 0x0 PUSH2 0x2086 PUSH2 0xE71 JUMP JUMPDEST PUSH1 0x1 PUSH1 0x1 PUSH1 0xA0 SHL SUB AND PUSH4 0xAAABADC5 PUSH1 0x40 MLOAD DUP2 PUSH4 0xFFFFFFFF AND PUSH1 0xE0 SHL DUP2 MSTORE PUSH1 0x4 ADD PUSH1 0x20 PUSH1 0x40 MLOAD DUP1 DUP4 SUB DUP2 DUP7 DUP1 EXTCODESIZE ISZERO DUP1 ISZERO PUSH2 0x20BE JUMPI PUSH1 0x0 DUP1 REVERT JUMPDEST POP GAS STATICCALL ISZERO DUP1 ISZERO PUSH2 0x20D2 JUMPI RETURNDATASIZE PUSH1 0x0 DUP1 RETURNDATACOPY RETURNDATASIZE PUSH1 0x0 REVERT JUMPDEST POP POP POP POP PUSH1 0x40 MLOAD RETURNDATASIZE PUSH1 0x1F NOT PUSH1 0x1F DUP3 ADD AND DUP3 ADD DUP1 PUSH1 0x40 MSTORE POP DUP2 ADD SWAP1 PUSH2 0x797 SWAP2 SWAP1 PUSH2 0x3B5E JUMP JUMPDEST PUSH1 0x0 PUSH2 0x2100 PUSH2 0x1988 JUMP JUMPDEST DUP3 PUSH1 0x40 MLOAD PUSH1 0x20 ADD PUSH2 0xE0A SWAP3 SWAP2 SWAP1 PUSH2 0x3E72 JUMP JUMPDEST PUSH1 0x0 PUSH1 0x60 PUSH2 0x211E PUSH2 0x13EC JUMP JUMPDEST PUSH2 0x2135 PUSH1 0x1 PUSH1 0x1 PUSH1 0xA0 SHL SUB DUP8 AND ADDRESS EQ PUSH2 0x156 PUSH2 0x13DE JUMP JUMPDEST PUSH2 0x214C PUSH1 0x1 PUSH1 0x1 PUSH1 0xA0 SHL SUB DUP7 AND ADDRESS EQ PUSH2 0x156 PUSH2 0x13DE JUMP JUMPDEST PUSH1 0x40 DUP1 MLOAD PUSH1 0x3 DUP1 DUP3 MSTORE PUSH1 0x80 DUP3 ADD SWAP1 SWAP3 MSTORE PUSH1 0x1 PUSH1 0x1 PUSH1 0x70 SHL SUB SWAP2 PUSH1 0x60 SWAP2 SWAP1 PUSH1 0x20 DUP3 ADD DUP4 DUP1 CALLDATASIZE DUP4 CALLDATACOPY ADD SWAP1 POP POP SWAP1 POP PUSH1 0x1 PUSH1 0x1 PUSH1 0x70 SHL SUB DUP2 PUSH32 0x0 DUP2 MLOAD DUP2 LT PUSH2 0x21AC JUMPI INVALID JUMPDEST PUSH1 0x20 SWAP1 DUP2 MUL SWAP2 SWAP1 SWAP2 ADD ADD MSTORE SWAP1 SWAP9 SWAP1 SWAP8 POP SWAP6 POP POP POP POP POP POP JUMP JUMPDEST PUSH1 0x0 SWAP1 JUMP JUMPDEST PUSH2 0x918 DUP3 DUP3 PUSH2 0x3029 JUMP JUMPDEST PUSH1 0x1 PUSH1 0x1 PUSH1 0xA0 SHL SUB SWAP2 DUP3 AND PUSH1 0x0 SWAP1 DUP2 MSTORE PUSH1 0x1 PUSH1 0x20 SWAP1 DUP2 MSTORE PUSH1 0x40 DUP1 DUP4 KECCAK256 SWAP4 SWAP1 SWAP5 AND DUP3 MSTORE SWAP2 SWAP1 SWAP2 MSTORE KECCAK256 SLOAD SWAP1 JUMP JUMPDEST PUSH1 0x0 PUSH32 0x0 PUSH1 0x1 PUSH1 0x1 PUSH1 0xA0 SHL SUB AND DUP3 PUSH1 0x1 PUSH1 0x1 PUSH1 0xA0 SHL SUB AND EQ ISZERO PUSH2 0x2262 JUMPI POP PUSH32 0x0 PUSH2 0xB60 JUMP JUMPDEST PUSH32 0x0 PUSH1 0x1 PUSH1 0x1 PUSH1 0xA0 SHL SUB AND DUP3 PUSH1 0x1 PUSH1 0x1 PUSH1 0xA0 SHL SUB AND EQ ISZERO PUSH2 0x22AE JUMPI PUSH2 0x22A7 PUSH2 0x148A PUSH2 0x22ED JUMP JUMPDEST SWAP1 POP PUSH2 0xB60 JUMP JUMPDEST PUSH1 0x1 PUSH1 0x1 PUSH1 0xA0 SHL SUB DUP3 AND ADDRESS EQ ISZERO PUSH2 0x22CE JUMPI POP PUSH8 0xDE0B6B3A7640000 PUSH2 0xB60 JUMP JUMPDEST PUSH2 0xB60 PUSH2 0x135 PUSH2 0x2419 JUMP JUMPDEST PUSH1 0x0 PUSH2 0x720 DUP3 PUSH2 0x22E7 PUSH2 0x75E JUMP JUMPDEST SWAP1 PUSH2 0x13A9 JUMP JUMPDEST PUSH1 0x0 DUP1 PUSH32 0x0 PUSH1 0x1 PUSH1 0x1 PUSH1 0xA0 SHL SUB AND PUSH4 0xD15E0053 PUSH2 0x2327 PUSH2 0x8DA JUMP JUMPDEST PUSH1 0x40 MLOAD DUP3 PUSH4 0xFFFFFFFF AND PUSH1 0xE0 SHL DUP2 MSTORE PUSH1 0x4 ADD PUSH2 0x2343 SWAP2 SWAP1 PUSH2 0x3E8D JUMP JUMPDEST PUSH1 0x20 PUSH1 0x40 MLOAD DUP1 DUP4 SUB DUP2 DUP7 DUP1 EXTCODESIZE ISZERO DUP1 ISZERO PUSH2 0x235B JUMPI PUSH1 0x0 DUP1 REVERT JUMPDEST POP GAS STATICCALL ISZERO DUP1 ISZERO PUSH2 0x236F JUMPI RETURNDATASIZE PUSH1 0x0 DUP1 RETURNDATACOPY RETURNDATASIZE PUSH1 0x0 REVERT JUMPDEST POP POP POP POP PUSH1 0x40 MLOAD RETURNDATASIZE PUSH1 0x1F NOT PUSH1 0x1F DUP3 ADD AND DUP3 ADD DUP1 PUSH1 0x40 MSTORE POP DUP2 ADD SWAP1 PUSH2 0x2393 SWAP2 SWAP1 PUSH2 0x3D46 JUMP JUMPDEST PUSH4 0x3B9ACA00 SWAP1 DIV SWAP3 SWAP2 POP POP JUMP JUMPDEST PUSH1 0x2 DUP2 MLOAD LT ISZERO PUSH2 0x23AF JUMPI PUSH2 0x75B JUMP JUMPDEST PUSH1 0x0 DUP2 PUSH1 0x0 DUP2 MLOAD DUP2 LT PUSH2 0x23BE JUMPI INVALID JUMPDEST PUSH1 0x20 MUL PUSH1 0x20 ADD ADD MLOAD SWAP1 POP PUSH1 0x0 PUSH1 0x1 SWAP1 POP JUMPDEST DUP3 MLOAD DUP2 LT ISZERO PUSH2 0x852 JUMPI PUSH1 0x0 DUP4 DUP3 DUP2 MLOAD DUP2 LT PUSH2 0x23E6 JUMPI INVALID JUMPDEST PUSH1 0x20 MUL PUSH1 0x20 ADD ADD MLOAD SWAP1 POP PUSH2 0x240F DUP2 PUSH1 0x1 PUSH1 0x1 PUSH1 0xA0 SHL SUB AND DUP5 PUSH1 0x1 PUSH1 0x1 PUSH1 0xA0 SHL SUB AND LT PUSH1 0x65 PUSH2 0x13DE JUMP JUMPDEST SWAP2 POP PUSH1 0x1 ADD PUSH2 0x23CF JUMP JUMPDEST PUSH3 0x461BCD PUSH1 0xE5 SHL PUSH1 0x0 SWAP1 DUP2 MSTORE PUSH1 0x20 PUSH1 0x4 MSTORE PUSH1 0x7 PUSH1 0x24 MSTORE PUSH7 0x42414C23000030 PUSH1 0xA DUP1 DUP5 DIV DUP2 DUP2 MOD PUSH1 0x30 SWAP1 DUP2 ADD PUSH1 0x8 SHL SWAP6 DUP4 SWAP1 MOD SWAP6 SWAP1 SWAP6 ADD SWAP1 DUP3 SWAP1 DIV SWAP2 DUP3 MOD SWAP1 SWAP5 ADD PUSH1 0x10 SHL SWAP4 SWAP1 SWAP4 ADD ADD PUSH1 0xC8 SHL PUSH1 0x44 MSTORE PUSH1 0x64 SWAP1 REVERT JUMPDEST PUSH1 0x0 DUP3 DUP3 MUL PUSH2 0x2490 DUP5 ISZERO DUP1 PUSH2 0x2489 JUMPI POP DUP4 DUP6 DUP4 DUP2 PUSH2 0x2486 JUMPI INVALID JUMPDEST DIV EQ JUMPDEST PUSH1 0x3 PUSH2 0x13DE JUMP JUMPDEST PUSH8 0xDE0B6B3A7640000 SWAP1 DIV SWAP4 SWAP3 POP POP POP JUMP JUMPDEST PUSH1 0x0 PUSH2 0x2528 PUSH32 0x0 PUSH1 0x1 PUSH1 0x1 PUSH1 0xA0 SHL SUB AND DUP6 PUSH1 0x40 ADD MLOAD PUSH1 0x1 PUSH1 0x1 PUSH1 0xA0 SHL SUB AND EQ DUP1 PUSH2 0x2520 JUMPI POP PUSH32 0x0 PUSH1 0x1 PUSH1 0x1 PUSH1 0xA0 SHL SUB AND DUP6 PUSH1 0x40 ADD MLOAD PUSH1 0x1 PUSH1 0x1 PUSH1 0xA0 SHL SUB AND EQ JUMPDEST PUSH2 0x135 PUSH2 0x13DE JUMP JUMPDEST PUSH2 0x2619 DUP5 PUSH1 0x60 ADD MLOAD DUP5 PUSH32 0x0 DUP2 MLOAD DUP2 LT PUSH2 0x255C JUMPI INVALID JUMPDEST PUSH1 0x20 MUL PUSH1 0x20 ADD ADD MLOAD DUP6 PUSH32 0x0 DUP2 MLOAD DUP2 LT PUSH2 0x2590 JUMPI INVALID JUMPDEST PUSH1 0x20 MUL PUSH1 0x20 ADD ADD MLOAD PUSH2 0x25C7 DUP8 PUSH32 0x0 DUP2 MLOAD DUP2 LT PUSH2 0xB27 JUMPI INVALID JUMPDEST DUP7 PUSH32 0x0 PUSH1 0x1 PUSH1 0x1 PUSH1 0xA0 SHL SUB AND DUP11 PUSH1 0x40 ADD MLOAD PUSH1 0x1 PUSH1 0x1 PUSH1 0xA0 SHL SUB AND EQ PUSH2 0x260D JUMPI PUSH2 0x30B7 PUSH2 0x2611 JUMP JUMPDEST PUSH2 0x3117 JUMPDEST PUSH4 0xFFFFFFFF AND JUMP JUMPDEST SWAP5 SWAP4 POP POP POP POP JUMP JUMPDEST PUSH1 0x0 PUSH2 0x267D PUSH32 0x0 PUSH1 0x1 PUSH1 0x1 PUSH1 0xA0 SHL SUB AND DUP6 PUSH1 0x40 ADD MLOAD PUSH1 0x1 PUSH1 0x1 PUSH1 0xA0 SHL SUB AND EQ DUP1 PUSH2 0x2520 JUMPI POP PUSH1 0x40 DUP6 ADD MLOAD PUSH1 0x1 PUSH1 0x1 PUSH1 0xA0 SHL SUB AND ADDRESS EQ PUSH2 0x135 PUSH2 0x13DE JUMP JUMPDEST PUSH1 0x40 DUP5 ADD MLOAD PUSH1 0x1 PUSH1 0x1 PUSH1 0xA0 SHL SUB AND ADDRESS EQ PUSH2 0x26D8 JUMPI PUSH2 0x26D3 DUP5 PUSH1 0x60 ADD MLOAD DUP5 PUSH32 0x0 DUP2 MLOAD DUP2 LT PUSH2 0x26C5 JUMPI INVALID JUMPDEST PUSH1 0x20 MUL PUSH1 0x20 ADD ADD MLOAD DUP5 PUSH2 0x3180 JUMP JUMPDEST PUSH2 0x2619 JUMP JUMPDEST PUSH2 0x2619 DUP5 PUSH1 0x60 ADD MLOAD DUP5 PUSH32 0x0 DUP2 MLOAD DUP2 LT PUSH2 0x270C JUMPI INVALID JUMPDEST PUSH1 0x20 MUL PUSH1 0x20 ADD ADD MLOAD DUP6 PUSH32 0x0 DUP2 MLOAD DUP2 LT PUSH2 0x2740 JUMPI INVALID JUMPDEST PUSH1 0x20 MUL PUSH1 0x20 ADD ADD MLOAD PUSH2 0x2777 DUP8 PUSH32 0x0 DUP2 MLOAD DUP2 LT PUSH2 0xB27 JUMPI INVALID JUMPDEST DUP7 PUSH2 0x31B0 JUMP JUMPDEST PUSH1 0x0 PUSH2 0x27D9 PUSH32 0x0 PUSH1 0x1 PUSH1 0x1 PUSH1 0xA0 SHL SUB AND DUP6 PUSH1 0x40 ADD MLOAD PUSH1 0x1 PUSH1 0x1 PUSH1 0xA0 SHL SUB AND EQ DUP1 PUSH2 0x2520 JUMPI POP PUSH1 0x40 DUP6 ADD MLOAD PUSH1 0x1 PUSH1 0x1 PUSH1 0xA0 SHL SUB AND ADDRESS EQ PUSH2 0x135 PUSH2 0x13DE JUMP JUMPDEST PUSH1 0x40 DUP5 ADD MLOAD PUSH1 0x1 PUSH1 0x1 PUSH1 0xA0 SHL SUB AND ADDRESS EQ PUSH2 0x282F JUMPI PUSH2 0x26D3 DUP5 PUSH1 0x60 ADD MLOAD DUP5 PUSH32 0x0 DUP2 MLOAD DUP2 LT PUSH2 0x2821 JUMPI INVALID JUMPDEST PUSH1 0x20 MUL PUSH1 0x20 ADD ADD MLOAD DUP5 PUSH2 0x3216 JUMP JUMPDEST PUSH2 0x2619 DUP5 PUSH1 0x60 ADD MLOAD DUP5 PUSH32 0x0 DUP2 MLOAD DUP2 LT PUSH2 0x2863 JUMPI INVALID JUMPDEST PUSH1 0x20 MUL PUSH1 0x20 ADD ADD MLOAD DUP6 PUSH32 0x0 DUP2 MLOAD DUP2 LT PUSH2 0x2897 JUMPI INVALID JUMPDEST PUSH1 0x20 MUL PUSH1 0x20 ADD ADD MLOAD PUSH2 0x28CE DUP8 PUSH32 0x0 DUP2 MLOAD DUP2 LT PUSH2 0xB27 JUMPI INVALID JUMPDEST DUP7 PUSH2 0x3256 JUMP JUMPDEST PUSH1 0x0 PUSH2 0x28E3 DUP3 ISZERO ISZERO PUSH1 0x4 PUSH2 0x13DE JUMP JUMPDEST DUP3 PUSH2 0x28F0 JUMPI POP PUSH1 0x0 PUSH2 0x720 JUMP JUMPDEST PUSH8 0xDE0B6B3A7640000 DUP4 DUP2 MUL SWAP1 PUSH2 0x290A SWAP1 DUP6 DUP4 DUP2 PUSH2 0x1F3E JUMPI INVALID JUMPDEST DUP3 DUP2 DUP2 PUSH2 0x2913 JUMPI INVALID JUMPDEST DIV SWAP2 POP POP PUSH2 0x720 JUMP JUMPDEST PUSH1 0x0 PUSH2 0x29A1 PUSH32 0x0 PUSH1 0x1 PUSH1 0x1 PUSH1 0xA0 SHL SUB AND DUP6 PUSH1 0x20 ADD MLOAD PUSH1 0x1 PUSH1 0x1 PUSH1 0xA0 SHL SUB AND EQ DUP1 PUSH2 0x2520 JUMPI POP PUSH32 0x0 PUSH1 0x1 PUSH1 0x1 PUSH1 0xA0 SHL SUB AND DUP6 PUSH1 0x20 ADD MLOAD PUSH1 0x1 PUSH1 0x1 PUSH1 0xA0 SHL SUB AND EQ PUSH2 0x135 PUSH2 0x13DE JUMP JUMPDEST PUSH2 0x2619 DUP5 PUSH1 0x60 ADD MLOAD DUP5 PUSH32 0x0 DUP2 MLOAD DUP2 LT PUSH2 0x29D5 JUMPI INVALID JUMPDEST PUSH1 0x20 MUL PUSH1 0x20 ADD ADD MLOAD DUP6 PUSH32 0x0 DUP2 MLOAD DUP2 LT PUSH2 0x2A09 JUMPI INVALID JUMPDEST PUSH1 0x20 MUL PUSH1 0x20 ADD ADD MLOAD PUSH2 0x2A40 DUP8 PUSH32 0x0 DUP2 MLOAD DUP2 LT PUSH2 0xB27 JUMPI INVALID JUMPDEST DUP7 PUSH32 0x0 PUSH1 0x1 PUSH1 0x1 PUSH1 0xA0 SHL SUB AND DUP11 PUSH1 0x20 ADD MLOAD PUSH1 0x1 PUSH1 0x1 PUSH1 0xA0 SHL SUB AND EQ PUSH2 0x2A86 JUMPI PUSH2 0x32BD PUSH2 0x2611 JUMP JUMPDEST PUSH2 0x3314 JUMP JUMPDEST PUSH1 0x0 PUSH2 0x2AE7 PUSH32 0x0 PUSH1 0x1 PUSH1 0x1 PUSH1 0xA0 SHL SUB AND DUP6 PUSH1 0x20 ADD MLOAD PUSH1 0x1 PUSH1 0x1 PUSH1 0xA0 SHL SUB AND EQ DUP1 PUSH2 0x2520 JUMPI POP PUSH1 0x20 DUP6 ADD MLOAD PUSH1 0x1 PUSH1 0x1 PUSH1 0xA0 SHL SUB AND ADDRESS EQ PUSH2 0x135 PUSH2 0x13DE JUMP JUMPDEST PUSH1 0x20 DUP5 ADD MLOAD PUSH1 0x1 PUSH1 0x1 PUSH1 0xA0 SHL SUB AND ADDRESS EQ PUSH2 0x2B3D JUMPI PUSH2 0x26D3 DUP5 PUSH1 0x60 ADD MLOAD DUP5 PUSH32 0x0 DUP2 MLOAD DUP2 LT PUSH2 0x2B2F JUMPI INVALID JUMPDEST PUSH1 0x20 MUL PUSH1 0x20 ADD ADD MLOAD DUP5 PUSH2 0x337E JUMP JUMPDEST PUSH2 0x2619 DUP5 PUSH1 0x60 ADD MLOAD DUP5 PUSH32 0x0 DUP2 MLOAD DUP2 LT PUSH2 0x2B71 JUMPI INVALID JUMPDEST PUSH1 0x20 MUL PUSH1 0x20 ADD ADD MLOAD DUP6 PUSH32 0x0 DUP2 MLOAD DUP2 LT PUSH2 0x2BA5 JUMPI INVALID JUMPDEST PUSH1 0x20 MUL PUSH1 0x20 ADD ADD MLOAD PUSH2 0x2BDC DUP8 PUSH32 0x0 DUP2 MLOAD DUP2 LT PUSH2 0xB27 JUMPI INVALID JUMPDEST DUP7 PUSH2 0x33A8 JUMP JUMPDEST PUSH1 0x0 PUSH2 0x2C3E PUSH32 0x0 PUSH1 0x1 PUSH1 0x1 PUSH1 0xA0 SHL SUB AND DUP6 PUSH1 0x20 ADD MLOAD PUSH1 0x1 PUSH1 0x1 PUSH1 0xA0 SHL SUB AND EQ DUP1 PUSH2 0x2520 JUMPI POP PUSH1 0x20 DUP6 ADD MLOAD PUSH1 0x1 PUSH1 0x1 PUSH1 0xA0 SHL SUB AND ADDRESS EQ PUSH2 0x135 PUSH2 0x13DE JUMP JUMPDEST PUSH1 0x20 DUP5 ADD MLOAD PUSH1 0x1 PUSH1 0x1 PUSH1 0xA0 SHL SUB AND ADDRESS EQ PUSH2 0x2C94 JUMPI PUSH2 0x26D3 DUP5 PUSH1 0x60 ADD MLOAD DUP5 PUSH32 0x0 DUP2 MLOAD DUP2 LT PUSH2 0x2C86 JUMPI INVALID JUMPDEST PUSH1 0x20 MUL PUSH1 0x20 ADD ADD MLOAD DUP5 PUSH2 0x33F7 JUMP JUMPDEST PUSH2 0x2619 DUP5 PUSH1 0x60 ADD MLOAD DUP5 PUSH32 0x0 DUP2 MLOAD DUP2 LT PUSH2 0x2CC8 JUMPI INVALID JUMPDEST PUSH1 0x20 MUL PUSH1 0x20 ADD ADD MLOAD DUP6 PUSH32 0x0 DUP2 MLOAD DUP2 LT PUSH2 0x2CFC JUMPI INVALID JUMPDEST PUSH1 0x20 MUL PUSH1 0x20 ADD ADD MLOAD PUSH2 0x2D33 DUP8 PUSH32 0x0 DUP2 MLOAD DUP2 LT PUSH2 0xB27 JUMPI INVALID JUMPDEST DUP7 PUSH2 0x342C JUMP JUMPDEST PUSH1 0x0 PUSH20 0xBA1BA1BA1BA1BA1BA1BA1BA1BA1BA1BA1BA1BA1B PUSH2 0x2D58 PUSH2 0xE4D JUMP JUMPDEST PUSH1 0x1 PUSH1 0x1 PUSH1 0xA0 SHL SUB AND EQ ISZERO DUP1 ISZERO PUSH2 0x2D73 JUMPI POP PUSH2 0x2D73 DUP4 PUSH2 0x3480 JUMP JUMPDEST ISZERO PUSH2 0x2D9B JUMPI PUSH2 0x2D80 PUSH2 0xE4D JUMP JUMPDEST PUSH1 0x1 PUSH1 0x1 PUSH1 0xA0 SHL SUB AND CALLER PUSH1 0x1 PUSH1 0x1 PUSH1 0xA0 SHL SUB AND EQ SWAP1 POP PUSH2 0x720 JUMP JUMPDEST PUSH2 0x2DA3 PUSH2 0x207C JUMP JUMPDEST PUSH1 0x1 PUSH1 0x1 PUSH1 0xA0 SHL SUB AND PUSH4 0x9BE2A884 DUP5 DUP5 ADDRESS PUSH1 0x40 MLOAD DUP5 PUSH4 0xFFFFFFFF AND PUSH1 0xE0 SHL DUP2 MSTORE PUSH1 0x4 ADD PUSH2 0x2DD2 SWAP4 SWAP3 SWAP2 SWAP1 PUSH2 0x3F05 JUMP JUMPDEST PUSH1 0x20 PUSH1 0x40 MLOAD DUP1 DUP4 SUB DUP2 DUP7 DUP1 EXTCODESIZE ISZERO DUP1 ISZERO PUSH2 0x2DEA JUMPI PUSH1 0x0 DUP1 REVERT JUMPDEST POP GAS STATICCALL ISZERO DUP1 ISZERO PUSH2 0x2DFE JUMPI RETURNDATASIZE PUSH1 0x0 DUP1 RETURNDATACOPY RETURNDATASIZE PUSH1 0x0 REVERT JUMPDEST POP POP POP POP PUSH1 0x40 MLOAD RETURNDATASIZE PUSH1 0x1F NOT PUSH1 0x1F DUP3 ADD AND DUP3 ADD DUP1 PUSH1 0x40 MSTORE POP DUP2 ADD SWAP1 PUSH2 0x1265 SWAP2 SWAP1 PUSH2 0x3A77 JUMP JUMPDEST PUSH1 0x0 PUSH2 0x2E31 DUP5 DUP5 GT ISZERO DUP4 PUSH2 0x13DE JUMP JUMPDEST POP POP SWAP1 SUB SWAP1 JUMP JUMPDEST CHAINID SWAP1 JUMP JUMPDEST PUSH2 0x2E4F PUSH5 0xE8D4A51000 DUP3 LT ISZERO PUSH1 0xCB PUSH2 0x13DE JUMP JUMPDEST PUSH2 0x2E65 PUSH8 0x16345785D8A0000 DUP3 GT ISZERO PUSH1 0xCA PUSH2 0x13DE JUMP JUMPDEST PUSH1 0x8 SLOAD PUSH2 0x2E74 SWAP1 DUP3 PUSH1 0xC0 PUSH2 0x1393 JUMP JUMPDEST PUSH1 0x8 SSTORE PUSH1 0x40 MLOAD PUSH32 0xA9BA3FFE0B6C366B81232CAAB38605A0699AD5398D6CCE76F91EE809E322DAFC SWAP1 PUSH2 0x1838 SWAP1 DUP4 SWAP1 PUSH2 0x3EFC JUMP JUMPDEST PUSH1 0x0 DUP2 DUP1 PUSH1 0x20 ADD SWAP1 MLOAD DUP2 ADD SWAP1 PUSH2 0x720 SWAP2 SWAP1 PUSH2 0x3BC8 JUMP JUMPDEST PUSH2 0x13FF PUSH2 0x2EC8 PUSH2 0x1843 JUMP JUMPDEST ISZERO PUSH2 0x1AF PUSH2 0x13DE JUMP JUMPDEST PUSH1 0x0 PUSH1 0x60 PUSH1 0x0 PUSH2 0x2EE0 DUP5 PUSH2 0x34A3 JUMP JUMPDEST SWAP1 POP PUSH1 0x60 PUSH2 0x2F4B DUP7 DUP4 PUSH2 0x2F25 DUP10 PUSH32 0x0 DUP2 MLOAD DUP2 LT PUSH2 0x2F18 JUMPI INVALID JUMPDEST PUSH1 0x20 MUL PUSH1 0x20 ADD ADD MLOAD PUSH2 0x22D9 JUMP JUMPDEST PUSH32 0x0 PUSH2 0x34B9 JUMP JUMPDEST SWAP2 SWAP7 SWAP2 SWAP6 POP SWAP1 SWAP4 POP POP POP POP JUMP JUMPDEST PUSH2 0x2F6F PUSH1 0x1 PUSH1 0x1 PUSH1 0xA0 SHL SUB DUP4 AND ISZERO ISZERO PUSH2 0x19B PUSH2 0x13DE JUMP JUMPDEST PUSH2 0x2F7B DUP3 PUSH1 0x0 DUP4 PUSH2 0x852 JUMP JUMPDEST PUSH1 0x1 PUSH1 0x1 PUSH1 0xA0 SHL SUB DUP3 AND PUSH1 0x0 SWAP1 DUP2 MSTORE PUSH1 0x20 DUP2 SWAP1 MSTORE PUSH1 0x40 SWAP1 KECCAK256 SLOAD PUSH2 0x2FA1 SWAP1 DUP3 PUSH2 0x1A1 PUSH2 0x2E22 JUMP JUMPDEST PUSH1 0x1 PUSH1 0x1 PUSH1 0xA0 SHL SUB DUP4 AND PUSH1 0x0 SWAP1 DUP2 MSTORE PUSH1 0x20 DUP2 SWAP1 MSTORE PUSH1 0x40 SWAP1 KECCAK256 SSTORE PUSH1 0x2 SLOAD PUSH2 0x2FC7 SWAP1 DUP3 PUSH2 0x3575 JUMP JUMPDEST PUSH1 0x2 SSTORE PUSH1 0x40 MLOAD PUSH1 0x0 SWAP1 PUSH1 0x1 PUSH1 0x1 PUSH1 0xA0 SHL SUB DUP5 AND SWAP1 PUSH32 0xDDF252AD1BE2C89B69C2B068FC378DAA952BA7F163C4A11628F55A4DF523B3EF SWAP1 PUSH2 0x3008 SWAP1 DUP6 SWAP1 PUSH2 0x3EFC JUMP JUMPDEST PUSH1 0x40 MLOAD DUP1 SWAP2 SUB SWAP1 LOG3 POP POP JUMP JUMPDEST PUSH1 0x8 SLOAD PUSH2 0x3023 SWAP1 DUP3 PUSH1 0x0 PUSH2 0x13C3 JUMP JUMPDEST PUSH1 0x8 SSTORE POP JUMP JUMPDEST PUSH2 0x3035 PUSH1 0x0 DUP4 DUP4 PUSH2 0x852 JUMP JUMPDEST PUSH1 0x2 SLOAD PUSH2 0x3042 SWAP1 DUP3 PUSH2 0x1B56 JUMP JUMPDEST PUSH1 0x2 SSTORE PUSH1 0x1 PUSH1 0x1 PUSH1 0xA0 SHL SUB DUP3 AND PUSH1 0x0 SWAP1 DUP2 MSTORE PUSH1 0x20 DUP2 SWAP1 MSTORE PUSH1 0x40 SWAP1 KECCAK256 SLOAD PUSH2 0x3068 SWAP1 DUP3 PUSH2 0x1B56 JUMP JUMPDEST PUSH1 0x1 PUSH1 0x1 PUSH1 0xA0 SHL SUB DUP4 AND PUSH1 0x0 DUP2 DUP2 MSTORE PUSH1 0x20 DUP2 SWAP1 MSTORE PUSH1 0x40 DUP1 DUP3 KECCAK256 SWAP4 SWAP1 SWAP4 SSTORE SWAP2 MLOAD SWAP1 SWAP2 SWAP1 PUSH32 0xDDF252AD1BE2C89B69C2B068FC378DAA952BA7F163C4A11628F55A4DF523B3EF SWAP1 PUSH2 0x3008 SWAP1 DUP6 SWAP1 PUSH2 0x3EFC JUMP JUMPDEST PUSH1 0x0 DUP1 PUSH2 0x30C4 DUP7 DUP5 PUSH2 0x1E8F JUMP JUMPDEST SWAP1 POP PUSH1 0x0 PUSH2 0x30D2 DUP3 DUP8 PUSH2 0x1EF0 JUMP JUMPDEST SWAP1 POP PUSH1 0x0 PUSH2 0x30E0 DUP7 DUP11 PUSH2 0x13A9 JUMP JUMPDEST SWAP1 POP PUSH1 0x0 PUSH2 0x30FB DUP5 PUSH2 0x22E7 PUSH2 0x30F5 DUP6 DUP8 PUSH2 0x3583 JUMP JUMPDEST DUP11 PUSH2 0x359D JUMP JUMPDEST SWAP1 POP PUSH2 0x3107 DUP9 DUP3 PUSH2 0x13A9 JUMP JUMPDEST SWAP5 POP POP POP POP POP JUMPDEST SWAP6 SWAP5 POP POP POP POP POP JUMP JUMPDEST PUSH1 0x0 DUP1 PUSH2 0x3124 DUP7 DUP5 PUSH2 0x1E8F JUMP JUMPDEST SWAP1 POP PUSH1 0x0 PUSH2 0x3132 DUP3 DUP8 PUSH2 0x1EF0 JUMP JUMPDEST SWAP1 POP PUSH1 0x0 PUSH2 0x3149 PUSH2 0x3143 DUP4 DUP12 PUSH2 0x3583 JUMP JUMPDEST DUP8 PUSH2 0x35D0 JUMP JUMPDEST SWAP1 POP PUSH1 0x0 PUSH2 0x3157 DUP5 DUP4 PUSH2 0x13A9 JUMP JUMPDEST SWAP1 POP PUSH1 0x0 PUSH2 0x3165 DUP3 DUP9 PUSH2 0x35F0 JUMP JUMPDEST SWAP1 POP PUSH2 0x3171 DUP11 DUP3 PUSH2 0x13A9 JUMP JUMPDEST SWAP12 SWAP11 POP POP POP POP POP POP POP POP POP POP POP JUMP JUMPDEST PUSH1 0x0 DUP1 PUSH2 0x318D DUP5 DUP5 PUSH2 0x1E8F JUMP JUMPDEST SWAP1 POP PUSH1 0x0 PUSH2 0x31A4 PUSH2 0x319E DUP7 DUP9 PUSH2 0x1B56 JUMP JUMPDEST DUP6 PUSH2 0x1E8F JUMP JUMPDEST SWAP1 POP PUSH2 0x1B33 DUP2 DUP4 PUSH2 0x13A9 JUMP JUMPDEST PUSH1 0x0 DUP3 PUSH2 0x31C8 JUMPI PUSH2 0x31C1 DUP7 DUP4 PUSH2 0x1E8F JUMP JUMPDEST SWAP1 POP PUSH2 0x310E JUMP JUMPDEST PUSH1 0x0 PUSH2 0x31D4 DUP7 DUP5 PUSH2 0x1E8F JUMP JUMPDEST SWAP1 POP PUSH1 0x0 PUSH2 0x31E5 PUSH2 0x319E DUP9 DUP11 PUSH2 0x1B56 JUMP JUMPDEST SWAP1 POP PUSH1 0x0 PUSH2 0x31F3 DUP3 DUP5 PUSH2 0x13A9 JUMP JUMPDEST SWAP1 POP PUSH1 0x0 PUSH2 0x3201 DUP5 DUP10 PUSH2 0x1EF0 JUMP JUMPDEST SWAP1 POP PUSH2 0x3107 PUSH2 0x3210 DUP9 DUP5 PUSH2 0x3583 JUMP JUMPDEST DUP3 PUSH2 0x35D0 JUMP JUMPDEST PUSH1 0x0 DUP1 PUSH2 0x3223 DUP5 DUP5 PUSH2 0x1E8F JUMP JUMPDEST SWAP1 POP PUSH1 0x0 PUSH2 0x3231 DUP3 DUP8 PUSH2 0x13A9 JUMP JUMPDEST SWAP1 POP PUSH1 0x0 PUSH2 0x323F DUP3 DUP7 PUSH2 0x35F0 JUMP JUMPDEST SWAP1 POP PUSH2 0x324B DUP7 DUP3 PUSH2 0x13A9 JUMP JUMPDEST SWAP8 SWAP7 POP POP POP POP POP POP POP JUMP JUMPDEST PUSH1 0x0 DUP3 PUSH2 0x3264 JUMPI POP DUP5 PUSH2 0x310E JUMP JUMPDEST PUSH1 0x0 PUSH2 0x3270 DUP7 DUP5 PUSH2 0x1E8F JUMP JUMPDEST SWAP1 POP PUSH1 0x0 PUSH2 0x327E DUP3 DUP8 PUSH2 0x1EF0 JUMP JUMPDEST SWAP1 POP PUSH1 0x0 PUSH2 0x328C DUP8 DUP11 PUSH2 0x1B56 JUMP JUMPDEST SWAP1 POP PUSH1 0x0 PUSH2 0x329A DUP5 DUP4 PUSH2 0x1EF0 JUMP JUMPDEST SWAP1 POP PUSH1 0x0 PUSH2 0x32B1 PUSH2 0x32AB DUP10 DUP5 PUSH2 0x3583 JUMP JUMPDEST DUP6 PUSH2 0x35D0 JUMP JUMPDEST SWAP1 POP PUSH2 0x3171 DUP2 DUP10 PUSH2 0x13A9 JUMP JUMPDEST PUSH1 0x0 DUP3 PUSH2 0x32CB JUMPI POP DUP5 PUSH2 0x310E JUMP JUMPDEST PUSH1 0x0 PUSH2 0x32D7 DUP7 DUP5 PUSH2 0x1E8F JUMP JUMPDEST SWAP1 POP PUSH1 0x0 PUSH2 0x32E5 DUP3 DUP8 PUSH2 0x1EF0 JUMP JUMPDEST SWAP1 POP PUSH1 0x0 PUSH2 0x32F3 DUP7 DUP11 PUSH2 0x1B56 JUMP JUMPDEST SWAP1 POP PUSH1 0x0 PUSH2 0x3308 DUP5 PUSH2 0x22E7 PUSH2 0x30F5 DUP6 DUP8 PUSH2 0x3583 JUMP JUMPDEST SWAP1 POP PUSH2 0x3107 DUP2 DUP10 PUSH2 0x13A9 JUMP JUMPDEST PUSH1 0x0 DUP3 PUSH2 0x3325 JUMPI PUSH2 0x31C1 DUP7 DUP4 PUSH2 0x35F0 JUMP JUMPDEST PUSH1 0x0 PUSH2 0x3331 DUP7 DUP5 PUSH2 0x1E8F JUMP JUMPDEST SWAP1 POP PUSH1 0x0 PUSH2 0x333F DUP3 DUP8 PUSH2 0x1EF0 JUMP JUMPDEST SWAP1 POP PUSH1 0x0 PUSH2 0x3356 PUSH2 0x3350 DUP4 DUP12 PUSH2 0x3583 JUMP JUMPDEST DUP8 PUSH2 0x359D JUMP JUMPDEST SWAP1 POP PUSH1 0x0 PUSH2 0x3364 DUP5 DUP4 PUSH2 0x1B56 JUMP JUMPDEST SWAP1 POP PUSH1 0x0 PUSH2 0x3372 DUP3 DUP9 PUSH2 0x35F0 JUMP JUMPDEST SWAP1 POP PUSH2 0x3171 DUP2 DUP12 PUSH2 0x13A9 JUMP JUMPDEST PUSH1 0x0 DUP1 PUSH2 0x338B DUP5 DUP5 PUSH2 0x1E8F JUMP JUMPDEST SWAP1 POP PUSH1 0x0 PUSH2 0x339C PUSH2 0x319E DUP7 DUP9 PUSH2 0x13A9 JUMP JUMPDEST SWAP1 POP PUSH2 0x1B33 DUP3 DUP3 PUSH2 0x13A9 JUMP JUMPDEST PUSH1 0x0 DUP1 PUSH2 0x33B5 DUP7 DUP5 PUSH2 0x1E8F JUMP JUMPDEST SWAP1 POP PUSH1 0x0 PUSH2 0x33C6 PUSH2 0x319E DUP9 DUP11 PUSH2 0x13A9 JUMP JUMPDEST SWAP1 POP PUSH1 0x0 PUSH2 0x33D4 DUP4 DUP4 PUSH2 0x13A9 JUMP JUMPDEST SWAP1 POP PUSH1 0x0 PUSH2 0x33E2 DUP5 DUP10 PUSH2 0x1EF0 JUMP JUMPDEST SWAP1 POP PUSH2 0x3107 PUSH2 0x33F1 DUP9 DUP5 PUSH2 0x3583 JUMP JUMPDEST DUP3 PUSH2 0x359D JUMP JUMPDEST PUSH1 0x0 DUP1 PUSH2 0x3404 DUP5 DUP5 PUSH2 0x1E8F JUMP JUMPDEST SWAP1 POP PUSH1 0x0 PUSH2 0x3412 DUP3 DUP8 PUSH2 0x1B56 JUMP JUMPDEST SWAP1 POP PUSH1 0x0 PUSH2 0x3420 DUP3 DUP7 PUSH2 0x35F0 JUMP JUMPDEST SWAP1 POP PUSH2 0x324B DUP2 DUP8 PUSH2 0x13A9 JUMP JUMPDEST PUSH1 0x0 DUP1 PUSH2 0x3439 DUP7 DUP5 PUSH2 0x1E8F JUMP JUMPDEST SWAP1 POP PUSH1 0x0 PUSH2 0x3447 DUP3 DUP8 PUSH2 0x1EF0 JUMP JUMPDEST SWAP1 POP PUSH1 0x0 PUSH2 0x3455 DUP8 DUP11 PUSH2 0x13A9 JUMP JUMPDEST SWAP1 POP PUSH1 0x0 PUSH2 0x3463 DUP5 DUP4 PUSH2 0x1EF0 JUMP JUMPDEST SWAP1 POP PUSH1 0x0 PUSH2 0x3474 PUSH2 0x32AB DUP10 DUP5 PUSH2 0x3583 JUMP JUMPDEST SWAP1 POP PUSH2 0x3171 DUP9 DUP3 PUSH2 0x13A9 JUMP JUMPDEST PUSH1 0x0 PUSH2 0x3492 PUSH4 0x4F888407 PUSH1 0xE1 SHL PUSH2 0xDD5 JUMP JUMPDEST DUP3 EQ DUP1 PUSH2 0x720 JUMPI POP PUSH2 0x720 DUP3 PUSH2 0x3680 JUMP JUMPDEST PUSH1 0x0 DUP2 DUP1 PUSH1 0x20 ADD SWAP1 MLOAD DUP2 ADD SWAP1 PUSH2 0x80B SWAP2 SWAP1 PUSH2 0x3BE3 JUMP JUMPDEST PUSH1 0x60 PUSH1 0x0 PUSH2 0x34C7 DUP6 DUP6 PUSH2 0x28D4 JUMP JUMPDEST SWAP1 POP PUSH1 0x60 DUP7 MLOAD PUSH8 0xFFFFFFFFFFFFFFFF DUP2 GT DUP1 ISZERO PUSH2 0x34E3 JUMPI PUSH1 0x0 DUP1 REVERT JUMPDEST POP PUSH1 0x40 MLOAD SWAP1 DUP1 DUP3 MSTORE DUP1 PUSH1 0x20 MUL PUSH1 0x20 ADD DUP3 ADD PUSH1 0x40 MSTORE DUP1 ISZERO PUSH2 0x350D JUMPI DUP2 PUSH1 0x20 ADD PUSH1 0x20 DUP3 MUL DUP1 CALLDATASIZE DUP4 CALLDATACOPY ADD SWAP1 POP JUMPDEST POP SWAP1 POP PUSH1 0x0 JUMPDEST DUP8 MLOAD DUP2 LT ISZERO PUSH2 0x356A JUMPI DUP5 DUP2 EQ PUSH2 0x3562 JUMPI PUSH2 0x3549 DUP4 DUP10 DUP4 DUP2 MLOAD DUP2 LT PUSH2 0x3533 JUMPI INVALID JUMPDEST PUSH1 0x20 MUL PUSH1 0x20 ADD ADD MLOAD PUSH2 0x246C SWAP1 SWAP2 SWAP1 PUSH4 0xFFFFFFFF AND JUMP JUMPDEST DUP3 DUP3 DUP2 MLOAD DUP2 LT PUSH2 0x3555 JUMPI INVALID JUMPDEST PUSH1 0x20 MUL PUSH1 0x20 ADD ADD DUP2 DUP2 MSTORE POP POP JUMPDEST PUSH1 0x1 ADD PUSH2 0x3513 JUMP JUMPDEST POP SWAP7 SWAP6 POP POP POP POP POP POP JUMP JUMPDEST PUSH1 0x0 PUSH2 0x80B DUP4 DUP4 PUSH1 0x1 PUSH2 0x2E22 JUMP JUMPDEST PUSH1 0x0 DUP3 DUP3 MUL PUSH2 0x80B DUP5 ISZERO DUP1 PUSH2 0x2489 JUMPI POP DUP4 DUP6 DUP4 DUP2 PUSH2 0x2486 JUMPI INVALID JUMPDEST PUSH1 0x0 PUSH2 0x35AC DUP3 ISZERO ISZERO PUSH1 0x4 PUSH2 0x13DE JUMP JUMPDEST DUP3 PUSH2 0x35B9 JUMPI POP PUSH1 0x0 PUSH2 0x720 JUMP JUMPDEST DUP2 PUSH1 0x1 DUP5 SUB DUP2 PUSH2 0x35C5 JUMPI INVALID JUMPDEST DIV PUSH1 0x1 ADD SWAP1 POP PUSH2 0x720 JUMP JUMPDEST PUSH1 0x0 PUSH2 0x35DF DUP3 ISZERO ISZERO PUSH1 0x4 PUSH2 0x13DE JUMP JUMPDEST DUP2 DUP4 DUP2 PUSH2 0x35E8 JUMPI INVALID JUMPDEST DIV SWAP4 SWAP3 POP POP POP JUMP JUMPDEST PUSH1 0x0 DUP2 PUSH1 0x20 ADD MLOAD DUP4 LT ISZERO PUSH2 0x3639 JUMPI DUP2 MLOAD PUSH2 0x1265 SWAP1 PUSH2 0x3617 SWAP1 PUSH8 0xDE0B6B3A7640000 SWAP1 PUSH2 0x1B56 JUMP JUMPDEST PUSH1 0x20 DUP5 ADD MLOAD DUP5 MLOAD PUSH2 0x3633 SWAP2 PUSH2 0x362C SWAP2 SWAP1 PUSH2 0x246C JUMP JUMPDEST DUP7 SWAP1 PUSH2 0x1B56 JUMP JUMPDEST SWAP1 PUSH2 0x28D4 JUMP JUMPDEST DUP2 PUSH1 0x40 ADD MLOAD DUP4 GT PUSH2 0x364B JUMPI POP DUP2 PUSH2 0x720 JUMP JUMPDEST DUP2 MLOAD PUSH2 0x1265 SWAP1 PUSH2 0x3664 SWAP1 PUSH8 0xDE0B6B3A7640000 SWAP1 PUSH2 0x13A9 JUMP JUMPDEST PUSH1 0x40 DUP5 ADD MLOAD DUP5 MLOAD PUSH2 0x3633 SWAP2 PUSH2 0x3679 SWAP2 SWAP1 PUSH2 0x246C JUMP JUMPDEST DUP7 SWAP1 PUSH2 0x13A9 JUMP JUMPDEST PUSH1 0x0 PUSH2 0x3692 PUSH4 0x1C74C917 PUSH1 0xE1 SHL PUSH2 0xDD5 JUMP JUMPDEST DUP3 EQ DUP1 PUSH2 0x720 JUMPI POP PUSH2 0x36AA PUSH4 0x50DD6ED9 PUSH1 0xE0 SHL PUSH2 0xDD5 JUMP JUMPDEST SWAP1 SWAP2 EQ SWAP2 SWAP1 POP JUMP JUMPDEST PUSH1 0x40 MLOAD DUP1 PUSH1 0x60 ADD PUSH1 0x40 MSTORE DUP1 PUSH1 0x0 DUP2 MSTORE PUSH1 0x20 ADD PUSH1 0x0 DUP2 MSTORE PUSH1 0x20 ADD PUSH1 0x0 DUP2 MSTORE POP SWAP1 JUMP JUMPDEST PUSH1 0x40 MLOAD DUP1 PUSH1 0x80 ADD PUSH1 0x40 MSTORE DUP1 PUSH1 0x60 DUP2 MSTORE PUSH1 0x20 ADD PUSH1 0x60 DUP2 MSTORE PUSH1 0x20 ADD PUSH1 0x60 DUP2 MSTORE PUSH1 0x20 ADD PUSH1 0x0 ISZERO ISZERO DUP2 MSTORE POP SWAP1 JUMP JUMPDEST DUP1 CALLDATALOAD PUSH2 0x720 DUP2 PUSH2 0x4133 JUMP JUMPDEST PUSH1 0x0 DUP3 PUSH1 0x1F DUP4 ADD SLT PUSH2 0x3718 JUMPI DUP1 DUP2 REVERT JUMPDEST DUP2 CALLDATALOAD PUSH2 0x372B PUSH2 0x3726 DUP3 PUSH2 0x4107 JUMP JUMPDEST PUSH2 0x40E0 JUMP JUMPDEST DUP2 DUP2 MSTORE SWAP2 POP PUSH1 0x20 DUP1 DUP4 ADD SWAP1 DUP5 DUP2 ADD DUP2 DUP5 MUL DUP7 ADD DUP3 ADD DUP8 LT ISZERO PUSH2 0x374C JUMPI PUSH1 0x0 DUP1 REVERT JUMPDEST PUSH1 0x0 JUMPDEST DUP5 DUP2 LT ISZERO PUSH2 0x376B JUMPI DUP2 CALLDATALOAD DUP5 MSTORE SWAP3 DUP3 ADD SWAP3 SWAP1 DUP3 ADD SWAP1 PUSH1 0x1 ADD PUSH2 0x374F JUMP JUMPDEST POP POP POP POP POP SWAP3 SWAP2 POP POP JUMP JUMPDEST PUSH1 0x0 DUP3 PUSH1 0x1F DUP4 ADD SLT PUSH2 0x3786 JUMPI DUP1 DUP2 REVERT JUMPDEST DUP2 MLOAD PUSH2 0x3794 PUSH2 0x3726 DUP3 PUSH2 0x4107 JUMP JUMPDEST DUP2 DUP2 MSTORE SWAP2 POP PUSH1 0x20 DUP1 DUP4 ADD SWAP1 DUP5 DUP2 ADD DUP2 DUP5 MUL DUP7 ADD DUP3 ADD DUP8 LT ISZERO PUSH2 0x37B5 JUMPI PUSH1 0x0 DUP1 REVERT JUMPDEST PUSH1 0x0 JUMPDEST DUP5 DUP2 LT ISZERO PUSH2 0x376B JUMPI DUP2 MLOAD DUP5 MSTORE SWAP3 DUP3 ADD SWAP3 SWAP1 DUP3 ADD SWAP1 PUSH1 0x1 ADD PUSH2 0x37B8 JUMP JUMPDEST PUSH1 0x0 DUP3 PUSH1 0x1F DUP4 ADD SLT PUSH2 0x37E4 JUMPI DUP1 DUP2 REVERT JUMPDEST DUP2 CALLDATALOAD PUSH8 0xFFFFFFFFFFFFFFFF DUP2 GT ISZERO PUSH2 0x37FA JUMPI DUP2 DUP3 REVERT JUMPDEST PUSH2 0x380D PUSH1 0x1F DUP3 ADD PUSH1 0x1F NOT AND PUSH1 0x20 ADD PUSH2 0x40E0 JUMP JUMPDEST SWAP2 POP DUP1 DUP3 MSTORE DUP4 PUSH1 0x20 DUP3 DUP6 ADD ADD GT ISZERO PUSH2 0x3824 JUMPI PUSH1 0x0 DUP1 REVERT JUMPDEST DUP1 PUSH1 0x20 DUP5 ADD PUSH1 0x20 DUP5 ADD CALLDATACOPY PUSH1 0x0 SWAP1 DUP3 ADD PUSH1 0x20 ADD MSTORE SWAP3 SWAP2 POP POP JUMP JUMPDEST DUP1 MLOAD PUSH1 0x1 DUP2 LT PUSH2 0x720 JUMPI PUSH1 0x0 DUP1 REVERT JUMPDEST DUP1 CALLDATALOAD PUSH1 0x2 DUP2 LT PUSH2 0x720 JUMPI PUSH1 0x0 DUP1 REVERT JUMPDEST PUSH1 0x0 PUSH1 0x20 DUP3 DUP5 SUB SLT ISZERO PUSH2 0x386C JUMPI DUP1 DUP2 REVERT JUMPDEST DUP2 CALLDATALOAD PUSH2 0x80B DUP2 PUSH2 0x4133 JUMP JUMPDEST PUSH1 0x0 DUP1 PUSH1 0x40 DUP4 DUP6 SUB SLT ISZERO PUSH2 0x3889 JUMPI DUP1 DUP2 REVERT JUMPDEST DUP3 CALLDATALOAD PUSH2 0x3894 DUP2 PUSH2 0x4133 JUMP JUMPDEST SWAP2 POP PUSH1 0x20 DUP4 ADD CALLDATALOAD PUSH2 0x38A4 DUP2 PUSH2 0x4133 JUMP JUMPDEST DUP1 SWAP2 POP POP SWAP3 POP SWAP3 SWAP1 POP JUMP JUMPDEST PUSH1 0x0 DUP1 PUSH1 0x0 PUSH1 0x60 DUP5 DUP7 SUB SLT ISZERO PUSH2 0x38C3 JUMPI DUP1 DUP2 REVERT JUMPDEST DUP4 CALLDATALOAD PUSH2 0x38CE DUP2 PUSH2 0x4133 JUMP JUMPDEST SWAP3 POP PUSH1 0x20 DUP5 ADD CALLDATALOAD PUSH2 0x38DE DUP2 PUSH2 0x4133 JUMP JUMPDEST SWAP3 SWAP6 SWAP3 SWAP5 POP POP POP PUSH1 0x40 SWAP2 SWAP1 SWAP2 ADD CALLDATALOAD SWAP1 JUMP JUMPDEST PUSH1 0x0 DUP1 PUSH1 0x0 DUP1 PUSH1 0x0 DUP1 PUSH1 0x0 PUSH1 0xE0 DUP9 DUP11 SUB SLT ISZERO PUSH2 0x3909 JUMPI DUP3 DUP4 REVERT JUMPDEST DUP8 CALLDATALOAD PUSH2 0x3914 DUP2 PUSH2 0x4133 JUMP JUMPDEST SWAP7 POP PUSH1 0x20 DUP9 ADD CALLDATALOAD PUSH2 0x3924 DUP2 PUSH2 0x4133 JUMP JUMPDEST SWAP6 POP PUSH1 0x40 DUP9 ADD CALLDATALOAD SWAP5 POP PUSH1 0x60 DUP9 ADD CALLDATALOAD SWAP4 POP PUSH1 0x80 DUP9 ADD CALLDATALOAD PUSH1 0xFF DUP2 AND DUP2 EQ PUSH2 0x3947 JUMPI DUP4 DUP5 REVERT JUMPDEST SWAP7 SWAP10 SWAP6 SWAP9 POP SWAP4 SWAP7 SWAP3 SWAP6 SWAP5 PUSH1 0xA0 DUP5 ADD CALLDATALOAD SWAP5 POP PUSH1 0xC0 SWAP1 SWAP4 ADD CALLDATALOAD SWAP3 SWAP2 POP POP JUMP JUMPDEST PUSH1 0x0 DUP1 PUSH1 0x40 DUP4 DUP6 SUB SLT ISZERO PUSH2 0x3976 JUMPI DUP2 DUP3 REVERT JUMPDEST DUP3 CALLDATALOAD PUSH2 0x3981 DUP2 PUSH2 0x4133 JUMP JUMPDEST SWAP5 PUSH1 0x20 SWAP4 SWAP1 SWAP4 ADD CALLDATALOAD SWAP4 POP POP POP JUMP JUMPDEST PUSH1 0x0 DUP1 PUSH1 0x0 PUSH1 0x60 DUP5 DUP7 SUB SLT ISZERO PUSH2 0x39A3 JUMPI DUP1 DUP2 REVERT JUMPDEST DUP4 MLOAD PUSH8 0xFFFFFFFFFFFFFFFF DUP1 DUP3 GT ISZERO PUSH2 0x39BA JUMPI DUP3 DUP4 REVERT JUMPDEST DUP2 DUP7 ADD SWAP2 POP DUP7 PUSH1 0x1F DUP4 ADD SLT PUSH2 0x39CD JUMPI DUP3 DUP4 REVERT JUMPDEST DUP2 MLOAD PUSH2 0x39DB PUSH2 0x3726 DUP3 PUSH2 0x4107 JUMP JUMPDEST DUP1 DUP3 DUP3 MSTORE PUSH1 0x20 DUP1 DUP4 ADD SWAP3 POP DUP1 DUP7 ADD DUP12 DUP3 DUP4 DUP8 MUL DUP10 ADD ADD GT ISZERO PUSH2 0x39FB JUMPI DUP8 DUP9 REVERT JUMPDEST DUP8 SWAP7 POP JUMPDEST DUP5 DUP8 LT ISZERO PUSH2 0x3A26 JUMPI DUP1 MLOAD PUSH2 0x3A12 DUP2 PUSH2 0x4133 JUMP JUMPDEST DUP5 MSTORE PUSH1 0x1 SWAP7 SWAP1 SWAP7 ADD SWAP6 SWAP3 DUP2 ADD SWAP3 DUP2 ADD PUSH2 0x39FF JUMP JUMPDEST POP DUP10 ADD MLOAD SWAP1 SWAP8 POP SWAP4 POP POP POP DUP1 DUP3 GT ISZERO PUSH2 0x3A3D JUMPI DUP3 DUP4 REVERT JUMPDEST POP PUSH2 0x3A4A DUP7 DUP3 DUP8 ADD PUSH2 0x3776 JUMP JUMPDEST SWAP3 POP POP PUSH1 0x40 DUP5 ADD MLOAD SWAP1 POP SWAP3 POP SWAP3 POP SWAP3 JUMP JUMPDEST PUSH1 0x0 PUSH1 0x20 DUP3 DUP5 SUB SLT ISZERO PUSH2 0x3A6C JUMPI DUP1 DUP2 REVERT JUMPDEST DUP2 CALLDATALOAD PUSH2 0x80B DUP2 PUSH2 0x4148 JUMP JUMPDEST PUSH1 0x0 PUSH1 0x20 DUP3 DUP5 SUB SLT ISZERO PUSH2 0x3A88 JUMPI DUP1 DUP2 REVERT JUMPDEST DUP2 MLOAD PUSH2 0x80B DUP2 PUSH2 0x4148 JUMP JUMPDEST PUSH1 0x0 DUP1 PUSH1 0x0 DUP1 PUSH1 0x0 DUP1 PUSH1 0x0 PUSH1 0xE0 DUP9 DUP11 SUB SLT ISZERO PUSH2 0x3AAD JUMPI DUP1 DUP2 REVERT JUMPDEST DUP8 CALLDATALOAD SWAP7 POP PUSH1 0x20 DUP9 ADD CALLDATALOAD PUSH2 0x3ABF DUP2 PUSH2 0x4133 JUMP JUMPDEST SWAP6 POP PUSH1 0x40 DUP9 ADD CALLDATALOAD PUSH2 0x3ACF DUP2 PUSH2 0x4133 JUMP JUMPDEST SWAP5 POP PUSH1 0x60 DUP9 ADD CALLDATALOAD PUSH8 0xFFFFFFFFFFFFFFFF DUP1 DUP3 GT ISZERO PUSH2 0x3AEB JUMPI DUP3 DUP4 REVERT JUMPDEST PUSH2 0x3AF7 DUP12 DUP4 DUP13 ADD PUSH2 0x3708 JUMP JUMPDEST SWAP6 POP PUSH1 0x80 DUP11 ADD CALLDATALOAD SWAP5 POP PUSH1 0xA0 DUP11 ADD CALLDATALOAD SWAP4 POP PUSH1 0xC0 DUP11 ADD CALLDATALOAD SWAP2 POP DUP1 DUP3 GT ISZERO PUSH2 0x3B1A JUMPI DUP3 DUP4 REVERT JUMPDEST POP PUSH2 0x3B27 DUP11 DUP3 DUP12 ADD PUSH2 0x37D4 JUMP JUMPDEST SWAP2 POP POP SWAP3 SWAP6 SWAP9 SWAP2 SWAP5 SWAP8 POP SWAP3 SWAP6 POP JUMP JUMPDEST PUSH1 0x0 PUSH1 0x20 DUP3 DUP5 SUB SLT ISZERO PUSH2 0x3B47 JUMPI DUP1 DUP2 REVERT JUMPDEST DUP2 CALLDATALOAD PUSH1 0x1 PUSH1 0x1 PUSH1 0xE0 SHL SUB NOT DUP2 AND DUP2 EQ PUSH2 0x80B JUMPI DUP2 DUP3 REVERT JUMPDEST PUSH1 0x0 PUSH1 0x20 DUP3 DUP5 SUB SLT ISZERO PUSH2 0x3B6F JUMPI DUP1 DUP2 REVERT JUMPDEST DUP2 MLOAD PUSH2 0x80B DUP2 PUSH2 0x4133 JUMP JUMPDEST PUSH1 0x0 DUP1 PUSH1 0x40 DUP4 DUP6 SUB SLT ISZERO PUSH2 0x3B8C JUMPI DUP2 DUP3 REVERT JUMPDEST DUP3 CALLDATALOAD PUSH2 0x3B97 DUP2 PUSH2 0x4133 JUMP JUMPDEST SWAP2 POP PUSH1 0x20 DUP4 ADD CALLDATALOAD PUSH8 0xFFFFFFFFFFFFFFFF DUP2 GT ISZERO PUSH2 0x3BB2 JUMPI DUP2 DUP3 REVERT JUMPDEST PUSH2 0x3BBE DUP6 DUP3 DUP7 ADD PUSH2 0x37D4 JUMP JUMPDEST SWAP2 POP POP SWAP3 POP SWAP3 SWAP1 POP JUMP JUMPDEST PUSH1 0x0 PUSH1 0x20 DUP3 DUP5 SUB SLT ISZERO PUSH2 0x3BD9 JUMPI DUP1 DUP2 REVERT JUMPDEST PUSH2 0x80B DUP4 DUP4 PUSH2 0x383D JUMP JUMPDEST PUSH1 0x0 DUP1 PUSH1 0x40 DUP4 DUP6 SUB SLT ISZERO PUSH2 0x3BF5 JUMPI DUP2 DUP3 REVERT JUMPDEST PUSH2 0x3BFF DUP5 DUP5 PUSH2 0x383D JUMP JUMPDEST SWAP2 POP PUSH1 0x20 DUP4 ADD MLOAD SWAP1 POP SWAP3 POP SWAP3 SWAP1 POP JUMP JUMPDEST PUSH1 0x0 DUP1 PUSH1 0x0 DUP1 PUSH1 0x80 DUP6 DUP8 SUB SLT ISZERO PUSH2 0x3C24 JUMPI DUP2 DUP3 REVERT JUMPDEST DUP5 CALLDATALOAD PUSH8 0xFFFFFFFFFFFFFFFF DUP1 DUP3 GT ISZERO PUSH2 0x3C3B JUMPI DUP4 DUP5 REVERT JUMPDEST DUP2 DUP8 ADD SWAP2 POP PUSH2 0x120 DUP1 DUP4 DUP11 SUB SLT ISZERO PUSH2 0x3C51 JUMPI DUP5 DUP6 REVERT JUMPDEST PUSH2 0x3C5A DUP2 PUSH2 0x40E0 JUMP JUMPDEST SWAP1 POP PUSH2 0x3C66 DUP10 DUP5 PUSH2 0x384C JUMP JUMPDEST DUP2 MSTORE PUSH2 0x3C75 DUP10 PUSH1 0x20 DUP6 ADD PUSH2 0x36FD JUMP JUMPDEST PUSH1 0x20 DUP3 ADD MSTORE PUSH2 0x3C87 DUP10 PUSH1 0x40 DUP6 ADD PUSH2 0x36FD JUMP JUMPDEST PUSH1 0x40 DUP3 ADD MSTORE PUSH1 0x60 DUP4 ADD CALLDATALOAD PUSH1 0x60 DUP3 ADD MSTORE PUSH1 0x80 DUP4 ADD CALLDATALOAD PUSH1 0x80 DUP3 ADD MSTORE PUSH1 0xA0 DUP4 ADD CALLDATALOAD PUSH1 0xA0 DUP3 ADD MSTORE PUSH2 0x3CB7 DUP10 PUSH1 0xC0 DUP6 ADD PUSH2 0x36FD JUMP JUMPDEST PUSH1 0xC0 DUP3 ADD MSTORE PUSH2 0x3CC9 DUP10 PUSH1 0xE0 DUP6 ADD PUSH2 0x36FD JUMP JUMPDEST PUSH1 0xE0 DUP3 ADD MSTORE PUSH2 0x100 DUP1 DUP5 ADD CALLDATALOAD DUP4 DUP2 GT ISZERO PUSH2 0x3CE1 JUMPI DUP7 DUP8 REVERT JUMPDEST PUSH2 0x3CED DUP12 DUP3 DUP8 ADD PUSH2 0x37D4 JUMP JUMPDEST DUP3 DUP5 ADD MSTORE POP POP DUP1 SWAP7 POP POP PUSH1 0x20 DUP8 ADD CALLDATALOAD SWAP2 POP DUP1 DUP3 GT ISZERO PUSH2 0x3D0A JUMPI DUP4 DUP5 REVERT JUMPDEST POP PUSH2 0x3D17 DUP8 DUP3 DUP9 ADD PUSH2 0x3708 JUMP JUMPDEST SWAP5 SWAP8 SWAP5 SWAP7 POP POP POP POP PUSH1 0x40 DUP4 ADD CALLDATALOAD SWAP3 PUSH1 0x60 ADD CALLDATALOAD SWAP2 SWAP1 POP JUMP JUMPDEST PUSH1 0x0 PUSH1 0x20 DUP3 DUP5 SUB SLT ISZERO PUSH2 0x3D3F JUMPI DUP1 DUP2 REVERT JUMPDEST POP CALLDATALOAD SWAP2 SWAP1 POP JUMP JUMPDEST PUSH1 0x0 PUSH1 0x20 DUP3 DUP5 SUB SLT ISZERO PUSH2 0x3D57 JUMPI DUP1 DUP2 REVERT JUMPDEST POP MLOAD SWAP2 SWAP1 POP JUMP JUMPDEST PUSH1 0x0 DUP1 PUSH1 0x40 DUP4 DUP6 SUB SLT ISZERO PUSH2 0x3D70 JUMPI DUP2 DUP3 REVERT JUMPDEST POP POP DUP1 CALLDATALOAD SWAP3 PUSH1 0x20 SWAP1 SWAP2 ADD CALLDATALOAD SWAP2 POP JUMP JUMPDEST PUSH1 0x0 DUP1 PUSH1 0x0 DUP1 PUSH1 0x80 DUP6 DUP8 SUB SLT ISZERO PUSH2 0x3D94 JUMPI DUP2 DUP3 REVERT JUMPDEST DUP5 MLOAD SWAP4 POP PUSH1 0x20 DUP6 ADD MLOAD SWAP3 POP PUSH1 0x40 DUP6 ADD MLOAD SWAP2 POP PUSH1 0x60 DUP6 ADD MLOAD PUSH2 0x3DB4 DUP2 PUSH2 0x4133 JUMP JUMPDEST SWAP4 SWAP7 SWAP3 SWAP6 POP SWAP1 SWAP4 POP POP JUMP JUMPDEST PUSH1 0x0 DUP2 MLOAD DUP1 DUP5 MSTORE PUSH1 0x20 DUP1 DUP6 ADD SWAP5 POP DUP1 DUP5 ADD DUP4 JUMPDEST DUP4 DUP2 LT ISZERO PUSH2 0x3DEE JUMPI DUP2 MLOAD DUP8 MSTORE SWAP6 DUP3 ADD SWAP6 SWAP1 DUP3 ADD SWAP1 PUSH1 0x1 ADD PUSH2 0x3DD2 JUMP JUMPDEST POP SWAP5 SWAP6 SWAP5 POP POP POP POP POP JUMP JUMPDEST ISZERO ISZERO SWAP1 MSTORE JUMP JUMPDEST PUSH1 0x0 DUP2 MLOAD DUP1 DUP5 MSTORE DUP2 JUMPDEST DUP2 DUP2 LT ISZERO PUSH2 0x3E24 JUMPI PUSH1 0x20 DUP2 DUP6 ADD DUP2 ADD MLOAD DUP7 DUP4 ADD DUP3 ADD MSTORE ADD PUSH2 0x3E08 JUMP JUMPDEST DUP2 DUP2 GT ISZERO PUSH2 0x3E35 JUMPI DUP3 PUSH1 0x20 DUP4 DUP8 ADD ADD MSTORE JUMPDEST POP PUSH1 0x1F ADD PUSH1 0x1F NOT AND SWAP3 SWAP1 SWAP3 ADD PUSH1 0x20 ADD SWAP3 SWAP2 POP POP JUMP JUMPDEST SWAP2 DUP3 MSTORE PUSH1 0x1 PUSH1 0x1 PUSH1 0xE0 SHL SUB NOT AND PUSH1 0x20 DUP3 ADD MSTORE PUSH1 0x24 ADD SWAP1 JUMP JUMPDEST PUSH1 0x0 DUP3 DUP5 DUP4 CALLDATACOPY SWAP2 ADD SWAP1 DUP2 MSTORE SWAP2 SWAP1 POP JUMP JUMPDEST PUSH2 0x1901 PUSH1 0xF0 SHL DUP2 MSTORE PUSH1 0x2 DUP2 ADD SWAP3 SWAP1 SWAP3 MSTORE PUSH1 0x22 DUP3 ADD MSTORE PUSH1 0x42 ADD SWAP1 JUMP JUMPDEST PUSH1 0x1 PUSH1 0x1 PUSH1 0xA0 SHL SUB SWAP2 SWAP1 SWAP2 AND DUP2 MSTORE PUSH1 0x20 ADD SWAP1 JUMP JUMPDEST PUSH1 0x0 PUSH1 0x20 DUP3 MSTORE PUSH2 0x80B PUSH1 0x20 DUP4 ADD DUP5 PUSH2 0x3DBF JUMP JUMPDEST PUSH1 0x0 PUSH1 0x40 DUP3 MSTORE PUSH2 0x3EC7 PUSH1 0x40 DUP4 ADD DUP6 PUSH2 0x3DBF JUMP JUMPDEST DUP3 DUP2 SUB PUSH1 0x20 DUP5 ADD MSTORE PUSH2 0x310E DUP2 DUP6 PUSH2 0x3DBF JUMP JUMPDEST SWAP1 ISZERO ISZERO DUP2 MSTORE PUSH1 0x20 ADD SWAP1 JUMP JUMPDEST SWAP3 ISZERO ISZERO DUP4 MSTORE PUSH1 0x20 DUP4 ADD SWAP2 SWAP1 SWAP2 MSTORE PUSH1 0x40 DUP3 ADD MSTORE PUSH1 0x60 ADD SWAP1 JUMP JUMPDEST SWAP1 DUP2 MSTORE PUSH1 0x20 ADD SWAP1 JUMP JUMPDEST SWAP3 DUP4 MSTORE PUSH1 0x1 PUSH1 0x1 PUSH1 0xA0 SHL SUB SWAP2 DUP3 AND PUSH1 0x20 DUP5 ADD MSTORE AND PUSH1 0x40 DUP3 ADD MSTORE PUSH1 0x60 ADD SWAP1 JUMP JUMPDEST DUP5 DUP2 MSTORE PUSH1 0x1 PUSH1 0x1 PUSH1 0xA0 SHL SUB DUP5 DUP2 AND PUSH1 0x20 DUP1 DUP5 ADD SWAP2 SWAP1 SWAP2 MSTORE SWAP1 DUP5 AND PUSH1 0x40 DUP4 ADD MSTORE PUSH1 0x80 PUSH1 0x60 DUP4 ADD DUP2 SWAP1 MSTORE DUP4 MLOAD DUP2 DUP5 ADD SWAP2 SWAP1 SWAP2 MSTORE DUP1 MLOAD PUSH2 0x100 DUP5 ADD DUP2 SWAP1 MSTORE PUSH1 0x0 SWAP3 SWAP2 DUP3 ADD SWAP1 DUP4 SWAP1 PUSH2 0x120 DUP7 ADD SWAP1 JUMPDEST DUP1 DUP4 LT ISZERO PUSH2 0x3F97 JUMPI PUSH2 0x3F81 DUP5 MLOAD PUSH2 0x4127 JUMP JUMPDEST DUP3 MSTORE SWAP3 DUP5 ADD SWAP3 PUSH1 0x1 SWAP3 SWAP1 SWAP3 ADD SWAP2 SWAP1 DUP5 ADD SWAP1 PUSH2 0x3F6F JUMP JUMPDEST POP DUP4 DUP8 ADD MLOAD SWAP4 POP PUSH1 0x7F NOT SWAP3 POP DUP3 DUP7 DUP3 SUB ADD PUSH1 0xA0 DUP8 ADD MSTORE PUSH2 0x3FB7 DUP2 DUP6 PUSH2 0x3DBF JUMP JUMPDEST SWAP4 POP POP POP PUSH1 0x40 DUP6 ADD MLOAD DUP2 DUP6 DUP5 SUB ADD PUSH1 0xC0 DUP7 ADD MSTORE PUSH2 0x3FD4 DUP4 DUP3 PUSH2 0x3DFF JUMP JUMPDEST SWAP3 POP POP POP PUSH1 0x60 DUP5 ADD MLOAD PUSH2 0x356A PUSH1 0xE0 DUP6 ADD DUP3 PUSH2 0x3DF9 JUMP JUMPDEST SWAP6 DUP7 MSTORE PUSH1 0x1 PUSH1 0x1 PUSH1 0xA0 SHL SUB SWAP5 DUP6 AND PUSH1 0x20 DUP8 ADD MSTORE SWAP3 SWAP1 SWAP4 AND PUSH1 0x40 DUP6 ADD MSTORE PUSH1 0x60 DUP5 ADD MSTORE PUSH1 0x80 DUP4 ADD SWAP2 SWAP1 SWAP2 MSTORE PUSH1 0xA0 DUP3 ADD MSTORE PUSH1 0xC0 ADD SWAP1 JUMP JUMPDEST SWAP5 DUP6 MSTORE PUSH1 0x20 DUP6 ADD SWAP4 SWAP1 SWAP4 MSTORE PUSH1 0x40 DUP5 ADD SWAP2 SWAP1 SWAP2 MSTORE PUSH1 0x60 DUP4 ADD MSTORE PUSH1 0x1 PUSH1 0x1 PUSH1 0xA0 SHL SUB AND PUSH1 0x80 DUP3 ADD MSTORE PUSH1 0xA0 ADD SWAP1 JUMP JUMPDEST PUSH1 0x0 DUP4 DUP3 MSTORE PUSH1 0x40 PUSH1 0x20 DUP4 ADD MSTORE PUSH2 0x2619 PUSH1 0x40 DUP4 ADD DUP5 PUSH2 0x3DFF JUMP JUMPDEST SWAP2 DUP3 MSTORE PUSH1 0x1 PUSH1 0x1 PUSH1 0xA0 SHL SUB AND PUSH1 0x20 DUP3 ADD MSTORE PUSH1 0x40 ADD SWAP1 JUMP JUMPDEST SWAP4 DUP5 MSTORE PUSH1 0xFF SWAP3 SWAP1 SWAP3 AND PUSH1 0x20 DUP5 ADD MSTORE PUSH1 0x40 DUP4 ADD MSTORE PUSH1 0x60 DUP3 ADD MSTORE PUSH1 0x80 ADD SWAP1 JUMP JUMPDEST PUSH1 0x0 PUSH1 0x20 DUP3 MSTORE PUSH2 0x80B PUSH1 0x20 DUP4 ADD DUP5 PUSH2 0x3DFF JUMP JUMPDEST PUSH1 0x0 DUP4 DUP3 MSTORE PUSH1 0x40 PUSH1 0x20 DUP4 ADD MSTORE PUSH2 0x2619 PUSH1 0x40 DUP4 ADD DUP5 PUSH2 0x3DBF JUMP JUMPDEST SWAP2 DUP3 MSTORE PUSH1 0x20 DUP3 ADD MSTORE PUSH1 0x40 ADD SWAP1 JUMP JUMPDEST PUSH1 0xFF SWAP2 SWAP1 SWAP2 AND DUP2 MSTORE PUSH1 0x20 ADD SWAP1 JUMP JUMPDEST PUSH1 0x40 MLOAD DUP2 DUP2 ADD PUSH8 0xFFFFFFFFFFFFFFFF DUP2 GT DUP3 DUP3 LT OR ISZERO PUSH2 0x40FF JUMPI PUSH1 0x0 DUP1 REVERT JUMPDEST PUSH1 0x40 MSTORE SWAP2 SWAP1 POP JUMP JUMPDEST PUSH1 0x0 PUSH8 0xFFFFFFFFFFFFFFFF DUP3 GT ISZERO PUSH2 0x411D JUMPI DUP1 DUP2 REVERT JUMPDEST POP PUSH1 0x20 SWAP1 DUP2 MUL ADD SWAP1 JUMP JUMPDEST PUSH1 0x1 PUSH1 0x1 PUSH1 0xA0 SHL SUB AND SWAP1 JUMP JUMPDEST PUSH1 0x1 PUSH1 0x1 PUSH1 0xA0 SHL SUB DUP2 AND DUP2 EQ PUSH2 0x75B JUMPI PUSH1 0x0 DUP1 REVERT JUMPDEST DUP1 ISZERO ISZERO DUP2 EQ PUSH2 0x75B JUMPI PUSH1 0x0 DUP1 REVERT INVALID LOG2 PUSH5 0x6970667358 0x22 SLT KECCAK256 0xEA 0x28 0xC1 MUL 0x4C 0x5D JUMPI DELEGATECALL BLOCKHASH 0xB7 0x4B 0xF7 0xA7 0xF6 PUSH15 0x4A479D89BCCF345498B6DF279341F1 0xB2 0xCE PUSH5 0x736F6C6343 STOP SMOD ADD STOP CALLER "
		},
		"gasEstimates": {
			"creation": {
				"codeDepositCost": "403200",
				"executionCost": "infinite",
				"totalCost": "infinite"
			},
			"external": {
				"create(string,string,address,address,uint256,uint256,address)": "infinite",
				"getCreationCode()": "infinite",
				"getCreationCodeContracts()": "infinite",
				"getPauseConfiguration()": "infinite",
				"getVault()": "infinite",
				"isPoolFromFactory(address)": "1345"
			}
		},
		"methodIdentifiers": {
			"create(string,string,address,address,uint256,uint256,address)": "2ccb254a",
			"getCreationCode()": "00c194db",
			"getCreationCodeContracts()": "174481fa",
			"getPauseConfiguration()": "2da47c40",
			"getVault()": "8d928af8",
			"isPoolFromFactory(address)": "6634b753"
		}
	},
	"abi": [
		{
			"inputs": [
				{
					"internalType": "contract IVault",
					"name": "vault",
					"type": "address"
				}
			],
			"stateMutability": "nonpayable",
			"type": "constructor"
		},
		{
			"anonymous": false,
			"inputs": [
				{
					"indexed": true,
					"internalType": "address",
					"name": "pool",
					"type": "address"
				}
			],
			"name": "PoolCreated",
			"type": "event"
		},
		{
			"inputs": [
				{
					"internalType": "string",
					"name": "name",
					"type": "string"
				},
				{
					"internalType": "string",
					"name": "symbol",
					"type": "string"
				},
				{
					"internalType": "contract IERC20",
					"name": "mainToken",
					"type": "address"
				},
				{
					"internalType": "contract IERC20",
					"name": "wrappedToken",
					"type": "address"
				},
				{
					"internalType": "uint256",
					"name": "upperTarget",
					"type": "uint256"
				},
				{
					"internalType": "uint256",
					"name": "swapFeePercentage",
					"type": "uint256"
				},
				{
					"internalType": "address",
					"name": "owner",
					"type": "address"
				}
			],
			"name": "create",
			"outputs": [
				{
					"internalType": "contract LinearPool",
					"name": "",
					"type": "address"
				}
			],
			"stateMutability": "nonpayable",
			"type": "function"
		},
		{
			"inputs": [],
			"name": "getCreationCode",
			"outputs": [
				{
					"internalType": "bytes",
					"name": "",
					"type": "bytes"
				}
			],
			"stateMutability": "view",
			"type": "function"
		},
		{
			"inputs": [],
			"name": "getCreationCodeContracts",
			"outputs": [
				{
					"internalType": "address",
					"name": "contractA",
					"type": "address"
				},
				{
					"internalType": "address",
					"name": "contractB",
					"type": "address"
				}
			],
			"stateMutability": "view",
			"type": "function"
		},
		{
			"inputs": [],
			"name": "getPauseConfiguration",
			"outputs": [
				{
					"internalType": "uint256",
					"name": "pauseWindowDuration",
					"type": "uint256"
				},
				{
					"internalType": "uint256",
					"name": "bufferPeriodDuration",
					"type": "uint256"
				}
			],
			"stateMutability": "view",
			"type": "function"
		},
		{
			"inputs": [],
			"name": "getVault",
			"outputs": [
				{
					"internalType": "contract IVault",
					"name": "",
					"type": "address"
				}
			],
			"stateMutability": "view",
			"type": "function"
		},
		{
			"inputs": [
				{
					"internalType": "address",
					"name": "pool",
					"type": "address"
				}
			],
			"name": "isPoolFromFactory",
			"outputs": [
				{
					"internalType": "bool",
					"name": "",
					"type": "bool"
				}
			],
			"stateMutability": "view",
			"type": "function"
		}
	]
}