{
	"data": {
		"bytecode": {
			"linkReferences": {},
			"object": "60c060405234801561001057600080fd5b506040516158d13803806158d183398101604081905261002f9161004d565b60601b6001600160601b0319166080526276a700420160a05261007b565b60006020828403121561005e578081fd5b81516001600160a01b0381168114610074578182fd5b9392505050565b60805160601c60a05161582c6100a56000398060d652806101005250806101dd525061582c6000f3fe60806040523480156200001157600080fd5b5060043610620000525760003560e01c80632da47c4014620000575780636634b753146200007a5780637932c7f314620000a05780638d928af814620000c6575b600080fd5b62000061620000d0565b604051620000719291906200055c565b60405180910390f35b620000916200008b366004620002da565b6200013c565b60405162000071919062000494565b620000b7620000b136600462000300565b6200015a565b60405162000071919062000480565b620000b7620001db565b600080427f00000000000000000000000000000000000000000000000000000000000000008110156200012e57807f000000000000000000000000000000000000000000000000000000000000000003925062278d00915062000137565b60009250600091505b509091565b6001600160a01b031660009081526020819052604090205460ff1690565b600080600062000169620000d0565b91509150600062000179620001db565b8a8a8a8a8a88888c6040516200018f906200024b565b620001a3999897969594939291906200049f565b604051809103906000f080158015620001c0573d6000803e3d6000fd5b509050620001ce81620001ff565b9998505050505050505050565b7f000000000000000000000000000000000000000000000000000000000000000090565b6001600160a01b038116600081815260208190526040808220805460ff19166001179055517f83a48fbcfc991335314e74d0496aab6a1987e992ddc85dddbcc4d6dd6ef2e9fc9190a250565b61523f80620005b883390190565b803562000266816200059e565b92915050565b600082601f8301126200027d578081fd5b813567ffffffffffffffff81111562000294578182fd5b620002a9601f8201601f19166020016200056a565b9150808252836020828501011115620002c157600080fd5b8060208401602084013760009082016020015292915050565b600060208284031215620002ec578081fd5b8135620002f9816200059e565b9392505050565b60008060008060008060c0878903121562000319578182fd5b863567ffffffffffffffff8082111562000331578384fd5b6200033f8a838b016200026c565b975060209150818901358181111562000356578485fd5b620003648b828c016200026c565b97505060408901358181111562000379578485fd5b8901601f81018b136200038a578485fd5b80358281111562000399578586fd5b8381029250620003ab8484016200056a565b8181528481019083860185850187018f1015620003c6578889fd5b8895505b83861015620003f457620003df8f8262000259565b835260019590950194918601918601620003ca565b50985050505060608901359450505060808701359150620004198860a0890162000259565b90509295509295509295565b6001600160a01b03169052565b60008151808452815b8181101562000459576020818501810151868301820152016200043b565b818111156200046b5782602083870101525b50601f01601f19169290920160200192915050565b6001600160a01b0391909116815260200190565b901515815260200190565b6001600160a01b038a168152610120602080830182905260009190620004c88483018d62000432565b91508382036040850152620004de828c62000432565b84810360608601528a51808252828c01935090820190845b818110156200051e576200050b855162000592565b83529383019391830191600101620004f6565b50508093505050508660808301528560a08301528460c08301528360e08301526200054e61010083018462000425565b9a9950505050505050505050565b918252602082015260400190565b60405181810167ffffffffffffffff811182821017156200058a57600080fd5b604052919050565b6001600160a01b031690565b6001600160a01b0381168114620005b457600080fd5b5056fe6103206040527f6e71edae12b1b97f4d1f60370fef10105fa2faae0126114a169c64845d6126c9610120523480156200003757600080fd5b506040516200523f3803806200523f8339810160408190526200005a9162000ae2565b8886516002146200006d57600062000070565b60025b8989898a516001600160401b03811180156200008b57600080fd5b50604051908082528060200260200182016040528015620000b6578160200160208202803683370190505b5089898989828289898d8280604051806040016040528060018152602001603160f81b81525085858a336001600160a01b031660001b806080818152505050806001600160a01b031660a0816001600160a01b031660601b815250505081600390805190602001906200012b92919062000900565b5080516200014190600490602084019062000900565b505060058054601260ff1990911617905550815160209283012060c052805191012060e052507f8b73c3c69bb8fe3d512ecc4cf759cc79239f7b179b0ffacaa9a75d522b39400f6101005260601b6001600160601b0319166101405250620001b490506276a70083111561019462000569565b620001c862278d0082111561019562000569565b4290910161016081905201610180528551620001ea906002111560c862000569565b62000204620001f86200057e565b8751111560c962000569565b6200021a866200058360201b620010061760201c565b62000225846200058f565b6040516309b2760f60e01b81526000906001600160a01b038c16906309b2760f9062000256908d9060040162000c7e565b602060405180830381600087803b1580156200027157600080fd5b505af115801562000286573d6000803e3d6000fd5b505050506040513d601f19601f82011682018060405250810190620002ac919062000ac9565b604051633354e3e960e11b81529091506001600160a01b038c16906366a9c7d290620002e19084908b908b9060040162000be2565b600060405180830381600087803b158015620002fc57600080fd5b505af115801562000311573d6000803e3d6000fd5b5050506101a091909152506200033c9950505060018d1015965061012c955050620005699350505050565b6200034f61138886111561012d62000569565b85516101c0819052865187906000906200036557fe5b60200260200101516001600160a01b03166101e0816001600160a01b031660601b81525050866001815181106200039857fe5b60200260200101516001600160a01b0316610200816001600160a01b031660601b8152505060028111620003ce576000620003e5565b86600281518110620003dc57fe5b60200260200101515b60601b6001600160601b0319166102205260038111620004075760006200041e565b866003815181106200041557fe5b60200260200101515b60601b6001600160601b03191661024052600481116200044057600062000457565b866004815181106200044e57fe5b60200260200101515b6001600160a01b0316610260816001600160a01b031660601b815250506200049a876000815181106200048657fe5b60200260200101516200061b60201b60201c565b610280528651620004b390889060019081106200048657fe5b6102a05260028111620004c8576000620004da565b620004da876002815181106200048657fe5b6102c05260038111620004ef57600062000501565b62000501876003815181106200048657fe5b6102e052600481116200051657600062000528565b62000528876004815181106200048657fe5b610300818152505060006200054b876103e8620006ef60201b620010101760201c565b9050620005588162000720565b505050505050505050505062000ce5565b816200057a576200057a816200075f565b5050565b600590565b806200057a81620007b2565b620005a464e8d4a5100082101560cb62000569565b620005bc67016345785d8a000082111560ca62000569565b620005db8160c06008546200083f60201b62001034179092919060201c565b6008556040517fa9ba3ffe0b6c366b81232caab38605a0699ad5398d6cce76f91ee809e322dafc906200061090839062000c93565b60405180910390a150565b60006001600160a01b0382163014156200063f5750670de0b6b3a7640000620006ea565b6000826001600160a01b031663313ce5676040518163ffffffff1660e01b815260040160206040518083038186803b1580156200067b57600080fd5b505afa15801562000690573d6000803e3d6000fd5b505050506040513d601f19601f82011682018060405250810190620006b6919062000bbf565b60ff1690506000620006d56012836200085460201b620010491760201c565b905080600a0a670de0b6b3a764000002925050505b919050565b6000828202620007178415806200070f5750838583816200070c57fe5b04145b600362000569565b90505b92915050565b6200072e818042806200086c565b7fa0d01593e47e69d07e0ccd87bece09411e07dd1ed40ca8f2e7af2976542a02338160405162000610919062000c93565b62461bcd60e51b6000908152602060045260076024526642414c23000030600a808404818106603090810160081b95839006959095019082900491820690940160101b939093010160c81b604452606490fd5b600281511015620007c3576200083c565b600081600081518110620007d357fe5b602002602001015190506000600190505b825181101562000839576000838281518110620007fd57fe5b602002602001015190506200082e816001600160a01b0316846001600160a01b03161060656200056960201b60201c565b9150600101620007e4565b50505b50565b6001600160401b03811b1992909216911b1790565b60006200086683831115600162000569565b50900390565b6200088d816001600160401b031660c0620008fc60201b6200105f1760201c565b620008ae836001600160401b03166080620008fc60201b6200105f1760201c565b620008cf856001600160401b03166040620008fc60201b6200105f1760201c565b620008f0876001600160401b03166000620008fc60201b6200105f1760201c565b17171760095550505050565b1b90565b828054600181600116156101000203166002900490600052602060002090601f016020900481019282601f106200094357805160ff191683800117855562000973565b8280016001018555821562000973579182015b828111156200097357825182559160200191906001019062000956565b506200098192915062000985565b5090565b5b8082111562000981576000815560010162000986565b80516200071a8162000ccf565b600082601f830112620009ba578081fd5b81516001600160401b03811115620009d0578182fd5b6020808202620009e282820162000c9c565b83815293508184018583018287018401881015620009ff57600080fd5b600092505b8483101562000a2f57805162000a1a8162000ccf565b82526001929092019190830190830162000a04565b505050505092915050565b600082601f83011262000a4b578081fd5b81516001600160401b0381111562000a61578182fd5b602062000a77601f8301601f1916820162000c9c565b9250818352848183860101111562000a8e57600080fd5b60005b8281101562000aae57848101820151848201830152810162000a91565b8281111562000ac05760008284860101525b50505092915050565b60006020828403121562000adb578081fd5b5051919050565b60008060008060008060008060006101208a8c03121562000b01578485fd5b62000b0d8b8b6200099c565b60208b01519099506001600160401b038082111562000b2a578687fd5b62000b388d838e0162000a3a565b995060408c015191508082111562000b4e578687fd5b62000b5c8d838e0162000a3a565b985060608c015191508082111562000b72578687fd5b5062000b818c828d01620009a9565b96505060808a0151945060a08a0151935060c08a0151925060e08a0151915062000bb08b6101008c016200099c565b90509295985092959850929598565b60006020828403121562000bd1578081fd5b815160ff8116811462000717578182fd5b60006060820185835260206060818501528186518084526080860191508288019350845b8181101562000c2e5762000c1b855162000cc3565b8352938301939183019160010162000c06565b505084810360408601528551808252908201925081860190845b8181101562000c705762000c5d835162000cc3565b8552938301939183019160010162000c48565b509298975050505050505050565b602081016003831062000c8d57fe5b91905290565b90815260200190565b6040518181016001600160401b038111828210171562000cbb57600080fd5b604052919050565b6001600160a01b031690565b6001600160a01b03811681146200083c57600080fd5b60805160a05160601c60c05160e05161010051610120516101405160601c61016051610180516101a0516101c0516101e05160601c6102005160601c6102205160601c6102405160601c6102605160601c610280516102a0516102c0516102e0516103005161446562000dda6000398061209752508061207352508061204f52508061202b525080612007525080611c6d525080611c2b525080611be95250806128c152508061288f5250806110735250806107e352508061140b5250806113e7525080610ae4525080610d59525080611607525080611649525080611628525080610ac0525080610a4a52506144656000f3fe608060405234801561001057600080fd5b506004361061021c5760003560e01c80636daccffa116101255780639b02cdde116100ad578063aaabadc51161007c578063aaabadc514610475578063d505accf1461047d578063d5c096c414610490578063dd62ed3e146104a3578063eb0f24d6146104b65761021c565b80639b02cdde146104265780639d2c110c1461043c578063a457c2d71461044f578063a9059cbb146104625761021c565b8063851c1bb3116100f4578063851c1bb3146103db57806387ec6817146103ee578063893d20e8146104015780638d928af81461041657806395d89b411461041e5761021c565b80636daccffa1461037d57806370a082311461039457806374f3b009146103a75780637ecebe00146103c85761021c565b8063313ce567116101a85780633950935111610177578063395093511461032657806350dd6ed91461033957806355c676281461034c5780636028bfd414610354578063679aefce146103755761021c565b8063313ce567146102ee5780633644e5151461030357806338e9922e1461030b57806338fff2d01461031e5761021c565b806318160ddd116101ef57806318160ddd146102945780631c0de0511461029c5780631dd746ea146102b357806323b872dd146102c85780632f1a0bc9146102db5761021c565b806301ec954a1461022157806306fdde031461024a578063095ea7b31461025f57806316c38b3c1461027f575b600080fd5b61023461022f366004614000565b6104be565b604051610241919061426b565b60405180910390f35b61025261055c565b6040516102419190614341565b61027261026d366004613c96565b6105f3565b6040516102419190614248565b61029261028d366004613d8c565b61060a565b005b61023461061e565b6102a4610624565b60405161024193929190614253565b6102bb61064d565b6040516102419190614210565b6102726102d6366004613be1565b61065c565b6102926102e93660046140d3565b6106d2565b6102f66107b5565b60405161024191906143ac565b6102346107be565b6102926103193660046140bb565b6107c8565b6102346107e1565b610272610334366004613c96565b610805565b610292610347366004613eaa565b610840565b61023461085e565b610367610362366004613dc4565b61086f565b604051610241929190614354565b6102346108a6565b610385610973565b6040516102419392919061436d565b6102346103a2366004613b8d565b61098e565b6103ba6103b5366004613dc4565b6109ad565b604051610241929190614223565b6102346103d6366004613b8d565b610a2b565b6102346103e9366004613e66565b610a46565b6103676103fc366004613dc4565b610a98565b610409610abe565b60405161024191906141fc565b610409610ae2565b610252610b06565b61042e610b67565b604051610241929190614383565b61023461044a366004614070565b610b71565b61027261045d366004613c96565b610ccf565b610272610470366004613c96565b610d0d565b610409610d1a565b61029261048b366004613c21565b610d24565b6103ba61049e366004613dc4565b610e6d565b6102346104b1366004613ba9565b610f9d565b610292610fda565b600084608001516104eb6104d0610ae2565b6001600160a01b0316336001600160a01b03161460cd611063565b6105006104f66107e1565b82146101f4611063565b610512848461050d611071565b611095565b606061051c6110b2565b905060008751600181111561052d57fe5b146105445761053f87878787856111d9565b610551565b6105518787878785611250565b979650505050505050565b60038054604080516020601f60026000196101006001881615020190951694909404938401819004810282018101909252828152606093909290918301828280156105e85780601f106105bd576101008083540402835291602001916105e8565b820191906000526020600020905b8154815290600101906020018083116105cb57829003601f168201915b505050505090505b90565b60006106003384846112b4565b5060015b92915050565b61061261131c565b61061b8161134a565b50565b60025490565b60008060006106316113c8565b15925061063c6113e5565b9150610646611409565b9050909192565b60606106576110b2565b905090565b6000806106698533610f9d565b905061068d336001600160a01b03871614806106855750838210155b61019e611063565b61069885858561142d565b336001600160a01b038616148015906106b357506000198114155b156106c5576106c585338584036112b4565b60019150505b9392505050565b6106da61131c565b6106ea600183101561012c611063565b6106fb61138883111561012d611063565b60006107078242611049565b905061071b6201518082101561013d611063565b60008061072661150d565b91509150610737811561013e611063565b6000610745866103e8611010565b905060008382116107745761076f6107606201518086611010565b61076a8488611010565b611581565b61078e565b61078e6107846201518084611010565b61076a8688611010565b90506107a0600282111561013f611063565b6107ac848342896115b4565b50505050505050565b60055460ff1690565b6000610657611603565b6107d061131c565b6107d86116a0565b61061b816116b5565b7f000000000000000000000000000000000000000000000000000000000000000090565b3360008181526001602090815260408083206001600160a01b0387168452909152812054909161060091859061083b9086611720565b6112b4565b61084861131c565b6108506116a0565b61085a8282611732565b5050565b6008546000906106579060c0611831565b600060606108858651610880611071565b61183e565b61089a8989898989898961184b6118ee61194f565b97509795505050505050565b600060606108b2610ae2565b6001600160a01b031663f94d46686108c86107e1565b6040518263ffffffff1660e01b81526004016108e4919061426b565b60006040518083038186803b1580156108fc57600080fd5b505afa158015610910573d6000803e3d6000fd5b505050506040513d6000823e601f3d908101601f191682016040526109389190810190613cc1565b5091505061094d816109486110b2565b611a72565b600061095761150d565b50905061096c828261096761061e565b611ad3565b9250505090565b600080600061098061150d565b90949093506103e892509050565b6001600160a01b0381166000908152602081905260409020545b919050565b606080886109bc6104d0610ae2565b6109c76104f66107e1565b60606109d16110b2565b90506109dd8882611a72565b60006060806109f28e8e8e8e8e8e8a8f61184b565b925092509250610a028d84611aee565b610a0c82856118ee565b610a1681856118ee565b909550935050505b5097509795505050505050565b6001600160a01b031660009081526006602052604090205490565b60007f000000000000000000000000000000000000000000000000000000000000000082604051602001610a7b9291906141b9565b604051602081830303815290604052805190602001209050919050565b60006060610aa98651610880611071565b61089a89898989898989611af8611b5161194f565b7f000000000000000000000000000000000000000000000000000000000000000090565b7f000000000000000000000000000000000000000000000000000000000000000090565b60048054604080516020601f60026000196101006001881615020190951694909404938401819004810282018101909252828152606093909290918301828280156105e85780601f106105bd576101008083540402835291602001916105e8565b600a54600b549091565b60008360800151610b836104d0610ae2565b610b8e6104f66107e1565b6000610b9d8660200151611bb2565b90506000610bae8760400151611bb2565b9050600087516001811115610bbf57fe5b1415610c4f576000610bd48860600151611cb8565b90506000818960600151039050610bf88960200151610bf38387611cd9565b611ce5565b60608901829052610c098885611cd9565b9750610c158784611cd9565b9650610c25896060015185611cd9565b60608a01526000610c378a8a8a611cf7565b9050610c438185611d30565b96505050505050610cc7565b610c598683611cd9565b9550610c658582611cd9565b9450610c75876060015182611cd9565b60608801526000610c87888888611d3c565b9050610c938184611d6b565b90506000610ca082611d77565b905060008282039050610cbb8a60200151610bf38388611cd9565b509450610cc792505050565b509392505050565b600080610cdc3385610f9d565b9050808310610cf657610cf1338560006112b4565b610d03565b610d0333858584036112b4565b5060019392505050565b600061060033848461142d565b6000610657611d9d565b610d328442111560d1611063565b6001600160a01b0387166000908152600660209081526040808320549051909291610d89917f0000000000000000000000000000000000000000000000000000000000000000918c918c918c9188918d9101614293565b6040516020818303038152906040528051906020012090506000610dac82611e17565b9050600060018288888860405160008152602001604052604051610dd39493929190614323565b6020604051602081039080840390855afa158015610df5573d6000803e3d6000fd5b5050604051601f1901519150610e3790506001600160a01b03821615801590610e2f57508b6001600160a01b0316826001600160a01b0316145b6101f8611063565b6001600160a01b038b166000908152600660205260409020600185019055610e608b8b8b6112b4565b5050505050505050505050565b60608088610e7c6104d0610ae2565b610e876104f66107e1565b6060610e916110b2565b9050610e9b61061e565b610f4d5760006060610eb08d8d8d868b611e33565b91509150610ec9610ebf611ec2565b83101560cc611063565b610edb6000610ed6611ec2565b611ec9565b610eee8b610ee7611ec2565b8403611ec9565b610ef88184611b51565b80610f01611071565b6001600160401b0381118015610f1657600080fd5b50604051908082528060200260200182016040528015610f40578160200160208202803683370190505b5095509550505050610a1e565b610f578882611a72565b6000606080610f6c8e8e8e8e8e8e8a8f611af8565b925092509250610f7c8c84611ec9565b610f868285611b51565b610f9081856118ee565b9095509350610a1e915050565b6000610fa7610ae2565b6001600160a01b0316826001600160a01b03161415610fc95750600019610604565b610fd38383611ed3565b9050610604565b610fe261131c565b600080610fed61150d565b91509150610ffd81610140611063565b61085a82611efe565b8061085a81611f39565b60008282026106cb84158061102d57508385838161102a57fe5b04145b6003611063565b6001600160401b03811b1992909216911b1790565b6000611059838311156001611063565b50900390565b1b90565b8161085a5761085a81611fb2565b7f000000000000000000000000000000000000000000000000000000000000000090565b6110ad81841080156110a657508183105b6064611063565b505050565b606060006110be611071565b90506060816001600160401b03811180156110d857600080fd5b50604051908082528060200260200182016040528015611102578160200160208202803683370190505b50905061110d612005565b8160008151811061111a57fe5b60200260200101818152505061112e612029565b8160018151811061113b57fe5b60200260200101818152505060028211156111765761115861204d565b8160028151811061116557fe5b60200260200101818152505061117f565b91506105f09050565b600382111561117657611190612071565b8160038151811061119d57fe5b6020026020010181815250506004821115611176576111ba612095565b816004815181106111c757fe5b60200260200101818152505091505090565b60006111e58583611a72565b61120686606001518385815181106111f957fe5b6020026020010151611cd9565b60608701526000611219878787876120b9565b90506112388184878151811061122b57fe5b6020026020010151611d6b565b905061124381611d77565b9150505b95945050505050565b600061125f8660600151611cb8565b606087015261126e8583611a72565b61128286606001518386815181106111f957fe5b6060870152600061129587878787612102565b9050611243818486815181106112a757fe5b6020026020010151611d30565b6001600160a01b0380841660008181526001602090815260408083209487168084529490915290819020849055517f8c5be1e5ebec7d5bd14f71427d1e84f3dd0314c0f7b2291e5b200ac8c7c3b9259061130f90859061426b565b60405180910390a3505050565b60006113336000356001600160e01b031916610a46565b905061061b611342823361213d565b610191611063565b801561136a5761136561135b6113e5565b4210610193611063565b61137f565b61137f611375611409565b42106101a9611063565b6007805460ff19168215151790556040517f9e3a5e37224532dea67b89face185703738a228a6e8a23dee546960180d3be64906113bd908390614248565b60405180910390a150565b60006113d2611409565b42118061065757505060075460ff161590565b7f000000000000000000000000000000000000000000000000000000000000000090565b7f000000000000000000000000000000000000000000000000000000000000000090565b6114446001600160a01b0384161515610198611063565b61145b6001600160a01b0383161515610199611063565b6114668383836110ad565b6001600160a01b03831660009081526020819052604090205461148c90826101a0612226565b6001600160a01b0380851660009081526020819052604080822093909355908416815220546114bb9082611720565b6001600160a01b0380841660008181526020819052604090819020939093559151908516907fddf252ad1be2c89b69c2b068fc378daa952ba7f163c4a11628f55a4df523b3ef9061130f90859061426b565b60008060008060008061151e61223c565b93509350935093508042101561157157600194508383111561155557818103824203858503028161154b57fe5b048401955061156c565b818103824203848603028161156657fe5b04840395505b611579565b600094508295505b505050509091565b60006115908215156004611063565b8261159d57506000610604565b8160018403816115a957fe5b046001019050610604565b6115c084848484612293565b7f1835882ee7a34ac194f717a35e09bb1d24c82a3b9d854ab6c9749525b714cdf2848484846040516115f59493929190614391565b60405180910390a150505050565b60007f00000000000000000000000000000000000000000000000000000000000000007f00000000000000000000000000000000000000000000000000000000000000007f00000000000000000000000000000000000000000000000000000000000000006116706122ef565b306040516020016116859594939291906142c7565b60405160208183030381529060405280519060200120905090565b6116b36116ab6113c8565b610192611063565b565b6116c864e8d4a5100082101560cb611063565b6116de67016345785d8a000082111560ca611063565b6008546116ed908260c0611034565b6008556040517fa9ba3ffe0b6c366b81232caab38605a0699ad5398d6cce76f91ee809e322dafc906113bd90839061426b565b60008282016106cb8482101583611063565b600061173c6107e1565b90506000611748610ae2565b6001600160a01b031663b05f8e4883866040518363ffffffff1660e01b815260040161177592919061430c565b60806040518083038186803b15801561178d57600080fd5b505afa1580156117a1573d6000803e3d6000fd5b505050506040513d601f19601f820116820180604052508101906117c591906140f4565b604051630639cdb560e21b81529094506001600160a01b03851693506318e736d492506117f99150859087906004016142f3565b600060405180830381600087803b15801561181357600080fd5b505af1158015611827573d6000803e3d6000fd5b5050505050505050565b1c6001600160401b031690565b61085a8183146067611063565b60006060806118586113c8565b1561187b5761186788876122f3565b905061187688826110496123df565b6118c6565b611883611071565b6001600160401b038111801561189857600080fd5b506040519080825280602002602001820160405280156118c2578160200160208202803683370190505b5090505b6118d188868661244a565b90935091506118e088836124d5565b985098509895505050505050565b60005b6118f9611071565b8110156110ad5761193083828151811061190f57fe5b602002602001015183838151811061192357fe5b6020026020010151612504565b83828151811061193c57fe5b60209081029190910101526001016118f1565b333014611a0d576000306001600160a01b03166000366040516119739291906141d1565b6000604051808303816000865af19150503d80600081146119b0576040519150601f19603f3d011682016040523d82523d6000602084013e6119b5565b606091505b5050905080600081146119c457fe5b60046000803e6000516001600160e01b0319166343adbafb60e01b81146119ef573d6000803e3d6000fd5b506020600460003e604060205260243d03602460403e601c3d016000f35b6060611a176110b2565b9050611a238782611a72565b60006060611a3b8c8c8c8c8c8c898d8d63ffffffff16565b5091509150611a4e81848663ffffffff16565b8051601f1982018390526343adbafb603f1983015260200260231982016044820181fd5b60005b611a7d611071565b8110156110ad57611ab4838281518110611a9357fe5b6020026020010151838381518110611aa757fe5b6020026020010151612555565b838281518110611ac057fe5b6020908102919091010152600101611a75565b600080611ae284866000612581565b90506112478184612504565b61085a828261271d565b6000606080611b056116a0565b6060611b1189886122f3565b9050611b2089826110496123df565b60006060611b2f8b89896127d9565b91509150611b3d8b82612832565b909d909c50909a5098505050505050505050565b60005b611b5c611071565b8110156110ad57611b93838281518110611b7257fe5b6020026020010151838381518110611b8657fe5b602002602001015161283f565b838281518110611b9f57fe5b6020908102919091010152600101611b54565b6000611bbd8261288d565b15611bd157611bca612005565b90506109a8565b611bda826128bf565b15611be757611bca612029565b7f00000000000000000000000000000000000000000000000000000000000000006001600160a01b0316826001600160a01b03161415611c2957611bca61204d565b7f00000000000000000000000000000000000000000000000000000000000000006001600160a01b0316826001600160a01b03161415611c6b57611bca612071565b7f00000000000000000000000000000000000000000000000000000000000000006001600160a01b0316826001600160a01b03161415611cad57611bca612095565b6109a8610135611fb2565b600080611ccd611cc661085e565b84906128f1565b90506106cb8382611049565b60006106cb8383612555565b61085a611cf18361292d565b8261085a565b6000611d0e611d04611071565b60021460d2611063565b6060600080611d1e878787612933565b92509250925061055187848484612102565b60006106cb8383612504565b6000611d49611d04611071565b6060600080611d59878787612933565b925092509250610551878484846120b9565b60006106cb838361283f565b6000610604611d96611d8761085e565b670de0b6b3a764000090611049565b839061283f565b6000611da7610ae2565b6001600160a01b031663aaabadc56040518163ffffffff1660e01b815260040160206040518083038186803b158015611ddf57600080fd5b505afa158015611df3573d6000803e3d6000fd5b505050506040513d601f19601f820116820180604052508101906106579190613e8e565b6000611e21611603565b82604051602001610a7b9291906141e1565b60006060611e3f6116a0565b6000611e4a846129f4565b9050611e656000826002811115611e5d57fe5b1460ce611063565b6060611e7085612a0a565b9050611e7f8151610880611071565b611e898187611a72565b6000611e9361150d565b5090506000611ea482846001612581565b905080611eb18184612a20565b9b929a509198505050505050505050565b620f424090565b61085a8282612a2b565b6001600160a01b03918216600090815260016020908152604080832093909416825291909152205490565b611f0a81824242612293565b7fa0d01593e47e69d07e0ccd87bece09411e07dd1ed40ca8f2e7af2976542a0233816040516113bd919061426b565b600281511015611f485761061b565b600081600081518110611f5757fe5b602002602001015190506000600190505b82518110156110ad576000838281518110611f7f57fe5b60200260200101519050611fa8816001600160a01b0316846001600160a01b0316106065611063565b9150600101611f68565b62461bcd60e51b6000908152602060045260076024526642414c23000030600a808404818106603090810160081b95839006959095019082900491820690940160101b939093010160c81b604452606490fd5b7f000000000000000000000000000000000000000000000000000000000000000090565b7f000000000000000000000000000000000000000000000000000000000000000090565b7f000000000000000000000000000000000000000000000000000000000000000090565b7f000000000000000000000000000000000000000000000000000000000000000090565b7f000000000000000000000000000000000000000000000000000000000000000090565b60006120c36116a0565b60006120cd61150d565b50905060006120de82876001612581565b905060006120f4838888888c6060015187612ab9565b93505050505b949350505050565b600061210c6116a0565b600061211661150d565b509050600061212782876001612581565b905060006120f4838888888c6060015187612b6e565b600073ba1ba1ba1ba1ba1ba1ba1ba1ba1ba1ba1ba1ba1b61215c610abe565b6001600160a01b031614158015612177575061217783612c07565b1561219f57612184610abe565b6001600160a01b0316336001600160a01b0316149050610604565b6121a7611d9d565b6001600160a01b0316639be2a8848484306040518463ffffffff1660e01b81526004016121d693929190614274565b60206040518083038186803b1580156121ee57600080fd5b505afa158015612202573d6000803e3d6000fd5b505050506040513d601f19601f82011682018060405250810190610fd39190613da8565b60006122358484111583611063565b5050900390565b600080600080612258600060095461183190919063ffffffff16565b600954909450612269906040611831565b60095490935061227a906080611831565b60095490925061228b9060c0611831565b905090919293565b6122a7816001600160401b031660c061105f565b6122bb836001600160401b0316608061105f565b6122cf856001600160401b0316604061105f565b6122e3876001600160401b0316600061105f565b17171760095550505050565b4690565b6060806122fe611071565b6001600160401b038111801561231357600080fd5b5060405190808252806020026020018201604052801561233d578160200160208202803683370190505b5090508261234c579050610604565b6000808560008151811061235c57fe5b602002602001015190506000600190505b612375611071565b8110156123ac57600087828151811061238a57fe5b60200260200101519050828111156123a3578193508092505b5060010161236d565b506123be600b5487600a548589612c43565b8383815181106123ca57fe5b60209081029190910101525090949350505050565b60005b6123ea611071565b8110156124445761242584828151811061240057fe5b602002602001015184838151811061241457fe5b60200260200101518463ffffffff16565b84828151811061243157fe5b60209081029190910101526001016123e2565b50505050565b600060606000612459846129f4565b9050600081600281111561246957fe5b1415612483576124798685612ca5565b92509250506124cd565b600181600281111561249157fe5b14156124a1576124798685612d6f565b60028160028111156124af57fe5b14156124c057612479868686612da1565b6124cb610150611fb2565b505b935093915050565b6124e282826110496123df565b60006124ec61150d565b5090506110ad6124fe82856001612581565b82612a20565b60006125138215156004611063565b8261252057506000610604565b670de0b6b3a7640000838102906125439085838161253a57fe5b04146005611063565b82818161254c57fe5b04915050610604565b600082820261256f84158061102d57508385838161102a57fe5b670de0b6b3a764000090049392505050565b81516000908190815b818110156125c2576125b88682815181106125a157fe5b60200260200101518461172090919063ffffffff16565b925060010161258a565b50816125d3576000925050506106cb565b600082878302825b60ff811015612705576000858a6000815181106125f457fe5b60200260200101510290506000600190505b868110156126485761263e612637612631848e858151811061262457fe5b6020026020010151611010565b89611010565b868c612e1d565b9150600101612606565b508394506126bb61268a612671612668612662878c611010565b85611010565b6103e88d612e1d565b61268461267e8a89611010565b88611010565b90611720565b6126b56126a861269e6103e8880386611010565b6103e88e15612e1d565b6126848a60010189611010565b8b612e1d565b9350848411156126e3576001858503116126de57839750505050505050506106cb565b6126fc565b6001848603116126fc57839750505050505050506106cb565b506001016125db565b50612711610141611fb2565b50505050509392505050565b6127346001600160a01b038316151561019b611063565b612740826000836110ad565b6001600160a01b03821660009081526020819052604090205461276690826101a1612226565b6001600160a01b03831660009081526020819052604090205560025461278c9082612e3d565b6002556040516000906001600160a01b038416907fddf252ad1be2c89b69c2b068fc378daa952ba7f163c4a11628f55a4df523b3ef906127cd90859061426b565b60405180910390a35050565b6000606060006127e8846129f4565b905060018160028111156127f857fe5b141561280957612479868686612e4b565b600281600281111561281757fe5b1415612827576124798685612eb5565b6124cb610136611fb2565b6124e282826117206123df565b600061284e8215156004611063565b8261285b57506000610604565b670de0b6b3a7640000838102906128759085838161253a57fe5b82600182038161288157fe5b04600101915050610604565b7f00000000000000000000000000000000000000000000000000000000000000006001600160a01b0390811691161490565b7f00000000000000000000000000000000000000000000000000000000000000006001600160a01b0390811691161490565b600082820261290b84158061102d57508385838161102a57fe5b8061291a576000915050610604565b670de0b6b3a76400006000198201612881565b50600090565b60408051600280825260608281019093526000918291816020016020820280368337019050509250612968866020015161288d565b156129ae576000915060019050848360008151811061298357fe5b602002602001018181525050838360018151811061299d57fe5b6020026020010181815250506129eb565b600090506001915083836000815181106129c457fe5b60200260200101818152505084836001815181106129de57fe5b6020026020010181815250505b93509350939050565b6000818060200190518101906106049190613ef7565b6060818060200190518101906106cb9190613fbc565b600a91909155600b55565b612a37600083836110ad565b600254612a449082611720565b6002556001600160a01b038216600090815260208190526040902054612a6a9082611720565b6001600160a01b0383166000818152602081905260408082209390935591519091907fddf252ad1be2c89b69c2b068fc378daa952ba7f163c4a11628f55a4df523b3ef906127cd90859061426b565b6000612ae183878681518110612acb57fe5b602002602001015161104990919063ffffffff16565b868581518110612aed57fe5b6020026020010181815250506000612b0788888589612f49565b905083878681518110612b1657fe5b602002602001015101878681518110612b2b57fe5b602002602001018181525050612b626001612684898981518110612b4b57fe5b60200260200101518461104990919063ffffffff16565b98975050505050505050565b6000612b9683878781518110612b8057fe5b602002602001015161172090919063ffffffff16565b868681518110612ba257fe5b6020026020010181815250506000612bbc88888588612f49565b905083878781518110612bcb57fe5b602002602001015103878781518110612be057fe5b602002602001018181525050612b626001612c01838a8981518110612acb57fe5b90611049565b6000612c19632f1a0bc960e01b610a46565b821480612c345750612c31637587926b60e11b610a46565b82145b806106045750610604826130f9565b600080612c5287878787612f49565b905080868581518110612c6157fe5b602002602001015111612c78576000915050611247565b600081878681518110612c8757fe5b6020026020010151039050612b62848261255590919063ffffffff16565b60006060612cb16116a0565b600080612cbd8561312b565b91509150612cd5612ccc611071565b82106064611063565b6060612cdf611071565b6001600160401b0381118015612cf457600080fd5b50604051908082528060200260200182016040528015612d1e578160200160208202803683370190505b5090506000612d2b61150d565b509050612d4a81898587612d3d61061e565b612d4561085e565b61314d565b828481518110612d5657fe5b6020908102919091010152509196919550909350505050565b600060606000612d7e84613269565b90506060612d948683612d8f61061e565b61327f565b9196919550909350505050565b60006060612dad6116a0565b60606000612dba85613330565b91509150612dcb8251610880611071565b612dd58287611a72565b6000612ddf61150d565b5090506000612dff828a86612df261061e565b612dfa61085e565b613348565b9050612e0f8382111560cf611063565b989297509195505050505050565b600081612e3357612e2e84846135dc565b6120fa565b6120fa8484611581565b60006106cb83836001612226565b60006060806000612e5b85613330565b91509150612e71612e6a611071565b835161183e565b612e7b8287611a72565b6000612e8561150d565b5090506000612ea5828a86612e9861061e565b612ea061085e565b6135fc565b9050612e0f8382101560d0611063565b60006060600080612ec58561312b565b91509150612ed4612ccc611071565b6060612ede611071565b6001600160401b0381118015612ef357600080fd5b50604051908082528060200260200182016040528015612f1d578160200160208202803683370190505b5090506000612f2a61150d565b509050612d4a81898587612f3c61061e565b612f4461085e565b613878565b600080845186029050600085600081518110612f6157fe5b602002602001015190506000865187600081518110612f7c57fe5b60200260200101510290506000600190505b8751811015612fd557612fba612fb4612fad848b858151811061262457fe5b8a51611010565b886135dc565b9150612fcb8882815181106125a157fe5b9250600101612f8e565b50868581518110612fe257fe5b6020026020010151820391506000612ffa8788611010565b9050600061302661301a6130128461076a8988611010565b6103e8611010565b8a898151811061262457fe5b9050600061304161303a6130128b896135dc565b8690611720565b905060008061305d6130538686611720565b61076a8d86611720565b905060005b60ff8110156130dd5781925061309261307f866126848586611010565b61076a8e612c0188612684886002611010565b9150828211156130bb576001838303116130b6575097506120fa9650505050505050565b6130d5565b6001828403116130d5575097506120fa9650505050505050565b600101613062565b506130e9610142611fb2565b5050505050505050949350505050565b600061310b631c74c91760e11b610a46565b82148061060457506131236350dd6ed960e01b610a46565b909114919050565b600080828060200190518101906131429190613f86565b909590945092505050565b60008061315c88886001612581565b9050600061317e8261317887613172818b611049565b9061283f565b906128f1565b9050600061318e8a8a848b612f49565b905060006131a2828b8b81518110612acb57fe5b90506000805b8b518110156131e1576131d78c82815181106131c057fe5b60200260200101518361172090919063ffffffff16565b91506001016131a8565b50600061320a828d8d815181106131f457fe5b602002602001015161250490919063ffffffff16565b9050600061321782613955565b9050600061322585836128f1565b905060006132338683611049565b905061325461324d83670de0b6b3a76400008e9003612555565b8290611720565b99505050505050505050509695505050505050565b6000818060200190518101906106cb9190613f59565b6060600061328d8484612504565b9050606085516001600160401b03811180156132a857600080fd5b506040519080825280602002602001820160405280156132d2578160200160208202803683370190505b50905060005b865181101561332657613307838883815181106132f157fe5b602002602001015161255590919063ffffffff16565b82828151811061331357fe5b60209081029190910101526001016132d8565b5095945050505050565b60606000828060200190518101906131429190613f13565b600080805b865181101561336f576133658782815181106131c057fe5b915060010161334d565b50606085516001600160401b038111801561338957600080fd5b506040519080825280602002602001820160405280156133b3578160200160208202803683370190505b5090506000805b885181101561347a5760006133eb858b84815181106133d557fe5b602002602001015161283f90919063ffffffff16565b90506134278a83815181106133fc57fe5b60200260200101516131728b858151811061341357fe5b60200260200101518d8681518110612acb57fe5b84838151811061343357fe5b60200260200101818152505061346f6134688286858151811061345257fe5b60200260200101516128f190919063ffffffff16565b8490611720565b9250506001016133ba565b50606088516001600160401b038111801561349457600080fd5b506040519080825280602002602001820160405280156134be578160200160208202803683370190505b50905060005b89518110156135895760008482815181106134db57fe5b60200260200101518411156135425760006135046134f886613955565b8d85815181106132f157fe5b90506000613518828d8681518110612acb57fe5b905061353961353282670de0b6b3a76400008d900361283f565b8390611720565b92505050613559565b89828151811061354e57fe5b602002602001015190505b613569818c8481518110612acb57fe5b83838151811061357557fe5b6020908102919091010152506001016134c4565b5060006135988b8b6001612581565b905060006135a88c846000612581565b905060006135b68284612504565b90506135cb6135c482613955565b8b906128f1565b9d9c50505050505050505050505050565b60006135eb8215156004611063565b8183816135f457fe5b049392505050565b600080805b8651811015613623576136198782815181106131c057fe5b9150600101613601565b50606085516001600160401b038111801561363d57600080fd5b50604051908082528060200260200182016040528015613667578160200160208202803683370190505b5090506000805b8851811015613701576000613689858b84815181106131f457fe5b90506136cb8a838151811061369a57fe5b60200260200101516136c58b85815181106136b157fe5b60200260200101518d8681518110612b8057fe5b90612504565b8483815181106136d757fe5b6020026020010181815250506136f6613468828685815181106132f157fe5b92505060010161366e565b50606088516001600160401b038111801561371b57600080fd5b50604051908082528060200260200182016040528015613745578160200160208202803683370190505b50905060005b89518110156138065760008385838151811061376357fe5b602002602001015111156137bf5760006137886134f886670de0b6b3a7640000611049565b9050600061379c828d8681518110612acb57fe5b90506137b661353282670de0b6b3a76400008d9003612555565b925050506137d6565b8982815181106137cb57fe5b602002602001015190505b6137e6818c8481518110612b8057fe5b8383815181106137f257fe5b60209081029190910101525060010161374b565b5060006138158b8b6001612581565b905060006138258c846000612581565b905060006138338284612504565b9050670de0b6b3a76400008111156138685761385a8a670de0b6b3a763ffff198301612555565b975050505050505050611247565b6000975050505050505050611247565b60008061388788886001612581565b9050600061389d8261317887613172818b611720565b905060006138ad8a8a848b612f49565b905060006138d78a8a815181106138c057fe5b60200260200101518361104990919063ffffffff16565b90506000805b8b518110156138ff576138f58c82815181106131c057fe5b91506001016138dd565b506000613912828d8d815181106131f457fe5b9050600061391f82613955565b9050600061392d85836128f1565b9050600061393b8683611049565b905061325461324d83670de0b6b3a76400008e900361283f565b6000670de0b6b3a7640000821061396d576000610604565b50670de0b6b3a76400000390565b8035610604816143ff565b600082601f830112613996578081fd5b81356139a96139a4826143e0565b6143ba565b8181529150602080830190848101818402860182018710156139ca57600080fd5b60005b848110156139e9578135845292820192908201906001016139cd565b505050505092915050565b600082601f830112613a04578081fd5b8151613a126139a4826143e0565b818152915060208083019084810181840286018201871015613a3357600080fd5b60005b848110156139e957815184529282019290820190600101613a36565b600082601f830112613a62578081fd5b81356001600160401b03811115613a77578182fd5b613a8a601f8201601f19166020016143ba565b9150808252836020828501011115613aa157600080fd5b8060208401602084013760009082016020015292915050565b80356002811061060457600080fd5b6000610120808385031215613adc578182fd5b613ae5816143ba565b915050613af28383613aba565b8152613b01836020840161397b565b6020820152613b13836040840161397b565b6040820152606082013560608201526080820135608082015260a082013560a0820152613b438360c0840161397b565b60c0820152613b558360e0840161397b565b60e0820152610100808301356001600160401b03811115613b7557600080fd5b613b8185828601613a52565b82840152505092915050565b600060208284031215613b9e578081fd5b81356106cb816143ff565b60008060408385031215613bbb578081fd5b8235613bc6816143ff565b91506020830135613bd6816143ff565b809150509250929050565b600080600060608486031215613bf5578081fd5b8335613c00816143ff565b92506020840135613c10816143ff565b929592945050506040919091013590565b600080600080600080600060e0888a031215613c3b578283fd5b8735613c46816143ff565b96506020880135613c56816143ff565b95506040880135945060608801359350608088013560ff81168114613c79578384fd5b9699959850939692959460a0840135945060c09093013592915050565b60008060408385031215613ca8578182fd5b8235613cb3816143ff565b946020939093013593505050565b600080600060608486031215613cd5578081fd5b83516001600160401b0380821115613ceb578283fd5b818601915086601f830112613cfe578283fd5b8151613d0c6139a4826143e0565b80828252602080830192508086018b828387028901011115613d2c578788fd5b8796505b84871015613d57578051613d43816143ff565b845260019690960195928101928101613d30565b508901519097509350505080821115613d6e578283fd5b50613d7b868287016139f4565b925050604084015190509250925092565b600060208284031215613d9d578081fd5b81356106cb81614414565b600060208284031215613db9578081fd5b81516106cb81614414565b600080600080600080600060e0888a031215613dde578081fd5b873596506020880135613df0816143ff565b95506040880135613e00816143ff565b945060608801356001600160401b0380821115613e1b578283fd5b613e278b838c01613986565b955060808a0135945060a08a0135935060c08a0135915080821115613e4a578283fd5b50613e578a828b01613a52565b91505092959891949750929550565b600060208284031215613e77578081fd5b81356001600160e01b0319811681146106cb578182fd5b600060208284031215613e9f578081fd5b81516106cb816143ff565b60008060408385031215613ebc578182fd5b8235613ec7816143ff565b915060208301356001600160401b03811115613ee1578182fd5b613eed85828601613a52565b9150509250929050565b600060208284031215613f08578081fd5b81516106cb81614422565b600080600060608486031215613f27578081fd5b8351613f3281614422565b60208501519093506001600160401b03811115613f4d578182fd5b613d7b868287016139f4565b60008060408385031215613f6b578182fd5b8251613f7681614422565b6020939093015192949293505050565b600080600060608486031215613f9a578081fd5b8351613fa581614422565b602085015160409095015190969495509392505050565b60008060408385031215613fce578182fd5b8251613fd981614422565b60208401519092506001600160401b03811115613ff4578182fd5b613eed858286016139f4565b60008060008060808587031215614015578182fd5b84356001600160401b038082111561402b578384fd5b61403788838901613ac9565b9550602087013591508082111561404c578384fd5b5061405987828801613986565b949794965050505060408301359260600135919050565b600080600060608486031215614084578081fd5b83356001600160401b03811115614099578182fd5b6140a586828701613ac9565b9660208601359650604090950135949350505050565b6000602082840312156140cc578081fd5b5035919050565b600080604083850312156140e5578182fd5b50508035926020909101359150565b60008060008060808587031215614109578182fd5b8451935060208501519250604085015191506060850151614129816143ff565b939692955090935050565b6000815180845260208085019450808401835b8381101561416357815187529582019590820190600101614147565b509495945050505050565b60008151808452815b8181101561419357602081850181015186830182015201614177565b818111156141a45782602083870101525b50601f01601f19169290920160200192915050565b9182526001600160e01b031916602082015260240190565b6000828483379101908152919050565b61190160f01b81526002810192909252602282015260420190565b6001600160a01b0391909116815260200190565b6000602082526106cb6020830184614134565b6000604082526142366040830185614134565b82810360208401526112478185614134565b901515815260200190565b92151583526020830191909152604082015260600190565b90815260200190565b9283526001600160a01b03918216602084015216604082015260600190565b9586526001600160a01b0394851660208701529290931660408501526060840152608083019190915260a082015260c00190565b9485526020850193909352604084019190915260608301526001600160a01b0316608082015260a00190565b6000838252604060208301526120fa604083018461416e565b9182526001600160a01b0316602082015260400190565b93845260ff9290921660208401526040830152606082015260800190565b6000602082526106cb602083018461416e565b6000838252604060208301526120fa6040830184614134565b9283529015156020830152604082015260600190565b918252602082015260400190565b93845260208401929092526040830152606082015260800190565b60ff91909116815260200190565b6040518181016001600160401b03811182821017156143d857600080fd5b604052919050565b60006001600160401b038211156143f5578081fd5b5060209081020190565b6001600160a01b038116811461061b57600080fd5b801515811461061b57600080fd5b6003811061061b57600080fdfea2646970667358221220ba85fcbe1df1b55866a5f1b93f9d56fd1f8908707aa630ee8f87316cdf8afc2a64736f6c63430007010033a264697066735822122032c35e750c3217bfdb003f3278b9fa6139b65b28a987c8289fa0f893fac5a7e264736f6c63430007010033",
			"opcodes": "PUSH1 0xC0 PUSH1 0x40 MSTORE CALLVALUE DUP1 ISZERO PUSH2 0x10 JUMPI PUSH1 0x0 DUP1 REVERT JUMPDEST POP PUSH1 0x40 MLOAD PUSH2 0x58D1 CODESIZE SUB DUP1 PUSH2 0x58D1 DUP4 CODECOPY DUP2 ADD PUSH1 0x40 DUP2 SWAP1 MSTORE PUSH2 0x2F SWAP2 PUSH2 0x4D JUMP JUMPDEST PUSH1 0x60 SHL PUSH1 0x1 PUSH1 0x1 PUSH1 0x60 SHL SUB NOT AND PUSH1 0x80 MSTORE PUSH3 0x76A700 TIMESTAMP ADD PUSH1 0xA0 MSTORE PUSH2 0x7B JUMP JUMPDEST PUSH1 0x0 PUSH1 0x20 DUP3 DUP5 SUB SLT ISZERO PUSH2 0x5E JUMPI DUP1 DUP2 REVERT JUMPDEST DUP2 MLOAD PUSH1 0x1 PUSH1 0x1 PUSH1 0xA0 SHL SUB DUP2 AND DUP2 EQ PUSH2 0x74 JUMPI DUP2 DUP3 REVERT JUMPDEST SWAP4 SWAP3 POP POP POP JUMP JUMPDEST PUSH1 0x80 MLOAD PUSH1 0x60 SHR PUSH1 0xA0 MLOAD PUSH2 0x582C PUSH2 0xA5 PUSH1 0x0 CODECOPY DUP1 PUSH1 0xD6 MSTORE DUP1 PUSH2 0x100 MSTORE POP DUP1 PUSH2 0x1DD MSTORE POP PUSH2 0x582C PUSH1 0x0 RETURN INVALID PUSH1 0x80 PUSH1 0x40 MSTORE CALLVALUE DUP1 ISZERO PUSH3 0x11 JUMPI PUSH1 0x0 DUP1 REVERT JUMPDEST POP PUSH1 0x4 CALLDATASIZE LT PUSH3 0x52 JUMPI PUSH1 0x0 CALLDATALOAD PUSH1 0xE0 SHR DUP1 PUSH4 0x2DA47C40 EQ PUSH3 0x57 JUMPI DUP1 PUSH4 0x6634B753 EQ PUSH3 0x7A JUMPI DUP1 PUSH4 0x7932C7F3 EQ PUSH3 0xA0 JUMPI DUP1 PUSH4 0x8D928AF8 EQ PUSH3 0xC6 JUMPI JUMPDEST PUSH1 0x0 DUP1 REVERT JUMPDEST PUSH3 0x61 PUSH3 0xD0 JUMP JUMPDEST PUSH1 0x40 MLOAD PUSH3 0x71 SWAP3 SWAP2 SWAP1 PUSH3 0x55C JUMP JUMPDEST PUSH1 0x40 MLOAD DUP1 SWAP2 SUB SWAP1 RETURN JUMPDEST PUSH3 0x91 PUSH3 0x8B CALLDATASIZE PUSH1 0x4 PUSH3 0x2DA JUMP JUMPDEST PUSH3 0x13C JUMP JUMPDEST PUSH1 0x40 MLOAD PUSH3 0x71 SWAP2 SWAP1 PUSH3 0x494 JUMP JUMPDEST PUSH3 0xB7 PUSH3 0xB1 CALLDATASIZE PUSH1 0x4 PUSH3 0x300 JUMP JUMPDEST PUSH3 0x15A JUMP JUMPDEST PUSH1 0x40 MLOAD PUSH3 0x71 SWAP2 SWAP1 PUSH3 0x480 JUMP JUMPDEST PUSH3 0xB7 PUSH3 0x1DB JUMP JUMPDEST PUSH1 0x0 DUP1 TIMESTAMP PUSH32 0x0 DUP2 LT ISZERO PUSH3 0x12E JUMPI DUP1 PUSH32 0x0 SUB SWAP3 POP PUSH3 0x278D00 SWAP2 POP PUSH3 0x137 JUMP JUMPDEST PUSH1 0x0 SWAP3 POP PUSH1 0x0 SWAP2 POP JUMPDEST POP SWAP1 SWAP2 JUMP JUMPDEST PUSH1 0x1 PUSH1 0x1 PUSH1 0xA0 SHL SUB AND PUSH1 0x0 SWAP1 DUP2 MSTORE PUSH1 0x20 DUP2 SWAP1 MSTORE PUSH1 0x40 SWAP1 KECCAK256 SLOAD PUSH1 0xFF AND SWAP1 JUMP JUMPDEST PUSH1 0x0 DUP1 PUSH1 0x0 PUSH3 0x169 PUSH3 0xD0 JUMP JUMPDEST SWAP2 POP SWAP2 POP PUSH1 0x0 PUSH3 0x179 PUSH3 0x1DB JUMP JUMPDEST DUP11 DUP11 DUP11 DUP11 DUP11 DUP9 DUP9 DUP13 PUSH1 0x40 MLOAD PUSH3 0x18F SWAP1 PUSH3 0x24B JUMP JUMPDEST PUSH3 0x1A3 SWAP10 SWAP9 SWAP8 SWAP7 SWAP6 SWAP5 SWAP4 SWAP3 SWAP2 SWAP1 PUSH3 0x49F JUMP JUMPDEST PUSH1 0x40 MLOAD DUP1 SWAP2 SUB SWAP1 PUSH1 0x0 CREATE DUP1 ISZERO DUP1 ISZERO PUSH3 0x1C0 JUMPI RETURNDATASIZE PUSH1 0x0 DUP1 RETURNDATACOPY RETURNDATASIZE PUSH1 0x0 REVERT JUMPDEST POP SWAP1 POP PUSH3 0x1CE DUP2 PUSH3 0x1FF JUMP JUMPDEST SWAP10 SWAP9 POP POP POP POP POP POP POP POP POP JUMP JUMPDEST PUSH32 0x0 SWAP1 JUMP JUMPDEST PUSH1 0x1 PUSH1 0x1 PUSH1 0xA0 SHL SUB DUP2 AND PUSH1 0x0 DUP2 DUP2 MSTORE PUSH1 0x20 DUP2 SWAP1 MSTORE PUSH1 0x40 DUP1 DUP3 KECCAK256 DUP1 SLOAD PUSH1 0xFF NOT AND PUSH1 0x1 OR SWAP1 SSTORE MLOAD PUSH32 0x83A48FBCFC991335314E74D0496AAB6A1987E992DDC85DDDBCC4D6DD6EF2E9FC SWAP2 SWAP1 LOG2 POP JUMP JUMPDEST PUSH2 0x523F DUP1 PUSH3 0x5B8 DUP4 CODECOPY ADD SWAP1 JUMP JUMPDEST DUP1 CALLDATALOAD PUSH3 0x266 DUP2 PUSH3 0x59E JUMP JUMPDEST SWAP3 SWAP2 POP POP JUMP JUMPDEST PUSH1 0x0 DUP3 PUSH1 0x1F DUP4 ADD SLT PUSH3 0x27D JUMPI DUP1 DUP2 REVERT JUMPDEST DUP2 CALLDATALOAD PUSH8 0xFFFFFFFFFFFFFFFF DUP2 GT ISZERO PUSH3 0x294 JUMPI DUP2 DUP3 REVERT JUMPDEST PUSH3 0x2A9 PUSH1 0x1F DUP3 ADD PUSH1 0x1F NOT AND PUSH1 0x20 ADD PUSH3 0x56A JUMP JUMPDEST SWAP2 POP DUP1 DUP3 MSTORE DUP4 PUSH1 0x20 DUP3 DUP6 ADD ADD GT ISZERO PUSH3 0x2C1 JUMPI PUSH1 0x0 DUP1 REVERT JUMPDEST DUP1 PUSH1 0x20 DUP5 ADD PUSH1 0x20 DUP5 ADD CALLDATACOPY PUSH1 0x0 SWAP1 DUP3 ADD PUSH1 0x20 ADD MSTORE SWAP3 SWAP2 POP POP JUMP JUMPDEST PUSH1 0x0 PUSH1 0x20 DUP3 DUP5 SUB SLT ISZERO PUSH3 0x2EC JUMPI DUP1 DUP2 REVERT JUMPDEST DUP2 CALLDATALOAD PUSH3 0x2F9 DUP2 PUSH3 0x59E JUMP JUMPDEST SWAP4 SWAP3 POP POP POP JUMP JUMPDEST PUSH1 0x0 DUP1 PUSH1 0x0 DUP1 PUSH1 0x0 DUP1 PUSH1 0xC0 DUP8 DUP10 SUB SLT ISZERO PUSH3 0x319 JUMPI DUP2 DUP3 REVERT JUMPDEST DUP7 CALLDATALOAD PUSH8 0xFFFFFFFFFFFFFFFF DUP1 DUP3 GT ISZERO PUSH3 0x331 JUMPI DUP4 DUP5 REVERT JUMPDEST PUSH3 0x33F DUP11 DUP4 DUP12 ADD PUSH3 0x26C JUMP JUMPDEST SWAP8 POP PUSH1 0x20 SWAP2 POP DUP2 DUP10 ADD CALLDATALOAD DUP2 DUP2 GT ISZERO PUSH3 0x356 JUMPI DUP5 DUP6 REVERT JUMPDEST PUSH3 0x364 DUP12 DUP3 DUP13 ADD PUSH3 0x26C JUMP JUMPDEST SWAP8 POP POP PUSH1 0x40 DUP10 ADD CALLDATALOAD DUP2 DUP2 GT ISZERO PUSH3 0x379 JUMPI DUP5 DUP6 REVERT JUMPDEST DUP10 ADD PUSH1 0x1F DUP2 ADD DUP12 SGT PUSH3 0x38A JUMPI DUP5 DUP6 REVERT JUMPDEST DUP1 CALLDATALOAD DUP3 DUP2 GT ISZERO PUSH3 0x399 JUMPI DUP6 DUP7 REVERT JUMPDEST DUP4 DUP2 MUL SWAP3 POP PUSH3 0x3AB DUP5 DUP5 ADD PUSH3 0x56A JUMP JUMPDEST DUP2 DUP2 MSTORE DUP5 DUP2 ADD SWAP1 DUP4 DUP7 ADD DUP6 DUP6 ADD DUP8 ADD DUP16 LT ISZERO PUSH3 0x3C6 JUMPI DUP9 DUP10 REVERT JUMPDEST DUP9 SWAP6 POP JUMPDEST DUP4 DUP7 LT ISZERO PUSH3 0x3F4 JUMPI PUSH3 0x3DF DUP16 DUP3 PUSH3 0x259 JUMP JUMPDEST DUP4 MSTORE PUSH1 0x1 SWAP6 SWAP1 SWAP6 ADD SWAP5 SWAP2 DUP7 ADD SWAP2 DUP7 ADD PUSH3 0x3CA JUMP JUMPDEST POP SWAP9 POP POP POP POP PUSH1 0x60 DUP10 ADD CALLDATALOAD SWAP5 POP POP POP PUSH1 0x80 DUP8 ADD CALLDATALOAD SWAP2 POP PUSH3 0x419 DUP9 PUSH1 0xA0 DUP10 ADD PUSH3 0x259 JUMP JUMPDEST SWAP1 POP SWAP3 SWAP6 POP SWAP3 SWAP6 POP SWAP3 SWAP6 JUMP JUMPDEST PUSH1 0x1 PUSH1 0x1 PUSH1 0xA0 SHL SUB AND SWAP1 MSTORE JUMP JUMPDEST PUSH1 0x0 DUP2 MLOAD DUP1 DUP5 MSTORE DUP2 JUMPDEST DUP2 DUP2 LT ISZERO PUSH3 0x459 JUMPI PUSH1 0x20 DUP2 DUP6 ADD DUP2 ADD MLOAD DUP7 DUP4 ADD DUP3 ADD MSTORE ADD PUSH3 0x43B JUMP JUMPDEST DUP2 DUP2 GT ISZERO PUSH3 0x46B JUMPI DUP3 PUSH1 0x20 DUP4 DUP8 ADD ADD MSTORE JUMPDEST POP PUSH1 0x1F ADD PUSH1 0x1F NOT AND SWAP3 SWAP1 SWAP3 ADD PUSH1 0x20 ADD SWAP3 SWAP2 POP POP JUMP JUMPDEST PUSH1 0x1 PUSH1 0x1 PUSH1 0xA0 SHL SUB SWAP2 SWAP1 SWAP2 AND DUP2 MSTORE PUSH1 0x20 ADD SWAP1 JUMP JUMPDEST SWAP1 ISZERO ISZERO DUP2 MSTORE PUSH1 0x20 ADD SWAP1 JUMP JUMPDEST PUSH1 0x1 PUSH1 0x1 PUSH1 0xA0 SHL SUB DUP11 AND DUP2 MSTORE PUSH2 0x120 PUSH1 0x20 DUP1 DUP4 ADD DUP3 SWAP1 MSTORE PUSH1 0x0 SWAP2 SWAP1 PUSH3 0x4C8 DUP5 DUP4 ADD DUP14 PUSH3 0x432 JUMP JUMPDEST SWAP2 POP DUP4 DUP3 SUB PUSH1 0x40 DUP6 ADD MSTORE PUSH3 0x4DE DUP3 DUP13 PUSH3 0x432 JUMP JUMPDEST DUP5 DUP2 SUB PUSH1 0x60 DUP7 ADD MSTORE DUP11 MLOAD DUP1 DUP3 MSTORE DUP3 DUP13 ADD SWAP4 POP SWAP1 DUP3 ADD SWAP1 DUP5 JUMPDEST DUP2 DUP2 LT ISZERO PUSH3 0x51E JUMPI PUSH3 0x50B DUP6 MLOAD PUSH3 0x592 JUMP JUMPDEST DUP4 MSTORE SWAP4 DUP4 ADD SWAP4 SWAP2 DUP4 ADD SWAP2 PUSH1 0x1 ADD PUSH3 0x4F6 JUMP JUMPDEST POP POP DUP1 SWAP4 POP POP POP POP DUP7 PUSH1 0x80 DUP4 ADD MSTORE DUP6 PUSH1 0xA0 DUP4 ADD MSTORE DUP5 PUSH1 0xC0 DUP4 ADD MSTORE DUP4 PUSH1 0xE0 DUP4 ADD MSTORE PUSH3 0x54E PUSH2 0x100 DUP4 ADD DUP5 PUSH3 0x425 JUMP JUMPDEST SWAP11 SWAP10 POP POP POP POP POP POP POP POP POP POP JUMP JUMPDEST SWAP2 DUP3 MSTORE PUSH1 0x20 DUP3 ADD MSTORE PUSH1 0x40 ADD SWAP1 JUMP JUMPDEST PUSH1 0x40 MLOAD DUP2 DUP2 ADD PUSH8 0xFFFFFFFFFFFFFFFF DUP2 GT DUP3 DUP3 LT OR ISZERO PUSH3 0x58A JUMPI PUSH1 0x0 DUP1 REVERT JUMPDEST PUSH1 0x40 MSTORE SWAP2 SWAP1 POP JUMP JUMPDEST PUSH1 0x1 PUSH1 0x1 PUSH1 0xA0 SHL SUB AND SWAP1 JUMP JUMPDEST PUSH1 0x1 PUSH1 0x1 PUSH1 0xA0 SHL SUB DUP2 AND DUP2 EQ PUSH3 0x5B4 JUMPI PUSH1 0x0 DUP1 REVERT JUMPDEST POP JUMP INVALID PUSH2 0x320 PUSH1 0x40 MSTORE PUSH32 0x6E71EDAE12B1B97F4D1F60370FEF10105FA2FAAE0126114A169C64845D6126C9 PUSH2 0x120 MSTORE CALLVALUE DUP1 ISZERO PUSH3 0x37 JUMPI PUSH1 0x0 DUP1 REVERT JUMPDEST POP PUSH1 0x40 MLOAD PUSH3 0x523F CODESIZE SUB DUP1 PUSH3 0x523F DUP4 CODECOPY DUP2 ADD PUSH1 0x40 DUP2 SWAP1 MSTORE PUSH3 0x5A SWAP2 PUSH3 0xAE2 JUMP JUMPDEST DUP9 DUP7 MLOAD PUSH1 0x2 EQ PUSH3 0x6D JUMPI PUSH1 0x0 PUSH3 0x70 JUMP JUMPDEST PUSH1 0x2 JUMPDEST DUP10 DUP10 DUP10 DUP11 MLOAD PUSH1 0x1 PUSH1 0x1 PUSH1 0x40 SHL SUB DUP2 GT DUP1 ISZERO PUSH3 0x8B JUMPI PUSH1 0x0 DUP1 REVERT JUMPDEST POP PUSH1 0x40 MLOAD SWAP1 DUP1 DUP3 MSTORE DUP1 PUSH1 0x20 MUL PUSH1 0x20 ADD DUP3 ADD PUSH1 0x40 MSTORE DUP1 ISZERO PUSH3 0xB6 JUMPI DUP2 PUSH1 0x20 ADD PUSH1 0x20 DUP3 MUL DUP1 CALLDATASIZE DUP4 CALLDATACOPY ADD SWAP1 POP JUMPDEST POP DUP10 DUP10 DUP10 DUP10 DUP3 DUP3 DUP10 DUP10 DUP14 DUP3 DUP1 PUSH1 0x40 MLOAD DUP1 PUSH1 0x40 ADD PUSH1 0x40 MSTORE DUP1 PUSH1 0x1 DUP2 MSTORE PUSH1 0x20 ADD PUSH1 0x31 PUSH1 0xF8 SHL DUP2 MSTORE POP DUP6 DUP6 DUP11 CALLER PUSH1 0x1 PUSH1 0x1 PUSH1 0xA0 SHL SUB AND PUSH1 0x0 SHL DUP1 PUSH1 0x80 DUP2 DUP2 MSTORE POP POP POP DUP1 PUSH1 0x1 PUSH1 0x1 PUSH1 0xA0 SHL SUB AND PUSH1 0xA0 DUP2 PUSH1 0x1 PUSH1 0x1 PUSH1 0xA0 SHL SUB AND PUSH1 0x60 SHL DUP2 MSTORE POP POP POP DUP2 PUSH1 0x3 SWAP1 DUP1 MLOAD SWAP1 PUSH1 0x20 ADD SWAP1 PUSH3 0x12B SWAP3 SWAP2 SWAP1 PUSH3 0x900 JUMP JUMPDEST POP DUP1 MLOAD PUSH3 0x141 SWAP1 PUSH1 0x4 SWAP1 PUSH1 0x20 DUP5 ADD SWAP1 PUSH3 0x900 JUMP JUMPDEST POP POP PUSH1 0x5 DUP1 SLOAD PUSH1 0x12 PUSH1 0xFF NOT SWAP1 SWAP2 AND OR SWAP1 SSTORE POP DUP2 MLOAD PUSH1 0x20 SWAP3 DUP4 ADD KECCAK256 PUSH1 0xC0 MSTORE DUP1 MLOAD SWAP2 ADD KECCAK256 PUSH1 0xE0 MSTORE POP PUSH32 0x8B73C3C69BB8FE3D512ECC4CF759CC79239F7B179B0FFACAA9A75D522B39400F PUSH2 0x100 MSTORE PUSH1 0x60 SHL PUSH1 0x1 PUSH1 0x1 PUSH1 0x60 SHL SUB NOT AND PUSH2 0x140 MSTORE POP PUSH3 0x1B4 SWAP1 POP PUSH3 0x76A700 DUP4 GT ISZERO PUSH2 0x194 PUSH3 0x569 JUMP JUMPDEST PUSH3 0x1C8 PUSH3 0x278D00 DUP3 GT ISZERO PUSH2 0x195 PUSH3 0x569 JUMP JUMPDEST TIMESTAMP SWAP1 SWAP2 ADD PUSH2 0x160 DUP2 SWAP1 MSTORE ADD PUSH2 0x180 MSTORE DUP6 MLOAD PUSH3 0x1EA SWAP1 PUSH1 0x2 GT ISZERO PUSH1 0xC8 PUSH3 0x569 JUMP JUMPDEST PUSH3 0x204 PUSH3 0x1F8 PUSH3 0x57E JUMP JUMPDEST DUP8 MLOAD GT ISZERO PUSH1 0xC9 PUSH3 0x569 JUMP JUMPDEST PUSH3 0x21A DUP7 PUSH3 0x583 PUSH1 0x20 SHL PUSH3 0x1006 OR PUSH1 0x20 SHR JUMP JUMPDEST PUSH3 0x225 DUP5 PUSH3 0x58F JUMP JUMPDEST PUSH1 0x40 MLOAD PUSH4 0x9B2760F PUSH1 0xE0 SHL DUP2 MSTORE PUSH1 0x0 SWAP1 PUSH1 0x1 PUSH1 0x1 PUSH1 0xA0 SHL SUB DUP13 AND SWAP1 PUSH4 0x9B2760F SWAP1 PUSH3 0x256 SWAP1 DUP14 SWAP1 PUSH1 0x4 ADD PUSH3 0xC7E JUMP JUMPDEST PUSH1 0x20 PUSH1 0x40 MLOAD DUP1 DUP4 SUB DUP2 PUSH1 0x0 DUP8 DUP1 EXTCODESIZE ISZERO DUP1 ISZERO PUSH3 0x271 JUMPI PUSH1 0x0 DUP1 REVERT JUMPDEST POP GAS CALL ISZERO DUP1 ISZERO PUSH3 0x286 JUMPI RETURNDATASIZE PUSH1 0x0 DUP1 RETURNDATACOPY RETURNDATASIZE PUSH1 0x0 REVERT JUMPDEST POP POP POP POP PUSH1 0x40 MLOAD RETURNDATASIZE PUSH1 0x1F NOT PUSH1 0x1F DUP3 ADD AND DUP3 ADD DUP1 PUSH1 0x40 MSTORE POP DUP2 ADD SWAP1 PUSH3 0x2AC SWAP2 SWAP1 PUSH3 0xAC9 JUMP JUMPDEST PUSH1 0x40 MLOAD PUSH4 0x3354E3E9 PUSH1 0xE1 SHL DUP2 MSTORE SWAP1 SWAP2 POP PUSH1 0x1 PUSH1 0x1 PUSH1 0xA0 SHL SUB DUP13 AND SWAP1 PUSH4 0x66A9C7D2 SWAP1 PUSH3 0x2E1 SWAP1 DUP5 SWAP1 DUP12 SWAP1 DUP12 SWAP1 PUSH1 0x4 ADD PUSH3 0xBE2 JUMP JUMPDEST PUSH1 0x0 PUSH1 0x40 MLOAD DUP1 DUP4 SUB DUP2 PUSH1 0x0 DUP8 DUP1 EXTCODESIZE ISZERO DUP1 ISZERO PUSH3 0x2FC JUMPI PUSH1 0x0 DUP1 REVERT JUMPDEST POP GAS CALL ISZERO DUP1 ISZERO PUSH3 0x311 JUMPI RETURNDATASIZE PUSH1 0x0 DUP1 RETURNDATACOPY RETURNDATASIZE PUSH1 0x0 REVERT JUMPDEST POP POP POP PUSH2 0x1A0 SWAP2 SWAP1 SWAP2 MSTORE POP PUSH3 0x33C SWAP10 POP POP POP PUSH1 0x1 DUP14 LT ISZERO SWAP7 POP PUSH2 0x12C SWAP6 POP POP PUSH3 0x569 SWAP4 POP POP POP POP JUMP JUMPDEST PUSH3 0x34F PUSH2 0x1388 DUP7 GT ISZERO PUSH2 0x12D PUSH3 0x569 JUMP JUMPDEST DUP6 MLOAD PUSH2 0x1C0 DUP2 SWAP1 MSTORE DUP7 MLOAD DUP8 SWAP1 PUSH1 0x0 SWAP1 PUSH3 0x365 JUMPI INVALID JUMPDEST PUSH1 0x20 MUL PUSH1 0x20 ADD ADD MLOAD PUSH1 0x1 PUSH1 0x1 PUSH1 0xA0 SHL SUB AND PUSH2 0x1E0 DUP2 PUSH1 0x1 PUSH1 0x1 PUSH1 0xA0 SHL SUB AND PUSH1 0x60 SHL DUP2 MSTORE POP POP DUP7 PUSH1 0x1 DUP2 MLOAD DUP2 LT PUSH3 0x398 JUMPI INVALID JUMPDEST PUSH1 0x20 MUL PUSH1 0x20 ADD ADD MLOAD PUSH1 0x1 PUSH1 0x1 PUSH1 0xA0 SHL SUB AND PUSH2 0x200 DUP2 PUSH1 0x1 PUSH1 0x1 PUSH1 0xA0 SHL SUB AND PUSH1 0x60 SHL DUP2 MSTORE POP POP PUSH1 0x2 DUP2 GT PUSH3 0x3CE JUMPI PUSH1 0x0 PUSH3 0x3E5 JUMP JUMPDEST DUP7 PUSH1 0x2 DUP2 MLOAD DUP2 LT PUSH3 0x3DC JUMPI INVALID JUMPDEST PUSH1 0x20 MUL PUSH1 0x20 ADD ADD MLOAD JUMPDEST PUSH1 0x60 SHL PUSH1 0x1 PUSH1 0x1 PUSH1 0x60 SHL SUB NOT AND PUSH2 0x220 MSTORE PUSH1 0x3 DUP2 GT PUSH3 0x407 JUMPI PUSH1 0x0 PUSH3 0x41E JUMP JUMPDEST DUP7 PUSH1 0x3 DUP2 MLOAD DUP2 LT PUSH3 0x415 JUMPI INVALID JUMPDEST PUSH1 0x20 MUL PUSH1 0x20 ADD ADD MLOAD JUMPDEST PUSH1 0x60 SHL PUSH1 0x1 PUSH1 0x1 PUSH1 0x60 SHL SUB NOT AND PUSH2 0x240 MSTORE PUSH1 0x4 DUP2 GT PUSH3 0x440 JUMPI PUSH1 0x0 PUSH3 0x457 JUMP JUMPDEST DUP7 PUSH1 0x4 DUP2 MLOAD DUP2 LT PUSH3 0x44E JUMPI INVALID JUMPDEST PUSH1 0x20 MUL PUSH1 0x20 ADD ADD MLOAD JUMPDEST PUSH1 0x1 PUSH1 0x1 PUSH1 0xA0 SHL SUB AND PUSH2 0x260 DUP2 PUSH1 0x1 PUSH1 0x1 PUSH1 0xA0 SHL SUB AND PUSH1 0x60 SHL DUP2 MSTORE POP POP PUSH3 0x49A DUP8 PUSH1 0x0 DUP2 MLOAD DUP2 LT PUSH3 0x486 JUMPI INVALID JUMPDEST PUSH1 0x20 MUL PUSH1 0x20 ADD ADD MLOAD PUSH3 0x61B PUSH1 0x20 SHL PUSH1 0x20 SHR JUMP JUMPDEST PUSH2 0x280 MSTORE DUP7 MLOAD PUSH3 0x4B3 SWAP1 DUP9 SWAP1 PUSH1 0x1 SWAP1 DUP2 LT PUSH3 0x486 JUMPI INVALID JUMPDEST PUSH2 0x2A0 MSTORE PUSH1 0x2 DUP2 GT PUSH3 0x4C8 JUMPI PUSH1 0x0 PUSH3 0x4DA JUMP JUMPDEST PUSH3 0x4DA DUP8 PUSH1 0x2 DUP2 MLOAD DUP2 LT PUSH3 0x486 JUMPI INVALID JUMPDEST PUSH2 0x2C0 MSTORE PUSH1 0x3 DUP2 GT PUSH3 0x4EF JUMPI PUSH1 0x0 PUSH3 0x501 JUMP JUMPDEST PUSH3 0x501 DUP8 PUSH1 0x3 DUP2 MLOAD DUP2 LT PUSH3 0x486 JUMPI INVALID JUMPDEST PUSH2 0x2E0 MSTORE PUSH1 0x4 DUP2 GT PUSH3 0x516 JUMPI PUSH1 0x0 PUSH3 0x528 JUMP JUMPDEST PUSH3 0x528 DUP8 PUSH1 0x4 DUP2 MLOAD DUP2 LT PUSH3 0x486 JUMPI INVALID JUMPDEST PUSH2 0x300 DUP2 DUP2 MSTORE POP POP PUSH1 0x0 PUSH3 0x54B DUP8 PUSH2 0x3E8 PUSH3 0x6EF PUSH1 0x20 SHL PUSH3 0x1010 OR PUSH1 0x20 SHR JUMP JUMPDEST SWAP1 POP PUSH3 0x558 DUP2 PUSH3 0x720 JUMP JUMPDEST POP POP POP POP POP POP POP POP POP POP POP PUSH3 0xCE5 JUMP JUMPDEST DUP2 PUSH3 0x57A JUMPI PUSH3 0x57A DUP2 PUSH3 0x75F JUMP JUMPDEST POP POP JUMP JUMPDEST PUSH1 0x5 SWAP1 JUMP JUMPDEST DUP1 PUSH3 0x57A DUP2 PUSH3 0x7B2 JUMP JUMPDEST PUSH3 0x5A4 PUSH5 0xE8D4A51000 DUP3 LT ISZERO PUSH1 0xCB PUSH3 0x569 JUMP JUMPDEST PUSH3 0x5BC PUSH8 0x16345785D8A0000 DUP3 GT ISZERO PUSH1 0xCA PUSH3 0x569 JUMP JUMPDEST PUSH3 0x5DB DUP2 PUSH1 0xC0 PUSH1 0x8 SLOAD PUSH3 0x83F PUSH1 0x20 SHL PUSH3 0x1034 OR SWAP1 SWAP3 SWAP2 SWAP1 PUSH1 0x20 SHR JUMP JUMPDEST PUSH1 0x8 SSTORE PUSH1 0x40 MLOAD PUSH32 0xA9BA3FFE0B6C366B81232CAAB38605A0699AD5398D6CCE76F91EE809E322DAFC SWAP1 PUSH3 0x610 SWAP1 DUP4 SWAP1 PUSH3 0xC93 JUMP JUMPDEST PUSH1 0x40 MLOAD DUP1 SWAP2 SUB SWAP1 LOG1 POP JUMP JUMPDEST PUSH1 0x0 PUSH1 0x1 PUSH1 0x1 PUSH1 0xA0 SHL SUB DUP3 AND ADDRESS EQ ISZERO PUSH3 0x63F JUMPI POP PUSH8 0xDE0B6B3A7640000 PUSH3 0x6EA JUMP JUMPDEST PUSH1 0x0 DUP3 PUSH1 0x1 PUSH1 0x1 PUSH1 0xA0 SHL SUB AND PUSH4 0x313CE567 PUSH1 0x40 MLOAD DUP2 PUSH4 0xFFFFFFFF AND PUSH1 0xE0 SHL DUP2 MSTORE PUSH1 0x4 ADD PUSH1 0x20 PUSH1 0x40 MLOAD DUP1 DUP4 SUB DUP2 DUP7 DUP1 EXTCODESIZE ISZERO DUP1 ISZERO PUSH3 0x67B JUMPI PUSH1 0x0 DUP1 REVERT JUMPDEST POP GAS STATICCALL ISZERO DUP1 ISZERO PUSH3 0x690 JUMPI RETURNDATASIZE PUSH1 0x0 DUP1 RETURNDATACOPY RETURNDATASIZE PUSH1 0x0 REVERT JUMPDEST POP POP POP POP PUSH1 0x40 MLOAD RETURNDATASIZE PUSH1 0x1F NOT PUSH1 0x1F DUP3 ADD AND DUP3 ADD DUP1 PUSH1 0x40 MSTORE POP DUP2 ADD SWAP1 PUSH3 0x6B6 SWAP2 SWAP1 PUSH3 0xBBF JUMP JUMPDEST PUSH1 0xFF AND SWAP1 POP PUSH1 0x0 PUSH3 0x6D5 PUSH1 0x12 DUP4 PUSH3 0x854 PUSH1 0x20 SHL PUSH3 0x1049 OR PUSH1 0x20 SHR JUMP JUMPDEST SWAP1 POP DUP1 PUSH1 0xA EXP PUSH8 0xDE0B6B3A7640000 MUL SWAP3 POP POP POP JUMPDEST SWAP2 SWAP1 POP JUMP JUMPDEST PUSH1 0x0 DUP3 DUP3 MUL PUSH3 0x717 DUP5 ISZERO DUP1 PUSH3 0x70F JUMPI POP DUP4 DUP6 DUP4 DUP2 PUSH3 0x70C JUMPI INVALID JUMPDEST DIV EQ JUMPDEST PUSH1 0x3 PUSH3 0x569 JUMP JUMPDEST SWAP1 POP JUMPDEST SWAP3 SWAP2 POP POP JUMP JUMPDEST PUSH3 0x72E DUP2 DUP1 TIMESTAMP DUP1 PUSH3 0x86C JUMP JUMPDEST PUSH32 0xA0D01593E47E69D07E0CCD87BECE09411E07DD1ED40CA8F2E7AF2976542A0233 DUP2 PUSH1 0x40 MLOAD PUSH3 0x610 SWAP2 SWAP1 PUSH3 0xC93 JUMP JUMPDEST PUSH3 0x461BCD PUSH1 0xE5 SHL PUSH1 0x0 SWAP1 DUP2 MSTORE PUSH1 0x20 PUSH1 0x4 MSTORE PUSH1 0x7 PUSH1 0x24 MSTORE PUSH7 0x42414C23000030 PUSH1 0xA DUP1 DUP5 DIV DUP2 DUP2 MOD PUSH1 0x30 SWAP1 DUP2 ADD PUSH1 0x8 SHL SWAP6 DUP4 SWAP1 MOD SWAP6 SWAP1 SWAP6 ADD SWAP1 DUP3 SWAP1 DIV SWAP2 DUP3 MOD SWAP1 SWAP5 ADD PUSH1 0x10 SHL SWAP4 SWAP1 SWAP4 ADD ADD PUSH1 0xC8 SHL PUSH1 0x44 MSTORE PUSH1 0x64 SWAP1 REVERT JUMPDEST PUSH1 0x2 DUP2 MLOAD LT ISZERO PUSH3 0x7C3 JUMPI PUSH3 0x83C JUMP JUMPDEST PUSH1 0x0 DUP2 PUSH1 0x0 DUP2 MLOAD DUP2 LT PUSH3 0x7D3 JUMPI INVALID JUMPDEST PUSH1 0x20 MUL PUSH1 0x20 ADD ADD MLOAD SWAP1 POP PUSH1 0x0 PUSH1 0x1 SWAP1 POP JUMPDEST DUP3 MLOAD DUP2 LT ISZERO PUSH3 0x839 JUMPI PUSH1 0x0 DUP4 DUP3 DUP2 MLOAD DUP2 LT PUSH3 0x7FD JUMPI INVALID JUMPDEST PUSH1 0x20 MUL PUSH1 0x20 ADD ADD MLOAD SWAP1 POP PUSH3 0x82E DUP2 PUSH1 0x1 PUSH1 0x1 PUSH1 0xA0 SHL SUB AND DUP5 PUSH1 0x1 PUSH1 0x1 PUSH1 0xA0 SHL SUB AND LT PUSH1 0x65 PUSH3 0x569 PUSH1 0x20 SHL PUSH1 0x20 SHR JUMP JUMPDEST SWAP2 POP PUSH1 0x1 ADD PUSH3 0x7E4 JUMP JUMPDEST POP POP JUMPDEST POP JUMP JUMPDEST PUSH1 0x1 PUSH1 0x1 PUSH1 0x40 SHL SUB DUP2 SHL NOT SWAP3 SWAP1 SWAP3 AND SWAP2 SHL OR SWAP1 JUMP JUMPDEST PUSH1 0x0 PUSH3 0x866 DUP4 DUP4 GT ISZERO PUSH1 0x1 PUSH3 0x569 JUMP JUMPDEST POP SWAP1 SUB SWAP1 JUMP JUMPDEST PUSH3 0x88D DUP2 PUSH1 0x1 PUSH1 0x1 PUSH1 0x40 SHL SUB AND PUSH1 0xC0 PUSH3 0x8FC PUSH1 0x20 SHL PUSH3 0x105F OR PUSH1 0x20 SHR JUMP JUMPDEST PUSH3 0x8AE DUP4 PUSH1 0x1 PUSH1 0x1 PUSH1 0x40 SHL SUB AND PUSH1 0x80 PUSH3 0x8FC PUSH1 0x20 SHL PUSH3 0x105F OR PUSH1 0x20 SHR JUMP JUMPDEST PUSH3 0x8CF DUP6 PUSH1 0x1 PUSH1 0x1 PUSH1 0x40 SHL SUB AND PUSH1 0x40 PUSH3 0x8FC PUSH1 0x20 SHL PUSH3 0x105F OR PUSH1 0x20 SHR JUMP JUMPDEST PUSH3 0x8F0 DUP8 PUSH1 0x1 PUSH1 0x1 PUSH1 0x40 SHL SUB AND PUSH1 0x0 PUSH3 0x8FC PUSH1 0x20 SHL PUSH3 0x105F OR PUSH1 0x20 SHR JUMP JUMPDEST OR OR OR PUSH1 0x9 SSTORE POP POP POP POP JUMP JUMPDEST SHL SWAP1 JUMP JUMPDEST DUP3 DUP1 SLOAD PUSH1 0x1 DUP2 PUSH1 0x1 AND ISZERO PUSH2 0x100 MUL SUB AND PUSH1 0x2 SWAP1 DIV SWAP1 PUSH1 0x0 MSTORE PUSH1 0x20 PUSH1 0x0 KECCAK256 SWAP1 PUSH1 0x1F ADD PUSH1 0x20 SWAP1 DIV DUP2 ADD SWAP3 DUP3 PUSH1 0x1F LT PUSH3 0x943 JUMPI DUP1 MLOAD PUSH1 0xFF NOT AND DUP4 DUP1 ADD OR DUP6 SSTORE PUSH3 0x973 JUMP JUMPDEST DUP3 DUP1 ADD PUSH1 0x1 ADD DUP6 SSTORE DUP3 ISZERO PUSH3 0x973 JUMPI SWAP2 DUP3 ADD JUMPDEST DUP3 DUP2 GT ISZERO PUSH3 0x973 JUMPI DUP3 MLOAD DUP3 SSTORE SWAP2 PUSH1 0x20 ADD SWAP2 SWAP1 PUSH1 0x1 ADD SWAP1 PUSH3 0x956 JUMP JUMPDEST POP PUSH3 0x981 SWAP3 SWAP2 POP PUSH3 0x985 JUMP JUMPDEST POP SWAP1 JUMP JUMPDEST JUMPDEST DUP1 DUP3 GT ISZERO PUSH3 0x981 JUMPI PUSH1 0x0 DUP2 SSTORE PUSH1 0x1 ADD PUSH3 0x986 JUMP JUMPDEST DUP1 MLOAD PUSH3 0x71A DUP2 PUSH3 0xCCF JUMP JUMPDEST PUSH1 0x0 DUP3 PUSH1 0x1F DUP4 ADD SLT PUSH3 0x9BA JUMPI DUP1 DUP2 REVERT JUMPDEST DUP2 MLOAD PUSH1 0x1 PUSH1 0x1 PUSH1 0x40 SHL SUB DUP2 GT ISZERO PUSH3 0x9D0 JUMPI DUP2 DUP3 REVERT JUMPDEST PUSH1 0x20 DUP1 DUP3 MUL PUSH3 0x9E2 DUP3 DUP3 ADD PUSH3 0xC9C JUMP JUMPDEST DUP4 DUP2 MSTORE SWAP4 POP DUP2 DUP5 ADD DUP6 DUP4 ADD DUP3 DUP8 ADD DUP5 ADD DUP9 LT ISZERO PUSH3 0x9FF JUMPI PUSH1 0x0 DUP1 REVERT JUMPDEST PUSH1 0x0 SWAP3 POP JUMPDEST DUP5 DUP4 LT ISZERO PUSH3 0xA2F JUMPI DUP1 MLOAD PUSH3 0xA1A DUP2 PUSH3 0xCCF JUMP JUMPDEST DUP3 MSTORE PUSH1 0x1 SWAP3 SWAP1 SWAP3 ADD SWAP2 SWAP1 DUP4 ADD SWAP1 DUP4 ADD PUSH3 0xA04 JUMP JUMPDEST POP POP POP POP POP SWAP3 SWAP2 POP POP JUMP JUMPDEST PUSH1 0x0 DUP3 PUSH1 0x1F DUP4 ADD SLT PUSH3 0xA4B JUMPI DUP1 DUP2 REVERT JUMPDEST DUP2 MLOAD PUSH1 0x1 PUSH1 0x1 PUSH1 0x40 SHL SUB DUP2 GT ISZERO PUSH3 0xA61 JUMPI DUP2 DUP3 REVERT JUMPDEST PUSH1 0x20 PUSH3 0xA77 PUSH1 0x1F DUP4 ADD PUSH1 0x1F NOT AND DUP3 ADD PUSH3 0xC9C JUMP JUMPDEST SWAP3 POP DUP2 DUP4 MSTORE DUP5 DUP2 DUP4 DUP7 ADD ADD GT ISZERO PUSH3 0xA8E JUMPI PUSH1 0x0 DUP1 REVERT JUMPDEST PUSH1 0x0 JUMPDEST DUP3 DUP2 LT ISZERO PUSH3 0xAAE JUMPI DUP5 DUP2 ADD DUP3 ADD MLOAD DUP5 DUP3 ADD DUP4 ADD MSTORE DUP2 ADD PUSH3 0xA91 JUMP JUMPDEST DUP3 DUP2 GT ISZERO PUSH3 0xAC0 JUMPI PUSH1 0x0 DUP3 DUP5 DUP7 ADD ADD MSTORE JUMPDEST POP POP POP SWAP3 SWAP2 POP POP JUMP JUMPDEST PUSH1 0x0 PUSH1 0x20 DUP3 DUP5 SUB SLT ISZERO PUSH3 0xADB JUMPI DUP1 DUP2 REVERT JUMPDEST POP MLOAD SWAP2 SWAP1 POP JUMP JUMPDEST PUSH1 0x0 DUP1 PUSH1 0x0 DUP1 PUSH1 0x0 DUP1 PUSH1 0x0 DUP1 PUSH1 0x0 PUSH2 0x120 DUP11 DUP13 SUB SLT ISZERO PUSH3 0xB01 JUMPI DUP5 DUP6 REVERT JUMPDEST PUSH3 0xB0D DUP12 DUP12 PUSH3 0x99C JUMP JUMPDEST PUSH1 0x20 DUP12 ADD MLOAD SWAP1 SWAP10 POP PUSH1 0x1 PUSH1 0x1 PUSH1 0x40 SHL SUB DUP1 DUP3 GT ISZERO PUSH3 0xB2A JUMPI DUP7 DUP8 REVERT JUMPDEST PUSH3 0xB38 DUP14 DUP4 DUP15 ADD PUSH3 0xA3A JUMP JUMPDEST SWAP10 POP PUSH1 0x40 DUP13 ADD MLOAD SWAP2 POP DUP1 DUP3 GT ISZERO PUSH3 0xB4E JUMPI DUP7 DUP8 REVERT JUMPDEST PUSH3 0xB5C DUP14 DUP4 DUP15 ADD PUSH3 0xA3A JUMP JUMPDEST SWAP9 POP PUSH1 0x60 DUP13 ADD MLOAD SWAP2 POP DUP1 DUP3 GT ISZERO PUSH3 0xB72 JUMPI DUP7 DUP8 REVERT JUMPDEST POP PUSH3 0xB81 DUP13 DUP3 DUP14 ADD PUSH3 0x9A9 JUMP JUMPDEST SWAP7 POP POP PUSH1 0x80 DUP11 ADD MLOAD SWAP5 POP PUSH1 0xA0 DUP11 ADD MLOAD SWAP4 POP PUSH1 0xC0 DUP11 ADD MLOAD SWAP3 POP PUSH1 0xE0 DUP11 ADD MLOAD SWAP2 POP PUSH3 0xBB0 DUP12 PUSH2 0x100 DUP13 ADD PUSH3 0x99C JUMP JUMPDEST SWAP1 POP SWAP3 SWAP6 SWAP9 POP SWAP3 SWAP6 SWAP9 POP SWAP3 SWAP6 SWAP9 JUMP JUMPDEST PUSH1 0x0 PUSH1 0x20 DUP3 DUP5 SUB SLT ISZERO PUSH3 0xBD1 JUMPI DUP1 DUP2 REVERT JUMPDEST DUP2 MLOAD PUSH1 0xFF DUP2 AND DUP2 EQ PUSH3 0x717 JUMPI DUP2 DUP3 REVERT JUMPDEST PUSH1 0x0 PUSH1 0x60 DUP3 ADD DUP6 DUP4 MSTORE PUSH1 0x20 PUSH1 0x60 DUP2 DUP6 ADD MSTORE DUP2 DUP7 MLOAD DUP1 DUP5 MSTORE PUSH1 0x80 DUP7 ADD SWAP2 POP DUP3 DUP9 ADD SWAP4 POP DUP5 JUMPDEST DUP2 DUP2 LT ISZERO PUSH3 0xC2E JUMPI PUSH3 0xC1B DUP6 MLOAD PUSH3 0xCC3 JUMP JUMPDEST DUP4 MSTORE SWAP4 DUP4 ADD SWAP4 SWAP2 DUP4 ADD SWAP2 PUSH1 0x1 ADD PUSH3 0xC06 JUMP JUMPDEST POP POP DUP5 DUP2 SUB PUSH1 0x40 DUP7 ADD MSTORE DUP6 MLOAD DUP1 DUP3 MSTORE SWAP1 DUP3 ADD SWAP3 POP DUP2 DUP7 ADD SWAP1 DUP5 JUMPDEST DUP2 DUP2 LT ISZERO PUSH3 0xC70 JUMPI PUSH3 0xC5D DUP4 MLOAD PUSH3 0xCC3 JUMP JUMPDEST DUP6 MSTORE SWAP4 DUP4 ADD SWAP4 SWAP2 DUP4 ADD SWAP2 PUSH1 0x1 ADD PUSH3 0xC48 JUMP JUMPDEST POP SWAP3 SWAP9 SWAP8 POP POP POP POP POP POP POP POP JUMP JUMPDEST PUSH1 0x20 DUP2 ADD PUSH1 0x3 DUP4 LT PUSH3 0xC8D JUMPI INVALID JUMPDEST SWAP2 SWAP1 MSTORE SWAP1 JUMP JUMPDEST SWAP1 DUP2 MSTORE PUSH1 0x20 ADD SWAP1 JUMP JUMPDEST PUSH1 0x40 MLOAD DUP2 DUP2 ADD PUSH1 0x1 PUSH1 0x1 PUSH1 0x40 SHL SUB DUP2 GT DUP3 DUP3 LT OR ISZERO PUSH3 0xCBB JUMPI PUSH1 0x0 DUP1 REVERT JUMPDEST PUSH1 0x40 MSTORE SWAP2 SWAP1 POP JUMP JUMPDEST PUSH1 0x1 PUSH1 0x1 PUSH1 0xA0 SHL SUB AND SWAP1 JUMP JUMPDEST PUSH1 0x1 PUSH1 0x1 PUSH1 0xA0 SHL SUB DUP2 AND DUP2 EQ PUSH3 0x83C JUMPI PUSH1 0x0 DUP1 REVERT JUMPDEST PUSH1 0x80 MLOAD PUSH1 0xA0 MLOAD PUSH1 0x60 SHR PUSH1 0xC0 MLOAD PUSH1 0xE0 MLOAD PUSH2 0x100 MLOAD PUSH2 0x120 MLOAD PUSH2 0x140 MLOAD PUSH1 0x60 SHR PUSH2 0x160 MLOAD PUSH2 0x180 MLOAD PUSH2 0x1A0 MLOAD PUSH2 0x1C0 MLOAD PUSH2 0x1E0 MLOAD PUSH1 0x60 SHR PUSH2 0x200 MLOAD PUSH1 0x60 SHR PUSH2 0x220 MLOAD PUSH1 0x60 SHR PUSH2 0x240 MLOAD PUSH1 0x60 SHR PUSH2 0x260 MLOAD PUSH1 0x60 SHR PUSH2 0x280 MLOAD PUSH2 0x2A0 MLOAD PUSH2 0x2C0 MLOAD PUSH2 0x2E0 MLOAD PUSH2 0x300 MLOAD PUSH2 0x4465 PUSH3 0xDDA PUSH1 0x0 CODECOPY DUP1 PUSH2 0x2097 MSTORE POP DUP1 PUSH2 0x2073 MSTORE POP DUP1 PUSH2 0x204F MSTORE POP DUP1 PUSH2 0x202B MSTORE POP DUP1 PUSH2 0x2007 MSTORE POP DUP1 PUSH2 0x1C6D MSTORE POP DUP1 PUSH2 0x1C2B MSTORE POP DUP1 PUSH2 0x1BE9 MSTORE POP DUP1 PUSH2 0x28C1 MSTORE POP DUP1 PUSH2 0x288F MSTORE POP DUP1 PUSH2 0x1073 MSTORE POP DUP1 PUSH2 0x7E3 MSTORE POP DUP1 PUSH2 0x140B MSTORE POP DUP1 PUSH2 0x13E7 MSTORE POP DUP1 PUSH2 0xAE4 MSTORE POP DUP1 PUSH2 0xD59 MSTORE POP DUP1 PUSH2 0x1607 MSTORE POP DUP1 PUSH2 0x1649 MSTORE POP DUP1 PUSH2 0x1628 MSTORE POP DUP1 PUSH2 0xAC0 MSTORE POP DUP1 PUSH2 0xA4A MSTORE POP PUSH2 0x4465 PUSH1 0x0 RETURN INVALID PUSH1 0x80 PUSH1 0x40 MSTORE CALLVALUE DUP1 ISZERO PUSH2 0x10 JUMPI PUSH1 0x0 DUP1 REVERT JUMPDEST POP PUSH1 0x4 CALLDATASIZE LT PUSH2 0x21C JUMPI PUSH1 0x0 CALLDATALOAD PUSH1 0xE0 SHR DUP1 PUSH4 0x6DACCFFA GT PUSH2 0x125 JUMPI DUP1 PUSH4 0x9B02CDDE GT PUSH2 0xAD JUMPI DUP1 PUSH4 0xAAABADC5 GT PUSH2 0x7C JUMPI DUP1 PUSH4 0xAAABADC5 EQ PUSH2 0x475 JUMPI DUP1 PUSH4 0xD505ACCF EQ PUSH2 0x47D JUMPI DUP1 PUSH4 0xD5C096C4 EQ PUSH2 0x490 JUMPI DUP1 PUSH4 0xDD62ED3E EQ PUSH2 0x4A3 JUMPI DUP1 PUSH4 0xEB0F24D6 EQ PUSH2 0x4B6 JUMPI PUSH2 0x21C JUMP JUMPDEST DUP1 PUSH4 0x9B02CDDE EQ PUSH2 0x426 JUMPI DUP1 PUSH4 0x9D2C110C EQ PUSH2 0x43C JUMPI DUP1 PUSH4 0xA457C2D7 EQ PUSH2 0x44F JUMPI DUP1 PUSH4 0xA9059CBB EQ PUSH2 0x462 JUMPI PUSH2 0x21C JUMP JUMPDEST DUP1 PUSH4 0x851C1BB3 GT PUSH2 0xF4 JUMPI DUP1 PUSH4 0x851C1BB3 EQ PUSH2 0x3DB JUMPI DUP1 PUSH4 0x87EC6817 EQ PUSH2 0x3EE JUMPI DUP1 PUSH4 0x893D20E8 EQ PUSH2 0x401 JUMPI DUP1 PUSH4 0x8D928AF8 EQ PUSH2 0x416 JUMPI DUP1 PUSH4 0x95D89B41 EQ PUSH2 0x41E JUMPI PUSH2 0x21C JUMP JUMPDEST DUP1 PUSH4 0x6DACCFFA EQ PUSH2 0x37D JUMPI DUP1 PUSH4 0x70A08231 EQ PUSH2 0x394 JUMPI DUP1 PUSH4 0x74F3B009 EQ PUSH2 0x3A7 JUMPI DUP1 PUSH4 0x7ECEBE00 EQ PUSH2 0x3C8 JUMPI PUSH2 0x21C JUMP JUMPDEST DUP1 PUSH4 0x313CE567 GT PUSH2 0x1A8 JUMPI DUP1 PUSH4 0x39509351 GT PUSH2 0x177 JUMPI DUP1 PUSH4 0x39509351 EQ PUSH2 0x326 JUMPI DUP1 PUSH4 0x50DD6ED9 EQ PUSH2 0x339 JUMPI DUP1 PUSH4 0x55C67628 EQ PUSH2 0x34C JUMPI DUP1 PUSH4 0x6028BFD4 EQ PUSH2 0x354 JUMPI DUP1 PUSH4 0x679AEFCE EQ PUSH2 0x375 JUMPI PUSH2 0x21C JUMP JUMPDEST DUP1 PUSH4 0x313CE567 EQ PUSH2 0x2EE JUMPI DUP1 PUSH4 0x3644E515 EQ PUSH2 0x303 JUMPI DUP1 PUSH4 0x38E9922E EQ PUSH2 0x30B JUMPI DUP1 PUSH4 0x38FFF2D0 EQ PUSH2 0x31E JUMPI PUSH2 0x21C JUMP JUMPDEST DUP1 PUSH4 0x18160DDD GT PUSH2 0x1EF JUMPI DUP1 PUSH4 0x18160DDD EQ PUSH2 0x294 JUMPI DUP1 PUSH4 0x1C0DE051 EQ PUSH2 0x29C JUMPI DUP1 PUSH4 0x1DD746EA EQ PUSH2 0x2B3 JUMPI DUP1 PUSH4 0x23B872DD EQ PUSH2 0x2C8 JUMPI DUP1 PUSH4 0x2F1A0BC9 EQ PUSH2 0x2DB JUMPI PUSH2 0x21C JUMP JUMPDEST DUP1 PUSH4 0x1EC954A EQ PUSH2 0x221 JUMPI DUP1 PUSH4 0x6FDDE03 EQ PUSH2 0x24A JUMPI DUP1 PUSH4 0x95EA7B3 EQ PUSH2 0x25F JUMPI DUP1 PUSH4 0x16C38B3C EQ PUSH2 0x27F JUMPI JUMPDEST PUSH1 0x0 DUP1 REVERT JUMPDEST PUSH2 0x234 PUSH2 0x22F CALLDATASIZE PUSH1 0x4 PUSH2 0x4000 JUMP JUMPDEST PUSH2 0x4BE JUMP JUMPDEST PUSH1 0x40 MLOAD PUSH2 0x241 SWAP2 SWAP1 PUSH2 0x426B JUMP JUMPDEST PUSH1 0x40 MLOAD DUP1 SWAP2 SUB SWAP1 RETURN JUMPDEST PUSH2 0x252 PUSH2 0x55C JUMP JUMPDEST PUSH1 0x40 MLOAD PUSH2 0x241 SWAP2 SWAP1 PUSH2 0x4341 JUMP JUMPDEST PUSH2 0x272 PUSH2 0x26D CALLDATASIZE PUSH1 0x4 PUSH2 0x3C96 JUMP JUMPDEST PUSH2 0x5F3 JUMP JUMPDEST PUSH1 0x40 MLOAD PUSH2 0x241 SWAP2 SWAP1 PUSH2 0x4248 JUMP JUMPDEST PUSH2 0x292 PUSH2 0x28D CALLDATASIZE PUSH1 0x4 PUSH2 0x3D8C JUMP JUMPDEST PUSH2 0x60A JUMP JUMPDEST STOP JUMPDEST PUSH2 0x234 PUSH2 0x61E JUMP JUMPDEST PUSH2 0x2A4 PUSH2 0x624 JUMP JUMPDEST PUSH1 0x40 MLOAD PUSH2 0x241 SWAP4 SWAP3 SWAP2 SWAP1 PUSH2 0x4253 JUMP JUMPDEST PUSH2 0x2BB PUSH2 0x64D JUMP JUMPDEST PUSH1 0x40 MLOAD PUSH2 0x241 SWAP2 SWAP1 PUSH2 0x4210 JUMP JUMPDEST PUSH2 0x272 PUSH2 0x2D6 CALLDATASIZE PUSH1 0x4 PUSH2 0x3BE1 JUMP JUMPDEST PUSH2 0x65C JUMP JUMPDEST PUSH2 0x292 PUSH2 0x2E9 CALLDATASIZE PUSH1 0x4 PUSH2 0x40D3 JUMP JUMPDEST PUSH2 0x6D2 JUMP JUMPDEST PUSH2 0x2F6 PUSH2 0x7B5 JUMP JUMPDEST PUSH1 0x40 MLOAD PUSH2 0x241 SWAP2 SWAP1 PUSH2 0x43AC JUMP JUMPDEST PUSH2 0x234 PUSH2 0x7BE JUMP JUMPDEST PUSH2 0x292 PUSH2 0x319 CALLDATASIZE PUSH1 0x4 PUSH2 0x40BB JUMP JUMPDEST PUSH2 0x7C8 JUMP JUMPDEST PUSH2 0x234 PUSH2 0x7E1 JUMP JUMPDEST PUSH2 0x272 PUSH2 0x334 CALLDATASIZE PUSH1 0x4 PUSH2 0x3C96 JUMP JUMPDEST PUSH2 0x805 JUMP JUMPDEST PUSH2 0x292 PUSH2 0x347 CALLDATASIZE PUSH1 0x4 PUSH2 0x3EAA JUMP JUMPDEST PUSH2 0x840 JUMP JUMPDEST PUSH2 0x234 PUSH2 0x85E JUMP JUMPDEST PUSH2 0x367 PUSH2 0x362 CALLDATASIZE PUSH1 0x4 PUSH2 0x3DC4 JUMP JUMPDEST PUSH2 0x86F JUMP JUMPDEST PUSH1 0x40 MLOAD PUSH2 0x241 SWAP3 SWAP2 SWAP1 PUSH2 0x4354 JUMP JUMPDEST PUSH2 0x234 PUSH2 0x8A6 JUMP JUMPDEST PUSH2 0x385 PUSH2 0x973 JUMP JUMPDEST PUSH1 0x40 MLOAD PUSH2 0x241 SWAP4 SWAP3 SWAP2 SWAP1 PUSH2 0x436D JUMP JUMPDEST PUSH2 0x234 PUSH2 0x3A2 CALLDATASIZE PUSH1 0x4 PUSH2 0x3B8D JUMP JUMPDEST PUSH2 0x98E JUMP JUMPDEST PUSH2 0x3BA PUSH2 0x3B5 CALLDATASIZE PUSH1 0x4 PUSH2 0x3DC4 JUMP JUMPDEST PUSH2 0x9AD JUMP JUMPDEST PUSH1 0x40 MLOAD PUSH2 0x241 SWAP3 SWAP2 SWAP1 PUSH2 0x4223 JUMP JUMPDEST PUSH2 0x234 PUSH2 0x3D6 CALLDATASIZE PUSH1 0x4 PUSH2 0x3B8D JUMP JUMPDEST PUSH2 0xA2B JUMP JUMPDEST PUSH2 0x234 PUSH2 0x3E9 CALLDATASIZE PUSH1 0x4 PUSH2 0x3E66 JUMP JUMPDEST PUSH2 0xA46 JUMP JUMPDEST PUSH2 0x367 PUSH2 0x3FC CALLDATASIZE PUSH1 0x4 PUSH2 0x3DC4 JUMP JUMPDEST PUSH2 0xA98 JUMP JUMPDEST PUSH2 0x409 PUSH2 0xABE JUMP JUMPDEST PUSH1 0x40 MLOAD PUSH2 0x241 SWAP2 SWAP1 PUSH2 0x41FC JUMP JUMPDEST PUSH2 0x409 PUSH2 0xAE2 JUMP JUMPDEST PUSH2 0x252 PUSH2 0xB06 JUMP JUMPDEST PUSH2 0x42E PUSH2 0xB67 JUMP JUMPDEST PUSH1 0x40 MLOAD PUSH2 0x241 SWAP3 SWAP2 SWAP1 PUSH2 0x4383 JUMP JUMPDEST PUSH2 0x234 PUSH2 0x44A CALLDATASIZE PUSH1 0x4 PUSH2 0x4070 JUMP JUMPDEST PUSH2 0xB71 JUMP JUMPDEST PUSH2 0x272 PUSH2 0x45D CALLDATASIZE PUSH1 0x4 PUSH2 0x3C96 JUMP JUMPDEST PUSH2 0xCCF JUMP JUMPDEST PUSH2 0x272 PUSH2 0x470 CALLDATASIZE PUSH1 0x4 PUSH2 0x3C96 JUMP JUMPDEST PUSH2 0xD0D JUMP JUMPDEST PUSH2 0x409 PUSH2 0xD1A JUMP JUMPDEST PUSH2 0x292 PUSH2 0x48B CALLDATASIZE PUSH1 0x4 PUSH2 0x3C21 JUMP JUMPDEST PUSH2 0xD24 JUMP JUMPDEST PUSH2 0x3BA PUSH2 0x49E CALLDATASIZE PUSH1 0x4 PUSH2 0x3DC4 JUMP JUMPDEST PUSH2 0xE6D JUMP JUMPDEST PUSH2 0x234 PUSH2 0x4B1 CALLDATASIZE PUSH1 0x4 PUSH2 0x3BA9 JUMP JUMPDEST PUSH2 0xF9D JUMP JUMPDEST PUSH2 0x292 PUSH2 0xFDA JUMP JUMPDEST PUSH1 0x0 DUP5 PUSH1 0x80 ADD MLOAD PUSH2 0x4EB PUSH2 0x4D0 PUSH2 0xAE2 JUMP JUMPDEST PUSH1 0x1 PUSH1 0x1 PUSH1 0xA0 SHL SUB AND CALLER PUSH1 0x1 PUSH1 0x1 PUSH1 0xA0 SHL SUB AND EQ PUSH1 0xCD PUSH2 0x1063 JUMP JUMPDEST PUSH2 0x500 PUSH2 0x4F6 PUSH2 0x7E1 JUMP JUMPDEST DUP3 EQ PUSH2 0x1F4 PUSH2 0x1063 JUMP JUMPDEST PUSH2 0x512 DUP5 DUP5 PUSH2 0x50D PUSH2 0x1071 JUMP JUMPDEST PUSH2 0x1095 JUMP JUMPDEST PUSH1 0x60 PUSH2 0x51C PUSH2 0x10B2 JUMP JUMPDEST SWAP1 POP PUSH1 0x0 DUP8 MLOAD PUSH1 0x1 DUP2 GT ISZERO PUSH2 0x52D JUMPI INVALID JUMPDEST EQ PUSH2 0x544 JUMPI PUSH2 0x53F DUP8 DUP8 DUP8 DUP8 DUP6 PUSH2 0x11D9 JUMP JUMPDEST PUSH2 0x551 JUMP JUMPDEST PUSH2 0x551 DUP8 DUP8 DUP8 DUP8 DUP6 PUSH2 0x1250 JUMP JUMPDEST SWAP8 SWAP7 POP POP POP POP POP POP POP JUMP JUMPDEST PUSH1 0x3 DUP1 SLOAD PUSH1 0x40 DUP1 MLOAD PUSH1 0x20 PUSH1 0x1F PUSH1 0x2 PUSH1 0x0 NOT PUSH2 0x100 PUSH1 0x1 DUP9 AND ISZERO MUL ADD SWAP1 SWAP6 AND SWAP5 SWAP1 SWAP5 DIV SWAP4 DUP5 ADD DUP2 SWAP1 DIV DUP2 MUL DUP3 ADD DUP2 ADD SWAP1 SWAP3 MSTORE DUP3 DUP2 MSTORE PUSH1 0x60 SWAP4 SWAP1 SWAP3 SWAP1 SWAP2 DUP4 ADD DUP3 DUP3 DUP1 ISZERO PUSH2 0x5E8 JUMPI DUP1 PUSH1 0x1F LT PUSH2 0x5BD JUMPI PUSH2 0x100 DUP1 DUP4 SLOAD DIV MUL DUP4 MSTORE SWAP2 PUSH1 0x20 ADD SWAP2 PUSH2 0x5E8 JUMP JUMPDEST DUP3 ADD SWAP2 SWAP1 PUSH1 0x0 MSTORE PUSH1 0x20 PUSH1 0x0 KECCAK256 SWAP1 JUMPDEST DUP2 SLOAD DUP2 MSTORE SWAP1 PUSH1 0x1 ADD SWAP1 PUSH1 0x20 ADD DUP1 DUP4 GT PUSH2 0x5CB JUMPI DUP3 SWAP1 SUB PUSH1 0x1F AND DUP3 ADD SWAP2 JUMPDEST POP POP POP POP POP SWAP1 POP JUMPDEST SWAP1 JUMP JUMPDEST PUSH1 0x0 PUSH2 0x600 CALLER DUP5 DUP5 PUSH2 0x12B4 JUMP JUMPDEST POP PUSH1 0x1 JUMPDEST SWAP3 SWAP2 POP POP JUMP JUMPDEST PUSH2 0x612 PUSH2 0x131C JUMP JUMPDEST PUSH2 0x61B DUP2 PUSH2 0x134A JUMP JUMPDEST POP JUMP JUMPDEST PUSH1 0x2 SLOAD SWAP1 JUMP JUMPDEST PUSH1 0x0 DUP1 PUSH1 0x0 PUSH2 0x631 PUSH2 0x13C8 JUMP JUMPDEST ISZERO SWAP3 POP PUSH2 0x63C PUSH2 0x13E5 JUMP JUMPDEST SWAP2 POP PUSH2 0x646 PUSH2 0x1409 JUMP JUMPDEST SWAP1 POP SWAP1 SWAP2 SWAP3 JUMP JUMPDEST PUSH1 0x60 PUSH2 0x657 PUSH2 0x10B2 JUMP JUMPDEST SWAP1 POP SWAP1 JUMP JUMPDEST PUSH1 0x0 DUP1 PUSH2 0x669 DUP6 CALLER PUSH2 0xF9D JUMP JUMPDEST SWAP1 POP PUSH2 0x68D CALLER PUSH1 0x1 PUSH1 0x1 PUSH1 0xA0 SHL SUB DUP8 AND EQ DUP1 PUSH2 0x685 JUMPI POP DUP4 DUP3 LT ISZERO JUMPDEST PUSH2 0x19E PUSH2 0x1063 JUMP JUMPDEST PUSH2 0x698 DUP6 DUP6 DUP6 PUSH2 0x142D JUMP JUMPDEST CALLER PUSH1 0x1 PUSH1 0x1 PUSH1 0xA0 SHL SUB DUP7 AND EQ DUP1 ISZERO SWAP1 PUSH2 0x6B3 JUMPI POP PUSH1 0x0 NOT DUP2 EQ ISZERO JUMPDEST ISZERO PUSH2 0x6C5 JUMPI PUSH2 0x6C5 DUP6 CALLER DUP6 DUP5 SUB PUSH2 0x12B4 JUMP JUMPDEST PUSH1 0x1 SWAP2 POP POP JUMPDEST SWAP4 SWAP3 POP POP POP JUMP JUMPDEST PUSH2 0x6DA PUSH2 0x131C JUMP JUMPDEST PUSH2 0x6EA PUSH1 0x1 DUP4 LT ISZERO PUSH2 0x12C PUSH2 0x1063 JUMP JUMPDEST PUSH2 0x6FB PUSH2 0x1388 DUP4 GT ISZERO PUSH2 0x12D PUSH2 0x1063 JUMP JUMPDEST PUSH1 0x0 PUSH2 0x707 DUP3 TIMESTAMP PUSH2 0x1049 JUMP JUMPDEST SWAP1 POP PUSH2 0x71B PUSH3 0x15180 DUP3 LT ISZERO PUSH2 0x13D PUSH2 0x1063 JUMP JUMPDEST PUSH1 0x0 DUP1 PUSH2 0x726 PUSH2 0x150D JUMP JUMPDEST SWAP2 POP SWAP2 POP PUSH2 0x737 DUP2 ISZERO PUSH2 0x13E PUSH2 0x1063 JUMP JUMPDEST PUSH1 0x0 PUSH2 0x745 DUP7 PUSH2 0x3E8 PUSH2 0x1010 JUMP JUMPDEST SWAP1 POP PUSH1 0x0 DUP4 DUP3 GT PUSH2 0x774 JUMPI PUSH2 0x76F PUSH2 0x760 PUSH3 0x15180 DUP7 PUSH2 0x1010 JUMP JUMPDEST PUSH2 0x76A DUP5 DUP9 PUSH2 0x1010 JUMP JUMPDEST PUSH2 0x1581 JUMP JUMPDEST PUSH2 0x78E JUMP JUMPDEST PUSH2 0x78E PUSH2 0x784 PUSH3 0x15180 DUP5 PUSH2 0x1010 JUMP JUMPDEST PUSH2 0x76A DUP7 DUP9 PUSH2 0x1010 JUMP JUMPDEST SWAP1 POP PUSH2 0x7A0 PUSH1 0x2 DUP3 GT ISZERO PUSH2 0x13F PUSH2 0x1063 JUMP JUMPDEST PUSH2 0x7AC DUP5 DUP4 TIMESTAMP DUP10 PUSH2 0x15B4 JUMP JUMPDEST POP POP POP POP POP POP POP JUMP JUMPDEST PUSH1 0x5 SLOAD PUSH1 0xFF AND SWAP1 JUMP JUMPDEST PUSH1 0x0 PUSH2 0x657 PUSH2 0x1603 JUMP JUMPDEST PUSH2 0x7D0 PUSH2 0x131C JUMP JUMPDEST PUSH2 0x7D8 PUSH2 0x16A0 JUMP JUMPDEST PUSH2 0x61B DUP2 PUSH2 0x16B5 JUMP JUMPDEST PUSH32 0x0 SWAP1 JUMP JUMPDEST CALLER PUSH1 0x0 DUP2 DUP2 MSTORE PUSH1 0x1 PUSH1 0x20 SWAP1 DUP2 MSTORE PUSH1 0x40 DUP1 DUP4 KECCAK256 PUSH1 0x1 PUSH1 0x1 PUSH1 0xA0 SHL SUB DUP8 AND DUP5 MSTORE SWAP1 SWAP2 MSTORE DUP2 KECCAK256 SLOAD SWAP1 SWAP2 PUSH2 0x600 SWAP2 DUP6 SWAP1 PUSH2 0x83B SWAP1 DUP7 PUSH2 0x1720 JUMP JUMPDEST PUSH2 0x12B4 JUMP JUMPDEST PUSH2 0x848 PUSH2 0x131C JUMP JUMPDEST PUSH2 0x850 PUSH2 0x16A0 JUMP JUMPDEST PUSH2 0x85A DUP3 DUP3 PUSH2 0x1732 JUMP JUMPDEST POP POP JUMP JUMPDEST PUSH1 0x8 SLOAD PUSH1 0x0 SWAP1 PUSH2 0x657 SWAP1 PUSH1 0xC0 PUSH2 0x1831 JUMP JUMPDEST PUSH1 0x0 PUSH1 0x60 PUSH2 0x885 DUP7 MLOAD PUSH2 0x880 PUSH2 0x1071 JUMP JUMPDEST PUSH2 0x183E JUMP JUMPDEST PUSH2 0x89A DUP10 DUP10 DUP10 DUP10 DUP10 DUP10 DUP10 PUSH2 0x184B PUSH2 0x18EE PUSH2 0x194F JUMP JUMPDEST SWAP8 POP SWAP8 SWAP6 POP POP POP POP POP POP JUMP JUMPDEST PUSH1 0x0 PUSH1 0x60 PUSH2 0x8B2 PUSH2 0xAE2 JUMP JUMPDEST PUSH1 0x1 PUSH1 0x1 PUSH1 0xA0 SHL SUB AND PUSH4 0xF94D4668 PUSH2 0x8C8 PUSH2 0x7E1 JUMP JUMPDEST PUSH1 0x40 MLOAD DUP3 PUSH4 0xFFFFFFFF AND PUSH1 0xE0 SHL DUP2 MSTORE PUSH1 0x4 ADD PUSH2 0x8E4 SWAP2 SWAP1 PUSH2 0x426B JUMP JUMPDEST PUSH1 0x0 PUSH1 0x40 MLOAD DUP1 DUP4 SUB DUP2 DUP7 DUP1 EXTCODESIZE ISZERO DUP1 ISZERO PUSH2 0x8FC JUMPI PUSH1 0x0 DUP1 REVERT JUMPDEST POP GAS STATICCALL ISZERO DUP1 ISZERO PUSH2 0x910 JUMPI RETURNDATASIZE PUSH1 0x0 DUP1 RETURNDATACOPY RETURNDATASIZE PUSH1 0x0 REVERT JUMPDEST POP POP POP POP PUSH1 0x40 MLOAD RETURNDATASIZE PUSH1 0x0 DUP3 RETURNDATACOPY PUSH1 0x1F RETURNDATASIZE SWAP1 DUP2 ADD PUSH1 0x1F NOT AND DUP3 ADD PUSH1 0x40 MSTORE PUSH2 0x938 SWAP2 SWAP1 DUP2 ADD SWAP1 PUSH2 0x3CC1 JUMP JUMPDEST POP SWAP2 POP POP PUSH2 0x94D DUP2 PUSH2 0x948 PUSH2 0x10B2 JUMP JUMPDEST PUSH2 0x1A72 JUMP JUMPDEST PUSH1 0x0 PUSH2 0x957 PUSH2 0x150D JUMP JUMPDEST POP SWAP1 POP PUSH2 0x96C DUP3 DUP3 PUSH2 0x967 PUSH2 0x61E JUMP JUMPDEST PUSH2 0x1AD3 JUMP JUMPDEST SWAP3 POP POP POP SWAP1 JUMP JUMPDEST PUSH1 0x0 DUP1 PUSH1 0x0 PUSH2 0x980 PUSH2 0x150D JUMP JUMPDEST SWAP1 SWAP5 SWAP1 SWAP4 POP PUSH2 0x3E8 SWAP3 POP SWAP1 POP JUMP JUMPDEST PUSH1 0x1 PUSH1 0x1 PUSH1 0xA0 SHL SUB DUP2 AND PUSH1 0x0 SWAP1 DUP2 MSTORE PUSH1 0x20 DUP2 SWAP1 MSTORE PUSH1 0x40 SWAP1 KECCAK256 SLOAD JUMPDEST SWAP2 SWAP1 POP JUMP JUMPDEST PUSH1 0x60 DUP1 DUP9 PUSH2 0x9BC PUSH2 0x4D0 PUSH2 0xAE2 JUMP JUMPDEST PUSH2 0x9C7 PUSH2 0x4F6 PUSH2 0x7E1 JUMP JUMPDEST PUSH1 0x60 PUSH2 0x9D1 PUSH2 0x10B2 JUMP JUMPDEST SWAP1 POP PUSH2 0x9DD DUP9 DUP3 PUSH2 0x1A72 JUMP JUMPDEST PUSH1 0x0 PUSH1 0x60 DUP1 PUSH2 0x9F2 DUP15 DUP15 DUP15 DUP15 DUP15 DUP15 DUP11 DUP16 PUSH2 0x184B JUMP JUMPDEST SWAP3 POP SWAP3 POP SWAP3 POP PUSH2 0xA02 DUP14 DUP5 PUSH2 0x1AEE JUMP JUMPDEST PUSH2 0xA0C DUP3 DUP6 PUSH2 0x18EE JUMP JUMPDEST PUSH2 0xA16 DUP2 DUP6 PUSH2 0x18EE JUMP JUMPDEST SWAP1 SWAP6 POP SWAP4 POP POP POP JUMPDEST POP SWAP8 POP SWAP8 SWAP6 POP POP POP POP POP POP JUMP JUMPDEST PUSH1 0x1 PUSH1 0x1 PUSH1 0xA0 SHL SUB AND PUSH1 0x0 SWAP1 DUP2 MSTORE PUSH1 0x6 PUSH1 0x20 MSTORE PUSH1 0x40 SWAP1 KECCAK256 SLOAD SWAP1 JUMP JUMPDEST PUSH1 0x0 PUSH32 0x0 DUP3 PUSH1 0x40 MLOAD PUSH1 0x20 ADD PUSH2 0xA7B SWAP3 SWAP2 SWAP1 PUSH2 0x41B9 JUMP JUMPDEST PUSH1 0x40 MLOAD PUSH1 0x20 DUP2 DUP4 SUB SUB DUP2 MSTORE SWAP1 PUSH1 0x40 MSTORE DUP1 MLOAD SWAP1 PUSH1 0x20 ADD KECCAK256 SWAP1 POP SWAP2 SWAP1 POP JUMP JUMPDEST PUSH1 0x0 PUSH1 0x60 PUSH2 0xAA9 DUP7 MLOAD PUSH2 0x880 PUSH2 0x1071 JUMP JUMPDEST PUSH2 0x89A DUP10 DUP10 DUP10 DUP10 DUP10 DUP10 DUP10 PUSH2 0x1AF8 PUSH2 0x1B51 PUSH2 0x194F JUMP JUMPDEST PUSH32 0x0 SWAP1 JUMP JUMPDEST PUSH32 0x0 SWAP1 JUMP JUMPDEST PUSH1 0x4 DUP1 SLOAD PUSH1 0x40 DUP1 MLOAD PUSH1 0x20 PUSH1 0x1F PUSH1 0x2 PUSH1 0x0 NOT PUSH2 0x100 PUSH1 0x1 DUP9 AND ISZERO MUL ADD SWAP1 SWAP6 AND SWAP5 SWAP1 SWAP5 DIV SWAP4 DUP5 ADD DUP2 SWAP1 DIV DUP2 MUL DUP3 ADD DUP2 ADD SWAP1 SWAP3 MSTORE DUP3 DUP2 MSTORE PUSH1 0x60 SWAP4 SWAP1 SWAP3 SWAP1 SWAP2 DUP4 ADD DUP3 DUP3 DUP1 ISZERO PUSH2 0x5E8 JUMPI DUP1 PUSH1 0x1F LT PUSH2 0x5BD JUMPI PUSH2 0x100 DUP1 DUP4 SLOAD DIV MUL DUP4 MSTORE SWAP2 PUSH1 0x20 ADD SWAP2 PUSH2 0x5E8 JUMP JUMPDEST PUSH1 0xA SLOAD PUSH1 0xB SLOAD SWAP1 SWAP2 JUMP JUMPDEST PUSH1 0x0 DUP4 PUSH1 0x80 ADD MLOAD PUSH2 0xB83 PUSH2 0x4D0 PUSH2 0xAE2 JUMP JUMPDEST PUSH2 0xB8E PUSH2 0x4F6 PUSH2 0x7E1 JUMP JUMPDEST PUSH1 0x0 PUSH2 0xB9D DUP7 PUSH1 0x20 ADD MLOAD PUSH2 0x1BB2 JUMP JUMPDEST SWAP1 POP PUSH1 0x0 PUSH2 0xBAE DUP8 PUSH1 0x40 ADD MLOAD PUSH2 0x1BB2 JUMP JUMPDEST SWAP1 POP PUSH1 0x0 DUP8 MLOAD PUSH1 0x1 DUP2 GT ISZERO PUSH2 0xBBF JUMPI INVALID JUMPDEST EQ ISZERO PUSH2 0xC4F JUMPI PUSH1 0x0 PUSH2 0xBD4 DUP9 PUSH1 0x60 ADD MLOAD PUSH2 0x1CB8 JUMP JUMPDEST SWAP1 POP PUSH1 0x0 DUP2 DUP10 PUSH1 0x60 ADD MLOAD SUB SWAP1 POP PUSH2 0xBF8 DUP10 PUSH1 0x20 ADD MLOAD PUSH2 0xBF3 DUP4 DUP8 PUSH2 0x1CD9 JUMP JUMPDEST PUSH2 0x1CE5 JUMP JUMPDEST PUSH1 0x60 DUP10 ADD DUP3 SWAP1 MSTORE PUSH2 0xC09 DUP9 DUP6 PUSH2 0x1CD9 JUMP JUMPDEST SWAP8 POP PUSH2 0xC15 DUP8 DUP5 PUSH2 0x1CD9 JUMP JUMPDEST SWAP7 POP PUSH2 0xC25 DUP10 PUSH1 0x60 ADD MLOAD DUP6 PUSH2 0x1CD9 JUMP JUMPDEST PUSH1 0x60 DUP11 ADD MSTORE PUSH1 0x0 PUSH2 0xC37 DUP11 DUP11 DUP11 PUSH2 0x1CF7 JUMP JUMPDEST SWAP1 POP PUSH2 0xC43 DUP2 DUP6 PUSH2 0x1D30 JUMP JUMPDEST SWAP7 POP POP POP POP POP POP PUSH2 0xCC7 JUMP JUMPDEST PUSH2 0xC59 DUP7 DUP4 PUSH2 0x1CD9 JUMP JUMPDEST SWAP6 POP PUSH2 0xC65 DUP6 DUP3 PUSH2 0x1CD9 JUMP JUMPDEST SWAP5 POP PUSH2 0xC75 DUP8 PUSH1 0x60 ADD MLOAD DUP3 PUSH2 0x1CD9 JUMP JUMPDEST PUSH1 0x60 DUP9 ADD MSTORE PUSH1 0x0 PUSH2 0xC87 DUP9 DUP9 DUP9 PUSH2 0x1D3C JUMP JUMPDEST SWAP1 POP PUSH2 0xC93 DUP2 DUP5 PUSH2 0x1D6B JUMP JUMPDEST SWAP1 POP PUSH1 0x0 PUSH2 0xCA0 DUP3 PUSH2 0x1D77 JUMP JUMPDEST SWAP1 POP PUSH1 0x0 DUP3 DUP3 SUB SWAP1 POP PUSH2 0xCBB DUP11 PUSH1 0x20 ADD MLOAD PUSH2 0xBF3 DUP4 DUP9 PUSH2 0x1CD9 JUMP JUMPDEST POP SWAP5 POP PUSH2 0xCC7 SWAP3 POP POP POP JUMP JUMPDEST POP SWAP4 SWAP3 POP POP POP JUMP JUMPDEST PUSH1 0x0 DUP1 PUSH2 0xCDC CALLER DUP6 PUSH2 0xF9D JUMP JUMPDEST SWAP1 POP DUP1 DUP4 LT PUSH2 0xCF6 JUMPI PUSH2 0xCF1 CALLER DUP6 PUSH1 0x0 PUSH2 0x12B4 JUMP JUMPDEST PUSH2 0xD03 JUMP JUMPDEST PUSH2 0xD03 CALLER DUP6 DUP6 DUP5 SUB PUSH2 0x12B4 JUMP JUMPDEST POP PUSH1 0x1 SWAP4 SWAP3 POP POP POP JUMP JUMPDEST PUSH1 0x0 PUSH2 0x600 CALLER DUP5 DUP5 PUSH2 0x142D JUMP JUMPDEST PUSH1 0x0 PUSH2 0x657 PUSH2 0x1D9D JUMP JUMPDEST PUSH2 0xD32 DUP5 TIMESTAMP GT ISZERO PUSH1 0xD1 PUSH2 0x1063 JUMP JUMPDEST PUSH1 0x1 PUSH1 0x1 PUSH1 0xA0 SHL SUB DUP8 AND PUSH1 0x0 SWAP1 DUP2 MSTORE PUSH1 0x6 PUSH1 0x20 SWAP1 DUP2 MSTORE PUSH1 0x40 DUP1 DUP4 KECCAK256 SLOAD SWAP1 MLOAD SWAP1 SWAP3 SWAP2 PUSH2 0xD89 SWAP2 PUSH32 0x0 SWAP2 DUP13 SWAP2 DUP13 SWAP2 DUP13 SWAP2 DUP9 SWAP2 DUP14 SWAP2 ADD PUSH2 0x4293 JUMP JUMPDEST PUSH1 0x40 MLOAD PUSH1 0x20 DUP2 DUP4 SUB SUB DUP2 MSTORE SWAP1 PUSH1 0x40 MSTORE DUP1 MLOAD SWAP1 PUSH1 0x20 ADD KECCAK256 SWAP1 POP PUSH1 0x0 PUSH2 0xDAC DUP3 PUSH2 0x1E17 JUMP JUMPDEST SWAP1 POP PUSH1 0x0 PUSH1 0x1 DUP3 DUP9 DUP9 DUP9 PUSH1 0x40 MLOAD PUSH1 0x0 DUP2 MSTORE PUSH1 0x20 ADD PUSH1 0x40 MSTORE PUSH1 0x40 MLOAD PUSH2 0xDD3 SWAP5 SWAP4 SWAP3 SWAP2 SWAP1 PUSH2 0x4323 JUMP JUMPDEST PUSH1 0x20 PUSH1 0x40 MLOAD PUSH1 0x20 DUP2 SUB SWAP1 DUP1 DUP5 SUB SWAP1 DUP6 GAS STATICCALL ISZERO DUP1 ISZERO PUSH2 0xDF5 JUMPI RETURNDATASIZE PUSH1 0x0 DUP1 RETURNDATACOPY RETURNDATASIZE PUSH1 0x0 REVERT JUMPDEST POP POP PUSH1 0x40 MLOAD PUSH1 0x1F NOT ADD MLOAD SWAP2 POP PUSH2 0xE37 SWAP1 POP PUSH1 0x1 PUSH1 0x1 PUSH1 0xA0 SHL SUB DUP3 AND ISZERO DUP1 ISZERO SWAP1 PUSH2 0xE2F JUMPI POP DUP12 PUSH1 0x1 PUSH1 0x1 PUSH1 0xA0 SHL SUB AND DUP3 PUSH1 0x1 PUSH1 0x1 PUSH1 0xA0 SHL SUB AND EQ JUMPDEST PUSH2 0x1F8 PUSH2 0x1063 JUMP JUMPDEST PUSH1 0x1 PUSH1 0x1 PUSH1 0xA0 SHL SUB DUP12 AND PUSH1 0x0 SWAP1 DUP2 MSTORE PUSH1 0x6 PUSH1 0x20 MSTORE PUSH1 0x40 SWAP1 KECCAK256 PUSH1 0x1 DUP6 ADD SWAP1 SSTORE PUSH2 0xE60 DUP12 DUP12 DUP12 PUSH2 0x12B4 JUMP JUMPDEST POP POP POP POP POP POP POP POP POP POP POP JUMP JUMPDEST PUSH1 0x60 DUP1 DUP9 PUSH2 0xE7C PUSH2 0x4D0 PUSH2 0xAE2 JUMP JUMPDEST PUSH2 0xE87 PUSH2 0x4F6 PUSH2 0x7E1 JUMP JUMPDEST PUSH1 0x60 PUSH2 0xE91 PUSH2 0x10B2 JUMP JUMPDEST SWAP1 POP PUSH2 0xE9B PUSH2 0x61E JUMP JUMPDEST PUSH2 0xF4D JUMPI PUSH1 0x0 PUSH1 0x60 PUSH2 0xEB0 DUP14 DUP14 DUP14 DUP7 DUP12 PUSH2 0x1E33 JUMP JUMPDEST SWAP2 POP SWAP2 POP PUSH2 0xEC9 PUSH2 0xEBF PUSH2 0x1EC2 JUMP JUMPDEST DUP4 LT ISZERO PUSH1 0xCC PUSH2 0x1063 JUMP JUMPDEST PUSH2 0xEDB PUSH1 0x0 PUSH2 0xED6 PUSH2 0x1EC2 JUMP JUMPDEST PUSH2 0x1EC9 JUMP JUMPDEST PUSH2 0xEEE DUP12 PUSH2 0xEE7 PUSH2 0x1EC2 JUMP JUMPDEST DUP5 SUB PUSH2 0x1EC9 JUMP JUMPDEST PUSH2 0xEF8 DUP2 DUP5 PUSH2 0x1B51 JUMP JUMPDEST DUP1 PUSH2 0xF01 PUSH2 0x1071 JUMP JUMPDEST PUSH1 0x1 PUSH1 0x1 PUSH1 0x40 SHL SUB DUP2 GT DUP1 ISZERO PUSH2 0xF16 JUMPI PUSH1 0x0 DUP1 REVERT JUMPDEST POP PUSH1 0x40 MLOAD SWAP1 DUP1 DUP3 MSTORE DUP1 PUSH1 0x20 MUL PUSH1 0x20 ADD DUP3 ADD PUSH1 0x40 MSTORE DUP1 ISZERO PUSH2 0xF40 JUMPI DUP2 PUSH1 0x20 ADD PUSH1 0x20 DUP3 MUL DUP1 CALLDATASIZE DUP4 CALLDATACOPY ADD SWAP1 POP JUMPDEST POP SWAP6 POP SWAP6 POP POP POP POP PUSH2 0xA1E JUMP JUMPDEST PUSH2 0xF57 DUP9 DUP3 PUSH2 0x1A72 JUMP JUMPDEST PUSH1 0x0 PUSH1 0x60 DUP1 PUSH2 0xF6C DUP15 DUP15 DUP15 DUP15 DUP15 DUP15 DUP11 DUP16 PUSH2 0x1AF8 JUMP JUMPDEST SWAP3 POP SWAP3 POP SWAP3 POP PUSH2 0xF7C DUP13 DUP5 PUSH2 0x1EC9 JUMP JUMPDEST PUSH2 0xF86 DUP3 DUP6 PUSH2 0x1B51 JUMP JUMPDEST PUSH2 0xF90 DUP2 DUP6 PUSH2 0x18EE JUMP JUMPDEST SWAP1 SWAP6 POP SWAP4 POP PUSH2 0xA1E SWAP2 POP POP JUMP JUMPDEST PUSH1 0x0 PUSH2 0xFA7 PUSH2 0xAE2 JUMP JUMPDEST PUSH1 0x1 PUSH1 0x1 PUSH1 0xA0 SHL SUB AND DUP3 PUSH1 0x1 PUSH1 0x1 PUSH1 0xA0 SHL SUB AND EQ ISZERO PUSH2 0xFC9 JUMPI POP PUSH1 0x0 NOT PUSH2 0x604 JUMP JUMPDEST PUSH2 0xFD3 DUP4 DUP4 PUSH2 0x1ED3 JUMP JUMPDEST SWAP1 POP PUSH2 0x604 JUMP JUMPDEST PUSH2 0xFE2 PUSH2 0x131C JUMP JUMPDEST PUSH1 0x0 DUP1 PUSH2 0xFED PUSH2 0x150D JUMP JUMPDEST SWAP2 POP SWAP2 POP PUSH2 0xFFD DUP2 PUSH2 0x140 PUSH2 0x1063 JUMP JUMPDEST PUSH2 0x85A DUP3 PUSH2 0x1EFE JUMP JUMPDEST DUP1 PUSH2 0x85A DUP2 PUSH2 0x1F39 JUMP JUMPDEST PUSH1 0x0 DUP3 DUP3 MUL PUSH2 0x6CB DUP5 ISZERO DUP1 PUSH2 0x102D JUMPI POP DUP4 DUP6 DUP4 DUP2 PUSH2 0x102A JUMPI INVALID JUMPDEST DIV EQ JUMPDEST PUSH1 0x3 PUSH2 0x1063 JUMP JUMPDEST PUSH1 0x1 PUSH1 0x1 PUSH1 0x40 SHL SUB DUP2 SHL NOT SWAP3 SWAP1 SWAP3 AND SWAP2 SHL OR SWAP1 JUMP JUMPDEST PUSH1 0x0 PUSH2 0x1059 DUP4 DUP4 GT ISZERO PUSH1 0x1 PUSH2 0x1063 JUMP JUMPDEST POP SWAP1 SUB SWAP1 JUMP JUMPDEST SHL SWAP1 JUMP JUMPDEST DUP2 PUSH2 0x85A JUMPI PUSH2 0x85A DUP2 PUSH2 0x1FB2 JUMP JUMPDEST PUSH32 0x0 SWAP1 JUMP JUMPDEST PUSH2 0x10AD DUP2 DUP5 LT DUP1 ISZERO PUSH2 0x10A6 JUMPI POP DUP2 DUP4 LT JUMPDEST PUSH1 0x64 PUSH2 0x1063 JUMP JUMPDEST POP POP POP JUMP JUMPDEST PUSH1 0x60 PUSH1 0x0 PUSH2 0x10BE PUSH2 0x1071 JUMP JUMPDEST SWAP1 POP PUSH1 0x60 DUP2 PUSH1 0x1 PUSH1 0x1 PUSH1 0x40 SHL SUB DUP2 GT DUP1 ISZERO PUSH2 0x10D8 JUMPI PUSH1 0x0 DUP1 REVERT JUMPDEST POP PUSH1 0x40 MLOAD SWAP1 DUP1 DUP3 MSTORE DUP1 PUSH1 0x20 MUL PUSH1 0x20 ADD DUP3 ADD PUSH1 0x40 MSTORE DUP1 ISZERO PUSH2 0x1102 JUMPI DUP2 PUSH1 0x20 ADD PUSH1 0x20 DUP3 MUL DUP1 CALLDATASIZE DUP4 CALLDATACOPY ADD SWAP1 POP JUMPDEST POP SWAP1 POP PUSH2 0x110D PUSH2 0x2005 JUMP JUMPDEST DUP2 PUSH1 0x0 DUP2 MLOAD DUP2 LT PUSH2 0x111A JUMPI INVALID JUMPDEST PUSH1 0x20 MUL PUSH1 0x20 ADD ADD DUP2 DUP2 MSTORE POP POP PUSH2 0x112E PUSH2 0x2029 JUMP JUMPDEST DUP2 PUSH1 0x1 DUP2 MLOAD DUP2 LT PUSH2 0x113B JUMPI INVALID JUMPDEST PUSH1 0x20 MUL PUSH1 0x20 ADD ADD DUP2 DUP2 MSTORE POP POP PUSH1 0x2 DUP3 GT ISZERO PUSH2 0x1176 JUMPI PUSH2 0x1158 PUSH2 0x204D JUMP JUMPDEST DUP2 PUSH1 0x2 DUP2 MLOAD DUP2 LT PUSH2 0x1165 JUMPI INVALID JUMPDEST PUSH1 0x20 MUL PUSH1 0x20 ADD ADD DUP2 DUP2 MSTORE POP POP PUSH2 0x117F JUMP JUMPDEST SWAP2 POP PUSH2 0x5F0 SWAP1 POP JUMP JUMPDEST PUSH1 0x3 DUP3 GT ISZERO PUSH2 0x1176 JUMPI PUSH2 0x1190 PUSH2 0x2071 JUMP JUMPDEST DUP2 PUSH1 0x3 DUP2 MLOAD DUP2 LT PUSH2 0x119D JUMPI INVALID JUMPDEST PUSH1 0x20 MUL PUSH1 0x20 ADD ADD DUP2 DUP2 MSTORE POP POP PUSH1 0x4 DUP3 GT ISZERO PUSH2 0x1176 JUMPI PUSH2 0x11BA PUSH2 0x2095 JUMP JUMPDEST DUP2 PUSH1 0x4 DUP2 MLOAD DUP2 LT PUSH2 0x11C7 JUMPI INVALID JUMPDEST PUSH1 0x20 MUL PUSH1 0x20 ADD ADD DUP2 DUP2 MSTORE POP POP SWAP2 POP POP SWAP1 JUMP JUMPDEST PUSH1 0x0 PUSH2 0x11E5 DUP6 DUP4 PUSH2 0x1A72 JUMP JUMPDEST PUSH2 0x1206 DUP7 PUSH1 0x60 ADD MLOAD DUP4 DUP6 DUP2 MLOAD DUP2 LT PUSH2 0x11F9 JUMPI INVALID JUMPDEST PUSH1 0x20 MUL PUSH1 0x20 ADD ADD MLOAD PUSH2 0x1CD9 JUMP JUMPDEST PUSH1 0x60 DUP8 ADD MSTORE PUSH1 0x0 PUSH2 0x1219 DUP8 DUP8 DUP8 DUP8 PUSH2 0x20B9 JUMP JUMPDEST SWAP1 POP PUSH2 0x1238 DUP2 DUP5 DUP8 DUP2 MLOAD DUP2 LT PUSH2 0x122B JUMPI INVALID JUMPDEST PUSH1 0x20 MUL PUSH1 0x20 ADD ADD MLOAD PUSH2 0x1D6B JUMP JUMPDEST SWAP1 POP PUSH2 0x1243 DUP2 PUSH2 0x1D77 JUMP JUMPDEST SWAP2 POP POP JUMPDEST SWAP6 SWAP5 POP POP POP POP POP JUMP JUMPDEST PUSH1 0x0 PUSH2 0x125F DUP7 PUSH1 0x60 ADD MLOAD PUSH2 0x1CB8 JUMP JUMPDEST PUSH1 0x60 DUP8 ADD MSTORE PUSH2 0x126E DUP6 DUP4 PUSH2 0x1A72 JUMP JUMPDEST PUSH2 0x1282 DUP7 PUSH1 0x60 ADD MLOAD DUP4 DUP7 DUP2 MLOAD DUP2 LT PUSH2 0x11F9 JUMPI INVALID JUMPDEST PUSH1 0x60 DUP8 ADD MSTORE PUSH1 0x0 PUSH2 0x1295 DUP8 DUP8 DUP8 DUP8 PUSH2 0x2102 JUMP JUMPDEST SWAP1 POP PUSH2 0x1243 DUP2 DUP5 DUP7 DUP2 MLOAD DUP2 LT PUSH2 0x12A7 JUMPI INVALID JUMPDEST PUSH1 0x20 MUL PUSH1 0x20 ADD ADD MLOAD PUSH2 0x1D30 JUMP JUMPDEST PUSH1 0x1 PUSH1 0x1 PUSH1 0xA0 SHL SUB DUP1 DUP5 AND PUSH1 0x0 DUP2 DUP2 MSTORE PUSH1 0x1 PUSH1 0x20 SWAP1 DUP2 MSTORE PUSH1 0x40 DUP1 DUP4 KECCAK256 SWAP5 DUP8 AND DUP1 DUP5 MSTORE SWAP5 SWAP1 SWAP2 MSTORE SWAP1 DUP2 SWAP1 KECCAK256 DUP5 SWAP1 SSTORE MLOAD PUSH32 0x8C5BE1E5EBEC7D5BD14F71427D1E84F3DD0314C0F7B2291E5B200AC8C7C3B925 SWAP1 PUSH2 0x130F SWAP1 DUP6 SWAP1 PUSH2 0x426B JUMP JUMPDEST PUSH1 0x40 MLOAD DUP1 SWAP2 SUB SWAP1 LOG3 POP POP POP JUMP JUMPDEST PUSH1 0x0 PUSH2 0x1333 PUSH1 0x0 CALLDATALOAD PUSH1 0x1 PUSH1 0x1 PUSH1 0xE0 SHL SUB NOT AND PUSH2 0xA46 JUMP JUMPDEST SWAP1 POP PUSH2 0x61B PUSH2 0x1342 DUP3 CALLER PUSH2 0x213D JUMP JUMPDEST PUSH2 0x191 PUSH2 0x1063 JUMP JUMPDEST DUP1 ISZERO PUSH2 0x136A JUMPI PUSH2 0x1365 PUSH2 0x135B PUSH2 0x13E5 JUMP JUMPDEST TIMESTAMP LT PUSH2 0x193 PUSH2 0x1063 JUMP JUMPDEST PUSH2 0x137F JUMP JUMPDEST PUSH2 0x137F PUSH2 0x1375 PUSH2 0x1409 JUMP JUMPDEST TIMESTAMP LT PUSH2 0x1A9 PUSH2 0x1063 JUMP JUMPDEST PUSH1 0x7 DUP1 SLOAD PUSH1 0xFF NOT AND DUP3 ISZERO ISZERO OR SWAP1 SSTORE PUSH1 0x40 MLOAD PUSH32 0x9E3A5E37224532DEA67B89FACE185703738A228A6E8A23DEE546960180D3BE64 SWAP1 PUSH2 0x13BD SWAP1 DUP4 SWAP1 PUSH2 0x4248 JUMP JUMPDEST PUSH1 0x40 MLOAD DUP1 SWAP2 SUB SWAP1 LOG1 POP JUMP JUMPDEST PUSH1 0x0 PUSH2 0x13D2 PUSH2 0x1409 JUMP JUMPDEST TIMESTAMP GT DUP1 PUSH2 0x657 JUMPI POP POP PUSH1 0x7 SLOAD PUSH1 0xFF AND ISZERO SWAP1 JUMP JUMPDEST PUSH32 0x0 SWAP1 JUMP JUMPDEST PUSH32 0x0 SWAP1 JUMP JUMPDEST PUSH2 0x1444 PUSH1 0x1 PUSH1 0x1 PUSH1 0xA0 SHL SUB DUP5 AND ISZERO ISZERO PUSH2 0x198 PUSH2 0x1063 JUMP JUMPDEST PUSH2 0x145B PUSH1 0x1 PUSH1 0x1 PUSH1 0xA0 SHL SUB DUP4 AND ISZERO ISZERO PUSH2 0x199 PUSH2 0x1063 JUMP JUMPDEST PUSH2 0x1466 DUP4 DUP4 DUP4 PUSH2 0x10AD JUMP JUMPDEST PUSH1 0x1 PUSH1 0x1 PUSH1 0xA0 SHL SUB DUP4 AND PUSH1 0x0 SWAP1 DUP2 MSTORE PUSH1 0x20 DUP2 SWAP1 MSTORE PUSH1 0x40 SWAP1 KECCAK256 SLOAD PUSH2 0x148C SWAP1 DUP3 PUSH2 0x1A0 PUSH2 0x2226 JUMP JUMPDEST PUSH1 0x1 PUSH1 0x1 PUSH1 0xA0 SHL SUB DUP1 DUP6 AND PUSH1 0x0 SWAP1 DUP2 MSTORE PUSH1 0x20 DUP2 SWAP1 MSTORE PUSH1 0x40 DUP1 DUP3 KECCAK256 SWAP4 SWAP1 SWAP4 SSTORE SWAP1 DUP5 AND DUP2 MSTORE KECCAK256 SLOAD PUSH2 0x14BB SWAP1 DUP3 PUSH2 0x1720 JUMP JUMPDEST PUSH1 0x1 PUSH1 0x1 PUSH1 0xA0 SHL SUB DUP1 DUP5 AND PUSH1 0x0 DUP2 DUP2 MSTORE PUSH1 0x20 DUP2 SWAP1 MSTORE PUSH1 0x40 SWAP1 DUP2 SWAP1 KECCAK256 SWAP4 SWAP1 SWAP4 SSTORE SWAP2 MLOAD SWAP1 DUP6 AND SWAP1 PUSH32 0xDDF252AD1BE2C89B69C2B068FC378DAA952BA7F163C4A11628F55A4DF523B3EF SWAP1 PUSH2 0x130F SWAP1 DUP6 SWAP1 PUSH2 0x426B JUMP JUMPDEST PUSH1 0x0 DUP1 PUSH1 0x0 DUP1 PUSH1 0x0 DUP1 PUSH2 0x151E PUSH2 0x223C JUMP JUMPDEST SWAP4 POP SWAP4 POP SWAP4 POP SWAP4 POP DUP1 TIMESTAMP LT ISZERO PUSH2 0x1571 JUMPI PUSH1 0x1 SWAP5 POP DUP4 DUP4 GT ISZERO PUSH2 0x1555 JUMPI DUP2 DUP2 SUB DUP3 TIMESTAMP SUB DUP6 DUP6 SUB MUL DUP2 PUSH2 0x154B JUMPI INVALID JUMPDEST DIV DUP5 ADD SWAP6 POP PUSH2 0x156C JUMP JUMPDEST DUP2 DUP2 SUB DUP3 TIMESTAMP SUB DUP5 DUP7 SUB MUL DUP2 PUSH2 0x1566 JUMPI INVALID JUMPDEST DIV DUP5 SUB SWAP6 POP JUMPDEST PUSH2 0x1579 JUMP JUMPDEST PUSH1 0x0 SWAP5 POP DUP3 SWAP6 POP JUMPDEST POP POP POP POP SWAP1 SWAP2 JUMP JUMPDEST PUSH1 0x0 PUSH2 0x1590 DUP3 ISZERO ISZERO PUSH1 0x4 PUSH2 0x1063 JUMP JUMPDEST DUP3 PUSH2 0x159D JUMPI POP PUSH1 0x0 PUSH2 0x604 JUMP JUMPDEST DUP2 PUSH1 0x1 DUP5 SUB DUP2 PUSH2 0x15A9 JUMPI INVALID JUMPDEST DIV PUSH1 0x1 ADD SWAP1 POP PUSH2 0x604 JUMP JUMPDEST PUSH2 0x15C0 DUP5 DUP5 DUP5 DUP5 PUSH2 0x2293 JUMP JUMPDEST PUSH32 0x1835882EE7A34AC194F717A35E09BB1D24C82A3B9D854AB6C9749525B714CDF2 DUP5 DUP5 DUP5 DUP5 PUSH1 0x40 MLOAD PUSH2 0x15F5 SWAP5 SWAP4 SWAP3 SWAP2 SWAP1 PUSH2 0x4391 JUMP JUMPDEST PUSH1 0x40 MLOAD DUP1 SWAP2 SUB SWAP1 LOG1 POP POP POP POP JUMP JUMPDEST PUSH1 0x0 PUSH32 0x0 PUSH32 0x0 PUSH32 0x0 PUSH2 0x1670 PUSH2 0x22EF JUMP JUMPDEST ADDRESS PUSH1 0x40 MLOAD PUSH1 0x20 ADD PUSH2 0x1685 SWAP6 SWAP5 SWAP4 SWAP3 SWAP2 SWAP1 PUSH2 0x42C7 JUMP JUMPDEST PUSH1 0x40 MLOAD PUSH1 0x20 DUP2 DUP4 SUB SUB DUP2 MSTORE SWAP1 PUSH1 0x40 MSTORE DUP1 MLOAD SWAP1 PUSH1 0x20 ADD KECCAK256 SWAP1 POP SWAP1 JUMP JUMPDEST PUSH2 0x16B3 PUSH2 0x16AB PUSH2 0x13C8 JUMP JUMPDEST PUSH2 0x192 PUSH2 0x1063 JUMP JUMPDEST JUMP JUMPDEST PUSH2 0x16C8 PUSH5 0xE8D4A51000 DUP3 LT ISZERO PUSH1 0xCB PUSH2 0x1063 JUMP JUMPDEST PUSH2 0x16DE PUSH8 0x16345785D8A0000 DUP3 GT ISZERO PUSH1 0xCA PUSH2 0x1063 JUMP JUMPDEST PUSH1 0x8 SLOAD PUSH2 0x16ED SWAP1 DUP3 PUSH1 0xC0 PUSH2 0x1034 JUMP JUMPDEST PUSH1 0x8 SSTORE PUSH1 0x40 MLOAD PUSH32 0xA9BA3FFE0B6C366B81232CAAB38605A0699AD5398D6CCE76F91EE809E322DAFC SWAP1 PUSH2 0x13BD SWAP1 DUP4 SWAP1 PUSH2 0x426B JUMP JUMPDEST PUSH1 0x0 DUP3 DUP3 ADD PUSH2 0x6CB DUP5 DUP3 LT ISZERO DUP4 PUSH2 0x1063 JUMP JUMPDEST PUSH1 0x0 PUSH2 0x173C PUSH2 0x7E1 JUMP JUMPDEST SWAP1 POP PUSH1 0x0 PUSH2 0x1748 PUSH2 0xAE2 JUMP JUMPDEST PUSH1 0x1 PUSH1 0x1 PUSH1 0xA0 SHL SUB AND PUSH4 0xB05F8E48 DUP4 DUP7 PUSH1 0x40 MLOAD DUP4 PUSH4 0xFFFFFFFF AND PUSH1 0xE0 SHL DUP2 MSTORE PUSH1 0x4 ADD PUSH2 0x1775 SWAP3 SWAP2 SWAP1 PUSH2 0x430C JUMP JUMPDEST PUSH1 0x80 PUSH1 0x40 MLOAD DUP1 DUP4 SUB DUP2 DUP7 DUP1 EXTCODESIZE ISZERO DUP1 ISZERO PUSH2 0x178D JUMPI PUSH1 0x0 DUP1 REVERT JUMPDEST POP GAS STATICCALL ISZERO DUP1 ISZERO PUSH2 0x17A1 JUMPI RETURNDATASIZE PUSH1 0x0 DUP1 RETURNDATACOPY RETURNDATASIZE PUSH1 0x0 REVERT JUMPDEST POP POP POP POP PUSH1 0x40 MLOAD RETURNDATASIZE PUSH1 0x1F NOT PUSH1 0x1F DUP3 ADD AND DUP3 ADD DUP1 PUSH1 0x40 MSTORE POP DUP2 ADD SWAP1 PUSH2 0x17C5 SWAP2 SWAP1 PUSH2 0x40F4 JUMP JUMPDEST PUSH1 0x40 MLOAD PUSH4 0x639CDB5 PUSH1 0xE2 SHL DUP2 MSTORE SWAP1 SWAP5 POP PUSH1 0x1 PUSH1 0x1 PUSH1 0xA0 SHL SUB DUP6 AND SWAP4 POP PUSH4 0x18E736D4 SWAP3 POP PUSH2 0x17F9 SWAP2 POP DUP6 SWAP1 DUP8 SWAP1 PUSH1 0x4 ADD PUSH2 0x42F3 JUMP JUMPDEST PUSH1 0x0 PUSH1 0x40 MLOAD DUP1 DUP4 SUB DUP2 PUSH1 0x0 DUP8 DUP1 EXTCODESIZE ISZERO DUP1 ISZERO PUSH2 0x1813 JUMPI PUSH1 0x0 DUP1 REVERT JUMPDEST POP GAS CALL ISZERO DUP1 ISZERO PUSH2 0x1827 JUMPI RETURNDATASIZE PUSH1 0x0 DUP1 RETURNDATACOPY RETURNDATASIZE PUSH1 0x0 REVERT JUMPDEST POP POP POP POP POP POP POP POP JUMP JUMPDEST SHR PUSH1 0x1 PUSH1 0x1 PUSH1 0x40 SHL SUB AND SWAP1 JUMP JUMPDEST PUSH2 0x85A DUP2 DUP4 EQ PUSH1 0x67 PUSH2 0x1063 JUMP JUMPDEST PUSH1 0x0 PUSH1 0x60 DUP1 PUSH2 0x1858 PUSH2 0x13C8 JUMP JUMPDEST ISZERO PUSH2 0x187B JUMPI PUSH2 0x1867 DUP9 DUP8 PUSH2 0x22F3 JUMP JUMPDEST SWAP1 POP PUSH2 0x1876 DUP9 DUP3 PUSH2 0x1049 PUSH2 0x23DF JUMP JUMPDEST PUSH2 0x18C6 JUMP JUMPDEST PUSH2 0x1883 PUSH2 0x1071 JUMP JUMPDEST PUSH1 0x1 PUSH1 0x1 PUSH1 0x40 SHL SUB DUP2 GT DUP1 ISZERO PUSH2 0x1898 JUMPI PUSH1 0x0 DUP1 REVERT JUMPDEST POP PUSH1 0x40 MLOAD SWAP1 DUP1 DUP3 MSTORE DUP1 PUSH1 0x20 MUL PUSH1 0x20 ADD DUP3 ADD PUSH1 0x40 MSTORE DUP1 ISZERO PUSH2 0x18C2 JUMPI DUP2 PUSH1 0x20 ADD PUSH1 0x20 DUP3 MUL DUP1 CALLDATASIZE DUP4 CALLDATACOPY ADD SWAP1 POP JUMPDEST POP SWAP1 POP JUMPDEST PUSH2 0x18D1 DUP9 DUP7 DUP7 PUSH2 0x244A JUMP JUMPDEST SWAP1 SWAP4 POP SWAP2 POP PUSH2 0x18E0 DUP9 DUP4 PUSH2 0x24D5 JUMP JUMPDEST SWAP9 POP SWAP9 POP SWAP9 SWAP6 POP POP POP POP POP POP JUMP JUMPDEST PUSH1 0x0 JUMPDEST PUSH2 0x18F9 PUSH2 0x1071 JUMP JUMPDEST DUP2 LT ISZERO PUSH2 0x10AD JUMPI PUSH2 0x1930 DUP4 DUP3 DUP2 MLOAD DUP2 LT PUSH2 0x190F JUMPI INVALID JUMPDEST PUSH1 0x20 MUL PUSH1 0x20 ADD ADD MLOAD DUP4 DUP4 DUP2 MLOAD DUP2 LT PUSH2 0x1923 JUMPI INVALID JUMPDEST PUSH1 0x20 MUL PUSH1 0x20 ADD ADD MLOAD PUSH2 0x2504 JUMP JUMPDEST DUP4 DUP3 DUP2 MLOAD DUP2 LT PUSH2 0x193C JUMPI INVALID JUMPDEST PUSH1 0x20 SWAP1 DUP2 MUL SWAP2 SWAP1 SWAP2 ADD ADD MSTORE PUSH1 0x1 ADD PUSH2 0x18F1 JUMP JUMPDEST CALLER ADDRESS EQ PUSH2 0x1A0D JUMPI PUSH1 0x0 ADDRESS PUSH1 0x1 PUSH1 0x1 PUSH1 0xA0 SHL SUB AND PUSH1 0x0 CALLDATASIZE PUSH1 0x40 MLOAD PUSH2 0x1973 SWAP3 SWAP2 SWAP1 PUSH2 0x41D1 JUMP JUMPDEST PUSH1 0x0 PUSH1 0x40 MLOAD DUP1 DUP4 SUB DUP2 PUSH1 0x0 DUP7 GAS CALL SWAP2 POP POP RETURNDATASIZE DUP1 PUSH1 0x0 DUP2 EQ PUSH2 0x19B0 JUMPI PUSH1 0x40 MLOAD SWAP2 POP PUSH1 0x1F NOT PUSH1 0x3F RETURNDATASIZE ADD AND DUP3 ADD PUSH1 0x40 MSTORE RETURNDATASIZE DUP3 MSTORE RETURNDATASIZE PUSH1 0x0 PUSH1 0x20 DUP5 ADD RETURNDATACOPY PUSH2 0x19B5 JUMP JUMPDEST PUSH1 0x60 SWAP2 POP JUMPDEST POP POP SWAP1 POP DUP1 PUSH1 0x0 DUP2 EQ PUSH2 0x19C4 JUMPI INVALID JUMPDEST PUSH1 0x4 PUSH1 0x0 DUP1 RETURNDATACOPY PUSH1 0x0 MLOAD PUSH1 0x1 PUSH1 0x1 PUSH1 0xE0 SHL SUB NOT AND PUSH4 0x43ADBAFB PUSH1 0xE0 SHL DUP2 EQ PUSH2 0x19EF JUMPI RETURNDATASIZE PUSH1 0x0 DUP1 RETURNDATACOPY RETURNDATASIZE PUSH1 0x0 REVERT JUMPDEST POP PUSH1 0x20 PUSH1 0x4 PUSH1 0x0 RETURNDATACOPY PUSH1 0x40 PUSH1 0x20 MSTORE PUSH1 0x24 RETURNDATASIZE SUB PUSH1 0x24 PUSH1 0x40 RETURNDATACOPY PUSH1 0x1C RETURNDATASIZE ADD PUSH1 0x0 RETURN JUMPDEST PUSH1 0x60 PUSH2 0x1A17 PUSH2 0x10B2 JUMP JUMPDEST SWAP1 POP PUSH2 0x1A23 DUP8 DUP3 PUSH2 0x1A72 JUMP JUMPDEST PUSH1 0x0 PUSH1 0x60 PUSH2 0x1A3B DUP13 DUP13 DUP13 DUP13 DUP13 DUP13 DUP10 DUP14 DUP14 PUSH4 0xFFFFFFFF AND JUMP JUMPDEST POP SWAP2 POP SWAP2 POP PUSH2 0x1A4E DUP2 DUP5 DUP7 PUSH4 0xFFFFFFFF AND JUMP JUMPDEST DUP1 MLOAD PUSH1 0x1F NOT DUP3 ADD DUP4 SWAP1 MSTORE PUSH4 0x43ADBAFB PUSH1 0x3F NOT DUP4 ADD MSTORE PUSH1 0x20 MUL PUSH1 0x23 NOT DUP3 ADD PUSH1 0x44 DUP3 ADD DUP2 REVERT JUMPDEST PUSH1 0x0 JUMPDEST PUSH2 0x1A7D PUSH2 0x1071 JUMP JUMPDEST DUP2 LT ISZERO PUSH2 0x10AD JUMPI PUSH2 0x1AB4 DUP4 DUP3 DUP2 MLOAD DUP2 LT PUSH2 0x1A93 JUMPI INVALID JUMPDEST PUSH1 0x20 MUL PUSH1 0x20 ADD ADD MLOAD DUP4 DUP4 DUP2 MLOAD DUP2 LT PUSH2 0x1AA7 JUMPI INVALID JUMPDEST PUSH1 0x20 MUL PUSH1 0x20 ADD ADD MLOAD PUSH2 0x2555 JUMP JUMPDEST DUP4 DUP3 DUP2 MLOAD DUP2 LT PUSH2 0x1AC0 JUMPI INVALID JUMPDEST PUSH1 0x20 SWAP1 DUP2 MUL SWAP2 SWAP1 SWAP2 ADD ADD MSTORE PUSH1 0x1 ADD PUSH2 0x1A75 JUMP JUMPDEST PUSH1 0x0 DUP1 PUSH2 0x1AE2 DUP5 DUP7 PUSH1 0x0 PUSH2 0x2581 JUMP JUMPDEST SWAP1 POP PUSH2 0x1247 DUP2 DUP5 PUSH2 0x2504 JUMP JUMPDEST PUSH2 0x85A DUP3 DUP3 PUSH2 0x271D JUMP JUMPDEST PUSH1 0x0 PUSH1 0x60 DUP1 PUSH2 0x1B05 PUSH2 0x16A0 JUMP JUMPDEST PUSH1 0x60 PUSH2 0x1B11 DUP10 DUP9 PUSH2 0x22F3 JUMP JUMPDEST SWAP1 POP PUSH2 0x1B20 DUP10 DUP3 PUSH2 0x1049 PUSH2 0x23DF JUMP JUMPDEST PUSH1 0x0 PUSH1 0x60 PUSH2 0x1B2F DUP12 DUP10 DUP10 PUSH2 0x27D9 JUMP JUMPDEST SWAP2 POP SWAP2 POP PUSH2 0x1B3D DUP12 DUP3 PUSH2 0x2832 JUMP JUMPDEST SWAP1 SWAP14 SWAP1 SWAP13 POP SWAP1 SWAP11 POP SWAP9 POP POP POP POP POP POP POP POP POP JUMP JUMPDEST PUSH1 0x0 JUMPDEST PUSH2 0x1B5C PUSH2 0x1071 JUMP JUMPDEST DUP2 LT ISZERO PUSH2 0x10AD JUMPI PUSH2 0x1B93 DUP4 DUP3 DUP2 MLOAD DUP2 LT PUSH2 0x1B72 JUMPI INVALID JUMPDEST PUSH1 0x20 MUL PUSH1 0x20 ADD ADD MLOAD DUP4 DUP4 DUP2 MLOAD DUP2 LT PUSH2 0x1B86 JUMPI INVALID JUMPDEST PUSH1 0x20 MUL PUSH1 0x20 ADD ADD MLOAD PUSH2 0x283F JUMP JUMPDEST DUP4 DUP3 DUP2 MLOAD DUP2 LT PUSH2 0x1B9F JUMPI INVALID JUMPDEST PUSH1 0x20 SWAP1 DUP2 MUL SWAP2 SWAP1 SWAP2 ADD ADD MSTORE PUSH1 0x1 ADD PUSH2 0x1B54 JUMP JUMPDEST PUSH1 0x0 PUSH2 0x1BBD DUP3 PUSH2 0x288D JUMP JUMPDEST ISZERO PUSH2 0x1BD1 JUMPI PUSH2 0x1BCA PUSH2 0x2005 JUMP JUMPDEST SWAP1 POP PUSH2 0x9A8 JUMP JUMPDEST PUSH2 0x1BDA DUP3 PUSH2 0x28BF JUMP JUMPDEST ISZERO PUSH2 0x1BE7 JUMPI PUSH2 0x1BCA PUSH2 0x2029 JUMP JUMPDEST PUSH32 0x0 PUSH1 0x1 PUSH1 0x1 PUSH1 0xA0 SHL SUB AND DUP3 PUSH1 0x1 PUSH1 0x1 PUSH1 0xA0 SHL SUB AND EQ ISZERO PUSH2 0x1C29 JUMPI PUSH2 0x1BCA PUSH2 0x204D JUMP JUMPDEST PUSH32 0x0 PUSH1 0x1 PUSH1 0x1 PUSH1 0xA0 SHL SUB AND DUP3 PUSH1 0x1 PUSH1 0x1 PUSH1 0xA0 SHL SUB AND EQ ISZERO PUSH2 0x1C6B JUMPI PUSH2 0x1BCA PUSH2 0x2071 JUMP JUMPDEST PUSH32 0x0 PUSH1 0x1 PUSH1 0x1 PUSH1 0xA0 SHL SUB AND DUP3 PUSH1 0x1 PUSH1 0x1 PUSH1 0xA0 SHL SUB AND EQ ISZERO PUSH2 0x1CAD JUMPI PUSH2 0x1BCA PUSH2 0x2095 JUMP JUMPDEST PUSH2 0x9A8 PUSH2 0x135 PUSH2 0x1FB2 JUMP JUMPDEST PUSH1 0x0 DUP1 PUSH2 0x1CCD PUSH2 0x1CC6 PUSH2 0x85E JUMP JUMPDEST DUP5 SWAP1 PUSH2 0x28F1 JUMP JUMPDEST SWAP1 POP PUSH2 0x6CB DUP4 DUP3 PUSH2 0x1049 JUMP JUMPDEST PUSH1 0x0 PUSH2 0x6CB DUP4 DUP4 PUSH2 0x2555 JUMP JUMPDEST PUSH2 0x85A PUSH2 0x1CF1 DUP4 PUSH2 0x292D JUMP JUMPDEST DUP3 PUSH2 0x85A JUMP JUMPDEST PUSH1 0x0 PUSH2 0x1D0E PUSH2 0x1D04 PUSH2 0x1071 JUMP JUMPDEST PUSH1 0x2 EQ PUSH1 0xD2 PUSH2 0x1063 JUMP JUMPDEST PUSH1 0x60 PUSH1 0x0 DUP1 PUSH2 0x1D1E DUP8 DUP8 DUP8 PUSH2 0x2933 JUMP JUMPDEST SWAP3 POP SWAP3 POP SWAP3 POP PUSH2 0x551 DUP8 DUP5 DUP5 DUP5 PUSH2 0x2102 JUMP JUMPDEST PUSH1 0x0 PUSH2 0x6CB DUP4 DUP4 PUSH2 0x2504 JUMP JUMPDEST PUSH1 0x0 PUSH2 0x1D49 PUSH2 0x1D04 PUSH2 0x1071 JUMP JUMPDEST PUSH1 0x60 PUSH1 0x0 DUP1 PUSH2 0x1D59 DUP8 DUP8 DUP8 PUSH2 0x2933 JUMP JUMPDEST SWAP3 POP SWAP3 POP SWAP3 POP PUSH2 0x551 DUP8 DUP5 DUP5 DUP5 PUSH2 0x20B9 JUMP JUMPDEST PUSH1 0x0 PUSH2 0x6CB DUP4 DUP4 PUSH2 0x283F JUMP JUMPDEST PUSH1 0x0 PUSH2 0x604 PUSH2 0x1D96 PUSH2 0x1D87 PUSH2 0x85E JUMP JUMPDEST PUSH8 0xDE0B6B3A7640000 SWAP1 PUSH2 0x1049 JUMP JUMPDEST DUP4 SWAP1 PUSH2 0x283F JUMP JUMPDEST PUSH1 0x0 PUSH2 0x1DA7 PUSH2 0xAE2 JUMP JUMPDEST PUSH1 0x1 PUSH1 0x1 PUSH1 0xA0 SHL SUB AND PUSH4 0xAAABADC5 PUSH1 0x40 MLOAD DUP2 PUSH4 0xFFFFFFFF AND PUSH1 0xE0 SHL DUP2 MSTORE PUSH1 0x4 ADD PUSH1 0x20 PUSH1 0x40 MLOAD DUP1 DUP4 SUB DUP2 DUP7 DUP1 EXTCODESIZE ISZERO DUP1 ISZERO PUSH2 0x1DDF JUMPI PUSH1 0x0 DUP1 REVERT JUMPDEST POP GAS STATICCALL ISZERO DUP1 ISZERO PUSH2 0x1DF3 JUMPI RETURNDATASIZE PUSH1 0x0 DUP1 RETURNDATACOPY RETURNDATASIZE PUSH1 0x0 REVERT JUMPDEST POP POP POP POP PUSH1 0x40 MLOAD RETURNDATASIZE PUSH1 0x1F NOT PUSH1 0x1F DUP3 ADD AND DUP3 ADD DUP1 PUSH1 0x40 MSTORE POP DUP2 ADD SWAP1 PUSH2 0x657 SWAP2 SWAP1 PUSH2 0x3E8E JUMP JUMPDEST PUSH1 0x0 PUSH2 0x1E21 PUSH2 0x1603 JUMP JUMPDEST DUP3 PUSH1 0x40 MLOAD PUSH1 0x20 ADD PUSH2 0xA7B SWAP3 SWAP2 SWAP1 PUSH2 0x41E1 JUMP JUMPDEST PUSH1 0x0 PUSH1 0x60 PUSH2 0x1E3F PUSH2 0x16A0 JUMP JUMPDEST PUSH1 0x0 PUSH2 0x1E4A DUP5 PUSH2 0x29F4 JUMP JUMPDEST SWAP1 POP PUSH2 0x1E65 PUSH1 0x0 DUP3 PUSH1 0x2 DUP2 GT ISZERO PUSH2 0x1E5D JUMPI INVALID JUMPDEST EQ PUSH1 0xCE PUSH2 0x1063 JUMP JUMPDEST PUSH1 0x60 PUSH2 0x1E70 DUP6 PUSH2 0x2A0A JUMP JUMPDEST SWAP1 POP PUSH2 0x1E7F DUP2 MLOAD PUSH2 0x880 PUSH2 0x1071 JUMP JUMPDEST PUSH2 0x1E89 DUP2 DUP8 PUSH2 0x1A72 JUMP JUMPDEST PUSH1 0x0 PUSH2 0x1E93 PUSH2 0x150D JUMP JUMPDEST POP SWAP1 POP PUSH1 0x0 PUSH2 0x1EA4 DUP3 DUP5 PUSH1 0x1 PUSH2 0x2581 JUMP JUMPDEST SWAP1 POP DUP1 PUSH2 0x1EB1 DUP2 DUP5 PUSH2 0x2A20 JUMP JUMPDEST SWAP12 SWAP3 SWAP11 POP SWAP2 SWAP9 POP POP POP POP POP POP POP POP POP JUMP JUMPDEST PUSH3 0xF4240 SWAP1 JUMP JUMPDEST PUSH2 0x85A DUP3 DUP3 PUSH2 0x2A2B JUMP JUMPDEST PUSH1 0x1 PUSH1 0x1 PUSH1 0xA0 SHL SUB SWAP2 DUP3 AND PUSH1 0x0 SWAP1 DUP2 MSTORE PUSH1 0x1 PUSH1 0x20 SWAP1 DUP2 MSTORE PUSH1 0x40 DUP1 DUP4 KECCAK256 SWAP4 SWAP1 SWAP5 AND DUP3 MSTORE SWAP2 SWAP1 SWAP2 MSTORE KECCAK256 SLOAD SWAP1 JUMP JUMPDEST PUSH2 0x1F0A DUP2 DUP3 TIMESTAMP TIMESTAMP PUSH2 0x2293 JUMP JUMPDEST PUSH32 0xA0D01593E47E69D07E0CCD87BECE09411E07DD1ED40CA8F2E7AF2976542A0233 DUP2 PUSH1 0x40 MLOAD PUSH2 0x13BD SWAP2 SWAP1 PUSH2 0x426B JUMP JUMPDEST PUSH1 0x2 DUP2 MLOAD LT ISZERO PUSH2 0x1F48 JUMPI PUSH2 0x61B JUMP JUMPDEST PUSH1 0x0 DUP2 PUSH1 0x0 DUP2 MLOAD DUP2 LT PUSH2 0x1F57 JUMPI INVALID JUMPDEST PUSH1 0x20 MUL PUSH1 0x20 ADD ADD MLOAD SWAP1 POP PUSH1 0x0 PUSH1 0x1 SWAP1 POP JUMPDEST DUP3 MLOAD DUP2 LT ISZERO PUSH2 0x10AD JUMPI PUSH1 0x0 DUP4 DUP3 DUP2 MLOAD DUP2 LT PUSH2 0x1F7F JUMPI INVALID JUMPDEST PUSH1 0x20 MUL PUSH1 0x20 ADD ADD MLOAD SWAP1 POP PUSH2 0x1FA8 DUP2 PUSH1 0x1 PUSH1 0x1 PUSH1 0xA0 SHL SUB AND DUP5 PUSH1 0x1 PUSH1 0x1 PUSH1 0xA0 SHL SUB AND LT PUSH1 0x65 PUSH2 0x1063 JUMP JUMPDEST SWAP2 POP PUSH1 0x1 ADD PUSH2 0x1F68 JUMP JUMPDEST PUSH3 0x461BCD PUSH1 0xE5 SHL PUSH1 0x0 SWAP1 DUP2 MSTORE PUSH1 0x20 PUSH1 0x4 MSTORE PUSH1 0x7 PUSH1 0x24 MSTORE PUSH7 0x42414C23000030 PUSH1 0xA DUP1 DUP5 DIV DUP2 DUP2 MOD PUSH1 0x30 SWAP1 DUP2 ADD PUSH1 0x8 SHL SWAP6 DUP4 SWAP1 MOD SWAP6 SWAP1 SWAP6 ADD SWAP1 DUP3 SWAP1 DIV SWAP2 DUP3 MOD SWAP1 SWAP5 ADD PUSH1 0x10 SHL SWAP4 SWAP1 SWAP4 ADD ADD PUSH1 0xC8 SHL PUSH1 0x44 MSTORE PUSH1 0x64 SWAP1 REVERT JUMPDEST PUSH32 0x0 SWAP1 JUMP JUMPDEST PUSH32 0x0 SWAP1 JUMP JUMPDEST PUSH32 0x0 SWAP1 JUMP JUMPDEST PUSH32 0x0 SWAP1 JUMP JUMPDEST PUSH32 0x0 SWAP1 JUMP JUMPDEST PUSH1 0x0 PUSH2 0x20C3 PUSH2 0x16A0 JUMP JUMPDEST PUSH1 0x0 PUSH2 0x20CD PUSH2 0x150D JUMP JUMPDEST POP SWAP1 POP PUSH1 0x0 PUSH2 0x20DE DUP3 DUP8 PUSH1 0x1 PUSH2 0x2581 JUMP JUMPDEST SWAP1 POP PUSH1 0x0 PUSH2 0x20F4 DUP4 DUP9 DUP9 DUP9 DUP13 PUSH1 0x60 ADD MLOAD DUP8 PUSH2 0x2AB9 JUMP JUMPDEST SWAP4 POP POP POP POP JUMPDEST SWAP5 SWAP4 POP POP POP POP JUMP JUMPDEST PUSH1 0x0 PUSH2 0x210C PUSH2 0x16A0 JUMP JUMPDEST PUSH1 0x0 PUSH2 0x2116 PUSH2 0x150D JUMP JUMPDEST POP SWAP1 POP PUSH1 0x0 PUSH2 0x2127 DUP3 DUP8 PUSH1 0x1 PUSH2 0x2581 JUMP JUMPDEST SWAP1 POP PUSH1 0x0 PUSH2 0x20F4 DUP4 DUP9 DUP9 DUP9 DUP13 PUSH1 0x60 ADD MLOAD DUP8 PUSH2 0x2B6E JUMP JUMPDEST PUSH1 0x0 PUSH20 0xBA1BA1BA1BA1BA1BA1BA1BA1BA1BA1BA1BA1BA1B PUSH2 0x215C PUSH2 0xABE JUMP JUMPDEST PUSH1 0x1 PUSH1 0x1 PUSH1 0xA0 SHL SUB AND EQ ISZERO DUP1 ISZERO PUSH2 0x2177 JUMPI POP PUSH2 0x2177 DUP4 PUSH2 0x2C07 JUMP JUMPDEST ISZERO PUSH2 0x219F JUMPI PUSH2 0x2184 PUSH2 0xABE JUMP JUMPDEST PUSH1 0x1 PUSH1 0x1 PUSH1 0xA0 SHL SUB AND CALLER PUSH1 0x1 PUSH1 0x1 PUSH1 0xA0 SHL SUB AND EQ SWAP1 POP PUSH2 0x604 JUMP JUMPDEST PUSH2 0x21A7 PUSH2 0x1D9D JUMP JUMPDEST PUSH1 0x1 PUSH1 0x1 PUSH1 0xA0 SHL SUB AND PUSH4 0x9BE2A884 DUP5 DUP5 ADDRESS PUSH1 0x40 MLOAD DUP5 PUSH4 0xFFFFFFFF AND PUSH1 0xE0 SHL DUP2 MSTORE PUSH1 0x4 ADD PUSH2 0x21D6 SWAP4 SWAP3 SWAP2 SWAP1 PUSH2 0x4274 JUMP JUMPDEST PUSH1 0x20 PUSH1 0x40 MLOAD DUP1 DUP4 SUB DUP2 DUP7 DUP1 EXTCODESIZE ISZERO DUP1 ISZERO PUSH2 0x21EE JUMPI PUSH1 0x0 DUP1 REVERT JUMPDEST POP GAS STATICCALL ISZERO DUP1 ISZERO PUSH2 0x2202 JUMPI RETURNDATASIZE PUSH1 0x0 DUP1 RETURNDATACOPY RETURNDATASIZE PUSH1 0x0 REVERT JUMPDEST POP POP POP POP PUSH1 0x40 MLOAD RETURNDATASIZE PUSH1 0x1F NOT PUSH1 0x1F DUP3 ADD AND DUP3 ADD DUP1 PUSH1 0x40 MSTORE POP DUP2 ADD SWAP1 PUSH2 0xFD3 SWAP2 SWAP1 PUSH2 0x3DA8 JUMP JUMPDEST PUSH1 0x0 PUSH2 0x2235 DUP5 DUP5 GT ISZERO DUP4 PUSH2 0x1063 JUMP JUMPDEST POP POP SWAP1 SUB SWAP1 JUMP JUMPDEST PUSH1 0x0 DUP1 PUSH1 0x0 DUP1 PUSH2 0x2258 PUSH1 0x0 PUSH1 0x9 SLOAD PUSH2 0x1831 SWAP1 SWAP2 SWAP1 PUSH4 0xFFFFFFFF AND JUMP JUMPDEST PUSH1 0x9 SLOAD SWAP1 SWAP5 POP PUSH2 0x2269 SWAP1 PUSH1 0x40 PUSH2 0x1831 JUMP JUMPDEST PUSH1 0x9 SLOAD SWAP1 SWAP4 POP PUSH2 0x227A SWAP1 PUSH1 0x80 PUSH2 0x1831 JUMP JUMPDEST PUSH1 0x9 SLOAD SWAP1 SWAP3 POP PUSH2 0x228B SWAP1 PUSH1 0xC0 PUSH2 0x1831 JUMP JUMPDEST SWAP1 POP SWAP1 SWAP2 SWAP3 SWAP4 JUMP JUMPDEST PUSH2 0x22A7 DUP2 PUSH1 0x1 PUSH1 0x1 PUSH1 0x40 SHL SUB AND PUSH1 0xC0 PUSH2 0x105F JUMP JUMPDEST PUSH2 0x22BB DUP4 PUSH1 0x1 PUSH1 0x1 PUSH1 0x40 SHL SUB AND PUSH1 0x80 PUSH2 0x105F JUMP JUMPDEST PUSH2 0x22CF DUP6 PUSH1 0x1 PUSH1 0x1 PUSH1 0x40 SHL SUB AND PUSH1 0x40 PUSH2 0x105F JUMP JUMPDEST PUSH2 0x22E3 DUP8 PUSH1 0x1 PUSH1 0x1 PUSH1 0x40 SHL SUB AND PUSH1 0x0 PUSH2 0x105F JUMP JUMPDEST OR OR OR PUSH1 0x9 SSTORE POP POP POP POP JUMP JUMPDEST CHAINID SWAP1 JUMP JUMPDEST PUSH1 0x60 DUP1 PUSH2 0x22FE PUSH2 0x1071 JUMP JUMPDEST PUSH1 0x1 PUSH1 0x1 PUSH1 0x40 SHL SUB DUP2 GT DUP1 ISZERO PUSH2 0x2313 JUMPI PUSH1 0x0 DUP1 REVERT JUMPDEST POP PUSH1 0x40 MLOAD SWAP1 DUP1 DUP3 MSTORE DUP1 PUSH1 0x20 MUL PUSH1 0x20 ADD DUP3 ADD PUSH1 0x40 MSTORE DUP1 ISZERO PUSH2 0x233D JUMPI DUP2 PUSH1 0x20 ADD PUSH1 0x20 DUP3 MUL DUP1 CALLDATASIZE DUP4 CALLDATACOPY ADD SWAP1 POP JUMPDEST POP SWAP1 POP DUP3 PUSH2 0x234C JUMPI SWAP1 POP PUSH2 0x604 JUMP JUMPDEST PUSH1 0x0 DUP1 DUP6 PUSH1 0x0 DUP2 MLOAD DUP2 LT PUSH2 0x235C JUMPI INVALID JUMPDEST PUSH1 0x20 MUL PUSH1 0x20 ADD ADD MLOAD SWAP1 POP PUSH1 0x0 PUSH1 0x1 SWAP1 POP JUMPDEST PUSH2 0x2375 PUSH2 0x1071 JUMP JUMPDEST DUP2 LT ISZERO PUSH2 0x23AC JUMPI PUSH1 0x0 DUP8 DUP3 DUP2 MLOAD DUP2 LT PUSH2 0x238A JUMPI INVALID JUMPDEST PUSH1 0x20 MUL PUSH1 0x20 ADD ADD MLOAD SWAP1 POP DUP3 DUP2 GT ISZERO PUSH2 0x23A3 JUMPI DUP2 SWAP4 POP DUP1 SWAP3 POP JUMPDEST POP PUSH1 0x1 ADD PUSH2 0x236D JUMP JUMPDEST POP PUSH2 0x23BE PUSH1 0xB SLOAD DUP8 PUSH1 0xA SLOAD DUP6 DUP10 PUSH2 0x2C43 JUMP JUMPDEST DUP4 DUP4 DUP2 MLOAD DUP2 LT PUSH2 0x23CA JUMPI INVALID JUMPDEST PUSH1 0x20 SWAP1 DUP2 MUL SWAP2 SWAP1 SWAP2 ADD ADD MSTORE POP SWAP1 SWAP5 SWAP4 POP POP POP POP JUMP JUMPDEST PUSH1 0x0 JUMPDEST PUSH2 0x23EA PUSH2 0x1071 JUMP JUMPDEST DUP2 LT ISZERO PUSH2 0x2444 JUMPI PUSH2 0x2425 DUP5 DUP3 DUP2 MLOAD DUP2 LT PUSH2 0x2400 JUMPI INVALID JUMPDEST PUSH1 0x20 MUL PUSH1 0x20 ADD ADD MLOAD DUP5 DUP4 DUP2 MLOAD DUP2 LT PUSH2 0x2414 JUMPI INVALID JUMPDEST PUSH1 0x20 MUL PUSH1 0x20 ADD ADD MLOAD DUP5 PUSH4 0xFFFFFFFF AND JUMP JUMPDEST DUP5 DUP3 DUP2 MLOAD DUP2 LT PUSH2 0x2431 JUMPI INVALID JUMPDEST PUSH1 0x20 SWAP1 DUP2 MUL SWAP2 SWAP1 SWAP2 ADD ADD MSTORE PUSH1 0x1 ADD PUSH2 0x23E2 JUMP JUMPDEST POP POP POP POP JUMP JUMPDEST PUSH1 0x0 PUSH1 0x60 PUSH1 0x0 PUSH2 0x2459 DUP5 PUSH2 0x29F4 JUMP JUMPDEST SWAP1 POP PUSH1 0x0 DUP2 PUSH1 0x2 DUP2 GT ISZERO PUSH2 0x2469 JUMPI INVALID JUMPDEST EQ ISZERO PUSH2 0x2483 JUMPI PUSH2 0x2479 DUP7 DUP6 PUSH2 0x2CA5 JUMP JUMPDEST SWAP3 POP SWAP3 POP POP PUSH2 0x24CD JUMP JUMPDEST PUSH1 0x1 DUP2 PUSH1 0x2 DUP2 GT ISZERO PUSH2 0x2491 JUMPI INVALID JUMPDEST EQ ISZERO PUSH2 0x24A1 JUMPI PUSH2 0x2479 DUP7 DUP6 PUSH2 0x2D6F JUMP JUMPDEST PUSH1 0x2 DUP2 PUSH1 0x2 DUP2 GT ISZERO PUSH2 0x24AF JUMPI INVALID JUMPDEST EQ ISZERO PUSH2 0x24C0 JUMPI PUSH2 0x2479 DUP7 DUP7 DUP7 PUSH2 0x2DA1 JUMP JUMPDEST PUSH2 0x24CB PUSH2 0x150 PUSH2 0x1FB2 JUMP JUMPDEST POP JUMPDEST SWAP4 POP SWAP4 SWAP2 POP POP JUMP JUMPDEST PUSH2 0x24E2 DUP3 DUP3 PUSH2 0x1049 PUSH2 0x23DF JUMP JUMPDEST PUSH1 0x0 PUSH2 0x24EC PUSH2 0x150D JUMP JUMPDEST POP SWAP1 POP PUSH2 0x10AD PUSH2 0x24FE DUP3 DUP6 PUSH1 0x1 PUSH2 0x2581 JUMP JUMPDEST DUP3 PUSH2 0x2A20 JUMP JUMPDEST PUSH1 0x0 PUSH2 0x2513 DUP3 ISZERO ISZERO PUSH1 0x4 PUSH2 0x1063 JUMP JUMPDEST DUP3 PUSH2 0x2520 JUMPI POP PUSH1 0x0 PUSH2 0x604 JUMP JUMPDEST PUSH8 0xDE0B6B3A7640000 DUP4 DUP2 MUL SWAP1 PUSH2 0x2543 SWAP1 DUP6 DUP4 DUP2 PUSH2 0x253A JUMPI INVALID JUMPDEST DIV EQ PUSH1 0x5 PUSH2 0x1063 JUMP JUMPDEST DUP3 DUP2 DUP2 PUSH2 0x254C JUMPI INVALID JUMPDEST DIV SWAP2 POP POP PUSH2 0x604 JUMP JUMPDEST PUSH1 0x0 DUP3 DUP3 MUL PUSH2 0x256F DUP5 ISZERO DUP1 PUSH2 0x102D JUMPI POP DUP4 DUP6 DUP4 DUP2 PUSH2 0x102A JUMPI INVALID JUMPDEST PUSH8 0xDE0B6B3A7640000 SWAP1 DIV SWAP4 SWAP3 POP POP POP JUMP JUMPDEST DUP2 MLOAD PUSH1 0x0 SWAP1 DUP2 SWAP1 DUP2 JUMPDEST DUP2 DUP2 LT ISZERO PUSH2 0x25C2 JUMPI PUSH2 0x25B8 DUP7 DUP3 DUP2 MLOAD DUP2 LT PUSH2 0x25A1 JUMPI INVALID JUMPDEST PUSH1 0x20 MUL PUSH1 0x20 ADD ADD MLOAD DUP5 PUSH2 0x1720 SWAP1 SWAP2 SWAP1 PUSH4 0xFFFFFFFF AND JUMP JUMPDEST SWAP3 POP PUSH1 0x1 ADD PUSH2 0x258A JUMP JUMPDEST POP DUP2 PUSH2 0x25D3 JUMPI PUSH1 0x0 SWAP3 POP POP POP PUSH2 0x6CB JUMP JUMPDEST PUSH1 0x0 DUP3 DUP8 DUP4 MUL DUP3 JUMPDEST PUSH1 0xFF DUP2 LT ISZERO PUSH2 0x2705 JUMPI PUSH1 0x0 DUP6 DUP11 PUSH1 0x0 DUP2 MLOAD DUP2 LT PUSH2 0x25F4 JUMPI INVALID JUMPDEST PUSH1 0x20 MUL PUSH1 0x20 ADD ADD MLOAD MUL SWAP1 POP PUSH1 0x0 PUSH1 0x1 SWAP1 POP JUMPDEST DUP7 DUP2 LT ISZERO PUSH2 0x2648 JUMPI PUSH2 0x263E PUSH2 0x2637 PUSH2 0x2631 DUP5 DUP15 DUP6 DUP2 MLOAD DUP2 LT PUSH2 0x2624 JUMPI INVALID JUMPDEST PUSH1 0x20 MUL PUSH1 0x20 ADD ADD MLOAD PUSH2 0x1010 JUMP JUMPDEST DUP10 PUSH2 0x1010 JUMP JUMPDEST DUP7 DUP13 PUSH2 0x2E1D JUMP JUMPDEST SWAP2 POP PUSH1 0x1 ADD PUSH2 0x2606 JUMP JUMPDEST POP DUP4 SWAP5 POP PUSH2 0x26BB PUSH2 0x268A PUSH2 0x2671 PUSH2 0x2668 PUSH2 0x2662 DUP8 DUP13 PUSH2 0x1010 JUMP JUMPDEST DUP6 PUSH2 0x1010 JUMP JUMPDEST PUSH2 0x3E8 DUP14 PUSH2 0x2E1D JUMP JUMPDEST PUSH2 0x2684 PUSH2 0x267E DUP11 DUP10 PUSH2 0x1010 JUMP JUMPDEST DUP9 PUSH2 0x1010 JUMP JUMPDEST SWAP1 PUSH2 0x1720 JUMP JUMPDEST PUSH2 0x26B5 PUSH2 0x26A8 PUSH2 0x269E PUSH2 0x3E8 DUP9 SUB DUP7 PUSH2 0x1010 JUMP JUMPDEST PUSH2 0x3E8 DUP15 ISZERO PUSH2 0x2E1D JUMP JUMPDEST PUSH2 0x2684 DUP11 PUSH1 0x1 ADD DUP10 PUSH2 0x1010 JUMP JUMPDEST DUP12 PUSH2 0x2E1D JUMP JUMPDEST SWAP4 POP DUP5 DUP5 GT ISZERO PUSH2 0x26E3 JUMPI PUSH1 0x1 DUP6 DUP6 SUB GT PUSH2 0x26DE JUMPI DUP4 SWAP8 POP POP POP POP POP POP POP POP PUSH2 0x6CB JUMP JUMPDEST PUSH2 0x26FC JUMP JUMPDEST PUSH1 0x1 DUP5 DUP7 SUB GT PUSH2 0x26FC JUMPI DUP4 SWAP8 POP POP POP POP POP POP POP POP PUSH2 0x6CB JUMP JUMPDEST POP PUSH1 0x1 ADD PUSH2 0x25DB JUMP JUMPDEST POP PUSH2 0x2711 PUSH2 0x141 PUSH2 0x1FB2 JUMP JUMPDEST POP POP POP POP POP SWAP4 SWAP3 POP POP POP JUMP JUMPDEST PUSH2 0x2734 PUSH1 0x1 PUSH1 0x1 PUSH1 0xA0 SHL SUB DUP4 AND ISZERO ISZERO PUSH2 0x19B PUSH2 0x1063 JUMP JUMPDEST PUSH2 0x2740 DUP3 PUSH1 0x0 DUP4 PUSH2 0x10AD JUMP JUMPDEST PUSH1 0x1 PUSH1 0x1 PUSH1 0xA0 SHL SUB DUP3 AND PUSH1 0x0 SWAP1 DUP2 MSTORE PUSH1 0x20 DUP2 SWAP1 MSTORE PUSH1 0x40 SWAP1 KECCAK256 SLOAD PUSH2 0x2766 SWAP1 DUP3 PUSH2 0x1A1 PUSH2 0x2226 JUMP JUMPDEST PUSH1 0x1 PUSH1 0x1 PUSH1 0xA0 SHL SUB DUP4 AND PUSH1 0x0 SWAP1 DUP2 MSTORE PUSH1 0x20 DUP2 SWAP1 MSTORE PUSH1 0x40 SWAP1 KECCAK256 SSTORE PUSH1 0x2 SLOAD PUSH2 0x278C SWAP1 DUP3 PUSH2 0x2E3D JUMP JUMPDEST PUSH1 0x2 SSTORE PUSH1 0x40 MLOAD PUSH1 0x0 SWAP1 PUSH1 0x1 PUSH1 0x1 PUSH1 0xA0 SHL SUB DUP5 AND SWAP1 PUSH32 0xDDF252AD1BE2C89B69C2B068FC378DAA952BA7F163C4A11628F55A4DF523B3EF SWAP1 PUSH2 0x27CD SWAP1 DUP6 SWAP1 PUSH2 0x426B JUMP JUMPDEST PUSH1 0x40 MLOAD DUP1 SWAP2 SUB SWAP1 LOG3 POP POP JUMP JUMPDEST PUSH1 0x0 PUSH1 0x60 PUSH1 0x0 PUSH2 0x27E8 DUP5 PUSH2 0x29F4 JUMP JUMPDEST SWAP1 POP PUSH1 0x1 DUP2 PUSH1 0x2 DUP2 GT ISZERO PUSH2 0x27F8 JUMPI INVALID JUMPDEST EQ ISZERO PUSH2 0x2809 JUMPI PUSH2 0x2479 DUP7 DUP7 DUP7 PUSH2 0x2E4B JUMP JUMPDEST PUSH1 0x2 DUP2 PUSH1 0x2 DUP2 GT ISZERO PUSH2 0x2817 JUMPI INVALID JUMPDEST EQ ISZERO PUSH2 0x2827 JUMPI PUSH2 0x2479 DUP7 DUP6 PUSH2 0x2EB5 JUMP JUMPDEST PUSH2 0x24CB PUSH2 0x136 PUSH2 0x1FB2 JUMP JUMPDEST PUSH2 0x24E2 DUP3 DUP3 PUSH2 0x1720 PUSH2 0x23DF JUMP JUMPDEST PUSH1 0x0 PUSH2 0x284E DUP3 ISZERO ISZERO PUSH1 0x4 PUSH2 0x1063 JUMP JUMPDEST DUP3 PUSH2 0x285B JUMPI POP PUSH1 0x0 PUSH2 0x604 JUMP JUMPDEST PUSH8 0xDE0B6B3A7640000 DUP4 DUP2 MUL SWAP1 PUSH2 0x2875 SWAP1 DUP6 DUP4 DUP2 PUSH2 0x253A JUMPI INVALID JUMPDEST DUP3 PUSH1 0x1 DUP3 SUB DUP2 PUSH2 0x2881 JUMPI INVALID JUMPDEST DIV PUSH1 0x1 ADD SWAP2 POP POP PUSH2 0x604 JUMP JUMPDEST PUSH32 0x0 PUSH1 0x1 PUSH1 0x1 PUSH1 0xA0 SHL SUB SWAP1 DUP2 AND SWAP2 AND EQ SWAP1 JUMP JUMPDEST PUSH32 0x0 PUSH1 0x1 PUSH1 0x1 PUSH1 0xA0 SHL SUB SWAP1 DUP2 AND SWAP2 AND EQ SWAP1 JUMP JUMPDEST PUSH1 0x0 DUP3 DUP3 MUL PUSH2 0x290B DUP5 ISZERO DUP1 PUSH2 0x102D JUMPI POP DUP4 DUP6 DUP4 DUP2 PUSH2 0x102A JUMPI INVALID JUMPDEST DUP1 PUSH2 0x291A JUMPI PUSH1 0x0 SWAP2 POP POP PUSH2 0x604 JUMP JUMPDEST PUSH8 0xDE0B6B3A7640000 PUSH1 0x0 NOT DUP3 ADD PUSH2 0x2881 JUMP JUMPDEST POP PUSH1 0x0 SWAP1 JUMP JUMPDEST PUSH1 0x40 DUP1 MLOAD PUSH1 0x2 DUP1 DUP3 MSTORE PUSH1 0x60 DUP3 DUP2 ADD SWAP1 SWAP4 MSTORE PUSH1 0x0 SWAP2 DUP3 SWAP2 DUP2 PUSH1 0x20 ADD PUSH1 0x20 DUP3 MUL DUP1 CALLDATASIZE DUP4 CALLDATACOPY ADD SWAP1 POP POP SWAP3 POP PUSH2 0x2968 DUP7 PUSH1 0x20 ADD MLOAD PUSH2 0x288D JUMP JUMPDEST ISZERO PUSH2 0x29AE JUMPI PUSH1 0x0 SWAP2 POP PUSH1 0x1 SWAP1 POP DUP5 DUP4 PUSH1 0x0 DUP2 MLOAD DUP2 LT PUSH2 0x2983 JUMPI INVALID JUMPDEST PUSH1 0x20 MUL PUSH1 0x20 ADD ADD DUP2 DUP2 MSTORE POP POP DUP4 DUP4 PUSH1 0x1 DUP2 MLOAD DUP2 LT PUSH2 0x299D JUMPI INVALID JUMPDEST PUSH1 0x20 MUL PUSH1 0x20 ADD ADD DUP2 DUP2 MSTORE POP POP PUSH2 0x29EB JUMP JUMPDEST PUSH1 0x0 SWAP1 POP PUSH1 0x1 SWAP2 POP DUP4 DUP4 PUSH1 0x0 DUP2 MLOAD DUP2 LT PUSH2 0x29C4 JUMPI INVALID JUMPDEST PUSH1 0x20 MUL PUSH1 0x20 ADD ADD DUP2 DUP2 MSTORE POP POP DUP5 DUP4 PUSH1 0x1 DUP2 MLOAD DUP2 LT PUSH2 0x29DE JUMPI INVALID JUMPDEST PUSH1 0x20 MUL PUSH1 0x20 ADD ADD DUP2 DUP2 MSTORE POP POP JUMPDEST SWAP4 POP SWAP4 POP SWAP4 SWAP1 POP JUMP JUMPDEST PUSH1 0x0 DUP2 DUP1 PUSH1 0x20 ADD SWAP1 MLOAD DUP2 ADD SWAP1 PUSH2 0x604 SWAP2 SWAP1 PUSH2 0x3EF7 JUMP JUMPDEST PUSH1 0x60 DUP2 DUP1 PUSH1 0x20 ADD SWAP1 MLOAD DUP2 ADD SWAP1 PUSH2 0x6CB SWAP2 SWAP1 PUSH2 0x3FBC JUMP JUMPDEST PUSH1 0xA SWAP2 SWAP1 SWAP2 SSTORE PUSH1 0xB SSTORE JUMP JUMPDEST PUSH2 0x2A37 PUSH1 0x0 DUP4 DUP4 PUSH2 0x10AD JUMP JUMPDEST PUSH1 0x2 SLOAD PUSH2 0x2A44 SWAP1 DUP3 PUSH2 0x1720 JUMP JUMPDEST PUSH1 0x2 SSTORE PUSH1 0x1 PUSH1 0x1 PUSH1 0xA0 SHL SUB DUP3 AND PUSH1 0x0 SWAP1 DUP2 MSTORE PUSH1 0x20 DUP2 SWAP1 MSTORE PUSH1 0x40 SWAP1 KECCAK256 SLOAD PUSH2 0x2A6A SWAP1 DUP3 PUSH2 0x1720 JUMP JUMPDEST PUSH1 0x1 PUSH1 0x1 PUSH1 0xA0 SHL SUB DUP4 AND PUSH1 0x0 DUP2 DUP2 MSTORE PUSH1 0x20 DUP2 SWAP1 MSTORE PUSH1 0x40 DUP1 DUP3 KECCAK256 SWAP4 SWAP1 SWAP4 SSTORE SWAP2 MLOAD SWAP1 SWAP2 SWAP1 PUSH32 0xDDF252AD1BE2C89B69C2B068FC378DAA952BA7F163C4A11628F55A4DF523B3EF SWAP1 PUSH2 0x27CD SWAP1 DUP6 SWAP1 PUSH2 0x426B JUMP JUMPDEST PUSH1 0x0 PUSH2 0x2AE1 DUP4 DUP8 DUP7 DUP2 MLOAD DUP2 LT PUSH2 0x2ACB JUMPI INVALID JUMPDEST PUSH1 0x20 MUL PUSH1 0x20 ADD ADD MLOAD PUSH2 0x1049 SWAP1 SWAP2 SWAP1 PUSH4 0xFFFFFFFF AND JUMP JUMPDEST DUP7 DUP6 DUP2 MLOAD DUP2 LT PUSH2 0x2AED JUMPI INVALID JUMPDEST PUSH1 0x20 MUL PUSH1 0x20 ADD ADD DUP2 DUP2 MSTORE POP POP PUSH1 0x0 PUSH2 0x2B07 DUP9 DUP9 DUP6 DUP10 PUSH2 0x2F49 JUMP JUMPDEST SWAP1 POP DUP4 DUP8 DUP7 DUP2 MLOAD DUP2 LT PUSH2 0x2B16 JUMPI INVALID JUMPDEST PUSH1 0x20 MUL PUSH1 0x20 ADD ADD MLOAD ADD DUP8 DUP7 DUP2 MLOAD DUP2 LT PUSH2 0x2B2B JUMPI INVALID JUMPDEST PUSH1 0x20 MUL PUSH1 0x20 ADD ADD DUP2 DUP2 MSTORE POP POP PUSH2 0x2B62 PUSH1 0x1 PUSH2 0x2684 DUP10 DUP10 DUP2 MLOAD DUP2 LT PUSH2 0x2B4B JUMPI INVALID JUMPDEST PUSH1 0x20 MUL PUSH1 0x20 ADD ADD MLOAD DUP5 PUSH2 0x1049 SWAP1 SWAP2 SWAP1 PUSH4 0xFFFFFFFF AND JUMP JUMPDEST SWAP9 SWAP8 POP POP POP POP POP POP POP POP JUMP JUMPDEST PUSH1 0x0 PUSH2 0x2B96 DUP4 DUP8 DUP8 DUP2 MLOAD DUP2 LT PUSH2 0x2B80 JUMPI INVALID JUMPDEST PUSH1 0x20 MUL PUSH1 0x20 ADD ADD MLOAD PUSH2 0x1720 SWAP1 SWAP2 SWAP1 PUSH4 0xFFFFFFFF AND JUMP JUMPDEST DUP7 DUP7 DUP2 MLOAD DUP2 LT PUSH2 0x2BA2 JUMPI INVALID JUMPDEST PUSH1 0x20 MUL PUSH1 0x20 ADD ADD DUP2 DUP2 MSTORE POP POP PUSH1 0x0 PUSH2 0x2BBC DUP9 DUP9 DUP6 DUP9 PUSH2 0x2F49 JUMP JUMPDEST SWAP1 POP DUP4 DUP8 DUP8 DUP2 MLOAD DUP2 LT PUSH2 0x2BCB JUMPI INVALID JUMPDEST PUSH1 0x20 MUL PUSH1 0x20 ADD ADD MLOAD SUB DUP8 DUP8 DUP2 MLOAD DUP2 LT PUSH2 0x2BE0 JUMPI INVALID JUMPDEST PUSH1 0x20 MUL PUSH1 0x20 ADD ADD DUP2 DUP2 MSTORE POP POP PUSH2 0x2B62 PUSH1 0x1 PUSH2 0x2C01 DUP4 DUP11 DUP10 DUP2 MLOAD DUP2 LT PUSH2 0x2ACB JUMPI INVALID JUMPDEST SWAP1 PUSH2 0x1049 JUMP JUMPDEST PUSH1 0x0 PUSH2 0x2C19 PUSH4 0x2F1A0BC9 PUSH1 0xE0 SHL PUSH2 0xA46 JUMP JUMPDEST DUP3 EQ DUP1 PUSH2 0x2C34 JUMPI POP PUSH2 0x2C31 PUSH4 0x7587926B PUSH1 0xE1 SHL PUSH2 0xA46 JUMP JUMPDEST DUP3 EQ JUMPDEST DUP1 PUSH2 0x604 JUMPI POP PUSH2 0x604 DUP3 PUSH2 0x30F9 JUMP JUMPDEST PUSH1 0x0 DUP1 PUSH2 0x2C52 DUP8 DUP8 DUP8 DUP8 PUSH2 0x2F49 JUMP JUMPDEST SWAP1 POP DUP1 DUP7 DUP6 DUP2 MLOAD DUP2 LT PUSH2 0x2C61 JUMPI INVALID JUMPDEST PUSH1 0x20 MUL PUSH1 0x20 ADD ADD MLOAD GT PUSH2 0x2C78 JUMPI PUSH1 0x0 SWAP2 POP POP PUSH2 0x1247 JUMP JUMPDEST PUSH1 0x0 DUP2 DUP8 DUP7 DUP2 MLOAD DUP2 LT PUSH2 0x2C87 JUMPI INVALID JUMPDEST PUSH1 0x20 MUL PUSH1 0x20 ADD ADD MLOAD SUB SWAP1 POP PUSH2 0x2B62 DUP5 DUP3 PUSH2 0x2555 SWAP1 SWAP2 SWAP1 PUSH4 0xFFFFFFFF AND JUMP JUMPDEST PUSH1 0x0 PUSH1 0x60 PUSH2 0x2CB1 PUSH2 0x16A0 JUMP JUMPDEST PUSH1 0x0 DUP1 PUSH2 0x2CBD DUP6 PUSH2 0x312B JUMP JUMPDEST SWAP2 POP SWAP2 POP PUSH2 0x2CD5 PUSH2 0x2CCC PUSH2 0x1071 JUMP JUMPDEST DUP3 LT PUSH1 0x64 PUSH2 0x1063 JUMP JUMPDEST PUSH1 0x60 PUSH2 0x2CDF PUSH2 0x1071 JUMP JUMPDEST PUSH1 0x1 PUSH1 0x1 PUSH1 0x40 SHL SUB DUP2 GT DUP1 ISZERO PUSH2 0x2CF4 JUMPI PUSH1 0x0 DUP1 REVERT JUMPDEST POP PUSH1 0x40 MLOAD SWAP1 DUP1 DUP3 MSTORE DUP1 PUSH1 0x20 MUL PUSH1 0x20 ADD DUP3 ADD PUSH1 0x40 MSTORE DUP1 ISZERO PUSH2 0x2D1E JUMPI DUP2 PUSH1 0x20 ADD PUSH1 0x20 DUP3 MUL DUP1 CALLDATASIZE DUP4 CALLDATACOPY ADD SWAP1 POP JUMPDEST POP SWAP1 POP PUSH1 0x0 PUSH2 0x2D2B PUSH2 0x150D JUMP JUMPDEST POP SWAP1 POP PUSH2 0x2D4A DUP2 DUP10 DUP6 DUP8 PUSH2 0x2D3D PUSH2 0x61E JUMP JUMPDEST PUSH2 0x2D45 PUSH2 0x85E JUMP JUMPDEST PUSH2 0x314D JUMP JUMPDEST DUP3 DUP5 DUP2 MLOAD DUP2 LT PUSH2 0x2D56 JUMPI INVALID JUMPDEST PUSH1 0x20 SWAP1 DUP2 MUL SWAP2 SWAP1 SWAP2 ADD ADD MSTORE POP SWAP2 SWAP7 SWAP2 SWAP6 POP SWAP1 SWAP4 POP POP POP POP JUMP JUMPDEST PUSH1 0x0 PUSH1 0x60 PUSH1 0x0 PUSH2 0x2D7E DUP5 PUSH2 0x3269 JUMP JUMPDEST SWAP1 POP PUSH1 0x60 PUSH2 0x2D94 DUP7 DUP4 PUSH2 0x2D8F PUSH2 0x61E JUMP JUMPDEST PUSH2 0x327F JUMP JUMPDEST SWAP2 SWAP7 SWAP2 SWAP6 POP SWAP1 SWAP4 POP POP POP POP JUMP JUMPDEST PUSH1 0x0 PUSH1 0x60 PUSH2 0x2DAD PUSH2 0x16A0 JUMP JUMPDEST PUSH1 0x60 PUSH1 0x0 PUSH2 0x2DBA DUP6 PUSH2 0x3330 JUMP JUMPDEST SWAP2 POP SWAP2 POP PUSH2 0x2DCB DUP3 MLOAD PUSH2 0x880 PUSH2 0x1071 JUMP JUMPDEST PUSH2 0x2DD5 DUP3 DUP8 PUSH2 0x1A72 JUMP JUMPDEST PUSH1 0x0 PUSH2 0x2DDF PUSH2 0x150D JUMP JUMPDEST POP SWAP1 POP PUSH1 0x0 PUSH2 0x2DFF DUP3 DUP11 DUP7 PUSH2 0x2DF2 PUSH2 0x61E JUMP JUMPDEST PUSH2 0x2DFA PUSH2 0x85E JUMP JUMPDEST PUSH2 0x3348 JUMP JUMPDEST SWAP1 POP PUSH2 0x2E0F DUP4 DUP3 GT ISZERO PUSH1 0xCF PUSH2 0x1063 JUMP JUMPDEST SWAP9 SWAP3 SWAP8 POP SWAP2 SWAP6 POP POP POP POP POP POP JUMP JUMPDEST PUSH1 0x0 DUP2 PUSH2 0x2E33 JUMPI PUSH2 0x2E2E DUP5 DUP5 PUSH2 0x35DC JUMP JUMPDEST PUSH2 0x20FA JUMP JUMPDEST PUSH2 0x20FA DUP5 DUP5 PUSH2 0x1581 JUMP JUMPDEST PUSH1 0x0 PUSH2 0x6CB DUP4 DUP4 PUSH1 0x1 PUSH2 0x2226 JUMP JUMPDEST PUSH1 0x0 PUSH1 0x60 DUP1 PUSH1 0x0 PUSH2 0x2E5B DUP6 PUSH2 0x3330 JUMP JUMPDEST SWAP2 POP SWAP2 POP PUSH2 0x2E71 PUSH2 0x2E6A PUSH2 0x1071 JUMP JUMPDEST DUP4 MLOAD PUSH2 0x183E JUMP JUMPDEST PUSH2 0x2E7B DUP3 DUP8 PUSH2 0x1A72 JUMP JUMPDEST PUSH1 0x0 PUSH2 0x2E85 PUSH2 0x150D JUMP JUMPDEST POP SWAP1 POP PUSH1 0x0 PUSH2 0x2EA5 DUP3 DUP11 DUP7 PUSH2 0x2E98 PUSH2 0x61E JUMP JUMPDEST PUSH2 0x2EA0 PUSH2 0x85E JUMP JUMPDEST PUSH2 0x35FC JUMP JUMPDEST SWAP1 POP PUSH2 0x2E0F DUP4 DUP3 LT ISZERO PUSH1 0xD0 PUSH2 0x1063 JUMP JUMPDEST PUSH1 0x0 PUSH1 0x60 PUSH1 0x0 DUP1 PUSH2 0x2EC5 DUP6 PUSH2 0x312B JUMP JUMPDEST SWAP2 POP SWAP2 POP PUSH2 0x2ED4 PUSH2 0x2CCC PUSH2 0x1071 JUMP JUMPDEST PUSH1 0x60 PUSH2 0x2EDE PUSH2 0x1071 JUMP JUMPDEST PUSH1 0x1 PUSH1 0x1 PUSH1 0x40 SHL SUB DUP2 GT DUP1 ISZERO PUSH2 0x2EF3 JUMPI PUSH1 0x0 DUP1 REVERT JUMPDEST POP PUSH1 0x40 MLOAD SWAP1 DUP1 DUP3 MSTORE DUP1 PUSH1 0x20 MUL PUSH1 0x20 ADD DUP3 ADD PUSH1 0x40 MSTORE DUP1 ISZERO PUSH2 0x2F1D JUMPI DUP2 PUSH1 0x20 ADD PUSH1 0x20 DUP3 MUL DUP1 CALLDATASIZE DUP4 CALLDATACOPY ADD SWAP1 POP JUMPDEST POP SWAP1 POP PUSH1 0x0 PUSH2 0x2F2A PUSH2 0x150D JUMP JUMPDEST POP SWAP1 POP PUSH2 0x2D4A DUP2 DUP10 DUP6 DUP8 PUSH2 0x2F3C PUSH2 0x61E JUMP JUMPDEST PUSH2 0x2F44 PUSH2 0x85E JUMP JUMPDEST PUSH2 0x3878 JUMP JUMPDEST PUSH1 0x0 DUP1 DUP5 MLOAD DUP7 MUL SWAP1 POP PUSH1 0x0 DUP6 PUSH1 0x0 DUP2 MLOAD DUP2 LT PUSH2 0x2F61 JUMPI INVALID JUMPDEST PUSH1 0x20 MUL PUSH1 0x20 ADD ADD MLOAD SWAP1 POP PUSH1 0x0 DUP7 MLOAD DUP8 PUSH1 0x0 DUP2 MLOAD DUP2 LT PUSH2 0x2F7C JUMPI INVALID JUMPDEST PUSH1 0x20 MUL PUSH1 0x20 ADD ADD MLOAD MUL SWAP1 POP PUSH1 0x0 PUSH1 0x1 SWAP1 POP JUMPDEST DUP8 MLOAD DUP2 LT ISZERO PUSH2 0x2FD5 JUMPI PUSH2 0x2FBA PUSH2 0x2FB4 PUSH2 0x2FAD DUP5 DUP12 DUP6 DUP2 MLOAD DUP2 LT PUSH2 0x2624 JUMPI INVALID JUMPDEST DUP11 MLOAD PUSH2 0x1010 JUMP JUMPDEST DUP9 PUSH2 0x35DC JUMP JUMPDEST SWAP2 POP PUSH2 0x2FCB DUP9 DUP3 DUP2 MLOAD DUP2 LT PUSH2 0x25A1 JUMPI INVALID JUMPDEST SWAP3 POP PUSH1 0x1 ADD PUSH2 0x2F8E JUMP JUMPDEST POP DUP7 DUP6 DUP2 MLOAD DUP2 LT PUSH2 0x2FE2 JUMPI INVALID JUMPDEST PUSH1 0x20 MUL PUSH1 0x20 ADD ADD MLOAD DUP3 SUB SWAP2 POP PUSH1 0x0 PUSH2 0x2FFA DUP8 DUP9 PUSH2 0x1010 JUMP JUMPDEST SWAP1 POP PUSH1 0x0 PUSH2 0x3026 PUSH2 0x301A PUSH2 0x3012 DUP5 PUSH2 0x76A DUP10 DUP9 PUSH2 0x1010 JUMP JUMPDEST PUSH2 0x3E8 PUSH2 0x1010 JUMP JUMPDEST DUP11 DUP10 DUP2 MLOAD DUP2 LT PUSH2 0x2624 JUMPI INVALID JUMPDEST SWAP1 POP PUSH1 0x0 PUSH2 0x3041 PUSH2 0x303A PUSH2 0x3012 DUP12 DUP10 PUSH2 0x35DC JUMP JUMPDEST DUP7 SWAP1 PUSH2 0x1720 JUMP JUMPDEST SWAP1 POP PUSH1 0x0 DUP1 PUSH2 0x305D PUSH2 0x3053 DUP7 DUP7 PUSH2 0x1720 JUMP JUMPDEST PUSH2 0x76A DUP14 DUP7 PUSH2 0x1720 JUMP JUMPDEST SWAP1 POP PUSH1 0x0 JUMPDEST PUSH1 0xFF DUP2 LT ISZERO PUSH2 0x30DD JUMPI DUP2 SWAP3 POP PUSH2 0x3092 PUSH2 0x307F DUP7 PUSH2 0x2684 DUP6 DUP7 PUSH2 0x1010 JUMP JUMPDEST PUSH2 0x76A DUP15 PUSH2 0x2C01 DUP9 PUSH2 0x2684 DUP9 PUSH1 0x2 PUSH2 0x1010 JUMP JUMPDEST SWAP2 POP DUP3 DUP3 GT ISZERO PUSH2 0x30BB JUMPI PUSH1 0x1 DUP4 DUP4 SUB GT PUSH2 0x30B6 JUMPI POP SWAP8 POP PUSH2 0x20FA SWAP7 POP POP POP POP POP POP POP JUMP JUMPDEST PUSH2 0x30D5 JUMP JUMPDEST PUSH1 0x1 DUP3 DUP5 SUB GT PUSH2 0x30D5 JUMPI POP SWAP8 POP PUSH2 0x20FA SWAP7 POP POP POP POP POP POP POP JUMP JUMPDEST PUSH1 0x1 ADD PUSH2 0x3062 JUMP JUMPDEST POP PUSH2 0x30E9 PUSH2 0x142 PUSH2 0x1FB2 JUMP JUMPDEST POP POP POP POP POP POP POP POP SWAP5 SWAP4 POP POP POP POP JUMP JUMPDEST PUSH1 0x0 PUSH2 0x310B PUSH4 0x1C74C917 PUSH1 0xE1 SHL PUSH2 0xA46 JUMP JUMPDEST DUP3 EQ DUP1 PUSH2 0x604 JUMPI POP PUSH2 0x3123 PUSH4 0x50DD6ED9 PUSH1 0xE0 SHL PUSH2 0xA46 JUMP JUMPDEST SWAP1 SWAP2 EQ SWAP2 SWAP1 POP JUMP JUMPDEST PUSH1 0x0 DUP1 DUP3 DUP1 PUSH1 0x20 ADD SWAP1 MLOAD DUP2 ADD SWAP1 PUSH2 0x3142 SWAP2 SWAP1 PUSH2 0x3F86 JUMP JUMPDEST SWAP1 SWAP6 SWAP1 SWAP5 POP SWAP3 POP POP POP JUMP JUMPDEST PUSH1 0x0 DUP1 PUSH2 0x315C DUP9 DUP9 PUSH1 0x1 PUSH2 0x2581 JUMP JUMPDEST SWAP1 POP PUSH1 0x0 PUSH2 0x317E DUP3 PUSH2 0x3178 DUP8 PUSH2 0x3172 DUP2 DUP12 PUSH2 0x1049 JUMP JUMPDEST SWAP1 PUSH2 0x283F JUMP JUMPDEST SWAP1 PUSH2 0x28F1 JUMP JUMPDEST SWAP1 POP PUSH1 0x0 PUSH2 0x318E DUP11 DUP11 DUP5 DUP12 PUSH2 0x2F49 JUMP JUMPDEST SWAP1 POP PUSH1 0x0 PUSH2 0x31A2 DUP3 DUP12 DUP12 DUP2 MLOAD DUP2 LT PUSH2 0x2ACB JUMPI INVALID JUMPDEST SWAP1 POP PUSH1 0x0 DUP1 JUMPDEST DUP12 MLOAD DUP2 LT ISZERO PUSH2 0x31E1 JUMPI PUSH2 0x31D7 DUP13 DUP3 DUP2 MLOAD DUP2 LT PUSH2 0x31C0 JUMPI INVALID JUMPDEST PUSH1 0x20 MUL PUSH1 0x20 ADD ADD MLOAD DUP4 PUSH2 0x1720 SWAP1 SWAP2 SWAP1 PUSH4 0xFFFFFFFF AND JUMP JUMPDEST SWAP2 POP PUSH1 0x1 ADD PUSH2 0x31A8 JUMP JUMPDEST POP PUSH1 0x0 PUSH2 0x320A DUP3 DUP14 DUP14 DUP2 MLOAD DUP2 LT PUSH2 0x31F4 JUMPI INVALID JUMPDEST PUSH1 0x20 MUL PUSH1 0x20 ADD ADD MLOAD PUSH2 0x2504 SWAP1 SWAP2 SWAP1 PUSH4 0xFFFFFFFF AND JUMP JUMPDEST SWAP1 POP PUSH1 0x0 PUSH2 0x3217 DUP3 PUSH2 0x3955 JUMP JUMPDEST SWAP1 POP PUSH1 0x0 PUSH2 0x3225 DUP6 DUP4 PUSH2 0x28F1 JUMP JUMPDEST SWAP1 POP PUSH1 0x0 PUSH2 0x3233 DUP7 DUP4 PUSH2 0x1049 JUMP JUMPDEST SWAP1 POP PUSH2 0x3254 PUSH2 0x324D DUP4 PUSH8 0xDE0B6B3A7640000 DUP15 SWAP1 SUB PUSH2 0x2555 JUMP JUMPDEST DUP3 SWAP1 PUSH2 0x1720 JUMP JUMPDEST SWAP10 POP POP POP POP POP POP POP POP POP POP SWAP7 SWAP6 POP POP POP POP POP POP JUMP JUMPDEST PUSH1 0x0 DUP2 DUP1 PUSH1 0x20 ADD SWAP1 MLOAD DUP2 ADD SWAP1 PUSH2 0x6CB SWAP2 SWAP1 PUSH2 0x3F59 JUMP JUMPDEST PUSH1 0x60 PUSH1 0x0 PUSH2 0x328D DUP5 DUP5 PUSH2 0x2504 JUMP JUMPDEST SWAP1 POP PUSH1 0x60 DUP6 MLOAD PUSH1 0x1 PUSH1 0x1 PUSH1 0x40 SHL SUB DUP2 GT DUP1 ISZERO PUSH2 0x32A8 JUMPI PUSH1 0x0 DUP1 REVERT JUMPDEST POP PUSH1 0x40 MLOAD SWAP1 DUP1 DUP3 MSTORE DUP1 PUSH1 0x20 MUL PUSH1 0x20 ADD DUP3 ADD PUSH1 0x40 MSTORE DUP1 ISZERO PUSH2 0x32D2 JUMPI DUP2 PUSH1 0x20 ADD PUSH1 0x20 DUP3 MUL DUP1 CALLDATASIZE DUP4 CALLDATACOPY ADD SWAP1 POP JUMPDEST POP SWAP1 POP PUSH1 0x0 JUMPDEST DUP7 MLOAD DUP2 LT ISZERO PUSH2 0x3326 JUMPI PUSH2 0x3307 DUP4 DUP9 DUP4 DUP2 MLOAD DUP2 LT PUSH2 0x32F1 JUMPI INVALID JUMPDEST PUSH1 0x20 MUL PUSH1 0x20 ADD ADD MLOAD PUSH2 0x2555 SWAP1 SWAP2 SWAP1 PUSH4 0xFFFFFFFF AND JUMP JUMPDEST DUP3 DUP3 DUP2 MLOAD DUP2 LT PUSH2 0x3313 JUMPI INVALID JUMPDEST PUSH1 0x20 SWAP1 DUP2 MUL SWAP2 SWAP1 SWAP2 ADD ADD MSTORE PUSH1 0x1 ADD PUSH2 0x32D8 JUMP JUMPDEST POP SWAP6 SWAP5 POP POP POP POP POP JUMP JUMPDEST PUSH1 0x60 PUSH1 0x0 DUP3 DUP1 PUSH1 0x20 ADD SWAP1 MLOAD DUP2 ADD SWAP1 PUSH2 0x3142 SWAP2 SWAP1 PUSH2 0x3F13 JUMP JUMPDEST PUSH1 0x0 DUP1 DUP1 JUMPDEST DUP7 MLOAD DUP2 LT ISZERO PUSH2 0x336F JUMPI PUSH2 0x3365 DUP8 DUP3 DUP2 MLOAD DUP2 LT PUSH2 0x31C0 JUMPI INVALID JUMPDEST SWAP2 POP PUSH1 0x1 ADD PUSH2 0x334D JUMP JUMPDEST POP PUSH1 0x60 DUP6 MLOAD PUSH1 0x1 PUSH1 0x1 PUSH1 0x40 SHL SUB DUP2 GT DUP1 ISZERO PUSH2 0x3389 JUMPI PUSH1 0x0 DUP1 REVERT JUMPDEST POP PUSH1 0x40 MLOAD SWAP1 DUP1 DUP3 MSTORE DUP1 PUSH1 0x20 MUL PUSH1 0x20 ADD DUP3 ADD PUSH1 0x40 MSTORE DUP1 ISZERO PUSH2 0x33B3 JUMPI DUP2 PUSH1 0x20 ADD PUSH1 0x20 DUP3 MUL DUP1 CALLDATASIZE DUP4 CALLDATACOPY ADD SWAP1 POP JUMPDEST POP SWAP1 POP PUSH1 0x0 DUP1 JUMPDEST DUP9 MLOAD DUP2 LT ISZERO PUSH2 0x347A JUMPI PUSH1 0x0 PUSH2 0x33EB DUP6 DUP12 DUP5 DUP2 MLOAD DUP2 LT PUSH2 0x33D5 JUMPI INVALID JUMPDEST PUSH1 0x20 MUL PUSH1 0x20 ADD ADD MLOAD PUSH2 0x283F SWAP1 SWAP2 SWAP1 PUSH4 0xFFFFFFFF AND JUMP JUMPDEST SWAP1 POP PUSH2 0x3427 DUP11 DUP4 DUP2 MLOAD DUP2 LT PUSH2 0x33FC JUMPI INVALID JUMPDEST PUSH1 0x20 MUL PUSH1 0x20 ADD ADD MLOAD PUSH2 0x3172 DUP12 DUP6 DUP2 MLOAD DUP2 LT PUSH2 0x3413 JUMPI INVALID JUMPDEST PUSH1 0x20 MUL PUSH1 0x20 ADD ADD MLOAD DUP14 DUP7 DUP2 MLOAD DUP2 LT PUSH2 0x2ACB JUMPI INVALID JUMPDEST DUP5 DUP4 DUP2 MLOAD DUP2 LT PUSH2 0x3433 JUMPI INVALID JUMPDEST PUSH1 0x20 MUL PUSH1 0x20 ADD ADD DUP2 DUP2 MSTORE POP POP PUSH2 0x346F PUSH2 0x3468 DUP3 DUP7 DUP6 DUP2 MLOAD DUP2 LT PUSH2 0x3452 JUMPI INVALID JUMPDEST PUSH1 0x20 MUL PUSH1 0x20 ADD ADD MLOAD PUSH2 0x28F1 SWAP1 SWAP2 SWAP1 PUSH4 0xFFFFFFFF AND JUMP JUMPDEST DUP5 SWAP1 PUSH2 0x1720 JUMP JUMPDEST SWAP3 POP POP PUSH1 0x1 ADD PUSH2 0x33BA JUMP JUMPDEST POP PUSH1 0x60 DUP9 MLOAD PUSH1 0x1 PUSH1 0x1 PUSH1 0x40 SHL SUB DUP2 GT DUP1 ISZERO PUSH2 0x3494 JUMPI PUSH1 0x0 DUP1 REVERT JUMPDEST POP PUSH1 0x40 MLOAD SWAP1 DUP1 DUP3 MSTORE DUP1 PUSH1 0x20 MUL PUSH1 0x20 ADD DUP3 ADD PUSH1 0x40 MSTORE DUP1 ISZERO PUSH2 0x34BE JUMPI DUP2 PUSH1 0x20 ADD PUSH1 0x20 DUP3 MUL DUP1 CALLDATASIZE DUP4 CALLDATACOPY ADD SWAP1 POP JUMPDEST POP SWAP1 POP PUSH1 0x0 JUMPDEST DUP10 MLOAD DUP2 LT ISZERO PUSH2 0x3589 JUMPI PUSH1 0x0 DUP5 DUP3 DUP2 MLOAD DUP2 LT PUSH2 0x34DB JUMPI INVALID JUMPDEST PUSH1 0x20 MUL PUSH1 0x20 ADD ADD MLOAD DUP5 GT ISZERO PUSH2 0x3542 JUMPI PUSH1 0x0 PUSH2 0x3504 PUSH2 0x34F8 DUP7 PUSH2 0x3955 JUMP JUMPDEST DUP14 DUP6 DUP2 MLOAD DUP2 LT PUSH2 0x32F1 JUMPI INVALID JUMPDEST SWAP1 POP PUSH1 0x0 PUSH2 0x3518 DUP3 DUP14 DUP7 DUP2 MLOAD DUP2 LT PUSH2 0x2ACB JUMPI INVALID JUMPDEST SWAP1 POP PUSH2 0x3539 PUSH2 0x3532 DUP3 PUSH8 0xDE0B6B3A7640000 DUP14 SWAP1 SUB PUSH2 0x283F JUMP JUMPDEST DUP4 SWAP1 PUSH2 0x1720 JUMP JUMPDEST SWAP3 POP POP POP PUSH2 0x3559 JUMP JUMPDEST DUP10 DUP3 DUP2 MLOAD DUP2 LT PUSH2 0x354E JUMPI INVALID JUMPDEST PUSH1 0x20 MUL PUSH1 0x20 ADD ADD MLOAD SWAP1 POP JUMPDEST PUSH2 0x3569 DUP2 DUP13 DUP5 DUP2 MLOAD DUP2 LT PUSH2 0x2ACB JUMPI INVALID JUMPDEST DUP4 DUP4 DUP2 MLOAD DUP2 LT PUSH2 0x3575 JUMPI INVALID JUMPDEST PUSH1 0x20 SWAP1 DUP2 MUL SWAP2 SWAP1 SWAP2 ADD ADD MSTORE POP PUSH1 0x1 ADD PUSH2 0x34C4 JUMP JUMPDEST POP PUSH1 0x0 PUSH2 0x3598 DUP12 DUP12 PUSH1 0x1 PUSH2 0x2581 JUMP JUMPDEST SWAP1 POP PUSH1 0x0 PUSH2 0x35A8 DUP13 DUP5 PUSH1 0x0 PUSH2 0x2581 JUMP JUMPDEST SWAP1 POP PUSH1 0x0 PUSH2 0x35B6 DUP3 DUP5 PUSH2 0x2504 JUMP JUMPDEST SWAP1 POP PUSH2 0x35CB PUSH2 0x35C4 DUP3 PUSH2 0x3955 JUMP JUMPDEST DUP12 SWAP1 PUSH2 0x28F1 JUMP JUMPDEST SWAP14 SWAP13 POP POP POP POP POP POP POP POP POP POP POP POP POP JUMP JUMPDEST PUSH1 0x0 PUSH2 0x35EB DUP3 ISZERO ISZERO PUSH1 0x4 PUSH2 0x1063 JUMP JUMPDEST DUP2 DUP4 DUP2 PUSH2 0x35F4 JUMPI INVALID JUMPDEST DIV SWAP4 SWAP3 POP POP POP JUMP JUMPDEST PUSH1 0x0 DUP1 DUP1 JUMPDEST DUP7 MLOAD DUP2 LT ISZERO PUSH2 0x3623 JUMPI PUSH2 0x3619 DUP8 DUP3 DUP2 MLOAD DUP2 LT PUSH2 0x31C0 JUMPI INVALID JUMPDEST SWAP2 POP PUSH1 0x1 ADD PUSH2 0x3601 JUMP JUMPDEST POP PUSH1 0x60 DUP6 MLOAD PUSH1 0x1 PUSH1 0x1 PUSH1 0x40 SHL SUB DUP2 GT DUP1 ISZERO PUSH2 0x363D JUMPI PUSH1 0x0 DUP1 REVERT JUMPDEST POP PUSH1 0x40 MLOAD SWAP1 DUP1 DUP3 MSTORE DUP1 PUSH1 0x20 MUL PUSH1 0x20 ADD DUP3 ADD PUSH1 0x40 MSTORE DUP1 ISZERO PUSH2 0x3667 JUMPI DUP2 PUSH1 0x20 ADD PUSH1 0x20 DUP3 MUL DUP1 CALLDATASIZE DUP4 CALLDATACOPY ADD SWAP1 POP JUMPDEST POP SWAP1 POP PUSH1 0x0 DUP1 JUMPDEST DUP9 MLOAD DUP2 LT ISZERO PUSH2 0x3701 JUMPI PUSH1 0x0 PUSH2 0x3689 DUP6 DUP12 DUP5 DUP2 MLOAD DUP2 LT PUSH2 0x31F4 JUMPI INVALID JUMPDEST SWAP1 POP PUSH2 0x36CB DUP11 DUP4 DUP2 MLOAD DUP2 LT PUSH2 0x369A JUMPI INVALID JUMPDEST PUSH1 0x20 MUL PUSH1 0x20 ADD ADD MLOAD PUSH2 0x36C5 DUP12 DUP6 DUP2 MLOAD DUP2 LT PUSH2 0x36B1 JUMPI INVALID JUMPDEST PUSH1 0x20 MUL PUSH1 0x20 ADD ADD MLOAD DUP14 DUP7 DUP2 MLOAD DUP2 LT PUSH2 0x2B80 JUMPI INVALID JUMPDEST SWAP1 PUSH2 0x2504 JUMP JUMPDEST DUP5 DUP4 DUP2 MLOAD DUP2 LT PUSH2 0x36D7 JUMPI INVALID JUMPDEST PUSH1 0x20 MUL PUSH1 0x20 ADD ADD DUP2 DUP2 MSTORE POP POP PUSH2 0x36F6 PUSH2 0x3468 DUP3 DUP7 DUP6 DUP2 MLOAD DUP2 LT PUSH2 0x32F1 JUMPI INVALID JUMPDEST SWAP3 POP POP PUSH1 0x1 ADD PUSH2 0x366E JUMP JUMPDEST POP PUSH1 0x60 DUP9 MLOAD PUSH1 0x1 PUSH1 0x1 PUSH1 0x40 SHL SUB DUP2 GT DUP1 ISZERO PUSH2 0x371B JUMPI PUSH1 0x0 DUP1 REVERT JUMPDEST POP PUSH1 0x40 MLOAD SWAP1 DUP1 DUP3 MSTORE DUP1 PUSH1 0x20 MUL PUSH1 0x20 ADD DUP3 ADD PUSH1 0x40 MSTORE DUP1 ISZERO PUSH2 0x3745 JUMPI DUP2 PUSH1 0x20 ADD PUSH1 0x20 DUP3 MUL DUP1 CALLDATASIZE DUP4 CALLDATACOPY ADD SWAP1 POP JUMPDEST POP SWAP1 POP PUSH1 0x0 JUMPDEST DUP10 MLOAD DUP2 LT ISZERO PUSH2 0x3806 JUMPI PUSH1 0x0 DUP4 DUP6 DUP4 DUP2 MLOAD DUP2 LT PUSH2 0x3763 JUMPI INVALID JUMPDEST PUSH1 0x20 MUL PUSH1 0x20 ADD ADD MLOAD GT ISZERO PUSH2 0x37BF JUMPI PUSH1 0x0 PUSH2 0x3788 PUSH2 0x34F8 DUP7 PUSH8 0xDE0B6B3A7640000 PUSH2 0x1049 JUMP JUMPDEST SWAP1 POP PUSH1 0x0 PUSH2 0x379C DUP3 DUP14 DUP7 DUP2 MLOAD DUP2 LT PUSH2 0x2ACB JUMPI INVALID JUMPDEST SWAP1 POP PUSH2 0x37B6 PUSH2 0x3532 DUP3 PUSH8 0xDE0B6B3A7640000 DUP14 SWAP1 SUB PUSH2 0x2555 JUMP JUMPDEST SWAP3 POP POP POP PUSH2 0x37D6 JUMP JUMPDEST DUP10 DUP3 DUP2 MLOAD DUP2 LT PUSH2 0x37CB JUMPI INVALID JUMPDEST PUSH1 0x20 MUL PUSH1 0x20 ADD ADD MLOAD SWAP1 POP JUMPDEST PUSH2 0x37E6 DUP2 DUP13 DUP5 DUP2 MLOAD DUP2 LT PUSH2 0x2B80 JUMPI INVALID JUMPDEST DUP4 DUP4 DUP2 MLOAD DUP2 LT PUSH2 0x37F2 JUMPI INVALID JUMPDEST PUSH1 0x20 SWAP1 DUP2 MUL SWAP2 SWAP1 SWAP2 ADD ADD MSTORE POP PUSH1 0x1 ADD PUSH2 0x374B JUMP JUMPDEST POP PUSH1 0x0 PUSH2 0x3815 DUP12 DUP12 PUSH1 0x1 PUSH2 0x2581 JUMP JUMPDEST SWAP1 POP PUSH1 0x0 PUSH2 0x3825 DUP13 DUP5 PUSH1 0x0 PUSH2 0x2581 JUMP JUMPDEST SWAP1 POP PUSH1 0x0 PUSH2 0x3833 DUP3 DUP5 PUSH2 0x2504 JUMP JUMPDEST SWAP1 POP PUSH8 0xDE0B6B3A7640000 DUP2 GT ISZERO PUSH2 0x3868 JUMPI PUSH2 0x385A DUP11 PUSH8 0xDE0B6B3A763FFFF NOT DUP4 ADD PUSH2 0x2555 JUMP JUMPDEST SWAP8 POP POP POP POP POP POP POP POP PUSH2 0x1247 JUMP JUMPDEST PUSH1 0x0 SWAP8 POP POP POP POP POP POP POP POP PUSH2 0x1247 JUMP JUMPDEST PUSH1 0x0 DUP1 PUSH2 0x3887 DUP9 DUP9 PUSH1 0x1 PUSH2 0x2581 JUMP JUMPDEST SWAP1 POP PUSH1 0x0 PUSH2 0x389D DUP3 PUSH2 0x3178 DUP8 PUSH2 0x3172 DUP2 DUP12 PUSH2 0x1720 JUMP JUMPDEST SWAP1 POP PUSH1 0x0 PUSH2 0x38AD DUP11 DUP11 DUP5 DUP12 PUSH2 0x2F49 JUMP JUMPDEST SWAP1 POP PUSH1 0x0 PUSH2 0x38D7 DUP11 DUP11 DUP2 MLOAD DUP2 LT PUSH2 0x38C0 JUMPI INVALID JUMPDEST PUSH1 0x20 MUL PUSH1 0x20 ADD ADD MLOAD DUP4 PUSH2 0x1049 SWAP1 SWAP2 SWAP1 PUSH4 0xFFFFFFFF AND JUMP JUMPDEST SWAP1 POP PUSH1 0x0 DUP1 JUMPDEST DUP12 MLOAD DUP2 LT ISZERO PUSH2 0x38FF JUMPI PUSH2 0x38F5 DUP13 DUP3 DUP2 MLOAD DUP2 LT PUSH2 0x31C0 JUMPI INVALID JUMPDEST SWAP2 POP PUSH1 0x1 ADD PUSH2 0x38DD JUMP JUMPDEST POP PUSH1 0x0 PUSH2 0x3912 DUP3 DUP14 DUP14 DUP2 MLOAD DUP2 LT PUSH2 0x31F4 JUMPI INVALID JUMPDEST SWAP1 POP PUSH1 0x0 PUSH2 0x391F DUP3 PUSH2 0x3955 JUMP JUMPDEST SWAP1 POP PUSH1 0x0 PUSH2 0x392D DUP6 DUP4 PUSH2 0x28F1 JUMP JUMPDEST SWAP1 POP PUSH1 0x0 PUSH2 0x393B DUP7 DUP4 PUSH2 0x1049 JUMP JUMPDEST SWAP1 POP PUSH2 0x3254 PUSH2 0x324D DUP4 PUSH8 0xDE0B6B3A7640000 DUP15 SWAP1 SUB PUSH2 0x283F JUMP JUMPDEST PUSH1 0x0 PUSH8 0xDE0B6B3A7640000 DUP3 LT PUSH2 0x396D JUMPI PUSH1 0x0 PUSH2 0x604 JUMP JUMPDEST POP PUSH8 0xDE0B6B3A7640000 SUB SWAP1 JUMP JUMPDEST DUP1 CALLDATALOAD PUSH2 0x604 DUP2 PUSH2 0x43FF JUMP JUMPDEST PUSH1 0x0 DUP3 PUSH1 0x1F DUP4 ADD SLT PUSH2 0x3996 JUMPI DUP1 DUP2 REVERT JUMPDEST DUP2 CALLDATALOAD PUSH2 0x39A9 PUSH2 0x39A4 DUP3 PUSH2 0x43E0 JUMP JUMPDEST PUSH2 0x43BA JUMP JUMPDEST DUP2 DUP2 MSTORE SWAP2 POP PUSH1 0x20 DUP1 DUP4 ADD SWAP1 DUP5 DUP2 ADD DUP2 DUP5 MUL DUP7 ADD DUP3 ADD DUP8 LT ISZERO PUSH2 0x39CA JUMPI PUSH1 0x0 DUP1 REVERT JUMPDEST PUSH1 0x0 JUMPDEST DUP5 DUP2 LT ISZERO PUSH2 0x39E9 JUMPI DUP2 CALLDATALOAD DUP5 MSTORE SWAP3 DUP3 ADD SWAP3 SWAP1 DUP3 ADD SWAP1 PUSH1 0x1 ADD PUSH2 0x39CD JUMP JUMPDEST POP POP POP POP POP SWAP3 SWAP2 POP POP JUMP JUMPDEST PUSH1 0x0 DUP3 PUSH1 0x1F DUP4 ADD SLT PUSH2 0x3A04 JUMPI DUP1 DUP2 REVERT JUMPDEST DUP2 MLOAD PUSH2 0x3A12 PUSH2 0x39A4 DUP3 PUSH2 0x43E0 JUMP JUMPDEST DUP2 DUP2 MSTORE SWAP2 POP PUSH1 0x20 DUP1 DUP4 ADD SWAP1 DUP5 DUP2 ADD DUP2 DUP5 MUL DUP7 ADD DUP3 ADD DUP8 LT ISZERO PUSH2 0x3A33 JUMPI PUSH1 0x0 DUP1 REVERT JUMPDEST PUSH1 0x0 JUMPDEST DUP5 DUP2 LT ISZERO PUSH2 0x39E9 JUMPI DUP2 MLOAD DUP5 MSTORE SWAP3 DUP3 ADD SWAP3 SWAP1 DUP3 ADD SWAP1 PUSH1 0x1 ADD PUSH2 0x3A36 JUMP JUMPDEST PUSH1 0x0 DUP3 PUSH1 0x1F DUP4 ADD SLT PUSH2 0x3A62 JUMPI DUP1 DUP2 REVERT JUMPDEST DUP2 CALLDATALOAD PUSH1 0x1 PUSH1 0x1 PUSH1 0x40 SHL SUB DUP2 GT ISZERO PUSH2 0x3A77 JUMPI DUP2 DUP3 REVERT JUMPDEST PUSH2 0x3A8A PUSH1 0x1F DUP3 ADD PUSH1 0x1F NOT AND PUSH1 0x20 ADD PUSH2 0x43BA JUMP JUMPDEST SWAP2 POP DUP1 DUP3 MSTORE DUP4 PUSH1 0x20 DUP3 DUP6 ADD ADD GT ISZERO PUSH2 0x3AA1 JUMPI PUSH1 0x0 DUP1 REVERT JUMPDEST DUP1 PUSH1 0x20 DUP5 ADD PUSH1 0x20 DUP5 ADD CALLDATACOPY PUSH1 0x0 SWAP1 DUP3 ADD PUSH1 0x20 ADD MSTORE SWAP3 SWAP2 POP POP JUMP JUMPDEST DUP1 CALLDATALOAD PUSH1 0x2 DUP2 LT PUSH2 0x604 JUMPI PUSH1 0x0 DUP1 REVERT JUMPDEST PUSH1 0x0 PUSH2 0x120 DUP1 DUP4 DUP6 SUB SLT ISZERO PUSH2 0x3ADC JUMPI DUP2 DUP3 REVERT JUMPDEST PUSH2 0x3AE5 DUP2 PUSH2 0x43BA JUMP JUMPDEST SWAP2 POP POP PUSH2 0x3AF2 DUP4 DUP4 PUSH2 0x3ABA JUMP JUMPDEST DUP2 MSTORE PUSH2 0x3B01 DUP4 PUSH1 0x20 DUP5 ADD PUSH2 0x397B JUMP JUMPDEST PUSH1 0x20 DUP3 ADD MSTORE PUSH2 0x3B13 DUP4 PUSH1 0x40 DUP5 ADD PUSH2 0x397B JUMP JUMPDEST PUSH1 0x40 DUP3 ADD MSTORE PUSH1 0x60 DUP3 ADD CALLDATALOAD PUSH1 0x60 DUP3 ADD MSTORE PUSH1 0x80 DUP3 ADD CALLDATALOAD PUSH1 0x80 DUP3 ADD MSTORE PUSH1 0xA0 DUP3 ADD CALLDATALOAD PUSH1 0xA0 DUP3 ADD MSTORE PUSH2 0x3B43 DUP4 PUSH1 0xC0 DUP5 ADD PUSH2 0x397B JUMP JUMPDEST PUSH1 0xC0 DUP3 ADD MSTORE PUSH2 0x3B55 DUP4 PUSH1 0xE0 DUP5 ADD PUSH2 0x397B JUMP JUMPDEST PUSH1 0xE0 DUP3 ADD MSTORE PUSH2 0x100 DUP1 DUP4 ADD CALLDATALOAD PUSH1 0x1 PUSH1 0x1 PUSH1 0x40 SHL SUB DUP2 GT ISZERO PUSH2 0x3B75 JUMPI PUSH1 0x0 DUP1 REVERT JUMPDEST PUSH2 0x3B81 DUP6 DUP3 DUP7 ADD PUSH2 0x3A52 JUMP JUMPDEST DUP3 DUP5 ADD MSTORE POP POP SWAP3 SWAP2 POP POP JUMP JUMPDEST PUSH1 0x0 PUSH1 0x20 DUP3 DUP5 SUB SLT ISZERO PUSH2 0x3B9E JUMPI DUP1 DUP2 REVERT JUMPDEST DUP2 CALLDATALOAD PUSH2 0x6CB DUP2 PUSH2 0x43FF JUMP JUMPDEST PUSH1 0x0 DUP1 PUSH1 0x40 DUP4 DUP6 SUB SLT ISZERO PUSH2 0x3BBB JUMPI DUP1 DUP2 REVERT JUMPDEST DUP3 CALLDATALOAD PUSH2 0x3BC6 DUP2 PUSH2 0x43FF JUMP JUMPDEST SWAP2 POP PUSH1 0x20 DUP4 ADD CALLDATALOAD PUSH2 0x3BD6 DUP2 PUSH2 0x43FF JUMP JUMPDEST DUP1 SWAP2 POP POP SWAP3 POP SWAP3 SWAP1 POP JUMP JUMPDEST PUSH1 0x0 DUP1 PUSH1 0x0 PUSH1 0x60 DUP5 DUP7 SUB SLT ISZERO PUSH2 0x3BF5 JUMPI DUP1 DUP2 REVERT JUMPDEST DUP4 CALLDATALOAD PUSH2 0x3C00 DUP2 PUSH2 0x43FF JUMP JUMPDEST SWAP3 POP PUSH1 0x20 DUP5 ADD CALLDATALOAD PUSH2 0x3C10 DUP2 PUSH2 0x43FF JUMP JUMPDEST SWAP3 SWAP6 SWAP3 SWAP5 POP POP POP PUSH1 0x40 SWAP2 SWAP1 SWAP2 ADD CALLDATALOAD SWAP1 JUMP JUMPDEST PUSH1 0x0 DUP1 PUSH1 0x0 DUP1 PUSH1 0x0 DUP1 PUSH1 0x0 PUSH1 0xE0 DUP9 DUP11 SUB SLT ISZERO PUSH2 0x3C3B JUMPI DUP3 DUP4 REVERT JUMPDEST DUP8 CALLDATALOAD PUSH2 0x3C46 DUP2 PUSH2 0x43FF JUMP JUMPDEST SWAP7 POP PUSH1 0x20 DUP9 ADD CALLDATALOAD PUSH2 0x3C56 DUP2 PUSH2 0x43FF JUMP JUMPDEST SWAP6 POP PUSH1 0x40 DUP9 ADD CALLDATALOAD SWAP5 POP PUSH1 0x60 DUP9 ADD CALLDATALOAD SWAP4 POP PUSH1 0x80 DUP9 ADD CALLDATALOAD PUSH1 0xFF DUP2 AND DUP2 EQ PUSH2 0x3C79 JUMPI DUP4 DUP5 REVERT JUMPDEST SWAP7 SWAP10 SWAP6 SWAP9 POP SWAP4 SWAP7 SWAP3 SWAP6 SWAP5 PUSH1 0xA0 DUP5 ADD CALLDATALOAD SWAP5 POP PUSH1 0xC0 SWAP1 SWAP4 ADD CALLDATALOAD SWAP3 SWAP2 POP POP JUMP JUMPDEST PUSH1 0x0 DUP1 PUSH1 0x40 DUP4 DUP6 SUB SLT ISZERO PUSH2 0x3CA8 JUMPI DUP2 DUP3 REVERT JUMPDEST DUP3 CALLDATALOAD PUSH2 0x3CB3 DUP2 PUSH2 0x43FF JUMP JUMPDEST SWAP5 PUSH1 0x20 SWAP4 SWAP1 SWAP4 ADD CALLDATALOAD SWAP4 POP POP POP JUMP JUMPDEST PUSH1 0x0 DUP1 PUSH1 0x0 PUSH1 0x60 DUP5 DUP7 SUB SLT ISZERO PUSH2 0x3CD5 JUMPI DUP1 DUP2 REVERT JUMPDEST DUP4 MLOAD PUSH1 0x1 PUSH1 0x1 PUSH1 0x40 SHL SUB DUP1 DUP3 GT ISZERO PUSH2 0x3CEB JUMPI DUP3 DUP4 REVERT JUMPDEST DUP2 DUP7 ADD SWAP2 POP DUP7 PUSH1 0x1F DUP4 ADD SLT PUSH2 0x3CFE JUMPI DUP3 DUP4 REVERT JUMPDEST DUP2 MLOAD PUSH2 0x3D0C PUSH2 0x39A4 DUP3 PUSH2 0x43E0 JUMP JUMPDEST DUP1 DUP3 DUP3 MSTORE PUSH1 0x20 DUP1 DUP4 ADD SWAP3 POP DUP1 DUP7 ADD DUP12 DUP3 DUP4 DUP8 MUL DUP10 ADD ADD GT ISZERO PUSH2 0x3D2C JUMPI DUP8 DUP9 REVERT JUMPDEST DUP8 SWAP7 POP JUMPDEST DUP5 DUP8 LT ISZERO PUSH2 0x3D57 JUMPI DUP1 MLOAD PUSH2 0x3D43 DUP2 PUSH2 0x43FF JUMP JUMPDEST DUP5 MSTORE PUSH1 0x1 SWAP7 SWAP1 SWAP7 ADD SWAP6 SWAP3 DUP2 ADD SWAP3 DUP2 ADD PUSH2 0x3D30 JUMP JUMPDEST POP DUP10 ADD MLOAD SWAP1 SWAP8 POP SWAP4 POP POP POP DUP1 DUP3 GT ISZERO PUSH2 0x3D6E JUMPI DUP3 DUP4 REVERT JUMPDEST POP PUSH2 0x3D7B DUP7 DUP3 DUP8 ADD PUSH2 0x39F4 JUMP JUMPDEST SWAP3 POP POP PUSH1 0x40 DUP5 ADD MLOAD SWAP1 POP SWAP3 POP SWAP3 POP SWAP3 JUMP JUMPDEST PUSH1 0x0 PUSH1 0x20 DUP3 DUP5 SUB SLT ISZERO PUSH2 0x3D9D JUMPI DUP1 DUP2 REVERT JUMPDEST DUP2 CALLDATALOAD PUSH2 0x6CB DUP2 PUSH2 0x4414 JUMP JUMPDEST PUSH1 0x0 PUSH1 0x20 DUP3 DUP5 SUB SLT ISZERO PUSH2 0x3DB9 JUMPI DUP1 DUP2 REVERT JUMPDEST DUP2 MLOAD PUSH2 0x6CB DUP2 PUSH2 0x4414 JUMP JUMPDEST PUSH1 0x0 DUP1 PUSH1 0x0 DUP1 PUSH1 0x0 DUP1 PUSH1 0x0 PUSH1 0xE0 DUP9 DUP11 SUB SLT ISZERO PUSH2 0x3DDE JUMPI DUP1 DUP2 REVERT JUMPDEST DUP8 CALLDATALOAD SWAP7 POP PUSH1 0x20 DUP9 ADD CALLDATALOAD PUSH2 0x3DF0 DUP2 PUSH2 0x43FF JUMP JUMPDEST SWAP6 POP PUSH1 0x40 DUP9 ADD CALLDATALOAD PUSH2 0x3E00 DUP2 PUSH2 0x43FF JUMP JUMPDEST SWAP5 POP PUSH1 0x60 DUP9 ADD CALLDATALOAD PUSH1 0x1 PUSH1 0x1 PUSH1 0x40 SHL SUB DUP1 DUP3 GT ISZERO PUSH2 0x3E1B JUMPI DUP3 DUP4 REVERT JUMPDEST PUSH2 0x3E27 DUP12 DUP4 DUP13 ADD PUSH2 0x3986 JUMP JUMPDEST SWAP6 POP PUSH1 0x80 DUP11 ADD CALLDATALOAD SWAP5 POP PUSH1 0xA0 DUP11 ADD CALLDATALOAD SWAP4 POP PUSH1 0xC0 DUP11 ADD CALLDATALOAD SWAP2 POP DUP1 DUP3 GT ISZERO PUSH2 0x3E4A JUMPI DUP3 DUP4 REVERT JUMPDEST POP PUSH2 0x3E57 DUP11 DUP3 DUP12 ADD PUSH2 0x3A52 JUMP JUMPDEST SWAP2 POP POP SWAP3 SWAP6 SWAP9 SWAP2 SWAP5 SWAP8 POP SWAP3 SWAP6 POP JUMP JUMPDEST PUSH1 0x0 PUSH1 0x20 DUP3 DUP5 SUB SLT ISZERO PUSH2 0x3E77 JUMPI DUP1 DUP2 REVERT JUMPDEST DUP2 CALLDATALOAD PUSH1 0x1 PUSH1 0x1 PUSH1 0xE0 SHL SUB NOT DUP2 AND DUP2 EQ PUSH2 0x6CB JUMPI DUP2 DUP3 REVERT JUMPDEST PUSH1 0x0 PUSH1 0x20 DUP3 DUP5 SUB SLT ISZERO PUSH2 0x3E9F JUMPI DUP1 DUP2 REVERT JUMPDEST DUP2 MLOAD PUSH2 0x6CB DUP2 PUSH2 0x43FF JUMP JUMPDEST PUSH1 0x0 DUP1 PUSH1 0x40 DUP4 DUP6 SUB SLT ISZERO PUSH2 0x3EBC JUMPI DUP2 DUP3 REVERT JUMPDEST DUP3 CALLDATALOAD PUSH2 0x3EC7 DUP2 PUSH2 0x43FF JUMP JUMPDEST SWAP2 POP PUSH1 0x20 DUP4 ADD CALLDATALOAD PUSH1 0x1 PUSH1 0x1 PUSH1 0x40 SHL SUB DUP2 GT ISZERO PUSH2 0x3EE1 JUMPI DUP2 DUP3 REVERT JUMPDEST PUSH2 0x3EED DUP6 DUP3 DUP7 ADD PUSH2 0x3A52 JUMP JUMPDEST SWAP2 POP POP SWAP3 POP SWAP3 SWAP1 POP JUMP JUMPDEST PUSH1 0x0 PUSH1 0x20 DUP3 DUP5 SUB SLT ISZERO PUSH2 0x3F08 JUMPI DUP1 DUP2 REVERT JUMPDEST DUP2 MLOAD PUSH2 0x6CB DUP2 PUSH2 0x4422 JUMP JUMPDEST PUSH1 0x0 DUP1 PUSH1 0x0 PUSH1 0x60 DUP5 DUP7 SUB SLT ISZERO PUSH2 0x3F27 JUMPI DUP1 DUP2 REVERT JUMPDEST DUP4 MLOAD PUSH2 0x3F32 DUP2 PUSH2 0x4422 JUMP JUMPDEST PUSH1 0x20 DUP6 ADD MLOAD SWAP1 SWAP4 POP PUSH1 0x1 PUSH1 0x1 PUSH1 0x40 SHL SUB DUP2 GT ISZERO PUSH2 0x3F4D JUMPI DUP2 DUP3 REVERT JUMPDEST PUSH2 0x3D7B DUP7 DUP3 DUP8 ADD PUSH2 0x39F4 JUMP JUMPDEST PUSH1 0x0 DUP1 PUSH1 0x40 DUP4 DUP6 SUB SLT ISZERO PUSH2 0x3F6B JUMPI DUP2 DUP3 REVERT JUMPDEST DUP3 MLOAD PUSH2 0x3F76 DUP2 PUSH2 0x4422 JUMP JUMPDEST PUSH1 0x20 SWAP4 SWAP1 SWAP4 ADD MLOAD SWAP3 SWAP5 SWAP3 SWAP4 POP POP POP JUMP JUMPDEST PUSH1 0x0 DUP1 PUSH1 0x0 PUSH1 0x60 DUP5 DUP7 SUB SLT ISZERO PUSH2 0x3F9A JUMPI DUP1 DUP2 REVERT JUMPDEST DUP4 MLOAD PUSH2 0x3FA5 DUP2 PUSH2 0x4422 JUMP JUMPDEST PUSH1 0x20 DUP6 ADD MLOAD PUSH1 0x40 SWAP1 SWAP6 ADD MLOAD SWAP1 SWAP7 SWAP5 SWAP6 POP SWAP4 SWAP3 POP POP POP JUMP JUMPDEST PUSH1 0x0 DUP1 PUSH1 0x40 DUP4 DUP6 SUB SLT ISZERO PUSH2 0x3FCE JUMPI DUP2 DUP3 REVERT JUMPDEST DUP3 MLOAD PUSH2 0x3FD9 DUP2 PUSH2 0x4422 JUMP JUMPDEST PUSH1 0x20 DUP5 ADD MLOAD SWAP1 SWAP3 POP PUSH1 0x1 PUSH1 0x1 PUSH1 0x40 SHL SUB DUP2 GT ISZERO PUSH2 0x3FF4 JUMPI DUP2 DUP3 REVERT JUMPDEST PUSH2 0x3EED DUP6 DUP3 DUP7 ADD PUSH2 0x39F4 JUMP JUMPDEST PUSH1 0x0 DUP1 PUSH1 0x0 DUP1 PUSH1 0x80 DUP6 DUP8 SUB SLT ISZERO PUSH2 0x4015 JUMPI DUP2 DUP3 REVERT JUMPDEST DUP5 CALLDATALOAD PUSH1 0x1 PUSH1 0x1 PUSH1 0x40 SHL SUB DUP1 DUP3 GT ISZERO PUSH2 0x402B JUMPI DUP4 DUP5 REVERT JUMPDEST PUSH2 0x4037 DUP9 DUP4 DUP10 ADD PUSH2 0x3AC9 JUMP JUMPDEST SWAP6 POP PUSH1 0x20 DUP8 ADD CALLDATALOAD SWAP2 POP DUP1 DUP3 GT ISZERO PUSH2 0x404C JUMPI DUP4 DUP5 REVERT JUMPDEST POP PUSH2 0x4059 DUP8 DUP3 DUP9 ADD PUSH2 0x3986 JUMP JUMPDEST SWAP5 SWAP8 SWAP5 SWAP7 POP POP POP POP PUSH1 0x40 DUP4 ADD CALLDATALOAD SWAP3 PUSH1 0x60 ADD CALLDATALOAD SWAP2 SWAP1 POP JUMP JUMPDEST PUSH1 0x0 DUP1 PUSH1 0x0 PUSH1 0x60 DUP5 DUP7 SUB SLT ISZERO PUSH2 0x4084 JUMPI DUP1 DUP2 REVERT JUMPDEST DUP4 CALLDATALOAD PUSH1 0x1 PUSH1 0x1 PUSH1 0x40 SHL SUB DUP2 GT ISZERO PUSH2 0x4099 JUMPI DUP2 DUP3 REVERT JUMPDEST PUSH2 0x40A5 DUP7 DUP3 DUP8 ADD PUSH2 0x3AC9 JUMP JUMPDEST SWAP7 PUSH1 0x20 DUP7 ADD CALLDATALOAD SWAP7 POP PUSH1 0x40 SWAP1 SWAP6 ADD CALLDATALOAD SWAP5 SWAP4 POP POP POP POP JUMP JUMPDEST PUSH1 0x0 PUSH1 0x20 DUP3 DUP5 SUB SLT ISZERO PUSH2 0x40CC JUMPI DUP1 DUP2 REVERT JUMPDEST POP CALLDATALOAD SWAP2 SWAP1 POP JUMP JUMPDEST PUSH1 0x0 DUP1 PUSH1 0x40 DUP4 DUP6 SUB SLT ISZERO PUSH2 0x40E5 JUMPI DUP2 DUP3 REVERT JUMPDEST POP POP DUP1 CALLDATALOAD SWAP3 PUSH1 0x20 SWAP1 SWAP2 ADD CALLDATALOAD SWAP2 POP JUMP JUMPDEST PUSH1 0x0 DUP1 PUSH1 0x0 DUP1 PUSH1 0x80 DUP6 DUP8 SUB SLT ISZERO PUSH2 0x4109 JUMPI DUP2 DUP3 REVERT JUMPDEST DUP5 MLOAD SWAP4 POP PUSH1 0x20 DUP6 ADD MLOAD SWAP3 POP PUSH1 0x40 DUP6 ADD MLOAD SWAP2 POP PUSH1 0x60 DUP6 ADD MLOAD PUSH2 0x4129 DUP2 PUSH2 0x43FF JUMP JUMPDEST SWAP4 SWAP7 SWAP3 SWAP6 POP SWAP1 SWAP4 POP POP JUMP JUMPDEST PUSH1 0x0 DUP2 MLOAD DUP1 DUP5 MSTORE PUSH1 0x20 DUP1 DUP6 ADD SWAP5 POP DUP1 DUP5 ADD DUP4 JUMPDEST DUP4 DUP2 LT ISZERO PUSH2 0x4163 JUMPI DUP2 MLOAD DUP8 MSTORE SWAP6 DUP3 ADD SWAP6 SWAP1 DUP3 ADD SWAP1 PUSH1 0x1 ADD PUSH2 0x4147 JUMP JUMPDEST POP SWAP5 SWAP6 SWAP5 POP POP POP POP POP JUMP JUMPDEST PUSH1 0x0 DUP2 MLOAD DUP1 DUP5 MSTORE DUP2 JUMPDEST DUP2 DUP2 LT ISZERO PUSH2 0x4193 JUMPI PUSH1 0x20 DUP2 DUP6 ADD DUP2 ADD MLOAD DUP7 DUP4 ADD DUP3 ADD MSTORE ADD PUSH2 0x4177 JUMP JUMPDEST DUP2 DUP2 GT ISZERO PUSH2 0x41A4 JUMPI DUP3 PUSH1 0x20 DUP4 DUP8 ADD ADD MSTORE JUMPDEST POP PUSH1 0x1F ADD PUSH1 0x1F NOT AND SWAP3 SWAP1 SWAP3 ADD PUSH1 0x20 ADD SWAP3 SWAP2 POP POP JUMP JUMPDEST SWAP2 DUP3 MSTORE PUSH1 0x1 PUSH1 0x1 PUSH1 0xE0 SHL SUB NOT AND PUSH1 0x20 DUP3 ADD MSTORE PUSH1 0x24 ADD SWAP1 JUMP JUMPDEST PUSH1 0x0 DUP3 DUP5 DUP4 CALLDATACOPY SWAP2 ADD SWAP1 DUP2 MSTORE SWAP2 SWAP1 POP JUMP JUMPDEST PUSH2 0x1901 PUSH1 0xF0 SHL DUP2 MSTORE PUSH1 0x2 DUP2 ADD SWAP3 SWAP1 SWAP3 MSTORE PUSH1 0x22 DUP3 ADD MSTORE PUSH1 0x42 ADD SWAP1 JUMP JUMPDEST PUSH1 0x1 PUSH1 0x1 PUSH1 0xA0 SHL SUB SWAP2 SWAP1 SWAP2 AND DUP2 MSTORE PUSH1 0x20 ADD SWAP1 JUMP JUMPDEST PUSH1 0x0 PUSH1 0x20 DUP3 MSTORE PUSH2 0x6CB PUSH1 0x20 DUP4 ADD DUP5 PUSH2 0x4134 JUMP JUMPDEST PUSH1 0x0 PUSH1 0x40 DUP3 MSTORE PUSH2 0x4236 PUSH1 0x40 DUP4 ADD DUP6 PUSH2 0x4134 JUMP JUMPDEST DUP3 DUP2 SUB PUSH1 0x20 DUP5 ADD MSTORE PUSH2 0x1247 DUP2 DUP6 PUSH2 0x4134 JUMP JUMPDEST SWAP1 ISZERO ISZERO DUP2 MSTORE PUSH1 0x20 ADD SWAP1 JUMP JUMPDEST SWAP3 ISZERO ISZERO DUP4 MSTORE PUSH1 0x20 DUP4 ADD SWAP2 SWAP1 SWAP2 MSTORE PUSH1 0x40 DUP3 ADD MSTORE PUSH1 0x60 ADD SWAP1 JUMP JUMPDEST SWAP1 DUP2 MSTORE PUSH1 0x20 ADD SWAP1 JUMP JUMPDEST SWAP3 DUP4 MSTORE PUSH1 0x1 PUSH1 0x1 PUSH1 0xA0 SHL SUB SWAP2 DUP3 AND PUSH1 0x20 DUP5 ADD MSTORE AND PUSH1 0x40 DUP3 ADD MSTORE PUSH1 0x60 ADD SWAP1 JUMP JUMPDEST SWAP6 DUP7 MSTORE PUSH1 0x1 PUSH1 0x1 PUSH1 0xA0 SHL SUB SWAP5 DUP6 AND PUSH1 0x20 DUP8 ADD MSTORE SWAP3 SWAP1 SWAP4 AND PUSH1 0x40 DUP6 ADD MSTORE PUSH1 0x60 DUP5 ADD MSTORE PUSH1 0x80 DUP4 ADD SWAP2 SWAP1 SWAP2 MSTORE PUSH1 0xA0 DUP3 ADD MSTORE PUSH1 0xC0 ADD SWAP1 JUMP JUMPDEST SWAP5 DUP6 MSTORE PUSH1 0x20 DUP6 ADD SWAP4 SWAP1 SWAP4 MSTORE PUSH1 0x40 DUP5 ADD SWAP2 SWAP1 SWAP2 MSTORE PUSH1 0x60 DUP4 ADD MSTORE PUSH1 0x1 PUSH1 0x1 PUSH1 0xA0 SHL SUB AND PUSH1 0x80 DUP3 ADD MSTORE PUSH1 0xA0 ADD SWAP1 JUMP JUMPDEST PUSH1 0x0 DUP4 DUP3 MSTORE PUSH1 0x40 PUSH1 0x20 DUP4 ADD MSTORE PUSH2 0x20FA PUSH1 0x40 DUP4 ADD DUP5 PUSH2 0x416E JUMP JUMPDEST SWAP2 DUP3 MSTORE PUSH1 0x1 PUSH1 0x1 PUSH1 0xA0 SHL SUB AND PUSH1 0x20 DUP3 ADD MSTORE PUSH1 0x40 ADD SWAP1 JUMP JUMPDEST SWAP4 DUP5 MSTORE PUSH1 0xFF SWAP3 SWAP1 SWAP3 AND PUSH1 0x20 DUP5 ADD MSTORE PUSH1 0x40 DUP4 ADD MSTORE PUSH1 0x60 DUP3 ADD MSTORE PUSH1 0x80 ADD SWAP1 JUMP JUMPDEST PUSH1 0x0 PUSH1 0x20 DUP3 MSTORE PUSH2 0x6CB PUSH1 0x20 DUP4 ADD DUP5 PUSH2 0x416E JUMP JUMPDEST PUSH1 0x0 DUP4 DUP3 MSTORE PUSH1 0x40 PUSH1 0x20 DUP4 ADD MSTORE PUSH2 0x20FA PUSH1 0x40 DUP4 ADD DUP5 PUSH2 0x4134 JUMP JUMPDEST SWAP3 DUP4 MSTORE SWAP1 ISZERO ISZERO PUSH1 0x20 DUP4 ADD MSTORE PUSH1 0x40 DUP3 ADD MSTORE PUSH1 0x60 ADD SWAP1 JUMP JUMPDEST SWAP2 DUP3 MSTORE PUSH1 0x20 DUP3 ADD MSTORE PUSH1 0x40 ADD SWAP1 JUMP JUMPDEST SWAP4 DUP5 MSTORE PUSH1 0x20 DUP5 ADD SWAP3 SWAP1 SWAP3 MSTORE PUSH1 0x40 DUP4 ADD MSTORE PUSH1 0x60 DUP3 ADD MSTORE PUSH1 0x80 ADD SWAP1 JUMP JUMPDEST PUSH1 0xFF SWAP2 SWAP1 SWAP2 AND DUP2 MSTORE PUSH1 0x20 ADD SWAP1 JUMP JUMPDEST PUSH1 0x40 MLOAD DUP2 DUP2 ADD PUSH1 0x1 PUSH1 0x1 PUSH1 0x40 SHL SUB DUP2 GT DUP3 DUP3 LT OR ISZERO PUSH2 0x43D8 JUMPI PUSH1 0x0 DUP1 REVERT JUMPDEST PUSH1 0x40 MSTORE SWAP2 SWAP1 POP JUMP JUMPDEST PUSH1 0x0 PUSH1 0x1 PUSH1 0x1 PUSH1 0x40 SHL SUB DUP3 GT ISZERO PUSH2 0x43F5 JUMPI DUP1 DUP2 REVERT JUMPDEST POP PUSH1 0x20 SWAP1 DUP2 MUL ADD SWAP1 JUMP JUMPDEST PUSH1 0x1 PUSH1 0x1 PUSH1 0xA0 SHL SUB DUP2 AND DUP2 EQ PUSH2 0x61B JUMPI PUSH1 0x0 DUP1 REVERT JUMPDEST DUP1 ISZERO ISZERO DUP2 EQ PUSH2 0x61B JUMPI PUSH1 0x0 DUP1 REVERT JUMPDEST PUSH1 0x3 DUP2 LT PUSH2 0x61B JUMPI PUSH1 0x0 DUP1 REVERT INVALID LOG2 PUSH5 0x6970667358 0x22 SLT KECCAK256 0xBA DUP6 0xFC 0xBE SAR CALL 0xB5 PC PUSH7 0xA5F1B93F9D56FD 0x1F DUP10 ADDMOD PUSH17 0x7AA630EE8F87316CDF8AFC2A64736F6C63 NUMBER STOP SMOD ADD STOP CALLER LOG2 PUSH5 0x6970667358 0x22 SLT KECCAK256 ORIGIN 0xC3 0x5E PUSH22 0xC3217BFDB003F3278B9FA6139B65B28A987C8289FA0 0xF8 SWAP4 STATICCALL 0xC5 0xA7 0xE2 PUSH5 0x736F6C6343 STOP SMOD ADD STOP CALLER "
		},
		"gasEstimates": {
			"creation": {
				"codeDepositCost": "4514400",
				"executionCost": "infinite",
				"totalCost": "infinite"
			},
			"external": {
				"create(string,string,address[],uint256,uint256,address)": "infinite",
				"getPauseConfiguration()": "infinite",
				"getVault()": "infinite",
				"isPoolFromFactory(address)": "1279"
			}
		},
		"methodIdentifiers": {
			"create(string,string,address[],uint256,uint256,address)": "7932c7f3",
			"getPauseConfiguration()": "2da47c40",
			"getVault()": "8d928af8",
			"isPoolFromFactory(address)": "6634b753"
		}
	},
	"abi": [
		{
			"inputs": [
				{
					"internalType": "contract IVault",
					"name": "vault",
					"type": "address"
				}
			],
			"stateMutability": "nonpayable",
			"type": "constructor"
		},
		{
			"anonymous": false,
			"inputs": [
				{
					"indexed": true,
					"internalType": "address",
					"name": "pool",
					"type": "address"
				}
			],
			"name": "PoolCreated",
			"type": "event"
		},
		{
			"inputs": [
				{
					"internalType": "string",
					"name": "name",
					"type": "string"
				},
				{
					"internalType": "string",
					"name": "symbol",
					"type": "string"
				},
				{
					"internalType": "contract IERC20[]",
					"name": "tokens",
					"type": "address[]"
				},
				{
					"internalType": "uint256",
					"name": "amplificationParameter",
					"type": "uint256"
				},
				{
					"internalType": "uint256",
					"name": "swapFeePercentage",
					"type": "uint256"
				},
				{
					"internalType": "address",
					"name": "owner",
					"type": "address"
				}
			],
			"name": "create",
			"outputs": [
				{
					"internalType": "address",
					"name": "",
					"type": "address"
				}
			],
			"stateMutability": "nonpayable",
			"type": "function"
		},
		{
			"inputs": [],
			"name": "getPauseConfiguration",
			"outputs": [
				{
					"internalType": "uint256",
					"name": "pauseWindowDuration",
					"type": "uint256"
				},
				{
					"internalType": "uint256",
					"name": "bufferPeriodDuration",
					"type": "uint256"
				}
			],
			"stateMutability": "view",
			"type": "function"
		},
		{
			"inputs": [],
			"name": "getVault",
			"outputs": [
				{
					"internalType": "contract IVault",
					"name": "",
					"type": "address"
				}
			],
			"stateMutability": "view",
			"type": "function"
		},
		{
			"inputs": [
				{
					"internalType": "address",
					"name": "pool",
					"type": "address"
				}
			],
			"name": "isPoolFromFactory",
			"outputs": [
				{
					"internalType": "bool",
					"name": "",
					"type": "bool"
				}
			],
			"stateMutability": "view",
			"type": "function"
		}
	]
}