{
	"data": {
		"bytecode": {
			"linkReferences": {},
			"object": "6101806040523480156200001257600080fd5b5060405162006d0738038062006d07833981016040819052620000359162000253565b8382826040518060400160405280601181526020017010985b185b98d95c88158c8815985d5b1d607a1b81525080604051806040016040528060018152602001603160f81b815250306001600160a01b031660001b89806001600160a01b03166080816001600160a01b031660601b815250505030604051620000b89062000245565b620000c491906200029f565b604051809103906000f080158015620000e1573d6000803e3d6000fd5b5060601b6001600160601b03191660a052600160005560c052815160209283012060e052805191012061010052507f8b73c3c69bb8fe3d512ecc4cf759cc79239f7b179b0ffacaa9a75d522b39400f61012052620001486276a70083111561019462000181565b6200015c62278d0082111561019562000181565b429091016101408190520161016052620001768162000196565b5050505050620002cc565b8162000192576200019281620001f2565b5050565b6040516001600160a01b038216907f94b979b6831a51293e2641426f97747feed46f17779fed9cd18d1ecefcfe92ef90600090a2600380546001600160a01b0390921661010002610100600160a81b0319909216919091179055565b62461bcd60e51b6000908152602060045260076024526642414c23000030600a808404818106603090810160081b95839006959095019082900491820690940160101b939093010160c81b604452606490fd5b610b4780620061c083390190565b6000806000806080858703121562000269578384fd5b84516200027681620002b3565b60208601519094506200028981620002b3565b6040860151606090960151949790965092505050565b6001600160a01b0391909116815260200190565b6001600160a01b0381168114620002c957600080fd5b50565b60805160601c60a05160601c60c05160e05161010051610120516101405161016051615e906200033060003980611a67525080611a435250806127f55250806128375250806128165250806110c15250806113755250806105085250615e906000f3fe6080604052600436106101855760003560e01c8063945bcec9116100d1578063e6c460921161008a578063f84d066e11610064578063f84d066e1461046a578063f94d46681461048a578063fa6e671d146104b9578063fec90d72146104d9576101b3565b8063e6c4609214610407578063ed24911d14610427578063f6c009271461043c576101b3565b8063945bcec914610365578063aaabadc514610378578063ad5c46481461039a578063b05f8e48146103af578063b95cac28146103df578063d2946c2b146103f2576101b3565b806352bbbe291161013e5780637d3aeb96116101185780637d3aeb96146102e5578063851c1bb3146103055780638bdb39131461032557806390193b7c14610345576101b3565b806352bbbe29146102925780635c38449e146102a557806366a9c7d2146102c5576101b3565b8063058a628f146101b857806309b2760f146101d85780630e8e3e841461020e5780630f5a6efa1461022157806316c38b3c1461024e5780631c0de0511461026e576101b3565b366101b3576101b1610195610506565b6001600160a01b0316336001600160a01b03161461020661052b565b005b600080fd5b3480156101c457600080fd5b506101b16101d336600461504f565b61053d565b3480156101e457600080fd5b506101f86101f33660046155d6565b610561565b6040516102059190615c10565b60405180910390f35b6101b161021c366004615214565b610614565b34801561022d57600080fd5b5061024161023c3660046150ed565b610750565b6040516102059190615bda565b34801561025a57600080fd5b506101b1610269366004615350565b6107e5565b34801561027a57600080fd5b506102836107fe565b60405161020593929190615bf8565b6101f86102a036600461577d565b610827565b3480156102b157600080fd5b506101b16102c036600461554c565b6109c8565b3480156102d157600080fd5b506101b16102e0366004615437565b610dca565b3480156102f157600080fd5b506101b1610300366004615409565b610f69565b34801561031157600080fd5b506101f8610320366004615524565b6110bd565b34801561033157600080fd5b506101b16103403660046153a0565b61110f565b34801561035157600080fd5b506101f861036036600461504f565b611125565b610241610373366004615675565b611140565b34801561038457600080fd5b5061038d611274565b6040516102059190615a35565b3480156103a657600080fd5b5061038d611288565b3480156103bb57600080fd5b506103cf6103ca366004615500565b611297565b6040516102059493929190615d8b565b6101b16103ed3660046153a0565b61135a565b3480156103fe57600080fd5b5061038d611373565b34801561041357600080fd5b506101b161042236600461513a565b611397565b34801561043357600080fd5b506101f86114b3565b34801561044857600080fd5b5061045c610457366004615388565b6114bd565b604051610205929190615a6d565b34801561047657600080fd5b506102416104853660046155f2565b6114e7565b34801561049657600080fd5b506104aa6104a5366004615388565b6115cb565b60405161020593929190615ba4565b3480156104c557600080fd5b506101b16104d43660046150a3565b6115ff565b3480156104e557600080fd5b506104f96104f436600461506b565b611691565b6040516102059190615bed565b7f00000000000000000000000000000000000000000000000000000000000000005b90565b8161053957610539816116a6565b5050565b6105456116f9565b61054d611712565b61055681611740565b61055e61179c565b50565b600061056b6116f9565b6105736117a3565b600061058233846006546117b8565b6000818152600560205260409020549091506105a49060ff16156101f461052b565b60008181526005602052604090819020805460ff1916600190811790915560068054909101905551339082907f3c13bc30b8e878c53fd2a36b679409c073afd75950be43d8858768e956fbc20e906105fd908790615d0c565b60405180910390a3905061060f61179c565b919050565b61061c6116f9565b6000806000805b845181101561073b5760008060008060006106518a878151811061064357fe5b6020026020010151896117f7565b9c50939850919650945092509050600185600381111561066d57fe5b14156106845761067f8483838661186f565b61072a565b86610696576106916117a3565b600196505b60008560038111156106a457fe5b14156106d5576106b684838386611892565b6106bf846118b2565b1561067f576106ce89846118bf565b985061072a565b6106ea6106e1856118b2565b1561020761052b565b60006106f585610528565b9050600286600381111561070557fe5b141561071c57610717818484876118d1565b610728565b610728818484876118ea565b505b505060019093019250610623915050565b5061074583611958565b50505061055e61179c565b606081516001600160401b038111801561076957600080fd5b50604051908082528060200260200182016040528015610793578160200160208202803683370190505b50905060005b82518110156107de576107bf848483815181106107b257fe5b602002602001015161197b565b8282815181106107cb57fe5b6020908102919091010152600101610799565b5092915050565b6107ed6116f9565b6107f5611712565b610556816119a6565b600080600061080b611a24565b159250610816611a41565b9150610820611a65565b9050909192565b60006108316116f9565b6108396117a3565b835161084481611a89565b610853834211156101fc61052b565b61086660008760800151116101fe61052b565b60006108758760400151611abb565b905060006108868860600151611abb565b90506108a9816001600160a01b0316836001600160a01b031614156101fd61052b565b6108b1614bdc565b885160808201526020890151819060018111156108ca57fe5b908160018111156108d757fe5b9052506001600160a01b03808416602083015282811660408084019190915260808b0151606084015260a08b01516101008401528951821660c08401528901511660e082015260008061092983611ae0565b9198509250905061096060008c60200151600181111561094557fe5b146109535789831115610958565b898210155b6101fb61052b565b6109788b60400151838c600001518d60200151611bd4565b6109908b60600151828c604001518d60600151611cb2565b6109b26109a08c604001516118b2565b6109ab5760006109ad565b825b611958565b5050505050506109c061179c565b949350505050565b6109d06116f9565b6109d86117a3565b6109e483518351611d8c565b606083516001600160401b03811180156109fd57600080fd5b50604051908082528060200260200182016040528015610a27578160200160208202803683370190505b509050606084516001600160401b0381118015610a4357600080fd5b50604051908082528060200260200182016040528015610a6d578160200160208202803683370190505b5090506000805b8651811015610be6576000878281518110610a8b57fe5b602002602001015190506000878381518110610aa357fe5b60200260200101519050610aee846001600160a01b0316836001600160a01b03161160006001600160a01b0316846001600160a01b031614610ae6576066610ae9565b60685b61052b565b819350816001600160a01b03166370a08231306040518263ffffffff1660e01b8152600401610b1d9190615a35565b60206040518083038186803b158015610b3557600080fd5b505afa158015610b49573d6000803e3d6000fd5b505050506040513d601f19601f82011682018060405250810190610b6d9190615855565b858481518110610b7957fe5b602002602001018181525050610b8e81611d99565b868481518110610b9a57fe5b602002602001018181525050610bc881868581518110610bb657fe5b6020026020010151101561021061052b565b610bdc6001600160a01b0383168b83611e20565b5050600101610a74565b5060405163f04f270760e01b81526001600160a01b0388169063f04f270790610c19908990899088908a90600401615b57565b600060405180830381600087803b158015610c3357600080fd5b505af1158015610c47573d6000803e3d6000fd5b5050505060005b8651811015610db8576000878281518110610c6557fe5b602002602001015190506000848381518110610c7d57fe5b602002602001015190506000826001600160a01b03166370a08231306040518263ffffffff1660e01b8152600401610cb59190615a35565b60206040518083038186803b158015610ccd57600080fd5b505afa158015610ce1573d6000803e3d6000fd5b505050506040513d601f19601f82011682018060405250810190610d059190615855565b9050610d168282101561020361052b565b60008282039050610d3f888681518110610d2c57fe5b602002602001015182101561025a61052b565b610d498482611e76565b836001600160a01b03168c6001600160a01b03167f0d7d75e01ab95780d3cd1c8ec0dd6c2ce19e3a20427eec8bf53283b6fb8e95f08c8881518110610d8a57fe5b602002602001015184604051610da1929190615d1f565b60405180910390a350505050806001019050610c4e565b50505050610dc461179c565b50505050565b610dd26116f9565b610dda6117a3565b82610de481611e98565b610df083518351611d8c565b60005b8351811015610e8e576000848281518110610e0a57fe5b60200260200101519050610e3660006001600160a01b0316826001600160a01b0316141561013561052b565b838281518110610e4257fe5b6020908102919091018101516000888152600a835260408082206001600160a01b0395861683529093529190912080546001600160a01b03191692909116919091179055600101610df3565b506000610e9a85611ec9565b90506002816002811115610eaa57fe5b1415610ef857610ec0845160021461020c61052b565b610ef38585600081518110610ed157fe5b602002602001015186600181518110610ee657fe5b6020026020010151611ee3565b610f20565b6001816002811115610f0657fe5b1415610f1657610ef38585611f8f565b610f208585611fe7565b847ff5847d3f2197b16cdcd2098ec95d0905cd1abdaf415f07bb7cef2bba8ac5dec48585604051610f52929190615abf565b60405180910390a25050610f6461179c565b505050565b610f716116f9565b610f796117a3565b81610f8381611e98565b6000610f8e84611ec9565b90506002816002811115610f9e57fe5b1415610fec57610fb4835160021461020c61052b565b610fe78484600081518110610fc557fe5b602002602001015185600181518110610fda57fe5b602002602001015161203c565b611014565b6001816002811115610ffa57fe5b141561100a57610fe784846120aa565b6110148484612164565b60005b835181101561107a57600a6000868152602001908152602001600020600085838151811061104157fe5b6020908102919091018101516001600160a01b0316825281019190915260400160002080546001600160a01b0319169055600101611017565b50837f7dcdc6d02ef40c7c1a7046a011b058bd7f988fa14e20a66344f9d4e60657d610846040516110ab9190615aac565b60405180910390a2505061053961179c565b60007f0000000000000000000000000000000000000000000000000000000000000000826040516020016110f29291906159af565b604051602081830303815290604052805190602001209050919050565b610dc46001858585611120866121c7565b6121d3565b6001600160a01b031660009081526002602052604090205490565b606061114a6116f9565b6111526117a3565b835161115d81611a89565b61116c834211156101fc61052b565b61117886518551611d8c565b6111848787878b612359565b91506000805b87518110156112565760008882815181106111a157fe5b6020026020010151905060008583815181106111b957fe5b602002602001015190506111e58884815181106111d257fe5b60200260200101518213156101fb61052b565b600081131561122557885160208a015182916112049185918491611bd4565b61120d836118b2565b1561121f5761121c85826118bf565b94505b5061124c565b600081121561124c57600081600003905061124a83828c604001518d60600151611cb2565b505b505060010161118a565b5061126081611958565b505061126a61179c565b9695505050505050565b60035461010090046001600160a01b031690565b6000611292610506565b905090565b600080600080856112a7816125e7565b6000806112b389611ec9565b905060028160028111156112c357fe5b14156112da576112d38989612605565b9150611305565b60018160028111156112e857fe5b14156112f8576112d3898961267f565b61130289896126ed565b91505b61130e82612705565b965061131982612711565b955061132482612720565b6000998a52600a60209081526040808c206001600160a01b039b8c168d5290915290992054969995989796909616955050505050565b6113626117a3565b610dc46000858585611120866121c7565b7f000000000000000000000000000000000000000000000000000000000000000090565b61139f6116f9565b6113a76117a3565b6113af614c2c565b60005b82518110156114a9578281815181106113c757fe5b602002602001015191506000826020015190506113e3816125e7565b60408301516113fd6113f58383612726565b61020961052b565b6000828152600a602090815260408083206001600160a01b038581168552925290912054611430911633146101f661052b565b8351606085015160008061144684878786612782565b91509150846001600160a01b0316336001600160a01b0316877f6edcaf6241105b4c94c2efdbf3a6b12458eb3d07be3a0e81d24b13c44045fe7a8585604051611490929190615d1f565b60405180910390a45050505050508060010190506113b2565b505061055e61179c565b60006112926127f1565b600080826114ca816125e7565b6114d38461288e565b6114dc85611ec9565b925092505b50915091565b60603330146115a1576000306001600160a01b031660003660405161150d9291906159c7565b6000604051808303816000865af19150503d806000811461154a576040519150601f19603f3d011682016040523d82523d6000602084013e61154f565b606091505b50509050806000811461155e57fe5b60046000803e6000516001600160e01b031916637d30e60960e11b8114611589573d6000803e3d6000fd5b50602060005260043d0380600460203e602081016000f35b60606115af85858589612359565b9050602081510263fa61cc126020830352600482036024820181fd5b6060806000836115da816125e7565b60606115e586612894565b90955090506115f3816128f6565b95979096509350505050565b6116076116f9565b61160f6117a3565b8261161981611a89565b6001600160a01b0384811660008181526004602090815260408083209488168084529490915290819020805460ff1916861515179055519091907f46961fdb4502b646d5095fba7600486a8ac05041d55cdf0f16ed677180b5cad890611680908690615bed565b60405180910390a350610f6461179c565b600061169d83836129a4565b90505b92915050565b62461bcd60e51b6000908152602060045260076024526642414c23000030600a808404818106603090810160081b95839006959095019082900491820690940160101b939093010160c81b604452606490fd5b61170b6002600054141561019061052b565b6002600055565b60006117296000356001600160e01b0319166110bd565b905061055e61173882336129d2565b61019161052b565b6040516001600160a01b038216907f94b979b6831a51293e2641426f97747feed46f17779fed9cd18d1ecefcfe92ef90600090a2600380546001600160a01b0390921661010002610100600160a81b0319909216919091179055565b6001600055565b6117b66117ae611a24565b61019261052b565b565b600069ffffffffffffffffffff821660508460028111156117d557fe5b901b17606085901b6bffffffffffffffffffffffff19161790505b9392505050565b600080600080600080600088606001519050336001600160a01b0316816001600160a01b03161461184957876118345761182f611712565b600197505b61184961184182336129a4565b6101f761052b565b885160208a015160408b01516080909b0151919b909a9992985090965090945092505050565b6118848361187c86611abb565b836000612a5c565b50610dc48482846000611cb2565b6118a58261189f86611abb565b83612ab2565b610dc48482856000611bd4565b6001600160a01b03161590565b600082820161169d848210158361052b565b6118de8385836000612a5c565b50610dc4828583612ab2565b8015610dc4576119056001600160a01b038516848484612ae2565b826001600160a01b0316846001600160a01b03167f540a1a3f28340caec336c81d8d7b3df139ee5cdc1839a4f283d7ebb7eaae2d5c848460405161194a929190615a93565b60405180910390a350505050565b6119678134101561020461052b565b348190038015610539576105393382612b03565b6001600160a01b039182166000908152600b6020908152604080832093909416825291909152205490565b80156119c6576119c16119b7611a41565b421061019361052b565b6119db565b6119db6119d1611a65565b42106101a961052b565b6003805460ff19168215151790556040517f9e3a5e37224532dea67b89face185703738a228a6e8a23dee546960180d3be6490611a19908390615bed565b60405180910390a150565b6000611a2e611a65565b42118061129257505060035460ff161590565b7f000000000000000000000000000000000000000000000000000000000000000090565b7f000000000000000000000000000000000000000000000000000000000000000090565b336001600160a01b0382161461055e57611aa1611712565b611aab81336129a4565b61055e5761055e816101f7612b7d565b6000611ac6826118b2565b611ad857611ad382610528565b6116a0565b6116a0610506565b600080600080611af3856080015161288e565b90506000611b048660800151611ec9565b90506002816002811115611b1457fe5b1415611b2b57611b248683612bb1565b9450611b56565b6001816002811115611b3957fe5b1415611b4957611b248683612c61565b611b538683612cf4565b94505b611b698660000151876060015187612f18565b809450819550505085604001516001600160a01b031686602001516001600160a01b031687608001517f2170c741c41531aec20e7c107c24eecfdd15e69c9bb0a8dd37b1840b9e0b207b8787604051611bc3929190615d1f565b60405180910390a450509193909250565b82611bde57610dc4565b611be7846118b2565b15611c6857611bf9811561020261052b565b611c088347101561020461052b565b611c10610506565b6001600160a01b031663d0e30db0846040518263ffffffff1660e01b81526004016000604051808303818588803b158015611c4a57600080fd5b505af1158015611c5e573d6000803e3d6000fd5b5050505050610dc4565b6000611c7385610528565b90508115611c90576000611c8a8483876001612a5c565b90940393505b8315611cab57611cab6001600160a01b038216843087612ae2565b5050505050565b82611cbc57610dc4565b611cc5846118b2565b15611d5557611cd7811561020261052b565b611cdf610506565b6001600160a01b0316632e1a7d4d846040518263ffffffff1660e01b8152600401611d0a9190615c10565b600060405180830381600087803b158015611d2457600080fd5b505af1158015611d38573d6000803e3d6000fd5b50611d50925050506001600160a01b03831684612b03565b610dc4565b6000611d6085610528565b90508115611d7857611d73838286612ab2565b611cab565b611cab6001600160a01b0382168486611e20565b610539818314606761052b565b600080611da4611373565b6001600160a01b031663d877845c6040518163ffffffff1660e01b815260040160206040518083038186803b158015611ddc57600080fd5b505afa158015611df0573d6000803e3d6000fd5b505050506040513d601f19601f82011682018060405250810190611e149190615855565b90506117f08382612f46565b610f648363a9059cbb60e01b8484604051602401611e3f929190615a93565b60408051601f198184030181529190526020810180516001600160e01b03166001600160e01b031990931692909217909152612f93565b801561053957610539611e87611373565b6001600160a01b0384169083611e20565b611ea1816125e7565b61055e611ead8261288e565b6001600160a01b0316336001600160a01b0316146101f561052b565b600061ffff605083901c166116a0600382106101f461052b565b611f04816001600160a01b0316836001600160a01b0316141561020a61052b565b611f23816001600160a01b0316836001600160a01b031610606661052b565b60008381526009602052604090208054611f60906001600160a01b0316158015611f58575060018201546001600160a01b0316155b61020b61052b565b80546001600160a01b039384166001600160a01b03199182161782556001909101805492909316911617905550565b6000828152600860205260408120905b8251811015610dc4576000611fd0848381518110611fb957fe5b60200260200101518461303390919063ffffffff16565b9050611fde8161020a61052b565b50600101611f9f565b6000828152600160205260408120905b8251811015610dc457600061202584838151811061201157fe5b602090810291909101015184906000613096565b90506120338161020a61052b565b50600101611ff7565b600080600061204c868686613143565b92509250925061207661205e8461320a565b801561206e575061206e8361320a565b61020d61052b565b600095865260096020526040862080546001600160a01b031990811682556001909101805490911690559490945550505050565b6000828152600860205260408120905b8251811015610dc45760008382815181106120d157fe5b6020026020010151905061211d61206e600760008881526020019081526020016000206000846001600160a01b03166001600160a01b031681526020019081526020016000205461320a565b60008581526007602090815260408083206001600160a01b0385168452909152812081905561214c8483613217565b905061215a8161020961052b565b50506001016120ba565b6000828152600160205260408120905b8251811015610dc457600083828151811061218b57fe5b6020026020010151905060006121a18483613325565b90506121af61206e8261320a565b6121b98483613334565b505050806001019050612174565b6121cf614c55565b5090565b6121db6116f9565b836121e5816125e7565b836121ef81611a89565b612203836000015151846020015151611d8c565b60606122128460000151613406565b905060606122208883613494565b905060608060606122358c8c8c8c8c89613525565b92509250925060006122468c611ec9565b9050600281600281111561225657fe5b14156122be576122b98c8760008151811061226d57fe5b60200260200101518660008151811061228257fe5b60200260200101518960018151811061229757fe5b6020026020010151886001815181106122ac57fe5b60200260200101516136ea565b6122e7565b60018160028111156122cc57fe5b14156122dd576122b98c8786613729565b6122e78c85613796565b6000808e60018111156122f657fe5b1490508b6001600160a01b03168d7fe5ce249087ce04f05a957192435400fd97868dba0e6a4b4c049abf8af80dae788961233088866137df565b8760405161234093929190615b1e565b60405180910390a3505050505050505050611cab61179c565b606083516001600160401b038111801561237257600080fd5b5060405190808252806020026020018201604052801561239c578160200160208202803683370190505b5090506123a7614c7f565b6123af614bdc565b60008060005b89518110156125da578981815181106123ca57fe5b602002602001015194506000895186602001511080156123ee575089518660400151105b90506123fb81606461052b565b600061241d8b88602001518151811061241057fe5b6020026020010151611abb565b905060006124348c89604001518151811061241057fe5b9050612457816001600160a01b0316836001600160a01b031614156101fd61052b565b60608801516124a75761246f600085116101fe61052b565b600061247c8b8484613886565b6001600160a01b0316876001600160a01b031614905061249e816101ff61052b565b50606088018590525b87516080880152868a60018111156124bb57fe5b908160018111156124c857fe5b9052506001600160a01b0380831660208901528181166040808a01919091526060808b0151908a015260808a01516101008a01528c51821660c08a01528c01511660e088015260008061251a89611ae0565b9198509250905061252c8c85856138a8565b975061256061253a836138c2565b8c8c602001518151811061254a57fe5b60200260200101516138d690919063ffffffff16565b8b8b602001518151811061257057fe5b6020026020010181815250506125ae612588826138c2565b8c8c604001518151811061259857fe5b602002602001015161390a90919063ffffffff16565b8b8b60400151815181106125be57fe5b60200260200101818152505050505050508060010190506123b5565b5050505050949350505050565b60008181526005602052604090205461055e9060ff166101f461052b565b60008060008060006126168761393e565b945094509450945050836001600160a01b0316866001600160a01b0316141561264557829450505050506116a0565b816001600160a01b0316866001600160a01b0316141561266a5793506116a092505050565b6126756102096116a6565b5050505092915050565b60008281526007602090815260408083206001600160a01b0385168452909152812054816126ac826139b4565b806126ca575060008581526008602052604090206126ca90856139c6565b9050806126e5576126da856125e7565b6126e56102096116a6565b509392505050565b60008281526001602052604081206109c08184613325565b6001600160701b031690565b60701c6001600160701b031690565b60e01c90565b60008061273284611ec9565b9050600281600281111561274257fe5b141561275a5761275284846139e7565b9150506116a0565b600181600281111561276857fe5b1415612778576127528484613a38565b6127528484613a50565b600080600061279086611ec9565b905060008760028111156127a057fe5b14156127bc576127b286828787613a68565b92509250506127e8565b60018760028111156127ca57fe5b14156127dc576127b286828787613ae3565b6127b286828787613b5f565b94509492505050565b60007f00000000000000000000000000000000000000000000000000000000000000007f00000000000000000000000000000000000000000000000000000000000000007f000000000000000000000000000000000000000000000000000000000000000061285e613bc2565b30604051602001612873959493929190615cc2565b60405160208183030381529060405280519060200120905090565b60601c90565b60608060006128a284611ec9565b905060028160028111156128b257fe5b14156128cb576128c184613bc6565b92509250506128f1565b60018160028111156128d957fe5b14156128e8576128c184613cfb565b6128c184613e20565b915091565b6060600082516001600160401b038111801561291157600080fd5b5060405190808252806020026020018201604052801561293b578160200160208202803683370190505b5091506000905060005b82518110156114e157600084828151811061295c57fe5b6020026020010151905061296f81613f1a565b84838151811061297b57fe5b6020026020010181815250506129998361299483612720565b613f35565b925050600101612945565b6001600160a01b03918216600090815260046020908152604080832093909416825291909152205460ff1690565b6003546040516326f8aa2160e21b815260009161010090046001600160a01b031690639be2a88490612a0c90869086903090600401615c19565b60206040518083038186803b158015612a2457600080fd5b505afa158015612a38573d6000803e3d6000fd5b505050506040513d601f19601f8201168201806040525081019061169d919061536c565b600080612a69868661197b565b9050612a828380612a7a5750848210155b61020161052b565b612a8c8185613f4c565b9150818103612aa8878783612aa0876138c2565b600003613f5b565b5050949350505050565b6000612abe848461197b565b90506000612acc82846118bf565b9050611cab858583612add876138c2565b613f5b565b610dc4846323b872dd60e01b858585604051602401611e3f93929190615a49565b612b12814710156101a361052b565b6000826001600160a01b031682604051612b2b90610528565b60006040518083038185875af1925050503d8060008114612b68576040519150601f19603f3d011682016040523d82523d6000602084013e612b6d565b606091505b50509050610f64816101a461052b565b6001600160a01b0382166000908152600260205260409020805460018101909155610f64612bab8483613fb6565b8361052b565b600080600080612bce866080015187602001518860400151613143565b92509250925060008087604001516001600160a01b031688602001516001600160a01b03161015612c03575083905082612c09565b50829050835b612c15888884846140dc565b60408b015160208c01519199509294509092506001600160a01b03918216911610612c4957612c4481836141d9565b612c53565b612c5382826141d9565b909255509295945050505050565b600080612c768460800151856020015161267f565b90506000612c8c8560800151866040015161267f565b9050612c9a858584846140dc565b6080880180516000908152600760208181526040808420828e01516001600160a01b03908116865290835281852098909855935183529081528282209a830151909516815298909352919096209590955550929392505050565b60808201516000908152600160209081526040822090840151829182918290612d1e908390614214565b90506000612d3988604001518461421490919063ffffffff16565b9050811580612d46575080155b15612d6357612d5888608001516125e7565b612d636102096116a6565b60001991820191016000612d7684614233565b90506060816001600160401b0381118015612d9057600080fd5b50604051908082528060200260200182016040528015612dba578160200160208202803683370190505b50600060a08c018190529091505b82811015612e3a576000612ddc8783614237565b9050612de781613f1a565b838381518110612df357fe5b602002602001018181525050612e108c60a0015161299483612720565b60a08d015281861415612e2557809850612e31565b84821415612e31578097505b50600101612dc8565b5060405162f64aa560e11b81526001600160a01b038a16906301ec954a90612e6c908d90859089908990600401615d2d565b602060405180830381600087803b158015612e8657600080fd5b505af1158015612e9a573d6000803e3d6000fd5b505050506040513d601f19601f82011682018060405250810190612ebe9190615855565b9750600080612ed68c600001518d606001518c612f18565b9092509050612ee5898361424d565b9850612ef1888261427e565b9750612efe87878b614294565b612f0987868a614294565b50505050505050505092915050565b60008080856001811115612f2857fe5b1415612f38575082905081612f3e565b50819050825b935093915050565b6000828202612f6a841580612f63575083858381612f6057fe5b04145b600361052b565b80612f795760009150506116a0565b670de0b6b3a76400006000198201046001019150506116a0565b60006060836001600160a01b031683604051612faf91906159d7565b6000604051808303816000865af19150503d8060008114612fec576040519150601f19603f3d011682016040523d82523d6000602084013e612ff1565b606091505b50915091506000821415613009573d6000803e3d6000fd5b610dc481516000148061302b57508180602001905181019061302b919061536c565b6101a261052b565b600061303f83836139c6565b61308e57508154600180820184556000848152602080822090930180546001600160a01b0319166001600160a01b038616908117909155855490825282860190935260409020919091556116a0565b5060006116a0565b6001600160a01b03821660009081526002840160205260408120548061312357505082546040805180820182526001600160a01b03858116808352602080840187815260008781526001808c018452878220965187546001600160a01b031916961695909517865590519484019490945594820180895590835260028801909452919020919091556117f0565b6000190160009081526001808601602052604082200183905590506117f0565b600080600080600061315587876142ac565b91509150600061316583836142dd565b60008a815260096020908152604080832084845260020190915281208054600182015491975092935090613198836139b4565b806131a757506131a7826139b4565b806131c857506131b78c876139e7565b80156131c857506131c88c866139e7565b9050806131e3576131d88c6125e7565b6131e36102096116a6565b6131ed8383614310565b98506131f98383614335565b975050505050505093509350939050565b6001600160e01b03161590565b6001600160a01b0381166000908152600183016020526040812054801561331b57835460001980830191018082146132c357600086600001828154811061325a57fe5b60009182526020909120015487546001600160a01b039091169150819088908590811061328357fe5b600091825260208083209190910180546001600160a01b0319166001600160a01b0394851617905592909116815260018881019092526040902090830190555b85548690806132ce57fe5b60008281526020808220830160001990810180546001600160a01b03191690559092019092556001600160a01b03871682526001888101909152604082209190915593506116a092505050565b60009150506116a0565b600061169d838361020961434c565b6001600160a01b0381166000908152600283016020526040812054801561331b57835460001980830191018082146133bc576000818152600180880160209081526040808420868552818520815481546001600160a01b0319166001600160a01b039182161782558286015491860191909155905416845260028a0190915290912090830190555b600081815260018088016020908152604080842080546001600160a01b031916815583018490559389556001600160a01b03881683526002890190529181205592506116a0915050565b60608082516001600160401b038111801561342057600080fd5b5060405190808252806020026020018201604052801561344a578160200160208202803683370190505b50905060005b83518110156107de5761346884828151811061241057fe5b82828151811061347457fe5b6001600160a01b0390921660209283029190910190910152600101613450565b60608060606134a285612894565b915091506134b282518551611d8c565b6134c2600083511161020f61052b565b60005b825181101561351c576135148582815181106134dd57fe5b60200260200101516001600160a01b03168483815181106134fa57fe5b60200260200101516001600160a01b03161461020861052b565b6001016134c5565b50949350505050565b6060806060806000613536866128f6565b9150915060006135458b61288e565b905060008c600181111561355557fe5b146135f857806001600160a01b03166374f3b0098c8c8c8787613576614389565b8f604001516040518863ffffffff1660e01b815260040161359d9796959493929190615c38565b600060405180830381600087803b1580156135b757600080fd5b505af11580156135cb573d6000803e3d6000fd5b505050506040513d6000823e601f3d908101601f191682016040526135f391908101906152fa565b613691565b806001600160a01b031663d5c096c48c8c8c8787613614614389565b8f604001516040518863ffffffff1660e01b815260040161363b9796959493929190615c38565b600060405180830381600087803b15801561365557600080fd5b505af1158015613669573d6000803e3d6000fd5b505050506040513d6000823e601f3d908101601f1916820160405261369191908101906152fa565b80955081965050506136a7875186518651614403565b60008c60018111156136b557fe5b146136cc576136c7898989888861441b565b6136d9565b6136d98a89898888614561565b955050505096509650969350505050565b60006136f685846142dd565b6000878152600960209081526040808320848452600201909152902090915061371f85846141d9565b9055505050505050565b60005b8251811015610dc45781818151811061374157fe5b602002602001015160076000868152602001908152602001600020600085848151811061376a57fe5b6020908102919091018101516001600160a01b031682528101919091526040016000205560010161372c565b6000828152600160205260408120905b8251811015610dc4576137d7818483815181106137bf57fe5b6020026020010151846142949092919063ffffffff16565b6001016137a6565b606082516001600160401b03811180156137f857600080fd5b50604051908082528060200260200182016040528015613822578160200160208202803683370190505b50905060005b83518110156107de57826138525783818151811061384257fe5b6020026020010151600003613867565b83818151811061385e57fe5b60200260200101515b82828151811061387357fe5b6020908102919091010152600101613828565b60008084600181111561389557fe5b146138a057816109c0565b509092915050565b6000808460018111156138b757fe5b146107de57826109c0565b60006121cf600160ff1b83106101a561052b565b600082820161169d8284128015906138ee5750848212155b80613903575060008412801561390357508482125b600061052b565b600081830361169d8284128015906139225750848213155b80613937575060008412801561393757508482135b600161052b565b6000818152600960205260408120805460018201546001600160a01b039182169284929091169082908161397286856142dd565b60008181526002840160205260409020805460018201549199509192506139998282614310565b96506139a58282614335565b94505050505091939590929450565b60006139bf8261320a565b1592915050565b6001600160a01b031660009081526001919091016020526040902054151590565b600082815260096020526040812080546001600160a01b0384811691161480613a1f575060018101546001600160a01b038481169116145b80156109c0575050506001600160a01b03161515919050565b60008281526008602052604081206109c081846139c6565b60008281526001602052604081206109c081846146d6565b6000806002856002811115613a7957fe5b1415613a8f57613a8a8685856146f7565b613ab9565b6001856002811115613a9d57fe5b1415613aae57613a8a868585614705565b613ab9868585614713565b8215613ad357613ad36001600160a01b0385163385611e20565b5050600081900394909350915050565b6000806002856002811115613af457fe5b1415613b0a57613b05868585614721565b613b34565b6001856002811115613b1857fe5b1415613b2957613b0586858561472f565b613b3486858561473d565b8215613b4f57613b4f6001600160a01b038516333086612ae2565b5090946000869003945092505050565b6000806002856002811115613b7057fe5b1415613b8857613b8186858561474b565b9050613bb5565b6001856002811115613b9657fe5b1415613ba757613b8186858561475b565b613bb286858561476b565b90505b6000915094509492505050565b4690565b606080600080600080613bd88761393e565b92975090955093509150506001600160a01b0384161580613c0057506001600160a01b038216155b15613c2957505060408051600080825260208201908152818301909252945092506128f1915050565b60408051600280825260608201835290916020830190803683370190505095508386600081518110613c5757fe5b60200260200101906001600160a01b031690816001600160a01b0316815250508186600181518110613c8557fe5b6001600160a01b03929092166020928302919091018201526040805160028082526060820183529092909190830190803683370190505094508285600081518110613ccc57fe5b6020026020010181815250508085600181518110613ce657fe5b60200260200101818152505050505050915091565b60008181526008602052604090206060908190613d1781614233565b6001600160401b0381118015613d2c57600080fd5b50604051908082528060200260200182016040528015613d56578160200160208202803683370190505b50925082516001600160401b0381118015613d7057600080fd5b50604051908082528060200260200182016040528015613d9a578160200160208202803683370190505b50915060005b8351811015613e19576000613db5838361477b565b905080858381518110613dc457fe5b6001600160a01b03928316602091820292909201810191909152600088815260078252604080822093851682529290915220548451859084908110613e0557fe5b602090810291909101015250600101613da0565b5050915091565b60008181526001602052604090206060908190613e3c81614233565b6001600160401b0381118015613e5157600080fd5b50604051908082528060200260200182016040528015613e7b578160200160208202803683370190505b50925082516001600160401b0381118015613e9557600080fd5b50604051908082528060200260200182016040528015613ebf578160200160208202803683370190505b50915060005b8351811015613e1957613ed882826147a8565b858381518110613ee457fe5b60200260200101858481518110613ef757fe5b60209081029190910101919091526001600160a01b039091169052600101613ec5565b6000613f2582612711565b613f2e83612705565b0192915050565b600081831015613f45578161169d565b5090919050565b6000818310613f45578161169d565b6001600160a01b038085166000818152600b602090815260408083209488168084529490915290819020859055517f18e1ea4139e68413d7d08aa752e71568e36b2c5bf940893314c2c5b01eaa0c429061194a908590615c10565b600080613fc16147cc565b905042811015613fd55760009150506116a0565b6000613fdf6147d8565b905080613ff1576000925050506116a0565b600081613ffc6148e9565b8051602091820120604051614018939233918a91899101615c96565b604051602081830303815290604052805190602001209050600061403b82614938565b9050600080600061404a614954565b9250925092506000600185858585604051600081526020016040526040516140759493929190615cee565b6020604051602081039080840390855afa158015614097573d6000803e3d6000fd5b5050604051601f1901519150506001600160a01b038116158015906140cd57508a6001600160a01b0316816001600160a01b0316145b9b9a5050505050505050505050565b6000806000806140eb86613f1a565b905060006140f886613f1a565b905061410f61410688612720565b61299488612720565b60a08a015260405163274b044360e21b81526001600160a01b03891690639d2c110c90614144908c9086908690600401615d66565b602060405180830381600087803b15801561415e57600080fd5b505af1158015614172573d6000803e3d6000fd5b505050506040513d601f19601f820116820180604052508101906141969190615855565b92506000806141ae8b600001518c6060015187612f18565b90925090506141bd898361424d565b96506141c9888261427e565b9550505050509450945094915050565b6000806141f16141e885612720565b61299485612720565b90506109c06141ff85612705565b61420885612705565b8363ffffffff1661497b565b6001600160a01b03166000908152600291909101602052604090205490565b5490565b6000908152600191820160205260409020015490565b6000806142638361425d86612705565b906118bf565b9050600061427085612711565b90504361126a838383614989565b6000806142638361428e86612705565b906149b7565b60009182526001928301602052604090912090910155565b600080826001600160a01b0316846001600160a01b0316106142cf5782846142d2565b83835b915091509250929050565b600082826040516020016142f29291906159f3565b60405160208183030381529060405280519060200120905092915050565b600061169d61431e84612705565b61432784612705565b61433086612720565b614989565b600061169d61434384612711565b61432784612711565b6001600160a01b03821660009081526002840160205260408120546143738115158461052b565b6143808560018303614237565b95945050505050565b6000614393611373565b6001600160a01b03166355c676286040518163ffffffff1660e01b815260040160206040518083038186803b1580156143cb57600080fd5b505afa1580156143df573d6000803e3d6000fd5b505050506040513d601f19601f820116820180604052508101906112929190615855565b610f64828414801561441457508183145b606761052b565b606083516001600160401b038111801561443457600080fd5b5060405190808252806020026020018201604052801561445e578160200160208202803683370190505b50905060005b85515181101561455757600084828151811061447c57fe5b602002602001015190506144ac8760200151838151811061449957fe5b60200260200101518210156101f961052b565b6000876000015183815181106144be57fe5b602002602001015190506144d881838b8b60600151611cb2565b60008584815181106144e657fe5b602002602001015190506145026144fc83611abb565b82611e76565b61453161450f84836118bf565b89868151811061451b57fe5b602002602001015161427e90919063ffffffff16565b85858151811061453d57fe5b602002602001018181525050505050806001019050614464565b5095945050505050565b6060600084516001600160401b038111801561457c57600080fd5b506040519080825280602002602001820160405280156145a6578160200160208202803683370190505b50915060005b8651518110156146cc5760008582815181106145c457fe5b602002602001015190506145f4886020015183815181106145e157fe5b60200260200101518211156101fa61052b565b60008860000151838151811061460657fe5b6020026020010151905061462081838c8c60600151611bd4565b614629816118b2565b1561463b5761463884836118bf565b93505b600086848151811061464957fe5b6020026020010151905061465f6144fc83611abb565b8083101561467e576146798382038a868151811061451b57fe5b6146a6565b6146a68184038a868151811061469057fe5b602002602001015161424d90919063ffffffff16565b8685815181106146b257fe5b6020026020010181815250505050508060010190506145ac565b5061455781611958565b6001600160a01b031660009081526002919091016020526040902054151590565b610dc483836149cd84614a08565b610dc483836149cd84614ab3565b610dc483836149cd84614b0e565b610dc48383614b5d84614a08565b610dc48383614b5d84614ab3565b610dc48383614b5d84614b0e565b60006109c08484614b7e85614a08565b60006109c08484614b7e85614ab3565b60006109c08484614b7e85614b0e565b600082600001828154811061478c57fe5b6000918252602090912001546001600160a01b03169392505050565b600090815260019182016020526040902080549101546001600160a01b0390911691565b60006112926000614b98565b6000803560e01c8063b95cac28811461482057638bdb39138114614848576352bbbe2981146148705763945bcec981146148985763fa6e671d81146148c057600092506148e4565b7f3f7b71252bd19113ff48c19c6e004a9bcfcca320a0d74d58e85877cbd7dcae5892506148e4565b7f8bbc57f66ea936902f50a71ce12b92c43f3c5340bb40c27c4e90ab84eeae335392506148e4565b7fe192dcbc143b1e244ad73b813fd3c097b832ad260a157340b4e5e5beda067abe92506148e4565b7f9bfc43a4d98313c6766986ffd7c916c7481566d9f224c6819af0a53388aced3a92506148e4565b7fa3f865aa351e51cfeb40f5178d1564bb629fe9030b83caf6361d1baaf5b90b5a92505b505090565b60606000368080601f0160208091040260200160405190810160405280939291908181526020018383808284376000920191909152505082519293505050608010156105285760803603815290565b60006149426127f1565b826040516020016110f2929190615a1a565b60008060006149636020614b98565b925061496f6040614b98565b91506108206060614b98565b60e01b60709190911b010190565b60008383016149ac8582108015906149a45750600160701b82105b61020e61052b565b61438085858561497b565b60006149c783831115600161052b565b50900390565b6000806149dd8361428e86612705565b905060006149ee8461425d87612711565b905060006149fb86612720565b905061126a838383614989565b6000806000806000614a198961393e565b9450509350935093506000836001600160a01b0316896001600160a01b03161415614a64576000614a4e84898b63ffffffff16565b9050614a5a8185614ba2565b9093509050614a86565b6000614a7483898b63ffffffff16565b9050614a808184614ba2565b90925090505b614a9083836141d9565b8555614a9c8383614bbe565b600190950194909455509192505050949350505050565b600080614ac0868661267f565b90506000614ad282858763ffffffff16565b60008881526007602090815260408083206001600160a01b038b16845290915290208190559050614b038183614ba2565b979650505050505050565b600084815260016020526040812081614b278287613325565b90506000614b3982868863ffffffff16565b9050614b46838883613096565b50614b518183614ba2565b98975050505050505050565b600080614b6d8361425d86612705565b905060006149ee8461428e87612711565b600080614b8a84612705565b905043614380828583614989565b3601607f19013590565b6000614bad82612711565b614bb684612711565b039392505050565b600061169d614bcc84612711565b614bd584612711565b600061497b565b60408051610120810190915280600081526000602082018190526040820181905260608083018290526080830182905260a0830182905260c0830182905260e08301919091526101009091015290565b604080516080810190915280600081526000602082018190526040820181905260609091015290565b60405180608001604052806060815260200160608152602001606081526020016000151581525090565b6040518060a0016040528060008019168152602001600081526020016000815260200160008152602001606081525090565b80356116a081615e2a565b600082601f830112614ccc578081fd5b8135614cdf614cda82615dd5565b615daf565b818152915060208083019084810181840286018201871015614d0057600080fd5b60005b84811015614d28578135614d1681615e2a565b84529282019290820190600101614d03565b505050505092915050565b600082601f830112614d43578081fd5b8135614d51614cda82615dd5565b818152915060208083019084810160005b84811015614d28578135870160a080601f19838c03011215614d8357600080fd5b614d8c81615daf565b8583013581526040808401358783015260608085013582840152608091508185013581840152508284013592506001600160401b03831115614dcd57600080fd5b614ddb8c8885870101614eba565b90820152865250509282019290820190600101614d62565b600082601f830112614e03578081fd5b8135614e11614cda82615dd5565b818152915060208083019084810181840286018201871015614e3257600080fd5b60005b84811015614d2857813584529282019290820190600101614e35565b600082601f830112614e61578081fd5b8151614e6f614cda82615dd5565b818152915060208083019084810181840286018201871015614e9057600080fd5b60005b84811015614d2857815184529282019290820190600101614e93565b80356116a081615e3f565b600082601f830112614eca578081fd5b81356001600160401b03811115614edf578182fd5b614ef2601f8201601f1916602001615daf565b9150808252836020828501011115614f0957600080fd5b8060208401602084013760009082016020015292915050565b80356116a081615e4d565b8035600281106116a057600080fd5b8035600481106116a057600080fd5b600060808284031215614f5c578081fd5b614f666080615daf565b905081356001600160401b0380821115614f7f57600080fd5b614f8b85838601614cbc565b83526020840135915080821115614fa157600080fd5b614fad85838601614df3565b60208401526040840135915080821115614fc657600080fd5b50614fd384828501614eba565b604083015250614fe68360608401614eaf565b606082015292915050565b600060808284031215615002578081fd5b61500c6080615daf565b9050813561501981615e2a565b8152602082013561502981615e3f565b6020820152604082013561503c81615e2a565b60408201526060820135614fe681615e3f565b600060208284031215615060578081fd5b813561169d81615e2a565b6000806040838503121561507d578081fd5b823561508881615e2a565b9150602083013561509881615e2a565b809150509250929050565b6000806000606084860312156150b7578081fd5b83356150c281615e2a565b925060208401356150d281615e2a565b915060408401356150e281615e3f565b809150509250925092565b600080604083850312156150ff578182fd5b823561510a81615e2a565b915060208301356001600160401b03811115615124578182fd5b61513085828601614cbc565b9150509250929050565b6000602080838503121561514c578182fd5b82356001600160401b03811115615161578283fd5b8301601f81018513615171578283fd5b803561517f614cda82615dd5565b818152838101908385016080808502860187018a101561519d578788fd5b8795505b848610156152065780828b0312156151b7578788fd5b6151c081615daf565b6151ca8b84614f22565b8152878301358882015260406151e28c828601614cb1565b908201526060838101359082015284526001959095019492860192908101906151a1565b509098975050505050505050565b60006020808385031215615226578182fd5b82356001600160401b0381111561523b578283fd5b8301601f8101851361524b578283fd5b8035615259614cda82615dd5565b8181528381019083850160a0808502860187018a1015615277578788fd5b8795505b848610156152065780828b031215615291578788fd5b61529a81615daf565b6152a48b84614f3c565b81526152b28b898501614cb1565b818901526040838101359082015260606152ce8c828601614cb1565b9082015260806152e08c858301614cb1565b90820152845260019590950194928601929081019061527b565b6000806040838503121561530c578182fd5b82516001600160401b0380821115615322578384fd5b61532e86838701614e51565b93506020850151915080821115615343578283fd5b5061513085828601614e51565b600060208284031215615361578081fd5b813561169d81615e3f565b60006020828403121561537d578081fd5b815161169d81615e3f565b600060208284031215615399578081fd5b5035919050565b600080600080608085870312156153b5578182fd5b8435935060208501356153c781615e2a565b925060408501356153d781615e2a565b915060608501356001600160401b038111156153f1578182fd5b6153fd87828801614f4b565b91505092959194509250565b6000806040838503121561541b578182fd5b8235915060208301356001600160401b03811115615124578182fd5b60008060006060848603121561544b578081fd5b833592506020808501356001600160401b0380821115615469578384fd5b61547588838901614cbc565b9450604087013591508082111561548a578384fd5b508501601f8101871361549b578283fd5b80356154a9614cda82615dd5565b81815283810190838501858402850186018b10156154c5578687fd5b8694505b838510156154f05780356154dc81615e2a565b8352600194909401939185019185016154c9565b5080955050505050509250925092565b60008060408385031215615512578182fd5b82359150602083013561509881615e2a565b600060208284031215615535578081fd5b81356001600160e01b03198116811461169d578182fd5b60008060008060808587031215615561578182fd5b843561556c81615e2a565b935060208501356001600160401b0380821115615587578384fd5b61559388838901614cbc565b945060408701359150808211156155a8578384fd5b6155b488838901614df3565b935060608701359150808211156155c9578283fd5b506153fd87828801614eba565b6000602082840312156155e7578081fd5b813561169d81615e4d565b60008060008060e08587031215615607578182fd5b6156118686614f2d565b935060208501356001600160401b038082111561562c578384fd5b61563888838901614d33565b9450604087013591508082111561564d578384fd5b5061565a87828801614cbc565b92505061566a8660608701614ff1565b905092959194509250565b600080600080600080610120878903121561568e578384fd5b6156988888614f2d565b95506020808801356001600160401b03808211156156b4578687fd5b6156c08b838c01614d33565b975060408a01359150808211156156d5578687fd5b6156e18b838c01614cbc565b96506156f08b60608c01614ff1565b955060e08a0135915080821115615705578485fd5b508801601f81018a13615716578384fd5b8035615724614cda82615dd5565b81815283810190838501858402850186018e1015615740578788fd5b8794505b83851015615762578035835260019490940193918501918501615744565b50809650505050505061010087013590509295509295509295565b60008060008060e08587031215615792578182fd5b84356001600160401b03808211156157a8578384fd5b9086019060c082890312156157bb578384fd5b6157c560c0615daf565b823581526157d68960208501614f2d565b602082015260408301356157e981615e2a565b60408201526157fb8960608501614cb1565b60608201526080830135608082015260a08301358281111561581b578586fd5b6158278a828601614eba565b60a0830152508096505050506158408660208701614ff1565b939693955050505060a08201359160c0013590565b600060208284031215615866578081fd5b5051919050565b6001600160a01b03169052565b6000815180845260208085019450808401835b838110156158b25781516001600160a01b03168752958201959082019060010161588d565b509495945050505050565b6000815180845260208085019450808401835b838110156158b2578151875295820195908201906001016158d0565b60008151808452615904816020860160208601615df4565b601f01601f19169290920160200192915050565b600061012082516002811061592957fe5b80855250602083015161593f602086018261586d565b506040830151615952604086018261586d565b50606083015160608501526080830151608085015260a083015160a085015260c083015161598360c086018261586d565b5060e083015161599660e086018261586d565b5061010080840151828287015261126a838701826158ec565b9182526001600160e01b031916602082015260240190565b6000828483379101908152919050565b600082516159e9818460208701615df4565b9190910192915050565b6bffffffffffffffffffffffff19606093841b811682529190921b16601482015260280190565b61190160f01b81526002810192909252602282015260420190565b6001600160a01b0391909116815260200190565b6001600160a01b039384168152919092166020820152604081019190915260600190565b6001600160a01b038316815260408101615a8683615e20565b8260208301529392505050565b6001600160a01b03929092168252602082015260400190565b60006020825261169d602083018461587a565b600060408252615ad2604083018561587a565b828103602084810191909152845180835285820192820190845b81811015615b115784516001600160a01b031683529383019391830191600101615aec565b5090979650505050505050565b600060608252615b31606083018661587a565b8281036020840152615b4381866158bd565b9050828103604084015261126a81856158bd565b600060808252615b6a608083018761587a565b8281036020840152615b7c81876158bd565b90508281036040840152615b9081866158bd565b90508281036060840152614b0381856158ec565b600060608252615bb7606083018661587a565b8281036020840152615bc981866158bd565b915050826040830152949350505050565b60006020825261169d60208301846158bd565b901515815260200190565b92151583526020830191909152604082015260600190565b90815260200190565b9283526001600160a01b03918216602084015216604082015260600190565b8781526001600160a01b0387811660208301528616604082015260e060608201819052600090615c6a908301876158bd565b8560808401528460a084015282810360c0840152615c8881856158ec565b9a9950505050505050505050565b94855260208501939093526001600160a01b039190911660408401526060830152608082015260a00190565b9485526020850193909352604084019190915260608301526001600160a01b0316608082015260a00190565b93845260ff9290921660208401526040830152606082015260800190565b60208101615d1983615e20565b91905290565b918252602082015260400190565b600060808252615d406080830187615918565b8281036020840152615d5281876158bd565b604084019590955250506060015292915050565b600060608252615d796060830186615918565b60208301949094525060400152919050565b938452602084019290925260408301526001600160a01b0316606082015260800190565b6040518181016001600160401b0381118282101715615dcd57600080fd5b604052919050565b60006001600160401b03821115615dea578081fd5b5060209081020190565b60005b83811015615e0f578181015183820152602001615df7565b83811115610dc45750506000910152565b6003811061055e57fe5b6001600160a01b038116811461055e57600080fd5b801515811461055e57600080fd5b6003811061055e57600080fdfea264697066735822122008187bc532f457063ce4a33b96b99e4e16f1ae79a8ae8f3eb1ba352bb077c19964736f6c6343000701003360c060405234801561001057600080fd5b50604051610b47380380610b4783398101604081905261002f9161004d565b30608052600160005560601b6001600160601b03191660a05261007b565b60006020828403121561005e578081fd5b81516001600160a01b0381168114610074578182fd5b9392505050565b60805160a05160601c610aa16100a66000398061040352806104f45250806102975250610aa16000f3fe608060405234801561001057600080fd5b50600436106100935760003560e01c8063851c1bb311610066578063851c1bb3146100f1578063aaabadc514610104578063d877845c14610119578063e42abf3514610121578063fbfa77cf1461014157610093565b806338e9922e1461009857806355c67628146100ad5780636b6b9f69146100cb5780636daefab6146100de575b600080fd5b6100ab6100a6366004610915565b610149565b005b6100b56101a8565b6040516100c29190610a07565b60405180910390f35b6100ab6100d9366004610915565b6101ae565b6100ab6100ec366004610762565b610201565b6100b56100ff3660046108b5565b610293565b61010c6102e5565b6040516100c29190610996565b6100b56102f4565b61013461012f3660046107e3565b6102fa565b6040516100c291906109c3565b61010c610401565b610151610425565b6101686706f05b59d3b20000821115610258610456565b60018190556040517fa9ba3ffe0b6c366b81232caab38605a0699ad5398d6cce76f91ee809e322dafc9061019d908390610a07565b60405180910390a150565b60015490565b6101b6610425565b6101cc662386f26fc10000821115610259610456565b60028190556040517f5a0b7386237e7f07fa741efc64e59c9387d2cccafec760efed4d53387f20e19a9061019d908390610a07565b610209610468565b610211610425565b61021b8483610481565b60005b8481101561028357600086868381811061023457fe5b905060200201602081019061024991906108f9565b9050600085858481811061025957fe5b6020029190910135915061027990506001600160a01b038316858361048e565b505060010161021e565b5061028c6104e9565b5050505050565b60007f0000000000000000000000000000000000000000000000000000000000000000826040516020016102c8929190610945565b604051602081830303815290604052805190602001209050919050565b60006102ef6104f0565b905090565b60025490565b6060815167ffffffffffffffff8111801561031457600080fd5b5060405190808252806020026020018201604052801561033e578160200160208202803683370190505b50905060005b82518110156103fb5782818151811061035957fe5b60200260200101516001600160a01b03166370a08231306040518263ffffffff1660e01b815260040161038c9190610996565b60206040518083038186803b1580156103a457600080fd5b505afa1580156103b8573d6000803e3d6000fd5b505050506040513d601f19601f820116820180604052508101906103dc919061092d565b8282815181106103e857fe5b6020908102919091010152600101610344565b50919050565b7f000000000000000000000000000000000000000000000000000000000000000081565b600061043c6000356001600160e01b031916610293565b905061045361044b8233610583565b610191610456565b50565b816104645761046481610615565b5050565b61047a60026000541415610190610456565b6002600055565b6104648183146067610456565b6104e48363a9059cbb60e01b84846040516024016104ad9291906109aa565b60408051601f198184030181529190526020810180516001600160e01b03166001600160e01b031990931692909217909152610668565b505050565b6001600055565b60007f00000000000000000000000000000000000000000000000000000000000000006001600160a01b031663aaabadc56040518163ffffffff1660e01b815260040160206040518083038186803b15801561054b57600080fd5b505afa15801561055f573d6000803e3d6000fd5b505050506040513d601f19601f820116820180604052508101906102ef91906108dd565b600061058d6104f0565b6001600160a01b0316639be2a8848484306040518463ffffffff1660e01b81526004016105bc93929190610a10565b60206040518083038186803b1580156105d457600080fd5b505afa1580156105e8573d6000803e3d6000fd5b505050506040513d601f19601f8201168201806040525081019061060c919061088e565b90505b92915050565b62461bcd60e51b6000908152602060045260076024526642414c23000030600a808404818106603090810160081b95839006959095019082900491820690940160101b939093010160c81b604452606490fd5b60006060836001600160a01b031683604051610684919061095d565b6000604051808303816000865af19150503d80600081146106c1576040519150601f19603f3d011682016040523d82523d6000602084013e6106c6565b606091505b509150915060008214156106de573d6000803e3d6000fd5b610708815160001480610700575081806020019051810190610700919061088e565b6101a2610456565b50505050565b60008083601f84011261071f578182fd5b50813567ffffffffffffffff811115610736578182fd5b602083019150836020808302850101111561075057600080fd5b9250929050565b803561060f81610a56565b600080600080600060608688031215610779578081fd5b853567ffffffffffffffff80821115610790578283fd5b61079c89838a0161070e565b909750955060208801359150808211156107b4578283fd5b506107c18882890161070e565b90945092505060408601356107d581610a56565b809150509295509295909350565b600060208083850312156107f5578182fd5b823567ffffffffffffffff8082111561080c578384fd5b818501915085601f83011261081f578384fd5b81358181111561082d578485fd5b838102915061083d848301610a2f565b8181528481019084860184860187018a1015610857578788fd5b8795505b838610156108815761086d8a82610757565b83526001959095019491860191860161085b565b5098975050505050505050565b60006020828403121561089f578081fd5b815180151581146108ae578182fd5b9392505050565b6000602082840312156108c6578081fd5b81356001600160e01b0319811681146108ae578182fd5b6000602082840312156108ee578081fd5b81516108ae81610a56565b60006020828403121561090a578081fd5b81356108ae81610a56565b600060208284031215610926578081fd5b5035919050565b60006020828403121561093e578081fd5b5051919050565b9182526001600160e01b031916602082015260240190565b60008251815b8181101561097d5760208186018101518583015201610963565b8181111561098b5782828501525b509190910192915050565b6001600160a01b0391909116815260200190565b6001600160a01b03929092168252602082015260400190565b6020808252825182820181905260009190848201906040850190845b818110156109fb578351835292840192918401916001016109df565b50909695505050505050565b90815260200190565b9283526001600160a01b03918216602084015216604082015260600190565b60405181810167ffffffffffffffff81118282101715610a4e57600080fd5b604052919050565b6001600160a01b038116811461045357600080fdfea2646970667358221220747f28e4d5d329f7ac21eaea1b10abd35e3d492df865568031cde740d3cd2bd164736f6c63430007010033",
			"opcodes": "PUSH2 0x180 PUSH1 0x40 MSTORE CALLVALUE DUP1 ISZERO PUSH3 0x12 JUMPI PUSH1 0x0 DUP1 REVERT JUMPDEST POP PUSH1 0x40 MLOAD PUSH3 0x6D07 CODESIZE SUB DUP1 PUSH3 0x6D07 DUP4 CODECOPY DUP2 ADD PUSH1 0x40 DUP2 SWAP1 MSTORE PUSH3 0x35 SWAP2 PUSH3 0x253 JUMP JUMPDEST DUP4 DUP3 DUP3 PUSH1 0x40 MLOAD DUP1 PUSH1 0x40 ADD PUSH1 0x40 MSTORE DUP1 PUSH1 0x11 DUP2 MSTORE PUSH1 0x20 ADD PUSH17 0x10985B185B98D95C88158C8815985D5B1D PUSH1 0x7A SHL DUP2 MSTORE POP DUP1 PUSH1 0x40 MLOAD DUP1 PUSH1 0x40 ADD PUSH1 0x40 MSTORE DUP1 PUSH1 0x1 DUP2 MSTORE PUSH1 0x20 ADD PUSH1 0x31 PUSH1 0xF8 SHL DUP2 MSTORE POP ADDRESS PUSH1 0x1 PUSH1 0x1 PUSH1 0xA0 SHL SUB AND PUSH1 0x0 SHL DUP10 DUP1 PUSH1 0x1 PUSH1 0x1 PUSH1 0xA0 SHL SUB AND PUSH1 0x80 DUP2 PUSH1 0x1 PUSH1 0x1 PUSH1 0xA0 SHL SUB AND PUSH1 0x60 SHL DUP2 MSTORE POP POP POP ADDRESS PUSH1 0x40 MLOAD PUSH3 0xB8 SWAP1 PUSH3 0x245 JUMP JUMPDEST PUSH3 0xC4 SWAP2 SWAP1 PUSH3 0x29F JUMP JUMPDEST PUSH1 0x40 MLOAD DUP1 SWAP2 SUB SWAP1 PUSH1 0x0 CREATE DUP1 ISZERO DUP1 ISZERO PUSH3 0xE1 JUMPI RETURNDATASIZE PUSH1 0x0 DUP1 RETURNDATACOPY RETURNDATASIZE PUSH1 0x0 REVERT JUMPDEST POP PUSH1 0x60 SHL PUSH1 0x1 PUSH1 0x1 PUSH1 0x60 SHL SUB NOT AND PUSH1 0xA0 MSTORE PUSH1 0x1 PUSH1 0x0 SSTORE PUSH1 0xC0 MSTORE DUP2 MLOAD PUSH1 0x20 SWAP3 DUP4 ADD KECCAK256 PUSH1 0xE0 MSTORE DUP1 MLOAD SWAP2 ADD KECCAK256 PUSH2 0x100 MSTORE POP PUSH32 0x8B73C3C69BB8FE3D512ECC4CF759CC79239F7B179B0FFACAA9A75D522B39400F PUSH2 0x120 MSTORE PUSH3 0x148 PUSH3 0x76A700 DUP4 GT ISZERO PUSH2 0x194 PUSH3 0x181 JUMP JUMPDEST PUSH3 0x15C PUSH3 0x278D00 DUP3 GT ISZERO PUSH2 0x195 PUSH3 0x181 JUMP JUMPDEST TIMESTAMP SWAP1 SWAP2 ADD PUSH2 0x140 DUP2 SWAP1 MSTORE ADD PUSH2 0x160 MSTORE PUSH3 0x176 DUP2 PUSH3 0x196 JUMP JUMPDEST POP POP POP POP POP PUSH3 0x2CC JUMP JUMPDEST DUP2 PUSH3 0x192 JUMPI PUSH3 0x192 DUP2 PUSH3 0x1F2 JUMP JUMPDEST POP POP JUMP JUMPDEST PUSH1 0x40 MLOAD PUSH1 0x1 PUSH1 0x1 PUSH1 0xA0 SHL SUB DUP3 AND SWAP1 PUSH32 0x94B979B6831A51293E2641426F97747FEED46F17779FED9CD18D1ECEFCFE92EF SWAP1 PUSH1 0x0 SWAP1 LOG2 PUSH1 0x3 DUP1 SLOAD PUSH1 0x1 PUSH1 0x1 PUSH1 0xA0 SHL SUB SWAP1 SWAP3 AND PUSH2 0x100 MUL PUSH2 0x100 PUSH1 0x1 PUSH1 0xA8 SHL SUB NOT SWAP1 SWAP3 AND SWAP2 SWAP1 SWAP2 OR SWAP1 SSTORE JUMP JUMPDEST PUSH3 0x461BCD PUSH1 0xE5 SHL PUSH1 0x0 SWAP1 DUP2 MSTORE PUSH1 0x20 PUSH1 0x4 MSTORE PUSH1 0x7 PUSH1 0x24 MSTORE PUSH7 0x42414C23000030 PUSH1 0xA DUP1 DUP5 DIV DUP2 DUP2 MOD PUSH1 0x30 SWAP1 DUP2 ADD PUSH1 0x8 SHL SWAP6 DUP4 SWAP1 MOD SWAP6 SWAP1 SWAP6 ADD SWAP1 DUP3 SWAP1 DIV SWAP2 DUP3 MOD SWAP1 SWAP5 ADD PUSH1 0x10 SHL SWAP4 SWAP1 SWAP4 ADD ADD PUSH1 0xC8 SHL PUSH1 0x44 MSTORE PUSH1 0x64 SWAP1 REVERT JUMPDEST PUSH2 0xB47 DUP1 PUSH3 0x61C0 DUP4 CODECOPY ADD SWAP1 JUMP JUMPDEST PUSH1 0x0 DUP1 PUSH1 0x0 DUP1 PUSH1 0x80 DUP6 DUP8 SUB SLT ISZERO PUSH3 0x269 JUMPI DUP4 DUP5 REVERT JUMPDEST DUP5 MLOAD PUSH3 0x276 DUP2 PUSH3 0x2B3 JUMP JUMPDEST PUSH1 0x20 DUP7 ADD MLOAD SWAP1 SWAP5 POP PUSH3 0x289 DUP2 PUSH3 0x2B3 JUMP JUMPDEST PUSH1 0x40 DUP7 ADD MLOAD PUSH1 0x60 SWAP1 SWAP7 ADD MLOAD SWAP5 SWAP8 SWAP1 SWAP7 POP SWAP3 POP POP POP JUMP JUMPDEST PUSH1 0x1 PUSH1 0x1 PUSH1 0xA0 SHL SUB SWAP2 SWAP1 SWAP2 AND DUP2 MSTORE PUSH1 0x20 ADD SWAP1 JUMP JUMPDEST PUSH1 0x1 PUSH1 0x1 PUSH1 0xA0 SHL SUB DUP2 AND DUP2 EQ PUSH3 0x2C9 JUMPI PUSH1 0x0 DUP1 REVERT JUMPDEST POP JUMP JUMPDEST PUSH1 0x80 MLOAD PUSH1 0x60 SHR PUSH1 0xA0 MLOAD PUSH1 0x60 SHR PUSH1 0xC0 MLOAD PUSH1 0xE0 MLOAD PUSH2 0x100 MLOAD PUSH2 0x120 MLOAD PUSH2 0x140 MLOAD PUSH2 0x160 MLOAD PUSH2 0x5E90 PUSH3 0x330 PUSH1 0x0 CODECOPY DUP1 PUSH2 0x1A67 MSTORE POP DUP1 PUSH2 0x1A43 MSTORE POP DUP1 PUSH2 0x27F5 MSTORE POP DUP1 PUSH2 0x2837 MSTORE POP DUP1 PUSH2 0x2816 MSTORE POP DUP1 PUSH2 0x10C1 MSTORE POP DUP1 PUSH2 0x1375 MSTORE POP DUP1 PUSH2 0x508 MSTORE POP PUSH2 0x5E90 PUSH1 0x0 RETURN INVALID PUSH1 0x80 PUSH1 0x40 MSTORE PUSH1 0x4 CALLDATASIZE LT PUSH2 0x185 JUMPI PUSH1 0x0 CALLDATALOAD PUSH1 0xE0 SHR DUP1 PUSH4 0x945BCEC9 GT PUSH2 0xD1 JUMPI DUP1 PUSH4 0xE6C46092 GT PUSH2 0x8A JUMPI DUP1 PUSH4 0xF84D066E GT PUSH2 0x64 JUMPI DUP1 PUSH4 0xF84D066E EQ PUSH2 0x46A JUMPI DUP1 PUSH4 0xF94D4668 EQ PUSH2 0x48A JUMPI DUP1 PUSH4 0xFA6E671D EQ PUSH2 0x4B9 JUMPI DUP1 PUSH4 0xFEC90D72 EQ PUSH2 0x4D9 JUMPI PUSH2 0x1B3 JUMP JUMPDEST DUP1 PUSH4 0xE6C46092 EQ PUSH2 0x407 JUMPI DUP1 PUSH4 0xED24911D EQ PUSH2 0x427 JUMPI DUP1 PUSH4 0xF6C00927 EQ PUSH2 0x43C JUMPI PUSH2 0x1B3 JUMP JUMPDEST DUP1 PUSH4 0x945BCEC9 EQ PUSH2 0x365 JUMPI DUP1 PUSH4 0xAAABADC5 EQ PUSH2 0x378 JUMPI DUP1 PUSH4 0xAD5C4648 EQ PUSH2 0x39A JUMPI DUP1 PUSH4 0xB05F8E48 EQ PUSH2 0x3AF JUMPI DUP1 PUSH4 0xB95CAC28 EQ PUSH2 0x3DF JUMPI DUP1 PUSH4 0xD2946C2B EQ PUSH2 0x3F2 JUMPI PUSH2 0x1B3 JUMP JUMPDEST DUP1 PUSH4 0x52BBBE29 GT PUSH2 0x13E JUMPI DUP1 PUSH4 0x7D3AEB96 GT PUSH2 0x118 JUMPI DUP1 PUSH4 0x7D3AEB96 EQ PUSH2 0x2E5 JUMPI DUP1 PUSH4 0x851C1BB3 EQ PUSH2 0x305 JUMPI DUP1 PUSH4 0x8BDB3913 EQ PUSH2 0x325 JUMPI DUP1 PUSH4 0x90193B7C EQ PUSH2 0x345 JUMPI PUSH2 0x1B3 JUMP JUMPDEST DUP1 PUSH4 0x52BBBE29 EQ PUSH2 0x292 JUMPI DUP1 PUSH4 0x5C38449E EQ PUSH2 0x2A5 JUMPI DUP1 PUSH4 0x66A9C7D2 EQ PUSH2 0x2C5 JUMPI PUSH2 0x1B3 JUMP JUMPDEST DUP1 PUSH4 0x58A628F EQ PUSH2 0x1B8 JUMPI DUP1 PUSH4 0x9B2760F EQ PUSH2 0x1D8 JUMPI DUP1 PUSH4 0xE8E3E84 EQ PUSH2 0x20E JUMPI DUP1 PUSH4 0xF5A6EFA EQ PUSH2 0x221 JUMPI DUP1 PUSH4 0x16C38B3C EQ PUSH2 0x24E JUMPI DUP1 PUSH4 0x1C0DE051 EQ PUSH2 0x26E JUMPI PUSH2 0x1B3 JUMP JUMPDEST CALLDATASIZE PUSH2 0x1B3 JUMPI PUSH2 0x1B1 PUSH2 0x195 PUSH2 0x506 JUMP JUMPDEST PUSH1 0x1 PUSH1 0x1 PUSH1 0xA0 SHL SUB AND CALLER PUSH1 0x1 PUSH1 0x1 PUSH1 0xA0 SHL SUB AND EQ PUSH2 0x206 PUSH2 0x52B JUMP JUMPDEST STOP JUMPDEST PUSH1 0x0 DUP1 REVERT JUMPDEST CALLVALUE DUP1 ISZERO PUSH2 0x1C4 JUMPI PUSH1 0x0 DUP1 REVERT JUMPDEST POP PUSH2 0x1B1 PUSH2 0x1D3 CALLDATASIZE PUSH1 0x4 PUSH2 0x504F JUMP JUMPDEST PUSH2 0x53D JUMP JUMPDEST CALLVALUE DUP1 ISZERO PUSH2 0x1E4 JUMPI PUSH1 0x0 DUP1 REVERT JUMPDEST POP PUSH2 0x1F8 PUSH2 0x1F3 CALLDATASIZE PUSH1 0x4 PUSH2 0x55D6 JUMP JUMPDEST PUSH2 0x561 JUMP JUMPDEST PUSH1 0x40 MLOAD PUSH2 0x205 SWAP2 SWAP1 PUSH2 0x5C10 JUMP JUMPDEST PUSH1 0x40 MLOAD DUP1 SWAP2 SUB SWAP1 RETURN JUMPDEST PUSH2 0x1B1 PUSH2 0x21C CALLDATASIZE PUSH1 0x4 PUSH2 0x5214 JUMP JUMPDEST PUSH2 0x614 JUMP JUMPDEST CALLVALUE DUP1 ISZERO PUSH2 0x22D JUMPI PUSH1 0x0 DUP1 REVERT JUMPDEST POP PUSH2 0x241 PUSH2 0x23C CALLDATASIZE PUSH1 0x4 PUSH2 0x50ED JUMP JUMPDEST PUSH2 0x750 JUMP JUMPDEST PUSH1 0x40 MLOAD PUSH2 0x205 SWAP2 SWAP1 PUSH2 0x5BDA JUMP JUMPDEST CALLVALUE DUP1 ISZERO PUSH2 0x25A JUMPI PUSH1 0x0 DUP1 REVERT JUMPDEST POP PUSH2 0x1B1 PUSH2 0x269 CALLDATASIZE PUSH1 0x4 PUSH2 0x5350 JUMP JUMPDEST PUSH2 0x7E5 JUMP JUMPDEST CALLVALUE DUP1 ISZERO PUSH2 0x27A JUMPI PUSH1 0x0 DUP1 REVERT JUMPDEST POP PUSH2 0x283 PUSH2 0x7FE JUMP JUMPDEST PUSH1 0x40 MLOAD PUSH2 0x205 SWAP4 SWAP3 SWAP2 SWAP1 PUSH2 0x5BF8 JUMP JUMPDEST PUSH2 0x1F8 PUSH2 0x2A0 CALLDATASIZE PUSH1 0x4 PUSH2 0x577D JUMP JUMPDEST PUSH2 0x827 JUMP JUMPDEST CALLVALUE DUP1 ISZERO PUSH2 0x2B1 JUMPI PUSH1 0x0 DUP1 REVERT JUMPDEST POP PUSH2 0x1B1 PUSH2 0x2C0 CALLDATASIZE PUSH1 0x4 PUSH2 0x554C JUMP JUMPDEST PUSH2 0x9C8 JUMP JUMPDEST CALLVALUE DUP1 ISZERO PUSH2 0x2D1 JUMPI PUSH1 0x0 DUP1 REVERT JUMPDEST POP PUSH2 0x1B1 PUSH2 0x2E0 CALLDATASIZE PUSH1 0x4 PUSH2 0x5437 JUMP JUMPDEST PUSH2 0xDCA JUMP JUMPDEST CALLVALUE DUP1 ISZERO PUSH2 0x2F1 JUMPI PUSH1 0x0 DUP1 REVERT JUMPDEST POP PUSH2 0x1B1 PUSH2 0x300 CALLDATASIZE PUSH1 0x4 PUSH2 0x5409 JUMP JUMPDEST PUSH2 0xF69 JUMP JUMPDEST CALLVALUE DUP1 ISZERO PUSH2 0x311 JUMPI PUSH1 0x0 DUP1 REVERT JUMPDEST POP PUSH2 0x1F8 PUSH2 0x320 CALLDATASIZE PUSH1 0x4 PUSH2 0x5524 JUMP JUMPDEST PUSH2 0x10BD JUMP JUMPDEST CALLVALUE DUP1 ISZERO PUSH2 0x331 JUMPI PUSH1 0x0 DUP1 REVERT JUMPDEST POP PUSH2 0x1B1 PUSH2 0x340 CALLDATASIZE PUSH1 0x4 PUSH2 0x53A0 JUMP JUMPDEST PUSH2 0x110F JUMP JUMPDEST CALLVALUE DUP1 ISZERO PUSH2 0x351 JUMPI PUSH1 0x0 DUP1 REVERT JUMPDEST POP PUSH2 0x1F8 PUSH2 0x360 CALLDATASIZE PUSH1 0x4 PUSH2 0x504F JUMP JUMPDEST PUSH2 0x1125 JUMP JUMPDEST PUSH2 0x241 PUSH2 0x373 CALLDATASIZE PUSH1 0x4 PUSH2 0x5675 JUMP JUMPDEST PUSH2 0x1140 JUMP JUMPDEST CALLVALUE DUP1 ISZERO PUSH2 0x384 JUMPI PUSH1 0x0 DUP1 REVERT JUMPDEST POP PUSH2 0x38D PUSH2 0x1274 JUMP JUMPDEST PUSH1 0x40 MLOAD PUSH2 0x205 SWAP2 SWAP1 PUSH2 0x5A35 JUMP JUMPDEST CALLVALUE DUP1 ISZERO PUSH2 0x3A6 JUMPI PUSH1 0x0 DUP1 REVERT JUMPDEST POP PUSH2 0x38D PUSH2 0x1288 JUMP JUMPDEST CALLVALUE DUP1 ISZERO PUSH2 0x3BB JUMPI PUSH1 0x0 DUP1 REVERT JUMPDEST POP PUSH2 0x3CF PUSH2 0x3CA CALLDATASIZE PUSH1 0x4 PUSH2 0x5500 JUMP JUMPDEST PUSH2 0x1297 JUMP JUMPDEST PUSH1 0x40 MLOAD PUSH2 0x205 SWAP5 SWAP4 SWAP3 SWAP2 SWAP1 PUSH2 0x5D8B JUMP JUMPDEST PUSH2 0x1B1 PUSH2 0x3ED CALLDATASIZE PUSH1 0x4 PUSH2 0x53A0 JUMP JUMPDEST PUSH2 0x135A JUMP JUMPDEST CALLVALUE DUP1 ISZERO PUSH2 0x3FE JUMPI PUSH1 0x0 DUP1 REVERT JUMPDEST POP PUSH2 0x38D PUSH2 0x1373 JUMP JUMPDEST CALLVALUE DUP1 ISZERO PUSH2 0x413 JUMPI PUSH1 0x0 DUP1 REVERT JUMPDEST POP PUSH2 0x1B1 PUSH2 0x422 CALLDATASIZE PUSH1 0x4 PUSH2 0x513A JUMP JUMPDEST PUSH2 0x1397 JUMP JUMPDEST CALLVALUE DUP1 ISZERO PUSH2 0x433 JUMPI PUSH1 0x0 DUP1 REVERT JUMPDEST POP PUSH2 0x1F8 PUSH2 0x14B3 JUMP JUMPDEST CALLVALUE DUP1 ISZERO PUSH2 0x448 JUMPI PUSH1 0x0 DUP1 REVERT JUMPDEST POP PUSH2 0x45C PUSH2 0x457 CALLDATASIZE PUSH1 0x4 PUSH2 0x5388 JUMP JUMPDEST PUSH2 0x14BD JUMP JUMPDEST PUSH1 0x40 MLOAD PUSH2 0x205 SWAP3 SWAP2 SWAP1 PUSH2 0x5A6D JUMP JUMPDEST CALLVALUE DUP1 ISZERO PUSH2 0x476 JUMPI PUSH1 0x0 DUP1 REVERT JUMPDEST POP PUSH2 0x241 PUSH2 0x485 CALLDATASIZE PUSH1 0x4 PUSH2 0x55F2 JUMP JUMPDEST PUSH2 0x14E7 JUMP JUMPDEST CALLVALUE DUP1 ISZERO PUSH2 0x496 JUMPI PUSH1 0x0 DUP1 REVERT JUMPDEST POP PUSH2 0x4AA PUSH2 0x4A5 CALLDATASIZE PUSH1 0x4 PUSH2 0x5388 JUMP JUMPDEST PUSH2 0x15CB JUMP JUMPDEST PUSH1 0x40 MLOAD PUSH2 0x205 SWAP4 SWAP3 SWAP2 SWAP1 PUSH2 0x5BA4 JUMP JUMPDEST CALLVALUE DUP1 ISZERO PUSH2 0x4C5 JUMPI PUSH1 0x0 DUP1 REVERT JUMPDEST POP PUSH2 0x1B1 PUSH2 0x4D4 CALLDATASIZE PUSH1 0x4 PUSH2 0x50A3 JUMP JUMPDEST PUSH2 0x15FF JUMP JUMPDEST CALLVALUE DUP1 ISZERO PUSH2 0x4E5 JUMPI PUSH1 0x0 DUP1 REVERT JUMPDEST POP PUSH2 0x4F9 PUSH2 0x4F4 CALLDATASIZE PUSH1 0x4 PUSH2 0x506B JUMP JUMPDEST PUSH2 0x1691 JUMP JUMPDEST PUSH1 0x40 MLOAD PUSH2 0x205 SWAP2 SWAP1 PUSH2 0x5BED JUMP JUMPDEST PUSH32 0x0 JUMPDEST SWAP1 JUMP JUMPDEST DUP2 PUSH2 0x539 JUMPI PUSH2 0x539 DUP2 PUSH2 0x16A6 JUMP JUMPDEST POP POP JUMP JUMPDEST PUSH2 0x545 PUSH2 0x16F9 JUMP JUMPDEST PUSH2 0x54D PUSH2 0x1712 JUMP JUMPDEST PUSH2 0x556 DUP2 PUSH2 0x1740 JUMP JUMPDEST PUSH2 0x55E PUSH2 0x179C JUMP JUMPDEST POP JUMP JUMPDEST PUSH1 0x0 PUSH2 0x56B PUSH2 0x16F9 JUMP JUMPDEST PUSH2 0x573 PUSH2 0x17A3 JUMP JUMPDEST PUSH1 0x0 PUSH2 0x582 CALLER DUP5 PUSH1 0x6 SLOAD PUSH2 0x17B8 JUMP JUMPDEST PUSH1 0x0 DUP2 DUP2 MSTORE PUSH1 0x5 PUSH1 0x20 MSTORE PUSH1 0x40 SWAP1 KECCAK256 SLOAD SWAP1 SWAP2 POP PUSH2 0x5A4 SWAP1 PUSH1 0xFF AND ISZERO PUSH2 0x1F4 PUSH2 0x52B JUMP JUMPDEST PUSH1 0x0 DUP2 DUP2 MSTORE PUSH1 0x5 PUSH1 0x20 MSTORE PUSH1 0x40 SWAP1 DUP2 SWAP1 KECCAK256 DUP1 SLOAD PUSH1 0xFF NOT AND PUSH1 0x1 SWAP1 DUP2 OR SWAP1 SWAP2 SSTORE PUSH1 0x6 DUP1 SLOAD SWAP1 SWAP2 ADD SWAP1 SSTORE MLOAD CALLER SWAP1 DUP3 SWAP1 PUSH32 0x3C13BC30B8E878C53FD2A36B679409C073AFD75950BE43D8858768E956FBC20E SWAP1 PUSH2 0x5FD SWAP1 DUP8 SWAP1 PUSH2 0x5D0C JUMP JUMPDEST PUSH1 0x40 MLOAD DUP1 SWAP2 SUB SWAP1 LOG3 SWAP1 POP PUSH2 0x60F PUSH2 0x179C JUMP JUMPDEST SWAP2 SWAP1 POP JUMP JUMPDEST PUSH2 0x61C PUSH2 0x16F9 JUMP JUMPDEST PUSH1 0x0 DUP1 PUSH1 0x0 DUP1 JUMPDEST DUP5 MLOAD DUP2 LT ISZERO PUSH2 0x73B JUMPI PUSH1 0x0 DUP1 PUSH1 0x0 DUP1 PUSH1 0x0 PUSH2 0x651 DUP11 DUP8 DUP2 MLOAD DUP2 LT PUSH2 0x643 JUMPI INVALID JUMPDEST PUSH1 0x20 MUL PUSH1 0x20 ADD ADD MLOAD DUP10 PUSH2 0x17F7 JUMP JUMPDEST SWAP13 POP SWAP4 SWAP9 POP SWAP2 SWAP7 POP SWAP5 POP SWAP3 POP SWAP1 POP PUSH1 0x1 DUP6 PUSH1 0x3 DUP2 GT ISZERO PUSH2 0x66D JUMPI INVALID JUMPDEST EQ ISZERO PUSH2 0x684 JUMPI PUSH2 0x67F DUP5 DUP4 DUP4 DUP7 PUSH2 0x186F JUMP JUMPDEST PUSH2 0x72A JUMP JUMPDEST DUP7 PUSH2 0x696 JUMPI PUSH2 0x691 PUSH2 0x17A3 JUMP JUMPDEST PUSH1 0x1 SWAP7 POP JUMPDEST PUSH1 0x0 DUP6 PUSH1 0x3 DUP2 GT ISZERO PUSH2 0x6A4 JUMPI INVALID JUMPDEST EQ ISZERO PUSH2 0x6D5 JUMPI PUSH2 0x6B6 DUP5 DUP4 DUP4 DUP7 PUSH2 0x1892 JUMP JUMPDEST PUSH2 0x6BF DUP5 PUSH2 0x18B2 JUMP JUMPDEST ISZERO PUSH2 0x67F JUMPI PUSH2 0x6CE DUP10 DUP5 PUSH2 0x18BF JUMP JUMPDEST SWAP9 POP PUSH2 0x72A JUMP JUMPDEST PUSH2 0x6EA PUSH2 0x6E1 DUP6 PUSH2 0x18B2 JUMP JUMPDEST ISZERO PUSH2 0x207 PUSH2 0x52B JUMP JUMPDEST PUSH1 0x0 PUSH2 0x6F5 DUP6 PUSH2 0x528 JUMP JUMPDEST SWAP1 POP PUSH1 0x2 DUP7 PUSH1 0x3 DUP2 GT ISZERO PUSH2 0x705 JUMPI INVALID JUMPDEST EQ ISZERO PUSH2 0x71C JUMPI PUSH2 0x717 DUP2 DUP5 DUP5 DUP8 PUSH2 0x18D1 JUMP JUMPDEST PUSH2 0x728 JUMP JUMPDEST PUSH2 0x728 DUP2 DUP5 DUP5 DUP8 PUSH2 0x18EA JUMP JUMPDEST POP JUMPDEST POP POP PUSH1 0x1 SWAP1 SWAP4 ADD SWAP3 POP PUSH2 0x623 SWAP2 POP POP JUMP JUMPDEST POP PUSH2 0x745 DUP4 PUSH2 0x1958 JUMP JUMPDEST POP POP POP PUSH2 0x55E PUSH2 0x179C JUMP JUMPDEST PUSH1 0x60 DUP2 MLOAD PUSH1 0x1 PUSH1 0x1 PUSH1 0x40 SHL SUB DUP2 GT DUP1 ISZERO PUSH2 0x769 JUMPI PUSH1 0x0 DUP1 REVERT JUMPDEST POP PUSH1 0x40 MLOAD SWAP1 DUP1 DUP3 MSTORE DUP1 PUSH1 0x20 MUL PUSH1 0x20 ADD DUP3 ADD PUSH1 0x40 MSTORE DUP1 ISZERO PUSH2 0x793 JUMPI DUP2 PUSH1 0x20 ADD PUSH1 0x20 DUP3 MUL DUP1 CALLDATASIZE DUP4 CALLDATACOPY ADD SWAP1 POP JUMPDEST POP SWAP1 POP PUSH1 0x0 JUMPDEST DUP3 MLOAD DUP2 LT ISZERO PUSH2 0x7DE JUMPI PUSH2 0x7BF DUP5 DUP5 DUP4 DUP2 MLOAD DUP2 LT PUSH2 0x7B2 JUMPI INVALID JUMPDEST PUSH1 0x20 MUL PUSH1 0x20 ADD ADD MLOAD PUSH2 0x197B JUMP JUMPDEST DUP3 DUP3 DUP2 MLOAD DUP2 LT PUSH2 0x7CB JUMPI INVALID JUMPDEST PUSH1 0x20 SWAP1 DUP2 MUL SWAP2 SWAP1 SWAP2 ADD ADD MSTORE PUSH1 0x1 ADD PUSH2 0x799 JUMP JUMPDEST POP SWAP3 SWAP2 POP POP JUMP JUMPDEST PUSH2 0x7ED PUSH2 0x16F9 JUMP JUMPDEST PUSH2 0x7F5 PUSH2 0x1712 JUMP JUMPDEST PUSH2 0x556 DUP2 PUSH2 0x19A6 JUMP JUMPDEST PUSH1 0x0 DUP1 PUSH1 0x0 PUSH2 0x80B PUSH2 0x1A24 JUMP JUMPDEST ISZERO SWAP3 POP PUSH2 0x816 PUSH2 0x1A41 JUMP JUMPDEST SWAP2 POP PUSH2 0x820 PUSH2 0x1A65 JUMP JUMPDEST SWAP1 POP SWAP1 SWAP2 SWAP3 JUMP JUMPDEST PUSH1 0x0 PUSH2 0x831 PUSH2 0x16F9 JUMP JUMPDEST PUSH2 0x839 PUSH2 0x17A3 JUMP JUMPDEST DUP4 MLOAD PUSH2 0x844 DUP2 PUSH2 0x1A89 JUMP JUMPDEST PUSH2 0x853 DUP4 TIMESTAMP GT ISZERO PUSH2 0x1FC PUSH2 0x52B JUMP JUMPDEST PUSH2 0x866 PUSH1 0x0 DUP8 PUSH1 0x80 ADD MLOAD GT PUSH2 0x1FE PUSH2 0x52B JUMP JUMPDEST PUSH1 0x0 PUSH2 0x875 DUP8 PUSH1 0x40 ADD MLOAD PUSH2 0x1ABB JUMP JUMPDEST SWAP1 POP PUSH1 0x0 PUSH2 0x886 DUP9 PUSH1 0x60 ADD MLOAD PUSH2 0x1ABB JUMP JUMPDEST SWAP1 POP PUSH2 0x8A9 DUP2 PUSH1 0x1 PUSH1 0x1 PUSH1 0xA0 SHL SUB AND DUP4 PUSH1 0x1 PUSH1 0x1 PUSH1 0xA0 SHL SUB AND EQ ISZERO PUSH2 0x1FD PUSH2 0x52B JUMP JUMPDEST PUSH2 0x8B1 PUSH2 0x4BDC JUMP JUMPDEST DUP9 MLOAD PUSH1 0x80 DUP3 ADD MSTORE PUSH1 0x20 DUP10 ADD MLOAD DUP2 SWAP1 PUSH1 0x1 DUP2 GT ISZERO PUSH2 0x8CA JUMPI INVALID JUMPDEST SWAP1 DUP2 PUSH1 0x1 DUP2 GT ISZERO PUSH2 0x8D7 JUMPI INVALID JUMPDEST SWAP1 MSTORE POP PUSH1 0x1 PUSH1 0x1 PUSH1 0xA0 SHL SUB DUP1 DUP5 AND PUSH1 0x20 DUP4 ADD MSTORE DUP3 DUP2 AND PUSH1 0x40 DUP1 DUP5 ADD SWAP2 SWAP1 SWAP2 MSTORE PUSH1 0x80 DUP12 ADD MLOAD PUSH1 0x60 DUP5 ADD MSTORE PUSH1 0xA0 DUP12 ADD MLOAD PUSH2 0x100 DUP5 ADD MSTORE DUP10 MLOAD DUP3 AND PUSH1 0xC0 DUP5 ADD MSTORE DUP10 ADD MLOAD AND PUSH1 0xE0 DUP3 ADD MSTORE PUSH1 0x0 DUP1 PUSH2 0x929 DUP4 PUSH2 0x1AE0 JUMP JUMPDEST SWAP2 SWAP9 POP SWAP3 POP SWAP1 POP PUSH2 0x960 PUSH1 0x0 DUP13 PUSH1 0x20 ADD MLOAD PUSH1 0x1 DUP2 GT ISZERO PUSH2 0x945 JUMPI INVALID JUMPDEST EQ PUSH2 0x953 JUMPI DUP10 DUP4 GT ISZERO PUSH2 0x958 JUMP JUMPDEST DUP10 DUP3 LT ISZERO JUMPDEST PUSH2 0x1FB PUSH2 0x52B JUMP JUMPDEST PUSH2 0x978 DUP12 PUSH1 0x40 ADD MLOAD DUP4 DUP13 PUSH1 0x0 ADD MLOAD DUP14 PUSH1 0x20 ADD MLOAD PUSH2 0x1BD4 JUMP JUMPDEST PUSH2 0x990 DUP12 PUSH1 0x60 ADD MLOAD DUP3 DUP13 PUSH1 0x40 ADD MLOAD DUP14 PUSH1 0x60 ADD MLOAD PUSH2 0x1CB2 JUMP JUMPDEST PUSH2 0x9B2 PUSH2 0x9A0 DUP13 PUSH1 0x40 ADD MLOAD PUSH2 0x18B2 JUMP JUMPDEST PUSH2 0x9AB JUMPI PUSH1 0x0 PUSH2 0x9AD JUMP JUMPDEST DUP3 JUMPDEST PUSH2 0x1958 JUMP JUMPDEST POP POP POP POP POP POP PUSH2 0x9C0 PUSH2 0x179C JUMP JUMPDEST SWAP5 SWAP4 POP POP POP POP JUMP JUMPDEST PUSH2 0x9D0 PUSH2 0x16F9 JUMP JUMPDEST PUSH2 0x9D8 PUSH2 0x17A3 JUMP JUMPDEST PUSH2 0x9E4 DUP4 MLOAD DUP4 MLOAD PUSH2 0x1D8C JUMP JUMPDEST PUSH1 0x60 DUP4 MLOAD PUSH1 0x1 PUSH1 0x1 PUSH1 0x40 SHL SUB DUP2 GT DUP1 ISZERO PUSH2 0x9FD JUMPI PUSH1 0x0 DUP1 REVERT JUMPDEST POP PUSH1 0x40 MLOAD SWAP1 DUP1 DUP3 MSTORE DUP1 PUSH1 0x20 MUL PUSH1 0x20 ADD DUP3 ADD PUSH1 0x40 MSTORE DUP1 ISZERO PUSH2 0xA27 JUMPI DUP2 PUSH1 0x20 ADD PUSH1 0x20 DUP3 MUL DUP1 CALLDATASIZE DUP4 CALLDATACOPY ADD SWAP1 POP JUMPDEST POP SWAP1 POP PUSH1 0x60 DUP5 MLOAD PUSH1 0x1 PUSH1 0x1 PUSH1 0x40 SHL SUB DUP2 GT DUP1 ISZERO PUSH2 0xA43 JUMPI PUSH1 0x0 DUP1 REVERT JUMPDEST POP PUSH1 0x40 MLOAD SWAP1 DUP1 DUP3 MSTORE DUP1 PUSH1 0x20 MUL PUSH1 0x20 ADD DUP3 ADD PUSH1 0x40 MSTORE DUP1 ISZERO PUSH2 0xA6D JUMPI DUP2 PUSH1 0x20 ADD PUSH1 0x20 DUP3 MUL DUP1 CALLDATASIZE DUP4 CALLDATACOPY ADD SWAP1 POP JUMPDEST POP SWAP1 POP PUSH1 0x0 DUP1 JUMPDEST DUP7 MLOAD DUP2 LT ISZERO PUSH2 0xBE6 JUMPI PUSH1 0x0 DUP8 DUP3 DUP2 MLOAD DUP2 LT PUSH2 0xA8B JUMPI INVALID JUMPDEST PUSH1 0x20 MUL PUSH1 0x20 ADD ADD MLOAD SWAP1 POP PUSH1 0x0 DUP8 DUP4 DUP2 MLOAD DUP2 LT PUSH2 0xAA3 JUMPI INVALID JUMPDEST PUSH1 0x20 MUL PUSH1 0x20 ADD ADD MLOAD SWAP1 POP PUSH2 0xAEE DUP5 PUSH1 0x1 PUSH1 0x1 PUSH1 0xA0 SHL SUB AND DUP4 PUSH1 0x1 PUSH1 0x1 PUSH1 0xA0 SHL SUB AND GT PUSH1 0x0 PUSH1 0x1 PUSH1 0x1 PUSH1 0xA0 SHL SUB AND DUP5 PUSH1 0x1 PUSH1 0x1 PUSH1 0xA0 SHL SUB AND EQ PUSH2 0xAE6 JUMPI PUSH1 0x66 PUSH2 0xAE9 JUMP JUMPDEST PUSH1 0x68 JUMPDEST PUSH2 0x52B JUMP JUMPDEST DUP2 SWAP4 POP DUP2 PUSH1 0x1 PUSH1 0x1 PUSH1 0xA0 SHL SUB AND PUSH4 0x70A08231 ADDRESS PUSH1 0x40 MLOAD DUP3 PUSH4 0xFFFFFFFF AND PUSH1 0xE0 SHL DUP2 MSTORE PUSH1 0x4 ADD PUSH2 0xB1D SWAP2 SWAP1 PUSH2 0x5A35 JUMP JUMPDEST PUSH1 0x20 PUSH1 0x40 MLOAD DUP1 DUP4 SUB DUP2 DUP7 DUP1 EXTCODESIZE ISZERO DUP1 ISZERO PUSH2 0xB35 JUMPI PUSH1 0x0 DUP1 REVERT JUMPDEST POP GAS STATICCALL ISZERO DUP1 ISZERO PUSH2 0xB49 JUMPI RETURNDATASIZE PUSH1 0x0 DUP1 RETURNDATACOPY RETURNDATASIZE PUSH1 0x0 REVERT JUMPDEST POP POP POP POP PUSH1 0x40 MLOAD RETURNDATASIZE PUSH1 0x1F NOT PUSH1 0x1F DUP3 ADD AND DUP3 ADD DUP1 PUSH1 0x40 MSTORE POP DUP2 ADD SWAP1 PUSH2 0xB6D SWAP2 SWAP1 PUSH2 0x5855 JUMP JUMPDEST DUP6 DUP5 DUP2 MLOAD DUP2 LT PUSH2 0xB79 JUMPI INVALID JUMPDEST PUSH1 0x20 MUL PUSH1 0x20 ADD ADD DUP2 DUP2 MSTORE POP POP PUSH2 0xB8E DUP2 PUSH2 0x1D99 JUMP JUMPDEST DUP7 DUP5 DUP2 MLOAD DUP2 LT PUSH2 0xB9A JUMPI INVALID JUMPDEST PUSH1 0x20 MUL PUSH1 0x20 ADD ADD DUP2 DUP2 MSTORE POP POP PUSH2 0xBC8 DUP2 DUP7 DUP6 DUP2 MLOAD DUP2 LT PUSH2 0xBB6 JUMPI INVALID JUMPDEST PUSH1 0x20 MUL PUSH1 0x20 ADD ADD MLOAD LT ISZERO PUSH2 0x210 PUSH2 0x52B JUMP JUMPDEST PUSH2 0xBDC PUSH1 0x1 PUSH1 0x1 PUSH1 0xA0 SHL SUB DUP4 AND DUP12 DUP4 PUSH2 0x1E20 JUMP JUMPDEST POP POP PUSH1 0x1 ADD PUSH2 0xA74 JUMP JUMPDEST POP PUSH1 0x40 MLOAD PUSH4 0xF04F2707 PUSH1 0xE0 SHL DUP2 MSTORE PUSH1 0x1 PUSH1 0x1 PUSH1 0xA0 SHL SUB DUP9 AND SWAP1 PUSH4 0xF04F2707 SWAP1 PUSH2 0xC19 SWAP1 DUP10 SWAP1 DUP10 SWAP1 DUP9 SWAP1 DUP11 SWAP1 PUSH1 0x4 ADD PUSH2 0x5B57 JUMP JUMPDEST PUSH1 0x0 PUSH1 0x40 MLOAD DUP1 DUP4 SUB DUP2 PUSH1 0x0 DUP8 DUP1 EXTCODESIZE ISZERO DUP1 ISZERO PUSH2 0xC33 JUMPI PUSH1 0x0 DUP1 REVERT JUMPDEST POP GAS CALL ISZERO DUP1 ISZERO PUSH2 0xC47 JUMPI RETURNDATASIZE PUSH1 0x0 DUP1 RETURNDATACOPY RETURNDATASIZE PUSH1 0x0 REVERT JUMPDEST POP POP POP POP PUSH1 0x0 JUMPDEST DUP7 MLOAD DUP2 LT ISZERO PUSH2 0xDB8 JUMPI PUSH1 0x0 DUP8 DUP3 DUP2 MLOAD DUP2 LT PUSH2 0xC65 JUMPI INVALID JUMPDEST PUSH1 0x20 MUL PUSH1 0x20 ADD ADD MLOAD SWAP1 POP PUSH1 0x0 DUP5 DUP4 DUP2 MLOAD DUP2 LT PUSH2 0xC7D JUMPI INVALID JUMPDEST PUSH1 0x20 MUL PUSH1 0x20 ADD ADD MLOAD SWAP1 POP PUSH1 0x0 DUP3 PUSH1 0x1 PUSH1 0x1 PUSH1 0xA0 SHL SUB AND PUSH4 0x70A08231 ADDRESS PUSH1 0x40 MLOAD DUP3 PUSH4 0xFFFFFFFF AND PUSH1 0xE0 SHL DUP2 MSTORE PUSH1 0x4 ADD PUSH2 0xCB5 SWAP2 SWAP1 PUSH2 0x5A35 JUMP JUMPDEST PUSH1 0x20 PUSH1 0x40 MLOAD DUP1 DUP4 SUB DUP2 DUP7 DUP1 EXTCODESIZE ISZERO DUP1 ISZERO PUSH2 0xCCD JUMPI PUSH1 0x0 DUP1 REVERT JUMPDEST POP GAS STATICCALL ISZERO DUP1 ISZERO PUSH2 0xCE1 JUMPI RETURNDATASIZE PUSH1 0x0 DUP1 RETURNDATACOPY RETURNDATASIZE PUSH1 0x0 REVERT JUMPDEST POP POP POP POP PUSH1 0x40 MLOAD RETURNDATASIZE PUSH1 0x1F NOT PUSH1 0x1F DUP3 ADD AND DUP3 ADD DUP1 PUSH1 0x40 MSTORE POP DUP2 ADD SWAP1 PUSH2 0xD05 SWAP2 SWAP1 PUSH2 0x5855 JUMP JUMPDEST SWAP1 POP PUSH2 0xD16 DUP3 DUP3 LT ISZERO PUSH2 0x203 PUSH2 0x52B JUMP JUMPDEST PUSH1 0x0 DUP3 DUP3 SUB SWAP1 POP PUSH2 0xD3F DUP9 DUP7 DUP2 MLOAD DUP2 LT PUSH2 0xD2C JUMPI INVALID JUMPDEST PUSH1 0x20 MUL PUSH1 0x20 ADD ADD MLOAD DUP3 LT ISZERO PUSH2 0x25A PUSH2 0x52B JUMP JUMPDEST PUSH2 0xD49 DUP5 DUP3 PUSH2 0x1E76 JUMP JUMPDEST DUP4 PUSH1 0x1 PUSH1 0x1 PUSH1 0xA0 SHL SUB AND DUP13 PUSH1 0x1 PUSH1 0x1 PUSH1 0xA0 SHL SUB AND PUSH32 0xD7D75E01AB95780D3CD1C8EC0DD6C2CE19E3A20427EEC8BF53283B6FB8E95F0 DUP13 DUP9 DUP2 MLOAD DUP2 LT PUSH2 0xD8A JUMPI INVALID JUMPDEST PUSH1 0x20 MUL PUSH1 0x20 ADD ADD MLOAD DUP5 PUSH1 0x40 MLOAD PUSH2 0xDA1 SWAP3 SWAP2 SWAP1 PUSH2 0x5D1F JUMP JUMPDEST PUSH1 0x40 MLOAD DUP1 SWAP2 SUB SWAP1 LOG3 POP POP POP POP DUP1 PUSH1 0x1 ADD SWAP1 POP PUSH2 0xC4E JUMP JUMPDEST POP POP POP POP PUSH2 0xDC4 PUSH2 0x179C JUMP JUMPDEST POP POP POP POP JUMP JUMPDEST PUSH2 0xDD2 PUSH2 0x16F9 JUMP JUMPDEST PUSH2 0xDDA PUSH2 0x17A3 JUMP JUMPDEST DUP3 PUSH2 0xDE4 DUP2 PUSH2 0x1E98 JUMP JUMPDEST PUSH2 0xDF0 DUP4 MLOAD DUP4 MLOAD PUSH2 0x1D8C JUMP JUMPDEST PUSH1 0x0 JUMPDEST DUP4 MLOAD DUP2 LT ISZERO PUSH2 0xE8E JUMPI PUSH1 0x0 DUP5 DUP3 DUP2 MLOAD DUP2 LT PUSH2 0xE0A JUMPI INVALID JUMPDEST PUSH1 0x20 MUL PUSH1 0x20 ADD ADD MLOAD SWAP1 POP PUSH2 0xE36 PUSH1 0x0 PUSH1 0x1 PUSH1 0x1 PUSH1 0xA0 SHL SUB AND DUP3 PUSH1 0x1 PUSH1 0x1 PUSH1 0xA0 SHL SUB AND EQ ISZERO PUSH2 0x135 PUSH2 0x52B JUMP JUMPDEST DUP4 DUP3 DUP2 MLOAD DUP2 LT PUSH2 0xE42 JUMPI INVALID JUMPDEST PUSH1 0x20 SWAP1 DUP2 MUL SWAP2 SWAP1 SWAP2 ADD DUP2 ADD MLOAD PUSH1 0x0 DUP9 DUP2 MSTORE PUSH1 0xA DUP4 MSTORE PUSH1 0x40 DUP1 DUP3 KECCAK256 PUSH1 0x1 PUSH1 0x1 PUSH1 0xA0 SHL SUB SWAP6 DUP7 AND DUP4 MSTORE SWAP1 SWAP4 MSTORE SWAP2 SWAP1 SWAP2 KECCAK256 DUP1 SLOAD PUSH1 0x1 PUSH1 0x1 PUSH1 0xA0 SHL SUB NOT AND SWAP3 SWAP1 SWAP2 AND SWAP2 SWAP1 SWAP2 OR SWAP1 SSTORE PUSH1 0x1 ADD PUSH2 0xDF3 JUMP JUMPDEST POP PUSH1 0x0 PUSH2 0xE9A DUP6 PUSH2 0x1EC9 JUMP JUMPDEST SWAP1 POP PUSH1 0x2 DUP2 PUSH1 0x2 DUP2 GT ISZERO PUSH2 0xEAA JUMPI INVALID JUMPDEST EQ ISZERO PUSH2 0xEF8 JUMPI PUSH2 0xEC0 DUP5 MLOAD PUSH1 0x2 EQ PUSH2 0x20C PUSH2 0x52B JUMP JUMPDEST PUSH2 0xEF3 DUP6 DUP6 PUSH1 0x0 DUP2 MLOAD DUP2 LT PUSH2 0xED1 JUMPI INVALID JUMPDEST PUSH1 0x20 MUL PUSH1 0x20 ADD ADD MLOAD DUP7 PUSH1 0x1 DUP2 MLOAD DUP2 LT PUSH2 0xEE6 JUMPI INVALID JUMPDEST PUSH1 0x20 MUL PUSH1 0x20 ADD ADD MLOAD PUSH2 0x1EE3 JUMP JUMPDEST PUSH2 0xF20 JUMP JUMPDEST PUSH1 0x1 DUP2 PUSH1 0x2 DUP2 GT ISZERO PUSH2 0xF06 JUMPI INVALID JUMPDEST EQ ISZERO PUSH2 0xF16 JUMPI PUSH2 0xEF3 DUP6 DUP6 PUSH2 0x1F8F JUMP JUMPDEST PUSH2 0xF20 DUP6 DUP6 PUSH2 0x1FE7 JUMP JUMPDEST DUP5 PUSH32 0xF5847D3F2197B16CDCD2098EC95D0905CD1ABDAF415F07BB7CEF2BBA8AC5DEC4 DUP6 DUP6 PUSH1 0x40 MLOAD PUSH2 0xF52 SWAP3 SWAP2 SWAP1 PUSH2 0x5ABF JUMP JUMPDEST PUSH1 0x40 MLOAD DUP1 SWAP2 SUB SWAP1 LOG2 POP POP PUSH2 0xF64 PUSH2 0x179C JUMP JUMPDEST POP POP POP JUMP JUMPDEST PUSH2 0xF71 PUSH2 0x16F9 JUMP JUMPDEST PUSH2 0xF79 PUSH2 0x17A3 JUMP JUMPDEST DUP2 PUSH2 0xF83 DUP2 PUSH2 0x1E98 JUMP JUMPDEST PUSH1 0x0 PUSH2 0xF8E DUP5 PUSH2 0x1EC9 JUMP JUMPDEST SWAP1 POP PUSH1 0x2 DUP2 PUSH1 0x2 DUP2 GT ISZERO PUSH2 0xF9E JUMPI INVALID JUMPDEST EQ ISZERO PUSH2 0xFEC JUMPI PUSH2 0xFB4 DUP4 MLOAD PUSH1 0x2 EQ PUSH2 0x20C PUSH2 0x52B JUMP JUMPDEST PUSH2 0xFE7 DUP5 DUP5 PUSH1 0x0 DUP2 MLOAD DUP2 LT PUSH2 0xFC5 JUMPI INVALID JUMPDEST PUSH1 0x20 MUL PUSH1 0x20 ADD ADD MLOAD DUP6 PUSH1 0x1 DUP2 MLOAD DUP2 LT PUSH2 0xFDA JUMPI INVALID JUMPDEST PUSH1 0x20 MUL PUSH1 0x20 ADD ADD MLOAD PUSH2 0x203C JUMP JUMPDEST PUSH2 0x1014 JUMP JUMPDEST PUSH1 0x1 DUP2 PUSH1 0x2 DUP2 GT ISZERO PUSH2 0xFFA JUMPI INVALID JUMPDEST EQ ISZERO PUSH2 0x100A JUMPI PUSH2 0xFE7 DUP5 DUP5 PUSH2 0x20AA JUMP JUMPDEST PUSH2 0x1014 DUP5 DUP5 PUSH2 0x2164 JUMP JUMPDEST PUSH1 0x0 JUMPDEST DUP4 MLOAD DUP2 LT ISZERO PUSH2 0x107A JUMPI PUSH1 0xA PUSH1 0x0 DUP7 DUP2 MSTORE PUSH1 0x20 ADD SWAP1 DUP2 MSTORE PUSH1 0x20 ADD PUSH1 0x0 KECCAK256 PUSH1 0x0 DUP6 DUP4 DUP2 MLOAD DUP2 LT PUSH2 0x1041 JUMPI INVALID JUMPDEST PUSH1 0x20 SWAP1 DUP2 MUL SWAP2 SWAP1 SWAP2 ADD DUP2 ADD MLOAD PUSH1 0x1 PUSH1 0x1 PUSH1 0xA0 SHL SUB AND DUP3 MSTORE DUP2 ADD SWAP2 SWAP1 SWAP2 MSTORE PUSH1 0x40 ADD PUSH1 0x0 KECCAK256 DUP1 SLOAD PUSH1 0x1 PUSH1 0x1 PUSH1 0xA0 SHL SUB NOT AND SWAP1 SSTORE PUSH1 0x1 ADD PUSH2 0x1017 JUMP JUMPDEST POP DUP4 PUSH32 0x7DCDC6D02EF40C7C1A7046A011B058BD7F988FA14E20A66344F9D4E60657D610 DUP5 PUSH1 0x40 MLOAD PUSH2 0x10AB SWAP2 SWAP1 PUSH2 0x5AAC JUMP JUMPDEST PUSH1 0x40 MLOAD DUP1 SWAP2 SUB SWAP1 LOG2 POP POP PUSH2 0x539 PUSH2 0x179C JUMP JUMPDEST PUSH1 0x0 PUSH32 0x0 DUP3 PUSH1 0x40 MLOAD PUSH1 0x20 ADD PUSH2 0x10F2 SWAP3 SWAP2 SWAP1 PUSH2 0x59AF JUMP JUMPDEST PUSH1 0x40 MLOAD PUSH1 0x20 DUP2 DUP4 SUB SUB DUP2 MSTORE SWAP1 PUSH1 0x40 MSTORE DUP1 MLOAD SWAP1 PUSH1 0x20 ADD KECCAK256 SWAP1 POP SWAP2 SWAP1 POP JUMP JUMPDEST PUSH2 0xDC4 PUSH1 0x1 DUP6 DUP6 DUP6 PUSH2 0x1120 DUP7 PUSH2 0x21C7 JUMP JUMPDEST PUSH2 0x21D3 JUMP JUMPDEST PUSH1 0x1 PUSH1 0x1 PUSH1 0xA0 SHL SUB AND PUSH1 0x0 SWAP1 DUP2 MSTORE PUSH1 0x2 PUSH1 0x20 MSTORE PUSH1 0x40 SWAP1 KECCAK256 SLOAD SWAP1 JUMP JUMPDEST PUSH1 0x60 PUSH2 0x114A PUSH2 0x16F9 JUMP JUMPDEST PUSH2 0x1152 PUSH2 0x17A3 JUMP JUMPDEST DUP4 MLOAD PUSH2 0x115D DUP2 PUSH2 0x1A89 JUMP JUMPDEST PUSH2 0x116C DUP4 TIMESTAMP GT ISZERO PUSH2 0x1FC PUSH2 0x52B JUMP JUMPDEST PUSH2 0x1178 DUP7 MLOAD DUP6 MLOAD PUSH2 0x1D8C JUMP JUMPDEST PUSH2 0x1184 DUP8 DUP8 DUP8 DUP12 PUSH2 0x2359 JUMP JUMPDEST SWAP2 POP PUSH1 0x0 DUP1 JUMPDEST DUP8 MLOAD DUP2 LT ISZERO PUSH2 0x1256 JUMPI PUSH1 0x0 DUP9 DUP3 DUP2 MLOAD DUP2 LT PUSH2 0x11A1 JUMPI INVALID JUMPDEST PUSH1 0x20 MUL PUSH1 0x20 ADD ADD MLOAD SWAP1 POP PUSH1 0x0 DUP6 DUP4 DUP2 MLOAD DUP2 LT PUSH2 0x11B9 JUMPI INVALID JUMPDEST PUSH1 0x20 MUL PUSH1 0x20 ADD ADD MLOAD SWAP1 POP PUSH2 0x11E5 DUP9 DUP5 DUP2 MLOAD DUP2 LT PUSH2 0x11D2 JUMPI INVALID JUMPDEST PUSH1 0x20 MUL PUSH1 0x20 ADD ADD MLOAD DUP3 SGT ISZERO PUSH2 0x1FB PUSH2 0x52B JUMP JUMPDEST PUSH1 0x0 DUP2 SGT ISZERO PUSH2 0x1225 JUMPI DUP9 MLOAD PUSH1 0x20 DUP11 ADD MLOAD DUP3 SWAP2 PUSH2 0x1204 SWAP2 DUP6 SWAP2 DUP5 SWAP2 PUSH2 0x1BD4 JUMP JUMPDEST PUSH2 0x120D DUP4 PUSH2 0x18B2 JUMP JUMPDEST ISZERO PUSH2 0x121F JUMPI PUSH2 0x121C DUP6 DUP3 PUSH2 0x18BF JUMP JUMPDEST SWAP5 POP JUMPDEST POP PUSH2 0x124C JUMP JUMPDEST PUSH1 0x0 DUP2 SLT ISZERO PUSH2 0x124C JUMPI PUSH1 0x0 DUP2 PUSH1 0x0 SUB SWAP1 POP PUSH2 0x124A DUP4 DUP3 DUP13 PUSH1 0x40 ADD MLOAD DUP14 PUSH1 0x60 ADD MLOAD PUSH2 0x1CB2 JUMP JUMPDEST POP JUMPDEST POP POP PUSH1 0x1 ADD PUSH2 0x118A JUMP JUMPDEST POP PUSH2 0x1260 DUP2 PUSH2 0x1958 JUMP JUMPDEST POP POP PUSH2 0x126A PUSH2 0x179C JUMP JUMPDEST SWAP7 SWAP6 POP POP POP POP POP POP JUMP JUMPDEST PUSH1 0x3 SLOAD PUSH2 0x100 SWAP1 DIV PUSH1 0x1 PUSH1 0x1 PUSH1 0xA0 SHL SUB AND SWAP1 JUMP JUMPDEST PUSH1 0x0 PUSH2 0x1292 PUSH2 0x506 JUMP JUMPDEST SWAP1 POP SWAP1 JUMP JUMPDEST PUSH1 0x0 DUP1 PUSH1 0x0 DUP1 DUP6 PUSH2 0x12A7 DUP2 PUSH2 0x25E7 JUMP JUMPDEST PUSH1 0x0 DUP1 PUSH2 0x12B3 DUP10 PUSH2 0x1EC9 JUMP JUMPDEST SWAP1 POP PUSH1 0x2 DUP2 PUSH1 0x2 DUP2 GT ISZERO PUSH2 0x12C3 JUMPI INVALID JUMPDEST EQ ISZERO PUSH2 0x12DA JUMPI PUSH2 0x12D3 DUP10 DUP10 PUSH2 0x2605 JUMP JUMPDEST SWAP2 POP PUSH2 0x1305 JUMP JUMPDEST PUSH1 0x1 DUP2 PUSH1 0x2 DUP2 GT ISZERO PUSH2 0x12E8 JUMPI INVALID JUMPDEST EQ ISZERO PUSH2 0x12F8 JUMPI PUSH2 0x12D3 DUP10 DUP10 PUSH2 0x267F JUMP JUMPDEST PUSH2 0x1302 DUP10 DUP10 PUSH2 0x26ED JUMP JUMPDEST SWAP2 POP JUMPDEST PUSH2 0x130E DUP3 PUSH2 0x2705 JUMP JUMPDEST SWAP7 POP PUSH2 0x1319 DUP3 PUSH2 0x2711 JUMP JUMPDEST SWAP6 POP PUSH2 0x1324 DUP3 PUSH2 0x2720 JUMP JUMPDEST PUSH1 0x0 SWAP10 DUP11 MSTORE PUSH1 0xA PUSH1 0x20 SWAP1 DUP2 MSTORE PUSH1 0x40 DUP1 DUP13 KECCAK256 PUSH1 0x1 PUSH1 0x1 PUSH1 0xA0 SHL SUB SWAP12 DUP13 AND DUP14 MSTORE SWAP1 SWAP2 MSTORE SWAP1 SWAP10 KECCAK256 SLOAD SWAP7 SWAP10 SWAP6 SWAP9 SWAP8 SWAP7 SWAP1 SWAP7 AND SWAP6 POP POP POP POP POP JUMP JUMPDEST PUSH2 0x1362 PUSH2 0x17A3 JUMP JUMPDEST PUSH2 0xDC4 PUSH1 0x0 DUP6 DUP6 DUP6 PUSH2 0x1120 DUP7 PUSH2 0x21C7 JUMP JUMPDEST PUSH32 0x0 SWAP1 JUMP JUMPDEST PUSH2 0x139F PUSH2 0x16F9 JUMP JUMPDEST PUSH2 0x13A7 PUSH2 0x17A3 JUMP JUMPDEST PUSH2 0x13AF PUSH2 0x4C2C JUMP JUMPDEST PUSH1 0x0 JUMPDEST DUP3 MLOAD DUP2 LT ISZERO PUSH2 0x14A9 JUMPI DUP3 DUP2 DUP2 MLOAD DUP2 LT PUSH2 0x13C7 JUMPI INVALID JUMPDEST PUSH1 0x20 MUL PUSH1 0x20 ADD ADD MLOAD SWAP2 POP PUSH1 0x0 DUP3 PUSH1 0x20 ADD MLOAD SWAP1 POP PUSH2 0x13E3 DUP2 PUSH2 0x25E7 JUMP JUMPDEST PUSH1 0x40 DUP4 ADD MLOAD PUSH2 0x13FD PUSH2 0x13F5 DUP4 DUP4 PUSH2 0x2726 JUMP JUMPDEST PUSH2 0x209 PUSH2 0x52B JUMP JUMPDEST PUSH1 0x0 DUP3 DUP2 MSTORE PUSH1 0xA PUSH1 0x20 SWAP1 DUP2 MSTORE PUSH1 0x40 DUP1 DUP4 KECCAK256 PUSH1 0x1 PUSH1 0x1 PUSH1 0xA0 SHL SUB DUP6 DUP2 AND DUP6 MSTORE SWAP3 MSTORE SWAP1 SWAP2 KECCAK256 SLOAD PUSH2 0x1430 SWAP2 AND CALLER EQ PUSH2 0x1F6 PUSH2 0x52B JUMP JUMPDEST DUP4 MLOAD PUSH1 0x60 DUP6 ADD MLOAD PUSH1 0x0 DUP1 PUSH2 0x1446 DUP5 DUP8 DUP8 DUP7 PUSH2 0x2782 JUMP JUMPDEST SWAP2 POP SWAP2 POP DUP5 PUSH1 0x1 PUSH1 0x1 PUSH1 0xA0 SHL SUB AND CALLER PUSH1 0x1 PUSH1 0x1 PUSH1 0xA0 SHL SUB AND DUP8 PUSH32 0x6EDCAF6241105B4C94C2EFDBF3A6B12458EB3D07BE3A0E81D24B13C44045FE7A DUP6 DUP6 PUSH1 0x40 MLOAD PUSH2 0x1490 SWAP3 SWAP2 SWAP1 PUSH2 0x5D1F JUMP JUMPDEST PUSH1 0x40 MLOAD DUP1 SWAP2 SUB SWAP1 LOG4 POP POP POP POP POP POP DUP1 PUSH1 0x1 ADD SWAP1 POP PUSH2 0x13B2 JUMP JUMPDEST POP POP PUSH2 0x55E PUSH2 0x179C JUMP JUMPDEST PUSH1 0x0 PUSH2 0x1292 PUSH2 0x27F1 JUMP JUMPDEST PUSH1 0x0 DUP1 DUP3 PUSH2 0x14CA DUP2 PUSH2 0x25E7 JUMP JUMPDEST PUSH2 0x14D3 DUP5 PUSH2 0x288E JUMP JUMPDEST PUSH2 0x14DC DUP6 PUSH2 0x1EC9 JUMP JUMPDEST SWAP3 POP SWAP3 POP JUMPDEST POP SWAP2 POP SWAP2 JUMP JUMPDEST PUSH1 0x60 CALLER ADDRESS EQ PUSH2 0x15A1 JUMPI PUSH1 0x0 ADDRESS PUSH1 0x1 PUSH1 0x1 PUSH1 0xA0 SHL SUB AND PUSH1 0x0 CALLDATASIZE PUSH1 0x40 MLOAD PUSH2 0x150D SWAP3 SWAP2 SWAP1 PUSH2 0x59C7 JUMP JUMPDEST PUSH1 0x0 PUSH1 0x40 MLOAD DUP1 DUP4 SUB DUP2 PUSH1 0x0 DUP7 GAS CALL SWAP2 POP POP RETURNDATASIZE DUP1 PUSH1 0x0 DUP2 EQ PUSH2 0x154A JUMPI PUSH1 0x40 MLOAD SWAP2 POP PUSH1 0x1F NOT PUSH1 0x3F RETURNDATASIZE ADD AND DUP3 ADD PUSH1 0x40 MSTORE RETURNDATASIZE DUP3 MSTORE RETURNDATASIZE PUSH1 0x0 PUSH1 0x20 DUP5 ADD RETURNDATACOPY PUSH2 0x154F JUMP JUMPDEST PUSH1 0x60 SWAP2 POP JUMPDEST POP POP SWAP1 POP DUP1 PUSH1 0x0 DUP2 EQ PUSH2 0x155E JUMPI INVALID JUMPDEST PUSH1 0x4 PUSH1 0x0 DUP1 RETURNDATACOPY PUSH1 0x0 MLOAD PUSH1 0x1 PUSH1 0x1 PUSH1 0xE0 SHL SUB NOT AND PUSH4 0x7D30E609 PUSH1 0xE1 SHL DUP2 EQ PUSH2 0x1589 JUMPI RETURNDATASIZE PUSH1 0x0 DUP1 RETURNDATACOPY RETURNDATASIZE PUSH1 0x0 REVERT JUMPDEST POP PUSH1 0x20 PUSH1 0x0 MSTORE PUSH1 0x4 RETURNDATASIZE SUB DUP1 PUSH1 0x4 PUSH1 0x20 RETURNDATACOPY PUSH1 0x20 DUP2 ADD PUSH1 0x0 RETURN JUMPDEST PUSH1 0x60 PUSH2 0x15AF DUP6 DUP6 DUP6 DUP10 PUSH2 0x2359 JUMP JUMPDEST SWAP1 POP PUSH1 0x20 DUP2 MLOAD MUL PUSH4 0xFA61CC12 PUSH1 0x20 DUP4 SUB MSTORE PUSH1 0x4 DUP3 SUB PUSH1 0x24 DUP3 ADD DUP2 REVERT JUMPDEST PUSH1 0x60 DUP1 PUSH1 0x0 DUP4 PUSH2 0x15DA DUP2 PUSH2 0x25E7 JUMP JUMPDEST PUSH1 0x60 PUSH2 0x15E5 DUP7 PUSH2 0x2894 JUMP JUMPDEST SWAP1 SWAP6 POP SWAP1 POP PUSH2 0x15F3 DUP2 PUSH2 0x28F6 JUMP JUMPDEST SWAP6 SWAP8 SWAP1 SWAP7 POP SWAP4 POP POP POP POP JUMP JUMPDEST PUSH2 0x1607 PUSH2 0x16F9 JUMP JUMPDEST PUSH2 0x160F PUSH2 0x17A3 JUMP JUMPDEST DUP3 PUSH2 0x1619 DUP2 PUSH2 0x1A89 JUMP JUMPDEST PUSH1 0x1 PUSH1 0x1 PUSH1 0xA0 SHL SUB DUP5 DUP2 AND PUSH1 0x0 DUP2 DUP2 MSTORE PUSH1 0x4 PUSH1 0x20 SWAP1 DUP2 MSTORE PUSH1 0x40 DUP1 DUP4 KECCAK256 SWAP5 DUP9 AND DUP1 DUP5 MSTORE SWAP5 SWAP1 SWAP2 MSTORE SWAP1 DUP2 SWAP1 KECCAK256 DUP1 SLOAD PUSH1 0xFF NOT AND DUP7 ISZERO ISZERO OR SWAP1 SSTORE MLOAD SWAP1 SWAP2 SWAP1 PUSH32 0x46961FDB4502B646D5095FBA7600486A8AC05041D55CDF0F16ED677180B5CAD8 SWAP1 PUSH2 0x1680 SWAP1 DUP7 SWAP1 PUSH2 0x5BED JUMP JUMPDEST PUSH1 0x40 MLOAD DUP1 SWAP2 SUB SWAP1 LOG3 POP PUSH2 0xF64 PUSH2 0x179C JUMP JUMPDEST PUSH1 0x0 PUSH2 0x169D DUP4 DUP4 PUSH2 0x29A4 JUMP JUMPDEST SWAP1 POP JUMPDEST SWAP3 SWAP2 POP POP JUMP JUMPDEST PUSH3 0x461BCD PUSH1 0xE5 SHL PUSH1 0x0 SWAP1 DUP2 MSTORE PUSH1 0x20 PUSH1 0x4 MSTORE PUSH1 0x7 PUSH1 0x24 MSTORE PUSH7 0x42414C23000030 PUSH1 0xA DUP1 DUP5 DIV DUP2 DUP2 MOD PUSH1 0x30 SWAP1 DUP2 ADD PUSH1 0x8 SHL SWAP6 DUP4 SWAP1 MOD SWAP6 SWAP1 SWAP6 ADD SWAP1 DUP3 SWAP1 DIV SWAP2 DUP3 MOD SWAP1 SWAP5 ADD PUSH1 0x10 SHL SWAP4 SWAP1 SWAP4 ADD ADD PUSH1 0xC8 SHL PUSH1 0x44 MSTORE PUSH1 0x64 SWAP1 REVERT JUMPDEST PUSH2 0x170B PUSH1 0x2 PUSH1 0x0 SLOAD EQ ISZERO PUSH2 0x190 PUSH2 0x52B JUMP JUMPDEST PUSH1 0x2 PUSH1 0x0 SSTORE JUMP JUMPDEST PUSH1 0x0 PUSH2 0x1729 PUSH1 0x0 CALLDATALOAD PUSH1 0x1 PUSH1 0x1 PUSH1 0xE0 SHL SUB NOT AND PUSH2 0x10BD JUMP JUMPDEST SWAP1 POP PUSH2 0x55E PUSH2 0x1738 DUP3 CALLER PUSH2 0x29D2 JUMP JUMPDEST PUSH2 0x191 PUSH2 0x52B JUMP JUMPDEST PUSH1 0x40 MLOAD PUSH1 0x1 PUSH1 0x1 PUSH1 0xA0 SHL SUB DUP3 AND SWAP1 PUSH32 0x94B979B6831A51293E2641426F97747FEED46F17779FED9CD18D1ECEFCFE92EF SWAP1 PUSH1 0x0 SWAP1 LOG2 PUSH1 0x3 DUP1 SLOAD PUSH1 0x1 PUSH1 0x1 PUSH1 0xA0 SHL SUB SWAP1 SWAP3 AND PUSH2 0x100 MUL PUSH2 0x100 PUSH1 0x1 PUSH1 0xA8 SHL SUB NOT SWAP1 SWAP3 AND SWAP2 SWAP1 SWAP2 OR SWAP1 SSTORE JUMP JUMPDEST PUSH1 0x1 PUSH1 0x0 SSTORE JUMP JUMPDEST PUSH2 0x17B6 PUSH2 0x17AE PUSH2 0x1A24 JUMP JUMPDEST PUSH2 0x192 PUSH2 0x52B JUMP JUMPDEST JUMP JUMPDEST PUSH1 0x0 PUSH10 0xFFFFFFFFFFFFFFFFFFFF DUP3 AND PUSH1 0x50 DUP5 PUSH1 0x2 DUP2 GT ISZERO PUSH2 0x17D5 JUMPI INVALID JUMPDEST SWAP1 SHL OR PUSH1 0x60 DUP6 SWAP1 SHL PUSH12 0xFFFFFFFFFFFFFFFFFFFFFFFF NOT AND OR SWAP1 POP JUMPDEST SWAP4 SWAP3 POP POP POP JUMP JUMPDEST PUSH1 0x0 DUP1 PUSH1 0x0 DUP1 PUSH1 0x0 DUP1 PUSH1 0x0 DUP9 PUSH1 0x60 ADD MLOAD SWAP1 POP CALLER PUSH1 0x1 PUSH1 0x1 PUSH1 0xA0 SHL SUB AND DUP2 PUSH1 0x1 PUSH1 0x1 PUSH1 0xA0 SHL SUB AND EQ PUSH2 0x1849 JUMPI DUP8 PUSH2 0x1834 JUMPI PUSH2 0x182F PUSH2 0x1712 JUMP JUMPDEST PUSH1 0x1 SWAP8 POP JUMPDEST PUSH2 0x1849 PUSH2 0x1841 DUP3 CALLER PUSH2 0x29A4 JUMP JUMPDEST PUSH2 0x1F7 PUSH2 0x52B JUMP JUMPDEST DUP9 MLOAD PUSH1 0x20 DUP11 ADD MLOAD PUSH1 0x40 DUP12 ADD MLOAD PUSH1 0x80 SWAP1 SWAP12 ADD MLOAD SWAP2 SWAP12 SWAP1 SWAP11 SWAP10 SWAP3 SWAP9 POP SWAP1 SWAP7 POP SWAP1 SWAP5 POP SWAP3 POP POP POP JUMP JUMPDEST PUSH2 0x1884 DUP4 PUSH2 0x187C DUP7 PUSH2 0x1ABB JUMP JUMPDEST DUP4 PUSH1 0x0 PUSH2 0x2A5C JUMP JUMPDEST POP PUSH2 0xDC4 DUP5 DUP3 DUP5 PUSH1 0x0 PUSH2 0x1CB2 JUMP JUMPDEST PUSH2 0x18A5 DUP3 PUSH2 0x189F DUP7 PUSH2 0x1ABB JUMP JUMPDEST DUP4 PUSH2 0x2AB2 JUMP JUMPDEST PUSH2 0xDC4 DUP5 DUP3 DUP6 PUSH1 0x0 PUSH2 0x1BD4 JUMP JUMPDEST PUSH1 0x1 PUSH1 0x1 PUSH1 0xA0 SHL SUB AND ISZERO SWAP1 JUMP JUMPDEST PUSH1 0x0 DUP3 DUP3 ADD PUSH2 0x169D DUP5 DUP3 LT ISZERO DUP4 PUSH2 0x52B JUMP JUMPDEST PUSH2 0x18DE DUP4 DUP6 DUP4 PUSH1 0x0 PUSH2 0x2A5C JUMP JUMPDEST POP PUSH2 0xDC4 DUP3 DUP6 DUP4 PUSH2 0x2AB2 JUMP JUMPDEST DUP1 ISZERO PUSH2 0xDC4 JUMPI PUSH2 0x1905 PUSH1 0x1 PUSH1 0x1 PUSH1 0xA0 SHL SUB DUP6 AND DUP5 DUP5 DUP5 PUSH2 0x2AE2 JUMP JUMPDEST DUP3 PUSH1 0x1 PUSH1 0x1 PUSH1 0xA0 SHL SUB AND DUP5 PUSH1 0x1 PUSH1 0x1 PUSH1 0xA0 SHL SUB AND PUSH32 0x540A1A3F28340CAEC336C81D8D7B3DF139EE5CDC1839A4F283D7EBB7EAAE2D5C DUP5 DUP5 PUSH1 0x40 MLOAD PUSH2 0x194A SWAP3 SWAP2 SWAP1 PUSH2 0x5A93 JUMP JUMPDEST PUSH1 0x40 MLOAD DUP1 SWAP2 SUB SWAP1 LOG3 POP POP POP POP JUMP JUMPDEST PUSH2 0x1967 DUP2 CALLVALUE LT ISZERO PUSH2 0x204 PUSH2 0x52B JUMP JUMPDEST CALLVALUE DUP2 SWAP1 SUB DUP1 ISZERO PUSH2 0x539 JUMPI PUSH2 0x539 CALLER DUP3 PUSH2 0x2B03 JUMP JUMPDEST PUSH1 0x1 PUSH1 0x1 PUSH1 0xA0 SHL SUB SWAP2 DUP3 AND PUSH1 0x0 SWAP1 DUP2 MSTORE PUSH1 0xB PUSH1 0x20 SWAP1 DUP2 MSTORE PUSH1 0x40 DUP1 DUP4 KECCAK256 SWAP4 SWAP1 SWAP5 AND DUP3 MSTORE SWAP2 SWAP1 SWAP2 MSTORE KECCAK256 SLOAD SWAP1 JUMP JUMPDEST DUP1 ISZERO PUSH2 0x19C6 JUMPI PUSH2 0x19C1 PUSH2 0x19B7 PUSH2 0x1A41 JUMP JUMPDEST TIMESTAMP LT PUSH2 0x193 PUSH2 0x52B JUMP JUMPDEST PUSH2 0x19DB JUMP JUMPDEST PUSH2 0x19DB PUSH2 0x19D1 PUSH2 0x1A65 JUMP JUMPDEST TIMESTAMP LT PUSH2 0x1A9 PUSH2 0x52B JUMP JUMPDEST PUSH1 0x3 DUP1 SLOAD PUSH1 0xFF NOT AND DUP3 ISZERO ISZERO OR SWAP1 SSTORE PUSH1 0x40 MLOAD PUSH32 0x9E3A5E37224532DEA67B89FACE185703738A228A6E8A23DEE546960180D3BE64 SWAP1 PUSH2 0x1A19 SWAP1 DUP4 SWAP1 PUSH2 0x5BED JUMP JUMPDEST PUSH1 0x40 MLOAD DUP1 SWAP2 SUB SWAP1 LOG1 POP JUMP JUMPDEST PUSH1 0x0 PUSH2 0x1A2E PUSH2 0x1A65 JUMP JUMPDEST TIMESTAMP GT DUP1 PUSH2 0x1292 JUMPI POP POP PUSH1 0x3 SLOAD PUSH1 0xFF AND ISZERO SWAP1 JUMP JUMPDEST PUSH32 0x0 SWAP1 JUMP JUMPDEST PUSH32 0x0 SWAP1 JUMP JUMPDEST CALLER PUSH1 0x1 PUSH1 0x1 PUSH1 0xA0 SHL SUB DUP3 AND EQ PUSH2 0x55E JUMPI PUSH2 0x1AA1 PUSH2 0x1712 JUMP JUMPDEST PUSH2 0x1AAB DUP2 CALLER PUSH2 0x29A4 JUMP JUMPDEST PUSH2 0x55E JUMPI PUSH2 0x55E DUP2 PUSH2 0x1F7 PUSH2 0x2B7D JUMP JUMPDEST PUSH1 0x0 PUSH2 0x1AC6 DUP3 PUSH2 0x18B2 JUMP JUMPDEST PUSH2 0x1AD8 JUMPI PUSH2 0x1AD3 DUP3 PUSH2 0x528 JUMP JUMPDEST PUSH2 0x16A0 JUMP JUMPDEST PUSH2 0x16A0 PUSH2 0x506 JUMP JUMPDEST PUSH1 0x0 DUP1 PUSH1 0x0 DUP1 PUSH2 0x1AF3 DUP6 PUSH1 0x80 ADD MLOAD PUSH2 0x288E JUMP JUMPDEST SWAP1 POP PUSH1 0x0 PUSH2 0x1B04 DUP7 PUSH1 0x80 ADD MLOAD PUSH2 0x1EC9 JUMP JUMPDEST SWAP1 POP PUSH1 0x2 DUP2 PUSH1 0x2 DUP2 GT ISZERO PUSH2 0x1B14 JUMPI INVALID JUMPDEST EQ ISZERO PUSH2 0x1B2B JUMPI PUSH2 0x1B24 DUP7 DUP4 PUSH2 0x2BB1 JUMP JUMPDEST SWAP5 POP PUSH2 0x1B56 JUMP JUMPDEST PUSH1 0x1 DUP2 PUSH1 0x2 DUP2 GT ISZERO PUSH2 0x1B39 JUMPI INVALID JUMPDEST EQ ISZERO PUSH2 0x1B49 JUMPI PUSH2 0x1B24 DUP7 DUP4 PUSH2 0x2C61 JUMP JUMPDEST PUSH2 0x1B53 DUP7 DUP4 PUSH2 0x2CF4 JUMP JUMPDEST SWAP5 POP JUMPDEST PUSH2 0x1B69 DUP7 PUSH1 0x0 ADD MLOAD DUP8 PUSH1 0x60 ADD MLOAD DUP8 PUSH2 0x2F18 JUMP JUMPDEST DUP1 SWAP5 POP DUP2 SWAP6 POP POP POP DUP6 PUSH1 0x40 ADD MLOAD PUSH1 0x1 PUSH1 0x1 PUSH1 0xA0 SHL SUB AND DUP7 PUSH1 0x20 ADD MLOAD PUSH1 0x1 PUSH1 0x1 PUSH1 0xA0 SHL SUB AND DUP8 PUSH1 0x80 ADD MLOAD PUSH32 0x2170C741C41531AEC20E7C107C24EECFDD15E69C9BB0A8DD37B1840B9E0B207B DUP8 DUP8 PUSH1 0x40 MLOAD PUSH2 0x1BC3 SWAP3 SWAP2 SWAP1 PUSH2 0x5D1F JUMP JUMPDEST PUSH1 0x40 MLOAD DUP1 SWAP2 SUB SWAP1 LOG4 POP POP SWAP2 SWAP4 SWAP1 SWAP3 POP JUMP JUMPDEST DUP3 PUSH2 0x1BDE JUMPI PUSH2 0xDC4 JUMP JUMPDEST PUSH2 0x1BE7 DUP5 PUSH2 0x18B2 JUMP JUMPDEST ISZERO PUSH2 0x1C68 JUMPI PUSH2 0x1BF9 DUP2 ISZERO PUSH2 0x202 PUSH2 0x52B JUMP JUMPDEST PUSH2 0x1C08 DUP4 SELFBALANCE LT ISZERO PUSH2 0x204 PUSH2 0x52B JUMP JUMPDEST PUSH2 0x1C10 PUSH2 0x506 JUMP JUMPDEST PUSH1 0x1 PUSH1 0x1 PUSH1 0xA0 SHL SUB AND PUSH4 0xD0E30DB0 DUP5 PUSH1 0x40 MLOAD DUP3 PUSH4 0xFFFFFFFF AND PUSH1 0xE0 SHL DUP2 MSTORE PUSH1 0x4 ADD PUSH1 0x0 PUSH1 0x40 MLOAD DUP1 DUP4 SUB DUP2 DUP6 DUP9 DUP1 EXTCODESIZE ISZERO DUP1 ISZERO PUSH2 0x1C4A JUMPI PUSH1 0x0 DUP1 REVERT JUMPDEST POP GAS CALL ISZERO DUP1 ISZERO PUSH2 0x1C5E JUMPI RETURNDATASIZE PUSH1 0x0 DUP1 RETURNDATACOPY RETURNDATASIZE PUSH1 0x0 REVERT JUMPDEST POP POP POP POP POP PUSH2 0xDC4 JUMP JUMPDEST PUSH1 0x0 PUSH2 0x1C73 DUP6 PUSH2 0x528 JUMP JUMPDEST SWAP1 POP DUP2 ISZERO PUSH2 0x1C90 JUMPI PUSH1 0x0 PUSH2 0x1C8A DUP5 DUP4 DUP8 PUSH1 0x1 PUSH2 0x2A5C JUMP JUMPDEST SWAP1 SWAP5 SUB SWAP4 POP JUMPDEST DUP4 ISZERO PUSH2 0x1CAB JUMPI PUSH2 0x1CAB PUSH1 0x1 PUSH1 0x1 PUSH1 0xA0 SHL SUB DUP3 AND DUP5 ADDRESS DUP8 PUSH2 0x2AE2 JUMP JUMPDEST POP POP POP POP POP JUMP JUMPDEST DUP3 PUSH2 0x1CBC JUMPI PUSH2 0xDC4 JUMP JUMPDEST PUSH2 0x1CC5 DUP5 PUSH2 0x18B2 JUMP JUMPDEST ISZERO PUSH2 0x1D55 JUMPI PUSH2 0x1CD7 DUP2 ISZERO PUSH2 0x202 PUSH2 0x52B JUMP JUMPDEST PUSH2 0x1CDF PUSH2 0x506 JUMP JUMPDEST PUSH1 0x1 PUSH1 0x1 PUSH1 0xA0 SHL SUB AND PUSH4 0x2E1A7D4D DUP5 PUSH1 0x40 MLOAD DUP3 PUSH4 0xFFFFFFFF AND PUSH1 0xE0 SHL DUP2 MSTORE PUSH1 0x4 ADD PUSH2 0x1D0A SWAP2 SWAP1 PUSH2 0x5C10 JUMP JUMPDEST PUSH1 0x0 PUSH1 0x40 MLOAD DUP1 DUP4 SUB DUP2 PUSH1 0x0 DUP8 DUP1 EXTCODESIZE ISZERO DUP1 ISZERO PUSH2 0x1D24 JUMPI PUSH1 0x0 DUP1 REVERT JUMPDEST POP GAS CALL ISZERO DUP1 ISZERO PUSH2 0x1D38 JUMPI RETURNDATASIZE PUSH1 0x0 DUP1 RETURNDATACOPY RETURNDATASIZE PUSH1 0x0 REVERT JUMPDEST POP PUSH2 0x1D50 SWAP3 POP POP POP PUSH1 0x1 PUSH1 0x1 PUSH1 0xA0 SHL SUB DUP4 AND DUP5 PUSH2 0x2B03 JUMP JUMPDEST PUSH2 0xDC4 JUMP JUMPDEST PUSH1 0x0 PUSH2 0x1D60 DUP6 PUSH2 0x528 JUMP JUMPDEST SWAP1 POP DUP2 ISZERO PUSH2 0x1D78 JUMPI PUSH2 0x1D73 DUP4 DUP3 DUP7 PUSH2 0x2AB2 JUMP JUMPDEST PUSH2 0x1CAB JUMP JUMPDEST PUSH2 0x1CAB PUSH1 0x1 PUSH1 0x1 PUSH1 0xA0 SHL SUB DUP3 AND DUP5 DUP7 PUSH2 0x1E20 JUMP JUMPDEST PUSH2 0x539 DUP2 DUP4 EQ PUSH1 0x67 PUSH2 0x52B JUMP JUMPDEST PUSH1 0x0 DUP1 PUSH2 0x1DA4 PUSH2 0x1373 JUMP JUMPDEST PUSH1 0x1 PUSH1 0x1 PUSH1 0xA0 SHL SUB AND PUSH4 0xD877845C PUSH1 0x40 MLOAD DUP2 PUSH4 0xFFFFFFFF AND PUSH1 0xE0 SHL DUP2 MSTORE PUSH1 0x4 ADD PUSH1 0x20 PUSH1 0x40 MLOAD DUP1 DUP4 SUB DUP2 DUP7 DUP1 EXTCODESIZE ISZERO DUP1 ISZERO PUSH2 0x1DDC JUMPI PUSH1 0x0 DUP1 REVERT JUMPDEST POP GAS STATICCALL ISZERO DUP1 ISZERO PUSH2 0x1DF0 JUMPI RETURNDATASIZE PUSH1 0x0 DUP1 RETURNDATACOPY RETURNDATASIZE PUSH1 0x0 REVERT JUMPDEST POP POP POP POP PUSH1 0x40 MLOAD RETURNDATASIZE PUSH1 0x1F NOT PUSH1 0x1F DUP3 ADD AND DUP3 ADD DUP1 PUSH1 0x40 MSTORE POP DUP2 ADD SWAP1 PUSH2 0x1E14 SWAP2 SWAP1 PUSH2 0x5855 JUMP JUMPDEST SWAP1 POP PUSH2 0x17F0 DUP4 DUP3 PUSH2 0x2F46 JUMP JUMPDEST PUSH2 0xF64 DUP4 PUSH4 0xA9059CBB PUSH1 0xE0 SHL DUP5 DUP5 PUSH1 0x40 MLOAD PUSH1 0x24 ADD PUSH2 0x1E3F SWAP3 SWAP2 SWAP1 PUSH2 0x5A93 JUMP JUMPDEST PUSH1 0x40 DUP1 MLOAD PUSH1 0x1F NOT DUP2 DUP5 SUB ADD DUP2 MSTORE SWAP2 SWAP1 MSTORE PUSH1 0x20 DUP2 ADD DUP1 MLOAD PUSH1 0x1 PUSH1 0x1 PUSH1 0xE0 SHL SUB AND PUSH1 0x1 PUSH1 0x1 PUSH1 0xE0 SHL SUB NOT SWAP1 SWAP4 AND SWAP3 SWAP1 SWAP3 OR SWAP1 SWAP2 MSTORE PUSH2 0x2F93 JUMP JUMPDEST DUP1 ISZERO PUSH2 0x539 JUMPI PUSH2 0x539 PUSH2 0x1E87 PUSH2 0x1373 JUMP JUMPDEST PUSH1 0x1 PUSH1 0x1 PUSH1 0xA0 SHL SUB DUP5 AND SWAP1 DUP4 PUSH2 0x1E20 JUMP JUMPDEST PUSH2 0x1EA1 DUP2 PUSH2 0x25E7 JUMP JUMPDEST PUSH2 0x55E PUSH2 0x1EAD DUP3 PUSH2 0x288E JUMP JUMPDEST PUSH1 0x1 PUSH1 0x1 PUSH1 0xA0 SHL SUB AND CALLER PUSH1 0x1 PUSH1 0x1 PUSH1 0xA0 SHL SUB AND EQ PUSH2 0x1F5 PUSH2 0x52B JUMP JUMPDEST PUSH1 0x0 PUSH2 0xFFFF PUSH1 0x50 DUP4 SWAP1 SHR AND PUSH2 0x16A0 PUSH1 0x3 DUP3 LT PUSH2 0x1F4 PUSH2 0x52B JUMP JUMPDEST PUSH2 0x1F04 DUP2 PUSH1 0x1 PUSH1 0x1 PUSH1 0xA0 SHL SUB AND DUP4 PUSH1 0x1 PUSH1 0x1 PUSH1 0xA0 SHL SUB AND EQ ISZERO PUSH2 0x20A PUSH2 0x52B JUMP JUMPDEST PUSH2 0x1F23 DUP2 PUSH1 0x1 PUSH1 0x1 PUSH1 0xA0 SHL SUB AND DUP4 PUSH1 0x1 PUSH1 0x1 PUSH1 0xA0 SHL SUB AND LT PUSH1 0x66 PUSH2 0x52B JUMP JUMPDEST PUSH1 0x0 DUP4 DUP2 MSTORE PUSH1 0x9 PUSH1 0x20 MSTORE PUSH1 0x40 SWAP1 KECCAK256 DUP1 SLOAD PUSH2 0x1F60 SWAP1 PUSH1 0x1 PUSH1 0x1 PUSH1 0xA0 SHL SUB AND ISZERO DUP1 ISZERO PUSH2 0x1F58 JUMPI POP PUSH1 0x1 DUP3 ADD SLOAD PUSH1 0x1 PUSH1 0x1 PUSH1 0xA0 SHL SUB AND ISZERO JUMPDEST PUSH2 0x20B PUSH2 0x52B JUMP JUMPDEST DUP1 SLOAD PUSH1 0x1 PUSH1 0x1 PUSH1 0xA0 SHL SUB SWAP4 DUP5 AND PUSH1 0x1 PUSH1 0x1 PUSH1 0xA0 SHL SUB NOT SWAP2 DUP3 AND OR DUP3 SSTORE PUSH1 0x1 SWAP1 SWAP2 ADD DUP1 SLOAD SWAP3 SWAP1 SWAP4 AND SWAP2 AND OR SWAP1 SSTORE POP JUMP JUMPDEST PUSH1 0x0 DUP3 DUP2 MSTORE PUSH1 0x8 PUSH1 0x20 MSTORE PUSH1 0x40 DUP2 KECCAK256 SWAP1 JUMPDEST DUP3 MLOAD DUP2 LT ISZERO PUSH2 0xDC4 JUMPI PUSH1 0x0 PUSH2 0x1FD0 DUP5 DUP4 DUP2 MLOAD DUP2 LT PUSH2 0x1FB9 JUMPI INVALID JUMPDEST PUSH1 0x20 MUL PUSH1 0x20 ADD ADD MLOAD DUP5 PUSH2 0x3033 SWAP1 SWAP2 SWAP1 PUSH4 0xFFFFFFFF AND JUMP JUMPDEST SWAP1 POP PUSH2 0x1FDE DUP2 PUSH2 0x20A PUSH2 0x52B JUMP JUMPDEST POP PUSH1 0x1 ADD PUSH2 0x1F9F JUMP JUMPDEST PUSH1 0x0 DUP3 DUP2 MSTORE PUSH1 0x1 PUSH1 0x20 MSTORE PUSH1 0x40 DUP2 KECCAK256 SWAP1 JUMPDEST DUP3 MLOAD DUP2 LT ISZERO PUSH2 0xDC4 JUMPI PUSH1 0x0 PUSH2 0x2025 DUP5 DUP4 DUP2 MLOAD DUP2 LT PUSH2 0x2011 JUMPI INVALID JUMPDEST PUSH1 0x20 SWAP1 DUP2 MUL SWAP2 SWAP1 SWAP2 ADD ADD MLOAD DUP5 SWAP1 PUSH1 0x0 PUSH2 0x3096 JUMP JUMPDEST SWAP1 POP PUSH2 0x2033 DUP2 PUSH2 0x20A PUSH2 0x52B JUMP JUMPDEST POP PUSH1 0x1 ADD PUSH2 0x1FF7 JUMP JUMPDEST PUSH1 0x0 DUP1 PUSH1 0x0 PUSH2 0x204C DUP7 DUP7 DUP7 PUSH2 0x3143 JUMP JUMPDEST SWAP3 POP SWAP3 POP SWAP3 POP PUSH2 0x2076 PUSH2 0x205E DUP5 PUSH2 0x320A JUMP JUMPDEST DUP1 ISZERO PUSH2 0x206E JUMPI POP PUSH2 0x206E DUP4 PUSH2 0x320A JUMP JUMPDEST PUSH2 0x20D PUSH2 0x52B JUMP JUMPDEST PUSH1 0x0 SWAP6 DUP7 MSTORE PUSH1 0x9 PUSH1 0x20 MSTORE PUSH1 0x40 DUP7 KECCAK256 DUP1 SLOAD PUSH1 0x1 PUSH1 0x1 PUSH1 0xA0 SHL SUB NOT SWAP1 DUP2 AND DUP3 SSTORE PUSH1 0x1 SWAP1 SWAP2 ADD DUP1 SLOAD SWAP1 SWAP2 AND SWAP1 SSTORE SWAP5 SWAP1 SWAP5 SSTORE POP POP POP POP JUMP JUMPDEST PUSH1 0x0 DUP3 DUP2 MSTORE PUSH1 0x8 PUSH1 0x20 MSTORE PUSH1 0x40 DUP2 KECCAK256 SWAP1 JUMPDEST DUP3 MLOAD DUP2 LT ISZERO PUSH2 0xDC4 JUMPI PUSH1 0x0 DUP4 DUP3 DUP2 MLOAD DUP2 LT PUSH2 0x20D1 JUMPI INVALID JUMPDEST PUSH1 0x20 MUL PUSH1 0x20 ADD ADD MLOAD SWAP1 POP PUSH2 0x211D PUSH2 0x206E PUSH1 0x7 PUSH1 0x0 DUP9 DUP2 MSTORE PUSH1 0x20 ADD SWAP1 DUP2 MSTORE PUSH1 0x20 ADD PUSH1 0x0 KECCAK256 PUSH1 0x0 DUP5 PUSH1 0x1 PUSH1 0x1 PUSH1 0xA0 SHL SUB AND PUSH1 0x1 PUSH1 0x1 PUSH1 0xA0 SHL SUB AND DUP2 MSTORE PUSH1 0x20 ADD SWAP1 DUP2 MSTORE PUSH1 0x20 ADD PUSH1 0x0 KECCAK256 SLOAD PUSH2 0x320A JUMP JUMPDEST PUSH1 0x0 DUP6 DUP2 MSTORE PUSH1 0x7 PUSH1 0x20 SWAP1 DUP2 MSTORE PUSH1 0x40 DUP1 DUP4 KECCAK256 PUSH1 0x1 PUSH1 0x1 PUSH1 0xA0 SHL SUB DUP6 AND DUP5 MSTORE SWAP1 SWAP2 MSTORE DUP2 KECCAK256 DUP2 SWAP1 SSTORE PUSH2 0x214C DUP5 DUP4 PUSH2 0x3217 JUMP JUMPDEST SWAP1 POP PUSH2 0x215A DUP2 PUSH2 0x209 PUSH2 0x52B JUMP JUMPDEST POP POP PUSH1 0x1 ADD PUSH2 0x20BA JUMP JUMPDEST PUSH1 0x0 DUP3 DUP2 MSTORE PUSH1 0x1 PUSH1 0x20 MSTORE PUSH1 0x40 DUP2 KECCAK256 SWAP1 JUMPDEST DUP3 MLOAD DUP2 LT ISZERO PUSH2 0xDC4 JUMPI PUSH1 0x0 DUP4 DUP3 DUP2 MLOAD DUP2 LT PUSH2 0x218B JUMPI INVALID JUMPDEST PUSH1 0x20 MUL PUSH1 0x20 ADD ADD MLOAD SWAP1 POP PUSH1 0x0 PUSH2 0x21A1 DUP5 DUP4 PUSH2 0x3325 JUMP JUMPDEST SWAP1 POP PUSH2 0x21AF PUSH2 0x206E DUP3 PUSH2 0x320A JUMP JUMPDEST PUSH2 0x21B9 DUP5 DUP4 PUSH2 0x3334 JUMP JUMPDEST POP POP POP DUP1 PUSH1 0x1 ADD SWAP1 POP PUSH2 0x2174 JUMP JUMPDEST PUSH2 0x21CF PUSH2 0x4C55 JUMP JUMPDEST POP SWAP1 JUMP JUMPDEST PUSH2 0x21DB PUSH2 0x16F9 JUMP JUMPDEST DUP4 PUSH2 0x21E5 DUP2 PUSH2 0x25E7 JUMP JUMPDEST DUP4 PUSH2 0x21EF DUP2 PUSH2 0x1A89 JUMP JUMPDEST PUSH2 0x2203 DUP4 PUSH1 0x0 ADD MLOAD MLOAD DUP5 PUSH1 0x20 ADD MLOAD MLOAD PUSH2 0x1D8C JUMP JUMPDEST PUSH1 0x60 PUSH2 0x2212 DUP5 PUSH1 0x0 ADD MLOAD PUSH2 0x3406 JUMP JUMPDEST SWAP1 POP PUSH1 0x60 PUSH2 0x2220 DUP9 DUP4 PUSH2 0x3494 JUMP JUMPDEST SWAP1 POP PUSH1 0x60 DUP1 PUSH1 0x60 PUSH2 0x2235 DUP13 DUP13 DUP13 DUP13 DUP13 DUP10 PUSH2 0x3525 JUMP JUMPDEST SWAP3 POP SWAP3 POP SWAP3 POP PUSH1 0x0 PUSH2 0x2246 DUP13 PUSH2 0x1EC9 JUMP JUMPDEST SWAP1 POP PUSH1 0x2 DUP2 PUSH1 0x2 DUP2 GT ISZERO PUSH2 0x2256 JUMPI INVALID JUMPDEST EQ ISZERO PUSH2 0x22BE JUMPI PUSH2 0x22B9 DUP13 DUP8 PUSH1 0x0 DUP2 MLOAD DUP2 LT PUSH2 0x226D JUMPI INVALID JUMPDEST PUSH1 0x20 MUL PUSH1 0x20 ADD ADD MLOAD DUP7 PUSH1 0x0 DUP2 MLOAD DUP2 LT PUSH2 0x2282 JUMPI INVALID JUMPDEST PUSH1 0x20 MUL PUSH1 0x20 ADD ADD MLOAD DUP10 PUSH1 0x1 DUP2 MLOAD DUP2 LT PUSH2 0x2297 JUMPI INVALID JUMPDEST PUSH1 0x20 MUL PUSH1 0x20 ADD ADD MLOAD DUP9 PUSH1 0x1 DUP2 MLOAD DUP2 LT PUSH2 0x22AC JUMPI INVALID JUMPDEST PUSH1 0x20 MUL PUSH1 0x20 ADD ADD MLOAD PUSH2 0x36EA JUMP JUMPDEST PUSH2 0x22E7 JUMP JUMPDEST PUSH1 0x1 DUP2 PUSH1 0x2 DUP2 GT ISZERO PUSH2 0x22CC JUMPI INVALID JUMPDEST EQ ISZERO PUSH2 0x22DD JUMPI PUSH2 0x22B9 DUP13 DUP8 DUP7 PUSH2 0x3729 JUMP JUMPDEST PUSH2 0x22E7 DUP13 DUP6 PUSH2 0x3796 JUMP JUMPDEST PUSH1 0x0 DUP1 DUP15 PUSH1 0x1 DUP2 GT ISZERO PUSH2 0x22F6 JUMPI INVALID JUMPDEST EQ SWAP1 POP DUP12 PUSH1 0x1 PUSH1 0x1 PUSH1 0xA0 SHL SUB AND DUP14 PUSH32 0xE5CE249087CE04F05A957192435400FD97868DBA0E6A4B4C049ABF8AF80DAE78 DUP10 PUSH2 0x2330 DUP9 DUP7 PUSH2 0x37DF JUMP JUMPDEST DUP8 PUSH1 0x40 MLOAD PUSH2 0x2340 SWAP4 SWAP3 SWAP2 SWAP1 PUSH2 0x5B1E JUMP JUMPDEST PUSH1 0x40 MLOAD DUP1 SWAP2 SUB SWAP1 LOG3 POP POP POP POP POP POP POP POP POP PUSH2 0x1CAB PUSH2 0x179C JUMP JUMPDEST PUSH1 0x60 DUP4 MLOAD PUSH1 0x1 PUSH1 0x1 PUSH1 0x40 SHL SUB DUP2 GT DUP1 ISZERO PUSH2 0x2372 JUMPI PUSH1 0x0 DUP1 REVERT JUMPDEST POP PUSH1 0x40 MLOAD SWAP1 DUP1 DUP3 MSTORE DUP1 PUSH1 0x20 MUL PUSH1 0x20 ADD DUP3 ADD PUSH1 0x40 MSTORE DUP1 ISZERO PUSH2 0x239C JUMPI DUP2 PUSH1 0x20 ADD PUSH1 0x20 DUP3 MUL DUP1 CALLDATASIZE DUP4 CALLDATACOPY ADD SWAP1 POP JUMPDEST POP SWAP1 POP PUSH2 0x23A7 PUSH2 0x4C7F JUMP JUMPDEST PUSH2 0x23AF PUSH2 0x4BDC JUMP JUMPDEST PUSH1 0x0 DUP1 PUSH1 0x0 JUMPDEST DUP10 MLOAD DUP2 LT ISZERO PUSH2 0x25DA JUMPI DUP10 DUP2 DUP2 MLOAD DUP2 LT PUSH2 0x23CA JUMPI INVALID JUMPDEST PUSH1 0x20 MUL PUSH1 0x20 ADD ADD MLOAD SWAP5 POP PUSH1 0x0 DUP10 MLOAD DUP7 PUSH1 0x20 ADD MLOAD LT DUP1 ISZERO PUSH2 0x23EE JUMPI POP DUP10 MLOAD DUP7 PUSH1 0x40 ADD MLOAD LT JUMPDEST SWAP1 POP PUSH2 0x23FB DUP2 PUSH1 0x64 PUSH2 0x52B JUMP JUMPDEST PUSH1 0x0 PUSH2 0x241D DUP12 DUP9 PUSH1 0x20 ADD MLOAD DUP2 MLOAD DUP2 LT PUSH2 0x2410 JUMPI INVALID JUMPDEST PUSH1 0x20 MUL PUSH1 0x20 ADD ADD MLOAD PUSH2 0x1ABB JUMP JUMPDEST SWAP1 POP PUSH1 0x0 PUSH2 0x2434 DUP13 DUP10 PUSH1 0x40 ADD MLOAD DUP2 MLOAD DUP2 LT PUSH2 0x2410 JUMPI INVALID JUMPDEST SWAP1 POP PUSH2 0x2457 DUP2 PUSH1 0x1 PUSH1 0x1 PUSH1 0xA0 SHL SUB AND DUP4 PUSH1 0x1 PUSH1 0x1 PUSH1 0xA0 SHL SUB AND EQ ISZERO PUSH2 0x1FD PUSH2 0x52B JUMP JUMPDEST PUSH1 0x60 DUP9 ADD MLOAD PUSH2 0x24A7 JUMPI PUSH2 0x246F PUSH1 0x0 DUP6 GT PUSH2 0x1FE PUSH2 0x52B JUMP JUMPDEST PUSH1 0x0 PUSH2 0x247C DUP12 DUP5 DUP5 PUSH2 0x3886 JUMP JUMPDEST PUSH1 0x1 PUSH1 0x1 PUSH1 0xA0 SHL SUB AND DUP8 PUSH1 0x1 PUSH1 0x1 PUSH1 0xA0 SHL SUB AND EQ SWAP1 POP PUSH2 0x249E DUP2 PUSH2 0x1FF PUSH2 0x52B JUMP JUMPDEST POP PUSH1 0x60 DUP9 ADD DUP6 SWAP1 MSTORE JUMPDEST DUP8 MLOAD PUSH1 0x80 DUP9 ADD MSTORE DUP7 DUP11 PUSH1 0x1 DUP2 GT ISZERO PUSH2 0x24BB JUMPI INVALID JUMPDEST SWAP1 DUP2 PUSH1 0x1 DUP2 GT ISZERO PUSH2 0x24C8 JUMPI INVALID JUMPDEST SWAP1 MSTORE POP PUSH1 0x1 PUSH1 0x1 PUSH1 0xA0 SHL SUB DUP1 DUP4 AND PUSH1 0x20 DUP10 ADD MSTORE DUP2 DUP2 AND PUSH1 0x40 DUP1 DUP11 ADD SWAP2 SWAP1 SWAP2 MSTORE PUSH1 0x60 DUP1 DUP12 ADD MLOAD SWAP1 DUP11 ADD MSTORE PUSH1 0x80 DUP11 ADD MLOAD PUSH2 0x100 DUP11 ADD MSTORE DUP13 MLOAD DUP3 AND PUSH1 0xC0 DUP11 ADD MSTORE DUP13 ADD MLOAD AND PUSH1 0xE0 DUP9 ADD MSTORE PUSH1 0x0 DUP1 PUSH2 0x251A DUP10 PUSH2 0x1AE0 JUMP JUMPDEST SWAP2 SWAP9 POP SWAP3 POP SWAP1 POP PUSH2 0x252C DUP13 DUP6 DUP6 PUSH2 0x38A8 JUMP JUMPDEST SWAP8 POP PUSH2 0x2560 PUSH2 0x253A DUP4 PUSH2 0x38C2 JUMP JUMPDEST DUP13 DUP13 PUSH1 0x20 ADD MLOAD DUP2 MLOAD DUP2 LT PUSH2 0x254A JUMPI INVALID JUMPDEST PUSH1 0x20 MUL PUSH1 0x20 ADD ADD MLOAD PUSH2 0x38D6 SWAP1 SWAP2 SWAP1 PUSH4 0xFFFFFFFF AND JUMP JUMPDEST DUP12 DUP12 PUSH1 0x20 ADD MLOAD DUP2 MLOAD DUP2 LT PUSH2 0x2570 JUMPI INVALID JUMPDEST PUSH1 0x20 MUL PUSH1 0x20 ADD ADD DUP2 DUP2 MSTORE POP POP PUSH2 0x25AE PUSH2 0x2588 DUP3 PUSH2 0x38C2 JUMP JUMPDEST DUP13 DUP13 PUSH1 0x40 ADD MLOAD DUP2 MLOAD DUP2 LT PUSH2 0x2598 JUMPI INVALID JUMPDEST PUSH1 0x20 MUL PUSH1 0x20 ADD ADD MLOAD PUSH2 0x390A SWAP1 SWAP2 SWAP1 PUSH4 0xFFFFFFFF AND JUMP JUMPDEST DUP12 DUP12 PUSH1 0x40 ADD MLOAD DUP2 MLOAD DUP2 LT PUSH2 0x25BE JUMPI INVALID JUMPDEST PUSH1 0x20 MUL PUSH1 0x20 ADD ADD DUP2 DUP2 MSTORE POP POP POP POP POP POP POP DUP1 PUSH1 0x1 ADD SWAP1 POP PUSH2 0x23B5 JUMP JUMPDEST POP POP POP POP POP SWAP5 SWAP4 POP POP POP POP JUMP JUMPDEST PUSH1 0x0 DUP2 DUP2 MSTORE PUSH1 0x5 PUSH1 0x20 MSTORE PUSH1 0x40 SWAP1 KECCAK256 SLOAD PUSH2 0x55E SWAP1 PUSH1 0xFF AND PUSH2 0x1F4 PUSH2 0x52B JUMP JUMPDEST PUSH1 0x0 DUP1 PUSH1 0x0 DUP1 PUSH1 0x0 PUSH2 0x2616 DUP8 PUSH2 0x393E JUMP JUMPDEST SWAP5 POP SWAP5 POP SWAP5 POP SWAP5 POP POP DUP4 PUSH1 0x1 PUSH1 0x1 PUSH1 0xA0 SHL SUB AND DUP7 PUSH1 0x1 PUSH1 0x1 PUSH1 0xA0 SHL SUB AND EQ ISZERO PUSH2 0x2645 JUMPI DUP3 SWAP5 POP POP POP POP POP PUSH2 0x16A0 JUMP JUMPDEST DUP2 PUSH1 0x1 PUSH1 0x1 PUSH1 0xA0 SHL SUB AND DUP7 PUSH1 0x1 PUSH1 0x1 PUSH1 0xA0 SHL SUB AND EQ ISZERO PUSH2 0x266A JUMPI SWAP4 POP PUSH2 0x16A0 SWAP3 POP POP POP JUMP JUMPDEST PUSH2 0x2675 PUSH2 0x209 PUSH2 0x16A6 JUMP JUMPDEST POP POP POP POP SWAP3 SWAP2 POP POP JUMP JUMPDEST PUSH1 0x0 DUP3 DUP2 MSTORE PUSH1 0x7 PUSH1 0x20 SWAP1 DUP2 MSTORE PUSH1 0x40 DUP1 DUP4 KECCAK256 PUSH1 0x1 PUSH1 0x1 PUSH1 0xA0 SHL SUB DUP6 AND DUP5 MSTORE SWAP1 SWAP2 MSTORE DUP2 KECCAK256 SLOAD DUP2 PUSH2 0x26AC DUP3 PUSH2 0x39B4 JUMP JUMPDEST DUP1 PUSH2 0x26CA JUMPI POP PUSH1 0x0 DUP6 DUP2 MSTORE PUSH1 0x8 PUSH1 0x20 MSTORE PUSH1 0x40 SWAP1 KECCAK256 PUSH2 0x26CA SWAP1 DUP6 PUSH2 0x39C6 JUMP JUMPDEST SWAP1 POP DUP1 PUSH2 0x26E5 JUMPI PUSH2 0x26DA DUP6 PUSH2 0x25E7 JUMP JUMPDEST PUSH2 0x26E5 PUSH2 0x209 PUSH2 0x16A6 JUMP JUMPDEST POP SWAP4 SWAP3 POP POP POP JUMP JUMPDEST PUSH1 0x0 DUP3 DUP2 MSTORE PUSH1 0x1 PUSH1 0x20 MSTORE PUSH1 0x40 DUP2 KECCAK256 PUSH2 0x9C0 DUP2 DUP5 PUSH2 0x3325 JUMP JUMPDEST PUSH1 0x1 PUSH1 0x1 PUSH1 0x70 SHL SUB AND SWAP1 JUMP JUMPDEST PUSH1 0x70 SHR PUSH1 0x1 PUSH1 0x1 PUSH1 0x70 SHL SUB AND SWAP1 JUMP JUMPDEST PUSH1 0xE0 SHR SWAP1 JUMP JUMPDEST PUSH1 0x0 DUP1 PUSH2 0x2732 DUP5 PUSH2 0x1EC9 JUMP JUMPDEST SWAP1 POP PUSH1 0x2 DUP2 PUSH1 0x2 DUP2 GT ISZERO PUSH2 0x2742 JUMPI INVALID JUMPDEST EQ ISZERO PUSH2 0x275A JUMPI PUSH2 0x2752 DUP5 DUP5 PUSH2 0x39E7 JUMP JUMPDEST SWAP2 POP POP PUSH2 0x16A0 JUMP JUMPDEST PUSH1 0x1 DUP2 PUSH1 0x2 DUP2 GT ISZERO PUSH2 0x2768 JUMPI INVALID JUMPDEST EQ ISZERO PUSH2 0x2778 JUMPI PUSH2 0x2752 DUP5 DUP5 PUSH2 0x3A38 JUMP JUMPDEST PUSH2 0x2752 DUP5 DUP5 PUSH2 0x3A50 JUMP JUMPDEST PUSH1 0x0 DUP1 PUSH1 0x0 PUSH2 0x2790 DUP7 PUSH2 0x1EC9 JUMP JUMPDEST SWAP1 POP PUSH1 0x0 DUP8 PUSH1 0x2 DUP2 GT ISZERO PUSH2 0x27A0 JUMPI INVALID JUMPDEST EQ ISZERO PUSH2 0x27BC JUMPI PUSH2 0x27B2 DUP7 DUP3 DUP8 DUP8 PUSH2 0x3A68 JUMP JUMPDEST SWAP3 POP SWAP3 POP POP PUSH2 0x27E8 JUMP JUMPDEST PUSH1 0x1 DUP8 PUSH1 0x2 DUP2 GT ISZERO PUSH2 0x27CA JUMPI INVALID JUMPDEST EQ ISZERO PUSH2 0x27DC JUMPI PUSH2 0x27B2 DUP7 DUP3 DUP8 DUP8 PUSH2 0x3AE3 JUMP JUMPDEST PUSH2 0x27B2 DUP7 DUP3 DUP8 DUP8 PUSH2 0x3B5F JUMP JUMPDEST SWAP5 POP SWAP5 SWAP3 POP POP POP JUMP JUMPDEST PUSH1 0x0 PUSH32 0x0 PUSH32 0x0 PUSH32 0x0 PUSH2 0x285E PUSH2 0x3BC2 JUMP JUMPDEST ADDRESS PUSH1 0x40 MLOAD PUSH1 0x20 ADD PUSH2 0x2873 SWAP6 SWAP5 SWAP4 SWAP3 SWAP2 SWAP1 PUSH2 0x5CC2 JUMP JUMPDEST PUSH1 0x40 MLOAD PUSH1 0x20 DUP2 DUP4 SUB SUB DUP2 MSTORE SWAP1 PUSH1 0x40 MSTORE DUP1 MLOAD SWAP1 PUSH1 0x20 ADD KECCAK256 SWAP1 POP SWAP1 JUMP JUMPDEST PUSH1 0x60 SHR SWAP1 JUMP JUMPDEST PUSH1 0x60 DUP1 PUSH1 0x0 PUSH2 0x28A2 DUP5 PUSH2 0x1EC9 JUMP JUMPDEST SWAP1 POP PUSH1 0x2 DUP2 PUSH1 0x2 DUP2 GT ISZERO PUSH2 0x28B2 JUMPI INVALID JUMPDEST EQ ISZERO PUSH2 0x28CB JUMPI PUSH2 0x28C1 DUP5 PUSH2 0x3BC6 JUMP JUMPDEST SWAP3 POP SWAP3 POP POP PUSH2 0x28F1 JUMP JUMPDEST PUSH1 0x1 DUP2 PUSH1 0x2 DUP2 GT ISZERO PUSH2 0x28D9 JUMPI INVALID JUMPDEST EQ ISZERO PUSH2 0x28E8 JUMPI PUSH2 0x28C1 DUP5 PUSH2 0x3CFB JUMP JUMPDEST PUSH2 0x28C1 DUP5 PUSH2 0x3E20 JUMP JUMPDEST SWAP2 POP SWAP2 JUMP JUMPDEST PUSH1 0x60 PUSH1 0x0 DUP3 MLOAD PUSH1 0x1 PUSH1 0x1 PUSH1 0x40 SHL SUB DUP2 GT DUP1 ISZERO PUSH2 0x2911 JUMPI PUSH1 0x0 DUP1 REVERT JUMPDEST POP PUSH1 0x40 MLOAD SWAP1 DUP1 DUP3 MSTORE DUP1 PUSH1 0x20 MUL PUSH1 0x20 ADD DUP3 ADD PUSH1 0x40 MSTORE DUP1 ISZERO PUSH2 0x293B JUMPI DUP2 PUSH1 0x20 ADD PUSH1 0x20 DUP3 MUL DUP1 CALLDATASIZE DUP4 CALLDATACOPY ADD SWAP1 POP JUMPDEST POP SWAP2 POP PUSH1 0x0 SWAP1 POP PUSH1 0x0 JUMPDEST DUP3 MLOAD DUP2 LT ISZERO PUSH2 0x14E1 JUMPI PUSH1 0x0 DUP5 DUP3 DUP2 MLOAD DUP2 LT PUSH2 0x295C JUMPI INVALID JUMPDEST PUSH1 0x20 MUL PUSH1 0x20 ADD ADD MLOAD SWAP1 POP PUSH2 0x296F DUP2 PUSH2 0x3F1A JUMP JUMPDEST DUP5 DUP4 DUP2 MLOAD DUP2 LT PUSH2 0x297B JUMPI INVALID JUMPDEST PUSH1 0x20 MUL PUSH1 0x20 ADD ADD DUP2 DUP2 MSTORE POP POP PUSH2 0x2999 DUP4 PUSH2 0x2994 DUP4 PUSH2 0x2720 JUMP JUMPDEST PUSH2 0x3F35 JUMP JUMPDEST SWAP3 POP POP PUSH1 0x1 ADD PUSH2 0x2945 JUMP JUMPDEST PUSH1 0x1 PUSH1 0x1 PUSH1 0xA0 SHL SUB SWAP2 DUP3 AND PUSH1 0x0 SWAP1 DUP2 MSTORE PUSH1 0x4 PUSH1 0x20 SWAP1 DUP2 MSTORE PUSH1 0x40 DUP1 DUP4 KECCAK256 SWAP4 SWAP1 SWAP5 AND DUP3 MSTORE SWAP2 SWAP1 SWAP2 MSTORE KECCAK256 SLOAD PUSH1 0xFF AND SWAP1 JUMP JUMPDEST PUSH1 0x3 SLOAD PUSH1 0x40 MLOAD PUSH4 0x26F8AA21 PUSH1 0xE2 SHL DUP2 MSTORE PUSH1 0x0 SWAP2 PUSH2 0x100 SWAP1 DIV PUSH1 0x1 PUSH1 0x1 PUSH1 0xA0 SHL SUB AND SWAP1 PUSH4 0x9BE2A884 SWAP1 PUSH2 0x2A0C SWAP1 DUP7 SWAP1 DUP7 SWAP1 ADDRESS SWAP1 PUSH1 0x4 ADD PUSH2 0x5C19 JUMP JUMPDEST PUSH1 0x20 PUSH1 0x40 MLOAD DUP1 DUP4 SUB DUP2 DUP7 DUP1 EXTCODESIZE ISZERO DUP1 ISZERO PUSH2 0x2A24 JUMPI PUSH1 0x0 DUP1 REVERT JUMPDEST POP GAS STATICCALL ISZERO DUP1 ISZERO PUSH2 0x2A38 JUMPI RETURNDATASIZE PUSH1 0x0 DUP1 RETURNDATACOPY RETURNDATASIZE PUSH1 0x0 REVERT JUMPDEST POP POP POP POP PUSH1 0x40 MLOAD RETURNDATASIZE PUSH1 0x1F NOT PUSH1 0x1F DUP3 ADD AND DUP3 ADD DUP1 PUSH1 0x40 MSTORE POP DUP2 ADD SWAP1 PUSH2 0x169D SWAP2 SWAP1 PUSH2 0x536C JUMP JUMPDEST PUSH1 0x0 DUP1 PUSH2 0x2A69 DUP7 DUP7 PUSH2 0x197B JUMP JUMPDEST SWAP1 POP PUSH2 0x2A82 DUP4 DUP1 PUSH2 0x2A7A JUMPI POP DUP5 DUP3 LT ISZERO JUMPDEST PUSH2 0x201 PUSH2 0x52B JUMP JUMPDEST PUSH2 0x2A8C DUP2 DUP6 PUSH2 0x3F4C JUMP JUMPDEST SWAP2 POP DUP2 DUP2 SUB PUSH2 0x2AA8 DUP8 DUP8 DUP4 PUSH2 0x2AA0 DUP8 PUSH2 0x38C2 JUMP JUMPDEST PUSH1 0x0 SUB PUSH2 0x3F5B JUMP JUMPDEST POP POP SWAP5 SWAP4 POP POP POP POP JUMP JUMPDEST PUSH1 0x0 PUSH2 0x2ABE DUP5 DUP5 PUSH2 0x197B JUMP JUMPDEST SWAP1 POP PUSH1 0x0 PUSH2 0x2ACC DUP3 DUP5 PUSH2 0x18BF JUMP JUMPDEST SWAP1 POP PUSH2 0x1CAB DUP6 DUP6 DUP4 PUSH2 0x2ADD DUP8 PUSH2 0x38C2 JUMP JUMPDEST PUSH2 0x3F5B JUMP JUMPDEST PUSH2 0xDC4 DUP5 PUSH4 0x23B872DD PUSH1 0xE0 SHL DUP6 DUP6 DUP6 PUSH1 0x40 MLOAD PUSH1 0x24 ADD PUSH2 0x1E3F SWAP4 SWAP3 SWAP2 SWAP1 PUSH2 0x5A49 JUMP JUMPDEST PUSH2 0x2B12 DUP2 SELFBALANCE LT ISZERO PUSH2 0x1A3 PUSH2 0x52B JUMP JUMPDEST PUSH1 0x0 DUP3 PUSH1 0x1 PUSH1 0x1 PUSH1 0xA0 SHL SUB AND DUP3 PUSH1 0x40 MLOAD PUSH2 0x2B2B SWAP1 PUSH2 0x528 JUMP JUMPDEST PUSH1 0x0 PUSH1 0x40 MLOAD DUP1 DUP4 SUB DUP2 DUP6 DUP8 GAS CALL SWAP3 POP POP POP RETURNDATASIZE DUP1 PUSH1 0x0 DUP2 EQ PUSH2 0x2B68 JUMPI PUSH1 0x40 MLOAD SWAP2 POP PUSH1 0x1F NOT PUSH1 0x3F RETURNDATASIZE ADD AND DUP3 ADD PUSH1 0x40 MSTORE RETURNDATASIZE DUP3 MSTORE RETURNDATASIZE PUSH1 0x0 PUSH1 0x20 DUP5 ADD RETURNDATACOPY PUSH2 0x2B6D JUMP JUMPDEST PUSH1 0x60 SWAP2 POP JUMPDEST POP POP SWAP1 POP PUSH2 0xF64 DUP2 PUSH2 0x1A4 PUSH2 0x52B JUMP JUMPDEST PUSH1 0x1 PUSH1 0x1 PUSH1 0xA0 SHL SUB DUP3 AND PUSH1 0x0 SWAP1 DUP2 MSTORE PUSH1 0x2 PUSH1 0x20 MSTORE PUSH1 0x40 SWAP1 KECCAK256 DUP1 SLOAD PUSH1 0x1 DUP2 ADD SWAP1 SWAP2 SSTORE PUSH2 0xF64 PUSH2 0x2BAB DUP5 DUP4 PUSH2 0x3FB6 JUMP JUMPDEST DUP4 PUSH2 0x52B JUMP JUMPDEST PUSH1 0x0 DUP1 PUSH1 0x0 DUP1 PUSH2 0x2BCE DUP7 PUSH1 0x80 ADD MLOAD DUP8 PUSH1 0x20 ADD MLOAD DUP9 PUSH1 0x40 ADD MLOAD PUSH2 0x3143 JUMP JUMPDEST SWAP3 POP SWAP3 POP SWAP3 POP PUSH1 0x0 DUP1 DUP8 PUSH1 0x40 ADD MLOAD PUSH1 0x1 PUSH1 0x1 PUSH1 0xA0 SHL SUB AND DUP9 PUSH1 0x20 ADD MLOAD PUSH1 0x1 PUSH1 0x1 PUSH1 0xA0 SHL SUB AND LT ISZERO PUSH2 0x2C03 JUMPI POP DUP4 SWAP1 POP DUP3 PUSH2 0x2C09 JUMP JUMPDEST POP DUP3 SWAP1 POP DUP4 JUMPDEST PUSH2 0x2C15 DUP9 DUP9 DUP5 DUP5 PUSH2 0x40DC JUMP JUMPDEST PUSH1 0x40 DUP12 ADD MLOAD PUSH1 0x20 DUP13 ADD MLOAD SWAP2 SWAP10 POP SWAP3 SWAP5 POP SWAP1 SWAP3 POP PUSH1 0x1 PUSH1 0x1 PUSH1 0xA0 SHL SUB SWAP2 DUP3 AND SWAP2 AND LT PUSH2 0x2C49 JUMPI PUSH2 0x2C44 DUP2 DUP4 PUSH2 0x41D9 JUMP JUMPDEST PUSH2 0x2C53 JUMP JUMPDEST PUSH2 0x2C53 DUP3 DUP3 PUSH2 0x41D9 JUMP JUMPDEST SWAP1 SWAP3 SSTORE POP SWAP3 SWAP6 SWAP5 POP POP POP POP POP JUMP JUMPDEST PUSH1 0x0 DUP1 PUSH2 0x2C76 DUP5 PUSH1 0x80 ADD MLOAD DUP6 PUSH1 0x20 ADD MLOAD PUSH2 0x267F JUMP JUMPDEST SWAP1 POP PUSH1 0x0 PUSH2 0x2C8C DUP6 PUSH1 0x80 ADD MLOAD DUP7 PUSH1 0x40 ADD MLOAD PUSH2 0x267F JUMP JUMPDEST SWAP1 POP PUSH2 0x2C9A DUP6 DUP6 DUP5 DUP5 PUSH2 0x40DC JUMP JUMPDEST PUSH1 0x80 DUP9 ADD DUP1 MLOAD PUSH1 0x0 SWAP1 DUP2 MSTORE PUSH1 0x7 PUSH1 0x20 DUP2 DUP2 MSTORE PUSH1 0x40 DUP1 DUP5 KECCAK256 DUP3 DUP15 ADD MLOAD PUSH1 0x1 PUSH1 0x1 PUSH1 0xA0 SHL SUB SWAP1 DUP2 AND DUP7 MSTORE SWAP1 DUP4 MSTORE DUP2 DUP6 KECCAK256 SWAP9 SWAP1 SWAP9 SSTORE SWAP4 MLOAD DUP4 MSTORE SWAP1 DUP2 MSTORE DUP3 DUP3 KECCAK256 SWAP11 DUP4 ADD MLOAD SWAP1 SWAP6 AND DUP2 MSTORE SWAP9 SWAP1 SWAP4 MSTORE SWAP2 SWAP1 SWAP7 KECCAK256 SWAP6 SWAP1 SWAP6 SSTORE POP SWAP3 SWAP4 SWAP3 POP POP POP JUMP JUMPDEST PUSH1 0x80 DUP3 ADD MLOAD PUSH1 0x0 SWAP1 DUP2 MSTORE PUSH1 0x1 PUSH1 0x20 SWAP1 DUP2 MSTORE PUSH1 0x40 DUP3 KECCAK256 SWAP1 DUP5 ADD MLOAD DUP3 SWAP2 DUP3 SWAP2 DUP3 SWAP1 PUSH2 0x2D1E SWAP1 DUP4 SWAP1 PUSH2 0x4214 JUMP JUMPDEST SWAP1 POP PUSH1 0x0 PUSH2 0x2D39 DUP9 PUSH1 0x40 ADD MLOAD DUP5 PUSH2 0x4214 SWAP1 SWAP2 SWAP1 PUSH4 0xFFFFFFFF AND JUMP JUMPDEST SWAP1 POP DUP2 ISZERO DUP1 PUSH2 0x2D46 JUMPI POP DUP1 ISZERO JUMPDEST ISZERO PUSH2 0x2D63 JUMPI PUSH2 0x2D58 DUP9 PUSH1 0x80 ADD MLOAD PUSH2 0x25E7 JUMP JUMPDEST PUSH2 0x2D63 PUSH2 0x209 PUSH2 0x16A6 JUMP JUMPDEST PUSH1 0x0 NOT SWAP2 DUP3 ADD SWAP2 ADD PUSH1 0x0 PUSH2 0x2D76 DUP5 PUSH2 0x4233 JUMP JUMPDEST SWAP1 POP PUSH1 0x60 DUP2 PUSH1 0x1 PUSH1 0x1 PUSH1 0x40 SHL SUB DUP2 GT DUP1 ISZERO PUSH2 0x2D90 JUMPI PUSH1 0x0 DUP1 REVERT JUMPDEST POP PUSH1 0x40 MLOAD SWAP1 DUP1 DUP3 MSTORE DUP1 PUSH1 0x20 MUL PUSH1 0x20 ADD DUP3 ADD PUSH1 0x40 MSTORE DUP1 ISZERO PUSH2 0x2DBA JUMPI DUP2 PUSH1 0x20 ADD PUSH1 0x20 DUP3 MUL DUP1 CALLDATASIZE DUP4 CALLDATACOPY ADD SWAP1 POP JUMPDEST POP PUSH1 0x0 PUSH1 0xA0 DUP13 ADD DUP2 SWAP1 MSTORE SWAP1 SWAP2 POP JUMPDEST DUP3 DUP2 LT ISZERO PUSH2 0x2E3A JUMPI PUSH1 0x0 PUSH2 0x2DDC DUP8 DUP4 PUSH2 0x4237 JUMP JUMPDEST SWAP1 POP PUSH2 0x2DE7 DUP2 PUSH2 0x3F1A JUMP JUMPDEST DUP4 DUP4 DUP2 MLOAD DUP2 LT PUSH2 0x2DF3 JUMPI INVALID JUMPDEST PUSH1 0x20 MUL PUSH1 0x20 ADD ADD DUP2 DUP2 MSTORE POP POP PUSH2 0x2E10 DUP13 PUSH1 0xA0 ADD MLOAD PUSH2 0x2994 DUP4 PUSH2 0x2720 JUMP JUMPDEST PUSH1 0xA0 DUP14 ADD MSTORE DUP2 DUP7 EQ ISZERO PUSH2 0x2E25 JUMPI DUP1 SWAP9 POP PUSH2 0x2E31 JUMP JUMPDEST DUP5 DUP3 EQ ISZERO PUSH2 0x2E31 JUMPI DUP1 SWAP8 POP JUMPDEST POP PUSH1 0x1 ADD PUSH2 0x2DC8 JUMP JUMPDEST POP PUSH1 0x40 MLOAD PUSH3 0xF64AA5 PUSH1 0xE1 SHL DUP2 MSTORE PUSH1 0x1 PUSH1 0x1 PUSH1 0xA0 SHL SUB DUP11 AND SWAP1 PUSH4 0x1EC954A SWAP1 PUSH2 0x2E6C SWAP1 DUP14 SWAP1 DUP6 SWAP1 DUP10 SWAP1 DUP10 SWAP1 PUSH1 0x4 ADD PUSH2 0x5D2D JUMP JUMPDEST PUSH1 0x20 PUSH1 0x40 MLOAD DUP1 DUP4 SUB DUP2 PUSH1 0x0 DUP8 DUP1 EXTCODESIZE ISZERO DUP1 ISZERO PUSH2 0x2E86 JUMPI PUSH1 0x0 DUP1 REVERT JUMPDEST POP GAS CALL ISZERO DUP1 ISZERO PUSH2 0x2E9A JUMPI RETURNDATASIZE PUSH1 0x0 DUP1 RETURNDATACOPY RETURNDATASIZE PUSH1 0x0 REVERT JUMPDEST POP POP POP POP PUSH1 0x40 MLOAD RETURNDATASIZE PUSH1 0x1F NOT PUSH1 0x1F DUP3 ADD AND DUP3 ADD DUP1 PUSH1 0x40 MSTORE POP DUP2 ADD SWAP1 PUSH2 0x2EBE SWAP2 SWAP1 PUSH2 0x5855 JUMP JUMPDEST SWAP8 POP PUSH1 0x0 DUP1 PUSH2 0x2ED6 DUP13 PUSH1 0x0 ADD MLOAD DUP14 PUSH1 0x60 ADD MLOAD DUP13 PUSH2 0x2F18 JUMP JUMPDEST SWAP1 SWAP3 POP SWAP1 POP PUSH2 0x2EE5 DUP10 DUP4 PUSH2 0x424D JUMP JUMPDEST SWAP9 POP PUSH2 0x2EF1 DUP9 DUP3 PUSH2 0x427E JUMP JUMPDEST SWAP8 POP PUSH2 0x2EFE DUP8 DUP8 DUP12 PUSH2 0x4294 JUMP JUMPDEST PUSH2 0x2F09 DUP8 DUP7 DUP11 PUSH2 0x4294 JUMP JUMPDEST POP POP POP POP POP POP POP POP POP SWAP3 SWAP2 POP POP JUMP JUMPDEST PUSH1 0x0 DUP1 DUP1 DUP6 PUSH1 0x1 DUP2 GT ISZERO PUSH2 0x2F28 JUMPI INVALID JUMPDEST EQ ISZERO PUSH2 0x2F38 JUMPI POP DUP3 SWAP1 POP DUP2 PUSH2 0x2F3E JUMP JUMPDEST POP DUP2 SWAP1 POP DUP3 JUMPDEST SWAP4 POP SWAP4 SWAP2 POP POP JUMP JUMPDEST PUSH1 0x0 DUP3 DUP3 MUL PUSH2 0x2F6A DUP5 ISZERO DUP1 PUSH2 0x2F63 JUMPI POP DUP4 DUP6 DUP4 DUP2 PUSH2 0x2F60 JUMPI INVALID JUMPDEST DIV EQ JUMPDEST PUSH1 0x3 PUSH2 0x52B JUMP JUMPDEST DUP1 PUSH2 0x2F79 JUMPI PUSH1 0x0 SWAP2 POP POP PUSH2 0x16A0 JUMP JUMPDEST PUSH8 0xDE0B6B3A7640000 PUSH1 0x0 NOT DUP3 ADD DIV PUSH1 0x1 ADD SWAP2 POP POP PUSH2 0x16A0 JUMP JUMPDEST PUSH1 0x0 PUSH1 0x60 DUP4 PUSH1 0x1 PUSH1 0x1 PUSH1 0xA0 SHL SUB AND DUP4 PUSH1 0x40 MLOAD PUSH2 0x2FAF SWAP2 SWAP1 PUSH2 0x59D7 JUMP JUMPDEST PUSH1 0x0 PUSH1 0x40 MLOAD DUP1 DUP4 SUB DUP2 PUSH1 0x0 DUP7 GAS CALL SWAP2 POP POP RETURNDATASIZE DUP1 PUSH1 0x0 DUP2 EQ PUSH2 0x2FEC JUMPI PUSH1 0x40 MLOAD SWAP2 POP PUSH1 0x1F NOT PUSH1 0x3F RETURNDATASIZE ADD AND DUP3 ADD PUSH1 0x40 MSTORE RETURNDATASIZE DUP3 MSTORE RETURNDATASIZE PUSH1 0x0 PUSH1 0x20 DUP5 ADD RETURNDATACOPY PUSH2 0x2FF1 JUMP JUMPDEST PUSH1 0x60 SWAP2 POP JUMPDEST POP SWAP2 POP SWAP2 POP PUSH1 0x0 DUP3 EQ ISZERO PUSH2 0x3009 JUMPI RETURNDATASIZE PUSH1 0x0 DUP1 RETURNDATACOPY RETURNDATASIZE PUSH1 0x0 REVERT JUMPDEST PUSH2 0xDC4 DUP2 MLOAD PUSH1 0x0 EQ DUP1 PUSH2 0x302B JUMPI POP DUP2 DUP1 PUSH1 0x20 ADD SWAP1 MLOAD DUP2 ADD SWAP1 PUSH2 0x302B SWAP2 SWAP1 PUSH2 0x536C JUMP JUMPDEST PUSH2 0x1A2 PUSH2 0x52B JUMP JUMPDEST PUSH1 0x0 PUSH2 0x303F DUP4 DUP4 PUSH2 0x39C6 JUMP JUMPDEST PUSH2 0x308E JUMPI POP DUP2 SLOAD PUSH1 0x1 DUP1 DUP3 ADD DUP5 SSTORE PUSH1 0x0 DUP5 DUP2 MSTORE PUSH1 0x20 DUP1 DUP3 KECCAK256 SWAP1 SWAP4 ADD DUP1 SLOAD PUSH1 0x1 PUSH1 0x1 PUSH1 0xA0 SHL SUB NOT AND PUSH1 0x1 PUSH1 0x1 PUSH1 0xA0 SHL SUB DUP7 AND SWAP1 DUP2 OR SWAP1 SWAP2 SSTORE DUP6 SLOAD SWAP1 DUP3 MSTORE DUP3 DUP7 ADD SWAP1 SWAP4 MSTORE PUSH1 0x40 SWAP1 KECCAK256 SWAP2 SWAP1 SWAP2 SSTORE PUSH2 0x16A0 JUMP JUMPDEST POP PUSH1 0x0 PUSH2 0x16A0 JUMP JUMPDEST PUSH1 0x1 PUSH1 0x1 PUSH1 0xA0 SHL SUB DUP3 AND PUSH1 0x0 SWAP1 DUP2 MSTORE PUSH1 0x2 DUP5 ADD PUSH1 0x20 MSTORE PUSH1 0x40 DUP2 KECCAK256 SLOAD DUP1 PUSH2 0x3123 JUMPI POP POP DUP3 SLOAD PUSH1 0x40 DUP1 MLOAD DUP1 DUP3 ADD DUP3 MSTORE PUSH1 0x1 PUSH1 0x1 PUSH1 0xA0 SHL SUB DUP6 DUP2 AND DUP1 DUP4 MSTORE PUSH1 0x20 DUP1 DUP5 ADD DUP8 DUP2 MSTORE PUSH1 0x0 DUP8 DUP2 MSTORE PUSH1 0x1 DUP1 DUP13 ADD DUP5 MSTORE DUP8 DUP3 KECCAK256 SWAP7 MLOAD DUP8 SLOAD PUSH1 0x1 PUSH1 0x1 PUSH1 0xA0 SHL SUB NOT AND SWAP7 AND SWAP6 SWAP1 SWAP6 OR DUP7 SSTORE SWAP1 MLOAD SWAP5 DUP5 ADD SWAP5 SWAP1 SWAP5 SSTORE SWAP5 DUP3 ADD DUP1 DUP10 SSTORE SWAP1 DUP4 MSTORE PUSH1 0x2 DUP9 ADD SWAP1 SWAP5 MSTORE SWAP2 SWAP1 KECCAK256 SWAP2 SWAP1 SWAP2 SSTORE PUSH2 0x17F0 JUMP JUMPDEST PUSH1 0x0 NOT ADD PUSH1 0x0 SWAP1 DUP2 MSTORE PUSH1 0x1 DUP1 DUP7 ADD PUSH1 0x20 MSTORE PUSH1 0x40 DUP3 KECCAK256 ADD DUP4 SWAP1 SSTORE SWAP1 POP PUSH2 0x17F0 JUMP JUMPDEST PUSH1 0x0 DUP1 PUSH1 0x0 DUP1 PUSH1 0x0 PUSH2 0x3155 DUP8 DUP8 PUSH2 0x42AC JUMP JUMPDEST SWAP2 POP SWAP2 POP PUSH1 0x0 PUSH2 0x3165 DUP4 DUP4 PUSH2 0x42DD JUMP JUMPDEST PUSH1 0x0 DUP11 DUP2 MSTORE PUSH1 0x9 PUSH1 0x20 SWAP1 DUP2 MSTORE PUSH1 0x40 DUP1 DUP4 KECCAK256 DUP5 DUP5 MSTORE PUSH1 0x2 ADD SWAP1 SWAP2 MSTORE DUP2 KECCAK256 DUP1 SLOAD PUSH1 0x1 DUP3 ADD SLOAD SWAP2 SWAP8 POP SWAP3 SWAP4 POP SWAP1 PUSH2 0x3198 DUP4 PUSH2 0x39B4 JUMP JUMPDEST DUP1 PUSH2 0x31A7 JUMPI POP PUSH2 0x31A7 DUP3 PUSH2 0x39B4 JUMP JUMPDEST DUP1 PUSH2 0x31C8 JUMPI POP PUSH2 0x31B7 DUP13 DUP8 PUSH2 0x39E7 JUMP JUMPDEST DUP1 ISZERO PUSH2 0x31C8 JUMPI POP PUSH2 0x31C8 DUP13 DUP7 PUSH2 0x39E7 JUMP JUMPDEST SWAP1 POP DUP1 PUSH2 0x31E3 JUMPI PUSH2 0x31D8 DUP13 PUSH2 0x25E7 JUMP JUMPDEST PUSH2 0x31E3 PUSH2 0x209 PUSH2 0x16A6 JUMP JUMPDEST PUSH2 0x31ED DUP4 DUP4 PUSH2 0x4310 JUMP JUMPDEST SWAP9 POP PUSH2 0x31F9 DUP4 DUP4 PUSH2 0x4335 JUMP JUMPDEST SWAP8 POP POP POP POP POP POP POP SWAP4 POP SWAP4 POP SWAP4 SWAP1 POP JUMP JUMPDEST PUSH1 0x1 PUSH1 0x1 PUSH1 0xE0 SHL SUB AND ISZERO SWAP1 JUMP JUMPDEST PUSH1 0x1 PUSH1 0x1 PUSH1 0xA0 SHL SUB DUP2 AND PUSH1 0x0 SWAP1 DUP2 MSTORE PUSH1 0x1 DUP4 ADD PUSH1 0x20 MSTORE PUSH1 0x40 DUP2 KECCAK256 SLOAD DUP1 ISZERO PUSH2 0x331B JUMPI DUP4 SLOAD PUSH1 0x0 NOT DUP1 DUP4 ADD SWAP2 ADD DUP1 DUP3 EQ PUSH2 0x32C3 JUMPI PUSH1 0x0 DUP7 PUSH1 0x0 ADD DUP3 DUP2 SLOAD DUP2 LT PUSH2 0x325A JUMPI INVALID JUMPDEST PUSH1 0x0 SWAP2 DUP3 MSTORE PUSH1 0x20 SWAP1 SWAP2 KECCAK256 ADD SLOAD DUP8 SLOAD PUSH1 0x1 PUSH1 0x1 PUSH1 0xA0 SHL SUB SWAP1 SWAP2 AND SWAP2 POP DUP2 SWAP1 DUP9 SWAP1 DUP6 SWAP1 DUP2 LT PUSH2 0x3283 JUMPI INVALID JUMPDEST PUSH1 0x0 SWAP2 DUP3 MSTORE PUSH1 0x20 DUP1 DUP4 KECCAK256 SWAP2 SWAP1 SWAP2 ADD DUP1 SLOAD PUSH1 0x1 PUSH1 0x1 PUSH1 0xA0 SHL SUB NOT AND PUSH1 0x1 PUSH1 0x1 PUSH1 0xA0 SHL SUB SWAP5 DUP6 AND OR SWAP1 SSTORE SWAP3 SWAP1 SWAP2 AND DUP2 MSTORE PUSH1 0x1 DUP9 DUP2 ADD SWAP1 SWAP3 MSTORE PUSH1 0x40 SWAP1 KECCAK256 SWAP1 DUP4 ADD SWAP1 SSTORE JUMPDEST DUP6 SLOAD DUP7 SWAP1 DUP1 PUSH2 0x32CE JUMPI INVALID JUMPDEST PUSH1 0x0 DUP3 DUP2 MSTORE PUSH1 0x20 DUP1 DUP3 KECCAK256 DUP4 ADD PUSH1 0x0 NOT SWAP1 DUP2 ADD DUP1 SLOAD PUSH1 0x1 PUSH1 0x1 PUSH1 0xA0 SHL SUB NOT AND SWAP1 SSTORE SWAP1 SWAP3 ADD SWAP1 SWAP3 SSTORE PUSH1 0x1 PUSH1 0x1 PUSH1 0xA0 SHL SUB DUP8 AND DUP3 MSTORE PUSH1 0x1 DUP9 DUP2 ADD SWAP1 SWAP2 MSTORE PUSH1 0x40 DUP3 KECCAK256 SWAP2 SWAP1 SWAP2 SSTORE SWAP4 POP PUSH2 0x16A0 SWAP3 POP POP POP JUMP JUMPDEST PUSH1 0x0 SWAP2 POP POP PUSH2 0x16A0 JUMP JUMPDEST PUSH1 0x0 PUSH2 0x169D DUP4 DUP4 PUSH2 0x209 PUSH2 0x434C JUMP JUMPDEST PUSH1 0x1 PUSH1 0x1 PUSH1 0xA0 SHL SUB DUP2 AND PUSH1 0x0 SWAP1 DUP2 MSTORE PUSH1 0x2 DUP4 ADD PUSH1 0x20 MSTORE PUSH1 0x40 DUP2 KECCAK256 SLOAD DUP1 ISZERO PUSH2 0x331B JUMPI DUP4 SLOAD PUSH1 0x0 NOT DUP1 DUP4 ADD SWAP2 ADD DUP1 DUP3 EQ PUSH2 0x33BC JUMPI PUSH1 0x0 DUP2 DUP2 MSTORE PUSH1 0x1 DUP1 DUP9 ADD PUSH1 0x20 SWAP1 DUP2 MSTORE PUSH1 0x40 DUP1 DUP5 KECCAK256 DUP7 DUP6 MSTORE DUP2 DUP6 KECCAK256 DUP2 SLOAD DUP2 SLOAD PUSH1 0x1 PUSH1 0x1 PUSH1 0xA0 SHL SUB NOT AND PUSH1 0x1 PUSH1 0x1 PUSH1 0xA0 SHL SUB SWAP2 DUP3 AND OR DUP3 SSTORE DUP3 DUP7 ADD SLOAD SWAP2 DUP7 ADD SWAP2 SWAP1 SWAP2 SSTORE SWAP1 SLOAD AND DUP5 MSTORE PUSH1 0x2 DUP11 ADD SWAP1 SWAP2 MSTORE SWAP1 SWAP2 KECCAK256 SWAP1 DUP4 ADD SWAP1 SSTORE JUMPDEST PUSH1 0x0 DUP2 DUP2 MSTORE PUSH1 0x1 DUP1 DUP9 ADD PUSH1 0x20 SWAP1 DUP2 MSTORE PUSH1 0x40 DUP1 DUP5 KECCAK256 DUP1 SLOAD PUSH1 0x1 PUSH1 0x1 PUSH1 0xA0 SHL SUB NOT AND DUP2 SSTORE DUP4 ADD DUP5 SWAP1 SSTORE SWAP4 DUP10 SSTORE PUSH1 0x1 PUSH1 0x1 PUSH1 0xA0 SHL SUB DUP9 AND DUP4 MSTORE PUSH1 0x2 DUP10 ADD SWAP1 MSTORE SWAP2 DUP2 KECCAK256 SSTORE SWAP3 POP PUSH2 0x16A0 SWAP2 POP POP JUMP JUMPDEST PUSH1 0x60 DUP1 DUP3 MLOAD PUSH1 0x1 PUSH1 0x1 PUSH1 0x40 SHL SUB DUP2 GT DUP1 ISZERO PUSH2 0x3420 JUMPI PUSH1 0x0 DUP1 REVERT JUMPDEST POP PUSH1 0x40 MLOAD SWAP1 DUP1 DUP3 MSTORE DUP1 PUSH1 0x20 MUL PUSH1 0x20 ADD DUP3 ADD PUSH1 0x40 MSTORE DUP1 ISZERO PUSH2 0x344A JUMPI DUP2 PUSH1 0x20 ADD PUSH1 0x20 DUP3 MUL DUP1 CALLDATASIZE DUP4 CALLDATACOPY ADD SWAP1 POP JUMPDEST POP SWAP1 POP PUSH1 0x0 JUMPDEST DUP4 MLOAD DUP2 LT ISZERO PUSH2 0x7DE JUMPI PUSH2 0x3468 DUP5 DUP3 DUP2 MLOAD DUP2 LT PUSH2 0x2410 JUMPI INVALID JUMPDEST DUP3 DUP3 DUP2 MLOAD DUP2 LT PUSH2 0x3474 JUMPI INVALID JUMPDEST PUSH1 0x1 PUSH1 0x1 PUSH1 0xA0 SHL SUB SWAP1 SWAP3 AND PUSH1 0x20 SWAP3 DUP4 MUL SWAP2 SWAP1 SWAP2 ADD SWAP1 SWAP2 ADD MSTORE PUSH1 0x1 ADD PUSH2 0x3450 JUMP JUMPDEST PUSH1 0x60 DUP1 PUSH1 0x60 PUSH2 0x34A2 DUP6 PUSH2 0x2894 JUMP JUMPDEST SWAP2 POP SWAP2 POP PUSH2 0x34B2 DUP3 MLOAD DUP6 MLOAD PUSH2 0x1D8C JUMP JUMPDEST PUSH2 0x34C2 PUSH1 0x0 DUP4 MLOAD GT PUSH2 0x20F PUSH2 0x52B JUMP JUMPDEST PUSH1 0x0 JUMPDEST DUP3 MLOAD DUP2 LT ISZERO PUSH2 0x351C JUMPI PUSH2 0x3514 DUP6 DUP3 DUP2 MLOAD DUP2 LT PUSH2 0x34DD JUMPI INVALID JUMPDEST PUSH1 0x20 MUL PUSH1 0x20 ADD ADD MLOAD PUSH1 0x1 PUSH1 0x1 PUSH1 0xA0 SHL SUB AND DUP5 DUP4 DUP2 MLOAD DUP2 LT PUSH2 0x34FA JUMPI INVALID JUMPDEST PUSH1 0x20 MUL PUSH1 0x20 ADD ADD MLOAD PUSH1 0x1 PUSH1 0x1 PUSH1 0xA0 SHL SUB AND EQ PUSH2 0x208 PUSH2 0x52B JUMP JUMPDEST PUSH1 0x1 ADD PUSH2 0x34C5 JUMP JUMPDEST POP SWAP5 SWAP4 POP POP POP POP JUMP JUMPDEST PUSH1 0x60 DUP1 PUSH1 0x60 DUP1 PUSH1 0x0 PUSH2 0x3536 DUP7 PUSH2 0x28F6 JUMP JUMPDEST SWAP2 POP SWAP2 POP PUSH1 0x0 PUSH2 0x3545 DUP12 PUSH2 0x288E JUMP JUMPDEST SWAP1 POP PUSH1 0x0 DUP13 PUSH1 0x1 DUP2 GT ISZERO PUSH2 0x3555 JUMPI INVALID JUMPDEST EQ PUSH2 0x35F8 JUMPI DUP1 PUSH1 0x1 PUSH1 0x1 PUSH1 0xA0 SHL SUB AND PUSH4 0x74F3B009 DUP13 DUP13 DUP13 DUP8 DUP8 PUSH2 0x3576 PUSH2 0x4389 JUMP JUMPDEST DUP16 PUSH1 0x40 ADD MLOAD PUSH1 0x40 MLOAD DUP9 PUSH4 0xFFFFFFFF AND PUSH1 0xE0 SHL DUP2 MSTORE PUSH1 0x4 ADD PUSH2 0x359D SWAP8 SWAP7 SWAP6 SWAP5 SWAP4 SWAP3 SWAP2 SWAP1 PUSH2 0x5C38 JUMP JUMPDEST PUSH1 0x0 PUSH1 0x40 MLOAD DUP1 DUP4 SUB DUP2 PUSH1 0x0 DUP8 DUP1 EXTCODESIZE ISZERO DUP1 ISZERO PUSH2 0x35B7 JUMPI PUSH1 0x0 DUP1 REVERT JUMPDEST POP GAS CALL ISZERO DUP1 ISZERO PUSH2 0x35CB JUMPI RETURNDATASIZE PUSH1 0x0 DUP1 RETURNDATACOPY RETURNDATASIZE PUSH1 0x0 REVERT JUMPDEST POP POP POP POP PUSH1 0x40 MLOAD RETURNDATASIZE PUSH1 0x0 DUP3 RETURNDATACOPY PUSH1 0x1F RETURNDATASIZE SWAP1 DUP2 ADD PUSH1 0x1F NOT AND DUP3 ADD PUSH1 0x40 MSTORE PUSH2 0x35F3 SWAP2 SWAP1 DUP2 ADD SWAP1 PUSH2 0x52FA JUMP JUMPDEST PUSH2 0x3691 JUMP JUMPDEST DUP1 PUSH1 0x1 PUSH1 0x1 PUSH1 0xA0 SHL SUB AND PUSH4 0xD5C096C4 DUP13 DUP13 DUP13 DUP8 DUP8 PUSH2 0x3614 PUSH2 0x4389 JUMP JUMPDEST DUP16 PUSH1 0x40 ADD MLOAD PUSH1 0x40 MLOAD DUP9 PUSH4 0xFFFFFFFF AND PUSH1 0xE0 SHL DUP2 MSTORE PUSH1 0x4 ADD PUSH2 0x363B SWAP8 SWAP7 SWAP6 SWAP5 SWAP4 SWAP3 SWAP2 SWAP1 PUSH2 0x5C38 JUMP JUMPDEST PUSH1 0x0 PUSH1 0x40 MLOAD DUP1 DUP4 SUB DUP2 PUSH1 0x0 DUP8 DUP1 EXTCODESIZE ISZERO DUP1 ISZERO PUSH2 0x3655 JUMPI PUSH1 0x0 DUP1 REVERT JUMPDEST POP GAS CALL ISZERO DUP1 ISZERO PUSH2 0x3669 JUMPI RETURNDATASIZE PUSH1 0x0 DUP1 RETURNDATACOPY RETURNDATASIZE PUSH1 0x0 REVERT JUMPDEST POP POP POP POP PUSH1 0x40 MLOAD RETURNDATASIZE PUSH1 0x0 DUP3 RETURNDATACOPY PUSH1 0x1F RETURNDATASIZE SWAP1 DUP2 ADD PUSH1 0x1F NOT AND DUP3 ADD PUSH1 0x40 MSTORE PUSH2 0x3691 SWAP2 SWAP1 DUP2 ADD SWAP1 PUSH2 0x52FA JUMP JUMPDEST DUP1 SWAP6 POP DUP2 SWAP7 POP POP POP PUSH2 0x36A7 DUP8 MLOAD DUP7 MLOAD DUP7 MLOAD PUSH2 0x4403 JUMP JUMPDEST PUSH1 0x0 DUP13 PUSH1 0x1 DUP2 GT ISZERO PUSH2 0x36B5 JUMPI INVALID JUMPDEST EQ PUSH2 0x36CC JUMPI PUSH2 0x36C7 DUP10 DUP10 DUP10 DUP9 DUP9 PUSH2 0x441B JUMP JUMPDEST PUSH2 0x36D9 JUMP JUMPDEST PUSH2 0x36D9 DUP11 DUP10 DUP10 DUP9 DUP9 PUSH2 0x4561 JUMP JUMPDEST SWAP6 POP POP POP POP SWAP7 POP SWAP7 POP SWAP7 SWAP4 POP POP POP POP JUMP JUMPDEST PUSH1 0x0 PUSH2 0x36F6 DUP6 DUP5 PUSH2 0x42DD JUMP JUMPDEST PUSH1 0x0 DUP8 DUP2 MSTORE PUSH1 0x9 PUSH1 0x20 SWAP1 DUP2 MSTORE PUSH1 0x40 DUP1 DUP4 KECCAK256 DUP5 DUP5 MSTORE PUSH1 0x2 ADD SWAP1 SWAP2 MSTORE SWAP1 KECCAK256 SWAP1 SWAP2 POP PUSH2 0x371F DUP6 DUP5 PUSH2 0x41D9 JUMP JUMPDEST SWAP1 SSTORE POP POP POP POP POP POP JUMP JUMPDEST PUSH1 0x0 JUMPDEST DUP3 MLOAD DUP2 LT ISZERO PUSH2 0xDC4 JUMPI DUP2 DUP2 DUP2 MLOAD DUP2 LT PUSH2 0x3741 JUMPI INVALID JUMPDEST PUSH1 0x20 MUL PUSH1 0x20 ADD ADD MLOAD PUSH1 0x7 PUSH1 0x0 DUP7 DUP2 MSTORE PUSH1 0x20 ADD SWAP1 DUP2 MSTORE PUSH1 0x20 ADD PUSH1 0x0 KECCAK256 PUSH1 0x0 DUP6 DUP5 DUP2 MLOAD DUP2 LT PUSH2 0x376A JUMPI INVALID JUMPDEST PUSH1 0x20 SWAP1 DUP2 MUL SWAP2 SWAP1 SWAP2 ADD DUP2 ADD MLOAD PUSH1 0x1 PUSH1 0x1 PUSH1 0xA0 SHL SUB AND DUP3 MSTORE DUP2 ADD SWAP2 SWAP1 SWAP2 MSTORE PUSH1 0x40 ADD PUSH1 0x0 KECCAK256 SSTORE PUSH1 0x1 ADD PUSH2 0x372C JUMP JUMPDEST PUSH1 0x0 DUP3 DUP2 MSTORE PUSH1 0x1 PUSH1 0x20 MSTORE PUSH1 0x40 DUP2 KECCAK256 SWAP1 JUMPDEST DUP3 MLOAD DUP2 LT ISZERO PUSH2 0xDC4 JUMPI PUSH2 0x37D7 DUP2 DUP5 DUP4 DUP2 MLOAD DUP2 LT PUSH2 0x37BF JUMPI INVALID JUMPDEST PUSH1 0x20 MUL PUSH1 0x20 ADD ADD MLOAD DUP5 PUSH2 0x4294 SWAP1 SWAP3 SWAP2 SWAP1 PUSH4 0xFFFFFFFF AND JUMP JUMPDEST PUSH1 0x1 ADD PUSH2 0x37A6 JUMP JUMPDEST PUSH1 0x60 DUP3 MLOAD PUSH1 0x1 PUSH1 0x1 PUSH1 0x40 SHL SUB DUP2 GT DUP1 ISZERO PUSH2 0x37F8 JUMPI PUSH1 0x0 DUP1 REVERT JUMPDEST POP PUSH1 0x40 MLOAD SWAP1 DUP1 DUP3 MSTORE DUP1 PUSH1 0x20 MUL PUSH1 0x20 ADD DUP3 ADD PUSH1 0x40 MSTORE DUP1 ISZERO PUSH2 0x3822 JUMPI DUP2 PUSH1 0x20 ADD PUSH1 0x20 DUP3 MUL DUP1 CALLDATASIZE DUP4 CALLDATACOPY ADD SWAP1 POP JUMPDEST POP SWAP1 POP PUSH1 0x0 JUMPDEST DUP4 MLOAD DUP2 LT ISZERO PUSH2 0x7DE JUMPI DUP3 PUSH2 0x3852 JUMPI DUP4 DUP2 DUP2 MLOAD DUP2 LT PUSH2 0x3842 JUMPI INVALID JUMPDEST PUSH1 0x20 MUL PUSH1 0x20 ADD ADD MLOAD PUSH1 0x0 SUB PUSH2 0x3867 JUMP JUMPDEST DUP4 DUP2 DUP2 MLOAD DUP2 LT PUSH2 0x385E JUMPI INVALID JUMPDEST PUSH1 0x20 MUL PUSH1 0x20 ADD ADD MLOAD JUMPDEST DUP3 DUP3 DUP2 MLOAD DUP2 LT PUSH2 0x3873 JUMPI INVALID JUMPDEST PUSH1 0x20 SWAP1 DUP2 MUL SWAP2 SWAP1 SWAP2 ADD ADD MSTORE PUSH1 0x1 ADD PUSH2 0x3828 JUMP JUMPDEST PUSH1 0x0 DUP1 DUP5 PUSH1 0x1 DUP2 GT ISZERO PUSH2 0x3895 JUMPI INVALID JUMPDEST EQ PUSH2 0x38A0 JUMPI DUP2 PUSH2 0x9C0 JUMP JUMPDEST POP SWAP1 SWAP3 SWAP2 POP POP JUMP JUMPDEST PUSH1 0x0 DUP1 DUP5 PUSH1 0x1 DUP2 GT ISZERO PUSH2 0x38B7 JUMPI INVALID JUMPDEST EQ PUSH2 0x7DE JUMPI DUP3 PUSH2 0x9C0 JUMP JUMPDEST PUSH1 0x0 PUSH2 0x21CF PUSH1 0x1 PUSH1 0xFF SHL DUP4 LT PUSH2 0x1A5 PUSH2 0x52B JUMP JUMPDEST PUSH1 0x0 DUP3 DUP3 ADD PUSH2 0x169D DUP3 DUP5 SLT DUP1 ISZERO SWAP1 PUSH2 0x38EE JUMPI POP DUP5 DUP3 SLT ISZERO JUMPDEST DUP1 PUSH2 0x3903 JUMPI POP PUSH1 0x0 DUP5 SLT DUP1 ISZERO PUSH2 0x3903 JUMPI POP DUP5 DUP3 SLT JUMPDEST PUSH1 0x0 PUSH2 0x52B JUMP JUMPDEST PUSH1 0x0 DUP2 DUP4 SUB PUSH2 0x169D DUP3 DUP5 SLT DUP1 ISZERO SWAP1 PUSH2 0x3922 JUMPI POP DUP5 DUP3 SGT ISZERO JUMPDEST DUP1 PUSH2 0x3937 JUMPI POP PUSH1 0x0 DUP5 SLT DUP1 ISZERO PUSH2 0x3937 JUMPI POP DUP5 DUP3 SGT JUMPDEST PUSH1 0x1 PUSH2 0x52B JUMP JUMPDEST PUSH1 0x0 DUP2 DUP2 MSTORE PUSH1 0x9 PUSH1 0x20 MSTORE PUSH1 0x40 DUP2 KECCAK256 DUP1 SLOAD PUSH1 0x1 DUP3 ADD SLOAD PUSH1 0x1 PUSH1 0x1 PUSH1 0xA0 SHL SUB SWAP2 DUP3 AND SWAP3 DUP5 SWAP3 SWAP1 SWAP2 AND SWAP1 DUP3 SWAP1 DUP2 PUSH2 0x3972 DUP7 DUP6 PUSH2 0x42DD JUMP JUMPDEST PUSH1 0x0 DUP2 DUP2 MSTORE PUSH1 0x2 DUP5 ADD PUSH1 0x20 MSTORE PUSH1 0x40 SWAP1 KECCAK256 DUP1 SLOAD PUSH1 0x1 DUP3 ADD SLOAD SWAP2 SWAP10 POP SWAP2 SWAP3 POP PUSH2 0x3999 DUP3 DUP3 PUSH2 0x4310 JUMP JUMPDEST SWAP7 POP PUSH2 0x39A5 DUP3 DUP3 PUSH2 0x4335 JUMP JUMPDEST SWAP5 POP POP POP POP POP SWAP2 SWAP4 SWAP6 SWAP1 SWAP3 SWAP5 POP JUMP JUMPDEST PUSH1 0x0 PUSH2 0x39BF DUP3 PUSH2 0x320A JUMP JUMPDEST ISZERO SWAP3 SWAP2 POP POP JUMP JUMPDEST PUSH1 0x1 PUSH1 0x1 PUSH1 0xA0 SHL SUB AND PUSH1 0x0 SWAP1 DUP2 MSTORE PUSH1 0x1 SWAP2 SWAP1 SWAP2 ADD PUSH1 0x20 MSTORE PUSH1 0x40 SWAP1 KECCAK256 SLOAD ISZERO ISZERO SWAP1 JUMP JUMPDEST PUSH1 0x0 DUP3 DUP2 MSTORE PUSH1 0x9 PUSH1 0x20 MSTORE PUSH1 0x40 DUP2 KECCAK256 DUP1 SLOAD PUSH1 0x1 PUSH1 0x1 PUSH1 0xA0 SHL SUB DUP5 DUP2 AND SWAP2 AND EQ DUP1 PUSH2 0x3A1F JUMPI POP PUSH1 0x1 DUP2 ADD SLOAD PUSH1 0x1 PUSH1 0x1 PUSH1 0xA0 SHL SUB DUP5 DUP2 AND SWAP2 AND EQ JUMPDEST DUP1 ISZERO PUSH2 0x9C0 JUMPI POP POP POP PUSH1 0x1 PUSH1 0x1 PUSH1 0xA0 SHL SUB AND ISZERO ISZERO SWAP2 SWAP1 POP JUMP JUMPDEST PUSH1 0x0 DUP3 DUP2 MSTORE PUSH1 0x8 PUSH1 0x20 MSTORE PUSH1 0x40 DUP2 KECCAK256 PUSH2 0x9C0 DUP2 DUP5 PUSH2 0x39C6 JUMP JUMPDEST PUSH1 0x0 DUP3 DUP2 MSTORE PUSH1 0x1 PUSH1 0x20 MSTORE PUSH1 0x40 DUP2 KECCAK256 PUSH2 0x9C0 DUP2 DUP5 PUSH2 0x46D6 JUMP JUMPDEST PUSH1 0x0 DUP1 PUSH1 0x2 DUP6 PUSH1 0x2 DUP2 GT ISZERO PUSH2 0x3A79 JUMPI INVALID JUMPDEST EQ ISZERO PUSH2 0x3A8F JUMPI PUSH2 0x3A8A DUP7 DUP6 DUP6 PUSH2 0x46F7 JUMP JUMPDEST PUSH2 0x3AB9 JUMP JUMPDEST PUSH1 0x1 DUP6 PUSH1 0x2 DUP2 GT ISZERO PUSH2 0x3A9D JUMPI INVALID JUMPDEST EQ ISZERO PUSH2 0x3AAE JUMPI PUSH2 0x3A8A DUP7 DUP6 DUP6 PUSH2 0x4705 JUMP JUMPDEST PUSH2 0x3AB9 DUP7 DUP6 DUP6 PUSH2 0x4713 JUMP JUMPDEST DUP3 ISZERO PUSH2 0x3AD3 JUMPI PUSH2 0x3AD3 PUSH1 0x1 PUSH1 0x1 PUSH1 0xA0 SHL SUB DUP6 AND CALLER DUP6 PUSH2 0x1E20 JUMP JUMPDEST POP POP PUSH1 0x0 DUP2 SWAP1 SUB SWAP5 SWAP1 SWAP4 POP SWAP2 POP POP JUMP JUMPDEST PUSH1 0x0 DUP1 PUSH1 0x2 DUP6 PUSH1 0x2 DUP2 GT ISZERO PUSH2 0x3AF4 JUMPI INVALID JUMPDEST EQ ISZERO PUSH2 0x3B0A JUMPI PUSH2 0x3B05 DUP7 DUP6 DUP6 PUSH2 0x4721 JUMP JUMPDEST PUSH2 0x3B34 JUMP JUMPDEST PUSH1 0x1 DUP6 PUSH1 0x2 DUP2 GT ISZERO PUSH2 0x3B18 JUMPI INVALID JUMPDEST EQ ISZERO PUSH2 0x3B29 JUMPI PUSH2 0x3B05 DUP7 DUP6 DUP6 PUSH2 0x472F JUMP JUMPDEST PUSH2 0x3B34 DUP7 DUP6 DUP6 PUSH2 0x473D JUMP JUMPDEST DUP3 ISZERO PUSH2 0x3B4F JUMPI PUSH2 0x3B4F PUSH1 0x1 PUSH1 0x1 PUSH1 0xA0 SHL SUB DUP6 AND CALLER ADDRESS DUP7 PUSH2 0x2AE2 JUMP JUMPDEST POP SWAP1 SWAP5 PUSH1 0x0 DUP7 SWAP1 SUB SWAP5 POP SWAP3 POP POP POP JUMP JUMPDEST PUSH1 0x0 DUP1 PUSH1 0x2 DUP6 PUSH1 0x2 DUP2 GT ISZERO PUSH2 0x3B70 JUMPI INVALID JUMPDEST EQ ISZERO PUSH2 0x3B88 JUMPI PUSH2 0x3B81 DUP7 DUP6 DUP6 PUSH2 0x474B JUMP JUMPDEST SWAP1 POP PUSH2 0x3BB5 JUMP JUMPDEST PUSH1 0x1 DUP6 PUSH1 0x2 DUP2 GT ISZERO PUSH2 0x3B96 JUMPI INVALID JUMPDEST EQ ISZERO PUSH2 0x3BA7 JUMPI PUSH2 0x3B81 DUP7 DUP6 DUP6 PUSH2 0x475B JUMP JUMPDEST PUSH2 0x3BB2 DUP7 DUP6 DUP6 PUSH2 0x476B JUMP JUMPDEST SWAP1 POP JUMPDEST PUSH1 0x0 SWAP2 POP SWAP5 POP SWAP5 SWAP3 POP POP POP JUMP JUMPDEST CHAINID SWAP1 JUMP JUMPDEST PUSH1 0x60 DUP1 PUSH1 0x0 DUP1 PUSH1 0x0 DUP1 PUSH2 0x3BD8 DUP8 PUSH2 0x393E JUMP JUMPDEST SWAP3 SWAP8 POP SWAP1 SWAP6 POP SWAP4 POP SWAP2 POP POP PUSH1 0x1 PUSH1 0x1 PUSH1 0xA0 SHL SUB DUP5 AND ISZERO DUP1 PUSH2 0x3C00 JUMPI POP PUSH1 0x1 PUSH1 0x1 PUSH1 0xA0 SHL SUB DUP3 AND ISZERO JUMPDEST ISZERO PUSH2 0x3C29 JUMPI POP POP PUSH1 0x40 DUP1 MLOAD PUSH1 0x0 DUP1 DUP3 MSTORE PUSH1 0x20 DUP3 ADD SWAP1 DUP2 MSTORE DUP2 DUP4 ADD SWAP1 SWAP3 MSTORE SWAP5 POP SWAP3 POP PUSH2 0x28F1 SWAP2 POP POP JUMP JUMPDEST PUSH1 0x40 DUP1 MLOAD PUSH1 0x2 DUP1 DUP3 MSTORE PUSH1 0x60 DUP3 ADD DUP4 MSTORE SWAP1 SWAP2 PUSH1 0x20 DUP4 ADD SWAP1 DUP1 CALLDATASIZE DUP4 CALLDATACOPY ADD SWAP1 POP POP SWAP6 POP DUP4 DUP7 PUSH1 0x0 DUP2 MLOAD DUP2 LT PUSH2 0x3C57 JUMPI INVALID JUMPDEST PUSH1 0x20 MUL PUSH1 0x20 ADD ADD SWAP1 PUSH1 0x1 PUSH1 0x1 PUSH1 0xA0 SHL SUB AND SWAP1 DUP2 PUSH1 0x1 PUSH1 0x1 PUSH1 0xA0 SHL SUB AND DUP2 MSTORE POP POP DUP2 DUP7 PUSH1 0x1 DUP2 MLOAD DUP2 LT PUSH2 0x3C85 JUMPI INVALID JUMPDEST PUSH1 0x1 PUSH1 0x1 PUSH1 0xA0 SHL SUB SWAP3 SWAP1 SWAP3 AND PUSH1 0x20 SWAP3 DUP4 MUL SWAP2 SWAP1 SWAP2 ADD DUP3 ADD MSTORE PUSH1 0x40 DUP1 MLOAD PUSH1 0x2 DUP1 DUP3 MSTORE PUSH1 0x60 DUP3 ADD DUP4 MSTORE SWAP1 SWAP3 SWAP1 SWAP2 SWAP1 DUP4 ADD SWAP1 DUP1 CALLDATASIZE DUP4 CALLDATACOPY ADD SWAP1 POP POP SWAP5 POP DUP3 DUP6 PUSH1 0x0 DUP2 MLOAD DUP2 LT PUSH2 0x3CCC JUMPI INVALID JUMPDEST PUSH1 0x20 MUL PUSH1 0x20 ADD ADD DUP2 DUP2 MSTORE POP POP DUP1 DUP6 PUSH1 0x1 DUP2 MLOAD DUP2 LT PUSH2 0x3CE6 JUMPI INVALID JUMPDEST PUSH1 0x20 MUL PUSH1 0x20 ADD ADD DUP2 DUP2 MSTORE POP POP POP POP POP POP SWAP2 POP SWAP2 JUMP JUMPDEST PUSH1 0x0 DUP2 DUP2 MSTORE PUSH1 0x8 PUSH1 0x20 MSTORE PUSH1 0x40 SWAP1 KECCAK256 PUSH1 0x60 SWAP1 DUP2 SWAP1 PUSH2 0x3D17 DUP2 PUSH2 0x4233 JUMP JUMPDEST PUSH1 0x1 PUSH1 0x1 PUSH1 0x40 SHL SUB DUP2 GT DUP1 ISZERO PUSH2 0x3D2C JUMPI PUSH1 0x0 DUP1 REVERT JUMPDEST POP PUSH1 0x40 MLOAD SWAP1 DUP1 DUP3 MSTORE DUP1 PUSH1 0x20 MUL PUSH1 0x20 ADD DUP3 ADD PUSH1 0x40 MSTORE DUP1 ISZERO PUSH2 0x3D56 JUMPI DUP2 PUSH1 0x20 ADD PUSH1 0x20 DUP3 MUL DUP1 CALLDATASIZE DUP4 CALLDATACOPY ADD SWAP1 POP JUMPDEST POP SWAP3 POP DUP3 MLOAD PUSH1 0x1 PUSH1 0x1 PUSH1 0x40 SHL SUB DUP2 GT DUP1 ISZERO PUSH2 0x3D70 JUMPI PUSH1 0x0 DUP1 REVERT JUMPDEST POP PUSH1 0x40 MLOAD SWAP1 DUP1 DUP3 MSTORE DUP1 PUSH1 0x20 MUL PUSH1 0x20 ADD DUP3 ADD PUSH1 0x40 MSTORE DUP1 ISZERO PUSH2 0x3D9A JUMPI DUP2 PUSH1 0x20 ADD PUSH1 0x20 DUP3 MUL DUP1 CALLDATASIZE DUP4 CALLDATACOPY ADD SWAP1 POP JUMPDEST POP SWAP2 POP PUSH1 0x0 JUMPDEST DUP4 MLOAD DUP2 LT ISZERO PUSH2 0x3E19 JUMPI PUSH1 0x0 PUSH2 0x3DB5 DUP4 DUP4 PUSH2 0x477B JUMP JUMPDEST SWAP1 POP DUP1 DUP6 DUP4 DUP2 MLOAD DUP2 LT PUSH2 0x3DC4 JUMPI INVALID JUMPDEST PUSH1 0x1 PUSH1 0x1 PUSH1 0xA0 SHL SUB SWAP3 DUP4 AND PUSH1 0x20 SWAP2 DUP3 MUL SWAP3 SWAP1 SWAP3 ADD DUP2 ADD SWAP2 SWAP1 SWAP2 MSTORE PUSH1 0x0 DUP9 DUP2 MSTORE PUSH1 0x7 DUP3 MSTORE PUSH1 0x40 DUP1 DUP3 KECCAK256 SWAP4 DUP6 AND DUP3 MSTORE SWAP3 SWAP1 SWAP2 MSTORE KECCAK256 SLOAD DUP5 MLOAD DUP6 SWAP1 DUP5 SWAP1 DUP2 LT PUSH2 0x3E05 JUMPI INVALID JUMPDEST PUSH1 0x20 SWAP1 DUP2 MUL SWAP2 SWAP1 SWAP2 ADD ADD MSTORE POP PUSH1 0x1 ADD PUSH2 0x3DA0 JUMP JUMPDEST POP POP SWAP2 POP SWAP2 JUMP JUMPDEST PUSH1 0x0 DUP2 DUP2 MSTORE PUSH1 0x1 PUSH1 0x20 MSTORE PUSH1 0x40 SWAP1 KECCAK256 PUSH1 0x60 SWAP1 DUP2 SWAP1 PUSH2 0x3E3C DUP2 PUSH2 0x4233 JUMP JUMPDEST PUSH1 0x1 PUSH1 0x1 PUSH1 0x40 SHL SUB DUP2 GT DUP1 ISZERO PUSH2 0x3E51 JUMPI PUSH1 0x0 DUP1 REVERT JUMPDEST POP PUSH1 0x40 MLOAD SWAP1 DUP1 DUP3 MSTORE DUP1 PUSH1 0x20 MUL PUSH1 0x20 ADD DUP3 ADD PUSH1 0x40 MSTORE DUP1 ISZERO PUSH2 0x3E7B JUMPI DUP2 PUSH1 0x20 ADD PUSH1 0x20 DUP3 MUL DUP1 CALLDATASIZE DUP4 CALLDATACOPY ADD SWAP1 POP JUMPDEST POP SWAP3 POP DUP3 MLOAD PUSH1 0x1 PUSH1 0x1 PUSH1 0x40 SHL SUB DUP2 GT DUP1 ISZERO PUSH2 0x3E95 JUMPI PUSH1 0x0 DUP1 REVERT JUMPDEST POP PUSH1 0x40 MLOAD SWAP1 DUP1 DUP3 MSTORE DUP1 PUSH1 0x20 MUL PUSH1 0x20 ADD DUP3 ADD PUSH1 0x40 MSTORE DUP1 ISZERO PUSH2 0x3EBF JUMPI DUP2 PUSH1 0x20 ADD PUSH1 0x20 DUP3 MUL DUP1 CALLDATASIZE DUP4 CALLDATACOPY ADD SWAP1 POP JUMPDEST POP SWAP2 POP PUSH1 0x0 JUMPDEST DUP4 MLOAD DUP2 LT ISZERO PUSH2 0x3E19 JUMPI PUSH2 0x3ED8 DUP3 DUP3 PUSH2 0x47A8 JUMP JUMPDEST DUP6 DUP4 DUP2 MLOAD DUP2 LT PUSH2 0x3EE4 JUMPI INVALID JUMPDEST PUSH1 0x20 MUL PUSH1 0x20 ADD ADD DUP6 DUP5 DUP2 MLOAD DUP2 LT PUSH2 0x3EF7 JUMPI INVALID JUMPDEST PUSH1 0x20 SWAP1 DUP2 MUL SWAP2 SWAP1 SWAP2 ADD ADD SWAP2 SWAP1 SWAP2 MSTORE PUSH1 0x1 PUSH1 0x1 PUSH1 0xA0 SHL SUB SWAP1 SWAP2 AND SWAP1 MSTORE PUSH1 0x1 ADD PUSH2 0x3EC5 JUMP JUMPDEST PUSH1 0x0 PUSH2 0x3F25 DUP3 PUSH2 0x2711 JUMP JUMPDEST PUSH2 0x3F2E DUP4 PUSH2 0x2705 JUMP JUMPDEST ADD SWAP3 SWAP2 POP POP JUMP JUMPDEST PUSH1 0x0 DUP2 DUP4 LT ISZERO PUSH2 0x3F45 JUMPI DUP2 PUSH2 0x169D JUMP JUMPDEST POP SWAP1 SWAP2 SWAP1 POP JUMP JUMPDEST PUSH1 0x0 DUP2 DUP4 LT PUSH2 0x3F45 JUMPI DUP2 PUSH2 0x169D JUMP JUMPDEST PUSH1 0x1 PUSH1 0x1 PUSH1 0xA0 SHL SUB DUP1 DUP6 AND PUSH1 0x0 DUP2 DUP2 MSTORE PUSH1 0xB PUSH1 0x20 SWAP1 DUP2 MSTORE PUSH1 0x40 DUP1 DUP4 KECCAK256 SWAP5 DUP9 AND DUP1 DUP5 MSTORE SWAP5 SWAP1 SWAP2 MSTORE SWAP1 DUP2 SWAP1 KECCAK256 DUP6 SWAP1 SSTORE MLOAD PUSH32 0x18E1EA4139E68413D7D08AA752E71568E36B2C5BF940893314C2C5B01EAA0C42 SWAP1 PUSH2 0x194A SWAP1 DUP6 SWAP1 PUSH2 0x5C10 JUMP JUMPDEST PUSH1 0x0 DUP1 PUSH2 0x3FC1 PUSH2 0x47CC JUMP JUMPDEST SWAP1 POP TIMESTAMP DUP2 LT ISZERO PUSH2 0x3FD5 JUMPI PUSH1 0x0 SWAP2 POP POP PUSH2 0x16A0 JUMP JUMPDEST PUSH1 0x0 PUSH2 0x3FDF PUSH2 0x47D8 JUMP JUMPDEST SWAP1 POP DUP1 PUSH2 0x3FF1 JUMPI PUSH1 0x0 SWAP3 POP POP POP PUSH2 0x16A0 JUMP JUMPDEST PUSH1 0x0 DUP2 PUSH2 0x3FFC PUSH2 0x48E9 JUMP JUMPDEST DUP1 MLOAD PUSH1 0x20 SWAP2 DUP3 ADD KECCAK256 PUSH1 0x40 MLOAD PUSH2 0x4018 SWAP4 SWAP3 CALLER SWAP2 DUP11 SWAP2 DUP10 SWAP2 ADD PUSH2 0x5C96 JUMP JUMPDEST PUSH1 0x40 MLOAD PUSH1 0x20 DUP2 DUP4 SUB SUB DUP2 MSTORE SWAP1 PUSH1 0x40 MSTORE DUP1 MLOAD SWAP1 PUSH1 0x20 ADD KECCAK256 SWAP1 POP PUSH1 0x0 PUSH2 0x403B DUP3 PUSH2 0x4938 JUMP JUMPDEST SWAP1 POP PUSH1 0x0 DUP1 PUSH1 0x0 PUSH2 0x404A PUSH2 0x4954 JUMP JUMPDEST SWAP3 POP SWAP3 POP SWAP3 POP PUSH1 0x0 PUSH1 0x1 DUP6 DUP6 DUP6 DUP6 PUSH1 0x40 MLOAD PUSH1 0x0 DUP2 MSTORE PUSH1 0x20 ADD PUSH1 0x40 MSTORE PUSH1 0x40 MLOAD PUSH2 0x4075 SWAP5 SWAP4 SWAP3 SWAP2 SWAP1 PUSH2 0x5CEE JUMP JUMPDEST PUSH1 0x20 PUSH1 0x40 MLOAD PUSH1 0x20 DUP2 SUB SWAP1 DUP1 DUP5 SUB SWAP1 DUP6 GAS STATICCALL ISZERO DUP1 ISZERO PUSH2 0x4097 JUMPI RETURNDATASIZE PUSH1 0x0 DUP1 RETURNDATACOPY RETURNDATASIZE PUSH1 0x0 REVERT JUMPDEST POP POP PUSH1 0x40 MLOAD PUSH1 0x1F NOT ADD MLOAD SWAP2 POP POP PUSH1 0x1 PUSH1 0x1 PUSH1 0xA0 SHL SUB DUP2 AND ISZERO DUP1 ISZERO SWAP1 PUSH2 0x40CD JUMPI POP DUP11 PUSH1 0x1 PUSH1 0x1 PUSH1 0xA0 SHL SUB AND DUP2 PUSH1 0x1 PUSH1 0x1 PUSH1 0xA0 SHL SUB AND EQ JUMPDEST SWAP12 SWAP11 POP POP POP POP POP POP POP POP POP POP POP JUMP JUMPDEST PUSH1 0x0 DUP1 PUSH1 0x0 DUP1 PUSH2 0x40EB DUP7 PUSH2 0x3F1A JUMP JUMPDEST SWAP1 POP PUSH1 0x0 PUSH2 0x40F8 DUP7 PUSH2 0x3F1A JUMP JUMPDEST SWAP1 POP PUSH2 0x410F PUSH2 0x4106 DUP9 PUSH2 0x2720 JUMP JUMPDEST PUSH2 0x2994 DUP9 PUSH2 0x2720 JUMP JUMPDEST PUSH1 0xA0 DUP11 ADD MSTORE PUSH1 0x40 MLOAD PUSH4 0x274B0443 PUSH1 0xE2 SHL DUP2 MSTORE PUSH1 0x1 PUSH1 0x1 PUSH1 0xA0 SHL SUB DUP10 AND SWAP1 PUSH4 0x9D2C110C SWAP1 PUSH2 0x4144 SWAP1 DUP13 SWAP1 DUP7 SWAP1 DUP7 SWAP1 PUSH1 0x4 ADD PUSH2 0x5D66 JUMP JUMPDEST PUSH1 0x20 PUSH1 0x40 MLOAD DUP1 DUP4 SUB DUP2 PUSH1 0x0 DUP8 DUP1 EXTCODESIZE ISZERO DUP1 ISZERO PUSH2 0x415E JUMPI PUSH1 0x0 DUP1 REVERT JUMPDEST POP GAS CALL ISZERO DUP1 ISZERO PUSH2 0x4172 JUMPI RETURNDATASIZE PUSH1 0x0 DUP1 RETURNDATACOPY RETURNDATASIZE PUSH1 0x0 REVERT JUMPDEST POP POP POP POP PUSH1 0x40 MLOAD RETURNDATASIZE PUSH1 0x1F NOT PUSH1 0x1F DUP3 ADD AND DUP3 ADD DUP1 PUSH1 0x40 MSTORE POP DUP2 ADD SWAP1 PUSH2 0x4196 SWAP2 SWAP1 PUSH2 0x5855 JUMP JUMPDEST SWAP3 POP PUSH1 0x0 DUP1 PUSH2 0x41AE DUP12 PUSH1 0x0 ADD MLOAD DUP13 PUSH1 0x60 ADD MLOAD DUP8 PUSH2 0x2F18 JUMP JUMPDEST SWAP1 SWAP3 POP SWAP1 POP PUSH2 0x41BD DUP10 DUP4 PUSH2 0x424D JUMP JUMPDEST SWAP7 POP PUSH2 0x41C9 DUP9 DUP3 PUSH2 0x427E JUMP JUMPDEST SWAP6 POP POP POP POP POP SWAP5 POP SWAP5 POP SWAP5 SWAP2 POP POP JUMP JUMPDEST PUSH1 0x0 DUP1 PUSH2 0x41F1 PUSH2 0x41E8 DUP6 PUSH2 0x2720 JUMP JUMPDEST PUSH2 0x2994 DUP6 PUSH2 0x2720 JUMP JUMPDEST SWAP1 POP PUSH2 0x9C0 PUSH2 0x41FF DUP6 PUSH2 0x2705 JUMP JUMPDEST PUSH2 0x4208 DUP6 PUSH2 0x2705 JUMP JUMPDEST DUP4 PUSH4 0xFFFFFFFF AND PUSH2 0x497B JUMP JUMPDEST PUSH1 0x1 PUSH1 0x1 PUSH1 0xA0 SHL SUB AND PUSH1 0x0 SWAP1 DUP2 MSTORE PUSH1 0x2 SWAP2 SWAP1 SWAP2 ADD PUSH1 0x20 MSTORE PUSH1 0x40 SWAP1 KECCAK256 SLOAD SWAP1 JUMP JUMPDEST SLOAD SWAP1 JUMP JUMPDEST PUSH1 0x0 SWAP1 DUP2 MSTORE PUSH1 0x1 SWAP2 DUP3 ADD PUSH1 0x20 MSTORE PUSH1 0x40 SWAP1 KECCAK256 ADD SLOAD SWAP1 JUMP JUMPDEST PUSH1 0x0 DUP1 PUSH2 0x4263 DUP4 PUSH2 0x425D DUP7 PUSH2 0x2705 JUMP JUMPDEST SWAP1 PUSH2 0x18BF JUMP JUMPDEST SWAP1 POP PUSH1 0x0 PUSH2 0x4270 DUP6 PUSH2 0x2711 JUMP JUMPDEST SWAP1 POP NUMBER PUSH2 0x126A DUP4 DUP4 DUP4 PUSH2 0x4989 JUMP JUMPDEST PUSH1 0x0 DUP1 PUSH2 0x4263 DUP4 PUSH2 0x428E DUP7 PUSH2 0x2705 JUMP JUMPDEST SWAP1 PUSH2 0x49B7 JUMP JUMPDEST PUSH1 0x0 SWAP2 DUP3 MSTORE PUSH1 0x1 SWAP3 DUP4 ADD PUSH1 0x20 MSTORE PUSH1 0x40 SWAP1 SWAP2 KECCAK256 SWAP1 SWAP2 ADD SSTORE JUMP JUMPDEST PUSH1 0x0 DUP1 DUP3 PUSH1 0x1 PUSH1 0x1 PUSH1 0xA0 SHL SUB AND DUP5 PUSH1 0x1 PUSH1 0x1 PUSH1 0xA0 SHL SUB AND LT PUSH2 0x42CF JUMPI DUP3 DUP5 PUSH2 0x42D2 JUMP JUMPDEST DUP4 DUP4 JUMPDEST SWAP2 POP SWAP2 POP SWAP3 POP SWAP3 SWAP1 POP JUMP JUMPDEST PUSH1 0x0 DUP3 DUP3 PUSH1 0x40 MLOAD PUSH1 0x20 ADD PUSH2 0x42F2 SWAP3 SWAP2 SWAP1 PUSH2 0x59F3 JUMP JUMPDEST PUSH1 0x40 MLOAD PUSH1 0x20 DUP2 DUP4 SUB SUB DUP2 MSTORE SWAP1 PUSH1 0x40 MSTORE DUP1 MLOAD SWAP1 PUSH1 0x20 ADD KECCAK256 SWAP1 POP SWAP3 SWAP2 POP POP JUMP JUMPDEST PUSH1 0x0 PUSH2 0x169D PUSH2 0x431E DUP5 PUSH2 0x2705 JUMP JUMPDEST PUSH2 0x4327 DUP5 PUSH2 0x2705 JUMP JUMPDEST PUSH2 0x4330 DUP7 PUSH2 0x2720 JUMP JUMPDEST PUSH2 0x4989 JUMP JUMPDEST PUSH1 0x0 PUSH2 0x169D PUSH2 0x4343 DUP5 PUSH2 0x2711 JUMP JUMPDEST PUSH2 0x4327 DUP5 PUSH2 0x2711 JUMP JUMPDEST PUSH1 0x1 PUSH1 0x1 PUSH1 0xA0 SHL SUB DUP3 AND PUSH1 0x0 SWAP1 DUP2 MSTORE PUSH1 0x2 DUP5 ADD PUSH1 0x20 MSTORE PUSH1 0x40 DUP2 KECCAK256 SLOAD PUSH2 0x4373 DUP2 ISZERO ISZERO DUP5 PUSH2 0x52B JUMP JUMPDEST PUSH2 0x4380 DUP6 PUSH1 0x1 DUP4 SUB PUSH2 0x4237 JUMP JUMPDEST SWAP6 SWAP5 POP POP POP POP POP JUMP JUMPDEST PUSH1 0x0 PUSH2 0x4393 PUSH2 0x1373 JUMP JUMPDEST PUSH1 0x1 PUSH1 0x1 PUSH1 0xA0 SHL SUB AND PUSH4 0x55C67628 PUSH1 0x40 MLOAD DUP2 PUSH4 0xFFFFFFFF AND PUSH1 0xE0 SHL DUP2 MSTORE PUSH1 0x4 ADD PUSH1 0x20 PUSH1 0x40 MLOAD DUP1 DUP4 SUB DUP2 DUP7 DUP1 EXTCODESIZE ISZERO DUP1 ISZERO PUSH2 0x43CB JUMPI PUSH1 0x0 DUP1 REVERT JUMPDEST POP GAS STATICCALL ISZERO DUP1 ISZERO PUSH2 0x43DF JUMPI RETURNDATASIZE PUSH1 0x0 DUP1 RETURNDATACOPY RETURNDATASIZE PUSH1 0x0 REVERT JUMPDEST POP POP POP POP PUSH1 0x40 MLOAD RETURNDATASIZE PUSH1 0x1F NOT PUSH1 0x1F DUP3 ADD AND DUP3 ADD DUP1 PUSH1 0x40 MSTORE POP DUP2 ADD SWAP1 PUSH2 0x1292 SWAP2 SWAP1 PUSH2 0x5855 JUMP JUMPDEST PUSH2 0xF64 DUP3 DUP5 EQ DUP1 ISZERO PUSH2 0x4414 JUMPI POP DUP2 DUP4 EQ JUMPDEST PUSH1 0x67 PUSH2 0x52B JUMP JUMPDEST PUSH1 0x60 DUP4 MLOAD PUSH1 0x1 PUSH1 0x1 PUSH1 0x40 SHL SUB DUP2 GT DUP1 ISZERO PUSH2 0x4434 JUMPI PUSH1 0x0 DUP1 REVERT JUMPDEST POP PUSH1 0x40 MLOAD SWAP1 DUP1 DUP3 MSTORE DUP1 PUSH1 0x20 MUL PUSH1 0x20 ADD DUP3 ADD PUSH1 0x40 MSTORE DUP1 ISZERO PUSH2 0x445E JUMPI DUP2 PUSH1 0x20 ADD PUSH1 0x20 DUP3 MUL DUP1 CALLDATASIZE DUP4 CALLDATACOPY ADD SWAP1 POP JUMPDEST POP SWAP1 POP PUSH1 0x0 JUMPDEST DUP6 MLOAD MLOAD DUP2 LT ISZERO PUSH2 0x4557 JUMPI PUSH1 0x0 DUP5 DUP3 DUP2 MLOAD DUP2 LT PUSH2 0x447C JUMPI INVALID JUMPDEST PUSH1 0x20 MUL PUSH1 0x20 ADD ADD MLOAD SWAP1 POP PUSH2 0x44AC DUP8 PUSH1 0x20 ADD MLOAD DUP4 DUP2 MLOAD DUP2 LT PUSH2 0x4499 JUMPI INVALID JUMPDEST PUSH1 0x20 MUL PUSH1 0x20 ADD ADD MLOAD DUP3 LT ISZERO PUSH2 0x1F9 PUSH2 0x52B JUMP JUMPDEST PUSH1 0x0 DUP8 PUSH1 0x0 ADD MLOAD DUP4 DUP2 MLOAD DUP2 LT PUSH2 0x44BE JUMPI INVALID JUMPDEST PUSH1 0x20 MUL PUSH1 0x20 ADD ADD MLOAD SWAP1 POP PUSH2 0x44D8 DUP2 DUP4 DUP12 DUP12 PUSH1 0x60 ADD MLOAD PUSH2 0x1CB2 JUMP JUMPDEST PUSH1 0x0 DUP6 DUP5 DUP2 MLOAD DUP2 LT PUSH2 0x44E6 JUMPI INVALID JUMPDEST PUSH1 0x20 MUL PUSH1 0x20 ADD ADD MLOAD SWAP1 POP PUSH2 0x4502 PUSH2 0x44FC DUP4 PUSH2 0x1ABB JUMP JUMPDEST DUP3 PUSH2 0x1E76 JUMP JUMPDEST PUSH2 0x4531 PUSH2 0x450F DUP5 DUP4 PUSH2 0x18BF JUMP JUMPDEST DUP10 DUP7 DUP2 MLOAD DUP2 LT PUSH2 0x451B JUMPI INVALID JUMPDEST PUSH1 0x20 MUL PUSH1 0x20 ADD ADD MLOAD PUSH2 0x427E SWAP1 SWAP2 SWAP1 PUSH4 0xFFFFFFFF AND JUMP JUMPDEST DUP6 DUP6 DUP2 MLOAD DUP2 LT PUSH2 0x453D JUMPI INVALID JUMPDEST PUSH1 0x20 MUL PUSH1 0x20 ADD ADD DUP2 DUP2 MSTORE POP POP POP POP POP DUP1 PUSH1 0x1 ADD SWAP1 POP PUSH2 0x4464 JUMP JUMPDEST POP SWAP6 SWAP5 POP POP POP POP POP JUMP JUMPDEST PUSH1 0x60 PUSH1 0x0 DUP5 MLOAD PUSH1 0x1 PUSH1 0x1 PUSH1 0x40 SHL SUB DUP2 GT DUP1 ISZERO PUSH2 0x457C JUMPI PUSH1 0x0 DUP1 REVERT JUMPDEST POP PUSH1 0x40 MLOAD SWAP1 DUP1 DUP3 MSTORE DUP1 PUSH1 0x20 MUL PUSH1 0x20 ADD DUP3 ADD PUSH1 0x40 MSTORE DUP1 ISZERO PUSH2 0x45A6 JUMPI DUP2 PUSH1 0x20 ADD PUSH1 0x20 DUP3 MUL DUP1 CALLDATASIZE DUP4 CALLDATACOPY ADD SWAP1 POP JUMPDEST POP SWAP2 POP PUSH1 0x0 JUMPDEST DUP7 MLOAD MLOAD DUP2 LT ISZERO PUSH2 0x46CC JUMPI PUSH1 0x0 DUP6 DUP3 DUP2 MLOAD DUP2 LT PUSH2 0x45C4 JUMPI INVALID JUMPDEST PUSH1 0x20 MUL PUSH1 0x20 ADD ADD MLOAD SWAP1 POP PUSH2 0x45F4 DUP9 PUSH1 0x20 ADD MLOAD DUP4 DUP2 MLOAD DUP2 LT PUSH2 0x45E1 JUMPI INVALID JUMPDEST PUSH1 0x20 MUL PUSH1 0x20 ADD ADD MLOAD DUP3 GT ISZERO PUSH2 0x1FA PUSH2 0x52B JUMP JUMPDEST PUSH1 0x0 DUP9 PUSH1 0x0 ADD MLOAD DUP4 DUP2 MLOAD DUP2 LT PUSH2 0x4606 JUMPI INVALID JUMPDEST PUSH1 0x20 MUL PUSH1 0x20 ADD ADD MLOAD SWAP1 POP PUSH2 0x4620 DUP2 DUP4 DUP13 DUP13 PUSH1 0x60 ADD MLOAD PUSH2 0x1BD4 JUMP JUMPDEST PUSH2 0x4629 DUP2 PUSH2 0x18B2 JUMP JUMPDEST ISZERO PUSH2 0x463B JUMPI PUSH2 0x4638 DUP5 DUP4 PUSH2 0x18BF JUMP JUMPDEST SWAP4 POP JUMPDEST PUSH1 0x0 DUP7 DUP5 DUP2 MLOAD DUP2 LT PUSH2 0x4649 JUMPI INVALID JUMPDEST PUSH1 0x20 MUL PUSH1 0x20 ADD ADD MLOAD SWAP1 POP PUSH2 0x465F PUSH2 0x44FC DUP4 PUSH2 0x1ABB JUMP JUMPDEST DUP1 DUP4 LT ISZERO PUSH2 0x467E JUMPI PUSH2 0x4679 DUP4 DUP3 SUB DUP11 DUP7 DUP2 MLOAD DUP2 LT PUSH2 0x451B JUMPI INVALID JUMPDEST PUSH2 0x46A6 JUMP JUMPDEST PUSH2 0x46A6 DUP2 DUP5 SUB DUP11 DUP7 DUP2 MLOAD DUP2 LT PUSH2 0x4690 JUMPI INVALID JUMPDEST PUSH1 0x20 MUL PUSH1 0x20 ADD ADD MLOAD PUSH2 0x424D SWAP1 SWAP2 SWAP1 PUSH4 0xFFFFFFFF AND JUMP JUMPDEST DUP7 DUP6 DUP2 MLOAD DUP2 LT PUSH2 0x46B2 JUMPI INVALID JUMPDEST PUSH1 0x20 MUL PUSH1 0x20 ADD ADD DUP2 DUP2 MSTORE POP POP POP POP POP DUP1 PUSH1 0x1 ADD SWAP1 POP PUSH2 0x45AC JUMP JUMPDEST POP PUSH2 0x4557 DUP2 PUSH2 0x1958 JUMP JUMPDEST PUSH1 0x1 PUSH1 0x1 PUSH1 0xA0 SHL SUB AND PUSH1 0x0 SWAP1 DUP2 MSTORE PUSH1 0x2 SWAP2 SWAP1 SWAP2 ADD PUSH1 0x20 MSTORE PUSH1 0x40 SWAP1 KECCAK256 SLOAD ISZERO ISZERO SWAP1 JUMP JUMPDEST PUSH2 0xDC4 DUP4 DUP4 PUSH2 0x49CD DUP5 PUSH2 0x4A08 JUMP JUMPDEST PUSH2 0xDC4 DUP4 DUP4 PUSH2 0x49CD DUP5 PUSH2 0x4AB3 JUMP JUMPDEST PUSH2 0xDC4 DUP4 DUP4 PUSH2 0x49CD DUP5 PUSH2 0x4B0E JUMP JUMPDEST PUSH2 0xDC4 DUP4 DUP4 PUSH2 0x4B5D DUP5 PUSH2 0x4A08 JUMP JUMPDEST PUSH2 0xDC4 DUP4 DUP4 PUSH2 0x4B5D DUP5 PUSH2 0x4AB3 JUMP JUMPDEST PUSH2 0xDC4 DUP4 DUP4 PUSH2 0x4B5D DUP5 PUSH2 0x4B0E JUMP JUMPDEST PUSH1 0x0 PUSH2 0x9C0 DUP5 DUP5 PUSH2 0x4B7E DUP6 PUSH2 0x4A08 JUMP JUMPDEST PUSH1 0x0 PUSH2 0x9C0 DUP5 DUP5 PUSH2 0x4B7E DUP6 PUSH2 0x4AB3 JUMP JUMPDEST PUSH1 0x0 PUSH2 0x9C0 DUP5 DUP5 PUSH2 0x4B7E DUP6 PUSH2 0x4B0E JUMP JUMPDEST PUSH1 0x0 DUP3 PUSH1 0x0 ADD DUP3 DUP2 SLOAD DUP2 LT PUSH2 0x478C JUMPI INVALID JUMPDEST PUSH1 0x0 SWAP2 DUP3 MSTORE PUSH1 0x20 SWAP1 SWAP2 KECCAK256 ADD SLOAD PUSH1 0x1 PUSH1 0x1 PUSH1 0xA0 SHL SUB AND SWAP4 SWAP3 POP POP POP JUMP JUMPDEST PUSH1 0x0 SWAP1 DUP2 MSTORE PUSH1 0x1 SWAP2 DUP3 ADD PUSH1 0x20 MSTORE PUSH1 0x40 SWAP1 KECCAK256 DUP1 SLOAD SWAP2 ADD SLOAD PUSH1 0x1 PUSH1 0x1 PUSH1 0xA0 SHL SUB SWAP1 SWAP2 AND SWAP2 JUMP JUMPDEST PUSH1 0x0 PUSH2 0x1292 PUSH1 0x0 PUSH2 0x4B98 JUMP JUMPDEST PUSH1 0x0 DUP1 CALLDATALOAD PUSH1 0xE0 SHR DUP1 PUSH4 0xB95CAC28 DUP2 EQ PUSH2 0x4820 JUMPI PUSH4 0x8BDB3913 DUP2 EQ PUSH2 0x4848 JUMPI PUSH4 0x52BBBE29 DUP2 EQ PUSH2 0x4870 JUMPI PUSH4 0x945BCEC9 DUP2 EQ PUSH2 0x4898 JUMPI PUSH4 0xFA6E671D DUP2 EQ PUSH2 0x48C0 JUMPI PUSH1 0x0 SWAP3 POP PUSH2 0x48E4 JUMP JUMPDEST PUSH32 0x3F7B71252BD19113FF48C19C6E004A9BCFCCA320A0D74D58E85877CBD7DCAE58 SWAP3 POP PUSH2 0x48E4 JUMP JUMPDEST PUSH32 0x8BBC57F66EA936902F50A71CE12B92C43F3C5340BB40C27C4E90AB84EEAE3353 SWAP3 POP PUSH2 0x48E4 JUMP JUMPDEST PUSH32 0xE192DCBC143B1E244AD73B813FD3C097B832AD260A157340B4E5E5BEDA067ABE SWAP3 POP PUSH2 0x48E4 JUMP JUMPDEST PUSH32 0x9BFC43A4D98313C6766986FFD7C916C7481566D9F224C6819AF0A53388ACED3A SWAP3 POP PUSH2 0x48E4 JUMP JUMPDEST PUSH32 0xA3F865AA351E51CFEB40F5178D1564BB629FE9030B83CAF6361D1BAAF5B90B5A SWAP3 POP JUMPDEST POP POP SWAP1 JUMP JUMPDEST PUSH1 0x60 PUSH1 0x0 CALLDATASIZE DUP1 DUP1 PUSH1 0x1F ADD PUSH1 0x20 DUP1 SWAP2 DIV MUL PUSH1 0x20 ADD PUSH1 0x40 MLOAD SWAP1 DUP2 ADD PUSH1 0x40 MSTORE DUP1 SWAP4 SWAP3 SWAP2 SWAP1 DUP2 DUP2 MSTORE PUSH1 0x20 ADD DUP4 DUP4 DUP1 DUP3 DUP5 CALLDATACOPY PUSH1 0x0 SWAP3 ADD SWAP2 SWAP1 SWAP2 MSTORE POP POP DUP3 MLOAD SWAP3 SWAP4 POP POP POP PUSH1 0x80 LT ISZERO PUSH2 0x528 JUMPI PUSH1 0x80 CALLDATASIZE SUB DUP2 MSTORE SWAP1 JUMP JUMPDEST PUSH1 0x0 PUSH2 0x4942 PUSH2 0x27F1 JUMP JUMPDEST DUP3 PUSH1 0x40 MLOAD PUSH1 0x20 ADD PUSH2 0x10F2 SWAP3 SWAP2 SWAP1 PUSH2 0x5A1A JUMP JUMPDEST PUSH1 0x0 DUP1 PUSH1 0x0 PUSH2 0x4963 PUSH1 0x20 PUSH2 0x4B98 JUMP JUMPDEST SWAP3 POP PUSH2 0x496F PUSH1 0x40 PUSH2 0x4B98 JUMP JUMPDEST SWAP2 POP PUSH2 0x820 PUSH1 0x60 PUSH2 0x4B98 JUMP JUMPDEST PUSH1 0xE0 SHL PUSH1 0x70 SWAP2 SWAP1 SWAP2 SHL ADD ADD SWAP1 JUMP JUMPDEST PUSH1 0x0 DUP4 DUP4 ADD PUSH2 0x49AC DUP6 DUP3 LT DUP1 ISZERO SWAP1 PUSH2 0x49A4 JUMPI POP PUSH1 0x1 PUSH1 0x70 SHL DUP3 LT JUMPDEST PUSH2 0x20E PUSH2 0x52B JUMP JUMPDEST PUSH2 0x4380 DUP6 DUP6 DUP6 PUSH2 0x497B JUMP JUMPDEST PUSH1 0x0 PUSH2 0x49C7 DUP4 DUP4 GT ISZERO PUSH1 0x1 PUSH2 0x52B JUMP JUMPDEST POP SWAP1 SUB SWAP1 JUMP JUMPDEST PUSH1 0x0 DUP1 PUSH2 0x49DD DUP4 PUSH2 0x428E DUP7 PUSH2 0x2705 JUMP JUMPDEST SWAP1 POP PUSH1 0x0 PUSH2 0x49EE DUP5 PUSH2 0x425D DUP8 PUSH2 0x2711 JUMP JUMPDEST SWAP1 POP PUSH1 0x0 PUSH2 0x49FB DUP7 PUSH2 0x2720 JUMP JUMPDEST SWAP1 POP PUSH2 0x126A DUP4 DUP4 DUP4 PUSH2 0x4989 JUMP JUMPDEST PUSH1 0x0 DUP1 PUSH1 0x0 DUP1 PUSH1 0x0 PUSH2 0x4A19 DUP10 PUSH2 0x393E JUMP JUMPDEST SWAP5 POP POP SWAP4 POP SWAP4 POP SWAP4 POP PUSH1 0x0 DUP4 PUSH1 0x1 PUSH1 0x1 PUSH1 0xA0 SHL SUB AND DUP10 PUSH1 0x1 PUSH1 0x1 PUSH1 0xA0 SHL SUB AND EQ ISZERO PUSH2 0x4A64 JUMPI PUSH1 0x0 PUSH2 0x4A4E DUP5 DUP10 DUP12 PUSH4 0xFFFFFFFF AND JUMP JUMPDEST SWAP1 POP PUSH2 0x4A5A DUP2 DUP6 PUSH2 0x4BA2 JUMP JUMPDEST SWAP1 SWAP4 POP SWAP1 POP PUSH2 0x4A86 JUMP JUMPDEST PUSH1 0x0 PUSH2 0x4A74 DUP4 DUP10 DUP12 PUSH4 0xFFFFFFFF AND JUMP JUMPDEST SWAP1 POP PUSH2 0x4A80 DUP2 DUP5 PUSH2 0x4BA2 JUMP JUMPDEST SWAP1 SWAP3 POP SWAP1 POP JUMPDEST PUSH2 0x4A90 DUP4 DUP4 PUSH2 0x41D9 JUMP JUMPDEST DUP6 SSTORE PUSH2 0x4A9C DUP4 DUP4 PUSH2 0x4BBE JUMP JUMPDEST PUSH1 0x1 SWAP1 SWAP6 ADD SWAP5 SWAP1 SWAP5 SSTORE POP SWAP2 SWAP3 POP POP POP SWAP5 SWAP4 POP POP POP POP JUMP JUMPDEST PUSH1 0x0 DUP1 PUSH2 0x4AC0 DUP7 DUP7 PUSH2 0x267F JUMP JUMPDEST SWAP1 POP PUSH1 0x0 PUSH2 0x4AD2 DUP3 DUP6 DUP8 PUSH4 0xFFFFFFFF AND JUMP JUMPDEST PUSH1 0x0 DUP9 DUP2 MSTORE PUSH1 0x7 PUSH1 0x20 SWAP1 DUP2 MSTORE PUSH1 0x40 DUP1 DUP4 KECCAK256 PUSH1 0x1 PUSH1 0x1 PUSH1 0xA0 SHL SUB DUP12 AND DUP5 MSTORE SWAP1 SWAP2 MSTORE SWAP1 KECCAK256 DUP2 SWAP1 SSTORE SWAP1 POP PUSH2 0x4B03 DUP2 DUP4 PUSH2 0x4BA2 JUMP JUMPDEST SWAP8 SWAP7 POP POP POP POP POP POP POP JUMP JUMPDEST PUSH1 0x0 DUP5 DUP2 MSTORE PUSH1 0x1 PUSH1 0x20 MSTORE PUSH1 0x40 DUP2 KECCAK256 DUP2 PUSH2 0x4B27 DUP3 DUP8 PUSH2 0x3325 JUMP JUMPDEST SWAP1 POP PUSH1 0x0 PUSH2 0x4B39 DUP3 DUP7 DUP9 PUSH4 0xFFFFFFFF AND JUMP JUMPDEST SWAP1 POP PUSH2 0x4B46 DUP4 DUP9 DUP4 PUSH2 0x3096 JUMP JUMPDEST POP PUSH2 0x4B51 DUP2 DUP4 PUSH2 0x4BA2 JUMP JUMPDEST SWAP9 SWAP8 POP POP POP POP POP POP POP POP JUMP JUMPDEST PUSH1 0x0 DUP1 PUSH2 0x4B6D DUP4 PUSH2 0x425D DUP7 PUSH2 0x2705 JUMP JUMPDEST SWAP1 POP PUSH1 0x0 PUSH2 0x49EE DUP5 PUSH2 0x428E DUP8 PUSH2 0x2711 JUMP JUMPDEST PUSH1 0x0 DUP1 PUSH2 0x4B8A DUP5 PUSH2 0x2705 JUMP JUMPDEST SWAP1 POP NUMBER PUSH2 0x4380 DUP3 DUP6 DUP4 PUSH2 0x4989 JUMP JUMPDEST CALLDATASIZE ADD PUSH1 0x7F NOT ADD CALLDATALOAD SWAP1 JUMP JUMPDEST PUSH1 0x0 PUSH2 0x4BAD DUP3 PUSH2 0x2711 JUMP JUMPDEST PUSH2 0x4BB6 DUP5 PUSH2 0x2711 JUMP JUMPDEST SUB SWAP4 SWAP3 POP POP POP JUMP JUMPDEST PUSH1 0x0 PUSH2 0x169D PUSH2 0x4BCC DUP5 PUSH2 0x2711 JUMP JUMPDEST PUSH2 0x4BD5 DUP5 PUSH2 0x2711 JUMP JUMPDEST PUSH1 0x0 PUSH2 0x497B JUMP JUMPDEST PUSH1 0x40 DUP1 MLOAD PUSH2 0x120 DUP2 ADD SWAP1 SWAP2 MSTORE DUP1 PUSH1 0x0 DUP2 MSTORE PUSH1 0x0 PUSH1 0x20 DUP3 ADD DUP2 SWAP1 MSTORE PUSH1 0x40 DUP3 ADD DUP2 SWAP1 MSTORE PUSH1 0x60 DUP1 DUP4 ADD DUP3 SWAP1 MSTORE PUSH1 0x80 DUP4 ADD DUP3 SWAP1 MSTORE PUSH1 0xA0 DUP4 ADD DUP3 SWAP1 MSTORE PUSH1 0xC0 DUP4 ADD DUP3 SWAP1 MSTORE PUSH1 0xE0 DUP4 ADD SWAP2 SWAP1 SWAP2 MSTORE PUSH2 0x100 SWAP1 SWAP2 ADD MSTORE SWAP1 JUMP JUMPDEST PUSH1 0x40 DUP1 MLOAD PUSH1 0x80 DUP2 ADD SWAP1 SWAP2 MSTORE DUP1 PUSH1 0x0 DUP2 MSTORE PUSH1 0x0 PUSH1 0x20 DUP3 ADD DUP2 SWAP1 MSTORE PUSH1 0x40 DUP3 ADD DUP2 SWAP1 MSTORE PUSH1 0x60 SWAP1 SWAP2 ADD MSTORE SWAP1 JUMP JUMPDEST PUSH1 0x40 MLOAD DUP1 PUSH1 0x80 ADD PUSH1 0x40 MSTORE DUP1 PUSH1 0x60 DUP2 MSTORE PUSH1 0x20 ADD PUSH1 0x60 DUP2 MSTORE PUSH1 0x20 ADD PUSH1 0x60 DUP2 MSTORE PUSH1 0x20 ADD PUSH1 0x0 ISZERO ISZERO DUP2 MSTORE POP SWAP1 JUMP JUMPDEST PUSH1 0x40 MLOAD DUP1 PUSH1 0xA0 ADD PUSH1 0x40 MSTORE DUP1 PUSH1 0x0 DUP1 NOT AND DUP2 MSTORE PUSH1 0x20 ADD PUSH1 0x0 DUP2 MSTORE PUSH1 0x20 ADD PUSH1 0x0 DUP2 MSTORE PUSH1 0x20 ADD PUSH1 0x0 DUP2 MSTORE PUSH1 0x20 ADD PUSH1 0x60 DUP2 MSTORE POP SWAP1 JUMP JUMPDEST DUP1 CALLDATALOAD PUSH2 0x16A0 DUP2 PUSH2 0x5E2A JUMP JUMPDEST PUSH1 0x0 DUP3 PUSH1 0x1F DUP4 ADD SLT PUSH2 0x4CCC JUMPI DUP1 DUP2 REVERT JUMPDEST DUP2 CALLDATALOAD PUSH2 0x4CDF PUSH2 0x4CDA DUP3 PUSH2 0x5DD5 JUMP JUMPDEST PUSH2 0x5DAF JUMP JUMPDEST DUP2 DUP2 MSTORE SWAP2 POP PUSH1 0x20 DUP1 DUP4 ADD SWAP1 DUP5 DUP2 ADD DUP2 DUP5 MUL DUP7 ADD DUP3 ADD DUP8 LT ISZERO PUSH2 0x4D00 JUMPI PUSH1 0x0 DUP1 REVERT JUMPDEST PUSH1 0x0 JUMPDEST DUP5 DUP2 LT ISZERO PUSH2 0x4D28 JUMPI DUP2 CALLDATALOAD PUSH2 0x4D16 DUP2 PUSH2 0x5E2A JUMP JUMPDEST DUP5 MSTORE SWAP3 DUP3 ADD SWAP3 SWAP1 DUP3 ADD SWAP1 PUSH1 0x1 ADD PUSH2 0x4D03 JUMP JUMPDEST POP POP POP POP POP SWAP3 SWAP2 POP POP JUMP JUMPDEST PUSH1 0x0 DUP3 PUSH1 0x1F DUP4 ADD SLT PUSH2 0x4D43 JUMPI DUP1 DUP2 REVERT JUMPDEST DUP2 CALLDATALOAD PUSH2 0x4D51 PUSH2 0x4CDA DUP3 PUSH2 0x5DD5 JUMP JUMPDEST DUP2 DUP2 MSTORE SWAP2 POP PUSH1 0x20 DUP1 DUP4 ADD SWAP1 DUP5 DUP2 ADD PUSH1 0x0 JUMPDEST DUP5 DUP2 LT ISZERO PUSH2 0x4D28 JUMPI DUP2 CALLDATALOAD DUP8 ADD PUSH1 0xA0 DUP1 PUSH1 0x1F NOT DUP4 DUP13 SUB ADD SLT ISZERO PUSH2 0x4D83 JUMPI PUSH1 0x0 DUP1 REVERT JUMPDEST PUSH2 0x4D8C DUP2 PUSH2 0x5DAF JUMP JUMPDEST DUP6 DUP4 ADD CALLDATALOAD DUP2 MSTORE PUSH1 0x40 DUP1 DUP5 ADD CALLDATALOAD DUP8 DUP4 ADD MSTORE PUSH1 0x60 DUP1 DUP6 ADD CALLDATALOAD DUP3 DUP5 ADD MSTORE PUSH1 0x80 SWAP2 POP DUP2 DUP6 ADD CALLDATALOAD DUP2 DUP5 ADD MSTORE POP DUP3 DUP5 ADD CALLDATALOAD SWAP3 POP PUSH1 0x1 PUSH1 0x1 PUSH1 0x40 SHL SUB DUP4 GT ISZERO PUSH2 0x4DCD JUMPI PUSH1 0x0 DUP1 REVERT JUMPDEST PUSH2 0x4DDB DUP13 DUP9 DUP6 DUP8 ADD ADD PUSH2 0x4EBA JUMP JUMPDEST SWAP1 DUP3 ADD MSTORE DUP7 MSTORE POP POP SWAP3 DUP3 ADD SWAP3 SWAP1 DUP3 ADD SWAP1 PUSH1 0x1 ADD PUSH2 0x4D62 JUMP JUMPDEST PUSH1 0x0 DUP3 PUSH1 0x1F DUP4 ADD SLT PUSH2 0x4E03 JUMPI DUP1 DUP2 REVERT JUMPDEST DUP2 CALLDATALOAD PUSH2 0x4E11 PUSH2 0x4CDA DUP3 PUSH2 0x5DD5 JUMP JUMPDEST DUP2 DUP2 MSTORE SWAP2 POP PUSH1 0x20 DUP1 DUP4 ADD SWAP1 DUP5 DUP2 ADD DUP2 DUP5 MUL DUP7 ADD DUP3 ADD DUP8 LT ISZERO PUSH2 0x4E32 JUMPI PUSH1 0x0 DUP1 REVERT JUMPDEST PUSH1 0x0 JUMPDEST DUP5 DUP2 LT ISZERO PUSH2 0x4D28 JUMPI DUP2 CALLDATALOAD DUP5 MSTORE SWAP3 DUP3 ADD SWAP3 SWAP1 DUP3 ADD SWAP1 PUSH1 0x1 ADD PUSH2 0x4E35 JUMP JUMPDEST PUSH1 0x0 DUP3 PUSH1 0x1F DUP4 ADD SLT PUSH2 0x4E61 JUMPI DUP1 DUP2 REVERT JUMPDEST DUP2 MLOAD PUSH2 0x4E6F PUSH2 0x4CDA DUP3 PUSH2 0x5DD5 JUMP JUMPDEST DUP2 DUP2 MSTORE SWAP2 POP PUSH1 0x20 DUP1 DUP4 ADD SWAP1 DUP5 DUP2 ADD DUP2 DUP5 MUL DUP7 ADD DUP3 ADD DUP8 LT ISZERO PUSH2 0x4E90 JUMPI PUSH1 0x0 DUP1 REVERT JUMPDEST PUSH1 0x0 JUMPDEST DUP5 DUP2 LT ISZERO PUSH2 0x4D28 JUMPI DUP2 MLOAD DUP5 MSTORE SWAP3 DUP3 ADD SWAP3 SWAP1 DUP3 ADD SWAP1 PUSH1 0x1 ADD PUSH2 0x4E93 JUMP JUMPDEST DUP1 CALLDATALOAD PUSH2 0x16A0 DUP2 PUSH2 0x5E3F JUMP JUMPDEST PUSH1 0x0 DUP3 PUSH1 0x1F DUP4 ADD SLT PUSH2 0x4ECA JUMPI DUP1 DUP2 REVERT JUMPDEST DUP2 CALLDATALOAD PUSH1 0x1 PUSH1 0x1 PUSH1 0x40 SHL SUB DUP2 GT ISZERO PUSH2 0x4EDF JUMPI DUP2 DUP3 REVERT JUMPDEST PUSH2 0x4EF2 PUSH1 0x1F DUP3 ADD PUSH1 0x1F NOT AND PUSH1 0x20 ADD PUSH2 0x5DAF JUMP JUMPDEST SWAP2 POP DUP1 DUP3 MSTORE DUP4 PUSH1 0x20 DUP3 DUP6 ADD ADD GT ISZERO PUSH2 0x4F09 JUMPI PUSH1 0x0 DUP1 REVERT JUMPDEST DUP1 PUSH1 0x20 DUP5 ADD PUSH1 0x20 DUP5 ADD CALLDATACOPY PUSH1 0x0 SWAP1 DUP3 ADD PUSH1 0x20 ADD MSTORE SWAP3 SWAP2 POP POP JUMP JUMPDEST DUP1 CALLDATALOAD PUSH2 0x16A0 DUP2 PUSH2 0x5E4D JUMP JUMPDEST DUP1 CALLDATALOAD PUSH1 0x2 DUP2 LT PUSH2 0x16A0 JUMPI PUSH1 0x0 DUP1 REVERT JUMPDEST DUP1 CALLDATALOAD PUSH1 0x4 DUP2 LT PUSH2 0x16A0 JUMPI PUSH1 0x0 DUP1 REVERT JUMPDEST PUSH1 0x0 PUSH1 0x80 DUP3 DUP5 SUB SLT ISZERO PUSH2 0x4F5C JUMPI DUP1 DUP2 REVERT JUMPDEST PUSH2 0x4F66 PUSH1 0x80 PUSH2 0x5DAF JUMP JUMPDEST SWAP1 POP DUP2 CALLDATALOAD PUSH1 0x1 PUSH1 0x1 PUSH1 0x40 SHL SUB DUP1 DUP3 GT ISZERO PUSH2 0x4F7F JUMPI PUSH1 0x0 DUP1 REVERT JUMPDEST PUSH2 0x4F8B DUP6 DUP4 DUP7 ADD PUSH2 0x4CBC JUMP JUMPDEST DUP4 MSTORE PUSH1 0x20 DUP5 ADD CALLDATALOAD SWAP2 POP DUP1 DUP3 GT ISZERO PUSH2 0x4FA1 JUMPI PUSH1 0x0 DUP1 REVERT JUMPDEST PUSH2 0x4FAD DUP6 DUP4 DUP7 ADD PUSH2 0x4DF3 JUMP JUMPDEST PUSH1 0x20 DUP5 ADD MSTORE PUSH1 0x40 DUP5 ADD CALLDATALOAD SWAP2 POP DUP1 DUP3 GT ISZERO PUSH2 0x4FC6 JUMPI PUSH1 0x0 DUP1 REVERT JUMPDEST POP PUSH2 0x4FD3 DUP5 DUP3 DUP6 ADD PUSH2 0x4EBA JUMP JUMPDEST PUSH1 0x40 DUP4 ADD MSTORE POP PUSH2 0x4FE6 DUP4 PUSH1 0x60 DUP5 ADD PUSH2 0x4EAF JUMP JUMPDEST PUSH1 0x60 DUP3 ADD MSTORE SWAP3 SWAP2 POP POP JUMP JUMPDEST PUSH1 0x0 PUSH1 0x80 DUP3 DUP5 SUB SLT ISZERO PUSH2 0x5002 JUMPI DUP1 DUP2 REVERT JUMPDEST PUSH2 0x500C PUSH1 0x80 PUSH2 0x5DAF JUMP JUMPDEST SWAP1 POP DUP2 CALLDATALOAD PUSH2 0x5019 DUP2 PUSH2 0x5E2A JUMP JUMPDEST DUP2 MSTORE PUSH1 0x20 DUP3 ADD CALLDATALOAD PUSH2 0x5029 DUP2 PUSH2 0x5E3F JUMP JUMPDEST PUSH1 0x20 DUP3 ADD MSTORE PUSH1 0x40 DUP3 ADD CALLDATALOAD PUSH2 0x503C DUP2 PUSH2 0x5E2A JUMP JUMPDEST PUSH1 0x40 DUP3 ADD MSTORE PUSH1 0x60 DUP3 ADD CALLDATALOAD PUSH2 0x4FE6 DUP2 PUSH2 0x5E3F JUMP JUMPDEST PUSH1 0x0 PUSH1 0x20 DUP3 DUP5 SUB SLT ISZERO PUSH2 0x5060 JUMPI DUP1 DUP2 REVERT JUMPDEST DUP2 CALLDATALOAD PUSH2 0x169D DUP2 PUSH2 0x5E2A JUMP JUMPDEST PUSH1 0x0 DUP1 PUSH1 0x40 DUP4 DUP6 SUB SLT ISZERO PUSH2 0x507D JUMPI DUP1 DUP2 REVERT JUMPDEST DUP3 CALLDATALOAD PUSH2 0x5088 DUP2 PUSH2 0x5E2A JUMP JUMPDEST SWAP2 POP PUSH1 0x20 DUP4 ADD CALLDATALOAD PUSH2 0x5098 DUP2 PUSH2 0x5E2A JUMP JUMPDEST DUP1 SWAP2 POP POP SWAP3 POP SWAP3 SWAP1 POP JUMP JUMPDEST PUSH1 0x0 DUP1 PUSH1 0x0 PUSH1 0x60 DUP5 DUP7 SUB SLT ISZERO PUSH2 0x50B7 JUMPI DUP1 DUP2 REVERT JUMPDEST DUP4 CALLDATALOAD PUSH2 0x50C2 DUP2 PUSH2 0x5E2A JUMP JUMPDEST SWAP3 POP PUSH1 0x20 DUP5 ADD CALLDATALOAD PUSH2 0x50D2 DUP2 PUSH2 0x5E2A JUMP JUMPDEST SWAP2 POP PUSH1 0x40 DUP5 ADD CALLDATALOAD PUSH2 0x50E2 DUP2 PUSH2 0x5E3F JUMP JUMPDEST DUP1 SWAP2 POP POP SWAP3 POP SWAP3 POP SWAP3 JUMP JUMPDEST PUSH1 0x0 DUP1 PUSH1 0x40 DUP4 DUP6 SUB SLT ISZERO PUSH2 0x50FF JUMPI DUP2 DUP3 REVERT JUMPDEST DUP3 CALLDATALOAD PUSH2 0x510A DUP2 PUSH2 0x5E2A JUMP JUMPDEST SWAP2 POP PUSH1 0x20 DUP4 ADD CALLDATALOAD PUSH1 0x1 PUSH1 0x1 PUSH1 0x40 SHL SUB DUP2 GT ISZERO PUSH2 0x5124 JUMPI DUP2 DUP3 REVERT JUMPDEST PUSH2 0x5130 DUP6 DUP3 DUP7 ADD PUSH2 0x4CBC JUMP JUMPDEST SWAP2 POP POP SWAP3 POP SWAP3 SWAP1 POP JUMP JUMPDEST PUSH1 0x0 PUSH1 0x20 DUP1 DUP4 DUP6 SUB SLT ISZERO PUSH2 0x514C JUMPI DUP2 DUP3 REVERT JUMPDEST DUP3 CALLDATALOAD PUSH1 0x1 PUSH1 0x1 PUSH1 0x40 SHL SUB DUP2 GT ISZERO PUSH2 0x5161 JUMPI DUP3 DUP4 REVERT JUMPDEST DUP4 ADD PUSH1 0x1F DUP2 ADD DUP6 SGT PUSH2 0x5171 JUMPI DUP3 DUP4 REVERT JUMPDEST DUP1 CALLDATALOAD PUSH2 0x517F PUSH2 0x4CDA DUP3 PUSH2 0x5DD5 JUMP JUMPDEST DUP2 DUP2 MSTORE DUP4 DUP2 ADD SWAP1 DUP4 DUP6 ADD PUSH1 0x80 DUP1 DUP6 MUL DUP7 ADD DUP8 ADD DUP11 LT ISZERO PUSH2 0x519D JUMPI DUP8 DUP9 REVERT JUMPDEST DUP8 SWAP6 POP JUMPDEST DUP5 DUP7 LT ISZERO PUSH2 0x5206 JUMPI DUP1 DUP3 DUP12 SUB SLT ISZERO PUSH2 0x51B7 JUMPI DUP8 DUP9 REVERT JUMPDEST PUSH2 0x51C0 DUP2 PUSH2 0x5DAF JUMP JUMPDEST PUSH2 0x51CA DUP12 DUP5 PUSH2 0x4F22 JUMP JUMPDEST DUP2 MSTORE DUP8 DUP4 ADD CALLDATALOAD DUP9 DUP3 ADD MSTORE PUSH1 0x40 PUSH2 0x51E2 DUP13 DUP3 DUP7 ADD PUSH2 0x4CB1 JUMP JUMPDEST SWAP1 DUP3 ADD MSTORE PUSH1 0x60 DUP4 DUP2 ADD CALLDATALOAD SWAP1 DUP3 ADD MSTORE DUP5 MSTORE PUSH1 0x1 SWAP6 SWAP1 SWAP6 ADD SWAP5 SWAP3 DUP7 ADD SWAP3 SWAP1 DUP2 ADD SWAP1 PUSH2 0x51A1 JUMP JUMPDEST POP SWAP1 SWAP9 SWAP8 POP POP POP POP POP POP POP POP JUMP JUMPDEST PUSH1 0x0 PUSH1 0x20 DUP1 DUP4 DUP6 SUB SLT ISZERO PUSH2 0x5226 JUMPI DUP2 DUP3 REVERT JUMPDEST DUP3 CALLDATALOAD PUSH1 0x1 PUSH1 0x1 PUSH1 0x40 SHL SUB DUP2 GT ISZERO PUSH2 0x523B JUMPI DUP3 DUP4 REVERT JUMPDEST DUP4 ADD PUSH1 0x1F DUP2 ADD DUP6 SGT PUSH2 0x524B JUMPI DUP3 DUP4 REVERT JUMPDEST DUP1 CALLDATALOAD PUSH2 0x5259 PUSH2 0x4CDA DUP3 PUSH2 0x5DD5 JUMP JUMPDEST DUP2 DUP2 MSTORE DUP4 DUP2 ADD SWAP1 DUP4 DUP6 ADD PUSH1 0xA0 DUP1 DUP6 MUL DUP7 ADD DUP8 ADD DUP11 LT ISZERO PUSH2 0x5277 JUMPI DUP8 DUP9 REVERT JUMPDEST DUP8 SWAP6 POP JUMPDEST DUP5 DUP7 LT ISZERO PUSH2 0x5206 JUMPI DUP1 DUP3 DUP12 SUB SLT ISZERO PUSH2 0x5291 JUMPI DUP8 DUP9 REVERT JUMPDEST PUSH2 0x529A DUP2 PUSH2 0x5DAF JUMP JUMPDEST PUSH2 0x52A4 DUP12 DUP5 PUSH2 0x4F3C JUMP JUMPDEST DUP2 MSTORE PUSH2 0x52B2 DUP12 DUP10 DUP6 ADD PUSH2 0x4CB1 JUMP JUMPDEST DUP2 DUP10 ADD MSTORE PUSH1 0x40 DUP4 DUP2 ADD CALLDATALOAD SWAP1 DUP3 ADD MSTORE PUSH1 0x60 PUSH2 0x52CE DUP13 DUP3 DUP7 ADD PUSH2 0x4CB1 JUMP JUMPDEST SWAP1 DUP3 ADD MSTORE PUSH1 0x80 PUSH2 0x52E0 DUP13 DUP6 DUP4 ADD PUSH2 0x4CB1 JUMP JUMPDEST SWAP1 DUP3 ADD MSTORE DUP5 MSTORE PUSH1 0x1 SWAP6 SWAP1 SWAP6 ADD SWAP5 SWAP3 DUP7 ADD SWAP3 SWAP1 DUP2 ADD SWAP1 PUSH2 0x527B JUMP JUMPDEST PUSH1 0x0 DUP1 PUSH1 0x40 DUP4 DUP6 SUB SLT ISZERO PUSH2 0x530C JUMPI DUP2 DUP3 REVERT JUMPDEST DUP3 MLOAD PUSH1 0x1 PUSH1 0x1 PUSH1 0x40 SHL SUB DUP1 DUP3 GT ISZERO PUSH2 0x5322 JUMPI DUP4 DUP5 REVERT JUMPDEST PUSH2 0x532E DUP7 DUP4 DUP8 ADD PUSH2 0x4E51 JUMP JUMPDEST SWAP4 POP PUSH1 0x20 DUP6 ADD MLOAD SWAP2 POP DUP1 DUP3 GT ISZERO PUSH2 0x5343 JUMPI DUP3 DUP4 REVERT JUMPDEST POP PUSH2 0x5130 DUP6 DUP3 DUP7 ADD PUSH2 0x4E51 JUMP JUMPDEST PUSH1 0x0 PUSH1 0x20 DUP3 DUP5 SUB SLT ISZERO PUSH2 0x5361 JUMPI DUP1 DUP2 REVERT JUMPDEST DUP2 CALLDATALOAD PUSH2 0x169D DUP2 PUSH2 0x5E3F JUMP JUMPDEST PUSH1 0x0 PUSH1 0x20 DUP3 DUP5 SUB SLT ISZERO PUSH2 0x537D JUMPI DUP1 DUP2 REVERT JUMPDEST DUP2 MLOAD PUSH2 0x169D DUP2 PUSH2 0x5E3F JUMP JUMPDEST PUSH1 0x0 PUSH1 0x20 DUP3 DUP5 SUB SLT ISZERO PUSH2 0x5399 JUMPI DUP1 DUP2 REVERT JUMPDEST POP CALLDATALOAD SWAP2 SWAP1 POP JUMP JUMPDEST PUSH1 0x0 DUP1 PUSH1 0x0 DUP1 PUSH1 0x80 DUP6 DUP8 SUB SLT ISZERO PUSH2 0x53B5 JUMPI DUP2 DUP3 REVERT JUMPDEST DUP5 CALLDATALOAD SWAP4 POP PUSH1 0x20 DUP6 ADD CALLDATALOAD PUSH2 0x53C7 DUP2 PUSH2 0x5E2A JUMP JUMPDEST SWAP3 POP PUSH1 0x40 DUP6 ADD CALLDATALOAD PUSH2 0x53D7 DUP2 PUSH2 0x5E2A JUMP JUMPDEST SWAP2 POP PUSH1 0x60 DUP6 ADD CALLDATALOAD PUSH1 0x1 PUSH1 0x1 PUSH1 0x40 SHL SUB DUP2 GT ISZERO PUSH2 0x53F1 JUMPI DUP2 DUP3 REVERT JUMPDEST PUSH2 0x53FD DUP8 DUP3 DUP9 ADD PUSH2 0x4F4B JUMP JUMPDEST SWAP2 POP POP SWAP3 SWAP6 SWAP2 SWAP5 POP SWAP3 POP JUMP JUMPDEST PUSH1 0x0 DUP1 PUSH1 0x40 DUP4 DUP6 SUB SLT ISZERO PUSH2 0x541B JUMPI DUP2 DUP3 REVERT JUMPDEST DUP3 CALLDATALOAD SWAP2 POP PUSH1 0x20 DUP4 ADD CALLDATALOAD PUSH1 0x1 PUSH1 0x1 PUSH1 0x40 SHL SUB DUP2 GT ISZERO PUSH2 0x5124 JUMPI DUP2 DUP3 REVERT JUMPDEST PUSH1 0x0 DUP1 PUSH1 0x0 PUSH1 0x60 DUP5 DUP7 SUB SLT ISZERO PUSH2 0x544B JUMPI DUP1 DUP2 REVERT JUMPDEST DUP4 CALLDATALOAD SWAP3 POP PUSH1 0x20 DUP1 DUP6 ADD CALLDATALOAD PUSH1 0x1 PUSH1 0x1 PUSH1 0x40 SHL SUB DUP1 DUP3 GT ISZERO PUSH2 0x5469 JUMPI DUP4 DUP5 REVERT JUMPDEST PUSH2 0x5475 DUP9 DUP4 DUP10 ADD PUSH2 0x4CBC JUMP JUMPDEST SWAP5 POP PUSH1 0x40 DUP8 ADD CALLDATALOAD SWAP2 POP DUP1 DUP3 GT ISZERO PUSH2 0x548A JUMPI DUP4 DUP5 REVERT JUMPDEST POP DUP6 ADD PUSH1 0x1F DUP2 ADD DUP8 SGT PUSH2 0x549B JUMPI DUP3 DUP4 REVERT JUMPDEST DUP1 CALLDATALOAD PUSH2 0x54A9 PUSH2 0x4CDA DUP3 PUSH2 0x5DD5 JUMP JUMPDEST DUP2 DUP2 MSTORE DUP4 DUP2 ADD SWAP1 DUP4 DUP6 ADD DUP6 DUP5 MUL DUP6 ADD DUP7 ADD DUP12 LT ISZERO PUSH2 0x54C5 JUMPI DUP7 DUP8 REVERT JUMPDEST DUP7 SWAP5 POP JUMPDEST DUP4 DUP6 LT ISZERO PUSH2 0x54F0 JUMPI DUP1 CALLDATALOAD PUSH2 0x54DC DUP2 PUSH2 0x5E2A JUMP JUMPDEST DUP4 MSTORE PUSH1 0x1 SWAP5 SWAP1 SWAP5 ADD SWAP4 SWAP2 DUP6 ADD SWAP2 DUP6 ADD PUSH2 0x54C9 JUMP JUMPDEST POP DUP1 SWAP6 POP POP POP POP POP POP SWAP3 POP SWAP3 POP SWAP3 JUMP JUMPDEST PUSH1 0x0 DUP1 PUSH1 0x40 DUP4 DUP6 SUB SLT ISZERO PUSH2 0x5512 JUMPI DUP2 DUP3 REVERT JUMPDEST DUP3 CALLDATALOAD SWAP2 POP PUSH1 0x20 DUP4 ADD CALLDATALOAD PUSH2 0x5098 DUP2 PUSH2 0x5E2A JUMP JUMPDEST PUSH1 0x0 PUSH1 0x20 DUP3 DUP5 SUB SLT ISZERO PUSH2 0x5535 JUMPI DUP1 DUP2 REVERT JUMPDEST DUP2 CALLDATALOAD PUSH1 0x1 PUSH1 0x1 PUSH1 0xE0 SHL SUB NOT DUP2 AND DUP2 EQ PUSH2 0x169D JUMPI DUP2 DUP3 REVERT JUMPDEST PUSH1 0x0 DUP1 PUSH1 0x0 DUP1 PUSH1 0x80 DUP6 DUP8 SUB SLT ISZERO PUSH2 0x5561 JUMPI DUP2 DUP3 REVERT JUMPDEST DUP5 CALLDATALOAD PUSH2 0x556C DUP2 PUSH2 0x5E2A JUMP JUMPDEST SWAP4 POP PUSH1 0x20 DUP6 ADD CALLDATALOAD PUSH1 0x1 PUSH1 0x1 PUSH1 0x40 SHL SUB DUP1 DUP3 GT ISZERO PUSH2 0x5587 JUMPI DUP4 DUP5 REVERT JUMPDEST PUSH2 0x5593 DUP9 DUP4 DUP10 ADD PUSH2 0x4CBC JUMP JUMPDEST SWAP5 POP PUSH1 0x40 DUP8 ADD CALLDATALOAD SWAP2 POP DUP1 DUP3 GT ISZERO PUSH2 0x55A8 JUMPI DUP4 DUP5 REVERT JUMPDEST PUSH2 0x55B4 DUP9 DUP4 DUP10 ADD PUSH2 0x4DF3 JUMP JUMPDEST SWAP4 POP PUSH1 0x60 DUP8 ADD CALLDATALOAD SWAP2 POP DUP1 DUP3 GT ISZERO PUSH2 0x55C9 JUMPI DUP3 DUP4 REVERT JUMPDEST POP PUSH2 0x53FD DUP8 DUP3 DUP9 ADD PUSH2 0x4EBA JUMP JUMPDEST PUSH1 0x0 PUSH1 0x20 DUP3 DUP5 SUB SLT ISZERO PUSH2 0x55E7 JUMPI DUP1 DUP2 REVERT JUMPDEST DUP2 CALLDATALOAD PUSH2 0x169D DUP2 PUSH2 0x5E4D JUMP JUMPDEST PUSH1 0x0 DUP1 PUSH1 0x0 DUP1 PUSH1 0xE0 DUP6 DUP8 SUB SLT ISZERO PUSH2 0x5607 JUMPI DUP2 DUP3 REVERT JUMPDEST PUSH2 0x5611 DUP7 DUP7 PUSH2 0x4F2D JUMP JUMPDEST SWAP4 POP PUSH1 0x20 DUP6 ADD CALLDATALOAD PUSH1 0x1 PUSH1 0x1 PUSH1 0x40 SHL SUB DUP1 DUP3 GT ISZERO PUSH2 0x562C JUMPI DUP4 DUP5 REVERT JUMPDEST PUSH2 0x5638 DUP9 DUP4 DUP10 ADD PUSH2 0x4D33 JUMP JUMPDEST SWAP5 POP PUSH1 0x40 DUP8 ADD CALLDATALOAD SWAP2 POP DUP1 DUP3 GT ISZERO PUSH2 0x564D JUMPI DUP4 DUP5 REVERT JUMPDEST POP PUSH2 0x565A DUP8 DUP3 DUP9 ADD PUSH2 0x4CBC JUMP JUMPDEST SWAP3 POP POP PUSH2 0x566A DUP7 PUSH1 0x60 DUP8 ADD PUSH2 0x4FF1 JUMP JUMPDEST SWAP1 POP SWAP3 SWAP6 SWAP2 SWAP5 POP SWAP3 POP JUMP JUMPDEST PUSH1 0x0 DUP1 PUSH1 0x0 DUP1 PUSH1 0x0 DUP1 PUSH2 0x120 DUP8 DUP10 SUB SLT ISZERO PUSH2 0x568E JUMPI DUP4 DUP5 REVERT JUMPDEST PUSH2 0x5698 DUP9 DUP9 PUSH2 0x4F2D JUMP JUMPDEST SWAP6 POP PUSH1 0x20 DUP1 DUP9 ADD CALLDATALOAD PUSH1 0x1 PUSH1 0x1 PUSH1 0x40 SHL SUB DUP1 DUP3 GT ISZERO PUSH2 0x56B4 JUMPI DUP7 DUP8 REVERT JUMPDEST PUSH2 0x56C0 DUP12 DUP4 DUP13 ADD PUSH2 0x4D33 JUMP JUMPDEST SWAP8 POP PUSH1 0x40 DUP11 ADD CALLDATALOAD SWAP2 POP DUP1 DUP3 GT ISZERO PUSH2 0x56D5 JUMPI DUP7 DUP8 REVERT JUMPDEST PUSH2 0x56E1 DUP12 DUP4 DUP13 ADD PUSH2 0x4CBC JUMP JUMPDEST SWAP7 POP PUSH2 0x56F0 DUP12 PUSH1 0x60 DUP13 ADD PUSH2 0x4FF1 JUMP JUMPDEST SWAP6 POP PUSH1 0xE0 DUP11 ADD CALLDATALOAD SWAP2 POP DUP1 DUP3 GT ISZERO PUSH2 0x5705 JUMPI DUP5 DUP6 REVERT JUMPDEST POP DUP9 ADD PUSH1 0x1F DUP2 ADD DUP11 SGT PUSH2 0x5716 JUMPI DUP4 DUP5 REVERT JUMPDEST DUP1 CALLDATALOAD PUSH2 0x5724 PUSH2 0x4CDA DUP3 PUSH2 0x5DD5 JUMP JUMPDEST DUP2 DUP2 MSTORE DUP4 DUP2 ADD SWAP1 DUP4 DUP6 ADD DUP6 DUP5 MUL DUP6 ADD DUP7 ADD DUP15 LT ISZERO PUSH2 0x5740 JUMPI DUP8 DUP9 REVERT JUMPDEST DUP8 SWAP5 POP JUMPDEST DUP4 DUP6 LT ISZERO PUSH2 0x5762 JUMPI DUP1 CALLDATALOAD DUP4 MSTORE PUSH1 0x1 SWAP5 SWAP1 SWAP5 ADD SWAP4 SWAP2 DUP6 ADD SWAP2 DUP6 ADD PUSH2 0x5744 JUMP JUMPDEST POP DUP1 SWAP7 POP POP POP POP POP POP PUSH2 0x100 DUP8 ADD CALLDATALOAD SWAP1 POP SWAP3 SWAP6 POP SWAP3 SWAP6 POP SWAP3 SWAP6 JUMP JUMPDEST PUSH1 0x0 DUP1 PUSH1 0x0 DUP1 PUSH1 0xE0 DUP6 DUP8 SUB SLT ISZERO PUSH2 0x5792 JUMPI DUP2 DUP3 REVERT JUMPDEST DUP5 CALLDATALOAD PUSH1 0x1 PUSH1 0x1 PUSH1 0x40 SHL SUB DUP1 DUP3 GT ISZERO PUSH2 0x57A8 JUMPI DUP4 DUP5 REVERT JUMPDEST SWAP1 DUP7 ADD SWAP1 PUSH1 0xC0 DUP3 DUP10 SUB SLT ISZERO PUSH2 0x57BB JUMPI DUP4 DUP5 REVERT JUMPDEST PUSH2 0x57C5 PUSH1 0xC0 PUSH2 0x5DAF JUMP JUMPDEST DUP3 CALLDATALOAD DUP2 MSTORE PUSH2 0x57D6 DUP10 PUSH1 0x20 DUP6 ADD PUSH2 0x4F2D JUMP JUMPDEST PUSH1 0x20 DUP3 ADD MSTORE PUSH1 0x40 DUP4 ADD CALLDATALOAD PUSH2 0x57E9 DUP2 PUSH2 0x5E2A JUMP JUMPDEST PUSH1 0x40 DUP3 ADD MSTORE PUSH2 0x57FB DUP10 PUSH1 0x60 DUP6 ADD PUSH2 0x4CB1 JUMP JUMPDEST PUSH1 0x60 DUP3 ADD MSTORE PUSH1 0x80 DUP4 ADD CALLDATALOAD PUSH1 0x80 DUP3 ADD MSTORE PUSH1 0xA0 DUP4 ADD CALLDATALOAD DUP3 DUP2 GT ISZERO PUSH2 0x581B JUMPI DUP6 DUP7 REVERT JUMPDEST PUSH2 0x5827 DUP11 DUP3 DUP7 ADD PUSH2 0x4EBA JUMP JUMPDEST PUSH1 0xA0 DUP4 ADD MSTORE POP DUP1 SWAP7 POP POP POP POP PUSH2 0x5840 DUP7 PUSH1 0x20 DUP8 ADD PUSH2 0x4FF1 JUMP JUMPDEST SWAP4 SWAP7 SWAP4 SWAP6 POP POP POP POP PUSH1 0xA0 DUP3 ADD CALLDATALOAD SWAP2 PUSH1 0xC0 ADD CALLDATALOAD SWAP1 JUMP JUMPDEST PUSH1 0x0 PUSH1 0x20 DUP3 DUP5 SUB SLT ISZERO PUSH2 0x5866 JUMPI DUP1 DUP2 REVERT JUMPDEST POP MLOAD SWAP2 SWAP1 POP JUMP JUMPDEST PUSH1 0x1 PUSH1 0x1 PUSH1 0xA0 SHL SUB AND SWAP1 MSTORE JUMP JUMPDEST PUSH1 0x0 DUP2 MLOAD DUP1 DUP5 MSTORE PUSH1 0x20 DUP1 DUP6 ADD SWAP5 POP DUP1 DUP5 ADD DUP4 JUMPDEST DUP4 DUP2 LT ISZERO PUSH2 0x58B2 JUMPI DUP2 MLOAD PUSH1 0x1 PUSH1 0x1 PUSH1 0xA0 SHL SUB AND DUP8 MSTORE SWAP6 DUP3 ADD SWAP6 SWAP1 DUP3 ADD SWAP1 PUSH1 0x1 ADD PUSH2 0x588D JUMP JUMPDEST POP SWAP5 SWAP6 SWAP5 POP POP POP POP POP JUMP JUMPDEST PUSH1 0x0 DUP2 MLOAD DUP1 DUP5 MSTORE PUSH1 0x20 DUP1 DUP6 ADD SWAP5 POP DUP1 DUP5 ADD DUP4 JUMPDEST DUP4 DUP2 LT ISZERO PUSH2 0x58B2 JUMPI DUP2 MLOAD DUP8 MSTORE SWAP6 DUP3 ADD SWAP6 SWAP1 DUP3 ADD SWAP1 PUSH1 0x1 ADD PUSH2 0x58D0 JUMP JUMPDEST PUSH1 0x0 DUP2 MLOAD DUP1 DUP5 MSTORE PUSH2 0x5904 DUP2 PUSH1 0x20 DUP7 ADD PUSH1 0x20 DUP7 ADD PUSH2 0x5DF4 JUMP JUMPDEST PUSH1 0x1F ADD PUSH1 0x1F NOT AND SWAP3 SWAP1 SWAP3 ADD PUSH1 0x20 ADD SWAP3 SWAP2 POP POP JUMP JUMPDEST PUSH1 0x0 PUSH2 0x120 DUP3 MLOAD PUSH1 0x2 DUP2 LT PUSH2 0x5929 JUMPI INVALID JUMPDEST DUP1 DUP6 MSTORE POP PUSH1 0x20 DUP4 ADD MLOAD PUSH2 0x593F PUSH1 0x20 DUP7 ADD DUP3 PUSH2 0x586D JUMP JUMPDEST POP PUSH1 0x40 DUP4 ADD MLOAD PUSH2 0x5952 PUSH1 0x40 DUP7 ADD DUP3 PUSH2 0x586D JUMP JUMPDEST POP PUSH1 0x60 DUP4 ADD MLOAD PUSH1 0x60 DUP6 ADD MSTORE PUSH1 0x80 DUP4 ADD MLOAD PUSH1 0x80 DUP6 ADD MSTORE PUSH1 0xA0 DUP4 ADD MLOAD PUSH1 0xA0 DUP6 ADD MSTORE PUSH1 0xC0 DUP4 ADD MLOAD PUSH2 0x5983 PUSH1 0xC0 DUP7 ADD DUP3 PUSH2 0x586D JUMP JUMPDEST POP PUSH1 0xE0 DUP4 ADD MLOAD PUSH2 0x5996 PUSH1 0xE0 DUP7 ADD DUP3 PUSH2 0x586D JUMP JUMPDEST POP PUSH2 0x100 DUP1 DUP5 ADD MLOAD DUP3 DUP3 DUP8 ADD MSTORE PUSH2 0x126A DUP4 DUP8 ADD DUP3 PUSH2 0x58EC JUMP JUMPDEST SWAP2 DUP3 MSTORE PUSH1 0x1 PUSH1 0x1 PUSH1 0xE0 SHL SUB NOT AND PUSH1 0x20 DUP3 ADD MSTORE PUSH1 0x24 ADD SWAP1 JUMP JUMPDEST PUSH1 0x0 DUP3 DUP5 DUP4 CALLDATACOPY SWAP2 ADD SWAP1 DUP2 MSTORE SWAP2 SWAP1 POP JUMP JUMPDEST PUSH1 0x0 DUP3 MLOAD PUSH2 0x59E9 DUP2 DUP5 PUSH1 0x20 DUP8 ADD PUSH2 0x5DF4 JUMP JUMPDEST SWAP2 SWAP1 SWAP2 ADD SWAP3 SWAP2 POP POP JUMP JUMPDEST PUSH12 0xFFFFFFFFFFFFFFFFFFFFFFFF NOT PUSH1 0x60 SWAP4 DUP5 SHL DUP2 AND DUP3 MSTORE SWAP2 SWAP1 SWAP3 SHL AND PUSH1 0x14 DUP3 ADD MSTORE PUSH1 0x28 ADD SWAP1 JUMP JUMPDEST PUSH2 0x1901 PUSH1 0xF0 SHL DUP2 MSTORE PUSH1 0x2 DUP2 ADD SWAP3 SWAP1 SWAP3 MSTORE PUSH1 0x22 DUP3 ADD MSTORE PUSH1 0x42 ADD SWAP1 JUMP JUMPDEST PUSH1 0x1 PUSH1 0x1 PUSH1 0xA0 SHL SUB SWAP2 SWAP1 SWAP2 AND DUP2 MSTORE PUSH1 0x20 ADD SWAP1 JUMP JUMPDEST PUSH1 0x1 PUSH1 0x1 PUSH1 0xA0 SHL SUB SWAP4 DUP5 AND DUP2 MSTORE SWAP2 SWAP1 SWAP3 AND PUSH1 0x20 DUP3 ADD MSTORE PUSH1 0x40 DUP2 ADD SWAP2 SWAP1 SWAP2 MSTORE PUSH1 0x60 ADD SWAP1 JUMP JUMPDEST PUSH1 0x1 PUSH1 0x1 PUSH1 0xA0 SHL SUB DUP4 AND DUP2 MSTORE PUSH1 0x40 DUP2 ADD PUSH2 0x5A86 DUP4 PUSH2 0x5E20 JUMP JUMPDEST DUP3 PUSH1 0x20 DUP4 ADD MSTORE SWAP4 SWAP3 POP POP POP JUMP JUMPDEST PUSH1 0x1 PUSH1 0x1 PUSH1 0xA0 SHL SUB SWAP3 SWAP1 SWAP3 AND DUP3 MSTORE PUSH1 0x20 DUP3 ADD MSTORE PUSH1 0x40 ADD SWAP1 JUMP JUMPDEST PUSH1 0x0 PUSH1 0x20 DUP3 MSTORE PUSH2 0x169D PUSH1 0x20 DUP4 ADD DUP5 PUSH2 0x587A JUMP JUMPDEST PUSH1 0x0 PUSH1 0x40 DUP3 MSTORE PUSH2 0x5AD2 PUSH1 0x40 DUP4 ADD DUP6 PUSH2 0x587A JUMP JUMPDEST DUP3 DUP2 SUB PUSH1 0x20 DUP5 DUP2 ADD SWAP2 SWAP1 SWAP2 MSTORE DUP5 MLOAD DUP1 DUP4 MSTORE DUP6 DUP3 ADD SWAP3 DUP3 ADD SWAP1 DUP5 JUMPDEST DUP2 DUP2 LT ISZERO PUSH2 0x5B11 JUMPI DUP5 MLOAD PUSH1 0x1 PUSH1 0x1 PUSH1 0xA0 SHL SUB AND DUP4 MSTORE SWAP4 DUP4 ADD SWAP4 SWAP2 DUP4 ADD SWAP2 PUSH1 0x1 ADD PUSH2 0x5AEC JUMP JUMPDEST POP SWAP1 SWAP8 SWAP7 POP POP POP POP POP POP POP JUMP JUMPDEST PUSH1 0x0 PUSH1 0x60 DUP3 MSTORE PUSH2 0x5B31 PUSH1 0x60 DUP4 ADD DUP7 PUSH2 0x587A JUMP JUMPDEST DUP3 DUP2 SUB PUSH1 0x20 DUP5 ADD MSTORE PUSH2 0x5B43 DUP2 DUP7 PUSH2 0x58BD JUMP JUMPDEST SWAP1 POP DUP3 DUP2 SUB PUSH1 0x40 DUP5 ADD MSTORE PUSH2 0x126A DUP2 DUP6 PUSH2 0x58BD JUMP JUMPDEST PUSH1 0x0 PUSH1 0x80 DUP3 MSTORE PUSH2 0x5B6A PUSH1 0x80 DUP4 ADD DUP8 PUSH2 0x587A JUMP JUMPDEST DUP3 DUP2 SUB PUSH1 0x20 DUP5 ADD MSTORE PUSH2 0x5B7C DUP2 DUP8 PUSH2 0x58BD JUMP JUMPDEST SWAP1 POP DUP3 DUP2 SUB PUSH1 0x40 DUP5 ADD MSTORE PUSH2 0x5B90 DUP2 DUP7 PUSH2 0x58BD JUMP JUMPDEST SWAP1 POP DUP3 DUP2 SUB PUSH1 0x60 DUP5 ADD MSTORE PUSH2 0x4B03 DUP2 DUP6 PUSH2 0x58EC JUMP JUMPDEST PUSH1 0x0 PUSH1 0x60 DUP3 MSTORE PUSH2 0x5BB7 PUSH1 0x60 DUP4 ADD DUP7 PUSH2 0x587A JUMP JUMPDEST DUP3 DUP2 SUB PUSH1 0x20 DUP5 ADD MSTORE PUSH2 0x5BC9 DUP2 DUP7 PUSH2 0x58BD JUMP JUMPDEST SWAP2 POP POP DUP3 PUSH1 0x40 DUP4 ADD MSTORE SWAP5 SWAP4 POP POP POP POP JUMP JUMPDEST PUSH1 0x0 PUSH1 0x20 DUP3 MSTORE PUSH2 0x169D PUSH1 0x20 DUP4 ADD DUP5 PUSH2 0x58BD JUMP JUMPDEST SWAP1 ISZERO ISZERO DUP2 MSTORE PUSH1 0x20 ADD SWAP1 JUMP JUMPDEST SWAP3 ISZERO ISZERO DUP4 MSTORE PUSH1 0x20 DUP4 ADD SWAP2 SWAP1 SWAP2 MSTORE PUSH1 0x40 DUP3 ADD MSTORE PUSH1 0x60 ADD SWAP1 JUMP JUMPDEST SWAP1 DUP2 MSTORE PUSH1 0x20 ADD SWAP1 JUMP JUMPDEST SWAP3 DUP4 MSTORE PUSH1 0x1 PUSH1 0x1 PUSH1 0xA0 SHL SUB SWAP2 DUP3 AND PUSH1 0x20 DUP5 ADD MSTORE AND PUSH1 0x40 DUP3 ADD MSTORE PUSH1 0x60 ADD SWAP1 JUMP JUMPDEST DUP8 DUP2 MSTORE PUSH1 0x1 PUSH1 0x1 PUSH1 0xA0 SHL SUB DUP8 DUP2 AND PUSH1 0x20 DUP4 ADD MSTORE DUP7 AND PUSH1 0x40 DUP3 ADD MSTORE PUSH1 0xE0 PUSH1 0x60 DUP3 ADD DUP2 SWAP1 MSTORE PUSH1 0x0 SWAP1 PUSH2 0x5C6A SWAP1 DUP4 ADD DUP8 PUSH2 0x58BD JUMP JUMPDEST DUP6 PUSH1 0x80 DUP5 ADD MSTORE DUP5 PUSH1 0xA0 DUP5 ADD MSTORE DUP3 DUP2 SUB PUSH1 0xC0 DUP5 ADD MSTORE PUSH2 0x5C88 DUP2 DUP6 PUSH2 0x58EC JUMP JUMPDEST SWAP11 SWAP10 POP POP POP POP POP POP POP POP POP POP JUMP JUMPDEST SWAP5 DUP6 MSTORE PUSH1 0x20 DUP6 ADD SWAP4 SWAP1 SWAP4 MSTORE PUSH1 0x1 PUSH1 0x1 PUSH1 0xA0 SHL SUB SWAP2 SWAP1 SWAP2 AND PUSH1 0x40 DUP5 ADD MSTORE PUSH1 0x60 DUP4 ADD MSTORE PUSH1 0x80 DUP3 ADD MSTORE PUSH1 0xA0 ADD SWAP1 JUMP JUMPDEST SWAP5 DUP6 MSTORE PUSH1 0x20 DUP6 ADD SWAP4 SWAP1 SWAP4 MSTORE PUSH1 0x40 DUP5 ADD SWAP2 SWAP1 SWAP2 MSTORE PUSH1 0x60 DUP4 ADD MSTORE PUSH1 0x1 PUSH1 0x1 PUSH1 0xA0 SHL SUB AND PUSH1 0x80 DUP3 ADD MSTORE PUSH1 0xA0 ADD SWAP1 JUMP JUMPDEST SWAP4 DUP5 MSTORE PUSH1 0xFF SWAP3 SWAP1 SWAP3 AND PUSH1 0x20 DUP5 ADD MSTORE PUSH1 0x40 DUP4 ADD MSTORE PUSH1 0x60 DUP3 ADD MSTORE PUSH1 0x80 ADD SWAP1 JUMP JUMPDEST PUSH1 0x20 DUP2 ADD PUSH2 0x5D19 DUP4 PUSH2 0x5E20 JUMP JUMPDEST SWAP2 SWAP1 MSTORE SWAP1 JUMP JUMPDEST SWAP2 DUP3 MSTORE PUSH1 0x20 DUP3 ADD MSTORE PUSH1 0x40 ADD SWAP1 JUMP JUMPDEST PUSH1 0x0 PUSH1 0x80 DUP3 MSTORE PUSH2 0x5D40 PUSH1 0x80 DUP4 ADD DUP8 PUSH2 0x5918 JUMP JUMPDEST DUP3 DUP2 SUB PUSH1 0x20 DUP5 ADD MSTORE PUSH2 0x5D52 DUP2 DUP8 PUSH2 0x58BD JUMP JUMPDEST PUSH1 0x40 DUP5 ADD SWAP6 SWAP1 SWAP6 MSTORE POP POP PUSH1 0x60 ADD MSTORE SWAP3 SWAP2 POP POP JUMP JUMPDEST PUSH1 0x0 PUSH1 0x60 DUP3 MSTORE PUSH2 0x5D79 PUSH1 0x60 DUP4 ADD DUP7 PUSH2 0x5918 JUMP JUMPDEST PUSH1 0x20 DUP4 ADD SWAP5 SWAP1 SWAP5 MSTORE POP PUSH1 0x40 ADD MSTORE SWAP2 SWAP1 POP JUMP JUMPDEST SWAP4 DUP5 MSTORE PUSH1 0x20 DUP5 ADD SWAP3 SWAP1 SWAP3 MSTORE PUSH1 0x40 DUP4 ADD MSTORE PUSH1 0x1 PUSH1 0x1 PUSH1 0xA0 SHL SUB AND PUSH1 0x60 DUP3 ADD MSTORE PUSH1 0x80 ADD SWAP1 JUMP JUMPDEST PUSH1 0x40 MLOAD DUP2 DUP2 ADD PUSH1 0x1 PUSH1 0x1 PUSH1 0x40 SHL SUB DUP2 GT DUP3 DUP3 LT OR ISZERO PUSH2 0x5DCD JUMPI PUSH1 0x0 DUP1 REVERT JUMPDEST PUSH1 0x40 MSTORE SWAP2 SWAP1 POP JUMP JUMPDEST PUSH1 0x0 PUSH1 0x1 PUSH1 0x1 PUSH1 0x40 SHL SUB DUP3 GT ISZERO PUSH2 0x5DEA JUMPI DUP1 DUP2 REVERT JUMPDEST POP PUSH1 0x20 SWAP1 DUP2 MUL ADD SWAP1 JUMP JUMPDEST PUSH1 0x0 JUMPDEST DUP4 DUP2 LT ISZERO PUSH2 0x5E0F JUMPI DUP2 DUP2 ADD MLOAD DUP4 DUP3 ADD MSTORE PUSH1 0x20 ADD PUSH2 0x5DF7 JUMP JUMPDEST DUP4 DUP2 GT ISZERO PUSH2 0xDC4 JUMPI POP POP PUSH1 0x0 SWAP2 ADD MSTORE JUMP JUMPDEST PUSH1 0x3 DUP2 LT PUSH2 0x55E JUMPI INVALID JUMPDEST PUSH1 0x1 PUSH1 0x1 PUSH1 0xA0 SHL SUB DUP2 AND DUP2 EQ PUSH2 0x55E JUMPI PUSH1 0x0 DUP1 REVERT JUMPDEST DUP1 ISZERO ISZERO DUP2 EQ PUSH2 0x55E JUMPI PUSH1 0x0 DUP1 REVERT JUMPDEST PUSH1 0x3 DUP2 LT PUSH2 0x55E JUMPI PUSH1 0x0 DUP1 REVERT INVALID LOG2 PUSH5 0x6970667358 0x22 SLT KECCAK256 ADDMOD XOR PUSH28 0xC532F457063CE4A33B96B99E4E16F1AE79A8AE8F3EB1BA352BB077C1 SWAP10 PUSH5 0x736F6C6343 STOP SMOD ADD STOP CALLER PUSH1 0xC0 PUSH1 0x40 MSTORE CALLVALUE DUP1 ISZERO PUSH2 0x10 JUMPI PUSH1 0x0 DUP1 REVERT JUMPDEST POP PUSH1 0x40 MLOAD PUSH2 0xB47 CODESIZE SUB DUP1 PUSH2 0xB47 DUP4 CODECOPY DUP2 ADD PUSH1 0x40 DUP2 SWAP1 MSTORE PUSH2 0x2F SWAP2 PUSH2 0x4D JUMP JUMPDEST ADDRESS PUSH1 0x80 MSTORE PUSH1 0x1 PUSH1 0x0 SSTORE PUSH1 0x60 SHL PUSH1 0x1 PUSH1 0x1 PUSH1 0x60 SHL SUB NOT AND PUSH1 0xA0 MSTORE PUSH2 0x7B JUMP JUMPDEST PUSH1 0x0 PUSH1 0x20 DUP3 DUP5 SUB SLT ISZERO PUSH2 0x5E JUMPI DUP1 DUP2 REVERT JUMPDEST DUP2 MLOAD PUSH1 0x1 PUSH1 0x1 PUSH1 0xA0 SHL SUB DUP2 AND DUP2 EQ PUSH2 0x74 JUMPI DUP2 DUP3 REVERT JUMPDEST SWAP4 SWAP3 POP POP POP JUMP JUMPDEST PUSH1 0x80 MLOAD PUSH1 0xA0 MLOAD PUSH1 0x60 SHR PUSH2 0xAA1 PUSH2 0xA6 PUSH1 0x0 CODECOPY DUP1 PUSH2 0x403 MSTORE DUP1 PUSH2 0x4F4 MSTORE POP DUP1 PUSH2 0x297 MSTORE POP PUSH2 0xAA1 PUSH1 0x0 RETURN INVALID PUSH1 0x80 PUSH1 0x40 MSTORE CALLVALUE DUP1 ISZERO PUSH2 0x10 JUMPI PUSH1 0x0 DUP1 REVERT JUMPDEST POP PUSH1 0x4 CALLDATASIZE LT PUSH2 0x93 JUMPI PUSH1 0x0 CALLDATALOAD PUSH1 0xE0 SHR DUP1 PUSH4 0x851C1BB3 GT PUSH2 0x66 JUMPI DUP1 PUSH4 0x851C1BB3 EQ PUSH2 0xF1 JUMPI DUP1 PUSH4 0xAAABADC5 EQ PUSH2 0x104 JUMPI DUP1 PUSH4 0xD877845C EQ PUSH2 0x119 JUMPI DUP1 PUSH4 0xE42ABF35 EQ PUSH2 0x121 JUMPI DUP1 PUSH4 0xFBFA77CF EQ PUSH2 0x141 JUMPI PUSH2 0x93 JUMP JUMPDEST DUP1 PUSH4 0x38E9922E EQ PUSH2 0x98 JUMPI DUP1 PUSH4 0x55C67628 EQ PUSH2 0xAD JUMPI DUP1 PUSH4 0x6B6B9F69 EQ PUSH2 0xCB JUMPI DUP1 PUSH4 0x6DAEFAB6 EQ PUSH2 0xDE JUMPI JUMPDEST PUSH1 0x0 DUP1 REVERT JUMPDEST PUSH2 0xAB PUSH2 0xA6 CALLDATASIZE PUSH1 0x4 PUSH2 0x915 JUMP JUMPDEST PUSH2 0x149 JUMP JUMPDEST STOP JUMPDEST PUSH2 0xB5 PUSH2 0x1A8 JUMP JUMPDEST PUSH1 0x40 MLOAD PUSH2 0xC2 SWAP2 SWAP1 PUSH2 0xA07 JUMP JUMPDEST PUSH1 0x40 MLOAD DUP1 SWAP2 SUB SWAP1 RETURN JUMPDEST PUSH2 0xAB PUSH2 0xD9 CALLDATASIZE PUSH1 0x4 PUSH2 0x915 JUMP JUMPDEST PUSH2 0x1AE JUMP JUMPDEST PUSH2 0xAB PUSH2 0xEC CALLDATASIZE PUSH1 0x4 PUSH2 0x762 JUMP JUMPDEST PUSH2 0x201 JUMP JUMPDEST PUSH2 0xB5 PUSH2 0xFF CALLDATASIZE PUSH1 0x4 PUSH2 0x8B5 JUMP JUMPDEST PUSH2 0x293 JUMP JUMPDEST PUSH2 0x10C PUSH2 0x2E5 JUMP JUMPDEST PUSH1 0x40 MLOAD PUSH2 0xC2 SWAP2 SWAP1 PUSH2 0x996 JUMP JUMPDEST PUSH2 0xB5 PUSH2 0x2F4 JUMP JUMPDEST PUSH2 0x134 PUSH2 0x12F CALLDATASIZE PUSH1 0x4 PUSH2 0x7E3 JUMP JUMPDEST PUSH2 0x2FA JUMP JUMPDEST PUSH1 0x40 MLOAD PUSH2 0xC2 SWAP2 SWAP1 PUSH2 0x9C3 JUMP JUMPDEST PUSH2 0x10C PUSH2 0x401 JUMP JUMPDEST PUSH2 0x151 PUSH2 0x425 JUMP JUMPDEST PUSH2 0x168 PUSH8 0x6F05B59D3B20000 DUP3 GT ISZERO PUSH2 0x258 PUSH2 0x456 JUMP JUMPDEST PUSH1 0x1 DUP2 SWAP1 SSTORE PUSH1 0x40 MLOAD PUSH32 0xA9BA3FFE0B6C366B81232CAAB38605A0699AD5398D6CCE76F91EE809E322DAFC SWAP1 PUSH2 0x19D SWAP1 DUP4 SWAP1 PUSH2 0xA07 JUMP JUMPDEST PUSH1 0x40 MLOAD DUP1 SWAP2 SUB SWAP1 LOG1 POP JUMP JUMPDEST PUSH1 0x1 SLOAD SWAP1 JUMP JUMPDEST PUSH2 0x1B6 PUSH2 0x425 JUMP JUMPDEST PUSH2 0x1CC PUSH7 0x2386F26FC10000 DUP3 GT ISZERO PUSH2 0x259 PUSH2 0x456 JUMP JUMPDEST PUSH1 0x2 DUP2 SWAP1 SSTORE PUSH1 0x40 MLOAD PUSH32 0x5A0B7386237E7F07FA741EFC64E59C9387D2CCCAFEC760EFED4D53387F20E19A SWAP1 PUSH2 0x19D SWAP1 DUP4 SWAP1 PUSH2 0xA07 JUMP JUMPDEST PUSH2 0x209 PUSH2 0x468 JUMP JUMPDEST PUSH2 0x211 PUSH2 0x425 JUMP JUMPDEST PUSH2 0x21B DUP5 DUP4 PUSH2 0x481 JUMP JUMPDEST PUSH1 0x0 JUMPDEST DUP5 DUP2 LT ISZERO PUSH2 0x283 JUMPI PUSH1 0x0 DUP7 DUP7 DUP4 DUP2 DUP2 LT PUSH2 0x234 JUMPI INVALID JUMPDEST SWAP1 POP PUSH1 0x20 MUL ADD PUSH1 0x20 DUP2 ADD SWAP1 PUSH2 0x249 SWAP2 SWAP1 PUSH2 0x8F9 JUMP JUMPDEST SWAP1 POP PUSH1 0x0 DUP6 DUP6 DUP5 DUP2 DUP2 LT PUSH2 0x259 JUMPI INVALID JUMPDEST PUSH1 0x20 MUL SWAP2 SWAP1 SWAP2 ADD CALLDATALOAD SWAP2 POP PUSH2 0x279 SWAP1 POP PUSH1 0x1 PUSH1 0x1 PUSH1 0xA0 SHL SUB DUP4 AND DUP6 DUP4 PUSH2 0x48E JUMP JUMPDEST POP POP PUSH1 0x1 ADD PUSH2 0x21E JUMP JUMPDEST POP PUSH2 0x28C PUSH2 0x4E9 JUMP JUMPDEST POP POP POP POP POP JUMP JUMPDEST PUSH1 0x0 PUSH32 0x0 DUP3 PUSH1 0x40 MLOAD PUSH1 0x20 ADD PUSH2 0x2C8 SWAP3 SWAP2 SWAP1 PUSH2 0x945 JUMP JUMPDEST PUSH1 0x40 MLOAD PUSH1 0x20 DUP2 DUP4 SUB SUB DUP2 MSTORE SWAP1 PUSH1 0x40 MSTORE DUP1 MLOAD SWAP1 PUSH1 0x20 ADD KECCAK256 SWAP1 POP SWAP2 SWAP1 POP JUMP JUMPDEST PUSH1 0x0 PUSH2 0x2EF PUSH2 0x4F0 JUMP JUMPDEST SWAP1 POP SWAP1 JUMP JUMPDEST PUSH1 0x2 SLOAD SWAP1 JUMP JUMPDEST PUSH1 0x60 DUP2 MLOAD PUSH8 0xFFFFFFFFFFFFFFFF DUP2 GT DUP1 ISZERO PUSH2 0x314 JUMPI PUSH1 0x0 DUP1 REVERT JUMPDEST POP PUSH1 0x40 MLOAD SWAP1 DUP1 DUP3 MSTORE DUP1 PUSH1 0x20 MUL PUSH1 0x20 ADD DUP3 ADD PUSH1 0x40 MSTORE DUP1 ISZERO PUSH2 0x33E JUMPI DUP2 PUSH1 0x20 ADD PUSH1 0x20 DUP3 MUL DUP1 CALLDATASIZE DUP4 CALLDATACOPY ADD SWAP1 POP JUMPDEST POP SWAP1 POP PUSH1 0x0 JUMPDEST DUP3 MLOAD DUP2 LT ISZERO PUSH2 0x3FB JUMPI DUP3 DUP2 DUP2 MLOAD DUP2 LT PUSH2 0x359 JUMPI INVALID JUMPDEST PUSH1 0x20 MUL PUSH1 0x20 ADD ADD MLOAD PUSH1 0x1 PUSH1 0x1 PUSH1 0xA0 SHL SUB AND PUSH4 0x70A08231 ADDRESS PUSH1 0x40 MLOAD DUP3 PUSH4 0xFFFFFFFF AND PUSH1 0xE0 SHL DUP2 MSTORE PUSH1 0x4 ADD PUSH2 0x38C SWAP2 SWAP1 PUSH2 0x996 JUMP JUMPDEST PUSH1 0x20 PUSH1 0x40 MLOAD DUP1 DUP4 SUB DUP2 DUP7 DUP1 EXTCODESIZE ISZERO DUP1 ISZERO PUSH2 0x3A4 JUMPI PUSH1 0x0 DUP1 REVERT JUMPDEST POP GAS STATICCALL ISZERO DUP1 ISZERO PUSH2 0x3B8 JUMPI RETURNDATASIZE PUSH1 0x0 DUP1 RETURNDATACOPY RETURNDATASIZE PUSH1 0x0 REVERT JUMPDEST POP POP POP POP PUSH1 0x40 MLOAD RETURNDATASIZE PUSH1 0x1F NOT PUSH1 0x1F DUP3 ADD AND DUP3 ADD DUP1 PUSH1 0x40 MSTORE POP DUP2 ADD SWAP1 PUSH2 0x3DC SWAP2 SWAP1 PUSH2 0x92D JUMP JUMPDEST DUP3 DUP3 DUP2 MLOAD DUP2 LT PUSH2 0x3E8 JUMPI INVALID JUMPDEST PUSH1 0x20 SWAP1 DUP2 MUL SWAP2 SWAP1 SWAP2 ADD ADD MSTORE PUSH1 0x1 ADD PUSH2 0x344 JUMP JUMPDEST POP SWAP2 SWAP1 POP JUMP JUMPDEST PUSH32 0x0 DUP2 JUMP JUMPDEST PUSH1 0x0 PUSH2 0x43C PUSH1 0x0 CALLDATALOAD PUSH1 0x1 PUSH1 0x1 PUSH1 0xE0 SHL SUB NOT AND PUSH2 0x293 JUMP JUMPDEST SWAP1 POP PUSH2 0x453 PUSH2 0x44B DUP3 CALLER PUSH2 0x583 JUMP JUMPDEST PUSH2 0x191 PUSH2 0x456 JUMP JUMPDEST POP JUMP JUMPDEST DUP2 PUSH2 0x464 JUMPI PUSH2 0x464 DUP2 PUSH2 0x615 JUMP JUMPDEST POP POP JUMP JUMPDEST PUSH2 0x47A PUSH1 0x2 PUSH1 0x0 SLOAD EQ ISZERO PUSH2 0x190 PUSH2 0x456 JUMP JUMPDEST PUSH1 0x2 PUSH1 0x0 SSTORE JUMP JUMPDEST PUSH2 0x464 DUP2 DUP4 EQ PUSH1 0x67 PUSH2 0x456 JUMP JUMPDEST PUSH2 0x4E4 DUP4 PUSH4 0xA9059CBB PUSH1 0xE0 SHL DUP5 DUP5 PUSH1 0x40 MLOAD PUSH1 0x24 ADD PUSH2 0x4AD SWAP3 SWAP2 SWAP1 PUSH2 0x9AA JUMP JUMPDEST PUSH1 0x40 DUP1 MLOAD PUSH1 0x1F NOT DUP2 DUP5 SUB ADD DUP2 MSTORE SWAP2 SWAP1 MSTORE PUSH1 0x20 DUP2 ADD DUP1 MLOAD PUSH1 0x1 PUSH1 0x1 PUSH1 0xE0 SHL SUB AND PUSH1 0x1 PUSH1 0x1 PUSH1 0xE0 SHL SUB NOT SWAP1 SWAP4 AND SWAP3 SWAP1 SWAP3 OR SWAP1 SWAP2 MSTORE PUSH2 0x668 JUMP JUMPDEST POP POP POP JUMP JUMPDEST PUSH1 0x1 PUSH1 0x0 SSTORE JUMP JUMPDEST PUSH1 0x0 PUSH32 0x0 PUSH1 0x1 PUSH1 0x1 PUSH1 0xA0 SHL SUB AND PUSH4 0xAAABADC5 PUSH1 0x40 MLOAD DUP2 PUSH4 0xFFFFFFFF AND PUSH1 0xE0 SHL DUP2 MSTORE PUSH1 0x4 ADD PUSH1 0x20 PUSH1 0x40 MLOAD DUP1 DUP4 SUB DUP2 DUP7 DUP1 EXTCODESIZE ISZERO DUP1 ISZERO PUSH2 0x54B JUMPI PUSH1 0x0 DUP1 REVERT JUMPDEST POP GAS STATICCALL ISZERO DUP1 ISZERO PUSH2 0x55F JUMPI RETURNDATASIZE PUSH1 0x0 DUP1 RETURNDATACOPY RETURNDATASIZE PUSH1 0x0 REVERT JUMPDEST POP POP POP POP PUSH1 0x40 MLOAD RETURNDATASIZE PUSH1 0x1F NOT PUSH1 0x1F DUP3 ADD AND DUP3 ADD DUP1 PUSH1 0x40 MSTORE POP DUP2 ADD SWAP1 PUSH2 0x2EF SWAP2 SWAP1 PUSH2 0x8DD JUMP JUMPDEST PUSH1 0x0 PUSH2 0x58D PUSH2 0x4F0 JUMP JUMPDEST PUSH1 0x1 PUSH1 0x1 PUSH1 0xA0 SHL SUB AND PUSH4 0x9BE2A884 DUP5 DUP5 ADDRESS PUSH1 0x40 MLOAD DUP5 PUSH4 0xFFFFFFFF AND PUSH1 0xE0 SHL DUP2 MSTORE PUSH1 0x4 ADD PUSH2 0x5BC SWAP4 SWAP3 SWAP2 SWAP1 PUSH2 0xA10 JUMP JUMPDEST PUSH1 0x20 PUSH1 0x40 MLOAD DUP1 DUP4 SUB DUP2 DUP7 DUP1 EXTCODESIZE ISZERO DUP1 ISZERO PUSH2 0x5D4 JUMPI PUSH1 0x0 DUP1 REVERT JUMPDEST POP GAS STATICCALL ISZERO DUP1 ISZERO PUSH2 0x5E8 JUMPI RETURNDATASIZE PUSH1 0x0 DUP1 RETURNDATACOPY RETURNDATASIZE PUSH1 0x0 REVERT JUMPDEST POP POP POP POP PUSH1 0x40 MLOAD RETURNDATASIZE PUSH1 0x1F NOT PUSH1 0x1F DUP3 ADD AND DUP3 ADD DUP1 PUSH1 0x40 MSTORE POP DUP2 ADD SWAP1 PUSH2 0x60C SWAP2 SWAP1 PUSH2 0x88E JUMP JUMPDEST SWAP1 POP JUMPDEST SWAP3 SWAP2 POP POP JUMP JUMPDEST PUSH3 0x461BCD PUSH1 0xE5 SHL PUSH1 0x0 SWAP1 DUP2 MSTORE PUSH1 0x20 PUSH1 0x4 MSTORE PUSH1 0x7 PUSH1 0x24 MSTORE PUSH7 0x42414C23000030 PUSH1 0xA DUP1 DUP5 DIV DUP2 DUP2 MOD PUSH1 0x30 SWAP1 DUP2 ADD PUSH1 0x8 SHL SWAP6 DUP4 SWAP1 MOD SWAP6 SWAP1 SWAP6 ADD SWAP1 DUP3 SWAP1 DIV SWAP2 DUP3 MOD SWAP1 SWAP5 ADD PUSH1 0x10 SHL SWAP4 SWAP1 SWAP4 ADD ADD PUSH1 0xC8 SHL PUSH1 0x44 MSTORE PUSH1 0x64 SWAP1 REVERT JUMPDEST PUSH1 0x0 PUSH1 0x60 DUP4 PUSH1 0x1 PUSH1 0x1 PUSH1 0xA0 SHL SUB AND DUP4 PUSH1 0x40 MLOAD PUSH2 0x684 SWAP2 SWAP1 PUSH2 0x95D JUMP JUMPDEST PUSH1 0x0 PUSH1 0x40 MLOAD DUP1 DUP4 SUB DUP2 PUSH1 0x0 DUP7 GAS CALL SWAP2 POP POP RETURNDATASIZE DUP1 PUSH1 0x0 DUP2 EQ PUSH2 0x6C1 JUMPI PUSH1 0x40 MLOAD SWAP2 POP PUSH1 0x1F NOT PUSH1 0x3F RETURNDATASIZE ADD AND DUP3 ADD PUSH1 0x40 MSTORE RETURNDATASIZE DUP3 MSTORE RETURNDATASIZE PUSH1 0x0 PUSH1 0x20 DUP5 ADD RETURNDATACOPY PUSH2 0x6C6 JUMP JUMPDEST PUSH1 0x60 SWAP2 POP JUMPDEST POP SWAP2 POP SWAP2 POP PUSH1 0x0 DUP3 EQ ISZERO PUSH2 0x6DE JUMPI RETURNDATASIZE PUSH1 0x0 DUP1 RETURNDATACOPY RETURNDATASIZE PUSH1 0x0 REVERT JUMPDEST PUSH2 0x708 DUP2 MLOAD PUSH1 0x0 EQ DUP1 PUSH2 0x700 JUMPI POP DUP2 DUP1 PUSH1 0x20 ADD SWAP1 MLOAD DUP2 ADD SWAP1 PUSH2 0x700 SWAP2 SWAP1 PUSH2 0x88E JUMP JUMPDEST PUSH2 0x1A2 PUSH2 0x456 JUMP JUMPDEST POP POP POP POP JUMP JUMPDEST PUSH1 0x0 DUP1 DUP4 PUSH1 0x1F DUP5 ADD SLT PUSH2 0x71F JUMPI DUP2 DUP3 REVERT JUMPDEST POP DUP2 CALLDATALOAD PUSH8 0xFFFFFFFFFFFFFFFF DUP2 GT ISZERO PUSH2 0x736 JUMPI DUP2 DUP3 REVERT JUMPDEST PUSH1 0x20 DUP4 ADD SWAP2 POP DUP4 PUSH1 0x20 DUP1 DUP4 MUL DUP6 ADD ADD GT ISZERO PUSH2 0x750 JUMPI PUSH1 0x0 DUP1 REVERT JUMPDEST SWAP3 POP SWAP3 SWAP1 POP JUMP JUMPDEST DUP1 CALLDATALOAD PUSH2 0x60F DUP2 PUSH2 0xA56 JUMP JUMPDEST PUSH1 0x0 DUP1 PUSH1 0x0 DUP1 PUSH1 0x0 PUSH1 0x60 DUP7 DUP9 SUB SLT ISZERO PUSH2 0x779 JUMPI DUP1 DUP2 REVERT JUMPDEST DUP6 CALLDATALOAD PUSH8 0xFFFFFFFFFFFFFFFF DUP1 DUP3 GT ISZERO PUSH2 0x790 JUMPI DUP3 DUP4 REVERT JUMPDEST PUSH2 0x79C DUP10 DUP4 DUP11 ADD PUSH2 0x70E JUMP JUMPDEST SWAP1 SWAP8 POP SWAP6 POP PUSH1 0x20 DUP9 ADD CALLDATALOAD SWAP2 POP DUP1 DUP3 GT ISZERO PUSH2 0x7B4 JUMPI DUP3 DUP4 REVERT JUMPDEST POP PUSH2 0x7C1 DUP9 DUP3 DUP10 ADD PUSH2 0x70E JUMP JUMPDEST SWAP1 SWAP5 POP SWAP3 POP POP PUSH1 0x40 DUP7 ADD CALLDATALOAD PUSH2 0x7D5 DUP2 PUSH2 0xA56 JUMP JUMPDEST DUP1 SWAP2 POP POP SWAP3 SWAP6 POP SWAP3 SWAP6 SWAP1 SWAP4 POP JUMP JUMPDEST PUSH1 0x0 PUSH1 0x20 DUP1 DUP4 DUP6 SUB SLT ISZERO PUSH2 0x7F5 JUMPI DUP2 DUP3 REVERT JUMPDEST DUP3 CALLDATALOAD PUSH8 0xFFFFFFFFFFFFFFFF DUP1 DUP3 GT ISZERO PUSH2 0x80C JUMPI DUP4 DUP5 REVERT JUMPDEST DUP2 DUP6 ADD SWAP2 POP DUP6 PUSH1 0x1F DUP4 ADD SLT PUSH2 0x81F JUMPI DUP4 DUP5 REVERT JUMPDEST DUP2 CALLDATALOAD DUP2 DUP2 GT ISZERO PUSH2 0x82D JUMPI DUP5 DUP6 REVERT JUMPDEST DUP4 DUP2 MUL SWAP2 POP PUSH2 0x83D DUP5 DUP4 ADD PUSH2 0xA2F JUMP JUMPDEST DUP2 DUP2 MSTORE DUP5 DUP2 ADD SWAP1 DUP5 DUP7 ADD DUP5 DUP7 ADD DUP8 ADD DUP11 LT ISZERO PUSH2 0x857 JUMPI DUP8 DUP9 REVERT JUMPDEST DUP8 SWAP6 POP JUMPDEST DUP4 DUP7 LT ISZERO PUSH2 0x881 JUMPI PUSH2 0x86D DUP11 DUP3 PUSH2 0x757 JUMP JUMPDEST DUP4 MSTORE PUSH1 0x1 SWAP6 SWAP1 SWAP6 ADD SWAP5 SWAP2 DUP7 ADD SWAP2 DUP7 ADD PUSH2 0x85B JUMP JUMPDEST POP SWAP9 SWAP8 POP POP POP POP POP POP POP POP JUMP JUMPDEST PUSH1 0x0 PUSH1 0x20 DUP3 DUP5 SUB SLT ISZERO PUSH2 0x89F JUMPI DUP1 DUP2 REVERT JUMPDEST DUP2 MLOAD DUP1 ISZERO ISZERO DUP2 EQ PUSH2 0x8AE JUMPI DUP2 DUP3 REVERT JUMPDEST SWAP4 SWAP3 POP POP POP JUMP JUMPDEST PUSH1 0x0 PUSH1 0x20 DUP3 DUP5 SUB SLT ISZERO PUSH2 0x8C6 JUMPI DUP1 DUP2 REVERT JUMPDEST DUP2 CALLDATALOAD PUSH1 0x1 PUSH1 0x1 PUSH1 0xE0 SHL SUB NOT DUP2 AND DUP2 EQ PUSH2 0x8AE JUMPI DUP2 DUP3 REVERT JUMPDEST PUSH1 0x0 PUSH1 0x20 DUP3 DUP5 SUB SLT ISZERO PUSH2 0x8EE JUMPI DUP1 DUP2 REVERT JUMPDEST DUP2 MLOAD PUSH2 0x8AE DUP2 PUSH2 0xA56 JUMP JUMPDEST PUSH1 0x0 PUSH1 0x20 DUP3 DUP5 SUB SLT ISZERO PUSH2 0x90A JUMPI DUP1 DUP2 REVERT JUMPDEST DUP2 CALLDATALOAD PUSH2 0x8AE DUP2 PUSH2 0xA56 JUMP JUMPDEST PUSH1 0x0 PUSH1 0x20 DUP3 DUP5 SUB SLT ISZERO PUSH2 0x926 JUMPI DUP1 DUP2 REVERT JUMPDEST POP CALLDATALOAD SWAP2 SWAP1 POP JUMP JUMPDEST PUSH1 0x0 PUSH1 0x20 DUP3 DUP5 SUB SLT ISZERO PUSH2 0x93E JUMPI DUP1 DUP2 REVERT JUMPDEST POP MLOAD SWAP2 SWAP1 POP JUMP JUMPDEST SWAP2 DUP3 MSTORE PUSH1 0x1 PUSH1 0x1 PUSH1 0xE0 SHL SUB NOT AND PUSH1 0x20 DUP3 ADD MSTORE PUSH1 0x24 ADD SWAP1 JUMP JUMPDEST PUSH1 0x0 DUP3 MLOAD DUP2 JUMPDEST DUP2 DUP2 LT ISZERO PUSH2 0x97D JUMPI PUSH1 0x20 DUP2 DUP7 ADD DUP2 ADD MLOAD DUP6 DUP4 ADD MSTORE ADD PUSH2 0x963 JUMP JUMPDEST DUP2 DUP2 GT ISZERO PUSH2 0x98B JUMPI DUP3 DUP3 DUP6 ADD MSTORE JUMPDEST POP SWAP2 SWAP1 SWAP2 ADD SWAP3 SWAP2 POP POP JUMP JUMPDEST PUSH1 0x1 PUSH1 0x1 PUSH1 0xA0 SHL SUB SWAP2 SWAP1 SWAP2 AND DUP2 MSTORE PUSH1 0x20 ADD SWAP1 JUMP JUMPDEST PUSH1 0x1 PUSH1 0x1 PUSH1 0xA0 SHL SUB SWAP3 SWAP1 SWAP3 AND DUP3 MSTORE PUSH1 0x20 DUP3 ADD MSTORE PUSH1 0x40 ADD SWAP1 JUMP JUMPDEST PUSH1 0x20 DUP1 DUP3 MSTORE DUP3 MLOAD DUP3 DUP3 ADD DUP2 SWAP1 MSTORE PUSH1 0x0 SWAP2 SWAP1 DUP5 DUP3 ADD SWAP1 PUSH1 0x40 DUP6 ADD SWAP1 DUP5 JUMPDEST DUP2 DUP2 LT ISZERO PUSH2 0x9FB JUMPI DUP4 MLOAD DUP4 MSTORE SWAP3 DUP5 ADD SWAP3 SWAP2 DUP5 ADD SWAP2 PUSH1 0x1 ADD PUSH2 0x9DF JUMP JUMPDEST POP SWAP1 SWAP7 SWAP6 POP POP POP POP POP POP JUMP JUMPDEST SWAP1 DUP2 MSTORE PUSH1 0x20 ADD SWAP1 JUMP JUMPDEST SWAP3 DUP4 MSTORE PUSH1 0x1 PUSH1 0x1 PUSH1 0xA0 SHL SUB SWAP2 DUP3 AND PUSH1 0x20 DUP5 ADD MSTORE AND PUSH1 0x40 DUP3 ADD MSTORE PUSH1 0x60 ADD SWAP1 JUMP JUMPDEST PUSH1 0x40 MLOAD DUP2 DUP2 ADD PUSH8 0xFFFFFFFFFFFFFFFF DUP2 GT DUP3 DUP3 LT OR ISZERO PUSH2 0xA4E JUMPI PUSH1 0x0 DUP1 REVERT JUMPDEST PUSH1 0x40 MSTORE SWAP2 SWAP1 POP JUMP JUMPDEST PUSH1 0x1 PUSH1 0x1 PUSH1 0xA0 SHL SUB DUP2 AND DUP2 EQ PUSH2 0x453 JUMPI PUSH1 0x0 DUP1 REVERT INVALID LOG2 PUSH5 0x6970667358 0x22 SLT KECCAK256 PUSH21 0x7F28E4D5D329F7AC21EAEA1B10ABD35E3D492DF865 JUMP DUP1 BALANCE 0xCD 0xE7 BLOCKHASH 0xD3 0xCD 0x2B 0xD1 PUSH5 0x736F6C6343 STOP SMOD ADD STOP CALLER "
		},
		"gasEstimates": {
			"creation": {
				"codeDepositCost": "4841600",
				"executionCost": "infinite",
				"totalCost": "infinite"
			},
			"external": {
				"WETH()": "infinite",
				"batchSwap(uint8,(bytes32,uint256,uint256,uint256,bytes)[],address[],(address,bool,address,bool),int256[],uint256)": "infinite",
				"deregisterTokens(bytes32,address[])": "infinite",
				"exitPool(bytes32,address,address,(address[],uint256[],bytes,bool))": "infinite",
				"flashLoan(address,address[],uint256[],bytes)": "infinite",
				"getActionId(bytes4)": "infinite",
				"getAuthorizer()": "1126",
				"getDomainSeparator()": "infinite",
				"getInternalBalance(address,address[])": "infinite",
				"getNextNonce(address)": "1379",
				"getPausedState()": "infinite",
				"getPool(bytes32)": "infinite",
				"getPoolTokenInfo(bytes32,address)": "infinite",
				"getPoolTokens(bytes32)": "infinite",
				"getProtocolFeesCollector()": "infinite",
				"hasApprovedRelayer(address,address)": "infinite",
				"joinPool(bytes32,address,address,(address[],uint256[],bytes,bool))": "infinite",
				"managePoolBalance((uint8,bytes32,address,uint256)[])": "infinite",
				"manageUserBalance((uint8,address,uint256,address,address)[])": "infinite",
				"queryBatchSwap(uint8,(bytes32,uint256,uint256,uint256,bytes)[],address[],(address,bool,address,bool))": "infinite",
				"registerPool(uint8)": "infinite",
				"registerTokens(bytes32,address[],address[])": "infinite",
				"setAuthorizer(address)": "infinite",
				"setPaused(bool)": "infinite",
				"setRelayerApproval(address,address,bool)": "infinite",
				"swap((bytes32,uint8,address,address,uint256,bytes),(address,bool,address,bool),uint256,uint256)": "infinite"
			}
		},
		"methodIdentifiers": {
			"WETH()": "ad5c4648",
			"batchSwap(uint8,(bytes32,uint256,uint256,uint256,bytes)[],address[],(address,bool,address,bool),int256[],uint256)": "945bcec9",
			"deregisterTokens(bytes32,address[])": "7d3aeb96",
			"exitPool(bytes32,address,address,(address[],uint256[],bytes,bool))": "8bdb3913",
			"flashLoan(address,address[],uint256[],bytes)": "5c38449e",
			"getActionId(bytes4)": "851c1bb3",
			"getAuthorizer()": "aaabadc5",
			"getDomainSeparator()": "ed24911d",
			"getInternalBalance(address,address[])": "0f5a6efa",
			"getNextNonce(address)": "90193b7c",
			"getPausedState()": "1c0de051",
			"getPool(bytes32)": "f6c00927",
			"getPoolTokenInfo(bytes32,address)": "b05f8e48",
			"getPoolTokens(bytes32)": "f94d4668",
			"getProtocolFeesCollector()": "d2946c2b",
			"hasApprovedRelayer(address,address)": "fec90d72",
			"joinPool(bytes32,address,address,(address[],uint256[],bytes,bool))": "b95cac28",
			"managePoolBalance((uint8,bytes32,address,uint256)[])": "e6c46092",
			"manageUserBalance((uint8,address,uint256,address,address)[])": "0e8e3e84",
			"queryBatchSwap(uint8,(bytes32,uint256,uint256,uint256,bytes)[],address[],(address,bool,address,bool))": "f84d066e",
			"registerPool(uint8)": "09b2760f",
			"registerTokens(bytes32,address[],address[])": "66a9c7d2",
			"setAuthorizer(address)": "058a628f",
			"setPaused(bool)": "16c38b3c",
			"setRelayerApproval(address,address,bool)": "fa6e671d",
			"swap((bytes32,uint8,address,address,uint256,bytes),(address,bool,address,bool),uint256,uint256)": "52bbbe29"
		}
	},
	"abi": [
		{
			"inputs": [
				{
					"internalType": "contract IAuthorizer",
					"name": "authorizer",
					"type": "address"
				},
				{
					"internalType": "contract IWETH",
					"name": "weth",
					"type": "address"
				},
				{
					"internalType": "uint256",
					"name": "pauseWindowDuration",
					"type": "uint256"
				},
				{
					"internalType": "uint256",
					"name": "bufferPeriodDuration",
					"type": "uint256"
				}
			],
			"stateMutability": "nonpayable",
			"type": "constructor"
		},
		{
			"anonymous": false,
			"inputs": [
				{
					"indexed": true,
					"internalType": "contract IAuthorizer",
					"name": "newAuthorizer",
					"type": "address"
				}
			],
			"name": "AuthorizerChanged",
			"type": "event"
		},
		{
			"anonymous": false,
			"inputs": [
				{
					"indexed": true,
					"internalType": "contract IERC20",
					"name": "token",
					"type": "address"
				},
				{
					"indexed": true,
					"internalType": "address",
					"name": "sender",
					"type": "address"
				},
				{
					"indexed": false,
					"internalType": "address",
					"name": "recipient",
					"type": "address"
				},
				{
					"indexed": false,
					"internalType": "uint256",
					"name": "amount",
					"type": "uint256"
				}
			],
			"name": "ExternalBalanceTransfer",
			"type": "event"
		},
		{
			"anonymous": false,
			"inputs": [
				{
					"indexed": true,
					"internalType": "contract IFlashLoanRecipient",
					"name": "recipient",
					"type": "address"
				},
				{
					"indexed": true,
					"internalType": "contract IERC20",
					"name": "token",
					"type": "address"
				},
				{
					"indexed": false,
					"internalType": "uint256",
					"name": "amount",
					"type": "uint256"
				},
				{
					"indexed": false,
					"internalType": "uint256",
					"name": "feeAmount",
					"type": "uint256"
				}
			],
			"name": "FlashLoan",
			"type": "event"
		},
		{
			"anonymous": false,
			"inputs": [
				{
					"indexed": true,
					"internalType": "address",
					"name": "user",
					"type": "address"
				},
				{
					"indexed": true,
					"internalType": "contract IERC20",
					"name": "token",
					"type": "address"
				},
				{
					"indexed": false,
					"internalType": "int256",
					"name": "delta",
					"type": "int256"
				}
			],
			"name": "InternalBalanceChanged",
			"type": "event"
		},
		{
			"anonymous": false,
			"inputs": [
				{
					"indexed": false,
					"internalType": "bool",
					"name": "paused",
					"type": "bool"
				}
			],
			"name": "PausedStateChanged",
			"type": "event"
		},
		{
			"anonymous": false,
			"inputs": [
				{
					"indexed": true,
					"internalType": "bytes32",
					"name": "poolId",
					"type": "bytes32"
				},
				{
					"indexed": true,
					"internalType": "address",
					"name": "liquidityProvider",
					"type": "address"
				},
				{
					"indexed": false,
					"internalType": "contract IERC20[]",
					"name": "tokens",
					"type": "address[]"
				},
				{
					"indexed": false,
					"internalType": "int256[]",
					"name": "deltas",
					"type": "int256[]"
				},
				{
					"indexed": false,
					"internalType": "uint256[]",
					"name": "protocolFeeAmounts",
					"type": "uint256[]"
				}
			],
			"name": "PoolBalanceChanged",
			"type": "event"
		},
		{
			"anonymous": false,
			"inputs": [
				{
					"indexed": true,
					"internalType": "bytes32",
					"name": "poolId",
					"type": "bytes32"
				},
				{
					"indexed": true,
					"internalType": "address",
					"name": "assetManager",
					"type": "address"
				},
				{
					"indexed": true,
					"internalType": "contract IERC20",
					"name": "token",
					"type": "address"
				},
				{
					"indexed": false,
					"internalType": "int256",
					"name": "cashDelta",
					"type": "int256"
				},
				{
					"indexed": false,
					"internalType": "int256",
					"name": "managedDelta",
					"type": "int256"
				}
			],
			"name": "PoolBalanceManaged",
			"type": "event"
		},
		{
			"anonymous": false,
			"inputs": [
				{
					"indexed": true,
					"internalType": "bytes32",
					"name": "poolId",
					"type": "bytes32"
				},
				{
					"indexed": true,
					"internalType": "address",
					"name": "poolAddress",
					"type": "address"
				},
				{
					"indexed": false,
					"internalType": "enum IVault.PoolSpecialization",
					"name": "specialization",
					"type": "uint8"
				}
			],
			"name": "PoolRegistered",
			"type": "event"
		},
		{
			"anonymous": false,
			"inputs": [
				{
					"indexed": true,
					"internalType": "address",
					"name": "relayer",
					"type": "address"
				},
				{
					"indexed": true,
					"internalType": "address",
					"name": "sender",
					"type": "address"
				},
				{
					"indexed": false,
					"internalType": "bool",
					"name": "approved",
					"type": "bool"
				}
			],
			"name": "RelayerApprovalChanged",
			"type": "event"
		},
		{
			"anonymous": false,
			"inputs": [
				{
					"indexed": true,
					"internalType": "bytes32",
					"name": "poolId",
					"type": "bytes32"
				},
				{
					"indexed": true,
					"internalType": "contract IERC20",
					"name": "tokenIn",
					"type": "address"
				},
				{
					"indexed": true,
					"internalType": "contract IERC20",
					"name": "tokenOut",
					"type": "address"
				},
				{
					"indexed": false,
					"internalType": "uint256",
					"name": "amountIn",
					"type": "uint256"
				},
				{
					"indexed": false,
					"internalType": "uint256",
					"name": "amountOut",
					"type": "uint256"
				}
			],
			"name": "Swap",
			"type": "event"
		},
		{
			"anonymous": false,
			"inputs": [
				{
					"indexed": true,
					"internalType": "bytes32",
					"name": "poolId",
					"type": "bytes32"
				},
				{
					"indexed": false,
					"internalType": "contract IERC20[]",
					"name": "tokens",
					"type": "address[]"
				}
			],
			"name": "TokensDeregistered",
			"type": "event"
		},
		{
			"anonymous": false,
			"inputs": [
				{
					"indexed": true,
					"internalType": "bytes32",
					"name": "poolId",
					"type": "bytes32"
				},
				{
					"indexed": false,
					"internalType": "contract IERC20[]",
					"name": "tokens",
					"type": "address[]"
				},
				{
					"indexed": false,
					"internalType": "address[]",
					"name": "assetManagers",
					"type": "address[]"
				}
			],
			"name": "TokensRegistered",
			"type": "event"
		},
		{
			"inputs": [],
			"name": "WETH",
			"outputs": [
				{
					"internalType": "contract IWETH",
					"name": "",
					"type": "address"
				}
			],
			"stateMutability": "view",
			"type": "function"
		},
		{
			"inputs": [
				{
					"internalType": "enum IVault.SwapKind",
					"name": "kind",
					"type": "uint8"
				},
				{
					"components": [
						{
							"internalType": "bytes32",
							"name": "poolId",
							"type": "bytes32"
						},
						{
							"internalType": "uint256",
							"name": "assetInIndex",
							"type": "uint256"
						},
						{
							"internalType": "uint256",
							"name": "assetOutIndex",
							"type": "uint256"
						},
						{
							"internalType": "uint256",
							"name": "amount",
							"type": "uint256"
						},
						{
							"internalType": "bytes",
							"name": "userData",
							"type": "bytes"
						}
					],
					"internalType": "struct IVault.BatchSwapStep[]",
					"name": "swaps",
					"type": "tuple[]"
				},
				{
					"internalType": "contract IAsset[]",
					"name": "assets",
					"type": "address[]"
				},
				{
					"components": [
						{
							"internalType": "address",
							"name": "sender",
							"type": "address"
						},
						{
							"internalType": "bool",
							"name": "fromInternalBalance",
							"type": "bool"
						},
						{
							"internalType": "address payable",
							"name": "recipient",
							"type": "address"
						},
						{
							"internalType": "bool",
							"name": "toInternalBalance",
							"type": "bool"
						}
					],
					"internalType": "struct IVault.FundManagement",
					"name": "funds",
					"type": "tuple"
				},
				{
					"internalType": "int256[]",
					"name": "limits",
					"type": "int256[]"
				},
				{
					"internalType": "uint256",
					"name": "deadline",
					"type": "uint256"
				}
			],
			"name": "batchSwap",
			"outputs": [
				{
					"internalType": "int256[]",
					"name": "assetDeltas",
					"type": "int256[]"
				}
			],
			"stateMutability": "payable",
			"type": "function"
		},
		{
			"inputs": [
				{
					"internalType": "bytes32",
					"name": "poolId",
					"type": "bytes32"
				},
				{
					"internalType": "contract IERC20[]",
					"name": "tokens",
					"type": "address[]"
				}
			],
			"name": "deregisterTokens",
			"outputs": [],
			"stateMutability": "nonpayable",
			"type": "function"
		},
		{
			"inputs": [
				{
					"internalType": "bytes32",
					"name": "poolId",
					"type": "bytes32"
				},
				{
					"internalType": "address",
					"name": "sender",
					"type": "address"
				},
				{
					"internalType": "address payable",
					"name": "recipient",
					"type": "address"
				},
				{
					"components": [
						{
							"internalType": "contract IAsset[]",
							"name": "assets",
							"type": "address[]"
						},
						{
							"internalType": "uint256[]",
							"name": "minAmountsOut",
							"type": "uint256[]"
						},
						{
							"internalType": "bytes",
							"name": "userData",
							"type": "bytes"
						},
						{
							"internalType": "bool",
							"name": "toInternalBalance",
							"type": "bool"
						}
					],
					"internalType": "struct IVault.ExitPoolRequest",
					"name": "request",
					"type": "tuple"
				}
			],
			"name": "exitPool",
			"outputs": [],
			"stateMutability": "nonpayable",
			"type": "function"
		},
		{
			"inputs": [
				{
					"internalType": "contract IFlashLoanRecipient",
					"name": "recipient",
					"type": "address"
				},
				{
					"internalType": "contract IERC20[]",
					"name": "tokens",
					"type": "address[]"
				},
				{
					"internalType": "uint256[]",
					"name": "amounts",
					"type": "uint256[]"
				},
				{
					"internalType": "bytes",
					"name": "userData",
					"type": "bytes"
				}
			],
			"name": "flashLoan",
			"outputs": [],
			"stateMutability": "nonpayable",
			"type": "function"
		},
		{
			"inputs": [
				{
					"internalType": "bytes4",
					"name": "selector",
					"type": "bytes4"
				}
			],
			"name": "getActionId",
			"outputs": [
				{
					"internalType": "bytes32",
					"name": "",
					"type": "bytes32"
				}
			],
			"stateMutability": "view",
			"type": "function"
		},
		{
			"inputs": [],
			"name": "getAuthorizer",
			"outputs": [
				{
					"internalType": "contract IAuthorizer",
					"name": "",
					"type": "address"
				}
			],
			"stateMutability": "view",
			"type": "function"
		},
		{
			"inputs": [],
			"name": "getDomainSeparator",
			"outputs": [
				{
					"internalType": "bytes32",
					"name": "",
					"type": "bytes32"
				}
			],
			"stateMutability": "view",
			"type": "function"
		},
		{
			"inputs": [
				{
					"internalType": "address",
					"name": "user",
					"type": "address"
				},
				{
					"internalType": "contract IERC20[]",
					"name": "tokens",
					"type": "address[]"
				}
			],
			"name": "getInternalBalance",
			"outputs": [
				{
					"internalType": "uint256[]",
					"name": "balances",
					"type": "uint256[]"
				}
			],
			"stateMutability": "view",
			"type": "function"
		},
		{
			"inputs": [
				{
					"internalType": "address",
					"name": "user",
					"type": "address"
				}
			],
			"name": "getNextNonce",
			"outputs": [
				{
					"internalType": "uint256",
					"name": "",
					"type": "uint256"
				}
			],
			"stateMutability": "view",
			"type": "function"
		},
		{
			"inputs": [],
			"name": "getPausedState",
			"outputs": [
				{
					"internalType": "bool",
					"name": "paused",
					"type": "bool"
				},
				{
					"internalType": "uint256",
					"name": "pauseWindowEndTime",
					"type": "uint256"
				},
				{
					"internalType": "uint256",
					"name": "bufferPeriodEndTime",
					"type": "uint256"
				}
			],
			"stateMutability": "view",
			"type": "function"
		},
		{
			"inputs": [
				{
					"internalType": "bytes32",
					"name": "poolId",
					"type": "bytes32"
				}
			],
			"name": "getPool",
			"outputs": [
				{
					"internalType": "address",
					"name": "",
					"type": "address"
				},
				{
					"internalType": "enum IVault.PoolSpecialization",
					"name": "",
					"type": "uint8"
				}
			],
			"stateMutability": "view",
			"type": "function"
		},
		{
			"inputs": [
				{
					"internalType": "bytes32",
					"name": "poolId",
					"type": "bytes32"
				},
				{
					"internalType": "contract IERC20",
					"name": "token",
					"type": "address"
				}
			],
			"name": "getPoolTokenInfo",
			"outputs": [
				{
					"internalType": "uint256",
					"name": "cash",
					"type": "uint256"
				},
				{
					"internalType": "uint256",
					"name": "managed",
					"type": "uint256"
				},
				{
					"internalType": "uint256",
					"name": "lastChangeBlock",
					"type": "uint256"
				},
				{
					"internalType": "address",
					"name": "assetManager",
					"type": "address"
				}
			],
			"stateMutability": "view",
			"type": "function"
		},
		{
			"inputs": [
				{
					"internalType": "bytes32",
					"name": "poolId",
					"type": "bytes32"
				}
			],
			"name": "getPoolTokens",
			"outputs": [
				{
					"internalType": "contract IERC20[]",
					"name": "tokens",
					"type": "address[]"
				},
				{
					"internalType": "uint256[]",
					"name": "balances",
					"type": "uint256[]"
				},
				{
					"internalType": "uint256",
					"name": "lastChangeBlock",
					"type": "uint256"
				}
			],
			"stateMutability": "view",
			"type": "function"
		},
		{
			"inputs": [],
			"name": "getProtocolFeesCollector",
			"outputs": [
				{
					"internalType": "contract IProtocolFeesCollector",
					"name": "",
					"type": "address"
				}
			],
			"stateMutability": "view",
			"type": "function"
		},
		{
			"inputs": [
				{
					"internalType": "address",
					"name": "user",
					"type": "address"
				},
				{
					"internalType": "address",
					"name": "relayer",
					"type": "address"
				}
			],
			"name": "hasApprovedRelayer",
			"outputs": [
				{
					"internalType": "bool",
					"name": "",
					"type": "bool"
				}
			],
			"stateMutability": "view",
			"type": "function"
		},
		{
			"inputs": [
				{
					"internalType": "bytes32",
					"name": "poolId",
					"type": "bytes32"
				},
				{
					"internalType": "address",
					"name": "sender",
					"type": "address"
				},
				{
					"internalType": "address",
					"name": "recipient",
					"type": "address"
				},
				{
					"components": [
						{
							"internalType": "contract IAsset[]",
							"name": "assets",
							"type": "address[]"
						},
						{
							"internalType": "uint256[]",
							"name": "maxAmountsIn",
							"type": "uint256[]"
						},
						{
							"internalType": "bytes",
							"name": "userData",
							"type": "bytes"
						},
						{
							"internalType": "bool",
							"name": "fromInternalBalance",
							"type": "bool"
						}
					],
					"internalType": "struct IVault.JoinPoolRequest",
					"name": "request",
					"type": "tuple"
				}
			],
			"name": "joinPool",
			"outputs": [],
			"stateMutability": "payable",
			"type": "function"
		},
		{
			"inputs": [
				{
					"components": [
						{
							"internalType": "enum IVault.PoolBalanceOpKind",
							"name": "kind",
							"type": "uint8"
						},
						{
							"internalType": "bytes32",
							"name": "poolId",
							"type": "bytes32"
						},
						{
							"internalType": "contract IERC20",
							"name": "token",
							"type": "address"
						},
						{
							"internalType": "uint256",
							"name": "amount",
							"type": "uint256"
						}
					],
					"internalType": "struct IVault.PoolBalanceOp[]",
					"name": "ops",
					"type": "tuple[]"
				}
			],
			"name": "managePoolBalance",
			"outputs": [],
			"stateMutability": "nonpayable",
			"type": "function"
		},
		{
			"inputs": [
				{
					"components": [
						{
							"internalType": "enum IVault.UserBalanceOpKind",
							"name": "kind",
							"type": "uint8"
						},
						{
							"internalType": "contract IAsset",
							"name": "asset",
							"type": "address"
						},
						{
							"internalType": "uint256",
							"name": "amount",
							"type": "uint256"
						},
						{
							"internalType": "address",
							"name": "sender",
							"type": "address"
						},
						{
							"internalType": "address payable",
							"name": "recipient",
							"type": "address"
						}
					],
					"internalType": "struct IVault.UserBalanceOp[]",
					"name": "ops",
					"type": "tuple[]"
				}
			],
			"name": "manageUserBalance",
			"outputs": [],
			"stateMutability": "payable",
			"type": "function"
		},
		{
			"inputs": [
				{
					"internalType": "enum IVault.SwapKind",
					"name": "kind",
					"type": "uint8"
				},
				{
					"components": [
						{
							"internalType": "bytes32",
							"name": "poolId",
							"type": "bytes32"
						},
						{
							"internalType": "uint256",
							"name": "assetInIndex",
							"type": "uint256"
						},
						{
							"internalType": "uint256",
							"name": "assetOutIndex",
							"type": "uint256"
						},
						{
							"internalType": "uint256",
							"name": "amount",
							"type": "uint256"
						},
						{
							"internalType": "bytes",
							"name": "userData",
							"type": "bytes"
						}
					],
					"internalType": "struct IVault.BatchSwapStep[]",
					"name": "swaps",
					"type": "tuple[]"
				},
				{
					"internalType": "contract IAsset[]",
					"name": "assets",
					"type": "address[]"
				},
				{
					"components": [
						{
							"internalType": "address",
							"name": "sender",
							"type": "address"
						},
						{
							"internalType": "bool",
							"name": "fromInternalBalance",
							"type": "bool"
						},
						{
							"internalType": "address payable",
							"name": "recipient",
							"type": "address"
						},
						{
							"internalType": "bool",
							"name": "toInternalBalance",
							"type": "bool"
						}
					],
					"internalType": "struct IVault.FundManagement",
					"name": "funds",
					"type": "tuple"
				}
			],
			"name": "queryBatchSwap",
			"outputs": [
				{
					"internalType": "int256[]",
					"name": "",
					"type": "int256[]"
				}
			],
			"stateMutability": "nonpayable",
			"type": "function"
		},
		{
			"inputs": [
				{
					"internalType": "enum IVault.PoolSpecialization",
					"name": "specialization",
					"type": "uint8"
				}
			],
			"name": "registerPool",
			"outputs": [
				{
					"internalType": "bytes32",
					"name": "",
					"type": "bytes32"
				}
			],
			"stateMutability": "nonpayable",
			"type": "function"
		},
		{
			"inputs": [
				{
					"internalType": "bytes32",
					"name": "poolId",
					"type": "bytes32"
				},
				{
					"internalType": "contract IERC20[]",
					"name": "tokens",
					"type": "address[]"
				},
				{
					"internalType": "address[]",
					"name": "assetManagers",
					"type": "address[]"
				}
			],
			"name": "registerTokens",
			"outputs": [],
			"stateMutability": "nonpayable",
			"type": "function"
		},
		{
			"inputs": [
				{
					"internalType": "contract IAuthorizer",
					"name": "newAuthorizer",
					"type": "address"
				}
			],
			"name": "setAuthorizer",
			"outputs": [],
			"stateMutability": "nonpayable",
			"type": "function"
		},
		{
			"inputs": [
				{
					"internalType": "bool",
					"name": "paused",
					"type": "bool"
				}
			],
			"name": "setPaused",
			"outputs": [],
			"stateMutability": "nonpayable",
			"type": "function"
		},
		{
			"inputs": [
				{
					"internalType": "address",
					"name": "sender",
					"type": "address"
				},
				{
					"internalType": "address",
					"name": "relayer",
					"type": "address"
				},
				{
					"internalType": "bool",
					"name": "approved",
					"type": "bool"
				}
			],
			"name": "setRelayerApproval",
			"outputs": [],
			"stateMutability": "nonpayable",
			"type": "function"
		},
		{
			"inputs": [
				{
					"components": [
						{
							"internalType": "bytes32",
							"name": "poolId",
							"type": "bytes32"
						},
						{
							"internalType": "enum IVault.SwapKind",
							"name": "kind",
							"type": "uint8"
						},
						{
							"internalType": "contract IAsset",
							"name": "assetIn",
							"type": "address"
						},
						{
							"internalType": "contract IAsset",
							"name": "assetOut",
							"type": "address"
						},
						{
							"internalType": "uint256",
							"name": "amount",
							"type": "uint256"
						},
						{
							"internalType": "bytes",
							"name": "userData",
							"type": "bytes"
						}
					],
					"internalType": "struct IVault.SingleSwap",
					"name": "singleSwap",
					"type": "tuple"
				},
				{
					"components": [
						{
							"internalType": "address",
							"name": "sender",
							"type": "address"
						},
						{
							"internalType": "bool",
							"name": "fromInternalBalance",
							"type": "bool"
						},
						{
							"internalType": "address payable",
							"name": "recipient",
							"type": "address"
						},
						{
							"internalType": "bool",
							"name": "toInternalBalance",
							"type": "bool"
						}
					],
					"internalType": "struct IVault.FundManagement",
					"name": "funds",
					"type": "tuple"
				},
				{
					"internalType": "uint256",
					"name": "limit",
					"type": "uint256"
				},
				{
					"internalType": "uint256",
					"name": "deadline",
					"type": "uint256"
				}
			],
			"name": "swap",
			"outputs": [
				{
					"internalType": "uint256",
					"name": "amountCalculated",
					"type": "uint256"
				}
			],
			"stateMutability": "payable",
			"type": "function"
		},
		{
			"stateMutability": "payable",
			"type": "receive"
		}
	]
}